:020000040800F2
:10000000B00800200D0100088501000885010008E6
:100010008501000885010008850100080000000036
:1000200000000000000000000000000000000000D0
:100030008501000800000000000000000000000032
:100040008501000885010008850100088501000878
:100050008501000885010008850100088501000868
:100060008501000885010008850100088501000858
:100070008501000885010008850100088501000848
:100080008501000885010008850100088501000838
:100090000114000885010008850100088501000899
:1000A0008501000885010008850100088501000818
:1000B0008501000885010008850100088501000808
:1000C00085010008850100088501000885010008F8
:1000D00085010008850100088501000885010008E8
:1000E0008501000885010008850100080000000066
:1000F0000000000000000000000000000000000000
:1001000000000000000000005FF808F1154880F3CF
:100110000888154A82F3098890420DD0022080F3A6
:100120001488BFF36F8F114A03E04AF2A55342F8D7
:10013000043B0C4B9A42F8D3002103E00C4B5B5874
:10014000435004310B480C4B42189A42F6D30B4AE9
:1001500002E0002342F8043B094B9A42F9D300F035
:100160007BF87047B0080020B0080020B4040020DD
:10017000442D00080000002014010020140100207C
:10018000B4040020FEE70000184B10B59C68184B23
:1001900022681340B3F1005F24D101F099FC4FF0C5
:1001A000FF30012101F014FE4FF0FF30012101F07A
:1001B0001BFE4FF0FF30002101F00AFE4FF0FF3030
:1001C000002101F011FE0B4A0023136053606368A5
:1001D000094A1360094A1360226882F30888BDE85F
:1001E00010401847064B0C221A7010BD802F0008D3
:1001F0000000FE2F405C00408402002088020020A6
:100200008002002010B5B2FBF0F4B4FBF1F301FB67
:1002100013434343B3FBF1F34143B2FBF1F1C9078D
:1002200048BFC31A00FB1420984294BF002001204D
:1002300010BD000008B5064B064918683F2201F0C2
:10024000FDFA10B1034800F029F9012008BD00BFF4
:1002500068040020140100202DE9F84300F0B8FCE8
:1002600000F0F4FB00F06FFD002000F05DFE574D44
:1002700085F83F0000F078FD0128044608D14FF4CE
:100280007A7001F0FFF985F8404000F095FD0BE031
:1002900000F07EFD012807D185F8410000F08CFDBB
:1002A0004FF47A7001F0EEF995F83F30012B05D04C
:1002B000464B93F84030581E43424341012B434C78
:1002C00085F84230424F09D100F0C0FB94F840302D
:1002D000012B0CBF002307233B7002E0012384F8AD
:1002E000413001F0DBF980460026404601F0E8F994
:1002F00095F841308044012B064401D1FFF744FFBB
:100300003B78344C092B29D8DFE803F0050A28286C
:100310002805131E280541F28833236064230CE06E
:1003200040F6C41341F28831642284E80E0032237F
:100330001AE040F6C413236032230020636000F00B
:100340007FFC0023A36010E04FF000094846C4F88A
:10035000009000F059FCC4F8089006E041F28832A1
:10036000642384E80C00A260E360206828B1194B84
:1003700032465968FFF746FF18B1002000F044FCF0
:1003800001E000F05DFCA06848B1124B3246D9682C
:10039000FFF738FF18B1002000F036FC02E0002023
:1003A00000F04EFC0C4B9E4209D80C4B9E4207D9E4
:1003B0003B78072B04D1012385F8413000E000266B
:1003C000FFF738FF002000F0D7FA8EE71401002075
:1003D000800200200000002080F0FA02808D5B0087
:1003E00030B1012807D1054B98685B681844704705
:1003F000024B586870470020704700BF6003002020
:1004000020B1012809D1064B187B01E0044B986804
:10041000814294BF0020012070470120704700BF37
:1004200060030020034B1B780BB900F001BD0020D6
:10043000704700BF1E0300202DE9F0410F4CD4F897
:100440000880E7686569A679FFF7ECFF6379227990
:10045000E17943EA02220A4B01241C70094B002473
:10046000EDB21C7003245C70C3F804809F601D73A0
:100470005E73DA8119745861BDE8F081802F00083D
:100480005C0100207803002003460A460249086800
:10049000194601F0A5B900BF680400202DE9F74F07
:1004A00005460278B14CC2F38013A37043786E798D
:1004B0001B0663608078DFF8E4A203EB0040606015
:1004C000E9782B794FEAD21803EB0123A979034489
:1004D0000F04287A8AF80010C2F3401C95F807E050
:1004E000DFF8BCA202F01F0207EB06670744019287
:1004F00007EB0E2BDFF8AC928AF800E09C4FDFF898
:10050000A8A29DF804208AF8000084F8018084F8ED
:1005100003C06360C7F800B089F800602272CA4661
:10052000B8F1000F0AD0DFF87082DFF8809258F837
:10053000042B49F8042B8F4A9045F8D1019A013ACF
:100540000A2A00F2E181DFE812F0EA00DF010B0085
:1005500058016601690145006E019101DF01B40196
:10056000854F3B78072B03D12378B34203D8CBE1E7
:10057000002B40F0C98116B10120FFF75DFF002379
:100580009AF800103B7018234B437C4A7C4ED518D8
:1005900012F803E07B4B7C4A83F800E06B7803F0B1
:1005A00001011170794AC3F3400313700FCD0FC6D8
:1005B00095E8030086E80300BEF1000F02D0BEF10B
:1005C000010F02E000F008FC012800F09D810823E3
:1005D0003B703CE0DFF8A09199F80020C846012A62
:1005E00000F29281BCF1000F35D022695F4F002AE2
:1005F00040F09080000400EB0E6EA87A644A8644B6
:10060000687A397789000EEB002016703839382265
:10061000B86102FB031130467B61C7F810C0FFF7D9
:10062000EFFE012805D10A2389F800300723FB607B
:100630006AE176B9534B1B7813B1012B04D008E063
:1006400000F0D0FB012804D0082388F80030237A7A
:100650002DE1012324E12069444A00285AD0516940
:100660008B4201D9032151E0013883424DD1013938
:100670008B42444B08BF167F1B7818BF0E26002BF9
:100680003AD1994618465FFA89F3B34232D29B00B9
:10069000DBB263772B445A794FF0030B12063A60B2
:1006A000997902EB01423A60D97902EB01223A6072
:1006B0001B7A1A44364B3A601878FFF791FE354999
:1006C00063688A463822534303EB89031844086061
:1006D000002040B9DAF80000396801F045FA031F3C
:1006E0005842584100E00120BBF1010BF1D109F162
:1006F0000109C8E7012804D0082388F80030237ACC
:10070000E360236901332361FEE0022189F80010D0
:10071000D360F9E0082388F800300723C7E0012000
:10072000FFF78AFE1C4B01221A7002225A709AF8B7
:1007300000201946002A3BD125789A70DA701A7188
:100740005A719A71DD711346AA420ADA0B4E1820CB
:1007500000FB026040785600B04003439BB2013278
:10076000F2E71A0A0A724B7242E000BF5C010020F5
:10077000D80200205F0300208002002078030020C0
:10078000600300201E0300208D0200208C02002048
:10079000D5020020D00200201F030020D402002038
:1007A000DD020020D6020020DC0200208E020020A4
:1007B0005F49501E182505FB00119A714A7B886815
:1007C000DA710A7B060E1A72CA8949699E700D0E8B
:1007D000060C9D720D0CDE705871060ADD72D0B2E7
:1007E0000D0A120A1E7158721D7359739A73D873C9
:1007F00050483F21FFF748FE86E045F6FE239B4523
:1008000003D14FF6FF7000F0E2FA01F061F94A4BB4
:1008100001221A7078E000F08FF975E0474A002352
:100820002361137070E0454D2B78012B6CD1236947
:100830006169013B8B42424A0DD100231361414B58
:100840001B780BB1052305E09669FFF7EBFD8642A7
:10085000F8D00B232B7023696269013B934253D27A
:10086000374B00221A6104232B704DE0DFF8CC8057
:1008700098F80070BFB961620E220E39304602FB53
:100880000311A6772362FFF7BBFD01282C4D05D18C
:100890000A2388F800300923EB6035E0AF620623B5
:1008A00088F8003030E0082388F800300923E3603E
:1008B0002AE0254B01221A700C225A701F4A164654
:1008C0001178022909BFE268E068100E987005BF30
:1008D000100CD870C0F30725100A1CBF0022DD7071
:1008E00018714FF00005997112484FF03F0118BF81
:1008F0009A705A71DD711D725D72FFF7C5FD337814
:10090000052B04BF0D4B1D706378012B0CD10F48D4
:100910000B4B3F219A784378134300F8013F03B013
:10092000BDE8F04FFFF7B0BD03B0BDE8F08F00BFEA
:1009300078030020200300205501002080020020C1
:100940005C010020D50200201F0300208E02002041
:10095000F8B505460F4662B90446061D781B2044CB
:1009600000F039FA037804F8013BB442F6D10120D3
:10097000F8BD0020F8BD00002DE9F047274F3B7877
:10098000062B48D1264B274C1D4601221A700A22FD
:100990005A70A26A4FF00009110E9970110CD970AB
:1009A000110A1971216A5A7101398A420CBF94F8EF
:1009B00024A04FF00E0A5FFA89F3534517D2A36AB9
:1009C0004FEA89064FF03808A07F08FB0368FFF75D
:1009D00007FD154B063608EB00011A78A819FFF73A
:1009E000B7FF08B908233B7009F10109E3E7A36ADF
:1009F000226A0133013A9342A36281BF05233B700F
:100A0000084B0A2209484FF03F01BDE8F04788BF74
:100A1000DA60FFF739BDBDE8F08700BF8002002033
:100A2000DE0200205C0100201E030020DF02002007
:100A3000012804D00228034818BF0020704702484C
:100A4000704700BF0C2C0008042C000813B51020C0
:100A500001F026F8022001F019F800F0C1FD00F0C5
:100A600071F9174B5C792046FFF7E2FF00B9FEE70A
:100A700000F002F900F030F800F008FF012C02D07D
:100A8000022C03D00DE068460E4901E068460E498D
:100A900000F01CFA01A80D49009A00F07DFC08B98D
:100AA00001E0FEE7FEE70A480A49019A00F06AFE03
:100AB00000B1FEE74020012101F066F902B010BD4F
:100AC000802F0008142C0008382C00085C2C00082B
:100AD00068040020C82C000830B5144D89B001A866
:100AE00000F04AF8124C01A9A81C182200F0E8FEF8
:100AF0001049032200F0E4FE214602201C2200F0EF
:100B00005BFB29460320382200F056FB04F11C0150
:100B10000020042200F050FB012004F120011C22DF
:100B200000F04AFB002009B030BD00BF10000020DB
:100B3000882C0008C42C000808B500F0DFF800205D
:100B400000F07EF84FF0FF30002101F041F94FF046
:100B5000FF30002101F048F9BFF34F8F0449054BE6
:100B6000CA6802F4E0621343CB60BFF34F8FFEE725
:100B700000ED00E00400FA050022531003F10053D9
:100B8000A3F618031B7812F0010FDBB208BF1B0994
:100B900003F00F03092B8CBF372130210B44835402
:100BA0000132182AE9D10023037618467047000065
:100BB00008B50648002101F063F94FF4407001F0D8
:100BC0001FF9BDE80840042001F064B900000008E6
:100BD00007B500F09FFE01217D2001F0E1F801A89A
:100BE00001F03AF848238DF8073006484FF40043E7
:100BF00001A9ADF8043000F0E1FFFFF7D9FF03B021
:100C00005DF804FB001001400C4B10B51A6802B9E6
:100C1000FEE7137998420FD21423584313681A1829
:100C2000147C918818581CB1BDE8104001F022B81E
:100C3000BDE8104001F020B810BD00BF88010020C1
:100C40000C4B10B51A6802B9FEE7137998420FD21F
:100C50001423584313681A18147C918818581CB12F
:100C6000BDE8104001F008B8BDE8104001F002B83E
:100C700010BD00BF880100202DE9F843054600B9EA
:100C8000FEE71C4B002718602B79FEB2B3422DD92A
:100C900014247443D5F80080174A58F8043008EB40
:100CA0000409934209D002F58062934207D0A2F56D
:100CB000006293420ED1042002E0082000E01020E0
:100CC000012101F06DF8D9F80C0020B1012100F0EC
:100CD000D5FF00E0FEE758F8040009F1040100F038
:100CE0006DFF3046FFF7ACFF0137CDE70020BDE8D0
:100CF000F88300BF88010020000C0140074B1A68F0
:100D000012B9EFF310825A604FF0010080F310889F
:100D10001A68002001321A60704700BF8C01002061
:100D2000074B186830B10138186030B95B6883F33D
:100D3000108870474FF0FF3070470020704700BFA9
:100D40008C010020704708B54020012101F01CF8FB
:100D50004FF0C050012101F02FF8012000F0BEFF3C
:100D6000BDE8084000F06EBE10B5042000F05AFE49
:100D70000446082000F056FE41F222139C4205D1A1
:100D80004AF65523C31A5842584110BD002010BDE1
:100D900010B5042000F046FE0446082000F042FE94
:100DA00041F222139C4205D14BF61133C31A58422B
:100DB000584110BD002010BD08B50420002100F0EE
:100DC00023FEBDE808400820002100F01DBE0146BA
:100DD0000C2000F019BE704708B500F06DFE012030
:100DE00008BD00002DE9F0410E4D0024D5F8088023
:100DF0004646EB6803EB08026B6913449E420DD232
:100E00005CB90327304600F091FE042802D0013F70
:100E1000F8D1012406F58066EBE7012484F0010097
:100E2000BDE8F081802F00084020012100F0ACBF18
:100E300008B5FFF7F9FF00F00FFE054BD968986879
:100E4000890800F00FFEBDE8084000F019BE00BFA1
:100E5000802F0008034B10B101221A7000E01870B7
:100E6000002070479401002037B5154D03242C60F5
:100E700001A800F0F1FE4FF4805301A9ADF8043051
:100E8000104810238DF807308DF8064000F096FECC
:100E9000322000F0F7FB02232B60052000F0CEFB90
:100EA000094B00242C6020461C6000F01DFF4FF40D
:100EB0000000012100F080FF204603B030BD00BFDC
:100EC000405C004000080140445C004070B50E46A4
:100ED000054600B9FEE701B9FEE7082000F000FD75
:100EE0000446C8B10E4B80E84800FFF7BDFF6068BC
:100EF0000C4B08305C6000F08DFF002000F0F4FE29
:100F000001214FF4000000F057FF01F0E9FB01F070
:100F10001BFE2C60002070BD4FF0FF3070BD00BF85
:100F2000045936179401002008B50B4B586890B14E
:100F300001680A4A914201D0002008BD4268D06889
:100F400030B1118A00F090FE431E5842584108BD4E
:100F5000187AC0B208BD08BD9401002004593617A4
:100F600010B5094C63682BB11A68084B9A4203D03C
:100F7000002010BD184610BDFFF7D6FF00B1207845
:100F800000F0010010BD00BF940100200459361785
:100F9000014B01221A72704794010020014B00227C
:100FA0001A72704794010020014B04221A607047A6
:100FB000E80100207047704710B5134B1B681A7882
:100FC00002F07F02012A02D0212A0CD00FE05A79C8
:100FD0006AB906280BD19A78212A02D0222A08D091
:100FE00005E00A4A08E05A790AB9032803D002202A
:100FF00010BD074A00E0074A00249A615C8220463F
:101000009047204610BD00BFA804002079100008BA
:10101000851000082910000821B9002814BF0220FB
:10102000002070470220704720B9034B01221B6843
:101030001A82704701487047A80400206C04002001
:10104000054B1B68DB78042B04D8044901EBC30172
:1010500001F0F2B800207047A8040020A001002091
:10106000014901F0E9B800BFC0010020014901F0C9
:10107000E3B800BFC8010020014901F0DDB800BF9E
:10108000D0010020014901F0D7B800BFD8010020ED
:10109000254B10B51B6800249C72DC725C722046E4
:1010A00001F018FC20464FF4007101F01BFC2046B3
:1010B000402101F0C5FC1021204601F021FC204612
:1010C00001F088FC2046202101F0CAFC174B204685
:1010D00093F82C1001F002FD204601F068FC01207D
:1010E0004FF4C06101F0FEFB0120602101F0A8FC7B
:1010F0000120402101F0E4FC0120202101F000FC4E
:101100000120802101F0ACFC0120402101F0E6FC2F
:1011100001204FF4405101F00CFC204601F090FA00
:10112000034B01221A6010BDA804002048000020D3
:10113000E8010020054B10B51B6800249C7200F0EC
:10114000C7F901F001FD024B1C6010BDA80400208E
:10115000E8010020054B1B68987A10B1044B05226A
:101160001A60003018BF0120FFF774BEA8040020E9
:10117000E8010020084B1A68137803F07F03212B45
:1011800008D1537933B90B2804D1D178034A1846D2
:101190001160704702207047A80400206C040020F2
:1011A000014B986299857047A0010020014B19629C
:1011B0009A847047A001002003289FBF034B43F887
:1011C000301003EBC0039A80704700BFA0010020DD
:1011D000014B186399867047A0010020014B98636A
:1011E00099877047A001002010B5044B04689C4209
:1011F00000D0FEE70261C16010BD00BF00BB00AAC5
:1012000010B5044B04689C4200D0FEE78261416146
:1012100010BD00BF00BB00AA38B502680F4B0446E2
:101220009A420D4600D0FEE78068FFF799FEA0B114
:10123000FFF764FD6368587801F09DFBB0F5405FEF
:1012400007D03E2D05D963684FF44051587801F01E
:1012500070FBBDE83840FFF763BD38BD00BB00AA96
:1012600030B5456985B0044615B304AA002302F8D9
:10127000013D0092806904F15D013F22A8470546C7
:10128000B0B1012384F85C306368987801F0F8FB12
:101290006A1C014692B204F15C0001F0F1FA636845
:1012A0004021987801F00CFC6368987801F06CFBA1
:1012B00005B030BD02680B4B10B59A42044600D011
:1012C000FEE78068FFF74CFE50B16368987801F044
:1012D00049FB302804D02046BDE81040FFF7C0BFCE
:1012E00010BD00BF00BB00AA084B10B51C68084B1E
:1012F00022689A4200D0FEE7A068FFF731FE20B1D5
:101300002046BDE81040FFF7ABBF10BDE001002054
:1013100000BB00AA1E4B30B51C681E4B226885B06E
:101320009A4200D0FEE76368587801F0F7FB054663
:101330006368587801F0B4FB2A46402D28BF40224C
:10134000014692B204F11C0001F0B2FAE56815B949
:101350006368587815E000238DF80D300DF10D030A
:10136000009320690DF10E0304F11D013F22A847EF
:10137000BDF80E303E2B6368587802D94FF44051C7
:1013800001E04FF4005101F0D4FA05B030BD00BFC8
:10139000E001002000BB00AAF8B50D46174606463E
:1013A00000B9FEE701B9FEE7A42000F099FA04466F
:1013B000B8B10021A42201F0D7FB0B4B0B4984E804
:1013C000A8000B4B0B4A1C60AB780020013B42F895
:1013D00023106B780849094A013B42F82310346016
:1013E000F8BD4FF0FF30F8BD00BB00AAE9120008BD
:1013F000E0010020BC00002015130008A000002020
:1014000070B52D4D2D4C2B682D4E9BB2238022881C
:1014100033881340190401D501F07CF92288338800
:1014200013405A0505D54FF6FF332B60254B5B68FB
:101430009847228831880A40930444BF4DF6FF73D1
:101440002B6023880B40D80405D54EF6FF7300208F
:101450002B6000F083F822883388134019050DD5DE
:10146000194B1B7813B100F047F802E0022000F09E
:1014700075F84FF2FF732B60FFF790FD22883388D9
:1014800013409A0509D54FF6FF53104A2B60137885
:101490000133DBB21370FFF77BFD228833881340E2
:1014A000DB0507D54FF6FF6307202B60BDE87040D2
:1014B00000F054B870BD00BF445C004072040020CE
:1014C000AC04002048000020D8000020E4010020E7
:1014D000064B01221A60064A002006491860106077
:1014E0004FF4E0520A801A60704700BF405C004031
:1014F000445C0040AC040020074A13689BB243F0F0
:101500000803136013689BB243F004031360034B9A
:1015100003221A60704700BF405C0040E8010020D1
:10152000044B9A7A044B0AB1052200E001221A60AA
:10153000704700BF84040020E80100204FF6FB73D1
:1015400010B5054C226813402360FFF7E9FF4FF404
:101550003F43236010BD00BF405C004010B51E4CEF
:10156000072818BF20702378052B32D8DFE803F056
:1015700003060A0E1621FFF7E1FF2AE0FFF7DEFF60
:10158000042327E002236370032323E06378013BF5
:10159000DBB263706378F3B9042217E00F4A136873
:1015A0009BB243F010031360052323700A2363707A
:1015B00010BD6378013BDBB2637063785BB94FF6B3
:1015C000EF73064A11680B4013600622024B1A7033
:1015D00010BD0623237010BD74040020405C004041
:1015E0007FB501A800F086FB019B10494FF0FF3248
:1015F000B3FBF1F1B2FBF1F201FB02F35B42B3FB8F
:10160000F1F30B481344002B0160436000DAFEE75E
:10161000084A0020D36843F08073D360064A1368F9
:1016200043F00103136007B05DF804FB40420F0074
:10163000EC010020F0ED00E0001000E00E4B30B5B2
:10164000DA6842F08072DA600C4A51680C4A156818
:101650000022DC6844F08074DC60084C6468611A25
:101660000A44B2FBF5F1814204D2401A05FB112273
:101670002146EEE7002030BDF0ED00E0001000E074
:10168000EC01002010B504462CB14FF47A70FFF73E
:10169000D5FF013CF8E7204610BD0000054AD3689D
:1016A00043F08073D360044B5868044B1B68B0FB55
:1016B000F3F07047F0ED00E0001000E0EC010020D6
:1016C00010B50446FFF7EAFF044B5B681C1B20447F
:1016D000B0FBF3F203FB120010BD00BFEC010020D1
:1016E00030B5054601B9FEE702B9FEE790F887007C
:1016F000A0B13E2A12D905F1480205F1840052F842
:10170000044B824241F8044BF9D11088088092784A
:101710003F208A70002285F8872000E0002043B136
:1017200095F8872002F0FF0112B13F221A8030BDE8
:10173000198030BD30B5054690F8470000F0FF0431
:10174000A0B93E2A14D905F1080201F13C0051F874
:10175000044B814242F8044BF9D108881080897803
:101760003F209170012285F8472002E0002000E030
:10177000204633B195F847200AB93F2200E0002205
:101780001A8030BDF8B51646074600B9FEE701B924
:10179000FEE74B6903B9FEE70B6903B9FEE70D4CA1
:1017A000002561602260104684F8475022460A49AD
:1017B000984763682068DB683F2198476368304634
:1017C00084F887505B690549224698473C60284663
:1017D000F8BD00BFF401002035170008E11600082D
:1017E00038B505460C4601B9FEE702B9FEE73F2AC7
:1017F00006D0FEE76B689B6813B128683F219847C5
:1018000095F88730002BF5D1214605F1480304F106
:101810003C0251F8040B914243F8040BF9D10A88B9
:101820001A808A789A70012385F887306B689B68E4
:1018300013B128683F219847002038BD10B501B981
:10184000FEE702B9FEE73F2A00D0FEE790F84730F6
:1018500003F0FF0433B943681146DB68006898471A
:10186000204610BD00F1080300F1440253F8044B78
:10187000934241F8044BF9D11A880A809B788B7007
:10188000002380F847303F2010BD000010B50B4CFE
:10189000292221460120FFF789FC04F129001221A9
:1018A000FFF77EFC04F112000921FFF791FC04F11F
:1018B0003B002421FFF792FC002010BDE42C00081F
:1018C00030B503460D466C1AE4B29442184603F153
:1018D000020304D215F8010B03F8020CF3E730BD44
:1018E0000A4910B58B684C68C218A24204D9084B4B
:1018F00001221A70002010BD404200F00300104485
:1019000088601846002BF2D010BD00BFDC0000201C
:101910007C020020384B82B01A6842F001021A6043
:101920005968364A0A405A601A6822F0847222F4D2
:1019300080321A601A6822F480221A605A6822F4EF
:10194000FE025A604FF41F029A6000220092019238
:101950001A6842F480321A601A6802F40032019266
:10196000009A01320092019A1AB9009AB2F5A06F5A
:10197000F2D11A6812F4003218BF01220192019AC2
:10198000012A32D11E4A116841F01001116011681C
:1019900021F003011160116841F0020111605A68E1
:1019A0005A605A685A605A6842F480625A605A68AB
:1019B00022F47C125A605A6842F4E8125A601A689B
:1019C00042F080721A6019680B4A8901FBD5516890
:1019D00021F003015160516841F0020151605A68E1
:1019E00002F00C02082AFAD100E0FEE7054B4FF0A6
:1019F00000629A6002B07047001002400000FFF8D9
:101A00000020024000ED00E082B000230193044B6F
:101A10000193019B18440190019B196002B070472B
:101A2000006C004082B000230193054B0193019BA1
:101A300018440190019B188880B202B0704700BF23
:101A4000006C0040034A938E9BB243F001039386DF
:101A5000704700BF006C0040014B01229A60704744
:101A60000030024000EB81018842044B03D050F863
:101A7000042B1A60F8E71868704700BF0030024076
:101A8000014B1868704700BF00300240034A1368DA
:101A900003F0380318431060704700BF0020024075
:101AA000044B1A6822F010021A601A68104318607A
:101AB000704700BF00200240034B044A5A6002F105
:101AC00088325A60704700BF0020024023016745FA
:101AD000024A136943F080031361704700200240FB
:101AE000084BDA68D10709D4DA68520708D4DB68F2
:101AF00013F0100F14BF032004207047012070471B
:101B0000022070470020024010B50446FFF7E8FFAE
:101B1000012806D11CB1FFF7E3FF013CF8E70520DF
:101B200010BD002C08BF052010BD000038B50546CB
:101B30004FF43020FFF7E8FF042812D1094C4FF48E
:101B40003020236943F0020323616561236943F078
:101B500040032361FFF7D8FF41F6FD73226913406C
:101B6000236138BD0020024073B5002306464FF4C0
:101B700000500D460193FFF7C7FF04281AD10E4C01
:101B80004FF40050236943F001032361ABB233806B
:101B9000FFF7BAFF042808D102360196019B2D0CED
:101BA0001D804FF40050FFF7AFFF41F6FE7322692E
:101BB0001340236102B070BD00200240CA78F0B526
:101BC000D40648BF8C780D8802F00F0348BF23432A
:101BD00015F0FF0F1DD0016800240126A64006EA7B
:101BE0000507B74211D14FEA840E0F2606FA0EF60A
:101BF00021EA0601282A03FA0EF641EA060101D17C
:101C0000476102E0482A08BF07610134082CE4D18B
:101C10000160FF2D1FD94168002404F10807012647
:101C2000BE4006EA0507B74211D14FEA840E0F26DF
:101C300006FA0EF621EA0601282A03FA0EF641EA10
:101C4000060101D1476102E0482A08BF076101345B
:101C5000082CE2D14160F0BD4FF6FF7303800223F0
:101C600083700423C37070478368194214BF012036
:101C7000002070470161704741617047002830B50E
:101C8000154C00F44015B4BFE3696368B5F5401F17
:101C900082B206D1656823F0706325F070656560D7
:101CA0000EE0C40255BF440D03242401C0F30345D4
:101CB0004CBFAC4002FA04F423EA040343F070631F
:101CC00019B1410D09018A401343034A0028B4BFEA
:101CD000D361536030BD00BF00000140014B18606C
:101CE000704700BF20000E42014B1860704700BFD4
:101CF000D80042421F4A10B5536803F00C03042B6E
:101D000003D0082B04D01C4B14E01C4B1B6811E0C3
:101D100053685168C3F38343C90303F1020301D439
:101D2000174906E0516811F4003F1449096818BFCB
:101D300049084B43036053681249C3F30313CC5C57
:101D40000368E34043605468C4F302240C5D23FA43
:101D500004F484605468C4F3C2240C5DE340C3609F
:101D60005268C2F381320A44127CB3FBF2F303617E
:101D700010BD00BF0010024000127A00FC000020DD
:101D800000093D0000010020044B5A6909B11043CD
:101D900001E022EA00005861704700BF00100240D5
:101DA000044B9A6909B1104301E022EA00009861EE
:101DB000704700BF00100240044BDA6909B11043BC
:101DC00001E022EA0000D861704700BF0010024025
:101DD000044BDA6809B1104301E022EA0000D86040
:101DE000704700BF00100240044B1A6909B110434C
:101DF00001E022EA00001861704700BF00100240B5
:101E000040F0BF60024B40F40030D860704700BF24
:101E100000ED00E0C27810B503780AB3164A03F16A
:101E20006043D4684278E443C4F30224C4F104015B
:101E300002FA01F10F22E240847803F56143224067
:101E40000A431201D2B283F8002303780122590910
:101E500003F01F0302FA03F3084A42F8213010BDD1
:101E60005A09012103F01F03994002F12003034A9C
:101E700042F8231010BD00BF00ED00E000E100E0DB
:101E800021F0604121F07F01014B084398607047C9
:101E900000ED00E0044B04281A680CBF42F0040275
:101EA00022F004021A60704710E000E010B5064C02
:101EB00018B9236801221A8210BD044B1B681B68E5
:101EC000984720680A3010BDA8040020A404002010
:101ED00010B5064C18B9236801221A8210BD044BB4
:101EE0001B689B68984720680C3010BDA804002030
:101EF000A404002010B5204A18B9136802221A82DF
:101F000010BD1E481468002303802178024611F09A
:101F10007F010DD1637A990644BF0221017013F04D
:101F2000400F037814BF43F0010323F0010314E0D2
:101F3000012920D002291DD1617901F00F039B00F6
:101F400003F1804303F5B84311F0800F1B6806D0FE
:101F500003F03003102B07D10123137004E003F4C6
:101F60004053B3F5805FF6E7054B1B681B69984744
:101F7000024810BD184610BDA804002076040020B9
:101F8000A40400202DE9F843234FDFF8A0803D682A
:101F90002B8A2E7AB3B9042E14D12048027862B16C
:101FA0001F4A11681F4A89B20A44520013805380A5
:101FB0003022A8F80020037029E01023A8F8003090
:101FC000072624E0AC8AA34294BF042602269C4242
:101FD00028BF1C46AB69204698478146002000F088
:101FE0004FFD22460146484600F04AFC00202146AB
:101FF00000F066FD2B8A4FF440521B1B2B826B8A2C
:1020000023446B823023A8F80030074B1A803B68CA
:102010001E72BDE8F88300BFA80400207D020020E6
:10202000505C004002300020AE040020B0040020CC
:1020300010B50A4B0A491B684978DA7891420AD3ED
:10204000997841B99C8834B99A72064B1B685B68D1
:102050009847204610BD022010BD00BFA8040020F4
:102060009C000020A404002038B50E4A0E4D1268D2
:102070002B6892695879D97890472B689A7A7AB107
:1020800070B91A7962B99C7854B9084B1B68DB683F
:1020900098472B6820465A79DA72DA781A7338BD75
:1020A000022038BD7C040020A8040020A4040020E5
:1020B00038B5314B1B68187810F07F0004D15A7A7C
:1020C00022F020025A7238BD022853D15A88002AC1
:1020D00051D11A79002A4ED15979284D21F080002A
:1020E000840004F1804202F5B84212682D7811F0A4
:1020F000800F14BF02F0300202F44052A84239D2DD
:10210000002A37D09B7A002B34D004F1804404F5A8
:10211000B8440A0623680CD503F03003102B23D1F2
:10212000C4B2204600F079FC2046302100F0E8FBE4
:102130001AE003F44053B3F5805F15D128B9104B72
:1021400093F82C1000F0CAFC01E000F053FC236867
:1021500023F4804323F070039BB283F4405343F491
:10216000004343F080032360064B1B685B6998477C
:10217000002038BD022038BDA80400209C000020AB
:1021800048000020A404002038B51F4B1F4D1868DC
:102190002D78417921F08004A30003F1804202F5FB
:1021A000B842126811F0800F14BF02F0300202F43E
:1021B0004052AC4225D244881CBB12B3827A02B38F
:1021C00003F1804303F5B8431A6809064BBF22F4B4
:1021D000E04222F4804222F0400222F070024BBF23
:1021E00092B292B282F0100282F4805242F4004223
:1021F00042F080021A60064B1B689B6998470020DA
:1022000038BD022038BD00BFA80400209C0000207B
:10221000A404002008B5064B1A68537A43F0200343
:102220005372044B1B68DB699847002008BD00BF50
:10223000A8040020A4040020054B10B51C68628A85
:1022400018B98B889B1A238210BD0868104410BDF2
:10225000A804002008B50C4B002093F82C1000F0C7
:102260003DFC0A4B1B68187A082801BF084B4FF445
:1022700080521A80074B04BF10221A80A0F1090374
:102280005842584108BD00BF48000020A804002063
:10229000AE040020B0040020F7B5964E964B32688D
:1022A000964D92B213442F685B001C683B7A092B51
:1022B00015D0A4B2640004F1804404F5C04423782E
:1022C0003B7063787B70A08800F038FC78802089B0
:1022D0002F6800F033FCB880A2892B68DA802B6865
:1022E00001221A72DA885C78002A62D11A7812F018
:1022F0007F023AD1092C02D1FFF79AFE44E0052C67
:102300000FD193F90320002A01DA08234EE09A78CE
:10231000002AFAD19A88002AF7D19B7A002B37D06D
:10232000F3E7032C13D1DA78012A07D0744B204647
:102330001B685B699847032828D136E09A88002AF1
:10234000F4D15B7A9806F1D5FFF764FF1CE0012C0D
:10235000ECD1DA78012AE9D19A88002AE6D15B7AB1
:102360009906E3D5FFF7A4FE0EE0012A04D10B2C59
:10237000DCD1FFF779FE07E0022AD7D1012CF1D09A
:10238000032CD3D1FFF700FF10B1CFE70028BCD159
:1023900032685C4B92B213445B0000221A805A8070
:1023A000594B30221A80062300E009232A68137251
:1023B000CCE0062C13D11A78520675D19A78504B7E
:1023C000012A02D11B68DB6965E0022A02D11B6881
:1023D0001B6A60E0032A67D11B685B6A5BE0002C24
:1023E0003AD1598800295FD15A6822F47F42B2F568
:1023F000003F59D11A7812F07F0204D19B88002B3C
:1024000000F0A88050E0012A0AD13D4A58791268AC
:1024100092699047002847D1384B1B689B7A18E097
:10242000022A41D15A79394802F00F018B0003F199
:10243000804303F5B8431B68007812F0800F14BF87
:1024400003F0300303F4405381422DD212F0700F99
:102450002AD1002B7ED127E0082C03D11B785B0604
:102460007AD021E00A2C1FD11A7802F07F02012ACB
:102470001AD19A7AC2B15988B1B95A6822F47F4206
:10248000B2F5803F10D11E4A587912689269904780
:10249000002863D008E03BB12A680024548293618D
:1024A0002046984720460AE0154B2A681B6850785A
:1024B0001B699847032802D1104B1B6805E04FF6B3
:1024C000FF712B681A8A8A4201D1092203E002288F
:1024D00000D012B908221A7238E093F900100029CE
:1024E0002EDAD988064C01910198824210D9019ABE
:1024F0001A821EE0505C004004300020A804002036
:102500007C04002002300020B00400209C00002049
:102510008A420ED2216891F82C00824201D2002119
:1025200005E092FBF0F100FB112212B901210C4AE7
:102530001170226892F82C209A82FFF723FD05E0A3
:1025400003221A72074B4FF440521A80FFF782FEA3
:1025500003B0F0BD044B9FE7044B9DE7044B9BE7A2
:102560007D020020AE040020F51E0008AD1E00080C
:10257000D11E0008F8B52C4D2C68237A022B4CD0C4
:10258000042B4AD0032B01D0052B40D1E169238ACB
:10259000A9B1A3B1A68A9E4228BF1E4630468847ED
:1025A000238A07469B1B2382638A0020334463826D
:1025B00000F076FA32460146384600F079F9238A6F
:1025C00053B11A4B00204FF4405201461A8000F0DC
:1025D00077FA174B30221A80A38A228A93422B68FB
:1025E00001D8032201E012B105221A720CE0062183
:1025F0001972104B1968104B89B20B445B001A809A
:102600005A800B4B30221A802B681B7A06E0072B6E
:1026100003D10A4B1B68DB68984708232A681372AA
:10262000BDE8F840FFF716BEA8040020AE04002065
:10263000B0040020505C0040023000207C040020E8
:1026400070B50D4B00221D78AA4210D240F60F71D2
:1026500002F1805303F5B8539B001E6842F4004416
:1026600044F080043140214319600132ECE7034B10
:1026700040F08000186070BD9C0000204C5C004061
:1026800010B5134C23681A7A022A01D0042A04D107
:10269000FFF778FC23681B7A13E0062A10D15A78DA
:1026A000052A09D11A78520606D1D878FFF7C8FF53
:1026B000084B1B681B6A9847074B1B689B68984729
:1026C000082322681372BDE81040FFF7C3BD00BFA6
:1026D000A8040020A40400207C040020704700000F
:1026E000064B074A0749136002221A72064B074A33
:1026F0001360074A1B681160184700BF840400205C
:10270000A804002078000020480000207C0400205D
:10271000A404002073B50023ADF80630504B514A95
:102720001B6899B21B04118040F1978013884E4CAE
:1027300003F00F032370002B61D14C4C4C4D2368E8
:102740004C4E9BB22B802B8803F0300333802B88B8
:1027500003F440532B804BF6BF7321680B4083F486
:10276000005383F0200343F4004343F080032360CD
:102770001388D80607D448F60F73226813402360E5
:10278000FFF77EFF1BE023689BB2ADF80630BDF873
:102790000630190507D540F68F7322681340236071
:1027A000FFF77AFD0BE0BDF806301BB2002BB5DA5F
:1027B00040F68F73226813402360FFF7DBFE4BF671
:1027C000BF73226813402A88D2042A8848BF83F442
:1027D00080539404328848BF83F40053D006328873
:1027E00048BF83F01003910648BF83F0200343F4F1
:1027F000004343F080031D4A9BB213602DE09A0012
:1028000002F1804202F5B842116889B2ADF80610B3
:10281000BDF8061009B2002909DA40F68F71106878
:10282000013B01401160144A52F823309847BDF82B
:1028300006301A067FF572AF48F60F7122789300C2
:1028400003F1804303F5B8431868013A0140196069
:102850000A4B53F82230984760E702B070BD00BFC2
:10286000445C00407204002080040020005C0040B2
:10287000AE040020B0040020A0000020BC00002016
:1028800030B501F10051013201F5405152104900BB
:102890000023934200F1020009D010F8015C10F807
:1028A000024C44EA052421F823400133F1E730BD0E
:1028B00010B501F10051013201F5405152104900AB
:1028C0000023934205D051F8234020F813400133F0
:1028D000F7E710BD4FF6F873014A034013607047E5
:1028E000505C0040800000F1804000F5B840036873
:1028F00023F4EC4323F07003194389B2016070475D
:10290000800000F1804000F5B8400368CA0623F457
:10291000E04323F040039BB248BF83F010038A06D4
:1029200048BF83F0200343F4004343F08003036077
:102930007047800000F1804000F5B8400368CA0489
:1029400023F4804323F070039BB248BF83F4805389
:102950008A0448BF83F4005343F4004343F08003E8
:1029600003607047800000F1804000F5B8400068C7
:1029700000F030007047800000F1804000F5B84062
:10298000006800F440507047800000F1804000F57E
:10299000B840036823F4E04323F040039BB283F084
:1029A000300343F4004343F080030360704780002A
:1029B00000F1804000F5B840036823F4804323F021
:1029C00070039BB283F4405343F4004343F080030D
:1029D00003607047800000F1804000F5B840036854
:1029E00023F4F8731B051B0D43F4004343F08003ED
:1029F00003607047800000F1804000F5B840036834
:102A00005B0441BF40F60F730268134043F4404338
:102A100044BF43F0800303607047800000F18040B2
:102A200000F5B84003685B0641BF40F60F730268CB
:102A3000134043F4004344BF43F0C00303607047B6
:102A4000064B49081B6849009BB203EBC00000F12C
:102A5000005000F54050400001607047505C00405D
:102A6000054B49081B6849009BB203EBC000034BB0
:102A700003445B0019607047505C00400430002044
:102A8000064B1B689BB203EBC00000F1005000F541
:102A900040504000006880B2704700BF505C00406A
:102AA000054B1B689BB203EBC000044B03445B0067
:102AB000186880B2704700BF505C004004300020AE
:102AC000044B1B689BB203EBC000034B03445B0049
:102AD00019607047505C0040023000200D4B3E29C9
:102AE0001B689BB203EBC0000B4B03444FEA43024D
:102AF00009D94B09C80604BF03F1FF339BB29B02FF
:102B000043F4004304E04B08C90748BF01339B026C
:102B100013607047505C004006300020054B1B6876
:102B20009BB203EBC000044B03445B001868C0F386
:102B300009007047505C004006300020C3B2000A14
:102B400040EA032070470000044B0020044A18604C
:102B50004FF43F431380034A13607047445C0040C6
:102B6000AC040020405C004070B4840746D0541E82
:102B7000002A41D0CDB2034602E0621EE4B31446FF
:102B800003F8015B9A07F8D1032C2ED9CDB245EAA0
:102B900005250F2C45EA054519D9264603F11002F3
:102BA000103E0F2E42F8105C42F80C5C42F8085CB4
:102BB00042F8045C02F11002F2D8A4F1100222F0F3
:102BC0000F0204F00F041032032C13440DD91E46DB
:102BD0002246043A032A46F8045BFAD8221F22F060
:102BE00003020432134404F003042CB1C9B21C44A0
:102BF00003F8011BA342FBD170BC70471446034687
:102C0000C2E700BF742C000801000000602C00081F
:102C1000010000000000000000000000140C000192
:102C2000001001400080011C0000000000000000B6
:102C30000000000000000000000000000000000094
:102C4000140C0001001001400040011C00000000B5
:102C50000000000000000000000000000201010070
:102C6000000C0140080003100000000000023000CA
:102C700000000000000801404000031000000000B8
:102C800000000000000000001C0343006F00700003
:102C900074006500720043006F006E0074007200E3
:102CA0006F006C00040309041C036F0070006500D2
:102CB0006E00700069006C006F0074002E006F00E1
:102CC000720067002B424C00000000000000000072
:102CD000B512000819120008E911000801120008D5
:102CE000610F000809022900010100C07D090400EC
:102CF0000002030000000921100100012224000746
:102D0000058103400004070501034000041201008F
:102D10000200000040A0205B410100010203010607
:102D20009CFF0901A10185010902150025FF750815
:102D3000953F810385020902150025FF7508953F1F
:032D40009182C0BD
:102D44008813000064000000881300006400000081
:102D54003803000000000000000000000000000034
:102D6400000000000000000000000000000000005F
:102D7400000000000000000000000000000000004F
:102D84000000000000000000351100089110000848
:102D9400B50F0008B70F0008B90F00087511000837
:102DA400191000086D100008611000084110000897
:102DB4000000000040000000DD2600085511000856
:102DC400DD260008DD260008DD260008DD260008D3
:102DD400DD260008DD260008A90F00080201000016
:102DE400DD260008DD260008DD260008DD260008B3
:102DF400DD260008DD260008DD260008DD260008A3
:102E0400DD260008DD260008DD260008DD26000892
:102E1400DD260008DD26000801000000B4080020BB
:102E240000500020B408002000A24A040000000062
:102E340000000000010203040607080900127A00DA
:102E4400000000000102030401020304060708094C
:042E54000204060866
:102F8000BDBDBDBD04028101003000089CCF010021
:102F90009CFF010864000000000000000000000029
:102FA0000000000000000000000000000000000021
:102FB0000000000000000000000000000000000011
:102FC0000000000000000000000000000000000001
:102FD00000000000000000000000000000000000F1
:102FE00000000000000000000000000000000000E1
:102FF00000000000000000000000000000000000D1
:0400000508000000EF
:00000001FF
