:020000040800F2
:10000000902A0020F5B2000835B300082329000823
:1000100039B300083BB300083DB3000800000000FE
:100020000000000000000000000000003FB30008D6
:1000300041B300080000000043B30008A589000890
:1000400047B3000847B3000847B3000847B30008A8
:1000500047B3000847B3000847B300080D950008F0
:1000600047B3000847B3000847B3000847B3000888
:1000700047B3000847B30008778F000847B300086C
:1000800047B3000847B3000847B3000847B3000868
:1000900047B3000847B3000847B300080F950008AE
:1000A00047B3000847B3000847B30008AF9D0008F6
:1000B000B39D0008B99D0008BD9D0008AB820008F3
:1000C000A9800008AF820008AD82000847B300088D
:1000D00047B30008A38F0008F18F000847B300085A
:1000E000ED79000847B3000847B30008DFF80CD0EB
:1000F0000BF0CAFD00480047A1260008902A002006
:1001000070B51546B0FBF5F40646A84203D3204669
:10011000FFF7F6FF014605FB1460FDA2105C0870B6
:10012000481C70BD70B50C46911E232900D30A22CD
:100130000025002804DA2D212170611C404200E0D6
:100140002146FFF7DDFF0570204670BD2DE9F04721
:10015000044600E0641C20782028FBD00928F9D050
:100160004FF07E58C1B247462D2902D02B2801D02E
:1001700001E0F14F641C0026DFF8C0930CE000BFE3
:100180000BF02EFB0546494630460BF0A7FA2946F0
:100190000BF04CFA0646641C207830380928EFD959
:1001A00020782E2815D14D460EE000BF0BF018FB2D
:1001B00029460BF0C9FA31460BF038FA0646494693
:1001C00028460BF08BFA054614F8010F3038092841
:1001D000ECD921784046652901D0452935D114F85C
:1001E000011F4FF000082D2902D02B2902D002E078
:1001F0004FF00108641C00256FF02F0206E000BFDD
:1002000005EB850302EB4303CD18641C2178A1F1B3
:100210003003092BF4D94FF49A718D4204D90D465D
:10022000C7490BF05BFA083D082DF9D203E04946B7
:100230000BF054FA6D1E002DF9D1B8F1000F04D067
:10024000014630460BF080FA03E0014630460BF0E1
:1002500045FA3946BDE8F0470BF040BAF0B587B033
:1002600000260D46B84900960196B6A70296B0F54D
:10027000000F02DB0BF0DAF901E00BF029FAB349C9
:100280000BF02CFA0BF0BAFA041E00DC60420A22D2
:1002900003A9FFF747FF002C01DB202000E02D2001
:1002A0008DF8000003A80BF072F9302401280AD061
:1002B00003A80BF06CF902280CD003A80BF067F927
:1002C00003280CD00DE08DF801408DF802408DF828
:1002D000034006E08DF801408DF8024001E08DF802
:1002E000014003A968460BF01EF968460BF04FF970
:1002F000C01EC4B22246694628460BF032F92E557C
:10030000394628460BF00FF90DEB040128460BF097
:100310000AF907B02846F0BD70B505460C460868D6
:100320000BF035F9024621682868BDE870400BF0F3
:1003300057B970B506460BF02AF9854D10F0FF0F3E
:1003400010D030460BF065F90446152818DA202144
:1003500030460BF012F90BF05CF905EB4401A1F803
:10036000420070BD5FF0000405EB44002146B0F888
:10037000422078A00BF0B6FD641C152CF4DB70BD98
:10038000BDE87040152176A00BF0ACBD2DE9F04121
:10039000002588B007462E460BF0F9F87A4C10F08D
:1003A000FF0FA84651D0052278A138460BF018F966
:1003B00000287DD0042277A138460BF011F90028DF
:1003C00077D038460BF025F9461E0C2E72DA202124
:1003D00038460BF0D2F8070007D0781C0746FFF725
:1003E000B5FE04EB061101250861202138460BF00B
:1003F000C4F8070007D0471C3846FFF7A7FE04EBF8
:1004000006116D1C4861202138460BF0B6F8070034
:1004100007D0471C3846FFF799FE04EB06116D1C08
:100420008861202138460BF0A8F830B1401CFFF756
:100430008DFE04EB06116D1CC861042D66D057A01B
:1004400001F044F808B0BDE8F08163A001F03EF887
:100450005FF0000504EB0517386910F0FF4F2BD053
:10046000761C691C67A00BF03DFD03A93869FFF7F6
:10047000F5FE014665A00BF035FD03A97869FFF78D
:10048000EDFE014661A00BF02DFD03A9B869FFF751
:10049000E5FE01465DA00BF025FD03A9F869FFF715
:1004A000DDFE01465AA00BF01DFD6D1C0C2D02E077
:1004B000C8E0D0E0F5E0CDDBCDF80880CDF80480D1
:1004C0000025CDF8008011E004EB0517009879694C
:1004D0000BF0ACF80090B96901980BF0A7F8019007
:1004E000F96902980BF0A2F86D1C0290B542EBDBA3
:1004F00049A000F0EBFF4C4E00246D4655F8240057
:1005000020F00040B04202DD48A092E0C4E08FE05D
:100510003031323334353637383941424344454639
:100520004748494A4B4C4D4E4F50515253545556E3
:100530005758595A00000000000080BF00002041B9
:1005400020BCBE4C2E0000006F12033A00007A441B
:10055000680800206175782025752025750D0A0032
:10056000496E76616C6964204665617475726520B8
:10057000696E6465783A206D757374206265203CFD
:100580002025750D0A000000CC04002072657365FB
:10059000740000006C6F61640000000057726F6EA1
:1005A00067206E756D626572206F66206172677577
:1005B0006D656E74732C206E656564732069647854
:1005C0002074687220726F6C6C207069746368208C
:1005D0007961770D0A000000437573746F6D206DAB
:1005E000697865723A200D0A4D6F746F720954680C
:1005F0007209526F6C6C09506974636809596177AC
:100600000D0A00002325643A090000002573090043
:1006100025730D0A0000000053616E697479206330
:100620006865636B3A0900000AD7233C4E4709000E
:10063000FDA000F04BFF641C032CFFF65FAFAFF290
:100640004000FDE60020414604EB0012401C116111
:100650000C28F9DBF6E6202138460AF08EFF002848
:10066000F8D0401C06460AF092FFF04DC7B20024B5
:1006700055F8241031B13A4630460AF0B1FF18B1AE
:10068000641CF5E7EAA0DBE6204602F015FA55F80F
:100690002410EDA00BF026FCAFF26810FFF776FEF9
:1006A000D0E60C21EDA00BF01DFCCBE610B5F5A0BB
:1006B00000F00CFF012001F0CEF9F9A000F006FFD8
:1006C0000A2008F09DF9BDE81040002008F06ABA41
:1006D0007CB504460D4600790021062814D2DFE8D7
:1006E00000F003060A0D111EA06801780CE0A06856
:1006F00090F9001008E0A068018805E0A068B0F952
:10070000001001E0A0680168E9A00BF0EBFB002DF0
:1007100004D0D4E90312E7A00BF0E4FB7CBDA06891
:1007200069460068FFF79AFD0146E4A00BF0DAFB8A
:10073000002DF3D0E0680BF053F86946FFF78EFD0B
:100740000146DFA00BF0CEFB20690BF049F86946AB
:10075000FFF784FD0146DAA00BF0C4FB7CBD2DE958
:10076000FF47D8A00BF0BEFBD0A0FFF7E2FDE14DA4
:10077000AE49687901EB800050F8041CDEA00BF054
:10078000B1FB286910F0FF4F4CD0DFF878A30024AC
:1007900005EB0410066916F0FF4F3FD0D0E905982D
:1007A000C769611CD8A00BF09DFB564502D3D8A0A9
:1007B0000BF098FB69463046FFF750FD0146BFA09D
:1007C0000BF090FB5646B14502D3D1A00BF08AFB4B
:1007D00069464846FFF742FD0146B8A00BF082FB90
:1007E000B04502D3CAA00BF07DFB69464046FFF737
:1007F00035FD0146B1A00BF075FBB74202D3C4A092
:100800000BF070FB69463846FFF728FD0146AFF252
:1008100000200BF067FB641C0C2CB9DB611CBDA035
:100820000BF060FB01F048F9804E002407465C366F
:1008300056F8241021B1BCA00BF054FB641CF7E760
:1008400000244FF0010800BF56F8241041B108FA07
:1008500004F0384202D0B8A00BF044FB641CF3E76C
:10086000B94A002069462C18135C94F80D41401CCD
:1008700008280B55F7DB00220A54B4A00BF032FB1A
:10088000B54D002404EB840005EB800655F82010DC
:10089000B2A00BF027FB00213046FFF719FF6EA036
:1008A00000F014FE641C732CECD3BDE8FF8710B578
:1008B000ADA000F00BFE0121002000F004FFADA070
:1008C00000F004FE0A2008F09BF8BDE8104000206C
:1008D00008F068B910B50446AAA000F0F7FDAF48CB
:1008E000AF4A002101705160117002F053F82046A8
:1008F000BDE81040DBE72DE9F04706460AF047FE69
:10090000054601F0D9F8DFF8248107464FF00109C8
:1009100008F15C0855B12A46A2A130460AF060FEF3
:10092000C0B1307800272D2823D025E09FA000F00B
:10093000CDFD00244D46464656F8241041B105FA37
:1009400004F0384202D09EA00BF0CCFA641CF3E70E
:1009500041A01EE09BA000F0B9FD00244FEA08056D
:1009600055F824100029F3D095A00BF0BBFA641CB5
:10097000F6E70127761C6D1E5FF0000458F824107E
:1009800031B12A4630460AF02BFE30B1641CF5E73F
:1009900092A0BDE8F04700F099BD09FA04F01FB13C
:1009A00001F085F894A002E000F0F2FE95A000F0BE
:1009B0008DFD58F82410BDE8F04761A00BF092BA05
:1009C00010B505F04AFE401C04D091A0BDE81040CF
:1009D00000F07CBD96A0F9E770B500249EA000F061
:1009E00075FD5D4DB5F1C00504EB440005EB8001DC
:1009F0004A6855F820109EA00BF074FA641C102C65
:100A0000F2D370BD3EB505460AF0C1FD082809D1F4
:100A10000024285D0AF03AFD2855641C082CF8D300
:100A2000002429E13EE100004F4B090074CF00088B
:100A3000496E76616C6964206D697865722074799D
:100A400070652E2E2E0D0A004C6F616465642025A2
:100A500073206D69782E2E2E0D0A00004D6F746F75
:100A600072206E756D626572206D7573742062659B
:100A7000206265747765656E203120616E64202583
:100A8000640D0A00526573657474696E6720746F33
:100A90002064656661756C74732E2E2E0D0A00003D
:100AA0005265626F6F74696E672E2E2E0000000013
:100AB00025640000202564202564000025730000C3
:100AC0002025730043757272656E7420436F6E66E5
:100AD00069673A20436F707920657665727974682A
:100AE000696E672062656C6F7720686572652E2E6F
:100AF0002E0D0A00CC0400206D69786572202573E4
:100B00000D0A000000008080636D69782025640074
:100B100020000000636D697820256420302030209B
:100B20003020300D0A000000666561747572652022
:100B30002D25730D0A0000006665617475726520CD
:100B400025730D0A0000000008DA00086D617020AE
:100B500025730D0A000000000CD100087365742095
:100B60002573203D20000000536176696E672E2EAC
:100B70002E0000000D0A5265626F6F74696E672E59
:100B80002E2E00000D0A4C656176696E6720434C7D
:100B900049206D6F64652E2E2E0D0A009C040020E6
:100BA000000000206C69737400000000456E6162F3
:100BB0006C65642066656174757265733A20000027
:100BC00025732000417661696C61626C6520666501
:100BD0006174757265733A2000000000496E766199
:100BE0006C69642066656174757265206E616D65FF
:100BF0002E2E2E0D0A00000044697361626C65643C
:100C000020000000456E61626C65642000000000F9
:100C1000456E61626C696E67204750532070617346
:100C2000737468726F7567682E2E2E0D0A000000AF
:100C30004572726F723A20456E61626C6520616E1A
:100C40006420706C756720696E2047505320666978
:100C50007273740D0A000000417661696C61626C08
:100C60006520636F6D6D616E64733A0D0A0000005C
:100C700025730925730D0A00295DFC480AF07DFCE7
:100C800028B12819295D401C0AF077FC18B1F8A09A
:100C900000F01CFC3EBD641C082CFFF4C2AE2846CC
:100CA00000F053FCFAA000F011FCF04BFE4A0020CB
:100CB000694615181C5C95F80D51401C08284C55C8
:100CC000F7D300220A54AFF288100BF00BF93EBDA7
:100CD0002DE9F04180460AF05AFCF34FF34D06002F
:100CE00012D00246AFF2441140460AF079FC90B1AE
:100CF0005FF0000455F82410F1B1324640460AF086
:100D00006FFCF8B1641CF5E7787905EB800050F8CA
:100D1000041CE7A01BE0EBA000F0D8FB5FF0000490
:100D200055F8241029B1AFF268100BF0DBF8641C01
:100D3000F6E7AFF2DC2001E0AFF20C30BDE8F041A5
:100D400000F0C4BB601C787155F82410E2A0BDE827
:100D5000F0410BF0C7B82DE9F041002507462C46BD
:100D60002E460AF014FC18B1AFF25C21384610E0B0
:100D7000DEA02BE016B1012E07D103E00AF049FCFA
:100D8000054602E00AF045FC0446761CAFF28021DD
:100D900000200AF003FC0028ECD10C2D05D3BDE89F
:100DA000F0410C21E0A00BF09DB8E94F022E07DACC
:100DB00037F915202946BDE8F041E6A00BF092B8BE
:100DC000A4F57A70B0F57A7F04D9E8A0BDE8F041C7
:100DD0000BF088B822462946EDA00BF083F827F8DF
:100DE0001540BDE8F08170B505460AF0D0FBAE4C69
:100DF00010F0FF0F0CD028460AF00BFC02280ED88A
:100E000084F898030021084600F05DFCA5A0EBE7FC
:100E100094F89813BDE87040E4A00BF063B870BD7F
:100E20002DE9F04782460AF0B2FBE64D060029D0D4
:100E3000012E03D19AF800002A2823D0E2A15046BF
:100E40000AF07DFB002871D0401C04460AF0E1FB4B
:100E500081462046FFF77AF98046002606EB860792
:100E600005EB870455F827000AF091FB024655F878
:100E7000271050460AF0B4FBF8B1761C732EEDD360
:100E8000D2A04FE0D9A000F021FB002404EB8400A5
:100E900005EB800755F82010AFF23C300BF022F83C
:100EA00031463846FFF714FCAFF2544000F00EFB19
:100EB000641C732CEAD3BDE8F08706EB860605EBCD
:100EC0008607F8680AF08CFC41460AF0C5FC26D873
:100ED00038690AF085FC41460AF0C8FC1FD8397908
:100EE000052907D0484606290ED2DFE801F005059E
:100EF00008080B0B4046F6E7A168087004E0A168FB
:100F0000088001E0A168086055F82610BDA00AF02D
:100F1000E9FF2046BDE8F0470021FFF7D9BB00E01C
:100F200004E0BBA0BDE8F04700F0D0BA5FF00004D9
:100F300004EB8406514655F826000AF000FB78B110
:100F400055F8261005EB8607AFF2EC300AF0CAFF21
:100F500000213846FFF7BCFBAFF204500AF0C2FF95
:100F6000641C732CE4D3A6E72DE9F04107F039FDAA
:100F70004FF47A71B0FBF1F1AF480378AF480288C3
:100F8000AFA00AF0AFFF00F087FD0646BC48BD49A0
:100F90000068B0FBF1F1BCA00AF0A4FF434F0024AD
:100FA00001259C3757F8241051B105FA04F030425E
:100FB00003D0AFF2F4300AF095FF641CE4B2F1E71D
:100FC000022000F057FDA0B1B74C38482178BC3062
:100FD00050F82110B5A00AF085FF2078022808D12A
:100FE000B548007C08B16F2100E06E21B3A00AF083
:100FF00079FFAFF29C5000F069FA07F0D4F902468D
:10100000AF484FF467730188BDE8F041ADA00AF026
:1010100069BFB9A000F05ABA2DE9FF5FDFF8089365
:1010200099F8000038B9012189F80010BFA000F03C
:101030004DFA00F057FADFF82CB3DFF87CA25446E3
:10104000DAF8000009F08CF900280CD0206809F0CB
:101050008AF9092808D03F2806D0D9F804104C4650
:10106000002902D0D1E12FE27EE1CCE108DA0008CC
:101070004D75737420626520616E79206F726465AE
:1010800072206F662041455452313233340D0A00CC
:1010900043757272656E742061737369676E6D65F6
:1010A0006E743A2000000000CC04002074CF0008C9
:1010B00043757272656E74206D697865723A202589
:1010C000730D0A00417661696C61626C65206D691F
:1010D000786572733A2000004D69786572207365F7
:1010E0007420746F2025730D0A000000557361672A
:1010F000653A0D0A6D6F746F7220696E64657820B1
:101100005B76616C75655D202D2073686F77205B61
:101110006F72207365745D206D6F746F72207661DD
:101120006C75650D0A0000004E6F207375636820B2
:101130006D6F746F722C207573652061206E756DF4
:10114000626572205B302C2025645D0D0A00000072
:10115000900900204D6F746F722025642069732000
:101160007365742061742025640D0A00496E7661F0
:101170006C6964206D6F746F722076616C75652C7C
:1011800020313030302E2E323030300D0A00000049
:1011900053657474696E67206D6F746F7220256477
:1011A00020746F2025640D0A0000000043757272E0
:1011B000656E742070726F66696C653A2025640DE7
:1011C0000A0000000CD100083D0000004552523AD0
:1011D00020556E6B6E6F776E207661726961626CFE
:1011E00065206E616D650D0A000000004375727226
:1011F000656E742073657474696E67733A200D0AA6
:101200000000000025732073657420746F200000B7
:101210004552523A2056616C756520617373696757
:101220006E6D656E74206F7574206F662072616ECE
:1012300067650D0A0000000094010020F400002002
:1012400053797374656D20557074696D653A202506
:1012500064207365636F6E64732C20566F6C7461C9
:1012600067653A202564202A20302E315620282513
:1012700064532062617474657279290D0A0000005C
:101280006404002040420F004350552025644D481F
:101290007A2C2064657465637465642073656E736D
:1012A0006F72733A20000000A801002041434348B8
:1012B000573A202573000000640900202E256300A2
:1012C000E60000204379636C652054696D653A201F
:1012D00025642C20493243204572726F72733A2084
:1012E00025642C20636F6E6669672073697A653A9E
:1012F0002025640D0A0000004166726F33322043DE
:101300004C492076657273696F6E20322E32204A06
:10131000756C2031362032303134202F2030383A6D
:1013200034343A3331000000000000200D0A456ECD
:10133000746572696E6720434C49204D6F64652C5B
:1013400020747970652027657869742720746F2070
:1013500072657475726E2C206F72202768656C70D0
:10136000270D0A009C040020624F0024254607F147
:10137000C008D9F804600BE0D9F8042022B15E4817
:1013800039680AF02DF910B904B93C463D460C37CE
:101390004745F1D39CB149465F46486822682B68AF
:1013A000125C1B5C9A420AD19AB92E2811D22022D3
:1013B0003A54401C0021C9F804000BF80010D9F879
:1013C00004004F4608B1AC4213D04CA000F07EF8A8
:1013D0000AE03A54401C4860DFE7206800F076F8E5
:1013E000092000F081F80C34AC42F6D900F07AF80C
:1013F00000265C4678688642BFF421AEA05D00F00E
:1014000073F8761CF6E7042812D00C2816D019B110
:101410000A2817D00D2815D07F283FD03029EBD2CD
:101420002028FFF40CAE7E283FF609AEA9B343E0B6
:1014300004B03148BDE8F05FFFF74CBA31A000F0CE
:1014400045F827E0AFF6F01000F040F8606800259E
:101450005E460BF800502E48CDE9000B0C231022FD
:101460002449029501A80AF017F8070007D0386848
:101470000AF08DF83044B968401C884702E025A086
:1014800000F024F830211C480AF042F8656020780A
:10149000002819D000F026F8D1E50BE00029FBD098
:1014A000491E0020C9F804100BF8010022A000F02A
:1014B0000DF8C4E52028EFD00BF80100491CC9F84D
:1014C000041000F011F8BAE5BDE8FF9F70B50446BE
:1014D0001A4D03E0641C286808F032FF21780029C7
:1014E000F8D170BD16A0F1E701461448006808F075
:1014F00027BF00004CD000089C0400200D1B5B4B54
:10150000000000001B5B324A1B5B313B314800008E
:10151000190300084552523A20556E6B6E6F776E74
:1015200020636F6D6D616E642C2074727920276862
:10153000656C702700000000082008006409002086
:101540000D0A23200000000070472DE9F0410546F8
:101550000446FE4EFE4F09E0FC480AF00EF820B1AA
:10156000611B801B384480F80D11641C2178002910
:10157000F2D1BDE8F081F74800210278412A13D169
:101580004288B2F5677F0FD10279BE2A0CD190F85C
:101590009A23EF2A08D100F5677200BF10F8013BCB
:1015A00059409042FAD309B100207047012070479A
:1015B00010B5FFF7E0FF10B90A2007F0D1FA4FF499
:1015C0006772E449E24809F08AFFE14890F898130D
:1015D000022902D9002180F89813C9B201EB011148
:1015E00001EB410100EB8101BDE8104001F59A716A
:1015F000CC22D94809F073BF2DE9F05FD64AD74E07
:10160000002092F82010D47F40F6C41500FB00F3B0
:10161000193B4B4303F6C4134343634393FBF5F376
:1016200026F81030401CC0B20728EFD3C84B9146B3
:10163000D03392F8212099F8224059881F88002041
:10164000DFF81CA34FF00A0B4FF47A7EC4F1640854
:1016500002EB820CB1EB070500EB8001C2EB41030A
:101660000121002B03DDC2F16401C9B201E000DAFF
:10167000114603FB03F604FB06F601FB01F196FBA2
:10168000F1F1414401FB03F191FBFBF101EB4C0152
:1016900009B205FB01F191FBFEF139442AF8101063
:1016A00000F10100C0B20C28D6D399F8000002F076
:1016B000D2F9BDE8F05F04F0A3B810B5FFF778FFEA
:1016C000BDE8104098E72DE9F047A14C8146412044
:1016D00020704FF467756580BE20032600272071B7
:1016E000EF2084F89A0384F89B7369B194F8980307
:1016F000CC2200EB001000EB400004EB800000F572
:101700009A70954909F0EBFE9148934903E000BFB8
:1017100010F8012B57408842FAD384F89B7309F0E4
:1017200071FDDFF840A28B4F761EA846342009F0E9
:10173000D7FD384609F094FD504609F091FD00258B
:1017400006E06159E81909F0A7FD2D1D454502D2B3
:101750000428F6D001E0042804D0761EE6D209F071
:1017600057FD04E009F054FDFFF705FF10B90A200A
:1017700007F0F6F9FFF7A1FFB9F1000F06D0BDE8B9
:10178000F047012214210F2001F010BDBDE8F087C1
:101790006F498A6802438A6070472DE9FC5F72A135
:1017A000D1E90001CDE900014FF46771684809F003
:1017B000AFFECC21684809F0ABFE654B4120002507
:1017C00018700320587102209D60FFF7E1FF83F835
:1017D00098534FF41670A3F8F000FA20A3F8F20023
:1017E000D0332A20D8831D855D859D859D74DD7449
:1017F0001D75DD821D835D831C334FF4FA705D70AF
:10180000588101261E70202018724FF4C871198368
:101810006E2058772B2098772120D87783F8205096
:1018200083F8295083F8425083F843502A3340F21A
:10183000DC529D761A8040F24C405880463B40F284
:101840006C70A3F84A0083F84C5083F84D5083F82D
:101850004E6040F27E40188040F23A7058804FF45B
:101860007A70988040F27E50D88040F2EA50188119
:1018700040F2B450588132209881D981188283F87F
:10188000505083F851504FF4E13159654FF41651DF
:10189000996583F85C5083F85D5040F6AC5123F8AD
:1018A000C41C03F8C25C2C4C83F84F5028272570C9
:1018B00067704FF01E0A84F80BA017216175A7709E
:1018C00084F80CA0A1755521E1702D216173E57597
:1018D0002071A57325760B216171E57365764FF054
:1018E000140B84F806B0082323742D23A3760E234B
:1018F000E37184F811B05021E1765A2121724FF042
:101900000A0884F812804FF0640984F81C9067720A
:101910007823A3722D232375A677E177412184F8DC
:10192000201084F8235084F8245084F82550E28451
:1019300084F8210084F822506585A585258504203A
:1019400084F82E0084F82F7012E0000008DA0008F6
:10195000CC04002000F8010868080020260B0020B5
:10196000340B002000FC01081E1E6464646464647F
:1019700084F83070152084F8310051486063514874
:10198000A0635148E06384F84060192084F8410066
:101990004EA0FFF7DAFD84F86C5084F86D5084F89F
:1019A0006E7084F86F6084F872504FF44870A4F839
:1019B000700004F8B48FC82363704FF496606080A1
:1019C00040F2D930A080444800216C4640F2DC55FA
:1019D0004FF47F764FF4FA6C00EBC10222F8746F7B
:1019E000A2F802C0958014F80180491C82F8068094
:1019F0000829F1DB012100F8BA1F384D41708170D0
:101A0000838080F806B080F807A00172A0F80A90E1
:101A10004FF496718181C781522085F89903002087
:101A20004FEA000105EB0012401C11610C28F9DBA4
:101A30005FF0000404EB041000EB400005EB8000B5
:101A400000F59A70CC22244909F049FD641C032C4E
:101A5000F0DBBDE8FC9F10B50446FFF78CFD641E6B
:101A6000204206D1FFF799FE0021BDE8104008464C
:101A700029E610BD1A490968014201D001207047CA
:101A80000020704716490A6802430A6070471449EB
:101A90000A6882430A6070471148006870470F491E
:101AA0008968014201D001207047002070470B492E
:101AB0008A6882438A6070470848806870470000DF
:101AC0009A99193FF6287C3F3D0A773F4145545289
:101AD000313233340000000068080020CC040020BC
:101AE0000800002070B5FE4D95F8410009F081FE18
:101AF000FC4909F0F3FD0AF07BFDFB4E04463088FB
:101B000009F077FE214609F0E9FD0AF031FEF74CB5
:101B10002080308809F06DFE0146F54809F014FE7A
:101B2000F44909F011FEA066B5F8700009F061FEF5
:101B30000146F14809F008FEF04909F0CFFDE066E2
:101B40000820FFF797FF002803D0BDE8704002F09F
:101B500021BF70BD002801DD024600E042428A42FA
:101B600001DA00207047002802DDA0EB0100704779
:101B7000FDDA084470472DE9F04F91B0D0E90045F7
:101B8000814686680F4608680AF032FD049038687E
:101B90000BF014F9059078680AF02AFD83467868FE
:101BA0000BF00CF98046B8680AF022FD8246B8684E
:101BB0000BF004F907465046049909F08FFD09908F
:101BC0003846049909F08AFD08905146059809F0B5
:101BD00085FD07903946059809F080FD0690594625
:101BE000504609F07BFD10908BF00040394609F01B
:101BF00075FD07464146079809F070FD089909F000
:101C000015FD03904146069809F068FD099909F011
:101C100062FD82460598594680F0004009F05EFD5D
:101C200005904146099809F059FD069909F053FDC0
:101C300002904146089809F051FD079909F0F6FC19
:101C400006905846049909F049FD834630460299AA
:101C500009F044FD00902846039909F03FFD0190EA
:101C60002046109909F03AFD019909F0DFFC00992E
:101C700009F0DCFCC9F800003046069909F02EFD99
:101C800000905146284609F029FD824639462046F3
:101C900009F024FD514609F0C9FC009909F0C6FC81
:101CA000C9F804005946304609F018FD0646284692
:101CB000059909F013FD05464146204609F00EFD41
:101CC000294609F0B3FC314609F0B0FCC9F8080018
:101CD00011B0BDE8F08F2DE9F0438046834887B00E
:101CE0009030016881F000410391406880F000402D
:101CF00004908348B0F9000009F072FD814909F0B1
:101D0000EDFC7A4C05908234B4F9000009F068FDCE
:101D10000090B4F9020009F063FD0190B4F90400E9
:101D200009F05EFD029003A96846FFF724FF6C4EA0
:101D3000823C96F84000012804D06B48008809F0E6
:101D400058FD17E0704840780028A06B0CD1C117EF
:101D500000EB9161A0EBA11009F042FD029909F09E
:101D600065FC09F04BFDA063C11700EB9160801189
:101D700009F036FD029909F0AEFC0290E16B89464C
:101D800009F0A6FC0746404609F033FD05465F49C9
:101D900009F04CFC0146284609F0D6FC394609F00A
:101DA0009DFC494609F042FCE06300980AF0E0FC23
:101DB0002F367178FFF7CEFE554D2968084428600C
:101DC00001980AF0D5FC7178FFF7C4FE69680844F1
:101DD0006860E06B0AF0CCFC3178FFF7BBFEA968C5
:101DE0000844A860A16801EB0800A060E068401CFE
:101DF000E06007B0BDE8F0832DE9F05F3B4D04469D
:101E0000903528680AF0F4FB834628680AF0D6FF6C
:101E1000824668680AF0ECFB814668680AF0CEFFEB
:101E20000546D4F808802946404609F057FC594633
:101E300009F054FC676806465146384609F04EFCE6
:101E4000294609F04BFC05464946206809F046FC46
:101E5000294609F0EBFB314609F0E8FB0446514600
:101E6000404609F03BFC05465946384609F036FC29
:101E7000294609F02DFC21460AF090FA254909F07F
:101E80002DFC254909F060FC1849096B09F0CEFBCF
:101E9000224909F059FC0AF06BFC00B2002802DA72
:101EA00000F5B47000B2BDE8F09F2DE9F0410446A2
:101EB00080680D46014609F011FC0746606801463E
:101EC00009F00CFC06462068014609F007FC314683
:101ED00009F0ACFB394609F0A9FB0BF035F81FE01F
:101EE0006808002035FA8E3CAE0100200C0000206E
:101EF0000AE81C4100401C46000061444C3D0F4470
:101F0000DC01002035FA8EBCF00A00203661823CEC
:101F10004C0900200000E144DB0F49400000204153
:101F2000064610F0FF4F0ED03146206809F00CFC39
:101F300028603146606809F007FC68603146A06897
:101F400009F002FCA860BDE8F0812DE9F04F87B0F0
:101F5000002606F02CFDDFF808B405465C46DBF8E9
:101F60004000281A039009F044FCFE49C96809F0B2
:101F7000B5FB0590DFF8F0A3256400249AF82E70D5
:101F80000BF182054FF07E58F548763030F9140099
:101F900009F026FC059909F0A1FB4DF8240027B3B0
:101FA000384609F026FC0146404609F0CDFB814643
:101FB0000490EB487C3030F9140009F011FC4946DC
:101FC00009F08CFB81464146049809F084FBE749FF
:101FD00051F8241009F082FB494609F027FBE34938
:101FE00041F8240009F00AFC03E0DD487C3030F8B9
:101FF000140025F8140035F91400641C00FB006679
:10200000032CC1DB64204643D9486946008840431D
:1020100096FBF0F4D5481830FFF7ADFDD34EA0B2D3
:10202000493818363C2826D2D2480024A946B0F8B0
:10203000F00009F0DEFB45464146049009F0F6FA4F
:102040000146284609F080FB4FEA000539F91400E3
:1020500009F0C6FB074656F82410049809F03EFB29
:10206000394609F0E3FA294609F038FB46F824001E
:10207000641C032CEADB5D46BBF9000009F0B0FBF1
:102080003446B16809F0E8FB01D2012000E00020ED
:10209000B949A1464873D4E901010AF07FF9B04E6D
:1020A00090363060A068014609F018FB074660686A
:1020B000014609F013FB394609F0B8FA0AF044FF6B
:1020C0000146206880F000400AF068F9AB4F70606C
:1020D0003946306809F002FB0AF04AFBA6F15C04BD
:1020E00039462080706809F0F9FA0AF041FB6080F7
:1020F0000820FFF7BFFCDFF888B2002869465CD0F3
:102100009A480C38FFF737FD9A48984F0024464606
:102110000C3FB0F8F20009F06CFB3146049009F076
:1021200085FA0146304609F00FFB06468C48883098
:1021300030F9140009F054FB804657F82410049835
:1021400009F0CCFA414609F071FA314609F0C6FAB5
:1021500047F82400641C032CE8DB8448B0F10C0031
:10216000FFF74AFEABF800000398FFF7B4FD9AF8BA
:102170007200564600284AD0D9F808004C4601465D
:1021800009F0ACFA80466068014609F0A7FA0746F4
:102190002068014609F0A2FA394609F047FA41469B
:1021A00009F044FA0AF0D0FE0146A06809F0CCFA22
:1021B000744988420DDC002028E069489830FFF718
:1021C000DAFC674998310846FFF76FFE644898309B
:1021D000C6E70AF053F8E96E09F080FA0AF0C8FA87
:1021E0004FF46171884200DD084609F0F9FA66494A
:1021F00009F0AAFA0AF0E2FD044696F8720009F026
:10220000F8FA214609F06AFA0AF0B2FA688007B0D3
:102210005FE510B502F0B5FB0220FFF72BFC20B103
:1022200002F0B5FAFFF791FE05E04D4900207C3140
:102230000880488088804F48494942797631881F14
:10224000012A06D08A8882800A88028049884180D3
:1022500010BD434BB1F90420B3F9044002EB440232
:10226000032492FBF4F282809A80EDE73F4900203C
:102270000C310860486088603949C86088607047E0
:102280002DE9FE4F06F093FB024635483430B0F995
:102290000010002901DD0B4600E04B42B0F90200BE
:1022A000002801DD044600E04442A34205DD002988
:1022B00001DD084604E0484202E0002800DC40421C
:1022C000274C05B246F2A811606CA2EB000A8A45C1
:1022D00002D20020BDE8FE8F2C4E6264DFF8B09081
:1022E0003088DFF8B0B0204F4FF07E5840B3E06D3B
:1022F0002269C11700EB5171A0EBE10097F8311092
:10230000491EB2FBF1F10844C117E06500EB5170C2
:10231000C01009F065FA494609F016FA59460AF064
:102320003FFA414609F0D7F91B4909F0D7F909F0FE
:1023300065FAA0650020E06420653088401E30808A
:10234000094F216997F83100401EB1FBF0F009F008
:1023500050FA494609F0F8F959460AF021FA1DE009
:102360000C000020D40C0020680800204009002048
:10237000AE010020CC040020F00A00204C3D0F44A8
:10238000DC0100208FC2753CEFB6B044DA010020BA
:1023900080E6C547B1DC423ED048874A4FF07E58C0
:1023A000414609F098F9B04909F098F90AF0E0F9C6
:1023B000A16D7F6B461A3946404609F089F980467F
:1023C000304609F00DFA414609F088F90646606981
:1023D00009F006FA394609F081F9314609F026F983
:1023E0000AF0C6F906464FF0FF3B6061FA2D01DDA9
:1023F000584613E0284609F0F3F9DFF870824146A9
:1024000009F069F90746206A09F0EAF9394609F046
:1024100065F9414609F098F909F0F0F9A0F10108D1
:1024200007462062B8F1C70F03D2F01B6761E06175
:1024300026E0E069361A6661002F21DDC7F5967047
:1024400009F0CEF98A4909F07FF98146A061494631
:102450004FF07E5009F03CF90090304609F0C0F989
:10246000009909F03BF90646384609F0B9F94946A2
:1024700009F034F9314609F0D9F809F0BFF9606183
:10248000A06809F0B6F981467A4909F027F90646AD
:10249000E06809F0A5F907467748806809F0A0F9D7
:1024A000394609F051F90746A16E09F017F9494676
:1024B00009F014F90090E06C3146019009F00EF932
:1024C00081465946009809F07FF9314609F006F92E
:1024D000494609F0ABF8216D09F0A8F88346674832
:1024E000C06B814601464FF07E5009F0F1F8064678
:1024F0006069029009F074F9314609F0EFF8064678
:102500004946584609F0EAF8314609F08FF8206547
:10251000B8F1C70F01D2029801E009F06FF9206607
:10252000DDE9001009F082F8E064FFF79FFE5046F5
:1025300009F05FF980466669606D301A09F050F95C
:102540004F4909F0CBF8414609F0FEF809F056F979
:102550004FF4967ACAF1000B52465946666504F06C
:10256000D3FA0A21FFF7F6FADFF810910090D9F8B4
:102570003800804601464FF07E5009F0A9F8064623
:10258000009809F02DF9314609F0A8F806464146B1
:10259000E06C09F0A3F8314609F048F8E0640AF06D
:1025A000E7F806460521FFF7D5FAE062B5F5487F62
:1025B00054DAD4E91810401A4FF4FA72514204F078
:1025C000A3FA0A21FFF7C6FA014699F804004D461E
:1025D0004843C11700EB5160C011D1465246D8465E
:1025E000594604F091FA861BA87A4A467043C117EF
:1025F00000EBD1604011414604F086FA6062287D0C
:102600004FF448327043C11700EB5170A16A01EBDF
:10261000E0005142A06204F077FAC117A06200EB1B
:102620009150616A01EBA02060623846A16C08F00D
:10263000FDFF0646A87F09F0DCF8314609F04EF8A8
:102640006FF0050109F0C0F809F0D8F896226FF094
:10265000950104F059FA616A081A00E00020A764A5
:102660006062012036E60000D048874A00006144DD
:102670000000C842BD3786354C090020680800209C
:102680000024744970B5AA4D0446286807F071FE0D
:102690000028FAD0E1B2286807F052FE204670BD4B
:1026A00086B0FEF751FF0020FFF7D5F9FEF780FF57
:1026B000A04CA07B00B1012006F0C2F9FEF79CFF00
:1026C00094F80C01002518B1012817D0092815D05D
:1026D0008DF8145084F80C5105A805F02BF8022051
:1026E000FFF7DDF908B101F061FF04F015FA0E20E3
:1026F000FFF7C8F901F07AFE18B105E08DF8140073
:10270000EAE7032006F02CFA8B494FF01009C1F8D4
:102710000090A1F104080827C8F800700026A8F16D
:10272000040A00BFDAF8001081F01001CAF80010A6
:10273000DAF8001081F00801CAF80010192006F03C
:102740005FF9012006F067F9192006F059F9002019
:1027500006F061F9761CF6B20A2EE3D3C8F80070D1
:10276000C8F80090FFF7BEF900F02BF9D4F8240167
:1027700002F0C9FA607901260E2809D0082807D08E
:102780008DF806504FF48070FFF789F938B902E0F0
:102790008DF80660F6E70820FFF781F900B1012007
:1027A0008DF802004020FFF77AF98DF80300012030
:1027B000FFF775F98DF801000820FFF770F9DFF8D1
:1027C000708180F001008DF80000DFF8709198F8BA
:1027D00012008DF8040099F8BC004FF47A7AC0F327
:1027E00080008DF80500B4F8DE00ADF80800B4F8FC
:1027F000E000ADF80A00ADF80CA04FF48040FFF700
:102800004EF918B1B4F8DA00ADF80C00BDF80800C4
:10281000B0F5FA7F01D9ADF80C50B4F81601ADF857
:102820000E00B9F8B800ADF8100094F80C010128BA
:1028300026D0092827D08DF80750684605F0A4FF58
:102840009DF8120088F813003D4B002040F2DE5244
:1028500023F81020401CC0B21228F9D33A4A394854
:10286000106088F811700820FFF719F9F8B194F892
:10287000150105281FD2DFE800F00A0A0E12160023
:102880008DF80760D9E707208DF80700D5E72E48B7
:1028900003F0FEFF0FE02C4804F0AAFA0BE02A48F0
:1028A00004F04AFB07E0284804F037FF03E094F8FF
:1028B000210102F0EEFF0120FFF7F1F830B14FF4F3
:1028C0008060FFF7ECF808B102F0E8F84020FFF76D
:1028D000E6F848B194F82C11D4F8280107F059FC17
:1028E00094F82D0107F068FC4FF40060FFF7D7F86B
:1028F00008B104F0A3FD06F05AF8144908606079A5
:10290000052803D112494FF4C87008801149C82026
:10291000A1F800A0104908801048467301F0A3F800
:10292000FCE70448B0F9D40000F051F9FEE70000DC
:1029300064090020CC040020140C01406808002029
:10294000020B002025360008100100200C01002099
:10295000AA010020AC010020DA010020F00A0020CA
:102960000146F74800EBC100B0F97800122804DAFC
:10297000082902DAF34931F910007047F04A02EBF6
:10298000C00090F97A00084202D04FF0FF30704743
:10299000012070472DE9F041EB4DEC4E00244FF43F
:1029A00080473846FFF77BF810B1B5F8DA0001E050
:1029B000B5F8D40026F81400641C0C2CF1DBBDE83B
:1029C000F0812DE9F047E04CE14E607906EBC00064
:1029D000407800B10120DF4DA8742020FFF75FF898
:1029E0004FF0010A08B185F812A06079DFF85C9316
:1029F000D94D09F11809162808D016F8301006EB41
:102A0000C0002970426842B3002024E00020CC4678
:102A100004EB00110A6912F0FF4F1ED0D1E90567DF
:102A20000CEB0013C969401CC3E90271C3E900261D
:102A30002978491C29700C28EADB0EE002EB00160D
:102A400009EB0013D6E9007CD6E90286C3E90286C9
:102A5000C3E9007C401C8842F0DB4FF48040FFF764
:102A60001EF8D8B12F78012F18D9002614E000BF26
:102A700009EB06154FF0FF384146A86808F0A4FEA0
:102A8000A8604146686808F09FFE68604146E868B3
:102A900008F09AFE761CE860BE42E9DB6179AF4837
:102AA000082906D00E2904D000210174BDE8F047A2
:102AB00070E780F810A0F9E7F0B5401C0021A24AA9
:102AC0000B4600BF02EB0114491C23610C29F9DB02
:102AD0009F4B03EBC0014C68002C11D0002113F870
:102AE00030000BE004EB011302EB011593E8C0107A
:102AF000DB68491CC5E906C3C5E904678842F1DC07
:102B0000F0BD944810B5807C00284DD0924C8E4882
:102B1000241D4279E0882189082A27D006DC012A71
:102B200015D0042A29D0052A06D10AE00E2A29D078
:102B3000142A22D0152A25D02020FEF7B0FF002825
:102B400032D02188002005F0B8FE618813E0824968
:102B50007B48091D90F8BB00498908B100201FE09F
:102B60007E4840780028F9D10021F7E7014600208F
:102B700005F0A3FE2189012012E0002005F09DFE52
:102B80006189F8E70146002005F097FE21890120C0
:102B900005F093FE6189022005F08FFEA1890320D4
:102BA000BDE8104005F089BE10BD70B5674E002429
:102BB000183E694D07E000BF36F81410204605F0B6
:102BC00075FE641CE4B228788442F5D370BD624A75
:102BD0005E4B00211278183B04E000BF23F811007F
:102BE000491CC9B29142F9D3DFE72DE9F047DFF87C
:102BF0006C91594C002599F80100594F524E241DF3
:102C000048B3B6F8D220B6F8D010B7F9060003F0F2
:102C10007BFF4E49E0811839B046088096F81D01C7
:102C2000474E4FF0640A48B30220FFF799FEB6F909
:102C30008620B6F9841003F067FFB8F81631181A29
:102C40000FFA80FC4448B0F90220624506DA98F891
:102C50001D11114407E0B6F8D400DAE704DD98F856
:102C60001D11A2EB0101418096F98A10B0F9020012
:102C700001FB00F191FBFAF01844A08099F80A00DA
:102C800050B1388800EB0501E18000EB2540208140
:102C9000B888608178880AE03248018801EB050233
:102CA000E28001EB25412181818861814088A081FA
:102CB0004FF003024FEA0A0306EBC20034F9121088
:102CC00090F97A0000FB01F090FBF3F024F8120079
:102CD0001046FFF745FE34F81210084424F812009D
:102CE000521C072AE8DBBDE8F0872DE9FC5F1A4C8F
:102CF0001B4E1C4D2078032814D9B6F9040041421C
:102D0000002801DD024600E00A4602F1640200DC10
:102D100008466FF06301A1EB0001B5F9040003F070
:102D2000F3FEA8800C48DFF82490DFF814A00078A8
:102D3000A9F1180901284DD90024804648E0000077
:102D400068080020020B0020CC040020900900201D
:102D500084DE000864090020BE000020F00A002084
:102D6000700100205A0100209AF9BA00B5F9041048
:102D70004042484308F034FDFC4901EB0417F96870
:102D800008F0ACFC0190B5F9000008F029FD796865
:102D900008F0A4FC0090B5F9020008F021FDB96824
:102DA00008F09CFC8346B6F9060008F019FD396866
:102DB00008F094FC594608F039FC009908F036FCFC
:102DC000019908F033FC08F019FD29F81400641C7F
:102DD0004445C9D3DFF89883DFF898B3E64C98F8F8
:102DE0000500082868D006DC012837D0042809D05F
:102DF000052840D140E00E285BD014287ED015284D
:102E0000F7D1D7E00420FFF7ABFD064602210420EE
:102E1000FFF7B4FDB5F9041000FB01F30121042014
:102E2000FFF7ACFDB5F9021000FB01303044208102
:102E30000520FFF795FD034602210520FFF79EFDC3
:102E4000B5F9041000FB01F601210520FFF796FDFE
:102E5000B5F9021000FB016018440BE00520FFF7F4
:102E60007FFD034601210520FFF788FDB5F9041019
:102E700000FB01306081C1E09AF97A00BBF90210D1
:102E80003223484390FBF3F60AF17A025D460020B4
:102E9000FFF766FD3044208092F90800B5F9001074
:102EA000484390FBF3F20120FFF75AFD1044608085
:102EB000A4E0FFF79AFEA1E0B04F787888B3B8F8A5
:102EC000D220B8F8D010B6F9060003F01DFEE0815C
:102ED000A9F80000B87A4FF0010100284FF0030074
:102EE00023D0FFF74BFDB6F9021000FB01F30221DE
:102EF0000320FFF743FDB6F9001000E042E000FBBD
:102F00000130E08001210420FFF738FDB6F90210FE
:102F100000FB01F302210420FFF730FDB6F9001099
:102F200020E0FFE7B8F8D400D1E7FFF727FDB5F9B7
:102F3000021000FB01F302210320FFF71FFDB5F98A
:102F4000001000FB0130E08001210420FFF716FD96
:102F5000B5F9021000FB01F302210420FFF70EFD7A
:102F6000B5F9001000FB013020810320FFF7F8FCC9
:102F7000E1880844E0800420FFF7F2FC218908443E
:102F800020813BE0042301211846FFF7F7FCC3F141
:102F9000050135F81110484324F813001846FFF7CF
:102FA000DFFC34F81310084424F813005B1C062BD4
:102FB000E9D323E0032302211846FFF7DFFCB5F92C
:102FC000041000FB01F701211846FFF7D7FCC3F1FD
:102FD000060121F00101695E01FB007024F8130075
:102FE0001846FFF7BDFC34F81310084424F813000A
:102FF0005B1C072BDFD3F188A9F800102020FEF717
:103000004EFDC8B30020FFF7ABFC20800120FFF786
:10301000A7FC5B496080097A71B39AF8BC205146DD
:10302000920715D591F97A209AF982105542BBF989
:103030000220BBF9003055433222594395FBF2F58B
:1030400091FBF2F16A1A238829449A1A228011E02E
:1030500091F97A50BBF9023026885D43322395FB03
:10306000F3F5354425809AF98210BBF900205143CD
:1030700091FBF3F1084460800025564606EBC5003D
:103080007430B0F90220B0F9001034F9150003F0E3
:103090003BFD24F815006D1C082DEFD396F8BC00FD
:1030A000DFF8E0A040070FD537484FEA0A06C57C95
:1030B0002D1F002406EB440001896019C0B205F001
:1030C000FCFB641C042CF5D32B4F01203F1F4D4605
:1030D000B9F900603A7805E035F91010B14200DD29
:1030E0000E46401C9042F7D3002458E0B8F8D200B6
:1030F000B04205DA35F81410301A081A25F8140011
:103100004FF48040FEF7CBFCA0B1BAF90610B8F836
:1031100016214046914204DDB0F8D220B8F8D8100C
:1031200003E0B0F8D620B8F8D41035F9140003F055
:10313000EBFC15E0B8F8D220B8F8D01035F914003F
:1031400003F0E2FC25F81400BAF90610B8F81801EB
:10315000814207DA1020FEF7A2FCB8B1B8F8D4001B
:1031600025F814000548407898B117E0A809002018
:10317000CC04002040000020C2000020F00A002003
:103180004C0B0020020B002064090020B8F8D0008E
:10319000E6E7054830F8140025F81400641C387878
:1031A0008442A3D3BDE8FC9F900900202DE9F0479D
:1031B0001746894606460025DFF828841AE00024D1
:1031C00011E000BFD8F8001081F00801C8F8001025
:1031D000012005F020FC484605F012FC002005F017
:1031E0001AFC641CE4B2B442ECD33C2005F008FCA9
:1031F0006D1CEDB2BD42E2D3BDE8F0872DE9F84F7A
:10320000F94BFA4CB3F90600E18C884201DA6425E7
:1032100010E0F64AB0F5FA6F92F8252008DA451A60
:103220005543C1F5FA6195FBF1F1C1F1640501E087
:10323000C2F16405DFF8B8E3A14694F86CB094F8E5
:103240006DA0BEF816410022E74940F2E63C31F994
:103250001260311B01F2F317674503D8002903DC24
:10326000A11B01E04FF4FA71022A33D0BBF1000F29
:1032700005D08B4502DAA1EB0B0100E000216423AD
:1032800091FBF3F3D84F6FF01808243707EB430C8A
:1032900037F91370BCF902C003FB08F3ACEB070C61
:1032A00001EB83030CFB03FC64239CFBF3F31F443F
:1032B000D04B23F8127099F823304B434FF4FA7136
:1032C00093FBF1F1C1F1640189B26943642391FB7D
:1032D000F3F11CE0BAF1000F05D08A4502DAA1EB48
:1032E0000A0100E000219EF9EC30DFF808C35B42E0
:1032F0004B43ACF8043099F82430002900DC4942F3
:103300004B434FF4FA7193FBF1F1C1F1640109EB06
:103310000207642397F801C0DFF8D8820CFB01FC98
:103320009CFBF3FCA8F1740808F802C097F80BC0E6
:1033300008F103080CFB01FC9CFBF3FC08F802C03D
:103340007F7D4F4397FBF3F108F10303A6429954A5
:1033500005DAA84931F812305B4221F81230521CCC
:10336000032AFFF671AF7646BEF818114FF4FA62E1
:1033700003F0CAFBB6F818114FF47A72401A5043A2
:10338000C1F5FA61B0FBF1F2642192FBF1F0964BCA
:103390006FF01805323303EB400433F91030684303
:1033A000B4F9024002EB8000E41A444394FBF1F0CC
:1033B000DFF840828C4D1844123DA8F80600687A68
:1033C000A8F19804E8B38C48B4F91A10B0F90000D9
:1033D000401A08F005FA894908F080F9884908F090
:1033E000B3F9074609F004F90090384609F0E6FC05
:1033F00083464746B8F9000008F0F2F9824659467C
:1034000008F06CF98046B7F9020008F0E9F9814646
:10341000009908F063F9414608F008F908F0EEF960
:1034200080464846594608F059F981465046009969
:1034300008F054F9494608F04BF908F0DFF93880F4
:1034400000E001E0A7F802800220FEF728FB002739
:10345000E8B3E189206D08442065E079401CC0B2E2
:103460000621B0FBF1F2E07101FB120080BBA06C01
:10347000C11700EB5171A0EBE100A064002004F043
:10348000DDF9A16C0844C117A06400EB5170C0F3D2
:10349000CF0001F060F8A08396F80C01C0B1E06C99
:1034A000C11700EB5171A0EBE100E064022004F0D1
:1034B000C5F9E16C0844C117E06400EB5170C0F33A
:1034C000CF0001F060F8E066216D484301E021E0A3
:1034D00014E04FF47A7190FBF1F0DFF818C1C117D6
:1034E000ACF1180CDCE9042380185941CCE9040143
:1034F000444A002307F098FF27652067A08B618C62
:10350000884203D896F80B11814201D9A77101E0D6
:103510000420A071A07903F05EFA3B48314E008888
:1035200018B10220FEF7A6FA10B93848008820B179
:10353000306880F0080030600CE0A978082011B1F4
:103540002849091D0860697811B1264908310860C9
:1035500003F059FF8020FEF7A2FA48B1616D206B9D
:10356000411A05D44CF250310844606505F074FDF1
:10357000616C206B411A03D4697B39B10120A870BA
:1035800002F0AEF82248007848B10FE0AF70316821
:1035900081F0080131601F4908446064F0E74FF48E
:1035A0000060FEF77CFA08B103F065FF2020FEF70B
:1035B00061FA68B1A16D206B411A09D4217B0529FC
:1035C00006D315490844A065306880F010003060CB
:1035D00012488168002923D001B00648BDE8F04FA9
:1035E0007A3808470C0C0140020B002068080020C4
:1035F000CC04002070010020DC010020DB0F4940DA
:1036000000003443407E0500AA010020AC010020E8
:103610000000002020A10700F0490200D40C002087
:10362000BDE8F88FF749084490F80D0105F04FB94F
:103630002DE9F0470820FEF732FAF34EF34D4FF034
:10364000000440B1B16BE0B2884725F81400641C57
:10365000082CF7DBD0E5ED4F40F2DD584FF00009C4
:103660008E3FB16BE0B28847A0F2EE21414502D314
:10367000E448B0F81601F16D07EBC402CB1701EB7B
:10368000937323F00303C91A22F8110025F814904C
:103690005FF0000035F8143032F81010401C194467
:1036A00025F814100428F5DB35F91400C11700EBD8
:1036B0009170801025F81400641C082CD1DBF06D8B
:1036C000401CF06598E5D2480288D048123841780D
:1036D00052B9827842B1002905D101214170CD480B
:1036E000C9490088488370470029FCD10122FF2185
:1036F00002205BE52DE9FC5F002083460546074676
:103700000190C1489830B0F902104B42002901DD08
:103710000C4600E01C468246B0F9000042420028F8
:1037200001DD064600E01646B44205DD002901DD54
:10373000084604E0184602E0002800DC1046DFF8E6
:10374000D89200240090B14E123EF07808B930793A
:10375000F0B3022C40DAAC48403030F914103AF99A
:10376000140001EB4000A749B1F8F620514203F0E4
:10377000CBF9AA49DFF8A8B231F91410411A0BEBC2
:103780004400B0F92A0001EB00089BF808106420FF
:1037900001FB08F191FBF0F09BF81C1001EB81029A
:1037A000494201EB810103F0AFF90190964842F2E2
:1037B0001072883050F8241001EB0800514203F0D9
:1037C000A3F99149883141F824009BF8121000E0D8
:1037D00008E048434FEA203BF07818B1307908B947
:1037E000022C4FD13AF91450884F05EB85000101A6
:1037F0008B489A3F00EB04084FF47A5298F8010086
:1038000091FBF0F039F91410401A57F824100844CD
:10381000514203F079F947F8240039F9140000F512
:103820002070B0F5A06F06D8022C07D1BAF90400B9
:103830006430C82802D9002047F8240057F8240033
:103840007D2190FBF1F198F80B00414330798F1105
:10385000B0B1022C14DA0098009BC0F5FA710198FF
:1038600001FB00F2009801FB0BF105FB00204FF477
:10387000FA7207FB031190FBF2F091FBF2F608E0FD
:10388000F07820B1022C02DA5E46019801E0284669
:103890003E465D4A39F9141024325023125DDFF898
:1038A0006C814A4392FBF3F2574B821A7C33A8F1A6
:1038B0004E0833F9140023F81410081A08F10C010B
:1038C00058F8243051F824C041F824309C448444F2
:1038D00048F824004C482A30005D00FB0CF0C1176A
:1038E00000EBD1609119A1EB60104749823121F8BA
:1038F0001400641C032CFFF626AFBDE8FC9F2DE9E5
:10390000F05FDFF804B1414E00240BF1980BDFF8B3
:1039100010A19A3EDFF8F09001E0022C71D03A48F5
:103920003BF9141040304FF4FA7230F91400084497
:10393000514203F0E9F83949554631F91410401A5B
:103940000AEB4401B1F92A10084407F049FF354950
:1039500007F0FAFE07F052FF2C4A123AD178E9B389
:10396000297A41430911AA462B480AEB040730F98A
:103970001400FA7A0D1A787856F8241068434FEA42
:10398000E018B9F80E006843C01200FB02104FF4B3
:10399000001246F82400514203F0B6F846F824001D
:1039A00043131A481E3850F8241040F82450B9F830
:1039B0000E00691A02094FF6FF70B0FBF2F048439F
:1039C00012498011363901F10C0251F8245052F895
:1039D00024C042F82450AC44844400E02CE041F878
:1039E0002400787D08EB030100FB0CF001EB2020A4
:1039F0000549823121F81400641C032C8DDBBDE8DD
:103A0000F09F11E0CC040020D8000020020B002021
:103A1000AC010020DC0100207C00002040000020E0
:103A200068080020000020419AF82400BBF9041027
:103A30001B304843411197E795F823103BF91430A8
:103A40001B31594312790911002A8CD0AA7C4243B8
:103A500001EB222187E7FA49012801D0F94800E06B
:103A6000F948C86370472DE9F84F0026B146B046C3
:103A70000820FEF714F8A8B1F44890F815010528BD
:103A800010D2DFE800F0030306090C0002F023FF68
:103A900007E003F0CEF904E003F05EFA01E003F082
:103AA00031FE8046DFF898A3E94FDFF8A8B3DAF8D3
:103AB0003010DAF860004FF00105081A4FF00004EA
:103AC00002D5B8F1000F7CD044F620621144CAF848
:103AD0006010FFF7ADFD4FF48040FDF7E0FF28B127
:103AE000DB485C30007808B900F072FCDFF85C83DA
:103AF00098F81F01C0B1D6494FF47A72123101EB28
:103B000040000021B0F90600A0F57A7002F0FCFF39
:103B100007F066FED04907F017FED04907F0DEFD3A
:103B200007F085FEAAF820004FF40070FDF7B7FFFC
:103B3000B8B39BF8B4C0BAF910200CEB8C019142D9
:103B40001DDA7878D8B1C2490020B8F9163112319F
:103B500021F81030401C0328FADBBBF8B630CB80CC
:103B60009BF8B500604400EB8000904202DA00F060
:103B70002FFC3C70BAF81210491CAAF812109BF8DE
:103B8000B40000EB8001BAF91000814204DA7878C1
:103B900010B900F01DFC3C70BAF81010491CAAF8CE
:103BA0001010AA49DFF8A8820020B1F818C1B1F8B6
:103BB0001A3108F11208B60838F91020624503DD01
:103BC00000E060E246F080069A4201DA46F04006E4
:103BD000401C0428EFDB9AF8091050468E4205D1AC
:103BE000017AFA2903D2491C017200E004728AF8B2
:103BF00009604FF480463046FDF751FF58B19348B5
:103C0000B8F90620DC30418F00880B1A934202DAA3
:103C1000084490420ADC3046FDF741FFD0B98B489A
:103C2000B8F90610B0F81801814213DA88488838CC
:103C30000460446084608248883004604460BBF85B
:103C4000420090B182485C30007850B1387860B161
:103C5000FFF739FDBBF8420038B17D485C30007891
:103C600018B9787808B100F0B3FB9AF80800142866
:103C70001AD17878C8B1BBF842005E4628B99AF8E4
:103C800009005F2801D100F0A3FB704890F81C01E7
:103C9000002809D0B6F84200002805D19AF809009A
:103CA0007D2801D100F094FB90E09AF80900572894
:103CB00009D00420FDF7F3FEE8B19AF80910504648
:103CC0005A2921D017E066494FF47A7008804FF4E2
:103CD0008070FDF7E4FE08B102F0B5F80420FDF7AE
:103CE000C9FE10B15F490A2008800820FDF7C2FE16
:103CF00008B95D4804809AF809005D2815D05B2852
:103D000015D05E2815D022E0C17819B1C4708AF8A8
:103D100004501CE0817891F00101817001D00221F2
:103D200000E003218AF8001011E0012602E00226DB
:103D300000E003264549701E81F8980300210846DB
:103D4000FDF7C1FC324628210220FFF72FFABBF80D
:103D500042005E4618B99AF809106F290FD03B4906
:103D600091F81C1121B118B99AF809007E2806D0E3
:103D70009AF80900972805D0A72808D008E0FFF78F
:103D8000A2FC05E039494FF4C870088000E0BD731B
:103D90009AF80900BB2806D0B72807D0BE2809D05A
:103DA000BD280AD012E0B08D801C01E0B08D801ECD
:103DB000B08505E0708D801C01E0708D801E7085DF
:103DC00001210846FDF77FFC8AF808400420FDF732
:103DD00066FE30B39AF802205046322172B17A78EA
:103DE00062B11A4AB8F90630B2F81821934205DDDB
:103DF000174A5C3212780AB981828470144A5C32A4
:103E0000527C3AB14279C3781A4300D181828AF850
:103E1000055006E0C17821B1797811B9C4708AF8EB
:103E200004500020C64640F2A46600BF0EEB4001DD
:103E3000B1F9082040F214518A4219DA012318E03E
:103E4000D8000020F5360008FF380008CC04002018
:103E5000F00A00206808002000007A4400C07F4477
:103E6000AC010020DA010020DC010020AA010020C2
:103E7000002300EB40018B40A2F2155CBCF5C77F2C
:103E800002D84FF0010C01E04FF0000C01F10108E5
:103E90000CFA08FC43EA0C03B24201DD012200E007
:103EA0000022891C8A40134343EA0903401C1FFA7D
:103EB00083F90428BADBFF4E002000BF0BEB400162
:103EC000B1F8421011EA090100D001213154401C1F
:103ED0001528F3DB707838B99BF8B40000EB80014B
:103EE000BAF9100081420ADA0220FDF7C3FD30B1B1
:103EF000F87828B9F04804604460FD7000E0FC7078
:103F0000B07838B1FC70387928B9EB480460446067
:103F10003D7100E03C713078B04600B93D70F978F1
:103F2000102009B9397909B1E44901E0E349091FD1
:103F300008600420FDF79EFDF8B198F8030046469E
:103F400080B1B87978B9DE48BD710168DD4801609B
:103F5000D9481030C188DC48AAF816100460DB4844
:103F6000046000E0BC714FF40050FDF798FD20B1F3
:103F7000307918B1F87B00B9FD7300E0FC730220C2
:103F8000FDF778FD18B90820FDF774FDD0B198F859
:103F90000510404639B1797931B9CD497D710A882A
:103FA000CC490A8000E07C71817919B1797A11B924
:103FB0007D7200E07C7298F8070018B1C44801884F
:103FC000AAF81A102020FDF755FDE0B3F87AD8B30F
:103FD0009AF80C005646052843D398F80A1061B1A8
:103FE000F87980BBB449FD713C722431B472081F6A
:103FF00002F063FB0220707037E0FC7198F80B0050
:1040000038B3AD481030B0F90010002900DC494247
:10401000BBF8C82091421CDAB0F90200002800DC8D
:104020004042904215DA387A68B9A3483D72183098
:10403000B47200F1100102680A60406841F8040F90
:104040009D48283001E010E00BE002F036FB75706F
:104050000BE03C72B07A40B98AF80A5002F0D3FA09
:1040600003E0FC713C728AF8014098F80C0008B13A
:10407000BD7200E0BC7298484079082801D00E2833
:104080003DD17C723BE0DAF868005646052836D20E
:10409000DFE800F0030B151F2A000820B566FDF7C6
:1040A000E9FC10B100F083FC48BBB06E401CB06668
:1040B0000420FDF7DFFC10B100F0B6FBF8B9B06EDC
:1040C000401CB0660420FDF7D5FC10B1FEF7D8F80F
:1040D000A8B9B06E401CB0664FF48070FDF7DFFCED
:1040E00010B102F04DFA0AE01020B466FDF7C2FCF0
:1040F00008B100F0DEFC4FF40050FDF7D0FC04F0F6
:1041000056FC7549CAF8300056468A8912B1736E5A
:10411000C31A75D4104488467066FEF77AF804F026
:1041200046FC3063B18E411AF1817063FFF766F887
:104130000820FDF79FFC48B35F491031B1F9042016
:1041400002F145008A2822D8787900B360480388B4
:1041500060480088181A00B210F1B40F02DC00F5B4
:10416000B47000B2B42802DBA0F5B47000B298F9C4
:10417000EC305B42434318B27B7B3BB19BF8093088
:1041800043431E2093FBF0F0101A888003E0504850
:104190000188504801800420FDF76CFC70B1B879AB
:1041A00060B1387C88B144484849103098F91E31D4
:1041B000B0F90220096801FB032141809BF87200DD
:1041C0005C4688B3F87880BB5AE0DFF8EC909BF847
:1041D0006F1009F11009F1B1B9F90610B6F91630EE
:1041E000CA1A002A00DC5A1A9BF86E00824208DDC7
:1041F000354A99421460F57200DD4042084407E0F8
:10420000E4E0F07A40B32E4801682E4801602BE0CC
:10421000A9F80600D2E7B9F90620B6F91630D11A86
:10422000002903DD0A4602E033E02BE09A1A9BF8EE
:104230006E00824211DD308B4FF4FA64084401B203
:1042400091FBF4F21F48D0F800C09444C0F800C0BD
:1042500004FB12103083F57207E0F07A28B1184899
:104260000168184801603483F4721848B8F8D01017
:10427000B8F8D22000686431184402F045FCC7E762
:10428000387930B10C48154A1030C1881288114471
:10429000C1802020FDF7EEFBF0B3F87908B9387A39
:1042A000D0B3387BC0B30A4DB5F9000007F098FAD7
:1042B0000B4F17E04C0B002060010020140C014054
:1042C0006C0000207000002034000020300000202E
:1042D000DC010020DE010020CC0400200E000020C4
:1042E00035FA8E3C394607F0F9F908F067FD009081
:1042F000B5F9000007F074FA394607F0EFF908F055
:1043000077F90746364D94F8C100DFF8D8A0A5F13B
:10431000340810B3A94600E04EE0B5F902002D1DA7
:10432000B5F90210401A01F037FB14F8C12F5142C1
:1043300002F0EAFB698808446880B9F90000B5F921
:104340000010401A01F028FB2278514202F0DCFBF9
:104350002988084400B2288001E0B5F9000007F080
:104360003FFA8346009907F0B9F90446B5F902000F
:1043700007F036FA8146394607F0B0F9214607F0D2
:10438000A7F95546514607F0DFF907F037FAA8F8C4
:10439000000044465846394607F0A0F9074648460B
:1043A000009907F09BF9394607F040F9294607F0D4
:1043B000CBF907F023FA6080F06B8047FEF795FC9D
:1043C000FEF79FFBBDE8F84FFEF7EFBBBDE8F88FA7
:1043D00005484178002901D0002141707047000054
:1043E0004C01002000002041F00A00202DE9F84394
:1043F000F84CF94BF9490026B4F8EE209846A1F1A3
:10440000100004F02AFF08B101260CE0B4F8EE1009
:10441000F24805F037F930B9B4F8EE10EF4804F07F
:1044200088F800287ED0EE4D5FF0000794F8ED008C
:1044300006283CD2DFE800F00707192833030220E2
:10444000FDF725FB33E08DF800704FF44870E34929
:10445000ADF802001039684603F09BFA08B101205C
:10446000287094F8ED00012821D06EB1DB49B4F832
:10447000EE204346A1F1100004F0EFFE0220287068
:1044800094F8ED0002281DD0D448103804F0EEFF57
:1044900028B10320287094F8ED00032812D0CF48EB
:1044A000103805F02CFF10B1042028700AE028789D
:1044B00040B994F8ED0010B184F8ED70B6E7022031
:1044C000FDF7E5FAC548103003F00AFB38B9C348D8
:1044D000103005F0DAF910B90420FDF7D8FA0220FF
:1044E000FDF7C8FA28B1BD4994F8E300103909680E
:1044F0008847BA4914F8E20F09688847A07803F0A2
:1045000009FC10B90820FDF7C2FAB6486421B0F9D9
:10451000282092FBF1F001FB102406B20820FDF7E1
:10452000A9FA00E015E0B04D88B1204607F058F92F
:10453000AE4907F0D3F80446304607F051F921465A
:1045400007F074F8AA4907F0C9F8286000E02F6066
:104550000120BDE8F88370B505469E4890F8090132
:1045600007F047F90446284607F043F9A14907F048
:10457000B5F8A14907F0E8F8214607F0AFF807F0D1
:1045800056F980B270BD40F6E441484340F6FF71F1
:10459000B0FBF1F08F49B1F80621B1F80411801A8F
:1045A0004FF47A72504390FBF1F0704770B50025DC
:1045B0002C46002003F042F905440A2004F020FABA
:1045C000641C202CF5D3C5F34F10FFF7C4FF814ABC
:1045D000012192F80A3100BF03FB01F4844202D8A2
:1045E000491C0829F8D38548017092F80B0148430B
:1045F0008349088070BD2DE9F05FDFF8E491814EBA
:10460000784FB9F80220734C0025C2B37E490020D0
:104610004FF4C878424501D141F8205051F820307C
:1046200036F910C0634441F8203026F8105004EBEE
:104630004003401CA3F8F8500328EBDB012A19D1F2
:104640000868C83090FBF8F024F8F80F4868C830C4
:1046500090FBF8F060808868C83090FBF8F1B9F8FA
:104660000600081AA0807D850121F83CBD8508461A
:10467000FDF729F8B9F80210491EA9F80210042024
:10468000FDF70DFA002873D0604BDFF854815E49C6
:104690001A8808F120080C31A8F1180A322A05D02E
:1046A000F2B300209B46322A14D015E034F8F80FFC
:1046B000A8F800006088A8F80200A088A8F8040004
:1046C000B7F82AC0AAF800C0B7F82CC0F83CAAF87E
:1046D00002C0E6E741F8205051F8203036F910C00A
:1046E000634441F8203026F8105004EB4003401C8E
:1046F000A3F8F8500328D6DB012A1AD14448454BC9
:10470000057001201870444B02201870B8F80000A2
:1047100024F8F80FB8F802006080B8F8040000E050
:104720000AE0A080BAF800307B85BAF80200F83CB5
:10473000B885521EABF8002038480278C2B1057027
:104740000A68322092FBF0F224F8F82F4A6892FBB4
:10475000F0F26280896891FBF0F1B9F80600081A5E
:10476000A0807D850121F83CBD850846FCF7ABFFA4
:10477000308834F8F81F401A308070886188401AF9
:104780007080B088A188401AB080BDE8F09F1348BF
:1047900010B5103841681B488847BDE810402AE72B
:1047A00030B50F4C0F4AE06892F831200146401CAA
:1047B000824200D100201A4A1368134A183242F884
:1047C0002130184952F820200D682B449A1A0A60AB
:1047D000E06030BDCC04002074090020D40C00201F
:1047E000A8010020680800203C0000208988883C3F
:1047F000000020413333534000F07F4594010020F6
:10480000FA00002088000020A40B0020EC0000200B
:10481000DD000020DB000020D8000020DC000020AC
:10482000B00000201C00002070B5BA48BA4C0068E7
:104830002169411A01D5002070BD2061B74D606922
:1048400078B12869804768688047288821690844CA
:1048500020616A69B249B348904700206061022034
:1048600070BDA8688047E8688047FFF799FF01207E
:1048700060616888216908442061012070BD2DE9CC
:10488000F05FA54DA88800286DD0DFF89082002445
:10489000A8F15C08A3464FF47A79A8F10C06A88821
:1048A000484507D104EB840208EB820146F824B0A6
:1048B000C1F810B09C4F56F8241037F91400014489
:1048C00046F8241006F08CFF014604EB840208EB46
:1048D0008200824600F0F0F827F814B0934F27F8D2
:1048E00014B0A888012838D1DAF81000012808DDB2
:1048F000401E06F075FF0146DAF80C0006F024FFB2
:1049000000E0002008F020FB8246894890F8F4007F
:10491000B0B106F06EFF514606F09EFF10D27F49FF
:10492000A5F804905C39C8F810B0C1F824B0C1F8FB
:1049300038B0C6F808B0C6F804B0C6F800B00CE04D
:1049400056F82400012200F5FA7090FBF9F027F8E0
:1049500014000F210A20FEF729FC641C032C9EDBA7
:10496000A888401EA8807049704A002031F8103095
:1049700032F810401B1B21F81030401C0328F5DBD7
:1049800003E7664810B51038416867488847BDE8B6
:10499000104074E710B567481024046003F009FA6A
:1049A0006448001F04605C490120487010BD2DE977
:1049B000F0415848584C0068A169411A02D50020BE
:1049C000BDE8F0815C490844A0615C4803F0B9F996
:1049D000DFF86CC1504B00269CF80E005749544A32
:1049E00026339D1D88B1A069E061002002EB4007DD
:1049F000A7F8FE6031F8107023F8107025F81070D9
:104A0000401C0328F2D38CF80E60607868B10888E7
:104A100032F8FE7FC01B088048885788C01B48803A
:104A200088889788FE3AC01B8880E069A0B3A76990
:104A3000381A444FB84219D23E480838026882F00A
:104A4000080202605FF0000031F9102033F91040D5
:104A5000A24201DA23F8102035F91040A24201DD0C
:104A600025F81020401C0328EED315E00020E66155
:104A700033F9101035F91040214402EB400401EBEA
:104A8000D17141F34F01401CA4F8FE100328EFD36D
:104A900001210846FCF717FE012091E710B501201F
:104AA00004F036FD1020FCF7EDFF274900200860D8
:104AB00010BD254804F080BD2DE9F0410446006991
:104AC0000E46401C206101281FD006F089FE256893
:104AD00080462946304606F0FBFD0746414606F073
:104AE00033FE294606F0A2FD0546606029463046A1
:104AF00006F0EEFD0146384606F0F0FDA16806F02E
:104B000095FD2560E060A0605AE7666000202660A1
:104B1000F9E7000008010020A8010020E40C0020B3
:104B2000B4000020B000002082000020B800002067
:104B3000CC040020140C0140A08601009400002049
:104B4000F00A002080C3C9012C00002070B5F84C89
:104B5000F84EC1B205466170306805F0F1FBA079EE
:104B600061784840A071C5F307216170306805F095
:104B7000E7FBA07961784840A071C5F307416170F7
:104B8000306805F0DDFBA07961784840A071290EFE
:104B90006170306805F0D4FBA07961784840A0715D
:104BA00070BD70B5E24CE34EC1B20546A1703068ED
:104BB00005F0C6FBA079A1784840A071C5F3072194
:104BC000A170306805F0BCFBA079A1784840A071C5
:104BD00070BD10B50446D7482146006805F0B0FB0B
:104BE000D34881796140817110BDD14AD248D179D1
:104BF000405C491CD171704700B5FFF7F6FF0346D2
:104C0000FFF7F3FF03EB002080B200BD10B5FFF704
:104C1000F3FF0446FFF7F0FF04EB004010BD70B552
:104C200004460D462420FFF7D4FF4D20FFF7D1FFA7
:104C30000CB1212000E03E20FFF7CBFFBC4C002050
:104C4000A0712846FFF7C5FF207ABDE87040C0E795
:104C500001460020E3E701460120E0E7B4488079FF
:104C6000B7E770B504460D460846FFF7F1FF03E0CD
:104C700014F8010BFFF7ADFF2800A5F10105EDB217
:104C8000F6D170BD10B5044603E000BFFFF7A1FFE9
:104C9000641C20780028F9D110BD2DE9F05FDFF801
:104CA00090B2DFF88C9201274FF0000A0BF10C0B49
:104CB00000251AE0A0481538405D00EB40010BEBE1
:104CC0008108D8F8040006F062FC06460FB1B24431
:104CD0000AE0002406E000BFD8F80400005DFFF7FA
:104CE00078FF641CB442F7DB6D1C99F80000854224
:104CF000E0DB002F05D00AF0FF00FFF7A9FF002737
:104D0000D6E7BDE8F09F70B50246032300218B482B
:104D100003F0FAFF8749FF220860874815211538FC
:104D200006F0EFFB844D0020153D01242870022081
:104D3000FCF7A0FE20B1012068700220A8700324B7
:104D40000420FCF797FE50B103202855641C4FF453
:104D50000050FCF7A4FE10B104202855641C02206A
:104D6000FCF788FE18B90820FCF784FE40B1052046
:104D70002855641C06202855641C07202855641CEF
:104D80002020FCF78CFE10B108202855641C4FF43D
:104D90008070FCF784FE28B10A202855641C0B2083
:104DA0002855641C664E7079082801D00E2802D15F
:104DB0000C202855641C0D202855641C0420FCF789
:104DC0006EFE10B111202855641C1320285596F84A
:104DD0003001641C00B10120FCF761FE10B1142009
:104DE0002855641C5248047070BD2DE9F05F504F87
:104DF000DFF844B14FF00008397A514D514C524E12
:104E0000C1464FF0010AABF1150B78297AD011DCBD
:104E10003846A1F164010078142974D2DFE801F06A
:104E2000FDFCFBFAF9F8F7F6F5F4F3F2F1F0EFEE2A
:104E3000EDECEBEA4448D029407875D018DCCB295A
:104E400073D00CDCC8292AD004DCA0296ED0A42998
:104E500059D1FCE3C92939D0CA29F9D154E0CC2968
:104E600065D0CD297ED0CE297DD0CF29F0D1A8E044
:104E7000D62979D00ADC4FF00008D12975D0D22983
:104E800074D0D32973D0D429E2D1D2E1EF2916D03E
:104E9000F0296DD0FA296CD0FE29D9D1BFE32B4D72
:104EA000002400BFFFF7A8FE25F81400641C082C9E
:104EB000F8D30020FFF7CCFE02F020FC5FE2FFF702
:104EC0009BFEA085FFF798FE6085A4E3FFF78DFEAB
:104ED000F072FFF78AFE1E490870FFF797FE1D4C1F
:104EE0002060FFF793FE6060FFF786FE1A49088096
:104EF000FFF782FE194908801948017841F0020144
:104F0000017088E37BE17EE35FF00003FFF76DFE55
:104F1000E5186870FFF769FEE872FFF766FE5B1C34
:104F200068750A2BF2D376E35DE323E0A0E331E07A
:104F3000E001002064090020110D0020003801402C
:104F4000CC04002068080020F00A0020020B00209A
:104F5000E400002078010020A2010020A40100202C
:104F60009001002044E349E369E00AE372E07DE058
:104F700074E347E300255E4608E000BFFFF73CFE10
:104F8000715D6D1C04EB4101A1F842003878854247
:104F9000F4D340E3FFF729FE04F81F0FFFF725FEC7
:104FA0006070FFF722FE2071FFF71FFE6071FFF7B0
:104FB0001CFEA071FFF719FEA070FFF716FEE0704F
:104FC00029E3FFF719FEFFF717FE25F8D00FFFF7CB
:104FD00013FE6880FFF710FEA880FFF70DFEA4F80F
:104FE000B600FFF709FEFFF711FEFFF705FE00EB25
:104FF000800013E00BE2A0E2ECE105E291E25FE267
:10500000EFE1D5E1BCE188E17DE16CE159E13BE113
:105010002CE126E1F0E0BCE041E02BE040002085FF
:10502000FFF7E3FD85F83900FFF7DFFD85F83B006A
:10503000FFF7DBFD85F83A00FFF7D7FDEBE2FF4D08
:10504000002400BFFFF7D8FD25F81400641C082CCD
:10505000F8D3E0E200289CD1FFF7C7FD85F898035C
:10506000022801D985F898830021D1E2FFF7C4FD19
:10507000F349C1E20720FFF7EBFDE620FFF7A9FDAA
:105080006879FFF7A6FD0020FFF7A3FD95F81D0145
:1050900000B10820EB490843FFF758FD1CE30B2043
:1050A000FFF7D6FDE848008800B2FFF77AFD03F06D
:1050B0007AF900B2FFF775FD0220FCF7DBFC04462D
:1050C0000420FCF7D7FC44EA40040820FCF7D2FC9B
:1050D00044EA80042020FCF7CDFC44EAC004102000
:1050E000FCF7C8FC44EA0010FFF75BFDF178327969
:1050F000490041EA8201B279002041EAC201727995
:10510000D44641EA4211727A41EA8211CF4AD379F8
:1051100041EAC311137A41EA0321537A41EA432158
:10512000F37941EA8321337A41EAC321B37A41EA30
:105130000331537B41EA4331937B41EA8331137C52
:1051400041EA0341137941EA0311537C41EA4341A7
:10515000937C41EA8341D37C127D41EAC34141EA19
:10516000025471783E780C4300225F4608E0BB5C35
:105170000CFA03F3234202D00CFA02F10843521C4A
:10518000B242F4D3FFF7E2FC95F89803FFF721FD54
:10519000A2E21220FFF75CFDAD48AE4D4FF00004D7
:1051A0000088B0F5806F0BD935F91400C11700EBFA
:1051B0005170C010FFF7F5FC641C032CF4D306E01B
:1051C00035F91400FFF7EDFC641C032CF8D3A24D55
:1051D000002400BF35F91400FFF7E3FC641C032C26
:1051E000F8D39E4D002400BF35F91400FFF7D9FC19
:1051F000641C032CF8D36FE21021994833E0382067
:10520000FFF726FD5FF0000504EBC50636F9740FC5
:10521000FFF7C7FCB6F90200FFF7C3FCB6F90400BC
:10522000FFF7BFFCB079FFF7D4FC6D1C082DEBD362
:1052300052E20020FFF70CFD5FF00005FFF7DCFCF9
:1052400004EBC50626F8740FFFF7D6FC7080FFF755
:10525000D3FCB080FFF7C9FC6D1CB071082DEDD3F5
:105260003AE210217F48FFF7FCFC35E21020FFF7FF
:10527000EFFC7D4D002400BF35F91400FFF791FCD1
:10528000641C082CF8D327E21020FFF7E1FCF07A29
:10529000FFF79FFC75480078FFF79BFC744C206873
:1052A000FFF754FC6068FFF751FC7248008800B2B9
:1052B000FFF777FC7048008800B2FFF772FC6F4878
:1052C00029E00520FFF7C4FC6D48008800B2FFF715
:1052D00068FC6C48B0F90000FFF763FC6A4800788E
:1052E00000F0010052E70620FFF7B2FC674D0024F2
:1052F00035F91400FFF755FC641C022CF8D3644800
:10530000B0F9000039E00620FFF7A2FC6148006810
:10531000FFF71CFC604800882EE00720FFF798FC90
:105320005E48FF220021008801F0EEFBC0B2FFF7CB
:1053300050FC5B484FF6FF7422460021006801F0E4
:10534000E3FB00B2FFF72DFC5648008800B2FFF7E0
:1053500028FC554895F80811006831B1002800DC98
:10536000404200EB8000400002E0002800DC4042A8
:105370002246002101F0C8FB00B2FFF712FCABE1AE
:105380000720FFF765FC14F81F0FFFF722FC607879
:10539000FFF71FFC2079FFF71CFC6079FFF719FC71
:1053A000A079FFF716FCA078FFF713FCE078EDE694
:1053B0001E20FFF74DFC002566197078FFF709FCE9
:1053C000F07AFFF706FC707DFFF703FC6D1C0A2DD9
:1053D000F2D381E12F20FFF73BFC3448FFF752FC6A
:1053E0007AE14006000EFFF733FC00255E4607E039
:1053F000705D04EB4000B0F94200FFF7D2FB6D1C7A
:1054000038788542F4D367E1FFF747FC64E1FFF7A2
:105410001FFC0024264D5E46B8464CE05FF00007B6
:1054200007EB470005EB8000315D007A884201D12F
:10543000FFF7CFFB7F1C152FF2D33BE09009002034
:10544000DE01002004000080E60000204C0B00205C
:10545000AE0100208E0000207C000020940000207F
:10546000C200002078090020020B0020E400002088
:1054700078010020A2010020A40100209201002058
:105480009E010020A001002090010020400000208B
:10549000DC0100206C00002038000020F400002017
:1054A00048010020F8000020440100203CDF0008F3
:1054B000EC010020641C98F800008442AED30BE19C
:1054C0001620FFF7C5FB0020FFF76BFB35F9D00F67
:1054D000FFF767FBB5F90200FFF763FBB5F90400BE
:1054E000FFF75FFBB4F9B600FFF75BFB0020FFF7A7
:1054F00058FB0020FFF72AFBB4F928000A2190FB93
:10550000F1F000B2FFF74DFB95F83900FFF761FBB2
:1055100095F83B00FFF75DFB95F83A00FFF759FB64
:105520002DE00820FFF794FB0024601CC0B2FFF7B9
:1055300050FB641C082CF8D3CEE0FFF756FB044662
:105540001220FFF785FB14B1102C02D004E097481D
:1055500000E09748D0E900892046FFF73AFB404633
:10556000FFF7F4FA4846FFF7F1FA92480068FFF7B0
:10557000EDFA0020FFF715FB0020FFF712FB0020DB
:1055800004E6FFF732FB8446FFF740FB0746FFF7D0
:105590003DFB0546FFF73AFB0446FFF72DFBFFF7FF
:1055A0002BFBFFF722FBBCF1000F03D0BCF1100F67
:1055B0000BD030E07D48C0E9007586F8078086F89A
:1055C0000CA044B37B48046025E07949C1E900752B
:1055D0000CB178480460784A0220091D10707448A4
:1055E00001F06BF817E0B0B90120FCF734FA12E0D3
:1055F00088B972494FF4C87008800CE058B986F831
:105600000EA008E018B10020FFF725FB64E001219F
:105610000020FCF758F80020FFF71AFB5CE0082098
:10562000FFF716FB6648684A684D016865481268CE
:10563000B1FBF0F1B2FBF0F000EB4002C2EBC010A6
:1056400001EBC000E880002435F9140000E01FE001
:10565000FFF7A7FA641C042CF6D33DE00420FFF703
:10566000F7FAB4F92C00FFF79CFAB4F92A0084E6A3
:105670000C20FFF7EDFA56480068FFF767FA544828
:10568000001D0068FFF762FA51480830006803E522
:10569000504D29780AEB8100C0B2FFF7D9FA28787B
:1056A000FFF797FA00244C4E4C4FDFF83481DFF8B7
:1056B00034910EE0305DFFF78CFA385DFFF789FA20
:1056C00018F80400FFF785FA19F80400FFF781FACB
:1056D000641C28788442EDD3BDE8F05FFFF7BEBAC2
:1056E00070B54148414C424E0078002540B3BDE8BA
:1056F0007040FBF791BC306804F035FE617951B120
:10570000012921D0022924D0032928D004292ED010
:10571000052944D131E0242803D00021617179B9F1
:1057200001E00121FAE73349497849B9232808D033
:10573000314991F89913814231D1012003F032FAB5
:105740002DE0FBF769FC2AE04D2804D102206071AE
:1057500025E03C2801D00020F9E70320F7E74028A6
:105760001CD82071E570E571A0710420EFE720726C
:10577000A1794140A1710520E9E7E17822799142C0
:1057800007D2A2794240A2711C4A5054491CE170D0
:1057900005E0A179814201D1FFF727FB65713068EF
:1057A00004F0DEFD0028A6D170BD000080010020BD
:1057B0008801002070000020D9000020AA010020EC
:1057C0006404002040420F0068040020960100207D
:1057D000E8F7FF1FA6010020610B0020710B0020DD
:1057E000810B0020910B002000000020E001002030
:1057F00064090020F00A0020CC040020110D0020D4
:105800002DE9F047F94C607905F0F3FFDFF8E093FC
:10581000494605F099FFF74D2860E07B05F0E9FF68
:10582000494605F091FFF44EEE606860A07905F0FE
:10583000E0FFF24F394605F087FF10352860207CE5
:1058400005F0D7FF494605F07FFF6860A07E05F0B0
:10585000D0FFDFF8AC83414605F076FFC5E90206CC
:10586000E07905F0C6FF394605F06EFF1035286077
:10587000607C05F0BEFF494605F066FF6860E07E8B
:1058800005F0B7FF414605F05FFFC5E90206BDE838
:10589000F08770B506460325002000F035FF4FF471
:1058A0008070FCF7FCF800281ED0D24C183C6670C3
:1058B00003F097F8A06000206060D24890F82001C3
:1058C00000B90125FFF79CFFCF482B4600EB0610DF
:1058D00000214268CD4803F017FACD494860BDE881
:1058E0007040012000F010BF70BD2DE9F041C548A7
:1058F000C74DC04C90F82011C34E6868183C11B1D8
:10590000012945D106E0617806EB0111496804F0F0
:105910002DFD3AE004F02DFD00B32078012802D0DF
:105920002069F0B124E003F05CF861690746401A91
:1059300064282FD32069052811D206EB0010416896
:10594000686804F013FD607806EB001081686868F1
:1059500004F0F9FC2069401CC4E9040718E00220A7
:1059600014E0607806EB00104168686804F0FEFC03
:1059700020698C2809D2A4495031095C686804F078
:10598000DFFC2069401C206102E0032000F0BCFE27
:1059900000206060BDE8F08144F25061884201DD82
:1059A000A0EB41009B49884202DA48F6A041084436
:1059B00070472DE9F04706465068994614460D4653
:1059C000301A05F00DFF296805F0BEFE2061A768BA
:1059D000394605F07DFE8046844890F8C00005F009
:1059E00008FF8D4905F07AFE01464FF07E5005F024
:1059F000ABFE2D68294605F019FE0146284605F044
:105A0000A3FE414605F06AFE394605F00FFE20610F
:105A1000C4E901600146D9F8080005F05FFEBDE861
:105A2000F04705F0EBBE2DE9F0411D4614460E4649
:105A300005F0D6FE696805F051FE316805F04EFEAE
:105A4000216805F0F3FD2060ED680746284605F063
:105A5000D5FE064685F0004005F0D0FE05463846E6
:105A600005F0CCFE3246294601F04EF805F0B8FEAE
:105A70002060BDE8F04105F0C1BE70B5674CD4E9C7
:105A80000D01401AFFF788FF0028D4E90D01A0EBB3
:105A9000010002DDFFF780FF02E0FFF77DFF4042DB
:105AA00041F29411884228DAD4E90D01401A05F038
:105AB00097FE5B4905F012FE0646E06B05F099FE85
:105AC0000546304607F07AF9294605F007FE05F04D
:105AD00095FE00B240F6B8322082514201F014F82F
