:020000040800F2
:10000000902A0020E9B2000829B300083B29000823
:100010002DB300082FB3000831B300080000000022
:1000200000000000000000000000000033B30008E2
:1000300035B300080000000037B3000895890008B8
:100040003BB300083BB300083BB300083BB30008D8
:100050003BB300083BB300083BB300080195000820
:100060003BB300083BB300083BB300083BB30008B8
:100070003BB300083BB300086B8F00083BB300089C
:100080003BB300083BB300083BB300083BB3000898
:100090003BB300083BB300083BB3000803950008DE
:1000A0003BB300083BB300083BB30008A39D000826
:1000B000A79D0008AD9D0008B19D00088982000839
:1000C000838000088D8200088B8200083BB3000803
:1000D0003BB30008978F0008E58F00083BB300088A
:1000E000C97900083BB300083BB30008DFF80CD027
:1000F0000BF0C4FD00480047B9260008902A0020F4
:1001000070B51546B0FBF5F40646A84203D3204669
:10011000FFF7F6FF014605FB1460FDA2105C0870B6
:10012000481C70BD70B50C46911E232900D30A22CD
:100130000025002804DA2D212170611C404200E0D6
:100140002146FFF7DDFF0570204670BD2DE9F04721
:10015000044600E0641C20782028FBD00928F9D050
:100160004FF07E58C1B247462D2902D02B2801D02E
:1001700001E0F14F641C0026DFF8C0930CE000BFE3
:100180000BF028FB0546494630460BF0A1FA2946FC
:100190000BF046FA0646641C207830380928EFD95F
:1001A00020782E2815D14D460EE000BF0BF012FB33
:1001B00029460BF0C3FA31460BF032FA064649469F
:1001C00028460BF085FA054614F8010F3038092847
:1001D000ECD921784046652901D0452935D114F85C
:1001E000011F4FF000082D2902D02B2902D002E078
:1001F0004FF00108641C00256FF02F0206E000BFDD
:1002000005EB850302EB4303CD18641C2178A1F1B3
:100210003003092BF4D94FF49A718D4204D90D465D
:10022000C7490BF055FA083D082DF9D203E04946BD
:100230000BF04EFA6D1E002DF9D1B8F1000F04D06D
:10024000014630460BF07AFA03E0014630460BF0E7
:100250003FFA3946BDE8F0470BF03ABAF0B587B03F
:1002600000260D46B84900960196B6A70296B0F54D
:10027000000F02DB0BF0D4F901E00BF023FAB349D5
:100280000BF026FA0BF0B4FA041E00DC60420A22DE
:1002900003A9FFF747FF002C01DB202000E02D2001
:1002A0008DF8000003A80BF06CF9302401280AD067
:1002B00003A80BF066F902280CD003A80BF061F933
:1002C00003280CD00DE08DF801408DF802408DF828
:1002D000034006E08DF801408DF8024001E08DF802
:1002E000014003A968460BF018F968460BF049F97C
:1002F000C01EC4B22246694628460BF02CF92E5582
:10030000394628460BF009F90DEB040128460BF09D
:1003100004F907B02846F0BD70B505460C460868DC
:100320000BF02FF9024621682868BDE870400BF0F9
:1003300051B970B506460BF024F9854D10F0FF0F4A
:1003400010D030460BF05FF90446152818DA20214A
:1003500030460BF00CF90BF056F905EB4401A1F80F
:10036000420070BD5FF0000405EB44002146B0F888
:10037000422078A00BF0B0FD641C152CF4DB70BD9E
:10038000BDE87040152176A00BF0A6BD2DE9F04127
:10039000002588B007462E460BF0F3F87A4C10F093
:1003A000FF0FA84651D0052278A138460BF012F96C
:1003B00000287DD0042277A138460BF00BF90028E5
:1003C00077D038460BF01FF9461E0C2E72DA20212A
:1003D00038460BF0CCF8070007D0781C0746FFF72B
:1003E000B5FE04EB061101250861202138460BF00B
:1003F000BEF8070007D0471C3846FFF7A7FE04EBFE
:1004000006116D1C4861202138460BF0B0F807003A
:1004100007D0471C3846FFF799FE04EB06116D1C08
:100420008861202138460BF0A2F830B1401CFFF75C
:100430008DFE04EB06116D1CC861042D66D057A01B
:1004400001F044F808B0BDE8F08163A001F03EF887
:100450005FF0000504EB0517386910F0FF4F2BD053
:10046000761C691C67A00BF037FD03A93869FFF7FC
:10047000F5FE014665A00BF02FFD03A97869FFF793
:10048000EDFE014661A00BF027FD03A9B869FFF757
:10049000E5FE01465DA00BF01FFD03A9F869FFF71B
:1004A000DDFE01465AA00BF017FD6D1C0C2D02E07D
:1004B000C8E0D0E0F5E0CDDBCDF80880CDF80480D1
:1004C0000025CDF8008011E004EB0517009879694C
:1004D0000BF0A6F80090B96901980BF0A1F8019013
:1004E000F96902980BF09CF86D1C0290B542EBDBA9
:1004F00049A000F0EBFF4C4E00246D4655F8240057
:1005000020F00040B04202DD48A092E0C4E08FE05D
:100510003031323334353637383941424344454639
:100520004748494A4B4C4D4E4F50515253545556E3
:100530005758595A00000000000080BF00002041B9
:1005400020BCBE4C2E0000006F12033A00007A441B
:10055000640800206175782025752025750D0A0036
:10056000496E76616C6964204665617475726520B8
:10057000696E6465783A206D757374206265203CFD
:100580002025750D0A000000C804002072657365FF
:10059000740000006C6F61640000000057726F6EA1
:1005A00067206E756D626572206F66206172677577
:1005B0006D656E74732C206E656564732069647854
:1005C0002074687220726F6C6C207069746368208C
:1005D0007961770D0A000000437573746F6D206DAB
:1005E000697865723A200D0A4D6F746F720954680C
:1005F0007209526F6C6C09506974636809596177AC
:100600000D0A00002325643A090000002573090043
:1006100025730D0A0000000053616E697479206330
:100620006865636B3A0900000AD7233C4E4709000E
:10063000FDA000F04BFF641C032CFFF65FAFAFF290
:100640004000FDE60020414604EB0012401C116111
:100650000C28F9DBF6E6202138460AF088FF00284E
:10066000F8D0401C06460AF08CFFF04DC7B20024BB
:1006700055F8241031B13A4630460AF0ABFF18B1B4
:10068000641CF5E7EAA0DBE6204602F021FA55F803
:100690002410EDA00BF020FCAFF26810FFF776FEFF
:1006A000D0E60C21EDA00BF017FCCBE610B5F5A0C1
:1006B00000F00CFF012001F0DAF9F9A000F006FFCC
:1006C0000A2008F095F9BDE81040002008F061BA52
:1006D0007CB504460D4600790021062814D2DFE8D7
:1006E00000F003060A0D111EA06801780CE0A06856
:1006F00090F9001008E0A068018805E0A068B0F952
:10070000001001E0A0680168E9A00BF0E5FB002DF6
:1007100004D0D4E90312E7A00BF0DEFB7CBDA06897
:1007200069460068FFF79AFD0146E4A00BF0D4FB90
:10073000002DF3D0E0680BF04DF86946FFF78EFD11
:100740000146DFA00BF0C8FB20690BF043F86946B7
:10075000FFF784FD0146DAA00BF0BEFB7CBD2DE95E
:10076000FF47D8A00BF0B8FBD0A0FFF7E2FDE14DAA
:10077000AE49687901EB800050F8041CDEA00BF054
:10078000ABFB286910F0FF4F4CD0DFF878A30024B2
:1007900005EB0410066916F0FF4F3FD0D0E905982D
:1007A000C769611CD8A00BF097FB564502D3D8A0AF
:1007B0000BF092FB69463046FFF750FD0146BFA0A3
:1007C0000BF08AFB5646B14502D3D1A00BF084FB57
:1007D00069464846FFF742FD0146B8A00BF07CFB96
:1007E000B04502D3CAA00BF077FB69464046FFF73D
:1007F00035FD0146B1A00BF06FFBB74202D3C4A098
:100800000BF06AFB69463846FFF728FD0146AFF258
:1008100000200BF061FB641C0C2CB9DB611CBDA03B
:100820000BF05AFB01F054F9804E002407465C3669
:1008300056F8241021B1BCA00BF04EFB641CF7E766
:1008400000244FF0010800BF56F8241041B108FA07
:1008500004F0384202D0B8A00BF03EFB641CF3E772
:10086000B94A002069462C18135C94F80D41401CCD
:1008700008280B55F7DB00220A54B4A00BF02CFB20
:10088000B54D002404EB840005EB800655F82010DC
:10089000B2A00BF021FB00213046FFF719FF6EA03C
:1008A00000F014FE641C722CECD3BDE8FF8710B579
:1008B000ADA000F00BFE0121002000F010FFADA064
:1008C00000F004FE0A2008F093F8BDE81040002074
:1008D00008F05FB910B50446AAA000F0F7FDAF48D4
:1008E000AF4A002101705160117002F05FF820469C
:1008F000BDE81040DBE72DE9F04706460AF041FE6F
:10090000054601F0E5F8DFF8248107464FF00109BC
:1009100008F15C0855B12A46A2A130460AF05AFEF9
:10092000C0B1307800272D2823D025E09FA000F00B
:10093000CDFD00244D46464656F8241041B105FA37
:1009400004F0384202D09EA00BF0C6FA641CF3E714
:1009500041A01EE09BA000F0B9FD00244FEA08056D
:1009600055F824100029F3D095A00BF0B5FA641CBB
:10097000F6E70127761C6D1E5FF0000458F824107E
:1009800031B12A4630460AF025FE30B1641CF5E745
:1009900092A0BDE8F04700F099BD09FA04F01FB13C
:1009A00001F091F894A002E000F0FFFE95A000F0A5
:1009B0008DFD58F82410BDE8F04761A00BF08CBA0B
:1009C00010B505F038FE401C04D091A0BDE81040E1
:1009D00000F07CBD96A0F9E770B500249EA000F061
:1009E00075FD5D4DB5F1C00504EB440005EB8001DC
:1009F0004A6855F820109EA00BF06EFA641C102C6B
:100A0000F2D370BD3EB505460AF0BBFD082809D1FA
:100A10000024285D0AF034FD2855641C082CF8D306
:100A2000002429E13EE100004F4B090068CF000897
:100A3000496E76616C6964206D697865722074799D
:100A400070652E2E2E0D0A004C6F616465642025A2
:100A500073206D69782E2E2E0D0A00004D6F746F75
:100A600072206E756D626572206D7573742062659B
:100A7000206265747765656E203120616E64202583
:100A8000640D0A00526573657474696E6720746F33
:100A90002064656661756C74732E2E2E0D0A00003D
:100AA0005265626F6F74696E672E2E2E0000000013
:100AB00025640000202564202564000025730000C3
:100AC0002025730043757272656E7420436F6E66E5
:100AD00069673A20436F707920657665727974682A
:100AE000696E672062656C6F7720686572652E2E6F
:100AF0002E0D0A00C80400206D69786572202573E8
:100B00000D0A000000008080636D69782025640074
:100B100020000000636D697820256420302030209B
:100B20003020300D0A000000666561747572652022
:100B30002D25730D0A0000006665617475726520CD
:100B400025730D0A00000000E8D900086D617020CF
:100B500025730D0A0000000000D1000873657420A1
:100B60002573203D20000000536176696E672E2EAC
:100B70002E0000000D0A5265626F6F74696E672E59
:100B80002E2E00000D0A4C656176696E6720434C7D
:100B900049206D6F64652E2E2E0D0A0098040020EA
:100BA000000000206C69737400000000456E6162F3
:100BB0006C65642066656174757265733A20000027
:100BC00025732000417661696C61626C6520666501
:100BD0006174757265733A2000000000496E766199
:100BE0006C69642066656174757265206E616D65FF
:100BF0002E2E2E0D0A00000044697361626C65643C
:100C000020000000456E61626C65642000000000F9
:100C1000456E61626C696E67204750532070617346
:100C2000737468726F7567682E2E2E0D0A000000AF
:100C30004572726F723A20456E61626C6520616E1A
:100C40006420706C756720696E2047505320666978
:100C50007273740D0A000000417661696C61626C08
:100C60006520636F6D6D616E64733A0D0A0000005C
:100C700025730925730D0A00295DFC480AF077FCED
:100C800028B12819295D401C0AF071FC18B1F8A0A0
:100C900000F01CFC3EBD641C082CFFF4C2AE2846CC
:100CA00000F05BFCFAA000F011FCF04BFE4A0020C3
:100CB000694615181C5C95F80D51401C08284C55C8
:100CC000F7D300220A54AFF288100BF005F93EBDAD
:100CD0002DE9F04180460AF054FCF34FF34D060035
:100CE00012D00246AFF2441140460AF073FC90B1B4
:100CF0005FF0000455F82410F1B1324640460AF086
:100D000069FCF8B1641CF5E7787905EB800050F8D0
:100D1000041CE7A01BE0EBA000F0D8FB5FF0000490
:100D200055F8241029B1AFF268100BF0D5F8641C07
:100D3000F6E7AFF2DC2001E0AFF20C30BDE8F041A5
:100D400000F0C4BB601C787155F82410E2A0BDE827
:100D5000F0410BF0C1B82DE9F041002507462C46C3
:100D60002E460AF00EFC18B1AFF25C21384610E0B6
:100D7000DEA02BE016B1012E07D103E00AF043FC00
:100D8000054602E00AF03FFC0446761CAFF28021E3
:100D900000200AF0FDFB0028ECD10C2D05D3BDE8A6
:100DA000F0410C21E0A00BF097B8E94F022E07DAD2
:100DB00037F915202946BDE8F041E6A00BF08CB8C4
:100DC000A4F57A70B0F57A7F04D9E8A0BDE8F041C7
:100DD0000BF082B822462946EDA00BF07DF827F8EB
:100DE0001540BDE8F08170B505460AF0CAFBAE4C6F
:100DF00010F0FF0F0CD028460AF005FC02280ED890
:100E000084F898030021084600F069FCA5A0EBE7F0
:100E100094F89813BDE87040E4A00BF05DB870BD85
:100E20002DE9F04782460AF0ACFBE64D060029D0DA
:100E3000012E03D19AF800002A2823D0E2A15046BF
:100E40000AF077FB002871D0401C04460AF0DBFB57
:100E500081462046FFF77AF98046002606EB860792
:100E600005EB870455F827000AF08BFB024655F87E
:100E7000271050460AF0AEFBF8B1761C722EEDD367
:100E8000D2A04FE0D9A000F021FB002404EB8400A5
:100E900005EB800755F82010AFF23C300BF01CF842
:100EA00031463846FFF714FCAFF2544000F00EFB19
:100EB000641C722CEAD3BDE8F08706EB860605EBCE
:100EC0008607F8680AF086FC41460AF0BFFC26D87F
:100ED00038690AF07FFC41460AF0C2FC1FD8397914
:100EE000052907D0484606290ED2DFE801F005059E
:100EF00008080B0B4046F6E7A168087004E0A168FB
:100F0000088001E0A168086055F82610BDA00AF02D
:100F1000E3FF2046BDE8F0470021FFF7D9BB00E022
:100F200004E0BBA0BDE8F04700F0D0BA5FF00004D9
:100F300004EB8406514655F826000AF0FAFA78B117
:100F400055F8261005EB8607AFF2EC300AF0C4FF27
:100F500000213846FFF7BCFBAFF204500AF0BCFF9B
:100F6000641C722CE4D3A6E72DE9F04107F031FDB3
:100F70004FF47A71B0FBF1F1AF480378AF480288C3
:100F8000AFA00AF0A9FF00F093FD0646BC48BD499A
:100F90000068B0FBF1F1BCA00AF09EFF434F0024B3
:100FA00001259C3757F8241051B105FA04F030425E
:100FB00003D0AFF2F4300AF08FFF641CE4B2F1E723
:100FC000022000F063FDA0B1B74C38482178BC3056
:100FD00050F82110B5A00AF07FFF2078022808D130
:100FE000B548007C08B16F2100E06E21B3A00AF083
:100FF00073FFAFF29C5000F069FA07F0C3F90246A4
:10100000AF484FF467730188BDE8F041ADA00AF026
:1010100063BFB9A000F05ABA2DE9FF5FDFF808936B
:1010200099F8000038B9012189F80010BFA000F03C
:101030004DFA00F057FADFF82CB3DFF87CA25446E3
:10104000DAF8000009F086F900280CD0206809F0D1
:1010500084F9092808D03F2806D0D9F804104C4656
:10106000002902D0D1E12FE27EE1CCE1E8D90008ED
:101070004D75737420626520616E79206F726465AE
:1010800072206F662041455452313233340D0A00CC
:1010900043757272656E742061737369676E6D65F6
:1010A0006E743A2000000000C804002068CF0008D9
:1010B00043757272656E74206D697865723A202589
:1010C000730D0A00417661696C61626C65206D691F
:1010D000786572733A2000004D69786572207365F7
:1010E0007420746F2025730D0A000000557361672A
:1010F000653A0D0A6D6F746F7220696E64657820B1
:101100005B76616C75655D202D2073686F77205B61
:101110006F72207365745D206D6F746F72207661DD
:101120006C75650D0A0000004E6F207375636820B2
:101130006D6F746F722C207573652061206E756DF4
:10114000626572205B302C2025645D0D0A00000072
:101150008C0900204D6F746F722025642069732004
:101160007365742061742025640D0A00496E7661F0
:101170006C6964206D6F746F722076616C75652C7C
:1011800020313030302E2E323030300D0A00000049
:1011900053657474696E67206D6F746F7220256477
:1011A00020746F2025640D0A0000000043757272E0
:1011B000656E742070726F66696C653A2025640DE7
:1011C0000A00000000D100083D0000004552523ADC
:1011D00020556E6B6E6F776E207661726961626CFE
:1011E00065206E616D650D0A000000004375727226
:1011F000656E742073657474696E67733A200D0AA6
:101200000000000025732073657420746F200000B7
:101210004552523A2056616C756520617373696757
:101220006E6D656E74206F7574206F662072616ECE
:1012300067650D0A0000000094010020F400002002
:1012400053797374656D20557074696D653A202506
:1012500064207365636F6E64732C20566F6C7461C9
:1012600067653A202564202A20302E315620282513
:1012700064532062617474657279290D0A0000005C
:101280006004002040420F004350552025644D4823
:101290007A2C2064657465637465642073656E736D
:1012A0006F72733A20000000A801002041434348B8
:1012B000573A202573000000600900202E256300A6
:1012C000E60000204379636C652054696D653A201F
:1012D00025642C20493243204572726F72733A2084
:1012E00025642C20636F6E6669672073697A653A9E
:1012F0002025640D0A0000004166726F33322043DE
:101300004C492076657273696F6E20322E32204A06
:10131000756E2032362032303134202F2032323A6E
:1013200032333A3231000000000000200D0A456ED1
:10133000746572696E6720434C49204D6F64652C5B
:1013400020747970652027657869742720746F2070
:1013500072657475726E2C206F72202768656C70D0
:10136000270D0A0098040020624F0024254607F14B
:10137000C008D9F804600BE0D9F8042022B15E4817
:1013800039680AF027F910B904B93C463D460C37D4
:101390004745F1D39CB149465F46486822682B68AF
:1013A000125C1B5C9A420AD19AB92E2811D22022D3
:1013B0003A54401C0021C9F804000BF80010D9F879
:1013C00004004F4608B1AC4213D04CA000F07EF8A8
:1013D0000AE03A54401C4860DFE7206800F076F8E5
:1013E000092000F081F80C34AC42F6D900F07AF80C
:1013F00000265C4678688642BFF421AEA05D00F00E
:1014000073F8761CF6E7042812D00C2816D019B110
:101410000A2817D00D2815D07F283FD03029EBD2CD
:101420002028FFF40CAE7E283FF609AEA9B343E0B6
:1014300004B03148BDE8F05FFFF74CBA31A000F0CE
:1014400045F827E0AFF6F01000F040F8606800259E
:101450005E460BF800502E48CDE9000B0C231022FD
:101460002449029501A80AF011F8070007D038684E
:101470000AF087F83044B968401C884702E025A08C
:1014800000F024F830211C480AF03CF86560207810
:10149000002819D000F026F8D1E50BE00029FBD098
:1014A000491E0020C9F804100BF8010022A000F02A
:1014B0000DF8C4E52028EFD00BF80100491CC9F84D
:1014C000041000F011F8BAE5BDE8FF9F70B50446BE
:1014D0001A4D03E0641C286808F02CFF21780029CD
:1014E000F8D170BD16A0F1E701461448006808F075
:1014F00021BF000040D00008980400200D1B5B4B6A
:10150000000000001B5B324A1B5B313B314800008E
:10151000190300084552523A20556E6B6E6F776E74
:1015200020636F6D6D616E642C2074727920276862
:10153000656C70270000000008200800600900208A
:101540000D0A232000000000FE48FF49008880B2F9
:1015500001EB8020FD49486070472DE9F0410546C8
:101560000446FB4EFB4F09E0F9480AF000F820B1B1
:10157000611B801B384480F80D11641C2178002900
:10158000F2D1BDE8F081F148002140680278402A9C
:1015900014D14288B2F5677F10D10279BE2A0DD1ED
:1015A00090F89A23EF2A09D100F5677203E000BF93
:1015B00010F8013B59409042FAD309B1002070471E
:1015C0000120704710B5FFF7DEFF10B90A2007F0C1
:1015D000BFFADE484FF467724168DE4809F079FFD0
:1015E000DC4890F89813022902D9002180F898135A
:1015F000C9B201EB011101EB410100EB8101BDE832
:10160000104001F59A71CC22D34809F062BF2DE950
:10161000F05FD14AD14E002092F8201092F81F407E
:1016200040F6C41500FB00F3193B4B4303F6C4130B
:101630004343634393FBF5F326F81030401CC0B2DC
:101640000728EFD3C34B9146D03392F8212099F865
:10165000224059881F880020DFF804A34FF00A0BAE
:101660004FF47A7EC4F1640802EB820CB1EB0705FB
:1016700000EB8001C2EB41030121002B03DDC2F12D
:101680006401C9B201E000DA114603FB03F604FB72
:1016900006F601FB01F196FBF1F1414401FB03F178
:1016A00091FBFBF101EB4C0109B205FB01F191FB50
:1016B000FEF139442AF8101000F10100C0B20C28E4
:1016C000D6D399F8000002F0D2F9BDE8F05F04F03B
:1016D00085B810B5FFF776FFBDE8104097E72DE914
:1016E000F0479C4C8146402020704FF46775658020
:1016F000BE20032700262071EF2084F89A0384F887
:101700009B6369B194F89803CC2200EB001000EBC6
:10171000400004EB800000F59A708F4909F0D9FE73
:101720008C488D4903E000BF10F8012B56408842D9
:10173000FAD384F89B6309F05FFD844E7F1EA846B0
:10174000342009F0C7FD706809F084FD706800F569
:10175000806009F07FFD002507E07068615928442A
:1017600009F094FD2D1D454502D20428F5D001E075
:10177000042804D07F1EE3D209F044FD04E009F000
:1017800041FDFFF700FF10B90A2007F0E1F9FFF76C
:10179000A0FFB9F1000F06D0BDE8F04701221421E7
:1017A0000F2001F00FBDBDE8F0876A498A68024347
:1017B0008A6070472DE9FC5F6AA1D1E90001CDE99B
:1017C00000014FF46771634809F09CFECC21624828
:1017D00009F098FE5F4B40200025187003205871D7
:1017E00002209D60FFF7E1FF83F898534FF41670D5
:1017F000A3F8F000FA20A3F8F200D0332A20D8830F
:101800001D855D859D859D74DD741D75DD821D833F
:101810005D831C334FF4FA705D70588101261E7091
:10182000202018724FF4C87018836E2058772B2030
:1018300098772120D87783F8205083F8295083F8AF
:10184000425083F843502A3340F2DC529D761A808E
:1018500040F24C405880463B40F26C70A3F84A007E
:1018600083F84C5083F84D5083F84E6040F27E4030
:10187000188040F23A7058804FF47A70988040F2A5
:101880007E50D88040F2EA50188140F2B45058811E
:1018900032209881C100D981188283F8505083F892
:1018A00051504FF4E13159654FF41651996583F861
:1018B0005C5083F85D5040F6AC5123F8C41C03F82B
:1018C000C25C254C83F84F502827257067704FF075
:1018D0001E0A84F80BA017216175A77084F80CA06C
:1018E000A1755521E1702D216173E5752071A573F6
:1018F00025760B216171E57365764FF0140B84F842
:1019000006B0082323742D23A3760E23E37184F8F5
:1019100011B05021E1765A2121724FF00A0884F863
:1019200012804FF0640984F81C9067727823A372C8
:101930002D232375A677E177412184F8201084F8C0
:10194000235013E0E0F7FF1F00F8FF070800002016
:10195000E8D90008C804002064080020220B0020F9
:10196000300B00201E1E64646464646484F8245098
:1019700084F82550E28484F8210084F8225065859B
:10198000A5852585042084F82E0084F82F7084F81E
:101990003070152084F831004F4860634F48A063D1
:1019A0004F48E06384F840604EA0FFF7D6FD84F80E
:1019B0006C5084F86D5084F86E7084F86F6084F811
:1019C00072504FF44870A4F8700004F8B48FC82324
:1019D00063704FF49660608040F2D930A080444834
:1019E00000216C4640F2DC554FF47F764FF4FA6CE0
:1019F00000EBC10222F8746FA2F802C0958014F8BF
:101A00000180491C82F806800829F1DB012100F8D9
:101A1000BA1F384D41708170838080F806B080F81D
:101A200007A00172A0F80A904FF496718181C781D6
:101A3000522085F8990300204FEA000105EB0012BF
:101A4000401C11610C28F9DB5FF0000404EB04106A
:101A500000EB400005EB800000F59A70CC22244991
:101A600009F037FD641C032CF0DBBDE8FC9F10B5CA
:101A70000446FFF788FD641E204206D1FFF79AFE58
:101A80000021BDE81040084629E610BD1A49096842
:101A9000014201D0012070470020704716490A68B2
:101AA00002430A60704714490A6882430A6070471B
:101AB0001148006870470F498968014201D0012030
:101AC0007047002070470B498A6882438A607047DC
:101AD00008488068704700009A99193FF6287C3FB3
:101AE0003D0A773F41455452313233340000000003
:101AF00064080020C80400200800002070B5FE48DB
:101B00000AF070FDFD4D0446288809F06CFE214660
:101B100009F0DEFD0AF026FEF94C2080288809F045
:101B200062FE0146F74809F009FEF74909F006FE92
:101B3000A066F648B0F8700009F055FE0146F4487A
:101B400009F0FCFDF34909F0C3FDE0660820FFF74A
:101B50009DFF002803D0BDE8704002F01DBF70BD9E
:101B6000002801DD024600E042428A4201DA0020FC
:101B70007047002802DDA0EB01007047FDDA084441
:101B800070472DE9F04F91B0D0E900458146866855
:101B90000F4608680AF026FD049038680BF008F933
:101BA000059078680AF01EFD834678680BF000F90E
:101BB0008046B8680AF016FD8246B8680BF0F8F85F
:101BC00007465046049909F083FD09903846049968
:101BD00009F07EFD08905146059809F079FD0790BF
:101BE0003946059809F074FD06905946504609F0AB
:101BF0006FFD10908BF00040394609F069FD0746F3
:101C00004146079809F064FD089909F009FD039021
:101C10004146069809F05CFD099909F056FD824697
:101C20000598594680F0004009F052FD0590414664
:101C3000099809F04DFD069909F047FD02904146CB
:101C4000089809F045FD079909F0EAFC0690584606
:101C5000049909F03DFD83463046029909F038FDAC
:101C600000902846039909F033FD01902046109911
:101C700009F02EFD019909F0D3FC009909F0D0FC80
:101C8000C9F800003046069909F022FD009051463F
:101C9000284609F01DFD82463946204609F018FD08
:101CA000514609F0BDFC009909F0BAFCC9F80400DE
:101CB0005946304609F00CFD06462846059909F0BC
:101CC00007FD05464146204609F002FD294609F078
:101CD000A7FC314609F0A4FCC9F8080011B0BDE822
:101CE000F08F2DE9F0438046854887B09030016839
:101CF00081F000410391406880F0004004908648E4
:101D0000B0F9000009F066FD844909F0E1FC7C4C63
:101D100005908234B4F9000009F05CFD0090B4F93C
:101D2000020009F057FD0190B4F9040009F052FDDA
:101D3000029003A96846FFF724FF744E823C96F890
:101D40004000012804D06D48008809F04CFD17E0E0
:101D5000734840780028A06B0CD1C11700EB91614B
:101D6000A0EBA11009F036FD029909F059FC09F029
:101D70003FFDA063C11700EB9160801109F02AFDBF
:101D8000029909F0A2FC0290E16B894609F09AFCE5
:101D90000746404609F027FD0546624909F040FC28
:101DA0000146284609F0CAFC394609F091FC49462B
:101DB00009F036FCE06300980AF0D4FC2F36717805
:101DC000FFF7CEFE584D29680844286001980AF0B4
:101DD000C9FC7178FFF7C4FE696808446860E06B6D
:101DE0000AF0C0FC3178FFF7BBFEA9680844A86080
:101DF000A16801EB0800A060E068401CE06007B04B
:101E0000BDE8F0832DE9F05F3D4D0446903528682C
:101E10000AF0E8FB834628680AF0CAFF8246686831
:101E20000AF0E0FB814668680AF0C2FF0546D4F874
:101E300008802946404609F04BFC594609F048FC09
:101E4000676806465146384609F042FC294609F0C3
:101E50003FFC05464946206809F03AFC294609F04E
:101E6000DFFB314609F0DCFB04465146404609F0F1
:101E70002FFC05465946384609F02AFC294609F048
:101E800021FC21460AF084FA284909F021FC28495E
:101E900009F054FC1A49096B09F0C2FB254909F005
:101EA0004DFC0AF05FFC00B2002802DA00F5B470C5
:101EB00000B2BDE8F09F2DE9F041044680680D4670
:101EC000014609F005FC07466068014609F000FC80
:101ED00006462068014609F0FBFB314609F0A0FBED
:101EE000394609F09DFB0BF029F8064610F0FF4F2C
:101EF0002FD0314620681FE0F366DF3EAE010020A0
:101F0000100000200AE81C4100401C466408002024
:101F1000000061444C3D0F44DC01002035FA8EBCCA
:101F2000EC0A00203661823C480900200000E144B0
:101F3000DB0F49400000204109F000FC28603146D9
:101F4000606809F0FBFB68603146A06809F0F6FBA9
:101F5000A860BDE8F0812DE9F04F87B0002606F0BB
:101F60001EFDFF4C0546206C281A039009F03BFC2F
:101F7000FC49C96809F0ACFB0590FB482564DFF813
:101F8000E0A390F82E700AF17C0A0024EB460AF1D7
:101F900006054FF07E58F248763030F9140009F00B
:101FA00019FC059909F094FB4BF8240017B3384647
:101FB00009F019FC0146404609F0C0FB8146049037
:101FC0003AF9140009F006FC494609F081FB814604
:101FD0004146049809F079FBE44951F8241009F0CE
:101FE00077FB494609F01CFBE04941F8240009F061
:101FF000FFFB01E03AF8140025F8140035F914004D
:10200000641C00FB0066032CC5DB64204643D848F3
:1020100069460088404396FBF0F4D4481830FFF737
:10202000B0FD0820FFF732FD694620B1CF480C38DB
:10203000FFF7A7FD08E0CA489830FFF7A2FDC8499E
:1020400098310846FFF737FFA0B2DFF820934938F0
:10205000DFF820A309F118093C2826D20024AB465A
:10206000BAF8F00009F0BFFB45464146049009F07C
:10207000D7FA0146284609F061FB05464FEA0906F2
:102080003BF9140009F0A6FB074656F82410049803
:1020900009F01EFB394609F0C3FA294609F018FB7E
:1020A00046F82400641C032CEADB0820FFF7EEFC52
:1020B00048B34546AD4EDFF8A88200240C3E08F137
:1020C0008808BAF8F20009F08EFB8246294609F02A
:1020D000A7FA0146284609F031FB054638F91400F5
:1020E00009F078FB0746504656F8241009F0F0FA3C
:1020F000394609F095FA294609F0EAFA46F824002B
:10210000641C032CEADB964DB5F9000009F062FB74
:102110004C46D9F8081009F099FB01D2012100E0E2
:10212000002195484173D4E901010AF031F98C4E40
:1021300090363060A068014609F0CAFA0746606828
:10214000014609F0C5FA394609F06AFA0AF0F6FEC6
:102150000146206880F000400AF01AF9DFF81C827E
:1021600070604146306809F0B3FA0AF0FBFAA6F154
:102170005C0741463880706809F0AAFA0AF0F2FA62
:1021800078800820FFF782FC7D4E10B177480C382C
:1021900001E073489830FFF735FE30800398FFF771
:1021A000A0FD714E96F8720000283CD0A068014650
:1021B00009F08EFA80466068014609F089FA074600
:1021C0002068014609F084FA394609F029FA4146A7
:1021D00009F026FA0AF0B2FE0146A06809F0AEFA4C
:1021E0006849884201DC00201CE00AF041F8E96EF1
:1021F00009F06EFA0AF0B6FA4FF46171884200DD18
:10220000084609F0E7FA604909F098FA0AF0D0FDAB
:10221000044696F8720009F0E6FA214609F058FAE9
:102220000AF0A0FA688007B059E510B502F0ABFBE0
:102230000220FFF72BFC20B102F0ABFAFFF78BFE78
:1022400005E0474900207C31088048808880494863
:10225000434942797631881F012A06D08A888280D4
:102260000A8802804988418010BD3D4BB1F90420A5
:10227000B3F9044002EB4402032492FBF4F282809F
:102280009A80EDE7394900200C3108604860886089
:102290003349C860886070472DE9FE4F06F07FFB28
:1022A00002462F483430B0F90010002901DD0B46FA
:1022B00000E04B42B0F90200002801DD044600E0D6
:1022C0004442A34205DD002901DD084604E04842FE
:1022D00002E0002800DC4042214C05B246F2A81181
:1022E000606CA2EB000A8A4502D20020BDE8FE8F96
:1022F000264E6264DFF898903088DFF898B01A4F65
:102300004FF07E5840B3E06D2269C11700EB517168
:10231000A0EBE10097F83110491EB2FBF1F108443F
:10232000C117E06500EB5170C01009F053FA49463F
:1023300009F004FA59460AF02DFA414609F0C5F9A8
:10234000154909F0C5F909F053FAA0650020E064C9
:1023500020653088401E3080034F97F831001DE023
:1023600010000020D00C0020640800203C09002050
:10237000AE010020C8040020EC0A00204C3D0F44B0
:10238000DC0100208FC2753CEFB6B044DA010020BA
:1023900080E6C547B1DC423ED048874A2169401EED
:1023A000B1FBF0F009F01FFA494609F0C7F95946A8
:1023B0000AF0F0F94FF07E58414609F086F9B0492D
:1023C00009F086F90AF0CEF9A16D7F6B461A3946FD
:1023D000404609F077F98046304609F0FBF941465E
:1023E00009F076F90646606909F0F4F9394609F012
:1023F0006FF9314609F014F90AF0B4F906464FF0C6
:10240000FF3B6061FA2D01DD584613E0284609F0D4
:10241000E1F9DFF87082414609F057F90746206A72
:1024200009F0D8F9394609F053F9414609F086F91F
:1024300009F0DEF9A0F1010807462062B8F1C70FE4
:1024400003D2F01B6761E06126E0E069361A66613D
:10245000002F21DDC7F5967009F0BCF98A4909F013
:102460006DF98146A06149464FF07E5009F02AF986
:102470000090304609F0AEF9009909F029F90646B6
:10248000384609F0A7F9494609F022F9314609F022
:10249000C7F809F0ADF96061A06809F0A4F98146B8
:1024A0007A4909F015F90646E06809F093F90746FC
:1024B0007748806809F08EF9394609F03FF90746F8
:1024C000A16E09F005F9494609F002F90090E06CA7
:1024D0003146019009F0FCF881465946009809F010
:1024E0006DF9314609F0F4F8494609F099F8216D83
:1024F00009F096F883466748C06B814601464FF065
:102500007E5009F0DFF806466069029009F062F932
:10251000314609F0DDF806464946584609F0D8F834
:10252000314609F07DF82065B8F1C70F01D2029855
:1025300001E009F05DF92066DDE9001009F070F8AE
:10254000E064FFF79FFE504609F04DF9804666694A
:10255000606D301A09F03EF94F4909F0B9F841466B
:1025600009F0ECF809F044F94FF4967ACAF1000B3F
:1025700052465946666504F0B5FA0A21FFF7F0FAAB
:10258000DFF810910090D9F83800804601464FF0EE
:102590007E5009F097F80646009809F01BF931467D
:1025A00009F096F806464146E06C09F091F831468C
:1025B00009F036F8E0640AF0D5F806460521FFF781
:1025C000CFFAE062B5F5487F54DAD4E91810401A22
:1025D0004FF4FA72514204F085FA0A21FFF7C0FA6B
:1025E000014699F804004D464843C11700EB51607D
:1025F000C011D1465246D846594604F073FA861B9C
:10260000A87A4A467043C11700EBD1604011414699
:1026100004F068FA6062287D4FF448327043C117B5
:1026200000EB5170A16A01EBE0005142A06204F09E
:1026300059FAC117A06200EB9150616A01EBA0202A
:1026400060623846A16C08F0EBFF0646A87F09F0EF
:10265000CAF8314609F03CF86FF0050109F0AEF810
:1026600009F0C6F896226FF0950104F03BFA616A12
:10267000081A00E00020A7646062012036E600002E
:10268000D048874A000061440000C842BD37863503
:1026900048090020640800200024744970B5AA4D40
:1026A0000446286807F05FFE0028FAD0E1B22868E7
:1026B00007F040FE204670BD86B0FEF745FF0020C3
:1026C000FFF7D5F9FEF77EFFA04CA07B00B10120FB
:1026D00006F0AEF9FEF79BFF94F80C01002518B147
:1026E000012817D0092815D08DF8145084F80C5102
:1026F00005A805F00DF80220FFF7DDF908B101F09B
:1027000057FF04F0F7F90E20FFF7C8F901F070FE4B
:1027100018B105E08DF81400EAE7032006F018FA76
:102720008B494FF01009C1F80090A1F10408082767
:10273000C8F800700026A8F1040A00BFDAF80010FB
:1027400081F01001CAF80010DAF8001081F00801D9
:10275000CAF80010192006F04BF9012006F053F9D1
:10276000192006F045F9002006F04DF9761CF6B266
:102770000A2EE3D3C8F80070C8F80090FFF7BEF93E
:1027800000F02BF9D4F8240102F0BFFA6079012699
:102790000E2809D0082807D08DF806504FF4807015
:1027A000FFF789F938B902E08DF80660F6E70820EE
:1027B000FFF781F900B101208DF802004020FFF7FA
:1027C0007AF98DF803000120FFF775F98DF8010003
:1027D0000820FFF770F9DFF8708180F001008DF8B4
:1027E0000000DFF8709198F812008DF8040099F855
:1027F000BC004FF47A7AC0F380008DF80500B4F87D
:10280000DE00ADF80800B4F8E000ADF80A00ADF85D
:102810000CA04FF48040FFF74EF918B1B4F8DA007D
:10282000ADF80C00BDF80800B0F5FA7F01D9ADF89D
:102830000C50B4F81601ADF80E00B9F8B800ADF8B8
:10284000100094F80C01012826D0092827D08DF813
:102850000750684605F090FF9DF8120088F81300B5
:102860003D4B002040F2DE5223F81020401CC0B245
:102870001228F9D33A4A3948106088F811700820B4
:10288000FFF719F9F8B194F8150105281FD2DFE810
:1028900000F00A0A0E1216008DF80760D9E707202B
:1028A0008DF80700D5E72E4803F0E0FF0FE02C4835
:1028B00004F08CFA0BE02A4804F02CFB07E02848CF
:1028C00004F019FF03E094F8210102F0D0FF012089
:1028D000FFF7F1F830B14FF48060FFF7ECF808B182
:1028E00002F0DEF84020FFF7E6F848B194F82C112A
:1028F000D4F8280107F047FC94F82D0107F056FCA6
:102900004FF40060FFF7D7F808B104F085FD06F03A
:1029100046F8144908606079052803D112494FF43C
:10292000C87008801149C820A1F800A0104908808B
:102930001048467301F0A3F8FCE70448B0F9D4004E
:1029400000F051F9FEE7000060090020C8040020F3
:10295000140C014064080020FE0A00203D360008E7
:10296000100100200C010020AA010020AC01002071
:10297000DA010020EC0A00200146F74800EBC10014
:10298000B0F97800122804DA082902DAF34931F99B
:1029900010007047F04A02EBC00090F97A0008423C
:1029A00002D04FF0FF307047012070472DE9F04111
:1029B000EB4DEC4E00244FF480473846FFF77BF890
:1029C00010B1B5F8DA0001E0B5F8D40026F814002B
:1029D000641C0C2CF1DBBDE8F0812DE9F047E04CE4
:1029E000E14E607906EBC000407800B10120DF4D78
:1029F000A8742020FFF75FF84FF0010A08B185F8AE
:102A000012A06079DFF85C93D94D09F118091628F6
:102A100008D016F8301006EBC0002970426842B3A7
:102A2000002024E00020CC4604EB00110A6912F0DB
:102A3000FF4F1ED0D1E905670CEB0013C969401C9C
:102A4000C3E90271C3E900262978491C29700C28C2
:102A5000EADB0EE002EB001609EB0013D6E9007C7E
:102A6000D6E90286C3E90286C3E9007C401C88429D
:102A7000F0DB4FF48040FFF71EF8D8B12F78012F1C
:102A800018D9002614E000BF09EB06154FF0FF38F7
:102A90004146A86808F092FEA8604146686808F0C0
:102AA0008DFE68604146E86808F088FE761CE860A4
:102AB000BE42E9DB6179AF48082906D00E2904D06F
:102AC00000210174BDE8F04770E780F810A0F9E735
:102AD000F0B5401C0021A24A0B4600BF02EB0114D6
:102AE000491C23610C29F9DB9F4B03EBC0014C68A7
:102AF000002C11D0002113F830000BE004EB01137F
:102B000002EB011593E8C010DB68491CC5E906C358
:102B1000C5E904678842F1DCF0BD944810B5807CBB
:102B200000284DD0924C8E48241D4279E08821899E
:102B3000082A27D006DC012A15D0042A29D0052A24
:102B400006D10AE00E2A29D0142A22D0152A25D02F
:102B50002020FEF7B0FF002832D02188002005F0A9
:102B6000A4FE618813E082497B48091D90F8BB00F0
:102B7000498908B100201FE07E4840780028F9D13B
:102B80000021F7E70146002005F08FFE2189012092
:102B900012E0002005F089FE6189F8E70146002077
:102BA00005F083FE2189012005F07FFE6189022066
:102BB00005F07BFEA1890320BDE8104005F075BE3D
:102BC00010BD70B5674E0024183E694D07E000BF88
:102BD00036F81410204605F061FE641CE4B2287833
:102BE0008442F5D370BD624A5E4B00211278183BD7
:102BF00004E000BF23F81100491CC9B29142F9D387
:102C0000DFE72DE9F047DFF86C91594C002599F882
:102C10000100594F524E241D48B3B6F8D220B6F8E1
:102C2000D010B7F9060003F05DFF4E49E081183976
:102C3000B046088096F81D01474E4FF0640A48B32D
:102C40000220FFF799FEB6F98620B6F9841003F04A
:102C500049FFB8F81631181A0FFA80FC4448B0F949
:102C60000220624506DA98F81D11114407E0B6F813
:102C7000D400DAE704DD98F81D11A2EB01014180D0
:102C800096F98A10B0F9020001FB00F191FBFAF00D
:102C90001844A08099F80A0050B1388800EB05016B
:102CA000E18000EB25402081B888608178880AE0C7
:102CB0003248018801EB0502E28001EB25412181C8
:102CC000818861814088A0814FF003024FEA0A03A6
:102CD00006EBC20034F9121090F97A0000FB01F003
:102CE00090FBF3F024F812001046FFF745FE34F88D
:102CF0001210084424F81200521C072AE8DBBDE831
:102D0000F0872DE9FC5F1A4C1B4E1C4D20780328E0
:102D100014D9B6F904004142002801DD024600E062
:102D20000A4602F1640200DC08466FF06301A1EB81
:102D30000001B5F9040003F0D5FEA8800C48DFF8C7
:102D40002490DFF814A00078A9F1180901284DD9C2
:102D50000024804648E0000064080020FE0A0020AD
:102D6000C80400208C09002064DE000860090020EF
:102D7000C2000020EC0A0020700100205A0100204F
:102D80009AF9BA00B5F904104042484308F022FD10
:102D9000FC4901EB0417F96808F09AFC0190B5F9B9
:102DA000000008F017FD796808F092FC0090B5F972
:102DB000020008F00FFDB96808F08AFC8346B6F9F6
:102DC000060008F007FD396808F082FC594608F053
:102DD00027FC009908F024FC019908F021FC08F078
:102DE00007FD29F81400641C4445C9D3DFF8988313
:102DF000DFF898B3E64C98F80500082868D006DCA0
:102E0000012837D0042809D0052840D140E00E28F9
:102E10005BD014287ED01528F7D1D7E00420FFF727
:102E2000ABFD064602210420FFF7B4FDB5F90410FE
:102E300000FB01F301210420FFF7ACFDB5F90210FE
:102E400000FB0130304420810520FFF795FD03464B
:102E500002210520FFF79EFDB5F9041000FB01F6E5
:102E600001210520FFF796FDB5F9021000FB016076
:102E700018440BE00520FFF77FFD034601210520E4
:102E8000FFF788FDB5F9041000FB01306081C1E057
:102E90009AF97A00BBF902103223484390FBF3F60B
:102EA0000AF17A025D460020FFF766FD304420807B
:102EB00092F90800B5F90010484390FBF3F20120A5
:102EC000FFF75AFD10446080A4E0FFF79AFEA1E0EE
:102ED000B04F787888B3B8F8D220B8F8D010B6F9E7
:102EE000060003F0FFFDE081A9F80000B87A4FF07A
:102EF000010100284FF0030023D0FFF74BFDB6F986
:102F0000021000FB01F302210320FFF743FDB6F995
:102F1000001000E042E000FB0130E08001210420CD
:102F2000FFF738FDB6F9021000FB01F3022104207F
:102F3000FFF730FDB6F9001020E0FFE7B8F8D40045
:102F4000D1E7FFF727FDB5F9021000FB01F30221DD
:102F50000320FFF71FFDB5F9001000FB0130E080F2
:102F600001210420FFF716FDB5F9021000FB01F363
:102F700002210420FFF70EFDB5F9001000FB01301F
:102F800020810320FFF7F8FCE1880844E08004205A
:102F9000FFF7F2FC2189084420813BE00423012152
:102FA0001846FFF7F7FCC3F1050135F81110484347
:102FB00024F813001846FFF7DFFC34F81310084418
:102FC00024F813005B1C062BE9D323E00323022122
:102FD0001846FFF7DFFCB5F9041000FB01F70121EB
:102FE0001846FFF7D7FCC3F1060121F00101695E25
:102FF00001FB007024F813001846FFF7BDFC34F8FD
:103000001310084424F813005B1C072BDFD3F1884E
:10301000A9F800102020FEF74EFDC8B30020FFF7EE
:10302000ABFC20800120FFF7A7FC5B496080097A98
:1030300071B39AF8BC205146920715D591F97A20C0
:103040009AF982105542BBF90220BBF90030554372
:103050003222594395FBF2F591FBF2F16A1A23886B
:1030600029449A1A228011E091F97A50BBF9023072
:1030700026885D43322395FBF3F5354425809AF984
:103080008210BBF90020514391FBF3F108446080AA
:103090000025564606EBC5007430B0F90220B0F9A1
:1030A000001034F9150003F01DFD24F815006D1C07
:1030B000082DEFD396F8BC00DFF8E0A040070FD54D
:1030C00037484FEA0A06C57C2D1F002406EB440052
:1030D00001896019C0B205F0E8FB641C042CF5D32B
:1030E0002B4F01203F1F4D46B9F900603A7805E0AB
:1030F00035F91010B14200DD0E46401C9042F7D366
:10310000002458E0B8F8D200B04205DA35F81410BF
:10311000301A081A25F814004FF48040FEF7CBFC53
:10312000A0B1BAF90610B8F816214046914204DD64
:10313000B0F8D220B8F8D81003E0B0F8D620B8F82C
:10314000D41035F9140003F0CDFC15E0B8F8D22006
:10315000B8F8D01035F9140003F0C4FC25F81400B9
:10316000BAF90610B8F81801814207DA1020FEF704
:10317000A2FCB8B1B8F8D40025F81400054840788E
:1031800098B117E0A4090020C804002044000020E2
:10319000C6000020EC0A0020480B0020FE0A002098
:1031A00060090020B8F8D000E6E7054830F81400C0
:1031B00025F81400641C38788442A3D3BDE8FC9F32
:1031C0008C0900202DE9F047174689460646002560
:1031D000DFF828841AE0002411E000BFD8F80010BE
:1031E00081F00801C8F80010012005F00CFC4846E9
:1031F00005F0FEFB002005F006FC641CE4B2B442BE
:10320000ECD33C2005F0F4FB6D1CEDB2BD42E2D3E3
:10321000BDE8F0872DE9F84FF94BFA4CB3F90600F9
:10322000E18C884201DA642510E0F64AB0F5FA6FC5
:1032300092F8252008DA451A5543C1F5FA6195FB45
:10324000F1F1C1F1640501E0C2F16405DFF8B8E312
:10325000A14694F86CB094F86DA0BEF81641002217
:10326000E74940F2E63C31F91260311B01F2F317F5
:10327000674503D8002903DCA11B01E04FF4FA7174
:10328000022A33D0BBF1000F05D08B4502DAA1EB47
:103290000B0100E00021642391FBF3F3D84F6FF0A2
:1032A0001808243707EB430C37F91370BCF902C038
:1032B00003FB08F3ACEB070C01EB83030CFB03FCF3
:1032C00064239CFBF3F31F44D04B23F8127099F84E
:1032D00023304B434FF4FA7193FBF1F1C1F16401D8
:1032E00089B26943642391FBF3F11CE0BAF1000F4A
:1032F00005D08A4502DAA1EB0A0100E000219EF91F
:10330000EC30DFF808C35B424B43ACF8043099F86B
:103310002430002900DC49424B434FF4FA7193FBFF
:10332000F1F1C1F1640109EB0207642397F801C0D0
:10333000DFF8D8820CFB01FC9CFBF3FCA8F17408BD
:1033400008F802C097F80BC008F103080CFB01FC59
:103350009CFBF3FC08F802C07F7D4F4397FBF3F121
:1033600008F10303A642995405DAA84931F812304E
:103370005B4221F81230521C032AFFF671AF7646E9
:10338000BEF818114FF4FA6203F0ACFBB6F818114E
:103390004FF47A72401A5043C1F5FA61B0FBF1F272
:1033A000642192FBF1F0964B6FF01805323303EB7A
:1033B000400433F910306843B4F9024002EB800056
:1033C000E41A444394FBF1F0DFF840828C4D18443A
:1033D000123DA8F80600687AA8F19804E8B38C4872
:1033E000B4F91A10B0F90000401A08F0F3F989494D
:1033F00008F06EF9884908F0A1F9074609F0F2F8DB
:103400000090384609F0D4FC83464746B8F90000DE
:1034100008F0E0F98246594608F05AF98046B7F9B3
:10342000020008F0D7F98146009908F051F94146A9
:1034300008F0F6F808F0DCF980464846594608F0EE
:1034400047F981465046009908F042F9494608F08C
:1034500039F908F0CDF9388000E001E0A7F80280E2
:103460000220FEF728FB0027E8B3E189206D08441D
:103470002065E079401CC0B20621B0FBF1F2E0719A
:1034800001FB120080BBA06CC11700EB5171A0EBD7
:10349000E100A064002004F0BFF9A16C0844C1174A
:1034A000A06400EB5170C0F3CF0001F056F8A08388
:1034B00096F80C01C0B1E06CC11700EB5171A0EBA4
:1034C000E100E064022004F0A7F9E16C0844C117B0
:1034D000E06400EB5170C0F3CF0001F056F8E066F5
:1034E000216D484301E021E014E04FF47A7190FB34
:1034F000F1F0DFF818C1C117ACF1180CDCE90423B6
:1035000080185941CCE90401444A002307F086FFA2
:1035100027652067A08B618C884203D896F80B1131
:10352000814201D9A77101E00420A071A07903F0C4
:1035300040FA3B48314E008818B10220FEF7A6FA47
:1035400010B93848008820B1306880F00800306039
:103550000CE0A978082011B12849091D0860697894
:1035600011B126490831086003F03BFF8020FEF7C7
:10357000A2FA48B1616D206B411A05D44CF250316A
:103580000844606505F062FD616C206B411A03D44C
:10359000697B39B10120A87002F091F822480078C7
:1035A00048B10FE0AF70316881F0080131601F4908
:1035B00008446064F0E74FF40060FEF77CFA08B15D
:1035C00003F047FF2020FEF761FA68B1A16D206B80
:1035D000411A09D4217B052906D315490844A06561
:1035E000306880F01000306012488168002923D0D4
:1035F00001B00648BDE8F04F7A3808470C0C01408E
:10360000FE0A002064080020C80400207001002089
:10361000DC010020DB0F494000003443407E050000
:10362000AA010020AC0100200000002020A107001A
:10363000F0490200D00C0020BDE8F88FF74908449B
:1036400090F80D0105F03BB92DE9F0470820FEF791
:1036500032FAF34EF34D4FF0000440B1B16BE0B2DB
:10366000884725F81400641C082CF7DBD0E5ED4FE3
:1036700040F2DD584FF000098E3FB16BE0B2884751
:10368000A0F2EE21414502D3E448B0F81601F16DF5
:1036900007EBC402CB1701EB937323F00303C91AA2
:1036A00022F8110025F814905FF0000035F814306E
:1036B00032F81010401C194425F814100428F5DBCA
:1036C00035F91400C11700EB9170801025F8140033
:1036D000641C082CD1DBF06D401CF06598E5D248E5
:1036E0000288D0481238417852B9827842B1002914
:1036F00005D101214170CD48C949008848837047F0
:103700000029FCD10122FF2102205BE52DE9FC5FAD
:103710000020C34983469831054607460190B1F918
:1037200002004342002801DD044600E01C468A46B0
:10373000B1F900104A42002901DD0E4600E01646AC
:10374000B44203DD002806DC184604E0002901DD50
:10375000084600E01046DFF8D89200240090B14EF1
:10376000123EF07808B93079F0B3022C40DAAC4858
:10377000403030F914103AF9140001EB4000A74929
:10378000B1F8F620514203F0ADF9AA49DFF8A8B22A
:1037900031F91410411A0BEB4400B0F92A0001EB87
:1037A00000089BF80810642001FB08F191FBF0F081
:1037B0009BF81C1001EB8102494201EB810103F0EF
:1037C00091F90190964842F21072883050F8241016
:1037D00001EB0800514203F085F99149883141F825
:1037E00024009BF8121000E008E048434FEA203B19
:1037F000F07818B1307908B9022C4ED13AF914504A
:10380000884F05EB850001018B489A3F00EB0408C7
:103810004FF47A5298F8010091FBF0F039F9141046
:10382000401A57F824100844514203F05BF947F856
:10383000240039F9140000F52070B0F5A06F07D806
:103840003AF914003230642802D857F8240002E014
:10385000002047F824007D2190FBF1F098F80B1030
:10386000484387113079B0B1022C14DA0098009BDC
:10387000C0F5FA71019801FB00F2009801FB0BF111
:1038800005FB00204FF4FA7207FB031190FBF2F0E6
:1038900091FBF2F608E0F07820B1022C02DA5E46E5
:1038A000019801E028463E465D4A39F91410243259
:1038B0005023125DDFF86C814A4392FBF3F2584BC0
:1038C000821A7C33A8F14E0833F9140023F814103F
:1038D000081A08F10C0158F8243051F824C041F8B6
:1038E00024309C44844448F824004D482A30005D2C
:1038F00000FB0CF0C11700EBD1609119A1EB601037
:103900004749823121F81400641C032CFFF627AFCD
:10391000BDE8FC9F2DE9F05FDFF804B1414E0024C3
:103920000BF1980BDFF810A19A3EDFF8F49001E05C
:10393000022C71D03A483BF9141040304FF4FA721F
:1039400030F914000844514203F0CCF83949554687
:1039500031F91410401A0AEB4401B1F92A10084455
:1039600007F038FF354907F0E9FE07F041FF2D4A1F
:10397000123AD178E9B3297A41430911AA462C4871
:103980000AEB040730F91400FA7A0D1A787856F821
:10399000241068434FEAE018B9F80E006843C012DB
:1039A00000FB02104FF4001246F82400514203F0CD
:1039B00099F846F8240043131A481E3850F824108A
:1039C00040F82450B9F80E00691A02094FF6FF704A
:1039D000B0FBF2F0484313498011363901F10C0273
:1039E00051F8245052F824C042F82450AC44844486
:1039F00000E02DE041F82400787D08EB030100FB96
:103A00000CF001EB20200649823121F81400641CDF
:103A1000032C8DDBBDE8F09F12E00000C8040020FD
:103A2000D8000020FE0A0020AC010020DC010020AC
:103A30008000002044000020640800200000204195
:103A40009AF82400BBF904101B304843411196E753
:103A500095F823103BF914301B31594312790911A1
:103A6000002A8BD0AA7C424301EB222186E7FA4947
:103A7000012801D0F94800E0F948C86370472DE9F2
:103A8000F84F0026B146B0460820FEF714F8DFF8DC
:103A9000D4B3A0B19BF81501052810D2DFE800F0DF
:103AA000030306090C0002F004FF07E003F0AFF97E
:103AB00004E003F03FFA01E003F012FE8046DFF875
:103AC00098A3E94F4FF00105DAF83010DAF86000FA
:103AD0004FF00004081A02D5B8F1000F7ED044F66A
:103AE00020621144CAF86010FFF7AEFD4FF4804029
:103AF000FDF7E1FF28B1DC485C30007808B900F040
:103B000068FC9BF81F01C0B1D7494FF47A7212319B
:103B100001EB40000021B0F90600A0F57A7002F038
:103B2000E1FF07F057FED14907F008FED04907F042
:103B3000CFFD07F076FEAAF820004FF40070FDF7E5
:103B4000BAFFD0B3DFF82C83BAF9102098F8B4C0CC
:103B50000CEB8C0191421EDA7878E0B1C24900206A
:103B6000BBF9163111F1120121F81030401C032865
:103B7000FADBB8F8B630CB8098F8B500604400EBBB
:103B80008000904202DA00F024FC3C70BAF8121077
:103B9000491CAAF8121098F8B40000EB8001BAF999
:103BA0001000814204DA787810B900F012FC3C7001
:103BB000BAF81010491CAAF81010DFF8AC82BBF854
:103BC00018C1BBF81A31002008F11208B60838F9FC
:103BD0001020624501DD46F0800600E055E29A4281
:103BE00001DA46F04006401C0428EFDB9AF8091081
:103BF00050468E4205D1017AFA2903D2491C01723E
:103C000000E004728AF809604FF480463046FDF700
:103C100052FF58B1BBF81611BBF8DC20B8F906000A
:103C20008B1A834202DA1144814209DC3046FDF7E7
:103C300042FFF8B9B8F90610BBF81801814219DA49
:103C40008948883804604460846083488830046010
:103C500044608848B0F8420060B183485C30007826
:103C600020B1387810B1FFF73AFD03E0787808B159
:103C700000F0AFFB9AF80800142819D17878C0B189
:103C80007C4EB6F8420028B99AF809005F2801D1A5
:103C900000F09FFB9BF81C01002809D0B6F84200F9
:103CA000002805D19AF809007D2801D100F091FB88
:103CB0008EE09AF80900572809D00420FDF7FBFE92
:103CC000E8B19AF8091050465A2921D017E06A49FC
:103CD0004FF47A7008804FF48070FDF7ECFE08B165
:103CE00002F09FF80420FDF7D1FE10B163490A20CD
:103CF00008800820FDF7CAFE08B9614804809AF8D8
:103D000009005D2815D05B2815D05E2815D021E06C
:103D1000C17819B1C4708AF804501BE0817891F021
:103D20000101817001D0022100E003218AF8001016
:103D300010E0012602E0022600E00326701E8BF848
:103D4000980300210846FDF7CAFC324628210220CC
:103D5000FFF738FA474EB6F8420018B99AF809103A
:103D60006F290ED09BF81C1121B118B99AF80900DF
:103D70007E2806D09AF80900972805D0A72808D0F1
:103D800008E0FFF7ACFC05E03E494FF4C87008803E
:103D900000E0BD739AF80900BB2806D0B72807D009
:103DA000BE2809D0BD280AD012E0B08D801C01E0E9
:103DB000B08D801EB08505E0708D801C01E0708D97
:103DC000801E708501210846FDF789FC8AF80840AD
:103DD0000420FDF770FE28B39AF8022050463221E5
:103DE0006AB17A785AB1B8F90630BBF81821934213
:103DF00005DD1D4A5C3212780AB9818284701A4A44
:103E00005C32527C3AB14279C3781A4300D1818244
:103E10008AF8055006E0C17821B1797811B9C470EB
:103E20008AF804500020C64640F2A4660EEB40011A
:103E3000B1F9082040F214518A4201DA012300E06E
:103E4000002300EB40018B40A2F2155CBCF5C77F5C
:103E50001AD84FF0010C19E0D80000200D370008E7
:103E600015390008C8040020EC0A002000007A443C
:103E700000C07F4464080020AC010020DA0100206B
:103E8000DC010020AA0100204FF0000C01F1010824
:103E90000CFA08FC43EA0C03B24201DD012200E007
:103EA0000022891C8A40134343EA0903401C1FFA7D
:103EB00083F90428BADBFE4E0020FE4901EB4001E5
:103EC000B1F8421011EA090100D001213154401C1F
:103ED0001528F2DB707840B9F64890F8B40000EB92
:103EE0008001BAF9100081420ADA0220FDF7CEFD06
:103EF00030B1F87828B9F04804604460FD7000E003
:103F0000FC70B07838B1FC70387928B9EA480460A0
:103F100044603D7100E03C713078B04600B93D70BE
:103F2000F978102009B9397909B1E44901E0E34988
:103F3000091F08600420FDF7A9FDF8B198F80300F7
:103F4000464680B1B87978B9DD48BD710168DD4871
:103F50000160D9481030C188DB48AAF81610046007
:103F6000DA48046000E0BC714FF40050FDF7A3FD97
:103F700020B1307918B1F87B00B9FD7300E0FC7313
:103F80000220FDF783FD18B90820FDF77FFDD0B1B1
:103F900098F80510404639B1797931B9CC497D712D
:103FA0000A88CC490A8000E07C71817919B1797A5C
:103FB00011B97D7200E07C7298F8070018B1C4480E
:103FC0000188AAF81A102020FDF760FDE8B3F87AFE
:103FD000E0B39AF80C005646052844D398F80A1026
:103FE00061B1F87988BBB449FD713C722431B47277
:103FF000081F02F050FB0220707038E0FC7198F846
:104000000B0040B3AC4A1032B2F90000002800DCCB
:104010004042A849B1F8C81088421CDAB2F902003F
:10402000002800DC4042884215DA387A68B9A24894
:104030003D721830B47200F1100102680A604068E5
:1040400041F8040F9C48283001E010E00BE002F03A
:1040500022FB75700BE03C72B07A40B98AF80A50C6
:1040600002F0BFFA03E0FC713C728AF8014098F854
:104070000C0008B1BD7200E0BC729BF80500082876
:1040800001D00E283DD17C723BE0DAF8680056463C
:10409000052836D2DFE800F0030B151F2A000820A0
:1040A000B566FDF7F3FC10B100F083FC48BBB06EC1
:1040B000401CB0660420FDF7E9FC10B100F0B6FB2F
:1040C000F8B9B06E401CB0660420FDF7DFFC10B1FB
:1040D000FEF7E2F8A8B9B06E401CB0664FF48070ED
:1040E000FDF7E9FC10B102F039FA0AE01020B466DD
:1040F000FDF7CCFC08B100F0DEFC4FF40050FDF7FA
:10410000DAFC04F04CFCCAF83000BBF80C10564640
:1041100011B1736EC31A76D40844D8467066FEF7A0
:1041200084F804F03CFC3063B18E411AF181706375
:10413000FFF770F80820FDF7A9FC48B35E4910317D
:10414000B1F9042002F145008A2822D8787900B319
:104150005F4803885F480088181A00B210F1B40F56
:1041600002DC00F5B47000B2B42802DBA0F5B47034
:1041700000B298F9EC305B42434318B27B7B3BB111
:104180004C4B5B7A43431E2093FBF0F0101A88805F
:1041900003E04F4801884F4801800420FDF776FC7A
:1041A00070B1B87960B1387C88B143484749103064
:1041B00098F91E31B0F90220096801FB0321418002
:1041C0003C4D95F8720090B3F87888BB5BE03948B5
:1041D000DFF8E49090F86F1009F11009F1B1B9F926
:1041E0000610B6F91630CA1A002A00DC5A1A90F8DE
:1041F0006E00824208DD344A99421460F57200DD97
:104200004042084407E0E2E0F07A40B32C480168FD
:104210002C4801602BE0A9F80600D1E7B9F9062087
:10422000B6F91630D11A002903DD0A4602E033E060
:104230002BE09A1A90F86E00824211DD308B4FF419
:10424000FA64084400B290FBF4F21E4904FB120029
:10425000D1F800C09444C1F800C03083F57207E083
:10426000F07A28B116480168164801603483F47268
:104270001648B8F8D010B8F8D22000686431184455
:1042800002F030FCC7E7387930B10B48124A1030E1
:10429000C18812881144C1802020FDF7F7FBE0B3EC
:1042A000F87908B9387AC0B3387BB0B3084C15E058
:1042B000480B00206408002060010020140C01401D
:1042C000700000207400002038000020340000201E
:1042D000DC010020DE01002012000020B4F9000003
:1042E00007F078FA3E4F394607F0F2F908F060FD22
:1042F0000090B4F9000007F06DFA394607F0E8F9CC
:1043000008F070F90746374C95F8C100DFF8D8A0DF
:10431000A4F1340810B3A14600E04EE0B4F9020065
:10432000241DB4F90210401A01F024FB15F8C12F26
:10433000514202F0D7FB618808446080B9F900005F
:10434000B4F90010401A01F015FB2A78514202F02E
:10435000C9FB2188084400B2208001E0B4F90000C4
:1043600007F038FA8346009907F0B2F90546B4F928
:10437000020007F02FFA8146394607F0A9F92946CD
:1043800007F0A0F95546514607F0D8F907F030FA82
:10439000A8F8000044465846394607F099F9074600
:1043A0004846009907F094F9394607F039F929464B
:1043B00007F0C4F907F01CFA6080F06B8047FEF745
:1043C000A0FCFEF7AAFBBDE8F84FFEF7FABBBDE87C
:1043D000F88F06484178002901D0002141707047CC
:1043E00035FA8E3C4C01002000002041EC0A0020F0
:1043F0002DE9F843F84CF94BF9490026B4F8EE20C2
:104400009846A1F1100004F022FF08B101260CE04B
:10441000B4F8EE10F24805F02FF930B9B4F8EE1008
:10442000EF4804F07EF800287ED0EE4D5FF00007E4
:1044300094F8ED0006283CD2DFE800F007071928C1
:1044400033030220FDF72FFB33E08DF800704FF4AB
:104450004870E349ADF802001039684603F087FA66
:1044600008B10120287094F8ED00012821D06EB128
:10447000DB49B4F8EE204346A1F1100004F0E7FE5A
:104480000220287094F8ED0002281DD0D44810387E
:1044900004F0E6FF28B10320287094F8ED0003280B
:1044A00012D0CF48103805F024FF10B10420287036
:1044B0000AE0287840B994F8ED0010B184F8ED7066
:1044C000B6E70220FDF7EFFAC548103003F0F6FA20
:1044D00038B9C348103005F0D2F910B90420FDF7FF
:1044E000E2FA0220FDF7D2FA28B1BD4994F8E300C0
:1044F000103909688847BA4914F8E20F09688847F3
:10450000A07803F0F5FB10B90820FDF7CCFAB64807
:104510006421B0F9282092FBF1F001FB102406B2CF
:104520000820FDF7B3FA00E015E0B04D88B1204651
:1045300007F050F9AE4907F0CBF80446304607F0D3
:1045400049F9214607F06CF8AA4907F0C1F828603C
:1045500000E02F600120BDE8F88370B505469E4855
:1045600090F8090107F03FF90446284607F03BF9A7
:10457000A14907F0ADF8A14907F0E0F8214607F09E
:10458000A7F807F04EF980B270BD40F6E441484309
:1045900040F6FF71B0FBF1F08F49B1F80621B1F898
:1045A0000411801A4FF47A72504390FBF1F0704777
:1045B00070B500252C46002003F02EF905440A2092
:1045C00004F016FA641C202CF5D3C5F34F10FFF746
:1045D000C4FF814A012192F80A3100BF03FB01F4B4
:1045E000844202D8491C0829F8D38548017092F802
:1045F0000B0148438349088070BD2DE9F05FDFF867
:10460000E491814E784FB9F80220734C0025C2B373
:104610007E4900204FF4C878424501D141F820502E
:1046200051F8203036F910C0634441F8203026F8A4
:10463000105004EB4003401CA3F8F8500328EBDBB8
:10464000012A19D10868C83090FBF8F024F8F80F57
:104650004868C83090FBF8F060808868C83090FBEC
:10466000F8F1B9F80600081AA0807D850121F83C10
:10467000BD850846FDF733F8B9F80210491EA9F8C0
:1046800002100420FDF717FA002873D0604BDFF802
:1046900054815E491A8808F120080C31A8F1180AE3
:1046A000322A05D0F2B300209B46322A14D015E0FE
:1046B00034F8F80FA8F800006088A8F80200A08875
:1046C000A8F80400B7F82AC0AAF800C0B7F82CC0B0
:1046D000F83CAAF802C0E6E741F8205051F8203033
:1046E00036F910C0634441F8203026F8105004EB2E
:1046F0004003401CA3F8F8500328D6DB012A1AD146
:104700004448454B057001201870444B0220187036
:10471000B8F8000024F8F80FB8F802006080B8F884
:10472000040000E00AE0A080BAF800307B85BAF807
:104730000200F83CB885521EABF8002038480278D9
:10474000C2B105700A68322092FBF0F224F8F82F0B
:104750004A6892FBF0F26280896891FBF0F1B9F847
:104760000600081AA0807D850121F83CBD85084619
:10477000FCF7B5FF308834F8F81F401A3080708895
:104780006188401A7080B088A188401AB080BDE866
:10479000F09F134810B5103841681B488847BDE8A2
:1047A00010402AE730B50F4C0F4AE06892F83120EC
:1047B0000146401C824200D100201A4A1368134A65
:1047C000183242F82130184952F820200D682B4445
:1047D0009A1A0A60E06030BDC80400207009002009
:1047E000D00C0020A8010020640800204000002018
:1047F0008988883C000020413333534000F07F45D6
:1048000094010020FA0000208C000020A00B002062
:10481000EC000020DD000020DB000020D80000209C
:10482000DC000020B40000202000002070B5BA4851
:10483000BA4C00682169411A01D5002070BD206181
:10484000B74D606978B128698047686880472888D3
:104850002169084420616A69B249B3489047002041
:104860006061022070BDA8688047E8688047FFF754
:1048700099FF012060616888216908442061012056
:1048800070BD2DE9F05FA54DA88800286DD0DFF838
:1048900090820024A8F15C08A3464FF47A79A8F12D
:1048A0000C06A888484507D104EB840208EB820176
:1048B00046F824B0C1F810B09C4F56F8241037F9D0
:1048C0001400014446F8241006F084FF014604EB6E
:1048D000840208EB8200824600F0F0F827F814B05A
:1048E000934F27F814B0A888012838D1DAF81000BF
:1048F000012808DD401E06F06DFF0146DAF80C00C5
:1049000006F01CFF00E0002008F018FB82468948F2
:1049100090F8F400B0B106F066FF514606F096FF3D
:1049200010D27F49A5F804905C39C8F810B0C1F8DE
:1049300024B0C1F838B0C6F808B0C6F804B0C6F85C
:1049400000B00CE056F82400012200F5FA7090FB4C
:10495000F9F027F814000F210A20FEF733FC641C3D
:10496000032C9EDBA888401EA8807049704A002056
:1049700031F8103032F810401B1B21F81030401C69
:104980000328F5DB03E7664810B51038416867482F
:104990008847BDE8104074E710B5674810240460EC
:1049A00003F0F5F96448001F04605C490120487079
:1049B00010BD2DE9F0415848584C0068A169411AD2
:1049C00002D50020BDE8F0815C490844A0615C4844
:1049D00003F0A5F9DFF86CC1504B00269CF80E00DF
:1049E0005749544A26339D1D88B1A069E0610020D3
:1049F00002EB4007A7F8FE6031F8107023F8107042
:104A000025F81070401C0328F2D38CF80E606078F3
:104A100068B1088832F8FE7FC01B08804888578834
:104A2000C01B488088889788FE3AC01B8880E06950
:104A3000A0B3A769381A444FB84219D23E48083883
:104A4000026882F0080202605FF0000031F9102075
:104A500033F91040A24201DA23F8102035F9104052
:104A6000A24201DD25F81020401C0328EED315E0FA
:104A70000020E66133F9101035F91040214402EBB3
:104A8000400401EBD17141F34F01401CA4F8FE102A
:104A90000328EFD301210846FCF721FE012091E70E
:104AA00010B5012004F02EFD1020FCF7F7FF274978
:104AB0000020086010BD254804F078BD2DE9F041C4
:104AC000044600690E46401C206101281FD006F0F4
:104AD00081FE256880462946304606F0F3FD0746EC
:104AE000414606F02BFE294606F09AFD0546606019
:104AF0002946304606F0E6FD0146384606F0E8FD58
:104B0000A16806F08DFD2560E060A0605AE7666050
:104B100000202660F9E7000008010020A80100201D
:104B2000E00C0020B8000020B40000208600002027
:104B3000BC000020C8040020140C0140A086010025
:104B400098000020EC0A002080C3C901300000203A
:104B500070B5F84CF84EC1B205466170306805F08A
:104B6000E9FBA07961784840A071C5F30721617025
:104B7000306805F0DFFBA07961784840A071C5F38B
:104B800007416170306805F0D5FBA0796178484035
:104B9000A071290E6170306805F0CCFBA0796178B6
:104BA0004840A07170BD70B5E24CE34EC1B20546FD
:104BB000A170306805F0BEFBA079A1784840A071D3
:104BC000C5F30721A170306805F0B4FBA079A17886
:104BD0004840A07170BD10B50446D7482146006812
:104BE00005F0A8FBD34881796140817110BDD14A9D
:104BF000D248D179405C491CD171704700B5FFF7AC
:104C0000F6FF0346FFF7F3FF03EB002080B200BD81
:104C100010B5FFF7F3FF0446FFF7F0FF04EB004089
:104C200010BD70B504460D462420FFF7D4FF4D207B
:104C3000FFF7D1FF0CB1212000E03E20FFF7CBFFB2
:104C4000BC4C0020A0712846FFF7C5FF207ABDE8C4
:104C50007040C0E701460020E3E701460120E0E79D
:104C6000B4488079B7E770B504460D460846FFF7AB
:104C7000F1FF03E014F8010BFFF7ADFF2800A5F1E9
:104C80000105EDB2F6D170BD10B5044603E000BFDA
:104C9000FFF7A1FF641C20780028F9D110BD2DE991
:104CA000F05FDFF890B2DFF88C9201274FF0000A36
:104CB0000BF10C0B00251AE0A0481538405D00EB05
:104CC00040010BEB8108D8F8040006F05AFC0646B8
:104CD0000FB1B2440AE0002406E000BFD8F8040097
:104CE000005DFFF778FF641CB442F7DB6D1C99F898
:104CF00000008542E0DB002F05D00AF0FF00FFF73F
:104D0000A9FF0027D6E7BDE8F09F70B50246032350
:104D100000218B4803F0F2FF8749FF220860874893
:104D20001521153806F0E7FB844D0020153D0124C0
:104D300028700220FCF7AAFE20B101206870022032
:104D4000A87003240420FCF7A1FE50B103202855CD
:104D5000641C4FF40050FCF7AEFE10B1042028553F
:104D6000641C0220FCF792FE18B90820FCF78EFEA6
:104D700040B105202855641C06202855641C0720D6
:104D80002855641C2020FCF796FE10B108202855F9
:104D9000641C4FF48070FCF78EFE28B10A20285561
:104DA000641C0B202855641C664E7079082801D0BD
:104DB0000E2802D10C202855641C0D202855641C97
:104DC0000420FCF778FE10B111202855641C132034
:104DD000285596F83001641C00B10120FCF76BFEE9
:104DE00010B114202855641C5248047070BD2DE980
:104DF000F05F504EDFF844B14FF00008317A514D6A
:104E0000514C524FC1464FF0010AABF1150B7829B6
:104E10007AD011DC3046A1F164010078142974D2F3
:104E2000DFE801F0FDFCFBFAF9F8F7F6F5F4F3F230
:104E3000F1F0EFEEEDECEBEA4448D029407875D084
:104E400018DCCB2973D00CDCC8292AD004DCA029BB
:104E50006ED0A42959D1EFE3C92939D0CA29F9D193
:104E600054E0CC2965D0CD297ED0CE297DD0CF2964
:104E7000F0D1A8E0D62979D00ADC4FF00008D1297A
:104E800075D0D22974D0D32973D0D429E2D1D2E1FC
:104E9000EF2916D0F0296DD0FA296CD0FE29D9D18E
:104EA000ADE32B4D002400BFFFF7A8FE25F814004A
:104EB000641C082CF8D30020FFF7CCFE02F00CFC99
:104EC000F9E3FFF79BFEA085FFF798FE608592E36C
:104ED000FFF78DFEF872FFF78AFE1E490870FFF794
:104EE00097FE1D4C2060FFF793FE6060FFF786FE83
:104EF0001A490880FFF782FE19490880194801788D
:104F000041F00201017076E37BE16CE35FF00003A6
:104F1000FFF76DFEE5186870FFF769FEE872FFF7AE
:104F200066FE5B1C68750A2BF2D364E34BE323E057
:104F30008DE331E0E0010020600900200D0D00202C
:104F400000380140C804002064080020EC0A00205A
:104F5000FE0A0020E400002078010020A2010020C9
:104F6000A40100209001002032E337E369E0F8E279
:104F700072E07DE061E335E300255F4608E000BFB5
:104F8000FFF73CFE795D6D1C04EB4101A1F8420086
:104F900030788542F4D32EE3FFF729FE04F81F0F83
:104FA000FFF725FE6070FFF722FE2071FFF71FFE5E
:104FB0006071FFF71CFEA071FFF719FEA070FFF7EC
:104FC00016FEE07017E3FFF719FEFFF717FE25F84E
:104FD000D00FFFF713FE6880FFF710FEA880FFF7E1
:104FE0000DFEA4F8B600FFF709FEFFF711FEFFF76C
:104FF00005FE00EB800013E00BE28EE2ECE105E23F
:105000007FE24DE2EFE1D5E1BCE188E17DE16CE1D9
:1050100059E13BE12CE126E1F0E0BCE041E02BE08E
:1050200040002085FFF7E3FD85F83900FFF7DFFD3D
:1050300085F83B00FFF7DBFD85F83A00FFF7D7FD69
:10504000D9E2FA4D002400BFFFF7D8FD25F814007F
:10505000641C082CF8D3CEE200289CD1FFF7C7FDD2
:1050600085F89803022801D985F898830021BFE2CA
:10507000FFF7C4FDEE49AFE20720FFF7EBFDE620A6
:10508000FFF7A9FD6879FFF7A6FD0020FFF7A3FD54
:1050900095F81D0100B10820E6490843FFF758FDC7
:1050A00009E30B20FFF7D6FDE348008800B2FFF7C5
:1050B0007AFD03F067F900B2FFF775FD0220FCF7F7
:1050C000E5FC04460420FCF7E1FC44EA4004082027
:1050D000FCF7DCFC44EA80042020FCF7D7FC44EA1F
:1050E000C0041020FCF7D2FC44EA0010FFF75BFD7F
:1050F000F9783A79490041EA8201BA79002041EA17
:10510000C2017A79367841EA42117A7A41EA82120A
:10511000CA49CB7942EAC3120B7A42EA03224B7A9C
:1051200042EA4322FB7942EA83223B7A42EAC322E3
:10513000BB7A42EA03324B7B42EA43328B7B42EA40
:1051400083320B7C42EA03420B7942EA03124B7C26
:1051500042EA43428B7C42EA8342CB7C097D42EAAD
:10516000C34242EA0154797852460C4300215F461B
:1051700008E07B5C02FA03F3234202D002FA01F357
:105180001843491CB142F4D3FFF7E2FC95F89803A9
:10519000FFF721FD8FE21220FFF75CFDA848A94D23
:1051A0004FF000040088B0F5806F0BD935F914007A
:1051B000C11700EB5170C010FFF7F5FC641C032C05
:1051C000F4D306E035F91400FFF7EDFC641C032C62
:1051D000F8D39D4D002400BF35F91400FFF7E3FC20
:1051E000641C032CF8D3994D002400BF35F914003A
:1051F000FFF7D9FC641C032CF8D35CE2102194481F
:1052000033E03820FFF726FD5FF0000504EBC5060C
:1052100036F9740FFFF7C7FCB6F90200FFF7C3FCBD
:10522000B6F90400FFF7BFFCB079FFF7D4FC6D1CA2
:10523000082DEBD33FE20020FFF70CFD5FF00005E7
:10524000FFF7DCFC04EBC50626F8740FFFF7D6FC6D
:105250007080FFF7D3FCB080FFF7C9FC6D1CB07104
:10526000082DEDD327E210217A48FFF7FCFC22E25B
:105270001020FFF7EFFC784D002400BF35F9140033
:10528000FFF791FC641C082CF8D314E21020FFF700
:10529000E1FCF87AFFF79FFC70480078FFF79BFC71
:1052A0006F4C2068FFF754FC6068FFF751FC6D48B5
:1052B000008800B2FFF777FC6B48008800B2FFF768
:1052C00072FC6A4829E00520FFF7C4FC68480088A2
:1052D00000B2FFF768FC6748B0F90000FFF763FC15
:1052E0006548007800F0010052E70620FFF7B2FCA5
:1052F000624D002435F91400FFF755FC641C022CA4
:10530000F8D35F48B0F9000039E00620FFF7A2FCAF
:105310005C480068FFF71CFC5B4800882EE0072013
:10532000FFF798FC5948FF220021008801F0DAFBC2
:10533000C0B2FFF750FC56484FF6FF7422460021DA
:10534000006801F0CFFB00B2FFF72DFC5148008848
:1053500000B2FFF728FC504895F80811006831B1F9
:10536000002800DC404200EB8000400002E0002802
:1053700000DC40422246002101F0B4FB00B2FFF7FE
:1053800012FC98E10720FFF765FC14F81F0FFFF7E8
:1053900022FC6078FFF71FFC2079FFF71CFC607986
:1053A000FFF719FCA079FFF716FCA078FFF713FCB4
:1053B000E078EDE61E20FFF74DFC002566197078B9
:1053C000FFF709FCF07AFFF706FC707DFFF703FC9E
:1053D0006D1C0A2DF2D36EE12F20FFF73BFC2F4806
:1053E000FFF752FC67E14006000EFFF733FC002593
:1053F0005F4607E0785D04EB4000B0F94200FFF73C
:10540000D2FB6D1C30788542F4D354E1FFF747FCA2
:1054100051E1FFF71FFC00245D4603E0285DFFF724
:10542000DAFB641C30788442F8D344E18C09002014
:10543000DE01002004000080E6000020480B002070
:10544000AE01002092000020800000209800002083
:10545000C600002074090020FE0A0020E40000209D
:1054600078010020A2010020A40100209201002068
:105470009E010020A0010020900100204400002097
:10548000DC010020700000203C000020F40000201F
:1054900048010020F8000020440100201CDF000823
:1054A0001620FFF7D7FB0020FFF77DFB35F9D00F63
:1054B000FFF779FBB5F90200FFF775FBB5F90400BA
:1054C000FFF771FBB4F9B600FFF76DFB0020FFF7A3
:1054D0006AFB0020FFF73CFBB4F928000A2190FB8F
:1054E000F1F000B2FFF75FFB95F83900FFF773FBAF
:1054F00095F83B00FFF76FFB95F83A00FFF76BFB61
:105500002DE00820FFF7A6FB0024601CC0B2FFF7C7
:1055100062FB641C082CF8D3CDE0FFF768FB04465F
:105520001220FFF797FB14B1102C02D004E096482C
:1055300000E09648D0E900892046FFF74CFB404642
:10554000FFF706FB4846FFF703FB91480068FFF7AB
:10555000FFFA0020FFF727FB0020FFF724FB0020C5
:1055600016E6FFF744FB8446FFF752FB0546FFF7BC
:105570004FFB0646FFF74CFB0446FFF73FFBFFF7E8
:105580003DFBFFF734FBBCF1000F03D0BCF1100F63
:105590000BD030E07C48C0E9005687F8078087F8D8
:1055A0000CA044B37A48046025E07849C1E900566C
:1055B0000CB177480460774A0220091D10707348C7
:1055C00001F069F817E0B0B90120FCF750FA12E0D9
:1055D00088B971494FF4C87008800CE058B987F851
:1055E0000EA008E018B10020FFF737FB63E00121AF
:1055F0000020FCF774F80020FFF72CFB5BE008208C
:10560000FFF728FB6548674A674D016864481268E0
:10561000B1FBF0F1B2FBF0F000EB4002C2EBC010C6
:1056200001EBC000E880002435F91400FFF7BBFA55
:10563000641C042CF8D33EE019E00420FFF70AFBB9
:10564000B4F92C00FFF7AFFAB4F92A0097E60C2062
:10565000FFF700FB55480068FFF77AFA5348001D32
:105660000068FFF775FA51480830006816E5504D9C
:1056700029780AEB8100C0B2FFF7ECFA2878FFF72F
:10568000AAFA00244B4E4C4FDFF83081DFF83091FE
:105690000EE0305DFFF79FFA385DFFF79CFA18F8CF
:1056A0000400FFF798FA19F80400FFF794FA641C55
:1056B00028788442EDD3BDE8F05FFFF7D1BA70B52A
:1056C0004048414C414E0078002540B3BDE8704051
:1056D000FBF7A2BC306804F040FE617951B10129AA
:1056E00021D0022924D0032928D004292ED005292D
:1056F00044D131E0242803D00021617179B901E05F
:105700000121FAE73249497849B9232808D03149BB
:1057100091F89913814231D1012003F03AFA2DE03A
:10572000FBF77AFC2AE04D2804D10220607125E0C5
:105730003C2801D00020F9E70320F7E740281CD8D7
:105740002071E570E571A0710420EFE72072A17966
:105750004140A1710520E9E7E1782279914207D221
:10576000A2794240A2711C4A5054491CE17005E0E4
:10577000A179814201D1FFF73AFB6571306804F0ED
:10578000E9FD0028A6D170BD80010020880100201D
:1057900074000020D9000020AA010020600400202D
:1057A00040420F006404002096010020E8F7FF1F2C
:1057B000A60100205D0B00206D0B00207D0B00205A
:1057C0008D0B002000000020E00100206009002077
:1057D000EC0A0020C80400200D0D00202DE9F04740
:1057E000F94C607905F0FFFFDFF8E093494605F0DA
:1057F000A5FFF74D2860E07B05F0F5FF494605F071
:105800009DFFF44EEE606860A07905F0ECFFF24F6A
:10581000394605F093FF10352860207C05F0E3FF42
:10582000494605F08BFF6860A07E05F0DCFFDFF8DD
:10583000AC83414605F082FFC5E90206E07905F038
:10584000D2FF394605F07AFF10352860607C05F0FC
:10585000CAFF494605F072FF6860E07E05F0C3FFAD
:10586000414605F06BFFC5E90206BDE8F08770B55B
:1058700006460325002000F035FF4FF48070FCF74A
:105880001AF900281ED0D24C183C667003F0A1F81B
:10589000A06000206060D24890F8200100B9012586
:1058A000FFF79CFFCF482B4600EB06100021426813
:1058B000CD4803F023FACD494860BDE8704001208F
:1058C00000F010BF70BD2DE9F041C548C74DC04C78
:1058D00090F82011C34E6868183C11B1012945D1D8
:1058E00006E0617806EB0111496804F039FD3AE001
:1058F00004F039FD00B32078012802D02069F0B10E
:1059000024E003F066F861690746401A64282FD343
:105910002069052811D206EB00104168686804F080
:105920001FFD607806EB00108168686804F005FDD3
:105930002069401CC4E9040718E0022014E06078E4
:1059400006EB00104168686804F00AFD20698C28A5
:1059500009D2A4495031095C686804F0EBFC206965
:10596000401C206102E0032000F0BCFE00206060CB
:10597000BDE8F08144F25061884201DDA0EB4100B6
:105980009B49884202DA48F6A041084470472DE955
:10599000F04706465068994614460D46301A05F001
:1059A00019FF296805F0CAFE2061A768394605F08D
:1059B00089FE8046844890F8C00005F014FF8D49A8
:1059C00005F086FE01464FF07E5005F0B7FE2D68CB
:1059D000294605F025FE0146284605F0AFFE414662
:1059E00005F076FE394605F01BFE2061C4E9016032
:1059F0000146D9F8080005F06BFEBDE8F04705F058
:105A0000F7BE2DE9F0411D4614460E4605F0E2FEB4
:105A1000696805F05DFE316805F05AFE216805F001
:105A2000FFFD2060ED680746284605F0E1FE0646CA
:105A300085F0004005F0DCFE0546384605F0D8FE4E
:105A40003246294601F04EF805F0C4FE2060BDE85C
:105A5000F04105F0CDBE70B5674CD4E90D01401A98
:105A6000FFF788FF0028D4E90D01A0EB010002DD5B
:105A7000FFF780FF02E0FFF77DFF404241F2941103
:105A8000884228DAD4E90D01401A05F0A3FE5B49EB
:105A900005F01EFE0646E06B05F0A5FE0546304605
:105AA00007F086F9294605F013FE05F0A1FE00B2C5
:105AB00040F6B8322082514201F014F8616B08447C
:105AC00048F6A0416064884200DD401A002800DAF0
:105AD0000844606470BD606BFBE72DE9FE4F05462E
