:020000040800F2
:10000000902C0020BDBA0008FDBA0008FF290008A6
:1000100001BB000803BB000805BB0008000000008E
:1000200000000000000000000000000007BB000806
:1000300009BB0008000000000BBB0008118E00087F
:100040000FBB00080FBB00080FBB00080FBB000868
:100050000FBB00080FBB00080FBB0008099A00087F
:100060000FBB00080FBB00080FBB00080FBB000848
:10007000BF9400080FBB0008939400080FBB000852
:100080000FBB00080FBB00080FBB00080FBB000828
:100090000FBB00080FBB00080FBB00080B9A00083D
:1000A0000FBB00080FBB00080FBB0008FBA2000835
:1000B000FFA2000805A3000809A30008198700088B
:1000C000198500081D8700081B8700080FBB000862
:1000D0000FBB0008EB9400081F9500080FBB000839
:1000E000717E00080FBB00080FBB0008DFF80CD0C2
:1000F0000CF0AAF90048004715270008902C0020B2
:1001000070B50C46911E232900D30A220025002831
:1001100004DA2D212170611C404200E0214601F0EB
:10012000A2F90570204670BD2DE9F047044600E0B5
:10013000641C20782028FBD00928F9D04FF07E5885
:10014000C1B247462D2902D02B2801D001E0FC4F37
:10015000641C0026DFF8EC930CE000BF0BF01EFFE0
:100160000546494630460BF09DFE29460BF042FEFF
:100170000646641C207830380928EFD920782E28CC
:1001800015D14D460EE000BF0BF008FF29460BF0DD
:10019000BBFE31460BF02EFE0646494628460BF0C4
:1001A00081FE054614F8010F30380928ECD9217872
:1001B0004046652901D0452935D114F8011F4FF07B
:1001C00000082D2902D02B2902D002E04FF00108AF
:1001D000641C00256FF02F0206E000BF05EB8503CD
:1001E00002EB4303CD18641C2178A1F13003092BE5
:1001F000F4D94FF49A718D4204D90D46D2490BF0CF
:1002000051FE083D082DF9D203E049460BF04AFEA5
:100210006D1E002DF9D1B8F1000F04D00146304613
:100220000BF072FE03E0014630460BF03BFE394610
:10023000BDE8F0470BF036BEF0B587B000260D469E
:10024000C34900960196C1A70296B0F5000F02DBE4
:100250000BF0D0FD01E00BF01FFEBE490BF022FEBB
:100260000BF0AAFE041E00DC60420A2203A9FFF77D
:1002700047FF002C01DB202000E02D208DF800003E
:1002800003A80BF068FD302401280AD003A80BF066
:1002900062FD02280CD003A80BF05DFD03280CD0F2
:1002A0000DE08DF801408DF802408DF8034006E026
:1002B0008DF801408DF8024001E08DF8014003A95E
:1002C00068460BF014FD68460BF045FDC01EC4B235
:1002D0002246694628460BF028FD2E553946284609
:1002E0000BF005FD0DEB040128460BF000FD07B0F7
:1002F0002846F0BD70B505460C4608680BF02BFD8E
:10030000024621682868BDE870400BF04DBD70B50D
:1003100006460BF020FD904D10F0FF0F10D0304638
:100320000BF05BFD0446152818DA202130460BF04F
:1003300008FD0BF052FD05EB4401A1F8460070BD2D
:100340005FF0000405EB44002146B0F8462083A08E
:100350000CF0A0F9641C152CF4DB70BDBDE87040F6
:10036000152181A00CF096B92DE9F041002588B047
:1003700007462E460BF0EFFC854C10F0FF0FA84609
:1003800051D0052283A138460BF00EFD00287DD008
:10039000042282A138460BF007FD002877D03846AA
:1003A0000BF01BFD461E0C2E72DA202138460BF096
:1003B000C8FC070007D0781C0746FFF7B5FE04EB22
:1003C000061101250861202138460BF0BAFC070010
:1003D00007D0471C3846FFF7A7FE04EB06116D1C3B
:1003E0004861202138460BF0ACFC070007D0471CC1
:1003F0003846FFF799FE04EB06116D1C8861202139
:1004000038460BF09EFC30B1401CFFF78DFE04EB2C
:1004100006116D1CC861042D77D062A001F035F87B
:1004200008B0BDE8F0816EA001F02FF85FF0000584
:1004300004EB0517386910F0FF4F2BD0691C73A02F
:10044000761C0CF027F903A93869FFF7F5FE014681
:1004500070A00CF01FF903A97869FFF7EDFE0146C3
:100460006CA00CF017F903A9B869FFF7E5FE014687
:1004700068A00CF00FF903A9F869FFF7DDFE01464B
:1004800065A00CF007F96D1C0C2D02E034E03DE096
:10049000E5E0CDDBCDF80880CDF804800025CDF86F
:1004A000008011E004EB0517009879690BF0A2FCBD
:1004B0000090B96901980BF09DFC0190F9690298D0
:1004C0000BF098FC6D1C0290B542EBDB54A000F0E1
:1004D000DCFF574E00246D4655F8240020F0004004
:1004E000B04201DD53A000E053A000F0CEFF641C39
:1004F000032CF1DB44A091E70020414604EB0012FD
:10050000401C11610C28F9DB8AE7A3E02021384662
:100510000BF017FC002883D0401C06460BF01BFC98
:10052000464DC7B2002400BF55F8241031B13A46F9
:1005300030460BF039FC10B1641CF5E780E081E037
:10054000000080BF0000204120BCBE4C2E000000F7
:100550006F12033A00007A448C07002061757820FE
:1005600025752025750D0A00496E76616C69642039
:100570004665617475726520696E6465783A206DB0
:10058000757374206265203C2025750D0A000000FB
:10059000D803002072657365740000006C6F61649D
:1005A0000000000057726F6E67206E756D62657295
:1005B000206F6620617267756D656E74732C206E96
:1005C00065656473206964782074687220726F6C4A
:1005D0006C207069746368207961770D0A000000EF
:1005E000437573746F6D206D697865723A200D0ADA
:1005F0004D6F746F720954687209526F6C6C0950B8
:1006000069746368095961770D0A00002325643A0B
:10061000090000002573090025730D0A0000000081
:1006200053616E69747920636865636B3A090000F1
:100630000AD7233C4E4709004F4B090034D7000826
:10064000EFA0EBE6204602F0A7FA55F82410F2A03E
:100650000CF020F8AFF2B800FFF786FEE0E60C21C0
:10066000F2A00CF017F8DBE610B5FAA000F00DFFD1
:10067000012001F01EFAFEA000F007FF0A2008F09A
:10068000F5FBBDE81040002008F0B8BC7CB504467E
:100690000D4600790021062814D2DFE800F0030699
:1006A0000A0D111EA06801780CE0A06890F90010F6
:1006B00008E0A068018805E0A068B0F9001001E03A
:1006C000A0680168EEA00BF0E5FF002D04D0D4E98E
:1006D0000312ECA00BF0DEFF7CBDA0686946006849
:1006E000FFF7AAFD0146E9A00BF0D4FF002DF3D0DF
:1006F000E0680BF053FC6946FFF79EFD0146E4A05D
:100700000BF0C8FF20690BF049FC6946FFF794FD28
:100710000146DFA00BF0BEFF7CBDDEA000F0B5BE41
:100720002DE9FF470020FFF7F8FFE6A00BF0B2FF2E
:10073000D2A0FFF7ECFDEF4DEF49687901EB8000A7
:1007400050F8041CEDA00BF0A5FF286910F0FF4F36
:100750004CD0DFF8B4A3002405EB0410066916F0B2
:10076000FF4F3FD0D0E90598C769611CE7A00BF0A7
:1007700091FF564502D3E7A00BF08CFF6946304647
:10078000FFF75AFD0146C1A00BF084FF5646B14564
:1007900002D3E0A00BF07EFF69464846FFF74CFD10
:1007A0000146BAA00BF076FFB04502D3D9A00BF0FA
:1007B00071FF69464046FFF73FFD0146B3A00BF0CD
:1007C00069FFB74202D3D3A00BF064FF69463846F5
:1007D000FFF732FD0146AFF2C0100BF05BFF641C67
:1007E0000C2CB9D3611CCCA00BF054FF01F092F992
:1007F000C14E002407465C3656F8241021B1CBA028
:100800000BF048FF641CF7E700244FF0010800BF1D
:1008100056F8241041B108FA04F0384202D0C7A0BB
:100820000BF038FF641CF3E7C84A002069462C1817
:10083000135C94F80F41401C08280B55F7D3002295
:100840000A54C3A00BF026FFC44D002404EB84001F
:1008500005EB800655F82010C1A00BF01BFF00210E
:100860003046FFF713FF70A000F00FFE641C7B2CD6
:10087000ECD3BDE8FF8710B5BCA000F006FE012157
:10088000002000F02CFFBCA000F0FFFD0A2008F0C3
:10089000EDFABDE81040002008F0B0BB10B50446EA
:1008A000B9A000F0F2FDBE48BE4A002101705160BF
:1008B000117002F0E5F82046BDE81040DBE72DE9B5
:1008C000F04706460BF047FA054601F023F9DFF83A
:1008D000288207464FF0010908F15C0855B12A4605
:1008E000B1A130460BF060FAC0B1307800272D2856
:1008F00023D025E0AEA000F0C8FD00244D464646BA
:1009000056F8241041B105FA04F0384202D0ADA0E7
:100910000BF0C0FE641CF3E743A01EE0AAA000F0A9
:10092000B4FD00244FEA080555F824100029F3D03F
:10093000A4A00BF0AFFE641CF6E701276D1E761C29
:100940005FF0000458F8241031B12A4630460BF00D
:100950002BFA30B1641CF5E7A1A0BDE8F04700F028
:1009600094BD09FA04F01FB101F0CFF8A3A002E092
:1009700000F018FFA4A000F088FD58F82410BDE88E
:10098000F04770A00BF086BE10B506F09CF8401C36
:1009900004D0A0A0BDE8104000F077BDA5A0F9E705
:1009A00070B50024ADA000F070FD6C4DB5F1C00530
:1009B00004EB440005EB80014A6855F82010ADA017
:1009C0000BF068FE641C102CF2D370BD3EB50546DA
:1009D0000BF0C1F9082812D10024285D0BF03AF978
:1009E0002855641C082CF8D300245848295D0BF0C6
:1009F000A8F918B12819295D401C3FE141E14BE1FC
:100A0000496E76616C6964206D69786572207479CD
:100A100070652E2E2E0D0A004C6F616465642025D2
:100A200073206D69782E2E2E0D0A00004D6F746FA5
:100A300072206E756D626572206D757374206265CB
:100A4000206265747765656E203120616E642025B3
:100A5000640D0A00526573657474696E6720746F63
:100A60002064656661756C74732E2E2E0D0A00006D
:100A70005265626F6F74696E672E2E2E0000000043
:100A800025640000202564202564000025730000F3
:100A9000202573004166726F333220434C49207623
:100AA000657273696F6E20322E33204F637420207D
:100AB000312032303134202F2030373A34353A3437
:100AC0003600000043757272656E7420436F6E6667
:100AD00069673A20436F707920657665727974682A
:100AE000696E672062656C6F7720686572652E2E6F
:100AF0002E0D0A00D803002034D700086D697865F0
:100B0000722025730D0A000000008080636D6978F3
:100B10002025640020000000636D69782025642092
:100B2000302030203020300D0A00000066656174EE
:100B3000757265202D25730D0A00000066656174CD
:100B40007572652025730D0A000000007CE2000824
:100B50006D61702025730D0A00000000E0D80008C8
:100B6000736574202573203D200000005361766971
:100B70006E672E2E2E0000000D0A5265626F6F7494
:100B8000696E672E2E2E00000D0A4C656176696E27
:100B90006720434C49206D6F64652E2E2E0D0A0090
:100BA000A8030020000000206C697374000000009E
:100BB000456E61626C65642066656174757265730B
:100BC0003A20000025732000417661696C61626CF7
:100BD000652066656174757265733A2000000000D7
:100BE000496E76616C696420666561747572652012
:100BF0006E616D652E2E2E0D0A0000004469736132
:100C0000626C656420000000456E61626C65642062
:100C100000000000456E61626C696E6720475053AA
:100C200020706173737468726F7567682E2E2E0D55
:100C30000A0000004572726F723A20456E61626C64
:100C40006520616E6420706C756720696E20475066
:100C5000532066697273740D0A0000004176616961
:100C60006C61626C6520636F6D6D616E64733A0DCB
:100C70000A00000025730925730D0A000BF061F8C6
:100C800018B1E9A000F001FC3EBD641C082CFFF483
:100C9000ACAE284600F065FCEBA000F0F6FBF04B94
:100CA000F04A0020694615181C5C95F80F51401C4D
:100CB00008284C55F7D300220A54AFF278100BF0F5
:100CC000E9FC3EBD2DE9F04180460BF044F8E54FCC
:100CD000E54D060012D00246AFF2341140460BF04B
:100CE00063F890B15FF0000455F82410F1B132467A
:100CF00040460BF059F8F8B1641CF5E7787905EB3C
:100D0000800050F8041CD9A01BE0DDA000F0BDFB62
:100D10005FF0000455F8241029B1AFF258100BF021
:100D2000B9FC641CF6E7AFF2003001E0AFF23030FE
:100D3000BDE8F04100F0A9BB601C787155F82410A3
:100D4000D4A0BDE8F0410BF0A5BC2DE9F041002591
:100D500007462C462E460AF0FEFF18B1AFF24C2192
:100D6000384610E0D0A02BE016B1012E07D103E0E9
:100D70000BF033F8054602E00BF02FF80446AFF213
:100D80006C210020761C0AF0EDFF0028ECD10C2D20
:100D900005D3BDE8F0410C21D2A00BF07BBCDB4FAA
:100DA000022E07DA37F915202946BDE8F041D8A010
:100DB0000BF070BCA4F57A70B0F57A7F04D9DAA094
:100DC000BDE8F0410BF066BC22462946DFA00BF0DF
:100DD00061FC27F81540BDE8F08170B505460AF0C2
:100DE000BAFFA04C10F0FF0F0CD028460AF0F5FF18
:100DF00002280ED884F8B0030021084600F06FFCEA
:100E000096A0EBE794F8B013BDE87040D6A00BF0C5
:100E100041BC70BD2DE9F04782460AF09CFFD84DD9
:100E2000060029D0012E03D19AF800002A2823D0E9
:100E3000D4A150460AF067FF00286FD0401C04463A
:100E40000AF0CBFF81462046FFF76EF98046002668
:100E500006EB860705EB870455F827000AF07BFFB1
:100E6000024655F8271050460AF09EFFF8B1761C4E
:100E70007B2EEDD3C4A04DE0CBA000F006FB0024F8
:100E800004EB840005EB800755F82010AFF22C30FE
:100E90000BF000FC31463846FFF7F8FBAFF2784024
:100EA00000F0F3FA641C7B2CEAD3BDE8F08706EB74
:100EB000860605EB8607F8680BF070F841460BF0E4
:100EC000A9F826D838690BF069F841460BF0ACF860
:100ED0001FD83979052907D0484606290ED2DFE800
:100EE00001F0050508080B0B4046F6E7A1680870FD
:100EF00004E0A168088001E0A168086055F82610A8
:100F0000AFA00BF0C7FB2046BDE8F0470021FFF77C
:100F1000BDBBAEA0BDE8F04700F0B7BA5FF000047B
:100F200004EB8406514655F826000AF0ECFE78B131
:100F300055F8261005EB8607AFF2D8300BF0AAFB68
:100F400000213846FFF7A2FBAFF224500BF0A2FBC2
:100F5000641C7B2CE4D3A8E72DE9F04107F077FF70
:100F60004FF47A71B0FBF1F1A2480378A2480288ED
:100F7000A2A00BF08FFB00F0BDFD0646AF48B049C4
:100F80000068B0FBF1F2AF497D480968D03850F8ED
:100F90002110ADA00BF07EFB334F002401259C37C0
:100FA00057F8241051B105FA04F0304203D0AFF2E3
:100FB000EC300BF06FFB641CE4B2F1E7022000F0B0
:100FC00087FDA0B1AB4C28482178BC3050F82110E7
:100FD000A9A00BF05FFB2078022808D1A948007D6A
:100FE00008B16F2100E06E21A7A00BF053FBAFF218
:100FF000C85000F04AFA07F00EFC0246A3484FF42E
:101000006D730188BDE8F041A1A00BF043BB2DE951
:10101000FF5FDFF8B09299F8000018B9012189F854
:10102000001051E156E100004D7573742062652097
:10103000616E79206F72646572206F66204145543D
:1010400052313233340D0A0043757272656E74206A
:1010500061737369676E6D656E743A2000000000FD
:101060007CE20008D803002034D700084375727270
:10107000656E74206D697865723A2025730D0A00DB
:10108000417661696C61626C65206D697865727327
:101090003A2000004D697865722073657420746F82
:1010A0002025730D0A00000055736167653A0D0A2B
:1010B0006D6F746F7220696E646578205B76616C09
:1010C00075655D202D2073686F77205B6F722073CC
:1010D00065745D206D6F746F722076616C75650D3F
:1010E0000A0000004E6F2073756368206D6F746F87
:1010F000722C207573652061206E756D626572209B
:101100005B302C2025645D0D0A000000BC08002027
:101110004D6F746F7220256420697320736574208D
:1011200061742025640D0A00496E76616C69642043
:101130006D6F746F722076616C75652C2031303064
:10114000302E2E323030300D0A000000536574749A
:10115000696E67206D6F746F7220256420746F2034
:1011600025640D0A0000000043757272656E7420DC
:1011700070726F66696C653A2025640D0A00000084
:10118000E0D800083D0000004552523A20556E6BF1
:101190006E6F776E207661726961626C65206E6138
:1011A0006D650D0A0000000043757272656E742053
:1011B00073657474696E67733A200D0A000000004D
:1011C00025732073657420746F2000004552523AD5
:1011D0002056616C75652061737369676E6D656E0D
:1011E00074206F7574206F662072616E67650D0ADA
:1011F000000000009C010020FA0000205379737465
:10120000656D20557074696D653A2025642073659D
:10121000636F6E64732C20566F6C746167653A203F
:101220002564202A20302E31562028256453206240
:10123000617474657279290D0A0000007003002042
:1012400040420F00C80000204861726477617265F7
:101250003A20257320402025644D487A2C2064656F
:101260007465637465642073656E736F72733A207E
:1012700000000000B001002041434348573A2025B8
:10128000730000008C0800202E256300EE00002073
:101290004379636C652054696D653A2025642C2080
:1012A000493243204572726F72733A2025642C20B4
:1012B000636F6E6669672073697A653A2025640DED
:1012C0000A0000000000002078A000F0DEF885A0F1
:1012D00000F0DBF8DFF814B2DFF814A25446DAF8B5
:1012E000000009F0E0FA002878D0206809F0DEFA62
:1012F000092807D03F2805D0D9F804104C4600290A
:101300004FD050E07B4F0024254607F1C008D9F8A4
:1013100004600BE0D9F8042022B1744839680AF05F
:1013200043FD10B904B93C463D460C374745F1D35F
:101330009CB149465F46486822682B68125C1B5C7A
:101340009A420AD19AB92E2811D220223A54401C2E
:101350000021C9F804000BF80010D9F804004F462A
:1013600008B1AC4214D064A000F08FF80AE03A54FF
:10137000401C4860DFE7206800F087F8092000F093
:1013800090F80C34AC42F6D956A000F07EF8002656
:101390005C4678688642A1D2A05D00F082F8761C97
:1013A000F7E7042810D00C2814D019B10A2816D059
:1013B0000D2814D07F283DD030298FD220288DD3FE
:1013C0007E288BD8A9B344E004B04848BDE8F05F5C
:1013D000FFF764BA4AA000F058F828E041E0AFF601
:1013E000B81000F052F8606800255E460BF8005017
:1013F0004648CDE9000B0C2310223E49029501A876
:101400000AF02EFC070007D038680AF0A4FC30442C
:10141000B968401C884702E03DA000F036F8302152
:1014200032480AF059FC65602078002819D02DA0B8
:101430000AE00CE000293FF451AF491E0020C9F832
:1014400004100BF801003BA000F01FF846E720282D
:10145000FCD00BF80100491CC9F8041000F021F879
:101460003CE7BDE8FF9F70B51546B0FBF5F40646B6
:10147000A84203D32046FFF7F6FF014605FB1460A0
:101480002DA2105C0870481C70BD70B50446184D44
:1014900003E0641C286809F0F7F921780029F8D1E5
:1014A00070BD01461248006809F0EEB90D0A456E9C
:1014B000746572696E6720434C49204D6F64652CDA
:1014C00020747970652027657869742720746F20EF
:1014D00072657475726E2C206F72202768656C704F
:1014E000270D0A000D0A232000000000A803002099
:1014F0008C08002020D800080D1B5B4B000000006A
:101500001B5B324A1B5B313B31480000F50200088F
:101510004552523A20556E6B6E6F776E20636F6D39
:101520006D616E642C20747279202768656C702759
:1015300000000000082008003031323334353637DF
:1015400038394142434445464748494A4B4C4D4E41
:101550004F505152535455565758595A0000000095
:1015600070472DE9F04105460446FE4EFE4F09E066
:10157000FC480AF0E6FB20B1611B801B384480F870
:101580000F11641C21780029F2D1BDE8F081F748E1
:1015900000210278442A13D14288B2F56D7F0FD121
:1015A0000279BE2A0CD190F8B223EF2A08D100F5B7
:1015B0006D7200BF10F8013B59409042FAD309B157
:1015C000002070470120704710B5FFF7E0FF10B909
:1015D0000A2007F0F1FC4FF46D72E449E2480AF08A
:1015E00062FBE14890F8B013022902D9002180F88B
:1015F000B013C9B201EB810202EBC10100EB011192
:10160000BDE81040D022DA4801F5A0710AF04BBBCA
:101610002DE9F05FD64AD74E002092F82010D47FF3
:1016200040F6C41500FB00F3193B4B4303F6C4130B
:101630004343634393FBF5F326F81030401CC0B2DC
:101640000728EFD3C84B914692F8212099F8224001
:10165000B3F8D210B3F8D0700020DFF81CA34FF01D
:101660000A0B4FF47A7EC4F1640802EB820CCD1BA6
:1016700000EB8001C2EB41030121002B03DDC2F12D
:101680006401C9B201E000DA114603FB03F604FB72
:1016900006F601FB01F196FBF1F1414401FB03F178
:1016A00091FBFBF101EB4C0109B205FB01F191FB50
:1016B000FEF139442AF8101000F10100C0B20C28E4
:1016C000D6D399F8000002F032FABDE8F05F04F0DA
:1016D00073BA10B5FFF778FFBDE8104098E72DE921
:1016E000F047A14C8146442020704FF46D75658011
:1016F000BE2000262071EF2084F8B20384F8B36383
:1017000069B194F8B003D02200EB800101EBC00076
:1017100004EB0010964900F5A0700AF0C4FA924854
:10172000934902E010F8012B56408842FAD384F81E
:10173000B3630AF04BF9DFF844A28C4F0326A846A6
:1017400034200AF0B1F938460AF06EF950460AF032
:101750006BF9002506E06159E8190AF081F92D1DA1
:10176000454502D20428F6D001E0042804D0761EB4
:10177000E6D10AF031F904E00AF02EF9FFF707FF8D
:1017800010B90A2007F018FCFFF7A3FFB9F1000F0A
:1017900006D0BDE8F047012214210F2001F072BDF0
:1017A000BDE8F08770498A6802438A6070476E49D5
:1017B0000020886070472DE9FC5F71A1D1E900012C
:1017C000CDE900014FF46D7167480AF085FAD02128
:1017D00067480AF081FA644B442000251870032002
:1017E000587102209D60FFF7DDFF83F8B0534FF47E
:1017F0001670A3F8F200FA20A3F8F4002A20A3F848
:10180000F000A3F8FA50A3F8FC50A3F8FE5083F8B8
:10181000E25083F8E35083F8E450A3F8E650A3F8CD
:10182000E850A3F8EA5083F8ED5083F8EE504FF4F7
:10183000FA70A3F8F800012683F8EC60202083F802
:10184000F6004FF4C870A3F806016E2083F80B0170
:101850002B2083F80C01212083F80D0183F80E5111
:1018600083F817514FF47770A3F8180183F83A51B1
:1018700083F83B5183F83C5140F2DC52A3F81A2123
:1018800040F24C40A3F81C0140F26C70A3F81E011A
:1018900083F8205183F8216183F8225183F8236172
:1018A00040F27E4023F8D00F40F23A7058804FF457
:1018B0007A70988040F27E50D88040F2EA501881C9
:1018C00040F2B450588132219981C800D8811982E0
:1018D00083F85A5083F85B504FF4E13018664FF4A8
:1018E0001650586683F8685083F8695040F6AC503B
:1018F00023F8C40C03F8C25C03F8545F40F6FF7091
:1019000058801B4C28274FF01E0A2570677084F8FA
:101910000BA017206075A77084F80CA0A075552047
:10192000E0702D206073E5752171A57325760B207D
:101930006071E57365764FF0140B84F806B00823E8
:1019400023742D23A3760E23E37184F811B0502065
:10195000E0765A2020724FF00A0884F812804FF087
:10196000640911E07CE20008D803002000F80108B7
:101970008C070020520A0020600A002000FC0108A9
:101980001E1E64646464646484F81C906772782327
:10199000A3722D232375A677E077412084F82000D9
:1019A00084F8235084F8245084F82550E28484F885
:1019B000211084F822506585A5852585042084F8AA
:1019C0002E0084F82F7084F83070152084F83100D0
:1019D000524860635248A0635248E0635248206412
:1019E00084F84460192084F8450050A0FFF7B9FD41
:1019F00084F8705084F8715084F8727084F87360C1
:101A000084F876504FF44870A4F8740004F8B88F46
:101A1000C82363704FF49660608040F2D930A08094
:101A2000454800216C4640F2DC554FF47F764FF478
:101A3000FA6C00BF00EBC10222F8786FA2F802C076
:101A4000958014F80180491C82F806800829F1DB92
:101A5000012100F8BE1F394C41708170838080F8ED
:101A600006B080F807A00172A0F80A904FF49671B2
:101A70008181C781522084F8B10300204FEA000120
:101A800004EB0012401C11610C28F9DB5FF000052B
:101A900005EB850000EBC50004EB0010D0222649C1
:101AA00000F5A0700AF0FFF86D1C032DF0DBBDE817
:101AB000FC9F10B50446FFF76AFD641E204206D164
:101AC000FFF779FE0021BDE81040084607E610BD8B
:101AD0001B490968014201D001207047002070476E
:101AE00017490A6802430A60704715490A68824329
:101AF0000A607047124800687047104989680142BF
:101B000001D001207047002070470C498A68824349
:101B10008A60704709488068704700009A99193FA9
:101B2000F6287C3F3D0A773F0000A04041455452D3
:101B300031323334000000008C070020D80300202D
:101B40000800002070B5F84D95F8450040350AF0C2
:101B50002EFAF6490AF0A6F90BF026F9F44E0446DF
:101B600030880AF024FA21460AF09CF90BF0DEF9DD
:101B7000F04C608030880AF01AFA0146EE480AF00C
:101B8000C3F9EE490AF0C0F9E066A88E0AF00FFA30
:101B90000146EB480AF0B8F9EA490AF083F92067F0
:101BA000E94928680AF07EF901464FF07C500AF0B6
:101BB000ABF960670820FFF78BFF002803D0BDE872
:101BC000704002F0C9BF70BD002801DD024600E090
:101BD00042428A4201DA00207047002802DDA0EB71
:101BE00001007047FDDA084470472DE9F04F91B0CD
:101BF000D0E90045814686680F4608680BF0D4F8A6
:101C0000049038680BF0BAFC059078680BF0CCF8BB
:101C1000834678680BF0B2FC8046B8680BF0C4F8D5
:101C20008246B8680BF0AAFC0746504604990AF0B1
:101C300039F90990384604990AF034F90890514668
:101C400005980AF02FF90790394605980AF02AF905
:101C50000690594650460AF025F910908BF0004046
:101C600039460AF01FF90746414607980AF01AF963
:101C700008990AF0BFF80390414606980AF012F955
:101C800009990AF00CF982460598594680F00040FF
:101C90000AF008F90590414609980AF003F90699F7
:101CA0000AF0FDF80290414608980AF0FBF80799FF
:101CB0000AF0A0F80690584604990AF0F3F8834613
:101CC000304602990AF0EEF80090284603990AF08F
:101CD000E9F80190204610990AF0E4F801990AF019
:101CE00089F800990AF086F8C9F80000304606998C
:101CF0000AF0D8F80090514628460AF0D3F88246F8
:101D0000394620460AF0CEF851460AF073F8009999
:101D10000AF070F8C9F80400594630460AF0C2F8D3
:101D20000646284605990AF0BDF805464146204674
:101D30000AF0B8F829460AF05DF831460AF05AF878
:101D4000C9F8080011B0BDE8F08F2DE9F04387B065
:101D500080460AF02CF97D490AF0A4F8054675483A
:101D60009830016881F000410391406880F00040A4
:101D700004907748B0F900000AF010F975490AF0AC
:101D800091F86C4C05908A34B4F900000AF006F919
:101D90000090B4F902000AF001F90190B4F90400CE
:101DA0000AF0FCF8029003A96846FFF71EFF5E4E9A
:101DB0008A3C96F84400012804D05D4800880AF067
:101DC000F6F817E0644840780028E06B0CD1C117A2
:101DD00000EB9161A0EBA1100AF0E0F802990AF083
:101DE00009F80AF0E9F8E063C11700EB916080118F
:101DF0000AF0D4F802990AF052F80290216C894650
:101E00000AF04AF807462946606F09F0F3FF0146D9
:101E100028460AF079F839460AF044F8494609F0AC
:101E2000E9FF206400980BF081F896F830102F3607
:101E3000FFF7CAFE494D29680844286001980BF055
:101E400075F87178FFF7C0FE696808446860206C17
:101E50000BF06CF83178FFF7B7FEA9680844A8606A
:101E6000A16801EB0800A060E068401CE06007B0DA
:101E7000BDE8F0832DE9F05F2E4D044698352868C3
:101E80000AF092FF834628680BF078FB8246686868
:101E90000AF08AFF814668680BF070FB0546D4F8AB
:101EA00008802946404609F0FDFF594609F0FAFF2F
:101EB000676806465146384609F0F4FF294609F09E
:101EC000F1FF05464946206809F0ECFF294609F074
:101ED00091FF314609F08EFF04465146404609F015
:101EE000E1FF05465946384609F0DCFF294609F06E
:101EF000D3FF21460AF02AFE194909F0D3FF1249FF
:101F00000AF002F80B49496B09F074FF154909F012
:101F1000FBFF0BF00BF800B2002802DA00F5B470FA
:101F200000B2BDE8F09F00008C07002035FA8E3C1F
:101F3000B80100200C0000200AE81C4100401C46AB
:101F4000000061444C3D0F44DB0F4940BD378635EE
:101F5000E801002035FA8EBC1C0A0020740800201D
:101F60000000E144000020412DE9F0410446806872
:101F70000D46014609F096FF07466068014609F0E4
:101F800091FF06462068014609F08CFF314609F0B2
:101F900031FF394609F02EFF0BF0B6FB064610F074
:101FA000FF4F0ED03146206809F0AEFF2860314661
:101FB000606809F0A9FF68603146A06809F0A4FFD5
:101FC000A860BDE8F0812DE9F04F87B0002606F04B
:101FD00024FFDFF808B405465C46DBF84400281A05
:101FE000039009F0E4FFFE49C96809F05BFF059022
:101FF000DFF8F0A3656400249AF82E700BF18A05CF
:102000004FF07E58F5487E3030F9140009F0C6FFD5
:10201000059909F047FF4DF8240027B3384609F029
:10202000C6FF0146404609F06FFF81460490EB4829
:10203000843030F9140009F0B1FF494609F032FF4D
:1020400081464146049809F02AFFE74951F82410D7
:1020500009F028FF494609F0CDFEE34941F8240084
:1020600009F0AAFF03E0DD48843030F8140025F8B9
:10207000140035F91400641C00FB0066032CC1DB5E
:1020800064204643D94869460088404396FBF0F4F3
:10209000D5481830FFF7A9FDD34EA0B218364938FD
:1020A0003C2826D2D2480024A946B0F8F20009F014
:1020B0007EFF45464146049009F09CFE01462846B5
:1020C00009F022FF4FEA000539F9140009F066FF14
:1020D000074656F82410049809F0E4FE394609F042
:1020E00089FE294609F0DEFE46F82400641C032C14
:1020F000EADB5D46BBF9020009F050FF3446B168E7
:1021000009F088FF01D2012000E00020B949A14672
:102110004873D4E901010AF019FDB04E98363060D9
:10212000A068014609F0BEFE07466068014609F056
:10213000B9FE394609F05EFE0BF0E6FA014620686A
:1021400080F000400AF002FDAB4F70603946306805
:1021500009F0A8FE0AF0EAFEA6F1600439462080E4
:10216000706809F09FFE0AF0E1FE60800820FFF72A
:10217000AFFCDFF888B2002869465CD09A480C387A
:10218000FFF733FD9A48984F002446460C3FB0F8BD
:10219000F40009F00CFF3146049009F02BFE0146D3
:1021A000304609F0B1FE06468C48903030F91400F4
:1021B00009F0F4FE804657F82410049809F072FEE6
:1021C000414609F017FE314609F06CFE47F824003D
:1021D000641C032CE8DB8448B0F10C00FFF74AFED6
:1021E000ABF800000398FFF7B0FD9AF8760056466A
:1021F00000284AD0D9F808004C46014609F052FEA2
:1022000080466068014609F04DFE07462068014699
:1022100009F048FE394609F0EDFD414609F0EAFDB6
:102220000BF072FA0146A06809F06EFE744988420C
:102230000DDC002028E06948A030FFF7D6FC674994
:10224000A0310846FFF790FE6448A030C6E70AF0C8
:10225000EDFB296F09F026FE0AF068FE4FF461716C
:10226000884200DD084609F099FE664909F04CFEF7
:102270000BF084F9044696F8760009F098FE2146A2
:1022800009F010FE0AF052FEA88007B05BE510B519
:1022900002F059FC0220FFF71BFC20B102F084FB86
:1022A000FFF791FE05E04D49002084310880488009
:1022B00088804F48494942797E31881F012A06D0DB
:1022C0008A8882800A8802804988418010BD434BF9
:1022D000B1F90420B3F9064002EB4402032492FB57
:1022E000F4F28280DA80EDE73F4900200C3108608B
:1022F000486088603949C860886070472DE9FE4FA2
:1023000006F08BFD024635483830B0F90010002940
:1023100001DD0B4600E04B42B0F90200002801DD70
:10232000044600E04442A34205DD002901DD0846E1
:1023300004E0484202E0002800DC4042274C05B29D
:1023400046F2A811A06CA2EB0009894502D2002038
:10235000BDE8FE8F2C4EA264DFF8B0A03088DFF815
:10236000B0B0204F4FF07E5840B3206E2269C117A5
:1023700000EB5171A0EBE10097F83110491EB2FB60
:10238000F1F10844C117206600EB5170C01009F04C
:1023900005FE514609F0B8FD59460AF0E1FD4146F7
:1023A00009F07DFD1B4909F07DFD09F005FEE065A2
:1023B0000020206560653088401E3080094F21690B
:1023C00097F83100401EB1FBF0F009F0F0FD5146E6
:1023D00009F09AFD59460AF0C3FD1DE00C000020EB
:1023E000000C00208C07002068080020B8010020A5
:1023F000D80300201C0A00204C3D0F44E8010020B7
:102400008FC2753CEFB6B044E601002080E6C547B8
:10241000B1DC423ED048874A4FF07E58414609F031
:102420003EFDAD4909F03EFD0AF080FDE16D7F6B98
:10243000461A3946404609F02FFD8046304609F0DD
:10244000ADFD414609F02EFD0646606909F0A6FD86
:10245000394609F027FD314609F0CCFC0AF066FD4B
:1024600006464FF0FF3B6061FA2D01DD584613E050
:10247000284609F093FDDFF86482414609F00FFD1C
:102480000746206A09F08AFD394609F00BFD4146EE
:1024900009F03AFD09F090FDA0F10108074620621D
:1024A000B8F1C70F03D2F01B6761E06126E0E06975
:1024B000361A6661002F21DDC7F5967009F06EFDB2
:1024C000874909F021FD8246A06151464FF07E50B8
:1024D00009F0E2FC0090304609F060FD009909F037
:1024E000E1FC0646384609F059FD514609F0DAFC90
:1024F000314609F07FFC09F05FFD6061A06809F0DA
:1025000056FD0746774909F0CDFC0646E06809F01C
:1025100045FD82467448806809F040FD514609F047
:10252000F3FC8246E16E09F0BDFC394609F0BAFCC5
:102530000090206D3146019009F0B4FC07465946E1
:10254000009809F01FFD314609F0ACFC394609F04E
:1025500051FC616D09F04EFC83466448C76B4FF037
:102560007E50394609F098FC06466069029009F0F1
:1025700015FD314609F096FC06463946584609F0E5
:1025800091FC314609F036FC6065B8F1C70F01D205
:10259000029801E009F010FD6066DDE9001009F025
:1025A00029FC2065FFF7A0FE484609F000FD07461C
:1025B0006669A06D301A09F0F1FC4D4909F072FC12
:1025C000394609F0A1FC09F0F7FC40F2DC52514217
:1025D000A66504F0CFFC0A21FFF7F6FA434E8146C8
:1025E0004FF07E50D6F83880414609F055FC07463A
:1025F000484609F0D3FC394609F054FC07464146E9
:10260000206D09F04FFC394609F0F4FB20650AF013
:102610008DFC07460521FFF7D7FA2063B5F5487F03
:1026200057DA20784FF49678C8F10009C8B3A06A49
:102630004246C51BB07A6843C11700EBD160401118
:10264000494604F097FC6062307DE16A294A00FB4C
:1026500005105142E06204F08DFC42F20401E06298
:1026600090FBF1F0616A084460625046E16C09F049
:10267000C1FB0546B07F09F09AFC294609F012FC1F
:102680006FF0080109F07EFC09F096FC9622514299
:1026900004F070FC616A081AC4F84CA06062012062
:1026A00056E6FFE7D4E91910401A4FF4FA72514286
:1026B00004F060FC0A21FFF787FA014630794246B0
:1026C0004843C11700EB5160C011494604F052FC69
:1026D000AEE70020E0E70000D048874A00006144F0
:1026E0000000C842BD378635740800208C070020E2
:1026F000002474492003190070B5C44D04462868AD
:1027000008F0DAF80028FAD0E1B2286808F0BCF83E
:10271000204670BD86B0FEF723FF0020FFF7C9F901
:10272000FEF752FFBA4CA07B00B1012008F05BFA23
:10273000B848B949B94D00680126884201D12E60D8
:1027400004E0B749884201D10220286006F0AEFBC0
:10275000FEF75EFF07F055FC022802D12868022828
:102760001AD02868032802D0012005F04BFE94F807
:102770000E01002518B1012811D009280FD08DF8BD
:10278000145084F80E5100BF94F8250188B1012837
:1027900008D0092806D00CE003202860E7E78DF870
:1027A0001400F1E794F80E11884202D08DF815005C
:1027B00003E08DF8155084F8255105A805F0FEF9C1
:1027C0000220FFF79AF908B101F0D2FF04F0DAFB1A
:1027D0000E20FFF785F901F06DFE10B9032006F019
:1027E000EBFB90494FF0100AC1F800A0A1F10408DA
:1027F0004FF00809C8F800900027A8F1040B00BFAB
:10280000DBF8001081F01001CBF80010DBF80010AD
:1028100081F00801CBF80010192006F027FB0120F9
:1028200006F02FFB192006F021FB002006F029FB03
:102830007F1CFFB20A2FE3D34F46C8F80090C8F8B8
:1028400000A0FFF77FF900F032F9D4F8300102F070
:102850002CFB60790E2809D0082807D08DF8065087
:102860004FF48070FFF749F938B902E08DF806603F
:10287000F6E70820FFF741F900B101208DF80200CA
:102880004020FFF73AF98DF803000120FFF735F9F2
:102890008DF801000820FFF730F9DFF8708180F033
:1028A00001008DF80000DFF8809198F816008DF88F
:1028B000040099F8C0004FF47A7AC0F380008DF8D4
:1028C0000500B4F8DE00ADF80800B4F8E000ADF89B
:1028D0000A00ADF80CA04FF48040FFF70EF918B1D4
:1028E000B4F8DA00ADF80C00BDF80800B0F5FA7FD6
:1028F00001D9ADF80C50B4F81A01ADF80E00B9F8D2
:10290000BC00ADF8100094F80E01012826D009286B
:1029100027D08DF80750684606F06EF99DF8120032
:1029200088F81700414B002040F2DE5223F81020B7
:10293000401CC0B21228F9D33E4A3D48106088F8C6
:1029400015700820FFF7D9F8F8B194F81701052899
:102950001FD2DFE800F00A0A0E1216008DF8076099
:10296000D9E707208DF80700D5E7324804F0C6F90B
:102970000FE0304804F072FC0BE02E4804F014FD28
:1029800007E02C4805F00DF903E094F82B0103F063
:102990005CF90120FFF7B1F830B14FF48060FFF728
:1029A000ACF808B102F063F94020FFF7A6F848B18F
:1029B00094F83811D4F8340107F08FFE94F83901F7
:1029C00007F09EFE4FF40060FFF797F808B104F09F
:1029D00079FF06F022FA184908606079052803D1CA
:1029E00016494FF4C87008801549C820A1F800A006
:1029F000144908801448467301F0A1F8FCE7044824
:102A0000B0F9D40000F051F9FEE700008C08002076
:102A1000D80300207403002000127A00C8000020B0
:102A2000001BB700140C01408C0700202E0A002068
:102A3000FD3600081401002010010020B401002020
:102A4000B6010020E60100201C0A00200146FE48D5
:102A500000EBC100B0F97C00122804DA082902DA80
:102A6000FA4931F910007047F74A02EBC00090F9BB
:102A70007E00084202D04FF0FF30704701207047BF
:102A80002DE9F041F24DF34E00244FF480473846D3
:102A9000FFF733F810B1B5F8DA0001E0B5F8D4006B
:102AA00026F81400641C0C2CF1DBBDE8F0812DE944
:102AB000F047E74CE84E607906EBC000407800B183
:102AC0000120E64DA8752020FFF717F84FF0010A06
:102AD00008B185F816A06079DFF87893E04D09F128
:102AE0001809162808D016F8301006EBC000297017
:102AF000426812B300201EE00020CC4604EB001117
:102B00000A6912F0FF4F18D014310CEB0013C2C940
:102B100004C3401C83E8C2002978491C29700C2892
:102B2000ECDB0AE002EB001609EB001396E8C0119B
:102B300083E8C011401C8842F4DB4FF48040FEF76C
:102B4000DCFFD8B12F78012F18D9002614E000BF80
:102B500009EB06154FF0FF384146A86809F012FA54
:102B6000A8604146686809F00DFA68604146E86867
:102B700009F008FA761CE860BE42E9DB6179B948E1
:102B8000082906D00E2904D000210174BDE8F047C1
:102B900076E780F810A0F9E7F0B50021AC4A0B46C3
:102BA00010F1010002EB0114491C23610C29F9DB2F
:102BB000A94B03EBC0014C68002C0FD0002113F887
:102BC000300009E004EB011302EB011593E8C81093
:102BD0001035491C85E8C8108842F3DCF0BD9F48D9
:102BE00010B5807D00284DD09D4C9948241D427918
:102BF000E0882189082A27D006DC012A15D0042A7A
:102C000029D0052A06D10AE00E2A29D0142A22D07A
:102C1000152A25D02020FEF770FF002832D0218809
:102C2000002006F080F8618813E08D498648091D70
:102C300090F8BF00498908B100201FE0894840781A
:102C40000028F9D10021F7E70146002006F06BF8D3
:102C50002189012012E0002006F065F86189F8E77B
:102C60000146002006F05FF82189012006F05BF89C
:102C70006189022006F057F8A1890320BDE81040C1
:102C800006F051B810BD70B5724E0024183E744D58
:102C900007E000BF36F81410204606F03DF8641C2B
:102CA000E4B228788442F5D370BD6D4A694B0021A7
:102CB0001278183B04E000BF23F81100491CC9B288
:102CC0009142F9D3DFE72DE9F047DFF89891644CA2
:102CD000002599F80100644F5D4E241D48B3B6F8F5
:102CE000D220B6F8D010B7F9060004F043F95949DC
:102CF000E0811839B046088096F82201524E4FF014
:102D0000640A48B30220FFF7A1FEB6F98A20B6F99B
:102D1000881004F02FF9B8F81A31181A0FFA80FC4D
:102D20004F48B0F90220624506DA98F822111144A2
:102D300007E0B6F8D400DAE704DD98F82211A2EB38
:102D40000101418096F98E10B0F9020001FB00F1FB
:102D500091FBFAF01844A08099F80A0050B1388825
:102D600000EB0501E18000EB25402081B8886081FF
:102D700078880AE03D48018801EB0502E28001EB1A
:102D800025412181818861814088A0814FF0030223
:102D90004FEA0A0306EBC20034F9121090F97E00E4
:102DA00000FB01F090FBF3F024F812001046FFF74F
:102DB0004DFE34F81210084424F81200521C072A61
:102DC000E8DBBDE8F0872DE9FC5F254C264E274D5A
:102DD0002078032814D9B6F904004142002801DD07
:102DE000024600E00A4602F1640200DC08466FF089
:102DF0006301A1EB0001B5F9040004F0BBF8A88061
:102E00001748DFF85090DFF840A00078A9F11809C2
:102E100001284FD9002480464AE000BF9AF9BE003D
:102E2000B5F904104042484309F0B8F8094918318F
:102E300001EB0417F96809F035F80190B5F90000C5
:102E400009F0ACF8796813E08C0700202E0A002006
:102E5000D8030020BC080020F8E600088C080020F9
:102E6000CC0000201C0A0020780100205E01002018
:102E700009F018F80090B5F9020009F08FF8B96868
:102E800009F010F88346B6F9060009F087F83968AA
:102E900009F008F8594608F0ADFF009908F0AAFFBC
:102EA000019908F0A7FF09F087F829F81400641CBD
:102EB0004445B3D3DFF8AC83DFF8ACB3EB4C98F800
:102EC0000500082867D006DC012837D0042809D07F
:102ED000052840D140E00E285AD014287DD015286E
:102EE000F7D1D6E00420FFF7B1FD06460221042009
:102EF000FFF7BAFDB5F9041000FB01F3012104202E
:102F0000FFF7B2FDB5F9021000FB0130304420811B
:102F10000520FFF79BFD034602210520FFF7A4FDD6
:102F2000B5F9041000FB01F601210520FFF79CFD17
:102F3000B5F9021000FB016018440BE00520FFF713
:102F400085FD034601210520FFF78EFDB5F904102C
:102F500000FB01306081C0E05246BBF9021012F95B
:102F60007E0F3223484390FBF3F65D460020FFF7C7
:102F70006DFD3044208092F90800B5F900104843F7
:102F800090FBF3F20120FFF761FD10446080A4E0A4
:102F9000FFF799FEA1E0B64F787888B3B8F8D22051
:102FA000B8F8D010B6F9060003F0E4FFE081A9F804
:102FB0000000B87A4FF0010100284FF0030023D041
:102FC000FFF752FDB6F9021000FB01F302210320C6
:102FD000FFF74AFDB6F9001000E042E000FB0130C7
:102FE000E08001210420FFF73FFDB6F9021000FB4D
:102FF00001F302210420FFF737FDB6F9001020E0AD
:10300000FFE7B8F8D400D1E7FFF72EFDB5F90210BD
:1030100000FB01F302210320FFF726FDB5F90010A4
:1030200000FB0130E08001210420FFF71DFDB5F910
:10303000021000FB01F302210420FFF715FDB5F992
:10304000001000FB013020810320FFF7FFFCE18826
:103050000844E0800420FFF7F9FC2189084420811E
:103060003BE0042301211846FFF7FEFCC3F10501F4
:1030700035F81110484324F813001846FFF7E6FC12
:1030800034F81310084424F813005B1C062BE9D312
:1030900023E0032302211846FFF7E6FCB5F90410EC
:1030A00000FB01F701211846FFF7DEFCC3F1060122
:1030B00021F00101695E01FB007024F8130018463D
:1030C000FFF7C4FC34F81310084424F813005B1C09
:1030D000072BDFD3F188A9F800102020FEF70DFDA3
:1030E000C8B30020FFF7B2FC20800120FFF7AEFC40
:1030F00060496080097A71B39AF8C02051469207FE
:1031000015D591F97E209AF986105542BBF9022017
:10311000BBF9003055433222594395FBF2F591FB40
:10312000F2F16A1A238829449A1A228011E091F94F
:103130007E50BBF9023026885D43322395FBF3F5C0
:10314000354425809AF98610BBF90020514391FB44
:10315000F3F10844608000254FEA0A0606EBC5003B
:10316000B0F97A20B0F9781034F9150003F002FFB5
:1031700024F815006D1C082DF0D396F8C000DFF878
:10318000F8A040070ED53D4800245646C57D2D1FAA
:1031900006EB440001896019C0B205F0C4FD641C4F
:1031A000042CF5D3314F01203F1F4D46B9F9006083
:1031B0003A7805E035F91010B14200DD0E46401CAA
:1031C0009042F7D3002448E0B8F8D200B04205DAC4
:1031D00035F81410301A081A25F814004FF48040FE
:1031E000FEF78BFCA0B1BAF90610B8F81A214046D8
:1031F000914204DDB0F8D220B8F8D81003E0B0F85E
:10320000D620B8F8D41035F9140003F0B3FE15E059
:10321000B8F8D220B8F8D01035F9140003F0AAFE9F
:1032200025F81400BAF90610B8F81C01814207DA33
:103230001020FEF762FC38B1B8F8D40025F814006D
:103240000B48407818B107E0B8F8D000F6E70C4812
:1032500030F8140025F81400641C38788442B3D385
:10326000BDE8FC9FD803002044000020D0000020CF
:103270001C0A0020780A00202E0A00208C0800205A
:10328000BC0800202DE9F047174689460646002570
:10329000DFF828841AE0002411E000BFD8F80010FD
:1032A00081F00801C8F80010012005F0EAFD484649
:1032B00005F0DCFD002005F0E4FD641CE4B2B4423E
:1032C000ECD33C2005F0D2FD6D1CEDB2BD42E2D343
:1032D000BDE8F0872DE9F84FF94BFA4CB3F9060039
:1032E000E18C884201DA642510E0F64AB0F5FA6F05
:1032F00092F8252008DA451A5543C1F5FA6195FB85
:10330000F1F1C1F1640501E0C2F16405DFF8B8E351
:10331000A14694F870B094F871A0BEF81A4100224A
:10332000E74940F2E63C31F91260311B01F2F31734
:10333000674503D8002903DCA11B01E04FF4FA71B3
:10334000022A33D0BBF1000F05D08B4502DAA1EB86
:103350000B0100E00021642391FBF3F3D84F6FF0E1
:103360001808243707EB430C37F91370BCF902C077
:1033700003FB08F3ACEB070C01EB83030CFB03FC32
:1033800064239CFBF3F31F44D04B23F8127099F88D
:1033900023304B434FF4FA7193FBF1F1C1F1640117
:1033A00089B26943642391FBF3F11CE0BAF1000F89
:1033B00005D08A4502DAA1EB0A0100E000219EF95E
:1033C000EC30DFF808C35B424B43ACF8043099F8AB
:1033D0002430002900DC49424B434FF4FA7193FB3F
:1033E000F1F1C1F1640109EB0207642397F801C010
:1033F000DFF8D8820CFB01FC9CFBF3FCA8F17608FB
:1034000008F802C097F80BC008F103080CFB01FC98
:103410009CFBF3FC08F802C07F7D4F4397FBF3F160
:1034200008F10303A642995405DAA84931F812308D
:103430005B4221F81230521C032AFFF671AF764628
:10344000BEF81C114FF4FA6203F094FDB6F81C119B
:103450004FF47A72401A5043C1F5FA61B0FBF1F2B1
:10346000642192FBF1F0964B6FF01805323303EBB9
:10347000400433F910306843B4F9024002EB800095
:10348000E41A444394FBF1F0DFF840828C4D184479
:10349000123DA8F80600687AA8F19804E8B38C48B1
:1034A000B4F91810B0F90000401A08F077FD894906
:1034B00008F0F8FC884908F027FD074609F074FC7D
:1034C000009038460AF05AF883464746B8F900009B
:1034D00008F064FD8246594608F0E4FC8046B7F9DE
:1034E000020008F05BFD8146009908F0DBFC4146D4
:1034F00008F080FC08F060FD80464846594608F018
:10350000D1FC81465046009908F0CCFC494608F0B1
:10351000C3FC08F051FD388000E001E0A7F802800C
:103520000220FEF7EAFA0027E8B3E189E06C0844DC
:10353000E064E079401CC0B20621B0FBF1F2E0711A
:1035400001FB120080BB606CC11700EB5171A0EB56
:10355000E1006064002004F0B7FB616C0844C1170F
:10356000606400EB5170C0F3CF0001F0D6F86083C7
:1035700096F80E01C0B1A06CC11700EB5171A0EB21
:10358000E100A064022004F09FFBA16C0844C11775
:10359000A06400EB5170C0F3CF0001F0D6F8A06634
:1035A000E16C484301E021E014E04FF47A7190FBB4
:1035B000F1F0DFF818C1C117ACF1180CDCE90423F5
:1035C00080185941CCE90401444A002308F010FB5B
:1035D000E764E066608B218C884203D896F80D1171
:1035E000814201D9A77101E00420A071A07903F004
:1035F00028FC3B48314E008818B10220FEF768FADB
:1036000010B93848008820B1306880F00800306078
:103610000CE0A978082011B12849091D08606978D3
:1036200011B126490831086004F031F98020FEF715
:1036300064FA48B1216DE06A411A05D44CF2503168
:103640000844206505F0A0FF216CE06A411A03D40C
:10365000697B39B10120A87002F018FA224800787D
:1036600048B10FE0AF70316881F0080131601F4947
:1036700008442064F0E74FF40060FEF73EFA08B11A
:1036800004F03DF92020FEF723FA68B1616DE06A8D
:10369000411A09D4217B052906D3154908446065E0
:1036A000306880F01000306012488168002923D013
:1036B00001B00648BDE8F04F7C3808470C0C0140CB
:1036C0002E0A00208C070020D8030020780100205B
:1036D000E8010020DB0F494000003443407E050034
:1036E000B4010020B60100200000002020A1070046
:1036F000F0490200000C0020BDE8F88FF7490844AB
:1037000090F80F0105F019BB2DE9F0470820FEF7EE
:10371000F4F9F34EF34D4FF0000440B1716BE0B299
:10372000884725F81400641C082CF7DBD0E5ED4F22
:1037300040F2DD584FF000098E3F716BE0B28847D0
:10374000A0F2EE21414502D3E448B0F81A01B16D70
:1037500007EBC402CB1701EB937323F00303C91AE1
:1037600022F8110025F814905FF0000035F81430AD
:1037700032F81010401C194425F814100428F5DB09
:1037800035F91400C11700EB9170801025F8140072
:10379000641C082CD1DBB06D401CB06598E5D248A4
:1037A0000288D0481238417852B9827842B1002953
:1037B00005D101214170CD48C9490088088370476F
:1037C0000029FCD10122FF2102205BE52DE9FC5FED
:1037D00000208346054607460190C1489830B0F95D
:1037E00002104B42002901DD0C4600E01C468246D7
:1037F000B0F900004242002801DD064600E016460E
:10380000B44205DD002901DD084604E0184602E067
:10381000002800DC1046DFF8D89200240090B14E5A
:10382000123EF07808B93079F0B3022C40DAAC4897
:103830003C3030F914103AF9140001EB4000A7496C
:10384000B1F8F820514203F095FBAA49DFF8A8B27D
:1038500031F91410411A0BEB4400B0F92A0001EBC6
:1038600000089BF80810642001FB08F191FBF0F0C0
:103870009BF81C1001EB8102494201EB810103F02E
:1038800079FB0190964842F21072843050F824106F
:1038900001EB0800514203F06DFB9149843141F87E
:1038A00024009BF8121000E008E048434FEA203B58
:1038B000F07818B1307908B9022C4FD13AF9145088
:1038C000884F05EB850001018B489A3F00EB040807
:1038D0004FF47A5298F8010091FBF0F039F9141086
:1038E000401A57F824100844514203F043FB47F8AC
:1038F000240039F9140000F52070B0F5A06F06D847
:10390000022C07D1BAF904006430C82802D900207B
:1039100047F8240057F824007D2190FBF1F198F836
:103920000B00414330798F11B0B1022C14DA0098AA
:10393000009BC0F5FA71019801FB00F2009801FBB1
:103940000BF105FB00204FF4FA7207FB031190FB0B
:10395000F2F091FBF2F608E0F07820B1022C02DAE6
:103960005E46019801E028463E465D4A39F914104A
:1039700022325023125DDFF86C814A4392FBF3F24E
:10398000574B821A7833A8F14E0833F9140023F804
:103990001410081A08F10C0158F8243051F824C00A
:1039A00041F824309C44844448F824004C48283092
:1039B000005D00FB0CF0C11700EBD1609119A1EB89
:1039C000601047497E3121F81400641C032CFFF677
:1039D00026AFBDE8FC9F2DE9F05FDFF804B1414E52
:1039E00000240BF1980BDFF810A19A3EDFF8F0905D
:1039F00001E0022C71D03A483BF914103C304FF4EE
:103A0000FA7230F914000844514203F0B3FA39490C
:103A1000554631F91410401A0AEB4401B1F92A1045
:103A2000084408F0BBFA354908F06EFA08F0C4FA09
:103A30002C4A123AD178E9B3297A41430911AA46AE
:103A40002B480AEB040730F91400FA7A0D1A78783B
:103A500056F8241068434FEAE018B9F80E0068439E
:103A6000C01200FB02104FF4001246F8240051422D
:103A700003F080FA46F8240043131A481E3850F821
:103A8000241040F82450B9F80E00691A02094FF6C4
:103A9000FF70B0FBF2F0484312498011363901F152
:103AA0000C0251F8245052F824C042F82450AC447F
:103AB000844400E02CE041F82400787D08EB030109
:103AC00000FB0CF001EB202005497E3121F81400A9
:103AD000641C032C8DDBBDE8F09F11E0D8030020AF
:103AE000E00000202E0A0020B6010020E80100209E
:103AF00084000020440000208C07002000002041AA
:103B00009AF82400BBF904101B304843411197E791
:103B100095F823103BF914301B31594312790911E0
:103B2000002A8CD0AA7C424301EB222187E7FA4984
:103B3000012801D0F94800E0F948886370472DE971
:103B4000F84F0027B946B84608200097FDF7D5FF83
:103B5000DFF8D0B3A0B19BF81701052810D2DFE839
:103B600000F0030306090C0003F0EBF807E003F094
:103B700098FB04E003F028FC01E004F007F8009053
:103B8000DFF894A3E84C4FF00106DAF82C10DAF8CD
:103B90005C004FF00005081A02D50098002876D086
:103BA00044F620621144CAF85C10FFF7ADFD4FF4F3
:103BB0008040FDF7A2FF28B1DB485C30007808B9EF
:103BC00000F06BFC00F074FDAAF81E004FF40070CA
:103BD000FDF793FFD8B3D548BAF9102090F8B8C0D4
:103BE0000CEB8C0191421FDA6078E8B1CE490020DD
:103BF000BBF91A3111F1120121F81030401C0328D1
:103C0000FADBCA48B0F8BA30CB8090F8B90060440B
:103C100000EB8000904202DA00F03FFC2570BAF819
:103C20001210491CAAF81210C04890F8B80000EB16
:103C30008001BAF91000814204DA607810B900F00E
:103C40002CFC2570BAF81010491CAAF81010BBF80B
:103C50001CC1BBF81E310020B349BF08123131F935
:103C60001020624501DD47F080079A4201DA47F0F3
:103C70004007401C0428EFDB9AF8091050468F4299
:103C800006D1017AFA2904D2491C017201E054E2FA
:103C900005728AF809704FF480473846FDF72DFF0A
:103CA00068B1A14ABBF81A111232BBF8DC00B2F9B4
:103CB00006200B1A934202DA084490420BDC384685
:103CC000FDF71BFFF0B998481230B0F90610BBF8A9
:103CD0001C01814216DA94484FF0010888380560CB
:103CE000456085608C488430056045608F48B0F839
:103CF0004600C8B18C485C30007858B1207898B143
:103D0000FFF74DFD8948B0F8460068B186485C3041
:103D1000007848B9607838B19BF8210110B9B8F142
:103D2000000F01D000F0B9FB9AF80800142848D120
:103D30006078B8B17D4FB7F8460028B99AF8090005
:103D40005F2801D100F0A9FB9BF82001002838D0A2
:103D5000B7F84600A8BB9AF809007D2831D100F0D9
:103D60009CFB8FE09AF80900572809D00420FDF742
:103D7000C4FEE8B19AF8091050465A2922D017E03B
:103D80006B494FF47A7008804FF48070FDF7B5FEF0
:103D900008B102F05BFA0420FDF79AFE10B1654904
:103DA0000A2008800820FDF793FE08B962480580C4
:103DB0009AF809005D2816D05B2816D05E2816D028
:103DC00022E05FE0C17819B1C5708AF804601BE099
:103DD000817891F00101817001D0022100E003217E
:103DE0008AF8001010E0012702E0022700E0032714
:103DF000781E8BF8B00300210846FDF770FC3A46A8
:103E000028210220FFF73EFA484FB7F8460018B9BC
:103E10009AF809106F290ED09BF8201121B118B91A
:103E20009AF809007E2806D09AF80900972805D04C
:103E3000A72808D008E0FFF7B2FC05E03F494FF49F
:103E4000C870088000E0A6739AF80900BB2806D065
:103E5000B72807D0BE2809D0BD280AD012E0B88DF7
:103E6000801C01E0B88D801EB88505E0788D801C2F
:103E700001E0788D801E788501210846FDF72FFC32
:103E80008AF808500420FDF738FEF8B19AF80220AD
:103E9000504632217AB162786AB1234A1232B2F9BD
:103EA0000630BBF81C21934205DD1F4A5C321278B4
:103EB0000AB9818285701C4A5C32527C3AB14279DF
:103EC000C3781A4300D181828AF8056006E0C17880
:103ED00021B1617811B9C5708AF80460DFF848E053
:103EE00000200EF1120E40F2A46700BF0EEB40015D
:103EF000B1F9082040F214518A4201DA012300E0AE
:103F0000002300EB40018B40A2F2155CBCF5C77F9B
:103F100016D84FF0010C15E0E0000020CD37000866
:103F2000D7390008D80300201C0A00208C07002085
:103F3000B6010020E6010020E8010020B4010020C5
:103F40004FF0000C01F101080CFA08FC43EA0C03E5
:103F5000BA4201DD012200E00022891C8A4013439D
:103F600043EA0903401C1FFA83F90428BEDBFE4F15
:103F70000020FE4901EB4001B1F8461011EA0901A9
:103F800000D001213954401C1528F2DB787840B963
:103F9000F64890F8B80000EB8001BAF910008142B1
:103FA0000ADA0220FDF794FD30B1E07828B9F04834
:103FB00005604560E67000E0E570B87838B1E570FE
:103FC000207928B9EA4805604560267100E025712E
:103FD0003878B84600B92670E178102009B92179FF
:103FE00009B1E44901E0E349091F08600420FDF735
:103FF0006FFDF8B198F80300474680B1A07978B911
:10400000DD48A6710168DD480160D9481430C188D7
:10401000DB48AAF816100560DA48056000E0A571D3
:104020004FF40050FDF769FD20B1387918B1E07BFD
:1040300000B9E67300E0E5730220FDF749FD18B909
:104040000820FDF745FDD0B198F80510404639B17C
:10405000617931B9CC4966710A88CC490A8000E09F
:104060006571817919B1617A11B9667200E0657282
:1040700098F8070018B1C4480188AAF81810202041
:10408000FDF726FDE8B3E07AE0B39AF80C00574656
:10409000052840D398F80A1061B1E07988BBB4498B
:1040A000E67125722831BD72081F02F03CFD022026
:1040B000787034E0E57198F80B0020B3AC4A143204
:1040C000B2F90000002800DC4042A849B1F8CC1049
:1040D000884218DAB2F90200002800DC4042884227
:1040E00011DA207A68B9A24826721C30BD7200F13C
:1040F0001001026804C140680860081F02F013FD47
:104100007E700CE007E02572B87A40B98AF80A6040
:1041100002F0AFFC03E0E57125728AF8015098F8CF
:104120000C0008B1A67200E0A5729BF805000828F3
:1041300001D00E283DD165723BE0DAF864005746A5
:10414000052836D2DFE800F0030B151F2A000820EF
:104150007E66FDF7BDFC10B100F010FD48BB786E27
:10416000401C78660420FDF7B3FC10B100F03DFC64
:10417000F8B9786E401C78660420FDF7A9FC10B1F0
:10418000FEF7BCF8A8B9786E401C78664FF48070D2
:10419000FDF7B3FC10B102F017FC0AE010207D66B9
:1041A000FDF796FC08B100F06DFD4FF40050FDF7EF
:1041B000A4FC04F032FECAF82C00BBF80C205746D1
:1041C00012B13B6EC31A79D41044D8463866FEF754
:1041D0005EF804F022FEF862398E411AF9813863E4
:1041E000FFF778F80820FDF773FC48B360491431F5
:1041F000B1F9042002F145008A2822D8607900B381
:104200006148038861480088181A00B210F1B40FA1
:1042100002DC00F5B47000B2B42802DBA0F5B47083
:1042200000B298F9EC305B42434318B2637B3BB178
:104230004E4B5B7A43431E2093FBF0F0101A8880AC
:1042400003E051480188514801800420FDF740FCFB
:1042500070B1A07960B1207C88B1454849491430DB
:1042600098F92331B0F90220096801FB032141804C
:104270003E4D95F8760088B3E07880BB50E0DFF8DB
:10428000F0903A4909F11409B7F9163091F8730022
:10429000B9F90620E8B1A2EB030CBCF1000F01DC78
:1042A000A3EB020C91F87200844508DD34499A4270
:1042B0000D60FE7200DD4042104407E0EBE0F87A4A
:1042C00020B32D4801682D4801601EE0A9F80600C2
:1042D000CEE7D01A002803DD024602E029E021E003
:1042E0009A1A91F872C02A49624507DD294A00EB03
:1042F000D070401010600E70FE7207E0F87A28B19E
:104300001D4802681D4802600D70FD721D48B8F816
:10431000D220B8F8D0100068184402F02BFED5E780
:10432000207930B112481C4A1430C18812881144D7
:10433000C1802020FDF7CCFB90B3E07908B9207A4A
:1043400070B3207B60B3104CB4F9000007F026FE78
:10435000124E314607F0A6FD09F010F90090B4F9AD
:10436000000007F01BFE1CE0780A00208C070020EC
:1043700064010020140C0140700000207400002033
:104380003800002030000020E8010020EA01002071
:104390000C000020340000201000002035FA8E3C74
:1043A0006FE0314607F07EFD08F0FEFC0646AA46A7
:1043B00095F8C5003C4DDFF8F480A5F1340980B3D1
:1043C0002C1DB5F90200B4F90210401A01F0E8FC06
:1043D0009AF8C520514202F0CDFD61880844608002
:1043E000B5F90000B4F90010401A01F0D9FC9AF8B0
:1043F000C520514202F0BEFD2188084400B2208051
:1044000007F0CCFD8346009907F04CFD0546B4F952
:10441000020007F0C3FD8246314607F043FD2946FE
:1044200012E0FFE7B5F9000007F0B8FD83460099F8
:1044300007F038FD0446B5F9020007F0AFFD8246EB
:10444000314607F02FFD214607F026FD454641463F
:1044500007F05AFD07F0B0FDA9F800004C46584699
:10446000314607F01FFD06465046009907F01AFD39
:10447000314607F0BFFC294607F046FD07F09CFDDA
:104480006080B86B8047FEF79EFCFEF7A8FBBDE896
:10449000F84FFEF7F8BBBDE8F88F054841780029D2
:1044A00001D00021417070475001002000002041E0
:1044B0001C0A00202DE9F84FF84CF94BF949002669
:1044C0003746B4F8F0209B46A1F1100005F056F9EC
:1044D00008B101271AE0F4480068032809D1F1491E
:1044E000B4F8F020A1F1100006F079FA08B1012625
:1044F0000CE0B4F8F010EB4805F040FB30B9B4F82C
:10450000F010E84804F04DFA00287DD0E74D4FF058
:10451000020A4FF001094FF0000800BF94F8ED00C7
:1045200007284BD2DFE800F008081A3742290400B8
:104530000220FDF7DAFA41E08DF800804FF4487070
:10454000D849ADF802001039684603F066FC08B19E
:1045500085F8009094F8ED0001282FD06FB1D14973
:10456000B4F8F0205B46A1F1100005F007F985F8DA
:1045700000A094F8ED0002282BD066B1C949B4F828
:10458000F020A1F1100006F02AFA0520287094F816
:10459000ED0005281DD0C348103805F0E9F928B111
:1045A0000320287094F8ED00032812D0BD4810387D
:1045B00006F049F910B1042028700AE0287840B9C3
:1045C00094F8ED0010B184F8ED80A7E70220FDF724
:1045D0008CFAB448203003F0C5FC38B9B14820301B
:1045E00005F0CFFB10B90420FDF77FFA0220FDF79C
:1045F0006FFA28B1AB4994F8E3001039096888478D
:1046000094F8E200A74900E050E0096888474E4668
:104610004FEA080794F8EE0048B1012807D00228B5
:104620000FD0032815D10820FDF75FFA11E09D484F
:10463000103003F0BEFE20B16E7094F8EE00012839
:1046400012D09848103006F066FA10B185F801A033
:104650000AE0687840B994F8EE0010B184F8EE7082
:10466000D8E70820FDF741FA91486421B0F92820E5
:1046700092FBF1F001FB102406B20820FDF728FAA6
:104680008C4D88B1204607F089FC8B4907F00AFC65
:104690000446304607F082FC214607F0ABFB874911
:1046A00007F000FC286000E02F600120BDE8F88FD3
:1046B00010B57A4C002094F82411B1B180484FF421
:1046C0007A7200EB41000021B0F90600A0F57A7083
:1046D00002F050FC07F062FC7A4907F015FC7A49B9
:1046E00007F0E0FB07F081FC15E094F825110029A4
:1046F00012D0032003F0E8FAB4F8281140F2FF3298
:10470000401AB4F82611C0EB802090FBF1F000B203
:10471000002102F02FFC80B210BD70B505465F4845
:1047200090F80B0107F043FC0446284607F03FFCD5
:10473000664907F0B7FB664907F0E6FB214607F03C
:10474000B1FB07F052FC80B270BD40F6E441484333
:1047500040F6FF71B0FBF1F05049B1F80821B1F813
:104760000611801A4FF47A72504390FBF1F07047B3
:1047700070B500252C46002003F0A6FA05440A2057
:1047800004F074FB641C202CF5D3C5F34F10FFF725
:10479000C4FF424A012192F80C3100BF03FB01F42F
:1047A000844202D8491C0829F8D34A48017092F87B
:1047B0000D0148434849088070BD2DE9F05FDFF8DE
:1047C000EC90464E3A4FB9F80420344C0025CAB359
:1047D000434900204FF4C878424501D141F82050A8
:1047E00051F8203036F910C0634441F8203026F8E3
:1047F000105004EB4003401CA3F8FA500328EBDBF5
:10480000012A1AD10868C83090FBF8F0A4F8FA0021
:104810004868C83090FBF8F0A4F8FC008868C830FD
:1048200090FBF8F1B9F80800081AA4F8FE007D859D
:104830000121BD850846FCF752FFB9F80410491E56
:10484000A9F804100420FDF758F900287DD0254B65
:10485000DFF8588022491A8808F124080C31A8F1A1
:104860001A0A322A05D0FAB300209B46322A3CD0DD
:104870003DE0B4F8FA00A8F80000B4F8FC00A8F88D
:104880000200B4F8FE00A8F80400B7F82AC0AAF89D
:1048900000C0B7F82CC0AAF802C0E5E7D803002092
:1048A000A0080020000C0020C8000020B00100205B
:1048B0008C070020400000208988883C00002041AF
:1048C0002E0A002000007A4400C07F443333534056
:1048D00000F07F459C010020000100209000002096
:1048E000D00A0020F400002032E041F8205051F8B6
:1048F000203036F910C0634441F8203026F81050BB
:1049000004EB4003401CA3F8FA500328AEDB012A55
:1049100019D1F548F54B057001201870F44B0220B1
:104920001870B8F80000A4F8FA00B8F80200A4F86B
:10493000FC00B8F80400A4F8FE00BAF800307B854B
:10494000BAF80200B885521E00E01EE0ABF8002065
:10495000E8480278CAB105700A68322092FBF0F28A
:10496000A4F8FA204A6892FBF0F2A4F8FC208968C7
:1049700091FBF0F1B9F80800081AA4F8FE007D8553
:104980000121BD850846FCF7AAFE308834F8FA1FDD
:10499000401A308070886188401A7080B088A18881
:1049A000401AB080BDE8F09FD34810B54168D348A5
:1049B0008847BDE8104000E730B5D14CD14A2069A6
:1049C00092F831200146401C824200D10020CE4A9C
:1049D0001368CE4A42F82130CD4952F820200D68A4
:1049E0002B449A1A0A60206130BD70B5C948C44C86
:1049F00000686169411A01D5002070BD6061BE4D3B
:104A0000A069303578B12869804768688047288870
:104A10006169084460616A69BF49BB4890470020EA
:104A2000A061022070BDA8688047E8688047FFF752
:104A3000C3FF0120A06168886169084460610120AA
:104A400070BD2DE9F05FAE4DE88800286DD0DFF82D
:104A5000A8820024A8F13C08A3464FF47A79A8F173
:104A60000C06E888484507D104EB840208EB820174
:104A700046F824B0C1F810B0A84F56F8241037F902
:104A80001400014446F8241007F088FA014604EBAC
:104A9000840208EB8200824600F0F7F827F814B091
:104AA0009F4F27F814B0E888012838D1DAF81000B1
:104AB000012808DD401E07F071FA0146DAF80C0003
:104AC00007F022FA00E0002008F01EFE824695481A
:104AD00090F8F600B0B107F06AFA514607F09AFA7A
:104AE00010D28549A5F806903C39C8F810B0C1F835
:104AF00024B0C1F838B0C6F808B0C6F804B0C6F89B
:104B000000B00CE056F82400012200F5FA7090FB8A
:104B1000F9F027F814000F210A20FEF7B3FB641CFC
:104B2000032C9EDBE888401EE8807C497C4A0020FC
:104B300031F8103032F810401B1B21F81030401CA7
:104B40000328F5DB2EE76C4810B510304168734838
:104B50008847BDE8104074E710B57348102404601E
:104B6000654970482031096890F8E40088476E482C
:104B7000001F046062490120887010BD2DE9F041DA
:104B800064485F4C0068E169411A02D50020BDE825
:104B9000F08166490844E061574820304168644824
:104BA0008847DFF890C1564B00269CF80E006049FC
:104BB0005C4A2A339D1D90B1E06920625FF00000DD
:104BC00002EB4007A7F8006131F8107023F810706D
:104BD00025F81070401C0328F2D38CF80E60A078E2
:104BE00070B10888B2F80071C01B08804888B2F81C
:104BF0000271C01B48808888B2F80471C01B88808D
:104C0000206A90B3E769381A4B4FB84218D2464829
:104C10000838026882F008020260002031F9102092
:104C200033F91040A24201DA23F8102035F9104080
:104C3000A24201DD25F81020401C0328EED314E029
:104C40000020266233F9101035F91040214401EBA1
:104C5000D17102EB40044910401CA4F80011032854
:104C6000F0D301210846FCF73AFD01208FE710B58B
:104C7000012004F0CBFE1020FCF732FF2F4900206A
:104C8000086010BD2D4804F014BF2DE9F041044622
:104C900000690E46401C206101281FD007F07EF9F4
:104CA000256880462946304607F0F6F80746414613
:104CB00007F02AF9294607F09DF805466060294665
:104CC000304607F0E9F80146384607F0EBF8A168EE
:104CD00007F090F8E0602560A06058E7666000206B
:104CE0002660A06053E70000E5000020E3000020FC
:104CF000E0000020E4000020F00B002090000020E5
:104D0000B00100208C070020B8000020E80A002035
:104D10001C0000200C010020BC0000208A000020A4
:104D2000C0000020D8030020140C0140A086010020
:104D30009C0000201C0A002080C3C9012C00002018
:104D400070B5FF4D044621466868006805F09CFD7B
:104D5000686801796140017170BD10B50446C0B248
:104D6000FFF7EEFFC4F30720FFF7EAFFC4F30740A5
:104D7000FFF7E6FF200EBDE81040E1E710B504465E
:104D8000C0B2FFF7DDFFC4F30720BDE81040D7E74E
:104D9000EB4841688B1D4879421C4A71C05C7047E2
:104DA00010B5FFF7F5FF0446FFF7F2FF04EB002014
:104DB00080B210BD10B5FFF7F3FF0446FFF7F0FF18
:104DC00004EB004010BD70B504460D462420FFF7EB
:104DD000B7FF4D20FFF7B4FF0CB1212000E03E20CB
:104DE000FFF7AEFFD64C0020616808712846FFF738
:104DF000A7FF606890F84600BDE87040A0E7014654
:104E00000020E0E701460120DDE7CD484068007959
:104E100096E770B504460D460846FFF7F0FF03E03D
:104E200014F8010BFFF78CFF6D1EEDB2F8D270BDC8
:104E300010B5044603E000BFFFF782FF641C207832
:104E40000028F9D110BD2DE9F05FDFF8F8B2DFF8E6
:104E5000F09201274FF0000A002518E0BA48405DA3
:104E600000EB40010BEB8108D8F8040006F073FF5B
:104E700006460FB1B24409E0002405E0D8F804006A
:104E8000005DFFF75DFF641CB442F7DB6D1C99F811
:104E900000008542E2DB002F05D00AF0FF00FFF79B
:104EA000AEFF0027D8E7BDE8F09F2DE9F041A44E02
:104EB00000278046024603233946A448B76004F021
:104EC00094F9A34CA04D183520602860B068401CB0
:104ED000B060A048006803280ADB03234246002193
:104EE0009D4804F082F96060E864B068401CB060DE
:104EF000FF221521944806F0E8FE934D012402207C
:104F00002F70FCF7E5FD20B1012068700220A87029
:104F100003240420FCF7DCFD50B1032028554FF496
:104F20000050641CFCF7E9FD10B104202855641CF6
:104F30000220FCF7CDFD18B90820FCF7C9FD40B1EF
:104F400005202855641C06202855641C0720285578
:104F5000641C2020FCF7D1FD10B108202855641CEA
:104F60004FF48070FCF7C9FD28B10A202855641C55
:104F70000B202855641C794F7879082801D00E2819
:104F800002D10C202855641C0D2028550420641CD7
:104F9000FCF7B3FD10B111202855641C13202855CF
:104FA00097F83C01641C00B10120FCF7A6FD10B18C
:104FB00014202855641C3470BDE8F0812DE9F05FA1
:104FC0004FF00009CA460FF2981B5D4C0127674E4F
:104FD0006068DFF89C81614D90F846102046752985
:104FE00000786ED023DC69296CD015DC45296AD0A5
:104FF0000ADCA1F1400105297DD2DFE811F013059B
:105000002005C704A6042E0564390529F4D2DFE87B
:1050100001F0ECEBEAE9E8006A390B29ECD2DFE8B1
:1050200001F0EFEEEDECEBEAE9E8E7E6E500504AE7
:10503000DFF840B1CE2952787CD017DCC82930D0B7
:105040000CDC782977D004DC762975D0772952D109
:1050500042E3A02971D0A429F9D1FAE3C93905297D
:10506000CAD2DFE801F0385797A7FD00D42965D0F0
:105070000ADCA1F1CF014FF000090529BCD2DFE81D
:1050800001F0C0F3F2F1F000F02958D004DCD62989
:105090007ED0EF29DBD117E0FA297AD0FE29D6D1CC
:1050A000F5E3354D002400BFFFF77AFE25F8140024
:1050B000641C082CF8D30020FFF7A1FE02F062FD6B
:1050C00003E2ECE202E2FDE3FFF76AFEB085FFF7E0
:1050D00067FE7085D6E3FFF75BFE88F80B00FFF7ED
:1050E00057FE26490870FFF765FE254C2060FFF744
:1050F00061FE606000E0BDE3FFF752FE21490880D9
:10510000FFF74EFE204908802048017841F0020157
:105110000170B7E35FF00004FFF73AFE35196870DD
:10512000FFF736FEE872FFF733FE641C68750A2C41
:10513000F2D3A7E399E392E135E3D1E3A9E1C5E333
:10514000EC010020B0E70008380C002000380140D6
:105150008C080020C800002000480040D803002030
:105160004F63742020312032303134008C0700200E
:105170001C0A0020740000202E0A0020EC000020F1
:1051800080010020AA010020AC010020980100202D
:105190007DE06EE30025FA4F08E000BFFFF700FE58
:1051A000795D6D1C06EB4101A1F84600207885422F
:1051B000F4D367E3FFF7ECFD06F81F0FFFF7E8FDF8
:1051C0007070FFF7E5FD3071FFF7E2FD7071FFF7DA
:1051D000DFFDB071FFF7DCFDB070FFF7D9FDF070B7
:1051E00050E36EE138E104E181E06BE071E2CEE290
:1051F0008DE25BE241E228E2F4E1B6E1A4E191E173
:1052000072E1FFF7CDFDA0F27951C72901D2A5F8CF
:105210001A01FFF7C5FDA5F8D000EE35FFF7C0FD78
:1052200025F81C0CFFF7BCFD25F81A0CFFF7B8FD9C
:10523000A6F8BA00FFF7ACFD85F83C00FFF7A8FD23
:1052400085F83D00FFF7A4FD85F83E00FFF7A0FDBF
:105250002877FFF79DFD85F83600FFF799FD04E0FC
:10526000FDE22BE01EE0C2E2F4E2FFF799FD00EB65
:10527000800040003085FFF78BFD6877FFF788FDE1
:10528000E877FFF785FDA877FFF782FDFAE2BD4DCD
:10529000002400BFFFF784FD25F81400641C082CCF
:1052A000F8D3EFE2002A84D1FFF772FD85F8B0034E
:1052B000022801D985F8B0930021E0E2FFF770FDE4
:1052C000B149D0E20720FFF79AFDE720FFF738FD4C
:1052D0006879FFF735FD0020FFF732FD95F82201D0
:1052E00000B10820A9490843FFF737FDB9E30B20B7
:1052F000FFF785FDA648008800B2FFF73FFD03F0E9
:105300008AFA00B2FFF73AFD0220FCF7E1FB0646FD
:105310000420FCF7DDFB46EA40060820FCF7D8FB3A
:1053200046EA80062020FCF7D3FB46EAC0061020A0
:10533000FCF7CEFB46EA0010FFF720FD98F80310BB
:1053400098F80430490041EA830198F80630424653
:1053500041EAC30198F80530002041EA431198F86A
:105360000930247841EA83138A49CE7943EAC61387
:105370000E7A43EA06234E7A43EA4623D67943EA75
:105380008623167A43EAC623967A43EA06334E7B8F
:1053900043EA46338E7B43EA86330E7C43EA064378
:1053A0000E7943EA06134E7C43EA46438E7C43EA79
:1053B0008643CE7C097D43EAC64343EA015398F80D
:1053C00001106F4E0B4300210AE000BF16F801C028
:1053D00007FA0CF21A4202D007FA01F21043491CF4
:1053E000A142F3D3FFF7B9FC95F8B003FFF7A8FC8F
:1053F00037E31220FFF703FD6748684D4FF00004C4
:105400000088B0F5806F0BD935F91400C11700EB97
:105410005170C010FFF7B2FC641C032CF4D306E0FB
:1054200035F91400FFF7AAFC641C032CF8D35C4D7B
:10543000002400BF35F91400FFF7A0FC641C032C06
:10544000F8D3584D002400BF35F91400FFF796FC3F
:10545000641C032CF8D304E31021534833E03820B4
:10546000FFF7CDFC5FF0000406EBC40535F9780FBB
:10547000FFF784FCB5F90200FFF780FCB5F90400E2
:10548000FFF77CFCA879FFF75BFC641C082CEBD3CE
:10549000E7E20020FFF7B3FC5FF00004FFF780FCB9
:1054A00006EBC40525F8780FFFF77AFC6880FFF754
:1054B00077FCA880FFF76CFC641CA871082CEDD366
:1054C000CFE210213948FFF7A4FCCAE21020FFF711
:1054D00096FC374D002400BF35F91400FFF74EFC51
:1054E000641C082CF8D3BCE21020FFF788FC98F865
:1054F0000B00FFF725FC2F480078FFF721FC2E4C0E
:105500002068FFF72AFC6068FFF727FC2B4800881B
:1055100000B2FFF733FC2A48008800B2FFF72EFCE8
:1055200028482AE00520FFF76AFC2748008800B2D7
:10553000FFF724FC2548B0F90000FFF71FFC2448C2
:10554000007800F0010051E70620FFF758FC214DDC
:10555000002400BF35F91400FFF710FC641C022C76
:10556000F8D31D48B0F900006CE00620FFF747FCB7
:105570001A480068FFF7F1FB1948008861E0000055
:10558000380C0020BC080020EA010020040000C004
:10559000EE000020780A0020B801002096000020CC
:1055A000840000209C000020D0000020A4080020DF
:1055B0002E0A0020EC00002080010020AA0100201B
:1055C000AC0100209A010020A6010020A8010020C3
:1055D0009801002044000020E80100207000002015
:1055E0003C0000200720FFF70AFCF948FF220021B9
:1055F000008801F0BFFCC0B2FFF7A2FBF5484FF6F0
:10560000FF7422460021006801F0B4FC00B2FFF7ED
:10561000B5FBF148008800B2FFF7B0FBEF4895F802
:105620000A11006831B1002800DC404200EB800024
:10563000400002E0002800DC40422246002101F048
:1056400099FC00B2FFF79AFB0BE20720FFF7D7FBAC
:1056500016F81F0FFFF774FB7078FFF771FB3079B6
:10566000FFF76EFB7079FFF76BFBB079FFF768FB14
:10567000B078FFF765FBF078B8E61E20FFF7BFFBB8
:10568000002435196878FFF75BFBE87AFFF758FBD1
:10569000687DFFF755FB641C0A2CF2D3E1E12F2053
:1056A000FFF7ADFBCE48FFF7C3FBDAE14006000E83
:1056B000FFF7A5FB0025CB4F07E0785D06EB400028
:1056C000B0F94600FFF75AFB6D1C20788542F4D3F1
:1056D000C7E1FFF7B8FBC4E1FFF791FB0025C24E1D
:1056E000C04FA0460EE0002404EB440006EB80000F
:1056F000795D007A884201D1FFF722FB641C152CEA
:10570000F2D36D1C98F800008542ECD3A9E1162075
:10571000FFF775FBB5F91A01EE35FFF72FFB35F9E9
:105720001E0CFFF72BFB35F91C0CFFF727FB35F997
:105730001A0CFFF723FBB6F9BA00FFF71FFB95F829
:105740003C00FFF7FDFA95F83D00FFF7F9FA95F8F0
:105750003E00FFF7F5FA287FFFF7F2FA95F83600DA
:10576000FFF7EEFA0020FFF7EBFAB6F928000A215E
:1057700090FBF1F000B2FFF701FB687FFFF7E0FA62
:10578000E87FFFF7DDFAA87FFFF7DAFA2DE00820BF
:10579000FFF735FB0024601CC0B2FFF7D1FA641C90
:1057A000082CF8D35DE1FFF7F3FA04461220FFF767
:1057B00026FB14B1102C02D004E08C4800E08C4889
:1057C000D0E9009A2046FFF7BBFA4846FFF7C5FA32
:1057D0005046FFF7C2FADBF80000FFF7BEFA0020E0
:1057E000FFF7CCFA0020FFF7C9FA0020FEE5FFF72B
:1057F000CFFA8446FFF7DEFA0546FFF7DBFA0646E6
:10580000FFF7D8FA0446FFF7CBFAFFF7C9FAFFF71C
:10581000BFFABCF1000F03D0BCF1100F0BD031E088
:105820007248C0E9005688F8079088F80C70FCB1FF
:10583000CBF8004026E06E49C1E900560CB1CBF828
:1058400000406C4A0220091D1070694801F06BF994
:1058500018E055E062B90120FCF72BF912E03AB9E3
:1058600065494FF4C87008800CE00AB988F80E70DA
:1058700008E01AB10020FFF7C5FAF2E0012100208C
:10588000FBF72DFF0020FFF7BAFAEAE0FFE7082058
:10589000FFF7B5FA59485B4A5B4D016858481268F2
:1058A000B1FBF0F1B2FBF0F000EB4002C2EBC01034
:1058B00001EBC000E880002435F91400FFF75EFA20
:1058C000641C00E0D1E0042CF6D3CAE00420FFF70A
:1058D00096FAB6F92C00FFF751FAB6F92A00B1E6AC
:1058E0000C20FFF78CFA49480068FFF736FA474862
:1058F000001D0068FFF731FA444808300068F3E4FF
:10590000434D287807EB8000C0B2FFF778FA28787B
:10591000FFF716FA00243F4E3F4FDFF80081DFF813
:1059200000910EE0305DFFF70BFA385DFFF708FAE3
:1059300018F80400FFF704FA19F80400FFF700FA5A
:10594000641C28788442EDD38BE00020FFF757FADF
:10595000FFF71EFA6871CA35FBF729FFFFF72AFA2D
:10596000FBF720FFFFF714FA85F84D00FFF718FA50
:10597000A883FFF715FAE883FFF712FA2884FFF7E8
:105980000FFAA887FFF70CFAE8876AE01020FFF704
:1059900036FA6879CA35FFF7D3F9FCF7BBF8FFF799
:1059A000DCF995F84D00FFF7CBF9B5F91C00FFF7CE
:1059B000E5F9B5F91E00FFF7E1F9B5F92000FFF7A9
:1059C000DDF9B5F93C00FFF7D9F9B5F93E0039E644
:1059D000FA0000204C010020FE00002048010020B9
:1059E000B8E80008380C0020B0E700088801002063
:1059F00090010020E1000020B4010020700300208D
:105A000040420F00740300209E010020E8F7FF1FB2
:105A1000AE0100208D0A00209D0A0020AD0A002062
:105A2000BD0A00200820FFF7EAF90024281990F8A1
:105A30000F01FFF785F9641C082CF7D311E0002053
:105A4000FFF7DDF95FF00004FFF7A2F92919641CE4
:105A500081F80F01082CF7D303E00020FFF7CFF9FE
:105A60006770BDE8F05FFFF7D0B91320FFF7C7F903
:105A70005FF000041BF80400FFF762F9641C0B2CB4
:105A8000F8D30020FFF769F900202DE42DE9F0415B
:105A900000252E46434C7EE005EB4500424900EBD5
:105AA000051001EB800060604048007818B1BDE847
:105AB000F041FBF7ACBA607858B3002027E060688B
:105AC000006804F0F3FE616891F8492052B1012AA0
:105AD00023D0022A27D0032A2BD0042A36D0052A25
