:020000040800F2
:10000000A0290020E5B2000825B300085B290008FC
:1000100029B300082BB300082DB30008000000002E
:100020000000000000000000000000002FB30008E6
:1000300031B300080000000033B30008AD890008A8
:1000400037B3000837B3000837B3000837B30008E8
:1000500037B3000837B3000837B300081995000814
:1000600037B3000837B3000837B3000837B30008C8
:1000700037B3000837B30008838F000837B3000890
:1000800037B3000837B3000837B3000837B30008A8
:1000900037B3000837B3000837B300081B950008D2
:1000A00037B3000837B3000837B30008AF9D000826
:1000B000B39D0008B99D0008BD9D0008BD820008E1
:1000C000BD800008C1820008BF82000837B3000865
:1000D00037B30008AF8F0008FD8F000837B3000862
:1000E000017A000837B3000837B30008DFF80CD0F6
:1000F0000BF0BEFD00480047D9260008A0290020CB
:1001000070B50C46911E232900D30A220025002831
:1001100004DA2D212170611C404200E0214601F0EB
:1001200092F90570204670BD2DE9F047044600E0C5
:10013000641C20782028FBD00928F9D04FF07E5885
:10014000C1B247462D2902D02B2801D001E0FC4F37
:10015000641C0026DFF8EC930CE000BF0BF032FBD0
:100160000546494630460BF0B1FA29460BF056FADF
:100170000646641C207830380928EFD920782E28CC
:1001800015D14D460EE000BF0BF01CFB29460BF0CD
:10019000CFFA31460BF042FA0646494628460BF0A4
:1001A00095FA054614F8010F30380928ECD9217862
:1001B0004046652901D0452935D114F8011F4FF07B
:1001C00000082D2902D02B2902D002E04FF00108AF
:1001D000641C00256FF02F0206E000BF05EB8503CD
:1001E00002EB4303CD18641C2178A1F13003092BE5
:1001F000F4D94FF49A718D4204D90D46D2490BF0CF
:1002000065FA083D082DF9D203E049460BF05EFA85
:100210006D1E002DF9D1B8F1000F04D00146304613
:100220000BF086FA03E0014630460BF04FFA3946F0
:10023000BDE8F0470BF04ABAF0B587B000260D468E
:10024000C34900960196C1A70296B0F5000F02DBE4
:100250000BF0E4F901E00BF033FABE490BF036FA8B
:100260000BF0BEFA041E00DC60420A2203A9FFF76D
:1002700047FF002C01DB202000E02D208DF800003E
:1002800003A80BF07CF9302401280AD003A80BF056
:1002900076F902280CD003A80BF071F903280CD0D2
:1002A0000DE08DF801408DF802408DF8034006E026
:1002B0008DF801408DF8024001E08DF8014003A95E
:1002C00068460BF028F968460BF059F9C01EC4B215
:1002D0002246694628460BF03CF92E5539462846F9
:1002E0000BF019F90DEB040128460BF014F907B0D7
:1002F0002846F0BD70B505460C4608680BF03FF97E
:10030000024621682868BDE870400BF061B970B5FD
:1003100006460BF034F9904D10F0FF0F10D0304628
:100320000BF06FF90446152818DA202130460BF03F
:100330001CF90BF066F905EB4401A1F8460070BD0D
:100340005FF0000405EB44002146B0F8462083A08E
:100350000BF0B4FD641C152CF4DB70BDBDE87040DF
:10036000152181A00BF0AABD2DE9F041002588B030
:1003700007462E460BF003F9854C10F0FF0FA846F8
:1003800051D0052283A138460BF022F900287DD0F8
:10039000042282A138460BF01BF9002877D038469A
:1003A0000BF02FF9461E0C2E72DA202138460BF086
:1003B000DCF8070007D0781C0746FFF7B5FE04EB12
:1003C000061101250861202138460BF0CEF8070000
:1003D00007D0471C3846FFF7A7FE04EB06116D1C3B
:1003E0004861202138460BF0C0F8070007D0471CB1
:1003F0003846FFF799FE04EB06116D1C8861202139
:1004000038460BF0B2F830B1401CFFF78DFE04EB1C
:1004100006116D1CC861042D77D062A001F025F88B
:1004200008B0BDE8F0816EA001F01FF85FF0000594
:1004300004EB0517386910F0FF4F2BD0691C73A02F
:10044000761C0BF03BFD03A93869FFF7F5FE01466A
:1004500070A00BF033FD03A97869FFF7EDFE0146AC
:100460006CA00BF02BFD03A9B869FFF7E5FE014670
:1004700068A00BF023FD03A9F869FFF7DDFE014634
:1004800065A00BF01BFD6D1C0C2D02E034E03DE07F
:10049000E5E0CDDBCDF80880CDF804800025CDF86F
:1004A000008011E004EB0517009879690BF0B6F8AD
:1004B0000090B96901980BF0B1F80190F9690298C0
:1004C0000BF0ACF86D1C0290B542EBDB54A000F0D1
:1004D000CCFF574E00246D4655F8240020F0004014
:1004E000B04201DD53A000E053A000F0BEFF641C49
:1004F000032CF1DB44A091E70020414604EB0012FD
:10050000401C11610C28F9DB8AE7A3E02021384662
:100510000BF02BF8002883D0401C06460BF02FF878
:10052000464DC7B2002400BF55F8241031B13A46F9
:1005300030460BF04DF810B1641CF5E780E081E027
:10054000000080BF0000204120BCBE4C2E000000F7
:100550006F12033A00007A44640700206175782026
:1005600025752025750D0A00496E76616C69642039
:100570004665617475726520696E6465783A206DB0
:10058000757374206265203C2025750D0A000000FB
:10059000BC03002072657365740000006C6F6164B9
:1005A0000000000057726F6E67206E756D62657295
:1005B000206F6620617267756D656E74732C206E96
:1005C00065656473206964782074687220726F6C4A
:1005D0006C207069746368207961770D0A000000EF
:1005E000437573746F6D206D697865723A200D0ADA
:1005F0004D6F746F720954687209526F6C6C0950B8
:1006000069746368095961770D0A00002325643A0B
:10061000090000002573090025730D0A0000000081
:1006200053616E69747920636865636B3A090000F1
:100630000AD7233C4E4709004F4B09005CCF000806
:10064000EEA0EBE6204602F04DFA55F82410F1A09A
:100650000BF034FCAFF2B800FFF786FEE0E60C21A9
:10066000F1A00BF02BFCDBE610B5F9A000F0FDFECD
:10067000012001F000FAFDA000F0F7FE0A2008F0CA
:10068000C3F9BDE81040002008F091BA7CB50446DB
:100690000D4600790021062814D2DFE800F0030699
:1006A0000A0D111EA06801780CE0A06890F90010F6
:1006B00008E0A068018805E0A068B0F9001001E03A
:1006C000A0680168EDA00BF0F9FB002D04D0D4E97F
:1006D0000312EBA00BF0F2FB7CBDA068694600683A
:1006E000FFF7AAFD0146E8A00BF0E8FB002DF3D0D0
:1006F000E0680BF067F86946FFF79EFD0146E3A04E
:100700000BF0DCFB20690BF05DF86946FFF794FD08
:100710000146DEA00BF0D2FB7CBD2DE9FF47DCA03B
:100720000BF0CCFBD4A0FFF7F2FDE54DE54968796D
:1007300001EB800050F8041CE3A00BF0BFFB28691C
:1007400010F0FF4F4CD0DFF88CA3002405EB041011
:10075000066916F0FF4F3FD0D0E90598C769611CC4
:10076000DDA00BF0ABFB564502D3DDA00BF0A6FBE2
:1007700069463046FFF760FD0146C3A00BF09EFBC3
:100780005646B14502D3D6A00BF098FB69464846C1
:10079000FFF752FD0146BCA00BF090FBB04502D321
:1007A000CFA00BF08BFB69464046FFF745FD0146A5
:1007B000B5A00BF083FBB74202D3C9A00BF07EFBC0
:1007C00069463846FFF738FD0146AFF2B4100BF02A
:1007D00075FB641C0C2CB9D3611CC2A00BF06EFB22
:1007E00001F07AF9B74E002407465C3656F824101B
:1007F00021B1C1A00BF062FB641CF7E700244FF0AD
:10080000010800BF56F8241041B108FA04F038423C
:1008100002D0BDA00BF052FB641CF3E7BE4A0020DF
:1008200069462C18135C94F80D41401C08280B55A0
:10083000F7D300220A54B9A00BF040FBBA4D0024B4
:1008400004EB840005EB800655F82010B7A00BF0F0
:1008500035FB00213046FFF719FF72A000F005FEBE
:10086000641C742CECD3BDE8FF8710B5B2A000F077
:10087000FCFD0121002000F022FFB2A000F0F5FDF8
:100880000A2008F0C1F8BDE81040002008F08FB938
:1008900010B50446AFA000F0E8FDB448B44A00210A
:1008A00001705160117002F091F82046BDE81040CF
:1008B000DBE72DE9F04706460AF061FE054601F048
:1008C0000BF9DFF8008207464FF0010908F15C08D8
:1008D00055B12A46A7A130460AF07AFEC0B1307859
:1008E00000272D2823D025E0A4A000F0BEFD002481
:1008F0004D46464656F8241041B105FA04F03842F8
:1009000002D0A3A00BF0DAFA641CF3E745A01EE0C6
:10091000A0A000F0AAFD00244FEA080555F8241015
:100920000029F3D09AA00BF0C9FA641CF6E701275E
:100930006D1E761C5FF0000458F8241031B12A4671
:1009400030460AF045FE30B1641CF5E797A0BDE8DB
:10095000F04700F08ABD09FA04F01FB101F0B7F8C2
:1009600099A002E000F00EFF9AA000F07EFD58F87A
:100970002410BDE8F04766A00BF0A0BA10B505F052
:100980009AFE401C04D096A0BDE8104000F06DBD5A
:100990009BA0F9E770B50024A3A000F066FD624DAE
:1009A000B5F1C00504EB440005EB80014A6855F839
:1009B0002010A3A00BF082FA641C102CF2D370BD9F
:1009C0003EB505460AF0DBFD082815D10024285D58
:1009D0000AF054FD2855641C082CF8D300244E4816
:1009E000295D0AF0C2FD28B12819295D401C0AF0D2
:1009F000BCFD00B128E12BE131E10000496E7661D8
:100A00006C6964206D6978657220747970652E2E2A
:100A10002E0D0A004C6F61646564202573206D699A
:100A2000782E2E2E0D0A00004D6F746F72206E7599
:100A30006D626572206D75737420626520626574E5
:100A40007765656E203120616E642025640D0A0093
:100A5000526573657474696E6720746F206465668F
:100A600061756C74732E2E2E0D0A00005265626F34
:100A70006F74696E672E2E2E000000002564000042
:100A800020256420256400002573000020257300C4
:100A900043757272656E7420436F6E6669673A20A3
:100AA000436F70792065766572797468696E672026
:100AB00062656C6F7720686572652E2E2E0D0A00B8
:100AC000BC0300205CCF00086D6978657220257337
:100AD0000D0A000000008080636D697820256400A5
:100AE00020000000636D69782025642030203020CC
:100AF0003020300D0A000000666561747572652053
:100B00002D25730D0A0000006665617475726520FD
:100B100025730D0A0000000004DA00086D617020E2
:100B200025730D0A00000000F4D0000873657420DE
:100B30002573203D20000000536176696E672E2EDC
:100B40002E0000000D0A5265626F6F74696E672E89
:100B50002E2E00000D0A4C656176696E6720434CAD
:100B600049206D6F64652E2E2E0D0A008C03002027
:100B7000000000206C69737400000000456E616223
:100B80006C65642066656174757265733A20000057
:100B900025732000417661696C61626C6520666531
:100BA0006174757265733A2000000000496E7661C9
:100BB0006C69642066656174757265206E616D652F
:100BC0002E2E2E0D0A00000044697361626C65646C
:100BD00020000000456E61626C656420000000002A
:100BE000456E61626C696E67204750532070617377
:100BF000737468726F7567682E2E2E0D0A000000E0
:100C00004572726F723A20456E61626C6520616E4A
:100C10006420706C756720696E20475053206669A8
:100C20007273740D0A000000417661696C61626C38
:100C30006520636F6D6D616E64733A0D0A0000008C
:100C400025730925730D0A00E7A000F00EFC3EBDD8
:100C5000641C082CFFF4C3AE284600F072FCEAA026
:100C600000F003FCEE4BEF4A0020694615181C5CAF
:100C700095F80D51401C08284C55F7D300220A5412
:100C8000AFF274100BF01AF93EBD2DE9F041804629
:100C90000AF075FCE34FE44D060011D00246AFF2B6
:100CA0002C1140460AF094FC88B1002455F8241019
:100CB000F1B1324640460AF08BFCF8B1641CF5E70E
:100CC000787905EB800050F8041CD8A01BE0DCA06C
:100CD00000F0CBFB5FF0000455F8241029B1AFF20F
:100CE00050100BF0EBF8641CF6E7AFF2C82001E0FF
:100CF000AFF2F820BDE8F04100F0B7BB601C78719E
:100D000055F82410D3A0BDE8F0410BF0D7B82DE979
:100D1000F041002507462C462E460AF030FC18B15B
:100D2000AFF24421384610E0CFA02BE016B1012EDF
:100D300007D103E00AF065FC054602E00AF061FC19
:100D40000446AFF264210020761C0AF01FFC002844
:100D5000ECD10C2D05D3BDE8F0410C21D1A00BF056
:100D6000ADB8DA4F022E07DA37F915202946BDE86B
:100D7000F041D7A00BF0A2B8A4F57A70B0F57A7F55
:100D800004D9D9A0BDE8F0410BF098B82246294615
:100D9000DEA00BF093F827F81540BDE8F08170B5A0
:100DA00005460AF0ECFB9F4C10F0FF0F0CD02846D4
:100DB0000AF027FC02280ED884F8A4030021084674
:100DC00000F07DFC95A0EBE794F8A413BDE870401B
:100DD000D5A00BF073B870BD2DE9F04782460AF03C
:100DE000CEFBD74D060029D0012E03D19AF8000082
:100DF0002A2823D0D3A150460AF099FB002871D0AD
:100E0000401C04460AF0FDFB81462046FFF78CF9A2
:100E10008046002606EB860705EB870455F8270079
:100E20000AF0ADFB024655F8271050460AF0D0FBF9
:100E3000F8B1761C742EEDD3C3A04FE0CAA000F029
:100E400014FB002404EB840005EB800755F8201008
:100E5000AFF224300BF032F831463846FFF716FC7B
:100E6000AFF2404000F001FB641C742CEAD3BDE8F3
:100E7000F08706EB860605EB8607F8680AF0A2FC09
:100E800041460AF0DBFC26D838690AF09BFC414653
:100E90000AF0DEFC1FD83979052907D04846062913
:100EA0000ED2DFE801F0050508080B0B4046F6E717
:100EB000A168087004E0A168088001E0A1680860EA
:100EC00055F82610AEA00AF0F9FF2046BDE8F0471D
:100ED0000021FFF7DBBB00E004E0ACA0BDE8F04779
:100EE00000F0C3BA5FF0000404EB8406514655F8E5
:100EF00026000AF01CFB78B155F8261005EB860792
:100F0000AFF2D4300AF0DAFF00213846FFF7BEFB1B
:100F1000AFF2F0400AF0D2FF641C742CE4D3A6E7D1
:100F20002DE9F04107F061FD4FF47A71B0FBF1F16A
:100F3000A0480378A0480288A0A00AF0BFFF00F0F4
:100F4000BBFD0646AD48AE490068B0FBF1F1ADA06F
:100F50000AF0B4FF344F002401259C3757F82410C1
:100F600051B105FA04F0304203D0AFF2DC300AF0A0
:100F7000A5FF641CE4B2F1E7022000F08BFDA0B1F4
:100F8000A84C29482178BC3050F82110A6A00AF0BE
:100F900095FF2078022808D1A648007C08B16F216F
:100FA00000E06E21A4A00AF089FFAFF2885000F0A3
:100FB0005CFA07F0FEF90246A0484FF46A73018814
:100FC000BDE8F0419EA00AF079BFAAA000F04DBA9A
:100FD0002DE9FF5FDFF8CC9299F8000018B90121E4
:100FE00089F8001060E165E14D7573742062652039
:100FF000616E79206F72646572206F66204145547E
:1010000052313233340D0A0043757272656E7420AA
:1010100061737369676E6D656E743A20000000003D
:1010200004DA0008BC0300205CCF0008437572722C
:10103000656E74206D697865723A2025730D0A001B
:10104000417661696C61626C65206D697865727367
:101050003A2000004D697865722073657420746FC2
:101060002025730D0A00000055736167653A0D0A6B
:101070006D6F746F7220696E646578205B76616C49
:1010800075655D202D2073686F77205B6F7220730C
:1010900065745D206D6F746F722076616C75650D7F
:1010A0000A0000004E6F2073756368206D6F746FC7
:1010B000722C207573652061206E756D62657220DB
:1010C0005B302C2025645D0D0A0000009008002094
:1010D0004D6F746F722025642069732073657420CE
:1010E00061742025640D0A00496E76616C69642084
:1010F0006D6F746F722076616C75652C20313030A5
:10110000302E2E323030300D0A00000053657474DA
:10111000696E67206D6F746F7220256420746F2074
:1011200025640D0A0000000043757272656E74201C
:1011300070726F66696C653A2025640D0A000000C4
:10114000F4D000083D0000004552523A20556E6B25
:101150006E6F776E207661726961626C65206E6178
:101160006D650D0A0000000043757272656E742093
:1011700073657474696E67733A200D0A000000008D
:1011800025732073657420746F2000004552523A15
:101190002056616C75652061737369676E6D656E4D
:1011A00074206F7574206F662072616E67650D0A1A
:1011B000000000009C010020FA00002053797374A5
:1011C000656D20557074696D653A202564207365DE
:1011D000636F6E64732C20566F6C746167653A2080
:1011E0002564202A20302E31562028256453206281
:1011F000617474657279290D0A000000540300209F
:1012000040420F004350552025644D487A2C2064FD
:10121000657465637465642073656E736F72733A89
:1012200020000000B001002041434348573A2025E8
:1012300073000000640800202E256300EE000020EB
:101240004379636C652054696D653A2025642C20D0
:10125000493243204572726F72733A2025642C2004
:10126000636F6E6669672073697A653A2025640D3D
:101270000A0000004166726F333220434C492076E9
:10128000657273696F6E20322E322041756720209F
:10129000332032303134202F2032313A35313A3553
:1012A000340000000000002078A000F0DEF885A0E7
:1012B00000F0DBF8DFF814B2DFF814A25446DAF8D5
:1012C000000009F04AF8002878D0206809F048F8B2
:1012D000092807D03F2805D0D9F804104C4600292A
:1012E0004FD050E07B4F0024254607F1C008D9F8C5
:1012F00004600BE0D9F8042022B1744839680AF080
:1013000067F910B904B93C463D460C374745F1D35F
:101310009CB149465F46486822682B68125C1B5C9A
:101320009A420AD19AB92E2811D220223A54401C4E
:101330000021C9F804000BF80010D9F804004F464A
:1013400008B1AC4214D064A000F08FF80AE03A541F
:10135000401C4860DFE7206800F087F8092000F0B3
:1013600090F80C34AC42F6D956A000F07EF8002676
:101370005C4678688642A1D2A05D00F082F8761CB7
:10138000F7E7042810D00C2814D019B10A2816D079
:101390000D2814D07F283DD030298FD220288DD31E
:1013A0007E288BD8A9B344E004B04848BDE8F05F7C
:1013B000FFF76EBA4AA000F058F828E041E0AFF617
:1013C0009C1000F052F8606800255E460BF8005053
:1013D0004648CDE9000B0C2310223E49029501A896
:1013E0000AF052F8070007D038680AF0C8F830440D
:1013F000B968401C884702E03DA000F036F8302173
:1014000032480AF07DF865602078002819D02DA0B8
:101410000AE00CE000293FF451AF491E0020C9F852
:1014200004100BF801003BA000F01FF846E720284D
:10143000FCD00BF80100491CC9F8041000F021F899
:101440003CE7BDE8FF9F70B51546B0FBF5F40646D6
:10145000A84203D32046FFF7F6FF014605FB1460C0
:101460002DA2105C0870481C70BD70B50446184D64
:1014700003E0641C286808F061FF21780029F8D196
:1014800070BD01461248006808F058BF0D0A456E4D
:10149000746572696E6720434C49204D6F64652CFA
:1014A00020747970652027657869742720746F200F
:1014B00072657475726E2C206F72202768656C706F
:1014C000270D0A000D0A2320000000008C030020D5
:1014D0006408002034D000080D1B5B4B00000000A6
:1014E0001B5B324A1B5B313B31480000F5020008B0
:1014F0004552523A20556E6B6E6F776E20636F6D5A
:101500006D616E642C20747279202768656C702779
:1015100000000000082008003031323334353637FF
:1015200038394142434445464748494A4B4C4D4E61
:101530004F505152535455565758595A00000000B5
:1015400070472DE9F04105460446FE4EFE4F09E086
:10155000FC480AF00AF820B1611B801B384480F86F
:101560000D11641C21780029F2D1BDE8F081F74803
:1015700000210278422A13D14288B2F56A7F0FD146
:101580000279BE2A0CD190F8A623EF2A08D100F5E3
:101590006A7200BF10F8013B59409042FAD309B17A
:1015A000002070470120704710B5FFF7E0FF10B929
:1015B0000A2007F0DAFA4FF46A72E449E24809F0C7
:1015C00086FFE14890F8A413022902D9002180F88F
:1015D000A413C9B201EB810202EBC10100EB0111BE
:1015E000BDE81040D022DA4801F59A7109F06FBFCA
:1015F0002DE9F05FD64AD74E002092F82010D47F14
:1016000040F6C41500FB00F3193B4B4303F6C4132B
:101610004343634393FBF5F326F81030401CC0B2FC
:101620000728EFD3C84B914692F8212099F8224021
:10163000B3F8D210B3F8D0700020DFF81CA34FF03D
:101640000A0B4FF47A7EC4F1640802EB820CCD1BC6
:1016500000EB8001C2EB41030121002B03DDC2F14D
:101660006401C9B201E000DA114603FB03F604FB92
:1016700006F601FB01F196FBF1F1414401FB03F198
:1016800091FBFBF101EB4C0109B205FB01F191FB70
:10169000FEF139442AF8101000F10100C0B20C2804
:1016A000D6D399F8000002F0E8F9BDE8F05F04F045
:1016B000ADB810B5FFF778FFBDE8104098E72DE909
:1016C000F047A14C8146422020704FF46A75658036
:1016D000BE2000262071EF2084F8A60384F8A763BB
:1016E00069B194F8A403D02200EB800101EBC000A3
:1016F00004EB0010964900F59A7009F0E8FE924854
:10170000934902E010F8012B56408842FAD384F83E
:10171000A76309F06FFDDFF844A28C4F0326A846AB
:10172000342009F0D5FD384609F092FD504609F005
:101730008FFD002506E06159E81909F0A5FD2D1D72
:10174000454502D20428F6D001E0042804D0761ED4
:10175000E6D109F055FD04E009F052FDFFF707FF5F
:1017600010B90A2007F001FAFFF7A3FFB9F1000F43
:1017700006D0BDE8F047012214210F2001F028BD5A
:10178000BDE8F08770498A6802438A6070472DE996
:10179000FC5F73A1D1E90001CDE900014FF46A714A
:1017A000694809F0ADFED021694809F0A9FE664BF1
:1017B0004220002518700320587102209D60FFF719
:1017C000E1FF83F8A4534FF41670A3F8F000FA2059
:1017D000A3F8F2002A20A3F8EE00A3F8F850A3F82B
:1017E000FA50A3F8FC5083F8E25083F8E35083F8F2
:1017F000E450A3F8E650A3F8E850A3F8EA5083F8C1
:10180000ED504FF4FA70A3F8F600012683F8EC606F
:10181000202083F8F4004FF4C870A3F804016E2070
:1018200083F809012B2083F80A01212083F80B019A
:1018300083F80C5183F8155183F82E5183F82F51FA
:1018400083F8305140F2DC52A3F8162140F24C40AC
:10185000A3F8180140F26C70A3F81A0183F81C5128
:1018600083F81D5183F81E6140F27E4023F8D00FAB
:1018700040F23A7058804FF47A70988040F27E506F
:10188000D88040F2EA50188140F2B450588132209A
:101890009881C100D981188283F8505083F8515043
:1018A0004FF4E13159654FF41651996583F85C5056
:1018B00083F85D5040F6AC5123F8C41C03F8C25CB9
:1018C000234C83F84F502827257067704FF01E0A6D
:1018D00084F80BA017216175A77084F80CA0A1757E
:1018E0005521E1702D216173E5752071A573257671
:1018F0000B216171E57365764FF0140B84F806B027
:10190000082323742D23A3760E23E37184F811B0EA
:101910005021E1765A2121724FF00A0884F8128092
:101920004FF0640984F81C9067727823A3722D230A
:101930002375A677E177412184F8201084F823509D
:1019400012E0000004DA0008BC03002000F80108DF
:1019500064070020260A0020340A002000FC010849
:101960001E1E64646464646484F8245084F8255002
:10197000E28484F8210084F822506585A5852585B8
:10198000042084F82E0084F82F7084F8307015201D
:1019900084F83100524860635248A0635248E063C3
:1019A0005248206484F84460192084F8450050A00F
:1019B000FFF7C7FD84F8705084F8715084F8727096
:1019C00084F8736084F876504FF44870A4F874007B
:1019D00004F8B88FC82363704FF49660608040F2BB
:1019E000D930A080454800216C4640F2DC554FF4C8
:1019F0007F764FF4FA6C00BF00EBC10222F8786FDB
:101A0000A2F802C0958014F80180491C82F8068073
:101A10000829F1DB012100F8BE1F394C41708170AB
:101A2000838080F806B080F807A00172A0F80A90C1
:101A30004FF496718181C781522084F8A50300205C
:101A40004FEA000104EB0012401C11610C28F9DB85
:101A50005FF0000505EB850000EBC50004EB00100E
:101A6000D022264900F59A7009F031FD6D1C032D36
:101A7000F0DBBDE8FC9F10B50446FFF778FD641E5F
:101A8000204206D1FFF783FE0021BDE81040084642
:101A900015E610BD1B490968014201D001207047BD
:101AA0000020704717490A6802430A6070471549C9
:101AB0000A6882430A6070471248006870471049FC
:101AC0008968014201D001207047002070470C490D
:101AD0008A6882438A6070470948806870470000BE
:101AE0009A99193FF6287C3F3D0A773F0000A040B5
:101AF0004145545231323334000000006407002065
:101B0000BC0300200800002070B5F84D95F8450092
:101B1000403509F060FEF64909F0D8FD0AF058FD9D
:101B2000F44E0446308809F056FE214609F0CEFDF9
:101B30000AF010FEF04C6080308809F04CFE01463F
:101B4000EE4809F0F5FDEE4909F0F2FDE066A88ED9
:101B500009F041FE0146EB4809F0EAFDEA4909F0C7
:101B6000B5FD2067E949286809F0B0FD01464FF04E
:101B70007C5009F0DDFD60670820FFF78BFF00282F
:101B800003D0BDE8704002F00FBF70BD002801DD3A
:101B9000024600E042428A4201DA002070470028F3
:101BA00002DDA0EB01007047FDDA084470472DE923
:101BB000F04F91B0D0E90045814686680F4608682D
:101BC0000AF006FD049038680BF0ECF80590786890
:101BD0000AF0FEFC834678680BF0E4F88046B868AB
:101BE0000AF0F6FC8246B8680BF0DCF8074650466F
:101BF000049909F06BFD09903846049909F066FDD7
:101C000008905146059809F061FD079039460598FE
:101C100009F05CFD06905946504609F057FD1090BA
:101C20008BF00040394609F051FD074641460798C0
:101C300009F04CFD089909F0F1FC03904146069823
:101C400009F044FD099909F03EFD82460598594680
:101C500080F0004009F03AFD05904146099809F0EE
:101C600035FD069909F02FFD02904146089809F0CC
:101C70002DFD079909F0D2FC06905846049909F009
:101C800025FD83463046029909F020FD0090284644
:101C9000039909F01BFD01902046109909F016FDEB
:101CA000019909F0BBFC009909F0B8FCC9F80000E3
:101CB0003046069909F00AFD00905146284609F081
:101CC00005FD82463946204609F000FD514609F0DF
:101CD000A5FC009909F0A2FCC9F804005946304659
:101CE00009F0F4FC06462846059909F0EFFC054684
:101CF0004146204609F0EAFC294609F08FFC3146AE
:101D000009F08CFCC9F8080011B0BDE8F08F2DE98E
:101D1000F04387B0804609F05EFD7D4909F0D6FCAE
:101D2000054675489830016881F00041039140688C
:101D300080F0004004907748B0F9000009F042FDBF
:101D4000754909F0C3FC6C4C05908A34B4F9000065
:101D500009F038FD0090B4F9020009F033FD01905C
:101D6000B4F9040009F02EFD029003A96846FFF7BC
:101D70001EFF5E4E8A3C96F84400012804D05D4860
:101D8000008809F028FD17E0644840780028E06BDF
:101D90000CD1C11700EB9161A0EBA11009F012FD6D
:101DA000029909F03BFC09F01BFDE063C11700EB51
:101DB0009160801109F006FD029909F084FC0290FF
:101DC000216C894609F07CFC07462946606F09F0C2
:101DD00025FC0146284609F0ABFC394609F076FCA3
:101DE000494609F01BFC206400980AF0B3FC96F801
:101DF00030102F36FFF7CAFE494D29680844286085
:101E000001980AF0A7FC7178FFF7C0FE69680844E2
:101E10006860206C0AF09EFC3178FFF7B7FEA96875
:101E20000844A860A16801EB0800A060E068401CBD
:101E3000E06007B0BDE8F0832DE9F05F2E4D044669
:101E4000983528680AF0C4FB834628680AF0AAFF80
:101E5000824668680AF0BCFB814668680AF0A2FF07
:101E60000546D4F808802946404609F02FFC59461B
:101E700009F02CFC676806465146384609F026FCF6
:101E8000294609F023FC05464946206809F01EFC56
:101E9000294609F0C3FB314609F0C0FB0446514610
:101EA000404609F013FC05465946384609F00EFC39
:101EB000294609F005FC21460AF05CFA194909F0A7
:101EC00005FC124909F034FC0B49496B09F0A6FBEB
:101ED000154909F02DFC0AF03DFC00B2002802DA99
:101EE00000F5B47000B2BDE8F09F00006407002068
:101EF00035FA8E3CB60100200C0000200AE81C4197
:101F000000401C46000061444C3D0F44DB0F49403B
:101F1000BD378635E401002035FA8EBCF00900207B
:101F20004C0800200000E144000020412DE9F04170
:101F3000044680680D46014609F0C8FB0746606804
:101F4000014609F0C3FB06462068014609F0BEFBC6
:101F5000314609F063FB394609F060FB0AF0E8FFFF
:101F6000064610F0FF4F0ED03146206809F0E0FB26
:101F700028603146606809F0DBFB68603146A06884
:101F800009F0D6FBA860BDE8F0812DE9F04F87B0DD
:101F9000002606F010FDDFF808B405465C46DBF8C5
:101FA0004400281A039009F016FCFE49C96809F09C
:101FB0008DFB0590DFF8F0A3656400249AF82E707D
:101FC0000BF18A054FF07E58F5487E3030F9140049
:101FD00009F0F8FB059909F079FB4DF8240027B3C7
:101FE000384609F0F8FB0146404609F0A1FB81465E
:101FF0000490EB48843030F9140009F0E3FB4946C3
:1020000009F064FB81464146049809F05CFBE7490E
:1020100051F8241009F05AFB494609F0FFFAE34948
:1020200041F8240009F0DCFB03E0DD48843030F89F
:10203000140025F8140035F91400641C00FB006638
:10204000032CC1DB64204643D948694600884043DD
:1020500096FBF0F4D5481830FFF7A9FDD34EA0B297
:10206000183649383C2826D2D2480024A946B0F870
:10207000F00009F0B0FB45464146049009F0CEFA65
:102080000146284609F054FB4FEA000539F91400CF
:1020900009F098FB074656F82410049809F016FB3F
:1020A000394609F0BBFA294609F010FB46F824002E
:1020B000641C032CEADB5D46BBF9020009F082FBDD
:1020C0003446B16809F0BAFB01D2012000E00020DB
:1020D000B949A1464873D4E901010AF04BF9B04E61
:1020E00098363060A068014609F0F0FA074660684B
:1020F000014609F0EBFA394609F090FA0AF018FFA8
:102100000146206880F000400AF034F9AB4F70605F
:102110003946306809F0DAFA0AF01CFBA6F16004CF
:1021200039462080706809F0D1FA0AF013FB60800C
:102130000820FFF7AFFCDFF888B2002869465CD0C2
:102140009A480C38FFF733FD9A48984F00244646CA
:102150000C3FB0F8F20009F03EFB3146049009F064
:102160005DFA0146304609F0E3FA06468C489030A5
:1021700030F9140009F026FB804657F82410049823
:1021800009F0A4FA414609F049FA314609F09EFAED
:1021900047F82400641C032CE8DB8448B0F10C00F1
:1021A000FFF74AFEABF800000398FFF7B0FD9AF87E
:1021B0007600564600284AD0D9F808004C46014619
:1021C00009F084FA80466068014609F07FFA074604
:1021D0002068014609F07AFA394609F01FFA4146AB
:1021E00009F01CFA0AF0A4FE0146A06809F0A0FA62
:1021F000744988420DDC002028E06948A030FFF7D0
:10220000D6FC6749A0310846FFF790FE6448A0302D
:10221000C6E70AF01FF8296F09F058FA0AF09AFA8F
:102220004FF46171884200DD084609F0CBFA664937
:1022300009F07EFA0AF0B6FD044696F8760009F039
:10224000CAFA214609F042FA0AF084FAA88007B0D7
:102250005BE510B502F09FFB0220FFF71BFC20B1ED
:1022600002F09FFAFFF791FE05E04D49002084310E
:102270000880488088804F48494942797E31881FCC
:10228000012A06D08A8882800A8802804988418093
:1022900010BD434BB1F90420B3F9064002EB4402F0
:1022A000032492FBF4F28280DA80EDE73F490020BC
:1022B0000C310860486088603949C86088607047A0
:1022C0002DE9FE4F06F077FB024635483830B0F96D
:1022D0000010002901DD0B4600E04B42B0F902007E
:1022E000002801DD044600E04442A34205DD002948
:1022F00001DD084604E0484202E0002800DC4042DC
:10230000274C05B246F2A811A06CA2EB0009894542
:1023100002D20020BDE8FE8F2C4EA264DFF8B0A0F0
:102320003088DFF8B0B0204F4FF07E5840B3206EB9
:102330002269C11700EB5171A0EBE10097F8311051
:10234000491EB2FBF1F10844C117206600EB517041
:10235000C01009F037FA514609F0EAF959460AF077
:1023600013FA414609F0AFF91B4909F0AFF909F03A
:1023700037FAE0650020206560653088401E3080B7
:10238000094F216997F83100401EB1FBF0F009F0C8
:1023900022FA514609F0CCF959460AF0F5F91DE048
:1023A0000C000020D40B002064070020400800200F
:1023B000B6010020BC030020F00900204C3D0F4472
:1023C000E40100208FC2753CEFB6B044E20100206A
:1023D00080E6C547B1DC423ED048874A4FF07E5880
:1023E000414609F070F9AD4909F070F90AF0B2F907
:1023F000E16D7F6B461A3946404609F061F9804627
:10240000304609F0DFF9414609F060F90646606997
:1024100009F0D8F9394609F059F9314609F0FEF8C2
:102420000AF098F906464FF0FF3B6061FA2D01DD96
:10243000584613E0284609F0C5F9DFF864824146A2
:1024400009F041F90746206A09F0BCF9394609F05C
:102450003DF9414609F06CF909F0C2F9A0F1010813
:1024600007462062B8F1C70F03D2F01B6761E06135
:1024700026E0E069361A6661002F21DDC7F5967007
:1024800009F0A0F9874909F053F98246A061514645
:102490004FF07E5009F014F90090304609F092F99F
:1024A000009909F013F90646384609F08BF95146B0
:1024B00009F00CF9314609F0B1F809F091F96061C1
:1024C000A06809F088F90746774909F0FFF8064641
:1024D000E06809F077F982467448806809F072F97B
:1024E000514609F025F98246E16E09F0EFF83946C8
:1024F00009F0ECF80090206D3146019009F0E6F803
:1025000007465946009809F051F9314609F0DEF8BE
:10251000394609F083F8616D09F080F88346644814
:10252000C76B4FF07E50394609F0CAF8064660691D
:10253000029009F047F9314609F0C8F806463946D5
:10254000584609F0C3F8314609F068F86065B8F1FB
:10255000C70F01D2029801E009F042F96066DDE997
:10256000001009F05BF82065FFF7A0FE484609F06F
:1025700032F907466669A06D301A09F023F94D4912
:1025800009F0A4F8394609F0D3F809F029F940F226
:10259000DC525142A66504F0D3FA0A21FFF7F6FA9D
:1025A000434E81464FF07E50D6F83880414609F0C0
:1025B00087F80746484609F005F9394609F086F8D4
:1025C00007464146206D09F081F8394609F026F8A2
:1025D00020650AF0BFF807460521FFF7D7FA206308
:1025E000B5F5487F57DA20784FF49678C8F100099E
:1025F000C8B3A06A4246C51BB07A6843C11700EB56
:10260000D1604011494604F09BFA6062307DE16A76
:10261000294A00FB05105142E06204F091FA42F2AF
:102620000401E06290FBF1F0616A08446062504688
:10263000E16C08F0F3FF0546B07F09F0CCF82946BD
:1026400009F044F86FF0080109F0B0F809F0C8F893
:102650009622514204F074FA616A081AC4F84CA038
:102660006062012056E6FFE7D4E91910401A4FF4E2
:10267000FA72514204F064FA0A21FFF787FA014620
:10268000307942464843C11700EB5160C0114946BA
:1026900004F056FAAEE70020E0E70000D048874A91
:1026A000000061440000C842BD3786354C08002058
:1026B00064070020002474492003190070B5AA4D56
:1026C0000446286807F052FE0028FAD0E1B22868D4
:1026D00007F034FE204670BD86B0FEF731FF0020C3
:1026E000FFF7C9F9FEF760FFA04CA07B00B1012005
:1026F00006F0AAF9FEF77CFF94F80C01002518B14A
:10270000012817D0092815D08DF8145084F80C51E1
:1027100005A805F01BF80220FFF7D1F908B101F078
:102720004BFF04F015FA0E20FFF7BCF901F064FE30
:1027300018B105E08DF81400EAE7032006F015FA59
:102740008B494FF01009C1F80090A1F10408082648
:10275000C8F800600027A8F1040A00BFDAF80010EA
:1027600081F01001CAF80010DAF8001081F00801B9
:10277000CAF80010192006F047F9012006F04FF9B9
:10278000192006F041F9002006F049F97F1CFFB23C
:102790000A2FE3D3C8F80060C8F80090FFF7B4F937
:1027A00000F02BF9D4F8240102F0B3FA6079012784
:1027B0000E2809D0082807D08DF806504FF48070F5
:1027C000FFF77DF938B902E08DF80670F6E70820CA
:1027D000FFF775F900B101208DF802004020FFF7E6
:1027E0006EF98DF803000120FFF769F98DF80100FB
:1027F0000820FFF764F9DFF8708180F001008DF8A0
:102800000000DFF8709198F812008DF8040099F834
:10281000C0004FF47A7AC0F380008DF80500B4F858
:10282000DE00ADF80800B4F8E000ADF80A00ADF83D
:102830000CA04FF48040FFF742F918B1B4F8DA0069
:10284000ADF80C00BDF80800B0F5FA7F01D9ADF87D
:102850000C50B4F81601ADF80E00B9F8BC00ADF894
:10286000100094F80C01012826D0092827D08DF8F3
:102870000750684605F08EFF9DF8120088F8130097
:102880003D4B002040F2DE5223F81020401CC0B225
:102890001228F9D33A4A3948106088F811600820A4
:1028A000FFF70DF9F8B194F8150105281FD2DFE8FC
:1028B00000F00A0A0E1216008DF80770D9E70720FB
:1028C0008DF80700D5E72E4803F0FEFF0FE02C48F7
:1028D00004F0AAFA0BE02A4804F04AFB07E0284873
:1028E00004F027FF03E094F8210102F0D8FF012053
:1028F000FFF7E5F830B14FF48060FFF7E0F808B17A
:1029000002F0D5F84020FFF7DAF848B194F82C111E
:10291000D4F8280107F03BFC94F82D0107F04AFC9D
:102920004FF40060FFF7CBF808B104F093FD06F018
:1029300042F8144908606079052803D112494FF420
:10294000C87008801149C820A1F800A0104908806B
:102950001048477301F099F8FCE70448B0F9D40037
:1029600000F049F9FEE7000064080020BC030020E5
:10297000140C014064070020020A002049360008B8
:102980001401002010010020B2010020B401002039
:10299000E2010020F00900200146FE4800EBC100E2
:1029A000B0F97C00122804DA082902DAFA4931F970
:1029B00010007047F74A02EBC00090F97E00084211
:1029C00002D04FF0FF307047012070472DE9F041F1
:1029D000F24DF34E00244FF480473846FFF76FF86E
:1029E00010B1B5F8DA0001E0B5F8D40026F814000B
:1029F000641C0C2CF1DBBDE8F0812DE9F047E74CBD
:102A0000E84E607906EBC000407800B10120E64D49
:102A1000A8742020FFF753F84FF0010A08B185F899
:102A200012A06079DFF87893E04D09F118091628B3
:102A300008D016F8301006EBC0002970426812B3B7
:102A400000201EE00020CC4604EB00110A6912F0C1
:102A5000FF4F18D014310CEB0013C2C904C3401C43
:102A600083E8C2002978491C29700C28ECDB0AE0B5
:102A700002EB001609EB001396E8C01183E8C011C1
:102A8000401C8842F4DB4FF48040FFF718F8D8B1BF
:102A90002F78012F18D9002614E000BF09EB061586
:102AA0004FF0FF384146A86808F080FEA860414614
:102AB000686808F07BFE68604146E86808F076FECA
:102AC000761CE860BE42E9DB6179B948082906D086
:102AD0000E2904D000210174BDE8F04776E780F8A4
:102AE00010A0F9E7F0B50021AC4A0B4610F1010047
:102AF00002EB0114491C23610C29F9DBA94B03EB00
:102B0000C0014C68002C0FD0002113F8300009E000
:102B100004EB011302EB011593E8C8101035491CB2
:102B200085E8C8108842F3DCF0BD9F4810B5807C72
:102B300000284DD09D4C9948241D4279E088218978
:102B4000082A27D006DC012A15D0042A29D0052A14
:102B500006D10AE00E2A29D0142A22D0152A25D01F
:102B60002020FEF7ACFF002832D02188002005F09D
:102B7000A8FE618813E08D498648091D90F8BF00C2
:102B8000498908B100201FE0894840780028F9D120
:102B90000021F7E70146002005F093FE218901207E
:102BA00012E0002005F08DFE6189F8E70146002063
:102BB00005F087FE2189012005F083FE618902204E
:102BC00005F07FFEA1890320BDE8104005F079BE25
:102BD00010BD70B5724E0024183E744D07E000BF62
:102BE00036F81410204605F065FE641CE4B228781F
:102BF0008442F5D370BD6D4A694B00211278183BB1
:102C000004E000BF23F81100491CC9B29142F9D376
:102C1000DFE72DE9F047DFF89891644C002599F83B
:102C20000100644F5D4E241D48B3B6F8D220B6F8BB
:102C3000D010B7F9060003F083FF5949E081183935
:102C4000B046088096F81D01524E4FF0640A48B312
:102C50000220FFF7A1FEB6F98A20B6F9881003F02A
:102C60006FFFB8F81631181A0FFA80FC4F48B0F908
:102C70000220624506DA98F81D11114407E0B6F803
:102C8000D400DAE704DD98F81D11A2EB01014180C0
:102C900096F98E10B0F9020001FB00F191FBFAF0F9
:102CA0001844A08099F80A0050B1388800EB05015B
:102CB000E18000EB25402081B888608178880AE0B7
:102CC0003D48018801EB0502E28001EB25412181AD
:102CD000818861814088A0814FF003024FEA0A0396
:102CE00006EBC20034F9121090F97E0000FB01F0EF
:102CF00090FBF3F024F812001046FFF74DFE34F875
:102D00001210084424F81200521C072AE8DBBDE820
:102D1000F0872DE9FC5F254C264E274D20780328AF
:102D200014D9B6F904004142002801DD024600E052
:102D30000A4602F1640200DC08466FF06301A1EB71
:102D40000001B5F9040003F0FBFEA8801748DFF886
:102D50005090DFF840A00078A9F1180901284FD958
:102D6000002480464AE000BF9AF9BE00B5F904107D
:102D70004042484308F026FD0949183101EB041789
:102D8000F96808F0A3FC0190B5F9000008F01AFDFD
:102D9000796813E064070020020A0020BC030020C9
:102DA0009008002080DE000864080020C600002093
:102DB000F0090020780100205E01002008F086FC68
:102DC0000090B5F9020008F0FDFCB96808F07EFC3F
:102DD0008346B6F9060008F0F5FC396808F076FC81
:102DE000594608F01BFC009908F018FC019908F0FE
:102DF00015FC08F0F5FC29F81400641C4445B3D315
:102E0000DFF8AC83DFF8ACB3EB4C98F8050008288A
:102E100067D006DC012837D0042809D0052840D126
:102E200040E00E285AD014287DD01528F7D1D6E0DE
:102E30000420FFF7B1FD064602210420FFF7BAFD8A
:102E4000B5F9041000FB01F301210420FFF7B2FDE6
:102E5000B5F9021000FB0130304420810520FFF756
:102E60009BFD034602210520FFF7A4FDB5F90410E0
:102E700000FB01F601210520FFF79CFDB5F90210CA
:102E800000FB016018440BE00520FFF785FD0346B9
:102E900001210520FFF78EFDB5F9041000FB01307C
:102EA0006081C0E05246BBF9021012F97E0F322356
:102EB000484390FBF3F65D460020FFF76DFD30447C
:102EC000208092F90800B5F90010484390FBF3F216
:102ED0000120FFF761FD10446080A4E0FFF799FE38
:102EE000A1E0B64F787888B3B8F8D220B8F8D010FF
:102EF000B6F9060003F024FEE081A9F80000B87AD4
:102F00004FF0010100284FF0030023D0FFF752FDDE
:102F1000B6F9021000FB01F302210320FFF74AFD7E
:102F2000B6F9001000E042E000FB0130E080012132
:102F30000420FFF73FFDB6F9021000FB01F3022168
:102F40000420FFF737FDB6F9001020E0FFE7B8F8DE
:102F5000D400D1E7FFF72EFDB5F9021000FB01F315
:102F600002210320FFF726FDB5F9001000FB013018
:102F7000E08001210420FFF71DFDB5F9021000FBE0
:102F800001F302210420FFF715FDB5F9001000FB45
:102F9000013020810320FFF7FFFCE1880844E08036
:102FA0000420FFF7F9FC2189084420813BE0042339
:102FB00001211846FFF7FEFCC3F1050135F8111099
:102FC000484324F813001846FFF7E6FC34F81310C2
:102FD000084424F813005B1C062BE9D323E00323E9
:102FE00002211846FFF7E6FCB5F9041000FB01F7D3
:102FF00001211846FFF7DEFCC3F1060121F00101B3
:10300000695E01FB007024F813001846FFF7C4FC4A
:1030100034F81310084424F813005B1C072BDFD38B
:10302000F188A9F800102020FEF749FDC8B3002060
:10303000FFF7B2FC20800120FFF7AEFC6049608002
:10304000097A71B39AF8C0205146920715D591F9C3
:103050007E209AF986105542BBF90220BBF9003058
:1030600055433222594395FBF2F591FBF2F16A1A6E
:10307000238829449A1A228011E091F97E50BBF9E5
:10308000023026885D43322395FBF3F535442580D5
:103090009AF98610BBF90020514391FBF3F10844E3
:1030A000608000254FEA0A0606EBC500B0F97A20D9
:1030B000B0F9781034F9150003F042FD24F815003A
:1030C0006D1C082DF0D396F8C000DFF8F8A040077B
:1030D0000ED53D4800245646C57C2D1F06EB440006
:1030E00001896019C0B205F0ECFB641C042CF5D317
:1030F000314F01203F1F4D46B9F900603A7805E095
:1031000035F91010B14200DD0E46401C9042F7D355
:10311000002448E0B8F8D200B04205DA35F81410BF
:10312000301A081A25F814004FF48040FEF7C7FC47
:10313000A0B1BAF90610B8F816214046914204DD54
:10314000B0F8D220B8F8D81003E0B0F8D620B8F81C
:10315000D41035F9140003F0F3FC15E0B8F8D220D0
:10316000B8F8D01035F9140003F0EAFC25F8140083
:10317000BAF90610B8F81801814207DA1020FEF7F4
:103180009EFC38B1B8F8D40025F814000B484078FC
:1031900018B107E0B8F8D000F6E70C4830F8140092
:1031A00025F81400641C38788442B3D3BDE8FC9F32
:1031B000BC03002044000020CA000020F0090020C9
:1031C0004C0A0020020A0020640800209008002019
:1031D0002DE9F0471746894606460025DFF8288482
:1031E0001AE0002411E000BFD8F8001081F00801B7
:1031F000C8F80010012005F012FC484605F004FC58
:10320000002005F00CFC641CE4B2B442ECD33C207A
:1032100005F0FAFB6D1CEDB2BD42E2D3BDE8F087CC
:103220002DE9F84FF94BFA4CB3F90600E18C8842CE
:1032300001DA642510E0F64AB0F5FA6F92F825201D
:1032400008DA451A5543C1F5FA6195FBF1F1C1F170
:10325000640501E0C2F16405DFF8B8E3A14694F823
:1032600070B094F871A0BEF816410022E74940F210
:10327000E63C31F91260311B01F2F317674503D8C0
:10328000002903DCA11B01E04FF4FA71022A33D0BC
:10329000BBF1000F05D08B4502DAA1EB0B0100E07A
:1032A0000021642391FBF3F3D84F6FF01808243703
:1032B00007EB430C37F91370BCF902C003FB08F3AA
:1032C000ACEB070C01EB83030CFB03FC64239CFBBE
:1032D000F3F31F44D04B23F8127099F823304B437B
:1032E0004FF4FA7193FBF1F1C1F1640189B26943C2
:1032F000642391FBF3F11CE0BAF1000F05D08A457D
:1033000002DAA1EB0A0100E000219EF9EC30DFF8BF
:1033100008C35B424B43ACF8043099F824300029D1
:1033200000DC49424B434FF4FA7193FBF1F1C1F1D8
:10333000640109EB0207642397F801C0DFF8D88223
:103340000CFB01FC9CFBF3FCA8F1760808F802C01A
:1033500097F80BC008F103080CFB01FC9CFBF3FC85
:1033600008F802C07F7D4F4397FBF3F108F1030398
:10337000A642995405DAA84931F812305B4221F887
:103380001230521C032AFFF671AF7646BEF81811B0
:103390004FF4FA6203F0D4FBB6F818114FF47A72C6
:1033A000401A5043C1F5FA61B0FBF1F2642192FB7F
:1033B000F1F0964B6FF01805323303EB400433F90C
:1033C00010306843B4F9024002EB8000E41A444331
:1033D00094FBF1F0DFF840828C4D1844123DA8F8C0
:1033E0000600687AA8F19804E8B38C48B4F918107C
:1033F000B0F90000401A08F0E5F9894908F066F9CB
:10340000884908F095F9074609F0E2F80090384637
:1034100009F0C8FC83464746B8F9000008F0D2F925
:103420008246594608F052F98046B7F9020008F082
:10343000C9F98146009908F049F9414608F0EEF8CB
:1034400008F0CEF980464846594608F03FF98146D3
:103450005046009908F03AF9494608F031F908F069
:10346000BFF9388000E001E0A7F802800220FEF7F3
:1034700026FB0027E8B3E189E06C0844E064E079CA
:10348000401CC0B20621B0FBF1F2E07101FB12005A
:1034900080BB606CC11700EB5171A0EBE100606470
:1034A000002004F0D5F9616C0844C117606400EB9A
:1034B0005170C0F3CF0001F054F8608396F80C010E
:1034C000C0B1A06CC11700EB5171A0EBE100A0648A
:1034D000022004F0BDF9A16C0844C117A06400EB00
:1034E0005170C0F3CF0001F054F8A066E16C48437E
:1034F00001E021E014E04FF47A7190FBF1F0DFF885
:1035000018C1C117ACF1180CDCE90423801859412B
:10351000CCE90401444A002307F07EFFE764E0663B
:10352000608B218C884203D896F80B11814201D917
:10353000A77101E00420A071A07903F068FA3B486C
:10354000314E008818B10220FEF7A4FA10B93848AD
:10355000008820B1306880F0080030600CE0A97865
:10356000082011B12849091D0860697811B1264960
:103570000831086003F053FF8020FEF7A0FA48B13D
:10358000216DE06A411A05D44CF25031084420659F
:1035900005F068FD216CE06A411A03D4697B39B1FA
:1035A0000120A87002F0A3F82248007848B10FE08B
:1035B000AF70316881F0080131601F490844206410
:1035C000F0E74FF40060FEF77AFA08B103F05FFF0E
:1035D0002020FEF75FFA68B1616DE06A411A09D4F4
:1035E000217B052906D3154908446065306880F0C1
:1035F0001000306012488168002923D001B00648CD
:10360000BDE8F04F7C3808470C0C0140020A00204E
:1036100064070020BC03002078010020E4010020A2
:10362000DB0F494000003443407E0500B20100201A
:10363000B40100200000002020A10700F049020092
:10364000D40B0020BDE8F88FF749084490F80D012D
:1036500005F041B92DE9F0470820FEF730FAF34EA6
:10366000F34D4FF0000440B1716BE0B2884725F88C
:103670001400641C082CF7DBD0E5ED4F40F2DD5858
:103680004FF000098E3F716BE0B28847A0F2EE2147
:10369000414502D3E448B0F81601B16D07EBC4020E
:1036A000CB1701EB937323F00303C91A22F811001F
:1036B00025F814905FF0000035F8143032F810103F
:1036C000401C194425F814100428F5DB35F91400C2
:1036D000C11700EB9170801025F81400641C082CB1
:1036E000D1DBB06D401CB06598E5D2480288D04867
:1036F0001238417852B9827842B1002905D10121AE
:103700004170CD48C9490088088370470029FCD121
:103710000122FF2102205BE52DE9FC5F00208346AA
:10372000054607460190C1489830B0F902104B4257
:10373000002901DD0C4600E01C468246B0F900007D
:103740004242002801DD064600E01646B44205DD8F
:10375000002901DD084604E0184602E0002800DCEC
:103760001046DFF8D89200240090B14E123EF07857
:1037700008B93079F0B3022C40DAAC483C3030F96B
:1037800014103AF9140001EB4000A749B1F8F620F3
:10379000514203F0D5F9AA49DFF8A8B231F9141063
:1037A000411A0BEB4400B0F92A0001EB00089BF82A
:1037B0000810642001FB08F191FBF0F09BF81C104D
:1037C00001EB8102494201EB810103F0B9F901905B
:1037D000964842F21072843050F8241001EB080031
:1037E000514203F0ADF99149843141F824009BF82E
:1037F000121000E008E048434FEA203BF07818B18F
:10380000307908B9022C4FD13AF91450884F05EBA2
:10381000850001018B489A3F00EB04084FF47A526F
:1038200098F8010091FBF0F039F91410401A57F89C
:1038300024100844514203F083F947F8240039F971
:10384000140000F52070B0F5A06F06D8022C07D147
:10385000BAF904006430C82802D9002047F82400CF
:1038600057F824007D2190FBF1F198F80B004143BB
:1038700030798F11B0B1022C14DA0098009BC0F59A
:10388000FA71019801FB00F2009801FB0BF105FBB6
:1038900000204FF4FA7207FB031190FBF2F091FB4A
:1038A000F2F608E0F07820B1022C02DA5E460198C8
:1038B00001E028463E465D4A39F914102232502371
:1038C000125DDFF86C814A4392FBF3F2574B821A88
:1038D0007833A8F14E0833F9140023F81410081AAD
:1038E00008F10C0158F8243051F824C041F8243074
:1038F0009C44844448F824004C482830005D00FB78
:103900000CF0C11700EBD1609119A1EB6010474991
:103910007E3121F81400641C032CFFF626AFBDE8AD
:10392000FC9F2DE9F05FDFF804B1414E00240BF15C
:10393000980BDFF810A19A3EDFF8F09001E0022C1E
:1039400071D03A483BF914103C304FF4FA7230F918
:1039500014000844514203F0F3F83949554631F94F
:103960001410401A0AEB4401B1F92A10084407F078
:1039700029FF354907F0DCFE07F032FF2C4A123AE6
:10398000D178E9B3297A41430911AA462B480AEBB9
:10399000040730F91400FA7A0D1A787856F82410D2
:1039A00068434FEAE018B9F80E006843C01200FB04
:1039B00002104FF4001246F82400514203F0C0F800
:1039C00046F8240043131A481E3850F8241040F8D3
:1039D0002450B9F80E00691A02094FF6FF70B0FBC7
:1039E000F2F0484312498011363901F10C0251F8C6
:1039F000245052F824C042F82450AC44844400E0DF
:103A00002CE041F82400787D08EB030100FB0CF06A
:103A100001EB202005497E3121F81400641C032CA1
:103A20008DDBBDE8F09F11E0BC030020E00000202A
:103A3000020A0020B4010020E401002084000020DC
:103A40004400002064070020000020419AF8240070
:103A5000BBF904101B304843411197E795F8231038
:103A60003BF914301B31594312790911002A8CD0CB
:103A7000AA7C424301EB222187E7FA49012801D0C1
:103A8000F94800E0F948886370472DE9F84F0027AE
:103A9000B946B8460820FEF712F8A8B1F44890F8E5
:103AA0001501052810D2DFE800F0030306090C0019
:103AB00002F02DFF07E003F0D8F904E003F068FA04
:103AC00001E003F02BFE8046DFF898A3E94CDFF815
:103AD000A8B3DAF82C10DAF85C004FF00106081AE7
:103AE0004FF0000502D5B8F1000F7CD044F62062FB
:103AF0001144CAF85C10FFF7ADFD4FF48040FDF7AC
:103B0000DEFF28B1DB485C30007808B900F066FCC5
:103B1000DFF85C8398F81F01C0B1D6494FF47A7280
:103B2000123101EB40000021B0F90600A0F57A70D7
:103B300003F006F807F046FED04907F0F9FDD0493A
:103B400007F0C4FD07F065FEAAF81E004FF40070F0
:103B5000FDF7B5FFB8B39BF8B8C0BAF910200CEB6D
:103B60008C0191421DDA6078D8B1C2490020B8F9C1
:103B70001631123121F81030401C0328FADBBBF853
:103B8000BA30CB809BF8B900604400EB80009042D3
:103B900002DA00F023FC2570BAF81210491CAAF8CA
:103BA00012109BF8B80000EB8001BAF910008142B6
:103BB00004DA607810B900F011FC2570BAF8101022
:103BC000491CAAF81010AA49DFF8A8820020B1F811
:103BD0001821B1F81A3108F11208BF0838F910C0DD
:103BE000944503DD00E05CE247F080079C4501DA84
:103BF00047F04007401C0428EFDB9AF809105046B4
:103C00008F4205D1017AFA2903D2491C017200E0E2
:103C100005728AF809704FF480473846FDF74FFF68
:103C200060B19348B8F90620B0F81611B0F8DC007E
:103C30000B1A934202DA084490420ADC3846FDF738
:103C40003EFFD0B98A48B8F90610B0F81801814291
:103C500013DA88488838056045608560814884307B
:103C600005604560BBF8460090B182485C30007842
:103C700050B1207860B1FFF738FDBBF8460038B18D
:103C80007C485C30007818B9607808B100F0A6FB79
:103C90009AF8080014281AD16078C8B1BBF8460019
:103CA0005F4628B99AF809005F2801D100F096FB19
:103CB0006F4890F81C01002809D0B7F8460000288A
:103CC00005D19AF809007D2801D100F087FB90E02A
:103CD0009AF80900572809D00420FDF7F0FEE8B152
:103CE0009AF8091050465A2921D017E065494FF437
:103CF0007A7008804FF48070FDF7E1FE08B102F0A1
:103D0000A4F80420FDF7C6FE10B15F480A21018027
:103D10000820FDF7BFFE08B95C4805809AF8090045
:103D20005D2815D05B2815D05E2815D022E0C1781B
:103D300019B1C5708AF804601CE0817891F0010126
:103D4000817001D0022100E003218AF8001011E007
:103D5000012702E0022700E003274549781E81F889
:103D6000A40300210846FDF7AAFC3A4628210220B8
:103D7000FFF72EFABBF846005F4618B99AF809100B
:103D80006F290FD03A4991F81C1121B118B99AF84E
:103D900009007E2806D09AF80900972805D0A728A0
:103DA00008D008E0FFF7A1FC05E039494FF4C870DE
:103DB000088000E0A6739AF80900BB2806D0B7284F
:103DC00007D0BE2809D0BD280AD012E0B88D801CCB
:103DD00001E0B88D801EB88505E0788D801C01E07B
:103DE000788D801E788501210846FDF768FC8AF8E9
:103DF00008500420FDF763FE30B39AF802205046C5
:103E0000322172B1627862B1194AB8F90630B2F85B
:103E10001821934205DD174A5C3212780AB9818273
:103E20008570144A5C32527C3AB14279C3781A43A5
:103E300000D181828AF8056006E0C17821B16178FD
:103E400011B9C5708AF804600020C64640F2A46724
:103E50000EEB4001B1F9082040F214518A4219DA00
:103E6000012318E0E000002019370008233900087A
:103E7000BC030020F00900206407002000007A4401
:103E800000C07F44B4010020E2010020E4010020D2
:103E9000B2010020002300EB40018B40A2F2155C30
:103EA000BCF5C77F02D84FF0010C01E04FF0000CC9
:103EB00001F101080CFA08FC43EA0C03BA4201DDE7
:103EC000012200E00022891C8A40134343EA0903CF
:103ED000401C1FFA83F90428BADBFF4F002000BF03
:103EE0000BEB4001B1F8461011EA090100D00121A5
:103EF0003954401C1528F3DB787838B99BF8B800A2
:103F000000EB8001BAF9100081420ADA0220FDF7C5
:103F1000C1FD30B1E07828B9F04805604560E67031
:103F200000E0E570B87838B1E570207928B9EB4841
:103F300005604560267100E025713878B84600B903
:103F40002670E178102009B9217909B1E44901E02E
:103F5000E349091F08600420FDF79CFDF8B198F8BB
:103F60000300474680B1A07978B9DE48A6710168A0
:103F7000DD480160D9481430C188DC48AAF8161021
:103F80000560DB48056000E0A5714FF40050FDF7C7
:103F900096FD20B1387918B1E07B00B9E67300E0F6
:103FA000E5730220FDF776FD18B90820FDF772FDD4
:103FB000D0B198F80510404639B1617931B9CD4991
:103FC00066710A88CC490A8000E06571817919B16F
:103FD000617A11B9667200E0657298F8070018B14D
:103FE000C4480188AAF818102020FDF753FDE0B35B
:103FF000E07AD8B39AF80C00574605283FD398F8D2
:104000000A1061B1E07980BBB449E67125722831AC
:10401000BD72081F02F07FFB0220787033E0E5716B
:1040200098F80B0018B3AD4A1432B2F9000000281A
:1040300000DC4042BBF8CC10884218DAB2F902002A
:10404000002800DC4042884211DA207A68B9A3488F
:1040500026721C30BD7200F11001026804C1406874
:104060000860081F02F057FB7E700CE007E0257225
:10407000B87A40B98AF80A6002F0F2FA03E0E57112
:1040800025728AF8015098F80C0008B1A67200E079
:10409000A5729A484079082801D00E283DD1657252
:1040A0003BE0DAF864005746052836D2DFE800F036
:1040B000030B151F2A0008207E66FDF7EBFC10B1EC
:1040C00000F07FFC48BB786E401C78660420FDF74A
:1040D000E1FC10B100F0B2FBF8B9786E401C7866D4
:1040E0000420FDF7D7FC10B1FEF7EAF8A8B9786E06
:1040F000401C78664FF48070FDF7E1FC10B102F0CF
:104100006CFA0AE010207D66FDF7C4FC08B100F0EF
:10411000D9FC4FF40050FDF7D2FC04F04CFC774979
:10412000CAF82C0057468A8912B13B6EC31A78D45C
:10413000104488463866FEF78CF804F03CFCF862C0
:10414000398E411AF9813863FFF76AF80820FDF7C4
:10415000A1FC48B361491431B1F9042002F14500D2
:104160008A2822D8607900B36248038862480088B0
:10417000181A00B210F1B40F02DC00F5B47000B2EE
:10418000B42802DBA0F5B47000B298F9EC305B42C1
:10419000434318B2637B3BB19BF8093043431E2075
:1041A00093FBF0F0101A888003E0524801885248CF
:1041B00001800420FDF76EFC70B1A07960B1207C15
:1041C00088B146484A49143098F91E31B0F90220A6
:1041D000096801FB032141809BF876005D4680B3AE
:1041E000E07878BB4FE0DFF8F4909BF8730009F1BA
:1041F0001409B7F91630B9F90620E8B1A2EB030C9F
:10420000BCF1000F01DCA3EB020C9BF872008445AB
:1042100008DD36499A420D60FE7200DD40421044CE
:1042200007E0D9E0F87A20B32E4801682E480160F3
:104230001EE0A9F80600CFE7D01A002803DD0246E9
:1042400002E029E021E09A1A9BF872C02C496245ED
:1042500007DD2C4A00EBD070401010600E70FE722B
:1042600007E0F87A28B11F4802681F4802600D7005
:10427000FD721F48B8F8D220B8F8D0100068184472
:1042800002F05EFCD5E7207930B114481E4A1430A4
:10429000C18812881144C1802020FDF7FBFBB8B310
:1042A000E07908B9207A98B3207B88B3114CB4F92F
:1042B000000007F087FA154E314607F007FA08F0BC
:1042C00071FD0090B4F9000007F07CFA314607F068
:1042D000FDF908F07DF91CE04C0A00206401002083
:1042E000140C0140700000207400002038000020F1
:1042F00030000020E4010020E6010020BC03002083
:104300000C000020340000201000002035FA8E3C04
:1043100058E00646354C95F8C500DFF8D490A4F176
:10432000340800B3A246B4F90200241DB4F9021007
:10433000401A01F037FB15F8C52F514202F000FC7E
:10434000618808446080BAF90000B4F90010401A8E
:1043500001F028FB2A78514202F0F2FB2188084440
:1043600000B2208001E0B4F9000007F02BFA834688
:10437000009907F0ABF90546B4F9020007F022FAFC
:104380008246314607F0A2F9294607F099F94D46D1
:10439000494607F0CDF907F023FAA8F80000444693
:1043A0005846314607F092F906465046009907F004
:1043B0008DF9314607F032F9294607F0B9F907F0CF
:1043C0000FFA6080B86B8047FEF7A3FCFEF7ADFBE9
:1043D000BDE8F84FFEF7FDBBBDE8F88F0548417812
:1043E000002901D0002141707047000050010020D9
:1043F00000002041F00900202DE9F843FA4CFB4B66
:10440000FB490026B4F8EE209846A1F1100004F014
:104410002AFF08B101260CE0B4F8EE10F44805F0CC
:1044200035F930B9B4F8EE10F14804F088F80028F6
:104430007ED0F04D5FF0000794F8ED0006283CD2E6
:10444000DFE800F00707192833030220FDF72FFBF0
:1044500033E08DF800704FF44870E549ADF8020084
:104460001039684603F09FFA08B10120287094F8CB
:10447000ED00012821D06EB1DD49B4F8EE204346AD
:10448000A1F1100004F0EFFE0220287094F8ED0076
:1044900002281DD0D648103804F0EEFF28B10320C2
:1044A000287094F8ED00032812D0D148103805F098
:1044B00024FF10B1042028700AE0287840B994F84D
:1044C000ED0010B184F8ED70B6E70220FDF7EFFAC9
:1044D000C748103003F00EFB38B9C548103005F05E
:1044E000D8F910B90420FDF7E2FA0220FDF7D2FA5C
:1044F00028B1BF4994F8E300103909688847BC49DE
:1045000014F8E20F09688847A07803F00DFC10B991
:104510000820FDF7CCFAB8486421B0F9282092FBB6
:10452000F1F001FB102406B20820FDF7B3FA00E019
:1045300015E0B24D88B1204607F044F9B04907F0C4
:10454000C5F80446304607F03DF9214607F066F805
:10455000AC4907F0BBF8286000E02F600120BDE8FF
:10456000F88370B50546A04890F8090107F033F9C3
:104570000446284607F02FF9A34907F0A7F8A349F6
:1045800007F0D6F8214607F0A1F807F042F980B20B
:1045900070BD40F6E441484340F6FF71B0FBF1F0D6
:1045A0009149B1F80621B1F80411801A4FF47A72DA
:1045B000504390FBF1F0704770B500252C46002069
:1045C00003F046F905440A2004F01EFA641C202C6E
:1045D000F5D3C5F34F10FFF7C4FF834A012192F8CA
:1045E0000A3100BF03FB01F4844202D8491C0829A8
:1045F000F8D38748017092F80B0148438549088039
:1046000070BD2DE9F05FDFF8EC91834E7A4FB9F879
:104610000220754C0025CAB3804900204FF4C878A9
:10462000424501D141F8205051F8203036F910C0F0
:10463000634441F8203026F8105004EB4003401C3E
:10464000A3F8F8500328EBDB012A1AD10868C83018
:1046500090FBF8F0A4F8F8004868C83090FBF8F038
:10466000A4F8FA008868C83090FBF8F1B9F80600A1
:10467000081AA4F8FC007D850121BD850846FDF7D8
:104680001EF8B9F80210491EA9F802100420FDF71F
:1046900016FA002876D0624BDFF858815F491A88F5
:1046A00008F120080C31A8F1180A322A05D0E2B32B
:1046B00000209B46322A15D016E0B4F8F800A8F87E
:1046C0000000B4F8FA00A8F80200B4F8FC00A8F85A
:1046D0000400B7F82AC0AAF800C0B7F82CC0AAF89E
:1046E00002C0E5E741F8205051F8203036F910C0FB
:1046F000634441F8203026F8105004EB4003401C7E
:10470000A3F8F8500328D5DB012A1BD14548464BB6
:10471000057001201870454B02201870B8F8000091
:10472000A4F8F800B8F8020000E00EE0A4F8FA00DF
:10473000B8F80400A4F8FC00BAF800307B85BAF899
:104740000200B885521EABF8002039480278CAB181
:1047500005700A68322092FBF0F2A4F8F8204A684B
:1047600092FBF0F2A4F8FA20896891FBF0F1B9F815
:104770000600081AA4F8FC007D850121BD850846C5
:10478000FCF79DFF308834F8F81F401A308070889D
:104790006188401A7080B088A188401AB080BDE856
:1047A000F09F134810B5103841681B488847BDE892
:1047B000104026E730B50F4C0F4AE06892F83120E0
:1047C0000146401C824200D100201A4A1368134A55
:1047D000183242F82130184952F820200D682B4435
:1047E0009A1A0A60E06030BDBC0300207408002003
:1047F000D40B0020B00100206407002040000020FE
:104800008988883C000020413333534000F07F45C5
:104810009C0100200001002090000020A40A00203C
:10482000F4000020E5000020E3000020E00000206C
:10483000E4000020B80000201C00002070B5BA4839
:10484000BA4C00682169411A01D5002070BD206171
:10485000B74D606978B128698047686880472888C3
:104860002169084420616A69B249B3489047002031
:104870006061022070BDA8688047E8688047FFF744
:1048800099FF012060616888216908442061012046
:1048900070BD2DE9F05FA54DA88800286DD0DFF828
:1048A00090820024A8F15C08A3464FF47A79A8F11D
:1048B0000C06A888484507D104EB840208EB820166
:1048C00046F824B0C1F810B09C4F56F8241037F9C0
:1048D0001400014446F8241006F074FF014604EB6E
:1048E000840208EB8200824600F0EFF827F814B04B
:1048F000934F27F814B0A888012838D1DAF81000AF
:10490000012808DD401E06F05DFF0146DAF80C00C4
:1049100006F00EFF00E0002008F00AFB82468948FE
:1049200090F8F400B0B106F056FF514606F086FF4D
:1049300010D27F49A5F804905C39C8F810B0C1F8CE
:1049400024B0C1F838B0C6F808B0C6F804B0C6F84C
:1049500000B00CE056F82400012200F5FA7090FB3C
:10496000F9F027F814000F210A20FEF731FC641C2F
:10497000032C9EDBA888401EA8807049704A002046
:1049800031F8103032F810401B1B21F81030401C59
:104990000328F5DB03E7664810B51038416867481F
:1049A0008847BDE8104074E710B5674810240460DC
:1049B00003F009FA6448001F04605C490120487054
:1049C00010BD2DE9F0415848584C0068A169411AC2
:1049D00002D50020BDE8F0815C490844A0615C4834
:1049E00003F0B9F9DFF86CC1504B00269CF80E00BB
:1049F0005749544A26339D1D88B1A069E0610020C3
:104A000002EB4007A7F8FE6031F8107023F8107031
:104A100025F81070401C0328F2D38CF80E606078E3
:104A200070B10888B2F8FE70C01B08804888B2F8E0
:104A30000071C01B48808888B2F80271C01B888052
:104A4000E06990B3A769381A434FB84218D23E487C
:104A50000838026882F008020260002031F9102054
:104A600033F91040A24201DA23F8102035F9104042
:104A7000A24201DD25F81020401C0328EED314E0EB
:104A80000020E66133F9101035F91040214401EBA4
:104A9000D17102EB40044910401CA4F8FE10032819
:104AA000F0D301210846FCF70AFE012092E710B579
:104AB000012004F033FD1020FCF7F4FF274900200B
:104AC000086010BD254804F07CBD2DE9F041044686
:104AD00000690E46401C206101281FD006F072FEBE
:104AE000256880462946304606F0EAFD07464146DD
:104AF00006F01EFE294606F091FD05466060294637
:104B0000304606F0DDFD0146384606F0DFFDA168BF
:104B100006F084FDE0602560A0605BE76660002031
:104B20002660A06056E700000C010020B0010020C4
:104B3000E40B0020BC000020B80000208A00002008
:104B4000C0000020BC030020140C0140A08601001E
:104B50009C000020F009002080C3C9012C00002027
:104B600070B5F74CF74EC1B205466170306805F07C
:104B7000E5FBA07961784840A071C5F30721617019
:104B8000306805F0DBFBA07961784840A071C5F37F
:104B900007416170306805F0D1FBA0796178484029
:104BA000A071290E6170306805F0C8FBA0796178AA
:104BB0004840A07170BD70B5E14CE24EC1B20546EF
:104BC000A170306805F0BAFBA079A1784840A071C7
:104BD000C5F30721A170306805F0B0FBA079A1787A
:104BE0004840A07170BD10B50446D6482146006803
:104BF00005F0A4FBD24881796140817110BDD04A93
:104C0000D148D179405C491CD171704700B5FFF79C
:104C1000F6FF0346FFF7F3FF03EB002080B200BD71
:104C200010B5FFF7F3FF0446FFF7F0FF04EB004079
:104C300010BD70B504460D462420FFF7D4FF4D206B
:104C4000FFF7D1FF0CB1212000E03E20FFF7CBFFA2
:104C5000BB4C0020A0712846FFF7C5FF207ABDE8B5
:104C60007040C0E701460020E3E701460120E0E78D
:104C7000B3488079B7E770B504460D460846FFF79C
:104C8000F1FF03E014F8010BFFF7ADFF6D1EEDB26D
:104C9000F8D270BD10B5044603E000BFFFF7A3FFD4
:104CA000641C20780028F9D110BD2DE9F05FDFF8F1
:104CB0009CB2DFF88C9201274FF0000A00251AE021
:104CC000A1481538405D00EB40010BEB8108D8F896
:104CD000040006F054FC06460FB1B2440AE000247A
:104CE00006E000BFD8F80400005DFFF77CFF641CFD
:104CF000B442F7DB6D1C99F800008542E0DB002F21
:104D000005D00AF0FF00FFF7ADFF0027D6E7BDE8AA
:104D1000F09F70B50246032300218D4803F0FAFF8F
:104D20008849FF22086088481521153806F0E1FB04
:104D3000854D0020153D012428700220FCF7AAFEB5
:104D400020B1012068700220A87003240420FCF721
:104D5000A1FE50B1032028554FF40050641CFCF70D
:104D6000AEFE10B104202855641C0220FCF792FE10
:104D700018B90820FCF78EFE40B105202855641CA8
:104D800006202855641C07202855641C2020FCF7A9
:104D900096FE10B108202855641C4FF48070FCF773
:104DA0008EFE28B10A202855641C0B202855641C4F
:104DB000684E7079082801D00E2802D10C202855A1
:104DC000641C0D2028550420641CFCF778FE10B1EB
:104DD00011202855641C1320285596F83001641CB6
:104DE00000B10120FCF76BFE10B114202855641CA3
:104DF0005348047070BD2DE9F05F514CDFF848B1A5
:104E00004FF00008217A534E534D544FC1464FF096
:104E1000010AABF1150B78297AD011DC2046A1F1FB
:104E200064010078142974D2DFE801F0FDFCFBFA7C
:104E3000F9F8F7F6F5F4F3F2F1F0EFEEEDECEBEA5A
:104E40004648D029407875D018DCCB2973D00CDCCB
:104E5000C8292AD004DCA0296ED0A42959D1FBE3AB
:104E6000C92939D0CA29F9D154E0CC2965D0CD2936
:104E700064D0CE2963D0CF29F0D1AAE0D6297BD047
:104E80000ADC4FF00008D12977D0D22976D0D32977
:104E900075D0D429E2D1D4E1EF2916D0F0296FD012
:104EA000FA296ED0FE29D9D1C0E32D4D002400BFD0
:104EB000FFF7ACFE25F81400641C082CF8D3002082
:104EC000FFF7D0FE02F026FC61E2FFF79FFEA88507
:104ED000FFF79CFE6885A5E3FFF791FEF872FFF7E8
:104EE0008EFE20490870FFF79BFE1F4C2060FFF7E5
:104EF00097FE6060FFF78AFE1C490880FFF786FE78
:104F00001B4908801B48017841F00201017089E3C8
:104F10007DE17FE35FF00003FFF771FEEC18607046
:104F2000FFF76DFEE072FFF76AFE5B1C60750A2BEF
:104F3000F2D377E35EE325E0A1E333E05FE364E3EC
:104F4000E801002064080020110C002038DF000870
:104F500000380140BC03002064070020F009002055
:104F6000020A0020EC00002080010020AA0100209D
:104F7000AC0100209801002069E00AE372E07DE0C6
:104F800073E346E300265F4608E000BFFFF73EFEFE
:104F9000B95D761C05EB4101A1F8460020788642F8
:104FA000F4D33FE3FFF72BFE05F81F0FFFF727FEB3
:104FB0006870FFF724FE2871FFF721FE6871FFF784
:104FC0001EFEA871FFF71BFEA870FFF718FEE87021
:104FD00028E3FFF71BFEFFF719FE26F8D00FFFF7B7
:104FE00015FE7080FFF712FEB080FFF70FFEA5F8E8
:104FF000BA00FFF70BFEFFF713FEFFF707FE13E003
:105000000DE2A2E2EEE107E293E261E2F1E1D7E133
:10501000BEE18AE17FE16EE15BE13DE12EE128E165
:10502000F2E0BEE043E02DE000EB80004000288588
:10503000FFF7E5FD86F83900FFF7E1FD86F83B0054
:10504000FFF7DDFD86F83A00FFF7D9FDEAE2FF4DF4
:10505000002400BFFFF7DAFD25F81400641C082CBB
:10506000F8D3DFE200289CD1FFF7C9FD86F8A4033E
:10507000022801D986F8A4830021D0E2FFF7C6FDFB
:10508000F349C0E20720FFF7EDFDE620FFF7ABFD97
:105090007079FFF7A8FD0020FFF7A5FD96F81D0128
:1050A00000B10820EB490843FFF75AFD1BE30B2032
:1050B000FFF7D8FDE848008800B2FFF77CFD03F059
:1050C00078F900B2FFF777FD0220FCF7E3FC054614
:1050D0000420FCF7DFFC45EA40050820FCF7DAFC79
:1050E00045EA80052020FCF7D5FC45EAC0051020E4
:1050F000FCF7D0FC45EA0010FFF75DFDF9783A793E
:10510000490041EA8201BA79002041EAC2017A7974
:10511000247841EA42117A7AD44641EA8212CF4990
:10512000CB7942EAC3120B7A42EA03224B7A42EA73
:105130004322FB7942EA83223B7A42EAC322BB7ACA
:1051400042EA03324B7B42EA43328B7B42EA8332B0
:105150000B7C42EA03420B7942EA03124B7C42EA9F
:1051600043428B7C42EA8342CB7C097D42EAC342C4
:1051700042EA015579785F460D43002108E07B5CE7
:105180000CFA03F32B4202D00CFA01F21043491C33
:10519000A142F4D3FFF7E4FC96F8A403FFF723FD44
:1051A000A1E21220FFF75EFDAD48AE4D4FF00004C6
:1051B0000088B0F5806F0BD935F91400C11700EBEA
:1051C0005170C010FFF7F7FC641C032CF4D306E009
:1051D00035F91400FFF7EFFC641C032CF8D3A24D43
:1051E000002400BF35F91400FFF7E5FC641C032C14
:1051F000F8D39E4D002400BF35F91400FFF7DBFC07
:10520000641C032CF8D36EE21021994833E0382057
:10521000FFF728FD5FF0000405EBC40636F9780FB0
:10522000FFF7C9FCB6F90200FFF7C5FCB6F90400A8
:10523000FFF7C1FCB079FFF7D6FC641C082CEBD358
:1052400051E20020FFF70EFD5FF00004FFF7DEFCE7
:1052500005EBC40626F8780FFFF7D8FC7080FFF73F
:10526000D5FCB080FFF7CBFC641CB071082CEDD3EB
:1052700039E210217F48FFF7FEFC34E21020FFF7EF
:10528000F1FC7D4D002400BF35F91400FFF793FCBD
:10529000641C082CF8D326E21020FFF7E3FCF87A10
:1052A000FFF7A1FC75480078FFF79DFC744C20685F
:1052B000FFF756FC6068FFF753FC7248008800B2A5
:1052C000FFF779FC7048008800B2FFF774FC6F4864
:1052D00029E00520FFF7C6FC6D48008800B2FFF703
:1052E0006AFC6C48B0F90000FFF765FC6A4800787A
:1052F00000F0010052E70620FFF7B4FC674D0024E0
:1053000035F91400FFF757FC641C022CF8D36448ED
:10531000B0F9000039E00620FFF7A4FC61480068FE
:10532000FFF71EFC604800882EE00720FFF79AFC7C
:105330005E48FF220021008801F002FCC0B2FFF7A6
:1053400052FC5B484FF6FF7422460021006801F0D2
:10535000F7FB00B2FFF72FFC5648008800B2FFF7BA
:105360002AFC554896F80811006831B1002800DC85
:10537000404200EB8000400002E0002800DC404298
:105380002246002101F0DCFB00B2FFF714FCAAE189
:105390000720FFF767FC15F81F0FFFF724FC68785C
:1053A000FFF721FC2879FFF71EFC6879FFF71BFC4B
:1053B000A879FFF718FCA878FFF715FCE878EDE668
:1053C0001E20FFF74FFC00242E197078FFF70BFC0E
:1053D000F07AFFF708FC707DFFF705FC641C0A2CCF
:1053E000F2D380E12F20FFF73DFC3448FFF752FC59
:1053F00079E14006000EFFF735FC00265F4607E026
:10540000B85D05EB4000B0F94600FFF7D4FB761C11
:1054100020788642F4D366E1FFF747FC63E1FFF7AB
:1054200021FC0025264E5F46A0464CE05FF00004BC
:1054300004EB440006EB8000795D007A884201D1DC
:10544000FFF7D1FB641C152CF2D33BE09008002041
:10545000E601002004000080EE0000204C0A00203D
:10546000B601002096000020840000209C0000204F
:10547000CA00002078080020020A0020EC0000206A
:1054800080010020AA010020AC0100209A01002028
:10549000A6010020A801002098010020440000205F
:1054A000E4010020700000203C000020FA000020F1
:1054B0004C010020FE0000204801002040E00008D0
:1054C00038DF00086D1C98F800008542AED30AE171
:1054D0001620FFF7C7FB0020FFF76DFB36F9D00F52
:1054E000FFF769FBB6F90200FFF765FBB6F90400A8
:1054F000FFF761FBB5F9BA00FFF75DFB0020FFF78E
:105500005AFB0020FFF72CFBB5F928000A2190FB7D
:10551000F1F000B2FFF74FFB96F83900FFF763FB9D
:1055200096F83B00FFF75FFB96F83A00FFF75BFB4E
:105530002DE00820FFF796FB0024601CC0B2FFF7A7
:1055400052FB641C082CF8D3CDE0FFF758FB04464F
:105550001220FFF787FB14B1102C02D004E096480C
:1055600000E09648D0E900892046FFF73CFB404622
:10557000FFF7F6FA4846FFF7F3FA91480068FFF79D
:10558000EFFA0020FFF717FB0020FFF714FB0020C5
:1055900004E6FFF734FB8446FFF742FB0546FFF7BE
:1055A0003FFB0646FFF73CFB0446FFF72FFBFFF7E8
:1055B0002DFBFFF724FB5FEA0C0002D010280BD074
:1055C00030E07D48C0E9005687F8078087F80CA0D6
:1055D00044B37B48046025E07849C1E900560CB12A
:1055E00077480460774A0220091D1070734801F063
:1055F00092F817E0B0B90120FCF73DFA12E088B943
:1056000071494FF4C87008800CE058B987F80EA0B3
:1056100008E018B10020FFF728FB64E0012100201A
:10562000FCF74DF80020FFF71DFB5CE00820FFF7BA
:1056300019FB6648674A684D016865481268B1FB06
:10564000F0F1B2FBF0F000EB4002C2EBC01001EB56
:10565000C000E880002400E021E035F91400FFF7E5
:10566000AAFA641C042CF6D33DE00420FFF7FAFAF2
:10567000B5F92C00FFF79FFAB5F92A0085E60C2052
:10568000FFF7F0FA55480068FFF76AFA5348001D23
:105690000068FFF765FA51480830006804E5504D8E
:1056A00029780AEB8100C0B2FFF7DCFA2878FFF70F
:1056B0009AFA00244B4E4C4FDFF83081DFF83091DE
:1056C0000EE0305DFFF78FFA385DFFF78CFA18F8BF
:1056D0000400FFF788FA19F80400FFF784FA641C45
:1056E00028788442EDD3BDE8F05FFFF7C1BA70B50A
:1056F0004048414C414E0078002540B3BDE8704021
:10570000FBF766BC306804F02BFE617951B10129CA
:1057100021D0022924D0032928D004292ED00529FC
:1057200044D131E0242803D00021617179B901E02E
:105730000121FAE73249497849B9232808D031498B
:1057400091F8A513814231D1012003F030FA2DE008
:10575000FBF73EFC2AE04D2804D10220607125E0D1
:105760003C2801D00020F9E70320F7E740281CD8A7
:105770002071E570E571A0710420EFE72072A17936
:105780004140A1710520E9E7E1782279914207D2F1
:10579000A2794240A2711C4A5054491CE17005E0B4
:1057A000A179814201D1FFF726FB6571306804F0D1
:1057B000D4FD0028A6D170BD8801002090010020F2
:1057C00074000020E1000020B201002054030020FA
:1057D00040420F00580300209E010020E8F7FF1F01
:1057E000AE010020610A0020710A0020810A002019
:1057F000910A002000000020E80100206408002039
:10580000F0090020BC030020110C00202DE9F04716
:10581000F94C607905F0DFFFDFF8E093494605F0C9
:1058200087FFF74D2860E07B05F0D5FF494605F07E
:105830007FFFF44EEE606860A07905F0CCFFF24F78
:10584000394605F075FF10352860207C05F0C3FF50
:10585000494605F06DFF6860A07E05F0BCFFDFF8EB
:10586000AC83414605F064FFC5E90206E07905F026
:10587000B2FF394605F05CFF10352860607C05F00A
:10588000AAFF494605F054FF6860E07E05F0A3FFDB
:10589000414605F04DFFC5E90206BDE8F08770B549
:1058A00006460325002000F05DFF4FF48070FCF7F2
:1058B00006F900281ED0D24C183C667003F095F80B
:1058C000A06000206060D24890F8200100B9012556
:1058D000FFF79CFFCF482B4600EB061000214268E3
:1058E000CD4803F017FACD494860BDE8704001206B
:1058F00000F038BF70BD2DE9F041C548C74DC04C20
:1059000090F82011C34E6868183C11B1012945D1A7
:1059100006E0617806EB0111496804F024FD3AE0E5
:1059200004F024FD00B32078012802D02069F0B1F2
:1059300024E003F05AF861690746401A64282FD31F
:105940002069052811D206EB00104168686804F050
:105950000AFD607806EB00108168686804F0F1FCCD
:105960002069401CC4E9040718E0022014E06078B4
:1059700006EB00104168686804F0F5FC20698C288B
:1059800009D2A4495031095C686804F0D7FC206949
:10599000401C206102E0032000F0E4FE0020606073
:1059A000BDE8F08144F25061884201DDA0EB410086
:1059B00044F25061C84201DA4900084470472DE9B9
:1059C000F04706465068994614460D46301A05F0D1
:1059D000F9FE296805F0ACFE2061A768394605F09C
:1059E0006FFE8046844890F8C40005F0F4FE8C49B0
:1059F00005F06CFE01464FF07E5005F099FE2D68D3
:105A0000294605F00BFE0146284605F091FE414669
:105A100005F05CFE394605F001FE2061C4E9016035
:105A20000146D9F8080005F051FEBDE8F04705F041
:105A3000D7BE2DE9F0411D4614460E4605F0C2FEC4
:105A4000696805F043FE316805F040FE216805F005
:105A5000E5FD2060ED680746284605F0C1FE0646D4
:105A600085F0004005F0BCFE0546384605F0B8FE5E
:105A70003246294601F064F805F0A4FE2060BDE836
:105A8000F04105F0ADBE70B5664CD4E90D01401A89
:105A9000FFF788FF0028D4E90D01A0EB010002DD2B
:105AA000FFF780FF02E0FFF77DFF404241F29411D3
:105AB000884228DAD4E90D01401A05F083FE5A49DC
:105AC00005F004FE0646E06B05F07CFE0546304618
:105AD00007F068F9294605F0F9FD05F081FE00B2EE
