:020000040800F2
:10000000B02F0020011B0108411B0108013A000824
:10001000451B0108471B0108491B0108000000009F
:100020000000000000000000000000004B1B010861
:100030004D1B0108000000004F1B01087FD5000880
:10004000531B0108531B0108531B0108531B0108D4
:10005000531B0108531B0108531B0108F3E300085D
:10006000531B0108531B0108531B0108531B0108B4
:1000700065DD0008531B010839DD0008531B01082A
:10008000531B0108531B0108531B0108531B010894
:10009000531B0108531B0108531B0108FBE3000815
:1000A000531B0108531B0108531B010853EF0008A1
:1000B0005FEF00086BEF000877EF00081BCC00082B
:1000C0003DC800082BCC000823CC0008531B0108B6
:1000D000531B01088FDD0008CFDD00083DDE00085E
:1000E000B5BE0008531B0108531B0108DFF80CD0F4
:1000F00013F08CF800480047BF350008B02F0020EF
:10010000F0B504460E461546B4FBF5F038B1B4FB25
:10011000F5F72A4631463846FFF7F2FF0646B4FBAC
:10012000F5F005FB1040FCA1085C3070701CF0BDC0
:1001300070B505460C461646022E01DB242E00DD66
:100140000A26002D09DA2D2020703246611C6842F3
:10015000FFF7D6FF0021017006E03246214628460F
:10016000FFF7CEFF00210170204670BD2DE9F05F42
:1001700004464FF0000900E0641C20782028FBD0E2
:1001800020780928F8D04FF07E5820782D2803D108
:10019000DFF8AC83641C03E020782B2800D1641CBA
:1001A00000260FE02178A1F1300012F02FFD054666
:1001B000E449304612F042FC8246294612F0E6FB42
:1001C0000646641C2078302802DB20783928E9DDD7
:1001D00020782E281DD1DB4D641C13E02178A1F17D
:1001E000300012F013FD8346294612F05DFC824672
:1001F000314612F0CBFB0646D249284612F01EFCCF
:100200000546641C2078302802DB20783928E5DD9B
:1002100000BF4FF07E572078652802D0207845280F
:1002200034D1641C4FF0000920782D2803D14FF001
:100230000109641C03E020782B2800D1641C0025F0
:1002400006E02078303805EB850100EB4105641CA1
:100250002078302802DB20783928F2DDB5F59A7F46
:1002600001D94FF49A7505E0B749384612F0E6FB1C
:100270000746083D082DF7D205E0B249384612F08E
:10028000DDFB07466D1E002DF7D100BFB9F1000F51
:1002900004D03946304612F007FC03E039463046B8
:1002A00012F0CCFB0546414612F0C8FBBDE8F09FBA
:1002B0002DE9F04387B007460E46002001900290DA
:1002C00003900FF288280021384612F015FD05D260
:1002D0009F49384612F05AFB074604E09C493846CD
:1002E00012F0A6FB07469B49384612F0A7FB814651
:1002F00012F0ABFC0446002C01DD214600E0614217
:1003000008460A2204A9FFF713FF002C03DB202074
:100310008DF8040002E02D208DF8040004A812F0EE
:10032000E6FA01280BD130208DF805008DF8060083
:100330008DF8070004A901A812F0A5FA1FE004A88F
:1003400012F0D5FA022809D130208DF805008DF879
:10035000060004A901A812F096FA10E004A812F011
:10036000C6FA032807D130208DF8050004A901A89A
:1003700012F089FA03E004A901A812F084FA01A896
:1003800012F0B5FAC01EC5B22A4601A9304612F0D5
:1003900098FA002070554146304612F074FA01A8D0
:1003A0004119304612F06FFA304607B0BDE8F083CD
:1003B00010B5044605E014F8011B674A10680FF0F9
:1003C00059F920780028F6D110BD10B563A0FFF7C9
:1003D000EFFF10BD2DE9F04105460C462F4626469D
:1003E000306812F084FA804631684246386812F06C
:1003F000A7FABDE8F0812DE9F0410546002728461F
:1004000012F075FA00F0FF08B8F1000F0CD10024CB
:1004100007E0544830F81420214653A012F0B4FFEE
:10042000641C182CF5DB17E02E46304612F0A1FABA
:100430000446182C0CDA2021284612F04EFA064603
:10044000304612F096FA0746464820F8147003E04A
:10045000182148A012F098FFBDE8F0812DE9F04F77
:1004600087B007460026B046384612F040FA00F042
:10047000FF09B9F1000F4DD148A0FFF799FF002403
:100480003FE0514901EB04110868002112F02AFCF9
:1004900000D138E008F10108611C4CA012F074FF93
:1004A000494901EB0411086803A9FFF701FF8246DF
:1004B000514648A012F068FF434901EB0411486817
:1004C00003A9FFF7F5FE8246514642A012F05CFFF9
:1004D0003D4901EB0411886803A9FFF7E9FE824654
:1004E00051463CA012F050FF374901EB0411C86897
:1004F00003A9FFF7DDFE8246514637A012F044FF04
:10050000641C0C2CBDDB00BF002002900190009009
:1005100000247EE0A0E0000030313233343536373D
:1005200038394142434445464748494A4B4C4D4E71
:100530004F505152535455565758595A00000000C5
:10054000000080BF0000204120BCBE4C2E000000F7
:100550006F12033A00007A44480A00200D0A232053
:10056000000000005A0900206175782025752025BB
:10057000750D0A00496E76616C6964204665617488
:1005800075726520696E6465783A206D75737420A4
:100590006265203C2025750D0A00000043757374C8
:1005A0006F6D206D697865723A200D0A4D6F746F1A
:1005B000720954687209526F6C6C095069746368EF
:1005C000095961770D0A0000640400202325643A6C
:1005D000090000002573090025730D0A00000000C2
:1005E000F84A02EB04125168009812F0CFF900901B
:1005F000F44A02EB04129168019812F0C7F90190D5
:10060000F04A02EB0412D168029812F0BFF902908E
:10061000641C4445E4DBECA0FFF7CAFE002004465E
:1006200011E05DF8240020F000418B46EA4958466D
:1006300012F062FB01D2E9A000E0E9A08246FFF7D8
:10064000B7FE601C0446032CEBDBAFF28800FFF71B
:10065000AFFE07B0BDE8F08F0522E2A1384612F0E8
:100660006FF950B9002405E00021D64800EB0410D2
:100670000160641C0C2CF7DB8EE00422DBA1384601
:1006800012F05EF900282FD12021384612F025F90A
:100690000546002DF0D0691C0D46084612F027F9DA
:1006A00000F0FF09002400BFD24850F8240018B918
:1006B000D1A0FFF77DFE16E0CE4850F824104A4640
:1006C000284612F03DF960B9204603F023FBC948E3
:1006D00050F82410CEA012F057FEC5A0FFF7BEFEC2
:1006E00001E0641CE0E757E03D46284612F041F97E
:1006F0000446601E04460C284ADA2021284612F0DF
:10070000ECF805464DB1691C0D460846FFF72EFD75
:10071000AC4901EB04110860761C2021284612F038
:10072000DCF8054655B1691C0D460846FFF71EFD6D
:100730000146A44800EB04104160761C20212846A5
:1007400012F0CBF805464DB1691C0D460846FFF77F
:100750000DFD9C4901EB04118860761C2021284680
:1007600012F0BBF805464DB1691C0D460846FFF76F
:10077000FDFC944901EB0411C860761C042E03D0E3
:10078000A8A0FFF715FE07E099A0FFF767FE03E0BA
:100790000C21B3A012F0F8FD00BF5AE72DE9F04795
:1007A00088B082460027504612F0A1F800F0FF09F9
:1007B000B9F1000F62D1B44812F0E6FDB2486830DA
:1007C00012F0E2FD002450E0C4EBC4017D48C030CB
:1007D0000844807800B94AE0611CAFF2102012F0A2
:1007E000D3FDC4EBC4027748C030805C411CA7A095
:1007F00012F0CAFDC4EBC4027248C0301044407805
:10080000411CA2A012F0C0FDC4EBC4026D48C03070
:10081000104490F902109DA012F0B6FDC4EBC40282
:100820006848C0301044C17898A012F0ADFDC4EB08
:10083000C4026448C030104490F9041093A012F030
:10084000A3FDC4EBC4025F48C030104490F905100A
:100850008EA012F099FDC4EBC4025A48C030104477
:1008600081798BA012F090FD641C102CACDB00BFD2
:100870006BA012F089FD08B0BDE8F087052259A1F0
:10088000504612F05DF888B970214E48C03011F022
:10089000EFFF002407E0002104EB84027E4800EB18
:1008A00042000181641C082CF5DBF8E104224FA111
:1008B000504612F045F800282FD12021504612F062
:1008C0000CF80546002DF0D0691C0D46084612F0C4
:1008D0000EF800F0FF09002400BF464850F824003D
:1008E00018B945A012F050FD16E0424850F8241007
:1008F0004A46284612F024F860B9204603F0CFF9A2
:100900003C4850F8241042A012F03EFD38A0FFF7FA
:1009100045FF01E0641CE0E7C1E109225FA1504608
:1009200012F00EF800284CD12021504611F0D5FFCE
:100930000546284611F0DBFF00F0FF09B9F1000F72
:1009400039D15148C83012F01FFD57A012F01CFDDC
:10095000002604E0711C55A012F016FD761C0C2E2A
:10096000F8DB2FA012F010FD4FF000081FE008F197
:10097000010150A012F008FD002611E008EB8802EA
:10098000454800EB420000890122B240104201D0EC
:1009900049A000E043A0014648A012F0F5FC761CF7
:1009A0000C2EEBDB1EA012F0EFFC08F10108B8F1F1
:1009B000080FDCDB5FE742A1284611F09FFF0546E8
:1009C0008DE0E0E06404002053616E697479206377
:1009D0006865636B3A0900000AD7233C4E4709005B
:1009E0004F4B090072657365740000006C6F6164A1
:1009F0000000000018440108496E76616C696420AB
:100A00006D6978657220747970652E2E2E0D0A003E
:100A10004C6F61646564202573206D69782E2E2EDD
:100A20000D0A000057726F6E67206E756D626572F9
:100A3000206F6620617267756D656E74732C206E11
:100A400065656473206964782074687220726F6CC5
:100A50006C207069746368207961770D0A0000006A
:100A60004D6F746F72206E756D626572206D757357
:100A700074206265206265747765656E203120613F
:100A80006E642025640D0A00B85001082564090031
:100A900025640D0A00000000920900206469726557
:100AA0006374696F6E0000007300000009692564BB
:100AB000000000002564000072000000092573207A
:100AC00020000000284611F054FF39467F1C4DF8E5
:100AD0002100AFF21401002011F010FF05460DB106
:100AE000032FEFDB0DB9032F03D0FEA012F04CFC57
:100AF000C1E6009801283EDB009808283BDC0198FD
:100B0000012838DB01980C2835DC0298401C02D003
:100B1000029801282FD10098401E00900198401E95
:100B200001900298401C13D1009800EB8001FC4812
:100B300000EB410000890121019A9140084381B2F4
:100B4000009800EB8002F64800EB4200018115E0BE
:100B5000009800EB8001F24800EB41000089012180
:100B6000019A91408843009901EB8102EC4901EB25
:100B70004201088102E0EBA012F006FCAFF2E400B3
:100B8000FFF70CFE8BE0AFF2C801504611F0B6FE45
:100B900005460CE0284611F0ECFE39467F1C4DF866
:100BA0002100AFF2E401002011F0A8FE05460DB1CE
:100BB000082FEFDB0DB9082F03D0E34812F0E4FB58
:100BC00059E60098441E002C66DB102C64DA01986C
:100BD000002861DD019808285EDC029801285BDBB3
:100BE00002980C2858DC039810F1640F54DB03982A
:100BF000642851DC049800284EDB0498FF284BDC65
:100C00000598002848DB0598642845DC06980028EC
:100C100042DB069864283FDCDDE9050188423BDAC7
:100C20000798002838DB0798032835DC0198401E18
:100C3000C1B2C4EBC402C54881540298401EC1B27F
:100C4000C4EBC402C14810444170039841B2C4EBE4
:100C5000C402BE48104481700498C1B2C4EBC402FF
:100C6000BA481044C170059841B2C4EBC402B748F9
:100C700010440171069841B2C4EBC402B348104459
:100C800041710798C1B2C4EBC402B04810448171ED
:100C9000A2A0FFF783FD02E0A2A012F075FB00BF47
:100CA000E9E510B50446AAA0FFF782FB012001F098
:100CB00062FCAEA0FFF77CFB0A200CF043FD002095
:100CC0000CF08CFD10BD2DE9FC4104460D460026BC
:100CD000207906283AD2DFE800F003060A0D111445
:100CE000A068067832E0A06890F900602EE0A06865
:100CF00006882BE0A068B0F9006027E0A0680668CD
:100D000024E0A16808686946FFF7D2FA0746394629
:100D10009AA012F039FBBDB1E06811F077FF804670
:100D20006946FFF7C5FA0746394695A012F02CFB35
:100D3000206911F06BFF80466946FFF7B9FA074654
:100D400039468FA012F020FBBDE8FC8100BF314680
:100D5000AFF2A02012F018FB25B18AA0D4E903124B
:100D600012F012FB00BFEFE710B5044687A0FFF7B3
:100D70001FFB10BD2DE9F04F85B00020FFF7F4FFF9
:100D80008EA012F001FB65A0FFF735FB6F48D0384D
:100D90004079401E954A52F8201095A012F0F4FABE
:100DA0006A49D0390869002111F09CFF77D00024EE
:100DB0006EE06649C03901EB04110868002111F0AA
:100DC00091FF00D166E06148C03800EB041007686D
:100DD0005E48C03800EB0410D0F804805B48C0388F
:100DE00000EB0410D0F808905848C03800EB04100D
:100DF000D0F80CA0611C81A012F0C6FA0021384680
:100E000011F070FF03D2AFF2483012F0BDFA01A921
:100E10003846FFF74DFA0146009058A012F0B4FA98
:100E20000021404611F05EFF03D2AFF26C3012F0A9
:100E3000ABFA01A94046FFF73BFA014600904FA0EC
:100E400012F0A2FA0021484611F04CFF03D2AFF293
:100E5000903012F099FA01A94846FFF729FA0146A5
:100E6000009046A012F090FA0021504611F03AFF8F
:100E700003D2AFF2B43012F087FA01A95046FFF75F
:100E800017FA01460090AFF6B00012F07DFA641C2C
:100E90000C2C8ED300BF611C5AA012F075FA2B489F
:100EA000D03890F8D20000281AD00024F2E0C4EB29
:100EB000C40126480844807800B9EEE0611C56A0C1
:100EC00012F062FAC4EBC4022048805C411C55A0B9
:100ED00012F05AFAC4EBC4021C4810444078A3E054
:100EE000E0E0000057726F6E67206E756D6265728C
:100EF000206F6620617267756D656E74732C206E4D
:100F00006565647320736572766F20696E707574A1
:100F100020646972656374696F6E0D0A00000000D9
:100F2000920900204552523A2057726F6E67207224
:100F3000616E676520666F7220617267756D656EA0
:100F400074730D0A00000000D05101082405002030
:100F5000526573657474696E6720746F206465668A
:100F600061756C74732E2E2E0D0A00005265626F2F
:100F70006F74696E672E2E2E00000000257300002E
:100F80002025730020256420256400004166726FCF
:100F9000333220434C492076657273696F6E20327C
:100FA0002E33204A616E2020332032303135202FFD
:100FB0002032333A32343A323400000043757272D0
:100FC000656E7420436F6E6669673A20436F70796F
:100FD0002065766572797468696E672062656C6FEA
:100FE0007720686572652E2E2E0D0A0018440108C0
:100FF0006D697865722025730D0A0000636D69784C
:1010000020256400636D697820256420302030201D
:101010003020300D0A000000736D697820256420AF
:101020000000000025642000411CAFF2080012F00F
:10103000ABF9C4EBC402F848104490F90210AFF2C7
:101040001C0012F0A1F9C4EBC402F3481044C178AB
:10105000AFF2300012F098F9C4EBC402EE4810442D
:1010600090F90410AFF2440012F08EF9C4EBC40200
:10107000E948104490F90510AFF2580012F084F9D5
:10108000C4EBC402E44810448179AFF2FC5012F082
:101090007BF9641C102CFFF40AAF00BF611CDFA0B9
:1010A00012F072F9002414E000250FE004EB840133
:1010B000DF4800EB410001890120A840014204D033
:1010C0006A1C611CDBA012F05FF96D1C0C2DEDD3C6
:1010D000641C082CE8D301F082FA0646002400BF05
:1010E000DB4850F8240000B907E0D94850F8241034
:1010F000D8A012F049F9641CF2E700BF002400BF39
:10110000D34850F8240000B90BE00120A040304241
:1011100005D0CF4850F82410D2A012F035F9641C45
:10112000EEE700BF002407E0D248015DBA48B030C6
:10113000005D01AA1154641C082CF5D3002001A9FC
:101140000855CDA012F020F9002415E004EB84002E
:10115000CC4901EB800B04EB84000A4652F82010C6
:10116000C9A012F011F900215846FFF7ACFDAFF20B
:101170000820FFF71DF9641C8B2CE7D305B0BDE8F0
:10118000F08F10B50446C3A0FFF712F9012100202B
:1011900000F08FFFC2A0FFF70BF90A200CF0D2FA83
:1011A00000200CF01BFB10BD10B50446C0A0FFF7DB
:1011B000FFF80020C4490870C4490860C449087099
:1011C00002F05BFC2046FFF7DCFF10BD2DE9F0418B
:1011D0000546284611F08BFB064601F000FA07464B
:1011E000DEB9BCA0FFF7E4F8002400BF984850F82F
:1011F000240000B90BE00120A040384205D09448FB
:1012000050F82410B8A012F0BFF8641CEEE700BF3D
:10121000AFF2AC20FFF7CCF858E03246B3A1284635
:1012200011F08EFBC0B9B3A0FFF7C2F8002400BFD5
:10123000874850F8240000B907E0854850F824108A
:10124000A9A012F0A1F8641CF2E700BFAFF2E820F9
:10125000FFF7AEF8BDE8F0814FF0000828782D28A0
:1012600003D14FF001086D1C761E002400BF7848A2
:1012700050F8240018B9A5A0FFF79AF824E07448A4
:1012800050F824103246284611F05AFBD0B9B8F174
:10129000000F08D0012101FA04F001F09AF9A2A090
:1012A000FFF786F807E0012101FA04F000F06EFF75
:1012B000A0A0FFF77DF8664850F824106BA012F04C
:1012C00063F801E0641CD2E700BF00BF00BFC1E7C4
:1012D00010B5044608F06DFD401C03D198A0FFF73F
:1012E00067F802E0A0A0FFF763F810BD70B50546EF
:1012F0000024A5A0FFF75CF800BF0DE004EB44005C
:10130000A74B03EB8000426804EB440053F8201025
:10131000A4A012F039F8641C112CEFD370BDFEB5F7
:101320000546284611F0E3FA0646082E20D100248F
:1013300004E0285D11F05AFA2855641C082CF8D3F3
:10134000002410E0295D4B4811F0C7FA30B1295D47
:101350002A19501C11F0C1FA00B903E093A0FFF75D
:1013600027F8FEBD641C082CECD3284600F0CBFD0A
:1013700096A0FFF71DF8002407E03E48015D2648CF
:10138000B030005D0DF80010641C082CF5D300206F
:101390000DF80400694635A011F0F6FF00BFE0E744
:1013A00070B50646304611F0A2FA054655B91A48FE
:1013B000D0384079401E8B4A52F820108AA011F094
:1013C000E3FF70BD2A4649A1304611F0B9FAB8B919
:1013D0008AA0FEF7EDFF002400BF824850F82400E9
:1013E00000B907E07F4850F824103FA011F0CCFF6F
:1013F000641CF2E700BFAFF29040FEF7D9FFE0E7D0
:10140000002400BF774850F8240020B9AFF6182018
:10141000FEF7CEFF2EE1FBE024050020736D697816
:1014200020256420302030203020300D0A000000BC
:1014300092090020736D697820646972656374692C
:101440006F6E202564202564202D310D0A000000D8
:101450007C44010866656174757265202D25730DE5
:101460000A000000666561747572652025730D0AB7
:1014700000000000315201086D61702025730D0AD3
:1014800000000000DC450108736574202573203DD1
:1014900020000000536176696E672E2E2E0000003A
:1014A0000D0A5265626F6F74696E672E2E2E0000F2
:1014B0000D0A4C656176696E6720434C49206D6F5B
:1014C00064652E2E2E0D0A00240400200400002046
:1014D00000000020456E61626C6564206665617481
:1014E000757265733A200000257320006C6973746F
:1014F00000000000417661696C61626C6520666580
:101500006174757265733A2000000000496E76615F
:101510006C69642066656174757265206E616D65C5
:101520002E2E2E0D0A00000044697361626C656402
:1015300020000000456E61626C65642000000000C0
:101540004572726F723A20456E61626C6520616E01
:101550006420706C756720696E204750532066695F
:101560007273740D0A000000456E61626C696E67EB
:101570002047505320706173737468726F75676889
:101580002E2E2E0D0A000000417661696C61626C9E
:101590006520636F6D6D616E64733A0D0A00000023
:1015A0001045010825730925730D0A004D757374E4
:1015B00020626520616E79206F72646572206F66AB
:1015C0002041455452313233340D0A004375727252
:1015D000656E742061737369676E6D656E743A2011
:1015E000000000001844010843757272656E742093
:1015F0006D697865723A2025730D0A00417661693C
:101600006C61626C65206D69786572733A200000C8
:10161000FE4850F824102A46304611F091F938BBA4
:10162000601CFB494871F94850F82410F9A011F0EA
:10163000ABFEF7484079082803D0F54840790E28DA
:1016400015D13220F84981F82500002081F82000CA
:101650001E21F5480171142181732D21017632215B
:1016600081761E21C171142141742D21C17601E0C2
:10167000641CC7E600BF00BFA3E62DE9F047804623
:101680000024002500260027404611F030F981464D
:10169000B9F1000F04D1E5A011F076FEBDE8F087A6
:1016A000AFF21421404611F029F9074615E016B1B2
:1016B000012E0AD104E0384611F05BF9044604E03B
:1016C000384611F056F9054600BF00BF761CAFF250
:1016D0004021002011F012F90746002FE7D1002C1D
:1016E00001DB0C2C04DB0C21DFA011F04DFED5E753
:1016F000022E07DAE64830F914202146E5A011F061
:1017000043FECBE7B5F57A7F02DBB5F5FA6F03DD73
:10171000E6A011F039FEC1E72A462146ECA011F0FF
:1017200033FE28B2DA4921F8140000BFB6E770B5DD
:101730000546284611F0DBF8C6B236B9B44890F831
:10174000BC14EAA011F020FE70BD284611F011F97A
:101750000446002C0BDB022C09DCAD4880F8BC44AD
:101760000021084600F0A5FCDFA0FFF7E0FF00BF66
:10177000EAE710B50446E349086821460DF07AFF10
:1017800010BD03B50179062917D2DFE801F0030483
:1017900008090E1200BF0199826811700DE000BFA8
:1017A000019909B28268118007E00199826811608D
:1017B00003E001998268116000BF00BF0CBD2DE9F4
:1017C000F84F07464FF00008C246C146384611F0B0
:1017D0008EF8054625B1012D21D138782A281ED151
:1017E000C9A0FEF7E5FD002416E004EB8400CC4917
:1017F00001EB800604EB84000A4652F82010AFF299
:10180000743011F0C1FD29463046FFF75CFAAFF69F
:10181000A800FEF7CDFD641C8B2CE6D393E0C1A19C
:10182000384611F03CF85FEA000868D008F101087A
:101830006D1E404611F09DF882464046FEF796FC2C
:101840008146002455E004EB8400B54901EB800695
:1018500004EB8401B24A52F8210011F048F88346A3
:1018600004EB8400AE4A52F820105A46384611F074
:1018700067F800283CD104EB8401A94A02EB8101FE
:10188000C86811F0C3F98346494611F02BFA2AD8EB
:1018900004EB8401A24A02EB8101086911F0B6F958
:1018A0008346494611F028FA1DD804EB84009C4970
:1018B00001EB80000079052802D1CDF8009001E00D
:1018C000CDF800A030460099FFF75BFF04EB8400E1
:1018D000934A52F8201094A011F056FD0021304692
:1018E000FFF7F1F902E093A0FEF762FDBDE8F88F83
:1018F000641C8B2CA7D399A0FEF75AFD23E000248B
:101900001FE004EB8401864A52F82100394610F0AA
:10191000C6FFA8B104EB8400814901EB800604EB0B
:1019200084000A4652F82010AFF2A04011F02CFDBE
:1019300000213046FFF7C7F9AFF6D41011F024FDAF
:10194000641C8B2CDDD300BFD0E72DE9F0410746A6
:101950000BF038FE4FF47A71B0FBF1F6874803784C
:1019600087480288314687A011F00EFD00F025FE61
:101970000546944800689449B0FBF1F69348944AB0
:10198000126850F82210324692A011F0FDFC00249B
:1019900000BF9B4850F8240000B90DE00120A04092
:1019A000284206D0964850F82410AFF2C44011F0F7
:1019B000EBFC601CC4B2ECE700BF022000F0E8FDC5
:1019C000A8B19048904A127850F822108FA011F0D8
:1019D000DBFC8D480078022809D14A48007D08B117
:1019E0006F2000E06E2001468BA011F0CDFCAFF619
:1019F0008820FEF7DDFC0BF0F0F906464FF4986303
:101A000032468648018886A024E100001844010877
:101A1000540400204D697865722073657420746FDA
:101A20002025730D0A00000014090020557361671A
:101A3000653A0D0A6D6F746F7220696E6465782067
:101A40005B76616C75655D202D2073686F77205B18
:101A50006F72207365745D206D6F746F7220766194
:101A60006C75650D0A0000004E6F20737563682069
:101A70006D6F746F722C207573652061206E756DAB
:101A8000626572205B302C2025645D0D0A00000029
:101A9000980A00204D6F746F7220256420697320AE
:101AA0007365742061742025640D0A00496E7661A7
:101AB0006C6964206D6F746F722076616C75652C33
:101AC00020313030302E2E323030300D0A00000000
:101AD00053657474696E67206D6F746F722025642E
:101AE00020746F2025640D0A000000004375727297
:101AF000656E742070726F66696C653A2025640D9E
:101B00000A000000480A002043757272656E742056
:101B100073657474696E67733A200D0A00000000E3
:101B2000DC4501083D0000002573207365742074B6
:101B30006F2000004552523A2056616C7565206155
:101B4000737369676E6D656E74206F7574206F6650
:101B50002072616E67650D0A000000004552523A1E
:101B600020556E6B6E6F776E207661726961626C64
:101B700065206E616D650D0A0000000012010020F5
:101B80007001002053797374656D20557074696D10
:101B9000653A202564207365636F6E64732C20564C
:101BA0006F6C746167653A202564202A20302E31DD
:101BB0005620282564532062617474657279290D5A
:101BC0000A000000CC03002040420F00004501083D
:101BD000CC00002048617264776172653A202573F9
:101BE00020402025644D487A2C2064657465637418
:101BF00065642073656E736F72733A200000000095
:101C0000C0440108E0440108C001002041434348AA
:101C1000573A2025730000002E256300F0000020B5
:101C20004379636C652054696D653A2025642C20E6
:101C3000493243204572726F72733A2025642C201A
:101C4000636F6E6669672073697A653A2025640D53
:101C50000A00000011F098FBBDE8F0812DE9FF417A
:101C60008548007838B901208349087083A0FEF7C1
:101C70009FFBFEF7AAFBF5E08E4908680DF01AFD00
:101C80000446092C01D03F2C74D1002600278A4835
:101C9000D0F80080894D0FE08748006838B1864849
:101CA00029680268864810F04BFE00B103E006B9CF
:101CB0002E462F4600BF0C358048CC308542EBD3F2
:101CC0008EB300BF7C4930680968405C7A4A396845
:101CD0001268895C884200D026E07749306809683C
:101CE000405C90B9744800682E280ED220217248BA
:101CF00002680068401C704B1860714881540020D5
:101D00006F491A46126888540EE06B4930680968BA
:101D1000405C6B49684A1268885467480068401CF8
:101D200065490860CEE700E000BF6348006808B17D
:101D3000BE4211D063A0FEF73BFB354606E02868A3
:101D4000FEF736FB0920FFF714FD0C35BD42F6D92E
:101D5000FEF73BFB4FF0000806E0594911F8080078
:101D6000FFF707FD08F10108534800688045F4D3E8
:101D700077E0FFE75048006830B9042C04D15048A0
:101D8000FFF712FABDE8FF810C2C05D14FA0FEF73A
:101D90000FFBFEF71AFB64E047480068002836D0C6
:101DA0000A2C01D00D2C32D10025AFF64460FEF78D
:101DB000FFFA00204249404A1268885408460190C0
:101DC0000020029044480C2311223C49009001A8B5
:101DD00010F012FD05464DB1286810F088FD384915
:101DE0000844461C3046A968884702E03BA0FEF73D
:101DF000DFFA3021324810F03BFD00202E49086008
:101E00001D48007800B9BDE7FEF7DFFA29E07F2C16
:101E10000ED12948006820B3002127480068401EE1
:101E2000254A1060264A115435A0FEF7C1FA18E081
:101E300021480068302814D2202C12DB7E2C10DCC4
:101E40001D48006810B9202C00D10BE01A48016829
:101E50000068401C184A1060194844542046FFF797
:101E600088FC00BF134908680DF01DFC00287FF4B2
:101E700003AF00BF86E70000000000200D0A456E9A
:101E8000746572696E6720434C49204D6F64652C00
:101E900020747970652027657869742720746F2015
:101EA00072657475726E2C206F72202768656C7075
:101EB000270D0A00480A00200400002010450108F0
:101EC000240400200D1B5B4B000000001B5B324A0A
:101ED0001B5B313B31480000D50300084552523AA4
:101EE00020556E6B6E6F776E20636F6D6D616E64E3
:101EF0002C20747279202768656C70270000000020
:101F000008200800704770B5064634460CE021787A
:101F1000FE4810F0E2FC05462DB1A01BC1B2FB4803
:101F20002A1AFB488154641C20780028EFD170BD28
:101F3000F84900230878482801D0002070474888D5
:101F4000B0F5986F07D10879BE2804D140F2BE40A1
:101F5000405CEF2801D00020F0E70A4602E010784C
:101F60004340521C01F598608242F8D30BB1002027
:101F7000E4E70120E2E710B5FFF7DAFF10B90A2025
:101F80000BF0ECFB4FF49862E249E34810F057FC89
:101F9000E14890F8BC04022803DD0021DE4880F807
:101FA000BC14DD4890F8BC0400EB8012D8483030F7
:101FB00000EB82014FF48272D84810F040FC10BD53
:101FC00070B5002416E0D54890F8201004FB04F00A
:101FD0001938484300F6C4106043D049C97F4843CC
:101FE00040F6C41190FBF1F000B2CD4921F8140085
:101FF000601CC4B2072CE6DB00244BE004EB840237
:10200000C64B93F82130C3EB42000121002805DDC7
:10201000C24A92F82120C2F16402D1B2002802DA49
:10202000BE4A92F82110BD4A92F8222000FB00F32C
:102030005A4301FB01F392FBF3F2B84B93F82230C1
:10204000C3F164031A4442430A2392FBF3F2B34BF5
:1020500093F821300A2505FB032212B2B14B23F875
:102060001420AD4AB2F84221AB4BB3F84031D21A3A
:10207000AC4B33F914305A434FF47A7392FBF3F2BA
:10208000A54BB3F840311A4412B2A64B23F81420E2
:10209000601CC4B20C2CB1DBA049087803F0FCF83A
:1020A00006F0A0FA70BD10B5FFF765FFFFF788FFD7
:1020B00010BD2DE9F047074688464FF0000948203B
:1020C000954908704FF498604880BE200871EF2150
:1020D000914880F8BE14002180F8BF14B8F1000FB9
:1020E0000DD0014691F8BC1401EB811200F5D871B6
:1020F00001EB82004FF48272884910F0A0FB864CFD
:1021000003E0207880EA0909641C87488442F8D3F8
:10211000814880F8BF940FF0CEFA4FF0030A1DE01B
:1021200034200FF0D6FC7B480FF000FB7F480FF007
:10213000FDFA0646002507E0774A5159754AA81866
:102140000FF093FB06462D1DB5F5986F01D2042EB6
:10215000F2D0042E00D104E0AAF1010ABAF1000F76
:10216000DED100BF0FF0B3FA042E02D1FFF7E0FE7C
:1021700010B90A200BF0F2FAFFF795FF27B1012200
:1021800014210F2002F0A6FABDE8F08762498968A1
:102190000143614A9160704700205F498860704741
:1021A0001CB563A103C9CDE900014FF498615A48F9
:1021B00010F05EFB4FF48271584810F059FB482034
:1021C0005549087003204871FFF7E6FF0220FFF72A
:1021D000DDFF0021504880F8BC144FF416704E49C2
:1021E000A1F86201FA20A1F864012A20A1F8600197
:1021F0000020A1F86A0100214748A0F86C11A0F85E
:102200006E110020444981F8530181F8540181F88E
:102210005501A1F85601A1F85801A1F85A0181F819
:102220005D0181F85E014FF49670A1F8680101200C
:1022300081F85C01202081F866014FF4C870A1F894
:1022400076016E2081F87B012B2081F87C01212012
:1022500081F87D01232081F87E01002081F87F0133
:1022600081F8880181F8890181F8AA0181F8AB0120
:1022700081F8AC0140F2DC50A1F88C0140F24C40F6
:10228000A1F88E0140F26C70A1F89001002081F855
:102290009201012081F8930181F8940140F22440D9
:1022A000A1F8400140F23A70A1F842014FF47A706F
:1022B000A1F8440140F27E50A1F8460140F2EA50F4
:1022C000A1F8480140F2B450A1F84A013220A1F827
:1022D0004C01C000A1F84E013220A1F850010020AD
:1022E00081F89C0181F89D014FF4E130C1F8A00113
:1022F0004FF41650C1F8A401002081F8A80181F81C
:10230000A90140F6AC508881002015E03152010847
:10231000D405002000F8010854040020140900200E
:10232000A00C0020AE0C00201409002000FC0108C5
:102330001E1E646464646464887381F8950140F6C9
:10234000FF70A1F898010020A64908703720487056
:102350000F20C8721E2048753721A24881700F21B6
:1023600001731E2181755521C1702D2141730021FA
:10237000C175322101710A21817301760B214171EE
:102380000021C173417632218171082101742D2110
:1023900081760E21C171142141745021C1760172E0
:1023A0000A2181745021017728214172782181729C
:1023B0002D210175012181775A208A49C877412052
:1023C00081F82000002081F8230081F8240081F8A2
:1023D000250040F2DC50C884322081F82100002022
:1023E00081F82200488500217E48818500207D49B2
:1023F00008850A2081F82E00282081F82F0081F816
:102400003000152081F831007748486377488863A9
:102410007748C86377480864012081F84400192090
:1024200081F8450074A0FFF76EFD00206D4981F82A
:10243000760081F87700282081F87800002081F864
:10244000790081F87C004FF44870A1F87A000A20E6
:1024500081F8CE00C82081F8CF004FF49660A1F833
:10246000D00040F2D930A1F8D200002421E04FF48E
:102470007F7104EB84025B487E3020F812104FF429
:10248000FA6104EB840200EB4200418040F2DC512F
:1024900004EB840253487E3000EB420081801DF83B
:1024A000041004EB84024F487E3000EB420081713F
:1024B000641C082CDBDB01204A4981F8D40081F838
:1024C000D50081F8D600C820A1F8D800142081F8E2
:1024D000DA001E2081F8DB00012081F8DC00642096
:1024E000A1F8DE004FF49670A1F8E0002820A1F8D2
:1024F000E2004FF07C50C1F8E400C1F8E80014207D
:10250000A1F8EE000F20A1F8F000A1F8F200A1F868
:10251000F40040F26C70A1F8F60040F2DC50A1F833
:10252000F80040F21450A1F8FA000820A1F8FC00CD
:102530004FF07E50C1F800015221324880F8BD149E
:10254000002406E000212F48103000EB0410016049
:10255000641C0C2CF6DB00240AE004EB84122A49EC
:1025600001EB82004FF482721E4910F068F9641C7E
:10257000032CF2DB1CBD10B50446FFF7D9FC00B1FB
:102580002CB1FFF70DFE00210846FFF792FD10BDAC
:1025900001461E480068084201D001207047002013
:1025A000FCE71A4909680143184A11607047174946
:1025B00009688143154A11607047144800687047E4
:1025C000014610488068084201D001207047002071
:1025D000FCE70C49896881430A4A916070470948C1
:1025E00080687047140900209A99193FF6287C3FAB
:1025F0003D0A773F0000A040414554523132333408
:102600000000000054040020040600200800002000
:102610002DE9F041FE4991F8450010F000FB80469D
:10262000FC4910F00BFA064611F034FA0546FA4858
:10263000008810F0F4FA0746294610F0FFF9044626
:1026400011F0E8FA00B2F5490880F348008810F06C
:10265000E6FA05462946F24810F026FA0446F14902
:1026600010F022FAF0490860E949B1F87A0010F058
:10267000D6FA05462946ED4810F016FA0446EC490C
:1026800010F0DCF9EB490860E148016CEA4810F011
:10269000D5F9044621464FF07C5010F005FAE74981
:1026A00008600820FFF774FF08B104F0FCF9BDE8EA
:1026B000F081002801DD024600E042428A4201DA50
:1026C000002006E0002801DD401A02E0002800DAC0
:1026D000084470472DE9F04F95B005460C4695E843
:1026E000070012AB07C3206811F0D4F908902068E6
:1026F00011F0B6FD0746606811F0CCF90646606837
:1027000011F0AEFD8046A06811F0C4F98246A068C1
:1027100011F0A6FD83465046089910F08FF90790F6
:102720005846089910F08AF906905146384610F03C
:1027300085F905905946384610F080F904903146E5
:10274000504610F07BF9099086F0004959464846FA
:1027500010F074F90A90CDF82C804146059810F0DD
:102760006DF98146069910F011F90C9041460498D4
:1027700010F064F98146079910F05DF90D9087F02B
:1027800000493146484610F059F90E9041460798E5
:1027900010F054F98146049910F04DF90F9041461C
:1027A000069810F04BF98146059910F0EFF810905B
:1027B0003046089910F042F911900F99149810F0D2
:1027C0003DF903900C99139810F038F9029009998B
:1027D000129810F033F90190029910F0D7F8814661
:1027E000039910F0D3F828601099149810F026F986
:1027F00003900D99139810F021F902900A991298FC
:1028000010F01CF90190029910F0C0F8814603996C
:1028100010F0BCF868601199149810F00FF903904B
:102820000E99139810F00AF902900B99129810F073
:1028300005F90190029910F0A9F88146039910F06A
:10284000A5F8A86015B0BDE8F08F2DE9F04387B07A
:1028500004460025204610F0E2F90646784910F0BB
:10286000EDF805467748006880F000400490754810
:10287000406880F0004005907348B0F9000010F007
:10288000C5F980F000466349304610F0D7F806904D
:102890006E49B1F9000010F0B9F901906B49B1F936
:1028A000020010F0B3F902906849B1F9040010F089
:1028B000ADF9039004A901A8FFF70CFF544890F864
:1028C0004400012828D162484078B8B961490868B5
:1028D000C11700EB91615F4A1268A2EBA1115D4A3A
:1028E00011601046006810F091F90746039910F046
:1028F0004DF8064610F0A9F9564908605548066893
:10290000F11706EB9161881110F080F907460399E1
:1029100010F091F8039008E03F48008810F07FF92C
:102920000646039910F087F803904B49039809680D
:1029300010F07EF8804629464048006810F026F8DE
:1029400081464946284610F0AFF80746414610F048
:1029500075F8064640480168304610F017F83E49C1
:102960000860019811F056F90646294890F8301091
:102970003046FFF79EFE3949096808443749086028
:10298000029811F047F90646214890F83010304679
:10299000FFF78FFE314949680844304948602E48A6
:1029A000006811F037F90646194890F82F103046A4
:1029B000FFF77FFE2949896808442849886028482C
:1029C000006820442649086026480068401C2549C4
:1029D000086007B0BDE8F0832DE9F04F87B00446EA
:1029E0001849086811F056F806901649086811F061
:1029F00037FC05901349486811F04CF804901149D0
:102A0000486811F02DFC0390A06803992CE00000A9
:102A10001409002035FA8E3CBE010020140000206D
:102A20000AE81C4100401C46C00000200000614430
:102A30004C3D0F44C4000020DB0F4940C80000207B
:102A4000BD37863560000020F0010020AC0000207A
:102A5000680C00206C00002070000020300A00206C
:102A60000C000020100000200FF0E8FF83460699BC
:102A70000FF0E4FF8146606805990FF0DFFF0190D9
:102A800003990FF0DBFF8346206804990FF0D6FF0F
:102A9000594602900FF07AFF824649460FF076FFC2
:102AA0000646A06805990FF0C9FF8146606806993F
:102AB0000FF0C4FF824649460FF0BAFF0746314681
:102AC000384610F0BDFEFD4902900FF0B7FF834677
:102AD000FB490FF0E9FF8246FA48016850460FF0C3
:102AE00055FF8146F8490FF0DFFF8046404611F060
:102AF00091F805B2002D02DA05F5B47005B228464A
:102B000007B0BDE8F08F2DE9F05F04460D46A168DF
:102B100008460FF093FF8146616808460FF08EFF6C
:102B20008246216808460FF089FF834651460FF020
:102B30002DFF804649460FF029FF074611F056FC4D
:102B400006460021304610F0CDF80ED03146206800
:102B50000FF0AAFF2860314660680FF0A5FF68609B
:102B60003146A0680FF0A0FFA860BDE8F09F2DE9F6
:102B7000F04F87B000250AF008FD0646D3480068EC
:102B8000301A0690069810F04AF80746D048C168F7
:102B900038460FF053FF0590CC48066000245CE0F7
:102BA000CC4931F9140010F031F8074605990FF0BF
:102BB00045FF02A941F82400C74890F82E000028DC
:102BC0003CDDC54991F82E0010F029F8834659469E
:102BD0004FF07E500FF068FF8146C04931F9140074
:102BE00010F014F8824649460FF028FF0746BA490C
:102BF00091F82E0010F013F8834659464FF07E509E
:102C00000FF052FF82464FF07E510FF014FF8146C5
:102C1000B34850F8241048460FF010FF804639465C
:102C20000FF0B4FEAE4941F8240051F8240010F032
:102C30000CF800B2AB4921F8140005E0A74830F8C1
:102C40001400A84921F81400A64830F91400A54939
:102C500031F9141000FB0155641C032CA0DB642027
:102C60006843A1490988494390FBF1F502A99F48AF
:102C7000FFF730FDA8B2482835DDA8B2852832DA42
:102C800000242EE09A49B1F862010FF0C8FF824695
:102C90004FF07E510FF07AFE814649464FF07E504C
:102CA0000FF002FF07468F4931F914000FF0AEFF15
:102CB00082468F49B1F862010FF0B1FF83468B481D
:102CC00050F8241058460FF0B9FE814651460FF0D7
:102CD0005DFE804639460FF0B1FE844941F824007C
:102CE000641C032CCEDB8348B0F900000FF08EFF8C
:102CF00007467E48816838460FF0F4FF01D2012074
:102D000000E000207C494873784A9168506810F0D0
:102D100097FD7A490860754A916890680FF08EFEB9
:102D20008246724A516850680FF088FE83465146C9
:102D30000FF02CFE074611F059FB80466B480068E7
:102D400080F000494146484610F07AFD6B494860E2
:102D500008686B490FF072FE074610F05BFF00B287
:102D6000684908806549486865490FF067FE07466D
:102D700010F050FF00B2634948800820FFF708FCBC
:102D8000E0B302A96048FFF7A5FC00242EE05849F3
:102D9000B1F864010FF043FF82464FF07E510FF00F
:102DA000F5FD814649464FF07E500FF07DFE074607
:102DB000564931F914000FF029FF82464C49B1F809
:102DC00064010FF02CFF83464F4850F824105846FA
:102DD0000FF034FE814651460FF0D8FD804639464B
:102DE0000FF02CFE484941F82400641C032CCEDB74
:102DF0004548FFF7F1FD464908800DE0FFE702A9CD
:102E00004448FFF767FC43490846FFF77CFE41480A
:102E1000FFF7E2FD3E4908800698FFF716FD2E48B1
:102E200090F87C0000287FD0304A916890680FF0BD
:102E300005FE2E4A0190516850680FF0FFFD834651
:102E40002A4A116810680FF0F9FD594600900FF0FA
:102E50009DFD824601990FF099FD814611F0C6FA59
:102E600007462249886839460FF01EFE80462A49E7
:102E700040460FF037FF03D800202849088064E05F
:102E8000404610F04DFC82462548016850460FF040
:102E9000D5FD814610F0BEFE0746B7F5617F01DD26
:102EA0004FF4617738460FF0B1FE1E4900900FF0E5
:102EB000FBFD834611F0D4F9824636E00000E14480
:102EC000DB0F49404C000020000020418000002022
:102ED000680E0020A000002014090020A600002099
:102EE000240A0020AC000020BE0100203C0A002083
:102EF0005404002014000020680C00206000002012
:102F00004C3D0F445C000020180A0020B200002055
:102F1000F0010020740000208FC2753C48000020A2
:102F2000C4000020EFB6B04410E0FE4991F87C00E8
:102F30000FF075FE514601900FF080FD814610F0B4
:102F400069FE00B2F849088000BF00BF07B0BDE8C5
:102F5000F08F10B503F09FFD0220FFF719FB20B1A1
:102F600003F00CFCFFF703FE04E00020EF490880AB
:102F700048808880EE484079012812D1ED48B0F9A8
:102F80000410ED48B0F9000001EB4000032190FB74
:102F9000F1F000B2E949888008468088E649088057
:102FA00003E0E4488088E5498880E2480088E349F6
:102FB0000880E0484088488010BD0020E049086053
:102FC00048608860DF490860DF49086070472DE984
:102FD000F04F89B00AF0D9FA0890DC48B0F9000047
:102FE000002803DDD948B0F9000003E0D748B0F964
:102FF00000004042D549B1F90210002903DDD34950
:10300000B1F9021003E0D149B1F9021049428842F6
:103010000DDDCE48B0F90000002803DDCB48B0F943
:10302000000011E0C948B0F9000040420CE0C74878
:10303000B0F90200002803DDC448B0F9020003E043
:10304000C248B0F90200404206B2C1490898096876
:10305000471A46F2A810874203D2002009B0BDE803
:10306000F08FBB4908980860BA480088002841DD05
:10307000B9490868C11700EB5171B74A1268A2EB51
:10308000E101B54A1160A74890F83100401EB349EC
:103090000968B1FBF0F01146096808441146086060
:1030A0000846D0F800B04FEAEB710BEB5171C81035
:1030B0000FF0ACFDAA4900900FF0F6FCA949019071
:1030C00010F0C0FD4FF07E5102900FF0B4FCA64905
:1030D00003900FF0B3FC04900FF0B7FDA349086014
:1030E0000020A3490860A34908609A480088401E50
:1030F000984908808B4890F83100401E974909682C
:10310000B1FBF0F000900FF08AFD834694490FF078
:10311000CBFC9449019010F095FD4FF07E51029048
:103120000FF089FC904903900FF088FC049010F098
:1031300071FD06908D4906980968401A06907948F5
:10314000416B4FF07E500FF073FC029006980FF029
:103150005DFD019002990FF071FC049086480068B3
:103160000FF054FD02906F48416B02980FF066FC1F
:10317000039004990FF00AFC834610F04BFD7E4942
:103180000860FA2E04DD4FF0FF307C49086018E03B
:1031900030460FF03BFD7A4901900FF04CFC039054
:1031A000764800680FF032FD029003990FF046FC5C
:1031B000734904900FF078FC83460FF046FD6F4989
:1031C00008606E48006800280FDD6C480068C82859
:1031D0000BDA6948006869490968401A694908605A
:1031E000664800686449086039E0634800686549DA
:1031F0000968401A604908606048006800282EDDB0
:103200005E490968C1F596700FF000FD83465E497E
:103210000FF04AFC5D490860084601684FF07E5097
:103220000FF006FC0290544800680FF0EFFC01908C
:1032300002990FF003FC0490504800680FF0E6FC80
:1032400002905248016802980FF0F8FB039004992D
:103250000FF09CFB83460FF0F8FC474908603A48A2
:1032600000680FF0DCFC834649490FF0E7FB05904E
:10327000344800680FF0CAFC8346314988680FF073
:10328000C5FC594604900FF00FFC82462E4800689A
:103290000FF0C5FC83463F48016850460FF0CEFB57
:1032A000594604900FF0CAFB8146314805990068E1
:1032B0000FF0C4FB4FF07C51039048460FF0BEFB6B
:1032C000029005990FF0BAFB834603990FF05EFB5D
:1032D00004902848016804980FF058FB25490860BD
:1032E0001048C16B4FF07E500FF0A2FB03902248B4
:1032F00000680FF08BFC029003990FF09FFB834650
:103300000848C16B1B4800680FF098FB59460490B1
:103310000FF03CFB1749086018480068002843DD9F
:10332000164839E01409002048000020A6000020BB
:1033300054040020A000002068000020500000205D
:10334000300A0020100000200C0000205C0000204B
:1033500084000020BA0100209C00002020000020F2
:1033600080E6C547B1DC423ED048874A980000203D
:103370008C0000209000002024000020300000205D
:10338000000061442C0000200000C84228000020FA
:10339000BD378635C00000200068C82804DA7048B0
:1033A00000687049086005E06F4800680FF04DFC48
:1033B0006C49086049466D4800680FF0E7FA6B49B0
:1033C0000860FFF7FAFD38460FF029FC64490490C5
:1033D0000968674A1268881A0FF018FC654902905C
:1033E0000FF02CFB039004990FF05EFB83460FF067
:1033F0002CFC07905A4800685D49086040F2DC5296
:103400005142079806F0FCFF07900A210798FFF742
:1034100050F907905848816B4FF07E500FF008FB31
:10342000039007980FF0F2FB029003990FF006FB50
:1034300083465148816B4D4800680FF0FFFA5946AA
:1034400004900FF0A3FA494908600846006810F09C
:10345000E1FB804605214046FFF72BF9474908600C
:10346000B6F5487F73DA46480078F8B945490968E7
:103470003C4A1268881A4FF4FA72514206F0C0FFB3
:1034800004460A212046FFF714F904463A48807999
:1034900000FB04FB4FEAEB710BEB5161C8114FF4D9
:1034A0009672514206F0ACFF054601E036480568C9
:1034B000A5EB08043048007900FB04FB4FEAEB71F0
:1034C0000BEBD16148114FF49672514206F098FF10
:1034D0002E4908602848807B2D49096800FB0410AC
:1034E0002B4908602B4A51422948006806F088FFA2
:1034F000274908600846006842F2040190FBF1F099
:103500002249096808442149086023480168504657
:103510000FF03CFA18490290087E0FF080FB0190F2
:1035200002990FF08BFA83464FF088410FF0BCFAF6
:1035300003900FF08AFB96225142049006F060FF40
:1035400012490968081A1149086003E0FFE70020E2
:103550000E4908601048C0F800A001207EE5000078
:1035600024000020B8000020900000208C000020E3
:103570009400002000247449140900204400002015
:103580003C000020BC000020380000203400002057
:1035900040000020200319008800002070B5044678
:1035A0000D4600BFFE4908680CF094F80028F9D0D9
:1035B000E1B2FB4A10680CF05DF8204670BD88B09F
:1035C0000025FEF79FFC0020FEF7D5FFFEF7D3FC99
:1035D000F449897B09B1012100E0002108460CF083
:1035E0004CFAF1480068F149884203D10120F049C2
:1035F000086007E0EC480068EE49884202D10220EA
:10360000EB4908600AF000F80820FEF7D9FF58B12E
:10361000E44890F8880110B1012804D100E000BF0F
:1036200006F01AFD00BF00BF64200AF08BF8FEF719
:10363000C7FCDF480068032802D0012009F042F8E7
:10364000D84890F87F01002814DDD64890F87F0113
:10365000012809D0D34890F87F01092804D0D14827
:1036600090F87F01052805D1CE4890F87F018DF8AC
:10367000040005E000208DF80400CA4981F87F01AC
:10368000C84890F8960100281CDDC64890F89601BD
:10369000012809D0C34890F89601092804D0C148F0
:1036A00090F8960105280DD1BE4890F89601BD49C5
:1036B00091F87F11884205D0BA4890F896018DF8AC
:1036C000050005E000208DF80500B64981F8960157
:1036D00001A808F061FA0220FEF772FF08B102F0BB
:1036E000D8FE06F098FE0E20FEF75BFF02F024FDE8
:1036F000054615B903200AF031F84FF40060AE49D1
:10370000486140000861002418E0AB48C06880F4BC
:103710000060A949C8600846C06880F48050C8604D
:1037200019200AF00FF8012009F04FFF19200AF0C4
:1037300009F8002009F049FF601CC4B20A2CE4DB40
:103740004FF480509C49086140100861FEF760FF0B
:1037500000F0AAF99349D1F8A00103F068FB914861
:1037600040790E2807D08F484079082803D08D482B
:103770004079182803D101208DF80E0002E00020C6
:103780008DF80E004FF48070FEF71AFF18B908206C
:10379000FEF716FF08B1012000E000208DF80A00B6
:1037A0004020FEF70DFF8DF80B0000208DF809007A
:1037B0000820FEF705FF80F001008DF8080078482A
:1037C000807D8DF80C007D4890F8D600C0F3800015
:1037D0008DF80D007348B0F84E01ADF81200714835
:1037E000B0F85001ADF814006E4890F852018DF811
:1037F0000F004FF47A70ADF816004FF48040FEF7DA
:10380000DFFE20B16748B0F84A01ADF81600BDF8F8
:103810001200B0F5FA7F02DD0020ADF81600614815
:10382000B0F88C01ADF818006448B0F8D200ADF8DB
:103830001A005C4890F87F01012802D0092808D1BD
:1038400003E001208DF8100007E007208DF810003C
:1038500003E000208DF8100000BF00BF02A809F0AF
:1038600072FD9DF81C004E49C875002406E040F228
:10387000DE50534921F81400601CC4B2122CF6DB50
:10388000504851490860082045494875FEF798FEA0
:10389000D8B1444890F88801052815D2DFE800F037
:1038A0000304080C100000BF474806F0A1FB0BE022
:1038B000454806F0ABFF07E0434807F087F803E010
:1038C000414807F06DFD00BF00BF364991F89D01EA
:1038D00004F001FF0120FEF773FE30B14FF4806069
:1038E000FEF76EFE08B103F091F94020FEF768FE86
:1038F00058B12C4A92F8A811D2F8A4010BF0AEFDF1
:10390000284991F8A9010BF0C7FD4FF40060FEF7BC
:1039100057FE08B107F08CFB09F037FE2B49086011
:1039200020484079052803D14FF4C8702849088001
:103930004FF47A7027490880C82027490880012061
:10394000264948730EF0F8FE282104200EF033FEBD
:1039500055E001F0AFFC09F018FE21490968401A52
:10396000B0F5FA6F4BD309F010FE1D4908601D48F1
:10397000008864283CDD19484078A8B3002408E09A
:103980000848B0F88C0100B20D4921F81400601C01
:10399000C4B2032CF4DB0948B0F8D00000B224E034
:1039A000480A002054040020D003002000127A00AE
:1039B000CC000020001BB7000010014014090020BB
:1039C0007C0C0020B74C0008F8000020EC00002020
:1039D000B8010020BC010020BA010020680C0020C2
:1039E000D0000020D400002007E00949C88004E08E
:1039F00008480088401C074908800EF0F4FCA8E73E
:103A00000549B1F8441108B200F0AAFA00BFFEE778
:103A10007C0C0020D400002054040020014601EB5F
:103A20008102FA4800EB4200B0F9040012280CDAD7
:103A300008290ADA01EB8102F44800EB4200B0F9F0
:103A40000400F34A32F91000704701EB8102EF489D
:103A500000EB4200B0F90400F6E7024602EB8203F5
:103A6000EA4800EB4300008901238B40184202D052
:103A70004FF0FF3070470120FCE710B5002410E044
:103A80004FF48040FEF79CFD18B1E248B0F84A01BF
:103A900002E0E048B0F8440100B2DF4921F8140028
:103AA000641C0C2CECDB10BD70B5DA484079DB49A6
:103AB00001EBC000407808B1012000E00020D849A7
:103AC00088752020FEF77CFD10B10120D44988754F
:103AD000D0484079172822D100241DE0CD4910316B
:103AE00001EB0411086800210FF0FCF800D115E08B
:103AF000CC4800EB0411C748103000EB0415D5E9A1
:103B00000030D5E902250E1D25C60B60C648007899
:103B1000401CC5490870641C0C2CDFDB25E0BD4847
:103B20004079BE4911F83000BF490870B948407962
:103B3000BA4901EBC0004068B8B1002411E0B548B3
:103B40004079B64901EBC000406800EB0410B5496C
:103B500001EB041190E82C00C06881E82C00C860DB
:103B6000641CB14800788442E9DBAD48807D38B3FD
:103B7000A8484079AD4911F83000AD490870A54812
:103B80004079AA4901EBC0004068C8B1002413E0A5
:103B9000A0484079A54901EBC0004068C4EBC401CE
:103BA0000844C4EBC401A34A114402680A60828835
:103BB0008A8080798871641C9D4800788442E7DBA4
:103BC0004FF48040FEF7FCFC70B397480078012862
:103BD0002ADD002424E0934901EB041188684FF0AA
:103BE0007C510EF02BFF8F4901EB041188608D4949
:103BF00001EB041148684FF07C510EF01FFF89491A
:103C000001EB04114860874901EB0411C8684FF0CB
:103C10007C510EF013FF834901EB0411C860641C52
:103C2000814800788442D6DB7A484079082807D05A
:103C3000784840790E2803D076484079182828D152
:103C400001207D49087473484079182824D1002444
:103C50001CE0C4EBC4016F48D0300844807800B940
:103C600016E0C4EBC40073490144C4EBC4026948C4
:103C7000D030104402680A6082888A808079887116
:103C80006B480078401C6A490870641C102CE0DB0B
:103C900002E0002068490874FFF7EFFE70BD10B520
:103CA0000146491C002018E00022C0EBC004594B1B
:103CB000D03323449A71C0EBC004564BD033234415
:103CC0009A70C0EBC004534BD03323445A70C0EBFE
:103CD000C004504BD0331A55401C1028E4DB0020A0
:103CE00012E0524A02EBC1025268C0EBC003134417
:103CF000C0EBC004474AD03222441C6814609C8840
:103D000094809B799371401C484A12F8312082427A
:103D1000E7DC10BD70B50146491C002006E0002319
:103D20003C4A103202EB00121360401C0C28F6DBF8
:103D30003A4A02EBC1025268BAB1002010E0374A99
:103D400002EBC102526802EB0013324A103202EB5E
:103D5000001293E87000DB6882E87000D360401CBA
:103D60002E4A12F831208242E9DC70BD10B52C4891
:103D7000807D00B910BD274840790E287CD008DC32
:103D800001281AD004280BD0052831D0082871D179
:103D900063E0142854D015286FD01828F7D185E097
:103DA0002648008981B2002009F0BAFB23484089E7
:103DB00081B2012009F0B4FBBEE014487E3890F8CF
:103DC000D50030B11D48408981B2002009F0A8FB20
:103DD0000DE01948407830B11848408981B2002080
:103DE00009F09EFB03E00021084609F099FBA3E0DF
:103DF0001248008881B2002009F092FB0F484088E9
:103E000081B2012009F08CFB96E035E09209002098
:103E10007C0C002054040020980A00200C57010854
:103E2000480A0020B00A0020D60000207858010877
:103E3000D7000020700B0020680C0020D800002064
:103E4000FA48008981B2002009F06AFBF7484089EE
:103E500081B2012009F064FB6EE0F448C08881B2B1
:103E6000002009F05DFBF148008981B2012009F0D2
:103E700057FB61E04FE000E000BFEC48C08881B232
:103E8000002009F04DFBE948008981B2012009F0CA
:103E900047FBE648408981B2022009F041FBE34834
:103EA000808981B2032009F03BFB45E0DF48C088F0
:103EB00081B2002009F034FBDC48008981B2012086
:103EC00009F02EFBD948408981B2022009F028FB75
:103ED000D648808981B2032009F022FB0120FEF739
:103EE0006FFBB8B1D148008881B2042009F018FBFB
:103EF000CE48408881B2052009F012FBCB4880886B
:103F000081B2062009F00CFBC848C08981B20720A5
:103F100009F006FB10E02020FEF752FB58B1C34821
:103F2000008881B2002009F0FBFAC048408881B2C5
:103F3000012009F0F5FA00BF00BF00BF1AE710B575
:103F4000002408E0BA4830F8140081B2204609F095
:103F5000DAFA601CC4B2B74800788442F2DB10BDC4
:103F600070B50546002404E0B14820F81450601CE8
:103F7000C4B2B04800788442F6DBFFF7E0FF70BDC2
:103F80002DE9F04F87B0AC48807A60B1AB4800882B
:103F9000ADF80400A9484088ADF80600A74880881D
:103FA000ADF808000BE0A6480088ADF80400A4486E
:103FB0004088ADF80600A2488088ADF808009C480B
:103FC0000088ADF80A009F48B0F88C019E49098925
:103FD000401A00B2ADF80C009A48B0F88C019A492A
:103FE0004989401A00B2ADF80E009648B0F88C012D
:103FF00095498989401A00B2ADF810009148B0F88F
:104000008C019149C989401A00B2ADF812008D485F
:10401000B0F88C018C490988401A00B2ADF8140040
:104020008848B0F88C0188494988401A00B2ADF838
:1040300016008448B0F88C0183498988401A00B280
:10404000ADF818007F48B0F88C017F49C988401A44
:1040500000B2ADF81A00002407E02046FFF7DEFCAE
:10406000724921F81400601CC4B2082CF5DB00244E
:10407000BBE0C4EBC40075490844807940B1C4EB8F
:10408000C4000844807914307149085C00287CD051
:10409000C4EBC4006D490F5CC4EBC4000844457810
:1040A00007EB87016B4800EB4100418807EB870273
:1040B000684830F81200081A86B2C4EBC401634A9B
:1040C000114491F904107143642291FBF2F13046DE
:1040D00006EBD072A1EB62010FFA81F8C4EBC401C8
:1040E0005A4A114491F905107143642291FBF2F18F
:1040F00006EBD072A1EB62010FFA81F9C4EBC400A8
:1041000052490844C07830B901A830F81500524926
:1041100021F8140042E0504830F9140001A931F9A7
:104120001510884218DA4C4B33F91430C4EBC40C28
:10413000DFF818A1D4449CF803C003EB0C0001ABDA
:1041400033F91520444B33F9141006F059F900B235
:10415000414921F8140021E03F4830F9140001A939
:1041600031F91510884219DD3B4B33F91430C4EB9B
:10417000C40CDFF8D8A0D4449CF803C0A3EB0C0017
:10418000354B33F9142001AB00E028E033F915106A
:1041900006F036F900B2304921F8140029463846B5
:1041A000FFF75BFC83462C4830F91400C4EBC401D4
:1041B000264A114491F902104843642190FBF1FA18
:1041C0004A464146504606F01BF9184931F9171086
:1041D0000BFB001000B2154921F8170003E0002086
:1041E0001D4921F81400601CC4B21C4800788442A8
:1041F000FFF63FAF002413E004EB8401154800EB09
:10420000410090F90600094931F91410484364212E
:1042100090FBF1F000B2054921F81400601CC4B213
:10422000082CE9DB07B0BDE8F08F0000D8000020C3
:10423000800A0020D6000020680C00207E010020AB
:1042400092010020540400207C0C0020700B002000
:10425000C60C002092090020600A0020D700002030
:104260002DE9FC5FFB480078032826DDFA4BB3F903
:104270000430002B03DDF84BB3F9043003E0F64BB8
:10428000B3F904305B4203F16402F34BB3F9043039
:10429000002B03DDF04BB3F9043003E0EE4BB3F930
:1042A00004305B426FF06306F11AEC4BB3F9040083
:1042B00006F0A6F800B2E9498880E64800780128AF
:1042C00056DD002450E0E64991F9D4104942E34A12
:1042D000B2F9042001FB02F00EF098FC8146E1489F
:1042E00000EB0410C16848460EF0A8FB0746DB4906
:1042F000B1F900000EF08AFC8246DA4800EB0410A7
:10430000416850460EF09AFB8146D449B1F902004B
:104310000EF07CFC0090D34800EB041081680098FC
:104320000EF08CFB8246CC49B1F906000EF06EFC13
:104330000090CC4800EB0410016800980EF07EFB62
:10434000834651460EF022FB494601900EF01EFBBB
:10435000804639460EF01AFB06460EF076FC00B297
:10436000C14921F81400641CBA4800788442AAD3D9
:10437000BE48007CB0B1BD48407830B9BC48B0F808
:10438000440100B2B84908800CE0B94BB3F84221AF
:10439000B3F84011B04BB3F9060006F031F800B2A3
:1043A000B1490880B24840790E2811D008DC0128B4
:1043B00010D004280DD0052811D0082832D106E0ED
:1043C000142808D0152807D018282BD100BF00BF0B
:1043D00000BF00BF00BF00BFFFF7D2FD22E0A04832
:1043E00090F98400A349B1F902104843322190FBAF
:1043F000F1F30020FFF712FB184400B29E49088039
:10440000974890F98E009B49B1F90010484332213A
:1044100090FBF1F30120FFF701FB184400B296492D
:10442000488000BF00BF2020FEF7CAF800286BD0EC
:104430000020FFF7F3FA904908800120FFF7EEFA19
:104440008D4948808D48007AE8B3854890F8D600B9
:1044500010F0020F38D0824890F98400404285491C
:10446000B1F902104843322190FBF1F17C4890F9F8
:104470008E00804AB2F900205043322290FBF2F0C5
:10448000081A7D490988081A00B27B4908807448D7
:1044900090F9840040427749B1F902104843322133
:1044A00090FBF1F16E4890F98E00724AB2F900204B
:1044B0005043322290FBF2F008446F494988084487
:1044C00000B26D4948801FE0654890F98400694951
:1044D000B1F902104843322190FBF1F06649098896
:1044E000084400B2644908805D4890F98E00614933
:1044F000B1F900104843322190FBF1F05E49498840
:10450000084400B25C494880002417E004EB8406AC
:10451000534B7E3303EB4603B3F9022004EB8406CE
:104520004F4B7E3333F91610534B33F9140005F01B
:1045300067FF00B2504921F81400641C082CE5D331
:10454000474890F8D60010F0040F11D04C48C07DB9
:10455000061F002409E0221D4A4B33F8122091B2B5
:10456000A219D0B208F0DCFF641C042CF3D300BF06
:104570003D48B0F90050012408E03B4830F91400F0
:10458000A84202DD384830F91450641C31480078E4
:104590008442F2D300248EE03548B0F84201A842AC
:1045A0000BDA314830F814003149B1F84211691A78
:1045B000401A00B22C4921F814004FF48040FDF756
:1045C000FFFF28B32F48B0F906002949B1F88C1134
:1045D00088420EDD264BB3F84221B3F84811224B36
:1045E00033F9140005F00CFF00B21F4921F8140044
:1045F00058E01F4BB3F84621B3F844111A4B33F976
:10460000140005F0FDFE00B2174921F8140049E03E
:10461000174BB3F84221B3F84011134B33F9140090
:1046200005F0EEFE00B2104921F814001548B0F96B
:1046300006000F49B1F88E11884230DA1020FDF7DC
:10464000BFFF08BB0A48B0F8400100B2064921F894
:10465000140027E0D60000207E01002092010020F7
:1046600014090020B00A0020800A0020680C0020F5
:10467000540400205C000020D8000020C60C00205C
:10468000480A00207C0C00200E48B0F8440100B21B
:104690000D4921F8140001200C49487402E0002063
:1046A0000A4948740948407820B94FF47A7006499D
:1046B00021F81400641C064800788442FFF46CAFB3
:1046C000BDE8FC9F54040020800A0020680C0020F4
:1046D000D60000202DE9F04104460D4616464FF065
:1046E00000081BE0002710E0FE48C06880F48050FE
:1046F000FC49C860012008F068FF284609F022F84C
:10470000002008F062FF781CC7B2A742ECDB3C2017
:1047100009F018F808F1010000F0FF08B045E1DBEE
:10472000BDE8F0812DE9F04F85B0EF48B0F9060003
:10473000EE49C98C884202DA4FF064081DE0EA486D
:10474000B0F90600B0F5FA6F12DAE748B0F90600E2
:10475000E649C98C401AE54991F825104843E349D8
:10476000C98CC1F5FA6190FBF1F0C0F1640804E076
:10477000DE4890F82500C0F164080024C7E0DA485C
:1047800030F91400DA49B1F88C11401A002807DD1D
:10479000D54830F91400D649B1F88C11401A06E01A
:1047A000D348B0F88C01D04931F91410401AB0F553
:1047B000FA7F18DACC4830F91400CD49B1F88C11E1
:1047C000401A002807DDC84830F91400C849B1F87C
:1047D0008C11401A09E0C648B0F88C01C24931F981
:1047E0001410401A01E04FF4FA700546022C3BD039
:1047F000BE4890F8760050B1BC4890F87600A842C8
:1048000004DABA4890F876002D1A00E000256420FA
:1048100095FBF0F6B749701C31F9100031F916100C
:10482000401A06EBC60101EB0611A5EB81014843D6
:10483000642190FBF1F0AF4931F81610084400B242
:10484000AD4921F81400A94890F8230068434FF4BB
:10485000FA7190FBF1F0C0F16407B8B200FB08F008
:10486000642190FBF1F726E0A04890F8770050B162
:104870009E4890F87700A84204DA9C4890F87700A8
:104880002D1A00E000259A4890F95C0140426843E7
:1048900000B2994921F81400944890F82400002DA2
:1048A00001DD294600E0694248434FF4FA7190FB6C
:1048B000F1F0C0F164078D48401C005D784364212D
:1048C00090FBF1F08D49085588480B30005D784326
:1048D000642190FBF1F08A49085584481530005D49
:1048E0007843642190FBF1F0864908557E4830F901
:1048F00014007F49B1F88C11884207DA7E4830F8FD
:104900001400404200B27C4921F81400641C032CBE
:10491000FFF635AF764AB2F88E11734AB2F9060047
:104920004FF4FA6205F06CFD05467148B0F88E014F
:10493000281A4FF47A7148436D49B1F88E11C1F5C8
:10494000FA61B0FBF1F5642095FBF0F66E49701C3E
:1049500031F9100031F91610401A06EBC60101EBCF
:104960000611A5EB81014843642190FBF1F06649F3
:1049700031F81610084400B25F49C8806348407A95
:10498000002855D06249B1F90010624AB2F90020FE
:10499000881A0EF03BF982465F490EF04FF88146C7
:1049A0005E490EF081F8049004980FF073F80390BC
:1049B00004980FF055FC02904F49B1F900000EF039
:1049C00025F9009002990EF039F882464A49B1F96A
:1049D00002000EF01BF9009003990EF02FF88346A9
:1049E00051460DF0D3FF81460EF02FF900B2019031
:1049F0004149B1F902000EF009F9009002990EF058
:104A00001DF882463C49B1F900000EF0FFF8009015
:104A100003990EF013F8834651460EF009F88146CB
:104A20000EF013F900B2344908800198488000BFA5
:104A30000220FDF7C5FD002853D0394800683949E8
:104A4000098808443649086037480078401CC0B2DD
:104A500035490870062190FBF1F201FB1200002895
:104A60006AD132490868C11700EB51712F4A1268A8
:104A7000A2EBE1012D4A1160002007F031F92B492A
:104A80000968084429490860D1F800904FEAE971A3
:104A900009EB5171C1F3CF0001F0C7FC2449088034
:104AA000134890F87F01002867DD22490868C11784
:104AB00000EB51711F4A1268A2EBE1011D4A11601F
:104AC000022007F00DF91B490968084419490860DC
:104AD000D1F800904FEAE97109EB5171C1F3CF00B1
:104AE0002BE05DE0001001407C0C00201409002048
:104AF00054040020A00C00207E010020880100202A
:104B00008B0100208E010020AE0C0020680C0020DC
:104B1000F00100206E010020DB0F4940000034430B
:104B200038010020F0000020200100202401002096
:104B300070010020280100201FE001F094FCFE49D4
:104B4000086008460068FD49096848434FF47A71D7
:104B500090FBF1F0C117FA4AD2E90032C018514176
:104B6000F74A03C2F74A0023F54903C90DF00CFECA
:104B7000F54908600020F1490860F4480088F449CC
:104B80000988884203DC012005F0FCFA08E0EF48C0
:104B90000088F0490988884202DC022005F0F2FA18
:104BA00005F0C2FBEC480088002803DD0220FDF779
:104BB000EFFC18B9E9480088002806DDE848C0681D
:104BC00080F48050E649C8600FE0E648807818B16C
:104BD0004FF48050E2490861E248407818B14FF440
:104BE0008050DF49486106F00CFA8020FDF7E8FCB0
:104BF00070B1DD480068DD490968401A08D4DA4818
:104C000000684CF250310844D849086009F046F970
:104C1000D5480068D6490968401A15D4D148407B68
:104C200078B90020CF498870CD48C06880F48050A2
:104C3000CB49C860CC480068CE490844CC490860DC
:104C400002E00120C749887003F0B0FBCA48007831
:104C500030B94FF40060FDF7B3FC08B106F00EFA6E
:104C60002020FDF795FCA8B1BF480068C34909683A
:104C7000401A0FD4C248007805280BDBBA480068F8
:104C8000C0490844BD490860B548C06880F4006068
:104C9000B349C860BC48806818B1BB488168BB484C
:104CA000884705B0BDE8F08F10B50446B849085DE7
:104CB00008F040FC10BD0146B64830F811007047BE
:104CC00070B50820FDF77CFC68B1002408E0E0B274
:104CD000B1490968884700B2B04921F81400641C42
:104CE000082CF4DB47E000243EE0E0B2AA49096862
:104CF0008847054640F2EE20854203DB40F6CA00B5
:104D0000854202DDA648B0F88C5129B2A54A106848
:104D1000C21700EB92729210A0EB8202A24B03EB3F
:104D2000C40323F8121000209C4921F81400002627
:104D30000DE09D4800EBC40030F81600974931F8AB
:104D40001410084400B2954921F81400761C042E72
:104D5000EFDB924931F91400C11700EB9171891012
:104D60008E4A22F81410641C082CBEDB8D480068A3
:104D7000401C8C49086070BD10B57848008808BB9D
:104D800078488078F0B17748407818BB01207549A1
:104D900048708648B0F90000854908804FF480705B
:104DA000FDF70EFC50B16F48C07A38B174480078F6
:104DB000052803DB072005F0E5F90BE0062005F0E8
:104DC000E1F907E06748407820B90122FF2102207D
:104DD000FFF780FC10BD10B56248407828B1002074
:104DE00060494870052005F0CDF910BD70472DE9E8
:104DF000F04F85B0002700200390804602906D4858
:104E0000B0F90200002803DD6A48B0F9020003E0AF
:104E10006848B0F9020040426649B1F90010002923
:104E200003DD6449B1F9001003E06249B1F90010F3
:104E3000494288420DDD5F48B0F90200002803DDD9
:104E40005C48B0F9020011E05A48B0F90200404253
:104E50000CE05848B0F90000002803DD5548B0F9CF
:104E6000000003E05348B0F900004042054600242A
:104E70005BE13C48C07810B93A480079E8B3022CAD
:104E800047DA4D4B33F91430DFF828C13CF914C030
:104E90004FF0020E0EFB0C30414BB3F86821B3F813
:104EA0006831594205F0ACFA444931F91410411AFD
:104EB000434830F914000E1841482A38007A7043EC
:104EC000642190FBF1F73E482A38007F00EB800216
:104ED0003B482A38007F404200EB8001384605F00D
:104EE0008FFA0746374951F82410881942F2107298
:104EF000514205F085FA334900E00AE041F8240008
:104F0000084650F824002E492A39897C484300136A
:104F100003901448C07820B11248007908B9022CD7
:104F200072D1244830F9140000EB800001012448BC
:104F30002938005D48E0000074010020380100209D
:104F400030010020407E0500780100207001002023
:104F5000B6010020B4010020B8010020BC010020EF
:104F600000100140680C0020E80000203C010020F7
:104F70001C01002020A107000000002040010020AB
:104F8000A0010020F0490200680E00207C010020F2
:104F9000D4050020F8030020F80000207C0C00203D
:104FA0005404002044010020EC0B0020F0010020FC
:104FB0006E0100207E010020020100205C00002024
:104FC0003E0900201401002091FBF0FAFE4830F960
:104FD0001400AAEB000AFD4830F91480FC4951F88E
:104FE000241001EB0A004FF47A52514205F008FAFE
:104FF000F74941F82400F44830F91400002804DD92
:10500000F14830F9140004E026E0EF4830F91400CC
:105010004042B0F5207F10DC022C12D1EB4830F971
:105020001400002803DDE94830F9140003E0E748E4
:1050300030F914004042642803DD0020E44941F8BF
:105040002400E34850F824007D2190FBF1F0E14971
:10505000095D484380110290DF480079B8B1022C05
:1050600015DAC5F5FA70784308FB05004FF4FA71BC
:1050700090FBF1FBC5F5FA7103984143029800FBE0
:1050800005104FF4FA7190FBF1F004900BE0D24858
:10509000C07828B1022C03DABB460398049002E0E2
:1050A000C34602980490C84931F91410CB4A125DE6
:1050B00051430A2291FBF2F0C11700EB5171ABEBA7
:1050C000E10BC14830F91400C54931F91410A0EBC7
:1050D0000109BD4830F81400C14921F81400C14845
:1050E00050F82400C04951F82410084400EB09018D
:1050F0000091BC4850F82400BB4941F82400B9484D
:1051000040F82490B9490A5D009902FB01F0C117EB
:1051100000EBD16149110191049858440199401A5A
:1051200000B2B34921F81400641C032CFFF6A1AEB1
:1051300005B0BDE8F08F2DE9FF5F00270024A6E051
:10514000022C0BD1A3480B3890F824001B309F4948
:10515000B1F904104843401103903FE09B4931F9F5
:105160001410A44A32F9142088184FF4FA725142EC
:1051700005F046F9A04931F91410411A95481F303D
:1051800030F91400084400900DF040FD9B49019057
:105190000DF08AFC02900DF058FD07468E48C0784D
:1051A000B0B98C480B3890F823001B30874931F98F
:1051B00014104843001103908748007970B1854866
:1051C0000B38807C7843039901EB2020039005E0A5
:1051D00080480B38007A7843001103907A4830F900
:1051E00014100398451A7B480A38005D68434FEA5B
:1051F000E019774850F82410814800886843C212AB
:105200007448005D02FB0010714941F8240051F818
:1052100024004FF40012514205F0F2F86C4941F8B5
:105220002400084650F824004FEA603A754850F8C8
:1052300024002E1A734840F8245071480088001149
:105240004FF6FF7191FBF0F0704386116E4850F8F5
:1052500024006E4951F82410084400EB06086A48FF
:1052600050F82400694941F82400674840F8246058
:1052700058480A30005D00FB08F04FEA202B09EB8C
:105280000A00584400B25A4921F81400641C032C47
:10529000FFF656AFBDE8FF9F10B1012804D000BF54
:1052A0005B495C4A116003E05B495A4A116000BFE8
:1052B00000BF70472DE9FF5F002500270026002072
:1052C00003900820FDF77CF9D8B1544890F8880184
:1052D000052815D2DFE800F00304080C100000BF19
:1052E00004F0B7FE03900BE005F0BEFA039007E070
:1052F00005F07BFB039003E006F046F8039000BF47
:1053000000BF4748006847490968401A02D503981A
:10531000002857D0002003904148006844F62061DF
:10532000084440490860FFF7CBFC4FF48040FDF78C
:1053300047F920B13C48007808B9FFF74CFD00243C
:1053400015E0AD10394830F914003449B1F88E1128
:10535000884201DD45F08005344830F914002F49BA
:10536000B1F89011884201DA45F04005641C042C24
:10537000E7DB2F480078854209D12E480078FA28CB
:1053800008DA2C480078401C2A49087002E0002006
:1053900028490870264805704FF48040FDF710F941
:1053A00088B11E48B0F88C011C49B1F84C11401A64
:1053B0001E49B1F90610884248DA1848B0F88C0145
:1053C000164939E0B0E341E0500000207E010020A2
:1053D000E00B00201F090020680C0020880100203D
:1053E000480100202C0C0020380C00208E010020E9
:1053F00092010020020100205C00002000002041FA
:10540000F00000205C0C0020440C0020500C002018
:10541000EF4D0008FC000020375100085404002024
:10542000E800002050010020C60C00207C0C002069
:105430004F0100204E010020B1F84C110844F849FA
:10544000B1F90610884201DD01260DE04FF48040DD
:10545000FDF7B6F840B9F248B0F90600F149B1F8E5
:105460008E11884200DA0126A6B10020EE490860BC
:1054700048608860ED4908604860ED48B0F8460033
:10548000002807DDEB48007820B1EB48007808B130
:10549000FFF772FCE648B0F8460000280FDDE5484B
:1054A000007860B9E448407848B1DE4890F893014C
:1054B00010B1FFF790FC02E00EB1FFF78CFCDF4863
:1054C000007814281CD1DC484078D0B1D848B0F816
:1054D000460028B9DA4800785F2801D1FFF77BFC45
:1054E000D04890F8920100280AD0D148B0F8460080
:1054F0000028E7D1D24800787D28E3D1FFF76BFC84
:10550000C2E00024CE480078572819D14FF47A70B1
:10551000CC4908804FF48070FDF752F808B103F0D1
:10552000DAFD0420FDF734F810B10A20C6490880DE
:105530000820FDF72DF808BB0020C449088021E0B1
:105540000420FDF73DF8C8B1BD4800785A2819D1AC
:10555000BF48007830B10020BD4908700120BD4926
:1055600008700FE0BC48007880F00100BA4908706C
:105570000846007818B10A2004F004FE02E00B206F
:1055800004F000FEAE4800785D2801D101240AE055
:10559000AB4800785B2801D1022404E0A8480078D9
:1055A0005E2800D103246CB1601EC1B29D4880F812
:1055B000BC1400210846FCF77CFDE2B22821022041
:1055C000FFF788F89A48B0F8460030B99C48007850
:1055D0006F2802D1FFF7D0FB1EE0924890F89201AD
:1055E00050B19348B0F8460030B9954800787E280D
:1055F00002D1FFF7C1FB0FE091480078972804D152
:105600004FF4C8709549088006E08D480078A728B7
:1056100002D1012088498873002489480078BB287A
:1056200007D18348808D801C01B281488185012487
:1056300022E083480078B72807D17D48808D801EFE
:1056400001B27B488185012416E07D480078BE28A0
:1056500007D17748408D801C00B2754948850124E8
:105660000AE077480078BD2806D17148408D801E39
:1056700000B26F494885012434B101210846FCF786
:1056800018FD00206D4908700420FCF799FF28B32D
:105690007148007898B16848407880B16048B0F9A6
:1056A00006006049B1F88E11884208DD6148007833
:1056B00028B932206A4908800020674908705D488F
:1056C000407C60B16748007828B96148007810B91B
:1056D0003220634908800120624908700BE05C4871
:1056E000007840B15448407828B9002058490870E3
:1056F000012058490870002438E0201D484931F93C
:10570000100040F21451884201DA012000E000202C
:1057100004EB44018840211D414A32F9111040F246
:105720001452914209DD211D3D4A32F9111040F217
:10573000A462914201DA012100E0002104EB44025D
:10574000521C91400843211D354A32F9111040F294
:10575000A462914201DD012100E0002104EB44023A
:10576000921C91400843384387B2641C042CC4DB6C
:1057700000240CE02E48463030F814003840002851
:1057800001DD012000E000202A490855641C182C86
:10579000F0DB2848407848B9254890F8CE0000EB67
:1057A00080003149B1F90010884224DA0220FCF768
:1057B000EFFE00B32048C07830B900201B490860D4
:1057C000486001201C49C8704FF40040FCF7F8FE07
:1057D000A8B1174890F8CE0000EB80002249B1F93B
:1057E000001088420BDA2020FCF7D2FE38B10120ED
:1057F0001149887403E000200F49C87088740D486F
:10580000807898B300200C49C8700846007970BBB6
:1058100000200649086048600120074908712AE015
:105820007C0C002054040020E00B00201401002018
:1058300014090020C60C0020680C00204E01002036
:105840004F010020BC010020BA010020F00100201F
:105850000C0100200D0100200B010020B8010020E8
:10586000100100200E010020F200002000E002E004
:105870000020F8490871F848007810B90120F5496E
:105880000870F448C07810B9F248007920B14FF49C
:105890000060F249486103E04FF40060EF4908619D
:1058A0000420FCF775FE38B3EB48C07898B1E9489E
:1058B000807998B90120E7498871E9480068E94989
:1058C0000860E948C088E94908800020E849086084
:1058D000E849086002E00020DE4988714FF400507A
:1058E000FCF76EFE40B1DC48007930B1D948C07B8E
:1058F00010B90120D749C87302E00020D549C87308
:105900000220FCF745FE18B90820FCF741FE30B331
:10591000D148407958B1CF48407958B90120CD4994
:105920004871D548B0F90000D449088002E0002051
:10593000C8494871C848807930B1C648407A30B902
:105940000120C449487202E00020C2494872C2489E
:10595000C07920B1C848B0F90000C94908802020AA
:10596000FCF716FEA0B3BB48C07A90B3C5480078D8
:1059700005287EDBB848807A10B9B648807CC0B173
:10598000B448C079C0BB0120B249C8710020087278
:10599000BD490870BD49081F04F049FA0220BC49FE
:1059A0000870BC480088BC4988600120A949C874B7
:1059B0005BE00020A749C871A748C07AF0B3AA48A5
:1059C000B0F90000002805DDA748B0F9000005E0A7
:1059D00055E04EE0A448B0F900004042AF49B1F8AC
:1059E000E210884233DAA048B0F90200002804DD52
:1059F0009D48B0F9020004E037E09B48B0F902008E
:105A00004042A649B1F8E210884220DA9148007A73
:105A100058BB01208F49087200209B490870A0489C
:105A200000689D4908609E4840684860091D081F3D
:105A300004F0FDF901209649087000E007E0954860
:105A400000889549886000208249C8740DE00020D4
:105A5000804908728C48007838B901208A4908705A
:105A600004F07CF900207B49C8740C2004F08AFB08
:105A700005E000207749C8710872854908707648AA
:105A8000007B30B17348807C18B90120714988725D
:105A900002E000206F49887282484079082807D0C8
:105AA000804840790E2803D07E48407918283AD1A2
:105AB0000020684948724FF40070FCF781FD90B3F4
:105AC000764890F8CE0000EB400040007649B1F9EE
:105AD000001088427EDA00205E4988720120C8707A
