:020000040800F2
:10000000C02C00201D0001085D000108CF3200084F
:10001000610001086300010865000108000000009C
:100020000000000000000000000000006700010860
:1000300069000108000000006B00010863BB0008B4
:100040006F0001086F0001086F0001086F000108D0
:100050006F0001086F0001086F00010847C9000820
:100060006F0001086F0001086F0001086F000108B0
:10007000E3C200086F000108B7C200086F00010862
:100080006F0001086F0001086F0001086F00010890
:100090006F0001086F0001086F0001084FC90008D8
:1000A0006F0001086F0001086F000108A7D4000865
:1000B000B3D40008BFD40008CBD40008FFB10008B7
:1000C00019AE00080FB2000807B200086F0001085F
:1000D0006F0001080DC300084DC300086F00010840
:1000E00081A400086F0001086F000108DFF80CD040
:1000F00010F038FD004800474F2F0008C02C0020AA
:10010000F0B504460E461546B4FBF5F038B1B4FB25
:10011000F5F72A4631463846FFF7F2FF0646B4FBAC
:10012000F5F005FB1040FCA1085C3070701CF0BDC0
:1001300070B505460C461646022E01DB242E00DD66
:100140000A26002D09DA2D2020703246611C6842F3
:10015000FFF7D6FF0021017006E03246214628460F
:10016000FFF7CEFF00210170204670BD2DE9F05F42
:1001700004464FF0000900E0641C20782028FBD0E2
:1001800020780928F8D04FF07E5820782D2803D108
:10019000DFF8AC83641C03E020782B2800D1641CBA
:1001A00000260FE02178A1F1300010F079FA054621
:1001B000E449304610F004FA8246294610F0A8F9C6
:1001C0000646641C2078302802DB20783928E9DDD7
:1001D00020782E281DD1DB4D641C13E02178A1F17D
:1001E000300010F05DFA8346294610F01BFA824673
:1001F000314610F08DF90646D249284610F0E0F954
:100200000546641C2078302802DB20783928E5DD9B
:1002100000BF4FF07E572078652802D0207845280F
:1002200034D1641C4FF0000920782D2803D14FF001
:100230000109641C03E020782B2800D1641C0025F0
:1002400006E02078303805EB850100EB4105641CA1
:100250002078302802DB20783928F2DDB5F59A7F46
:1002600001D94FF49A7505E0B749384610F0A8F95E
:100270000746083D082DF7D205E0B249384610F090
:100280009FF907466D1E002DF7D100BFB9F1000F91
:1002900004D03946304610F0C5F903E039463046FF
:1002A00010F08EF90546414610F08AF9BDE8F09F3E
:1002B0002DE9F04387B007460E46002001900290DA
:1002C00003900FF288280021384610F02FFA05D24B
:1002D0009F49384610F01CF9074604E09C4938460F
:1002E00010F068F907469B49384610F069F98146D5
:1002F00010F0E4F90446002C01DD214600E06142E3
:1003000008460A2204A9FFF713FF002C03DB202074
:100310008DF8040002E02D208DF8040004A810F0F0
:10032000A8F801280BD130208DF805008DF80600C3
:100330008DF8070004A901A810F067F81FE004A8D1
:1003400010F097F8022809D130208DF805008DF8BB
:10035000060004A901A810F058F810E004A810F055
:1003600088F8032807D130208DF8050004A901A8DA
:1003700010F04BF803E004A901A810F046F801A81A
:1003800010F077F8C01EC5B22A4601A9304610F019
:100390005AF8002070554146304610F036F801A852
:1003A0004119304610F031F8304607B0BDE8F0830F
:1003B00010B5044605E014F8011B674A10680DF0FB
:1003C000E9FB20780028F6D110BD10B563A0FFF737
:1003D000EFFF10BD2DE9F04105460C462F4626469D
:1003E000306810F046F8804631684246386810F0B0
:1003F00069F8BDE8F0812DE9F0410546002728465F
:1004000010F037F800F0FF08B8F1000F0CD100240D
:1004100007E0544830F81420214653A010F0C8FCDF
:10042000641C152CF5DB17E02E46304610F063F8FF
:100430000446152C0CDA2021284610F010F8064648
:10044000304610F058F80746464820F8147003E08C
:10045000152148A010F0ACFCBDE8F0812DE9F04F6B
:1004600087B007460026B046384610F002F800F084
:10047000FF09B9F1000F4DD148A0FFF799FF002403
:100480003FE0514901EB04110868002110F044F9E4
:1004900000D138E008F10108611C4CA010F088FC84
:1004A000494901EB0411086803A9FFF701FF8246DF
:1004B000514648A010F07CFC434901EB0411486808
:1004C00003A9FFF7F5FE8246514642A010F070FCEA
:1004D0003D4901EB0411886803A9FFF7E9FE824654
:1004E00051463CA010F064FC374901EB0411C86888
:1004F00003A9FFF7DDFE8246514637A010F058FCF5
:10050000641C0C2CBDDB00BF002002900190009009
:1005100000247EE0A0E0000030313233343536373D
:1005200038394142434445464748494A4B4C4D4E71
:100530004F505152535455565758595A00000000C5
:10054000000080BF0000204120BCBE4C2E000000F7
:100550006F12033A00007A44C00800200D0A2320DD
:100560000000000006080020617578202575202510
:10057000750D0A00496E76616C6964204665617488
:1005800075726520696E6465783A206D75737420A4
:100590006265203C2025750D0A00000043757374C8
:1005A0006F6D206D697865723A200D0A4D6F746F1A
:1005B000720954687209526F6C6C095069746368EF
:1005C000095961770D0A00001C0400202325643AB4
:1005D000090000002573090025730D0A00000000C2
:1005E000F94A02EB0412516800980FF091FF009055
:1005F000F54A02EB0412916801980FF089FF01900F
:10060000F14A02EB0412D16802980FF081FF0290C8
:10061000641C4445E4DBEDA0FFF7CAFE002004465D
:1006200011E05DF8240020F000418B46EB4958466C
:1006300010F07CF801D2EAA000E0EAA08246FFF7C1
:10064000B7FE601C0446032CEBDBAFF28800FFF71B
:10065000AFFE07B0BDE8F08F0522E3A138460FF0EA
:1006600031FF50B9002405E00021D74800EB041009
:100670000160641C0C2CF7DB8EE00422DCA1384600
:100680000FF020FF00282FD1202138460FF0E7FE81
:100690000546002DF0D0691C0D4608460FF0E9FE16
:1006A00000F0FF09002400BFD34850F8240018B917
:1006B000D2A0FFF77DFE16E0CF4850F824104A463E
:1006C00028460FF0FFFE60B9204602F00EFFCA4830
:1006D00050F82410CFA010F06BFBC6A0FFF7BEFEB1
:1006E00001E0641CE0E757E03D4628460FF003FFB9
:1006F0000446601E04460C284ADA202128460FF0E2
:10070000AEFE05464DB1691C0D460846FFF72EFDAD
:10071000AD4901EB04110860761C202128460FF03A
:100720009EFE054655B1691C0D460846FFF71EFDA5
:100730000146A54800EB04104160761C20212846A4
:100740000FF08DFE05464DB1691C0D460846FFF7BA
:100750000DFD9D4901EB04118860761C202128467F
:100760000FF07DFE05464DB1691C0D460846FFF7AA
:10077000FDFC954901EB0411C860761C042E03D0E2
:10078000A9A0FFF715FE07E09AA0FFF767FE03E0B8
:100790000C21B4A010F00CFB00BF5AE710B50446C2
:1007A000BAA0FFF705FE012001F0ACFBBEA0FFF7E9
:1007B000FFFD0A200BF007FA00200BF0EBFA10BD4A
:1007C0002DE9FC4104460D460026207906283AD240
:1007D000DFE800F003060A0D1114A068067832E085
:1007E000A06890F900602EE0A06806882BE0A06861
:1007F000B0F9006027E0A068066824E0A1680868F6
:100800006946FFF755FD07463946ABA010F0D0FA10
:10081000BDB1E0680FF044FF80466946FFF748FD30
:1008200007463946A5A010F0C3FA20690FF038FF3B
:1008300080466946FFF73CFD074639469FA010F009
:10084000B7FABDE8FC8100BF31469DA010F0B0FAB8
:1008500025B19CA0D4E9031210F0AAFA00BFF0E77A
:1008600010B5044699A0FFF7A3FD10BD2DE9FF5F69
:100870000020FFF7F5FFA1A010F09AFA5DA0FFF7A6
:10088000BAFD514810384079401E5B4A52F820109A
:10089000A6A010F08DFA4C491039086900210FF01C
:1008A0003BFF6DD0002464E0474901EB0411086868
:1008B00000210FF031FF00D15DE0434800EB041050
:1008C0000668414800EB041047683F4800EB0410FD
:1008D000D0F808803C4800EB0410D0F80C90611C64
:1008E00095A010F065FA002130460FF015FF02D2F6
:1008F00093A010F05DFA69463046FFF7D9FC8346B5
:1009000059466DA010F054FA002138460FF004FF4C
:1009100002D28BA010F04CFA69463846FFF7C8FCAB
:100920008346594664A010F043FA002140460FF078
:10093000F3FE02D282A010F03BFA69464046FFF770
:10094000B7FC834659465CA010F032FA00214846B5
:100950000FF0E2FE02D27AA010F02AFA6946484669
:10096000FFF7A6FC83465946AFF2943010F020FA08
:10097000641C0C2C98D300BF611C72A010F018FAF4
:1009800001F0F4FA0546002400BF734850F8240033
:1009900000B907E0704850F8241070A010F008FA71
:1009A000641CF2E700BF002400BF6B4850F824002D
:1009B00000B9E0E00120A040284018B1664850F896
:1009C0002410D3E0D5E000001C04002053616E69C0
:1009D000747920636865636B3A0900000AD7233C89
:1009E0004E4709004F4B09007265736574000000A3
:1009F0006C6F616400000000501E0108496E766152
:100A00006C6964206D6978657220747970652E2E2A
:100A10002E0D0A004C6F61646564202573206D699A
:100A2000782E2E2E0D0A000057726F6E67206E759D
:100A30006D626572206F6620617267756D656E7498
:100A4000732C206E65656473206964782074687205
:100A500020726F6C6C207069746368207961770D07
:100A60000A0000004D6F746F72206E756D626572C2
:100A7000206D757374206265206265747765656E9C
:100A8000203120616E642025640D0A005265736573
:100A90007474696E6720746F2064656661756C7428
:100AA000732E2E2E0D0A00005265626F6F74696EF0
:100AB000672E2E2E000000002573000020257300F5
:100AC0002564000020256420256400004166726FC3
:100AD000333220434C492076657273696F6E203241
:100AE0002E33204F63742031382032303134202FA0
:100AF0002031373A30313A33360000004375727294
:100B0000656E7420436F6E6669673A20436F707933
:100B10002065766572797468696E672062656C6FAE
:100B20007720686572652E2E2E0D0A006D69786536
:100B3000722025730D0A0000636D6978202564001A
:100B400020000000636D697820256420302030206B
:100B50003020300D0A000000AC1E0108666561748B
:100B6000757265202D25730D0A000000FCA010F0A1
:100B70001FF9641C19E700BF002406E0FC48015D72
:100B8000FC48005D0DF80010641C082CF6D3002012
:100B90000DF804006946F8A010F00AF9002415E0E9
:100BA00004EB8400F74901EB800A04EB84000A4659
:100BB00052F82010F4A010F0FBF800215046FFF787
:100BC000FFFDAFF2A010FFF7F3FB641C7C2CE7D312
:100BD000BDE8FF9F10B50446EEA0FFF7E9FB012139
:100BE000002000F052FFEEA0FFF7E2FB0A200AF01F
:100BF000EAFF00200BF0CEF810BD10B50446ECA0C3
:100C0000FFF7D6FB0020F0490870F0490860F04972
:100C1000087002F0ABFB2046FFF7DCFF10BD2DE9AA
:100C2000F041054628460FF024FC064601F09EF9E7
:100C30000746DEB9E7A0FFF7BBFB002400BFEA4888
:100C400050F8240000B90BE00120A040384028B142
:100C5000E54850F82410E5A010F0AAF8641CEEE76F
:100C600000BFAFF24020FFF7A3FB58E03246E0A1FF
:100C700028460FF027FCC0B9DFA0FFF799FB00243E
:100C800000BFD94850F8240000B907E0D64850F812
:100C90002410D6A010F08CF8641CF2E700BFAFF26D
:100CA0007C20FFF785FBBDE8F0814FF00008287835
:100CB0002D2803D14FF001086D1C761E002400BFC3
:100CC000C94850F8240018B9D1A0FFF771FB24E0FF
:100CD000C54850F82410324628460FF0F3FBD0B92F
:100CE000B8F1000F08D0012101FA04F001F038F941
:100CF000CEA0FFF75DFB07E0012101FA04F000F050
:100D000030FFCDA0FFF754FBB74850F8241096A051
:100D100010F04EF801E0641CD2E700BF00BF00BF36
:100D2000C1E710B5044607F058FF401C18B9C5A02C
:100D3000FFF73EFB02E0CDA0FFF73AFB10BD70B518
:100D400005460024D1A0FFF733FB00BF0DE004EB04
:100D50004400D44B03EB8000426804EB440053F89A
:100D60002010D1A010F024F8641C102CEFD370BD1B
:100D7000FEB5054628460FF07CFB0646082E20D11E
:100D8000002404E0285D0FF0F3FA2855641C082CB9
:100D9000F8D3002410E0295D75480FF060FB30B1F6
:100DA000295D2A19501C0FF05AFB00B903E0C0A0BE
:100DB000FFF7FEFAFEBD641C082CECD3284600F0B9
:100DC0008EFDC3A0FFF7F4FA002406E06848015D39
:100DD0006848005D0DF80010641C082CF6D3002054
:100DE0000DF80400694660A00FF0E2FF00BFE1E7E4
:100DF00070B5064630460FF03CFB05464DB9BA4883
:100E00004079401EB94A52F82010B9A00FF0D0FF27
:100E100070BD2A4676A130460FF054FBB8B9B9A090
:100E2000FFF7C6FA002400BFB04850F8240000B90C
:100E300007E0AE4850F824106CA00FF0B9FF641C16
:100E4000F2E700BFAFF22440FFF7B2FAE0E7002478
:100E500000BFA64850F8240020B9AFF26040FFF769
:100E6000A7FA13E0A14850F824102A4630460FF0A4
:100E700029FB48B9601C9C4948719C4850F82410D3
:100E8000A5A00FF095FF01E0641CE2E700BF00BFE2
:100E9000BEE72DE9F0478046002400250026002704
:100EA00040460FF0E6FA8146B9F1000F04D19FA049
:100EB0000FF07EFFBDE8F08735A140460FF0E0FA65
:100EC000074614E016B1012E0AD104E038460FF0AF
:100ED00012FB044604E038460FF00DFB054600BF48
:100EE00000BF761C2AA100200FF0CAFA0746002F87
:100EF000E8D1002C01DB0C2C04DB0C219AA00FF0B4
:100F000057FFD7E7022E07DAA14830F9142021460F
:100F1000A0A00FF04DFFCDE7B5F57A7F02DBB5F568
:100F2000FA6F03DDA1A00FF043FFC3E72A46214675
:100F3000A7A00FF03DFF28B2954921F8140000BF8B
:100F4000B8E770B5054628460FF093FAC6B236B931
:100F5000654890F8B013A5A00FF02AFF70BD51E1CD
:100F6000666561747572652025730D0A00000000C6
:100F7000AC2901081B0500206D61702025730D0A46
:100F800000000000FC1F0108736574202573203DDC
:100F900020000000536176696E672E2E2E0000003F
:100FA0000D0A5265626F6F74696E672E2E2E0000F7
:100FB0000D0A4C656176696E6720434C49206D6F60
:100FC00064652E2E2E0D0A00DC0300200400002094
:100FD00000000020456E61626C6564206665617486
:100FE000757265733A200000AC1E0108257320005D
:100FF0006C69737400000000417661696C61626C19
:10100000652066656174757265733A2000000000A2
:10101000496E76616C6964206665617475726520DD
:101020006E616D652E2E2E0D0A00000044697361FD
:10103000626C656420000000456E61626C6564202E
:10104000000000004572726F723A20456E61626C5A
:101050006520616E6420706C756720696E20475052
:10106000532066697273740D0A000000456E616258
:101070006C696E6720475053207061737374687297
:101080006F7567682E2E2E0D0A000000417661698B
:101090006C61626C6520636F6D6D616E64733A0D97
:1010A0000A0000003C1F010825730925730D0A0082
:1010B0004D75737420626520616E79206F7264656E
:1010C00072206F662041455452313233340D0A008C
:1010D00043757272656E742061737369676E6D65B6
:1010E0006E743A20000000000C040020501E01081D
:1010F00043757272656E74206D697865723A202549
:10110000730D0A00417661696C61626C65206D69DE
:10111000786572733A2000004D69786572207365B6
:101120007420746F2025730D0A00000055736167E9
:10113000653A0D0A6D6F746F7220696E6465782070
:101140005B76616C75655D202D2073686F77205B21
:101150006F72207365745D206D6F746F722076619D
:101160006C75650D0A0000004E6F20737563682072
:101170006D6F746F722C207573652061206E756DB4
:10118000626572205B302C2025645D0D0A00000032
:10119000F00800204D6F746F722025642069732061
:1011A0007365742061742025640D0A00496E7661B0
:1011B0006C6964206D6F746F722076616C75652C3C
:1011C00020313030302E2E323030300D0A00000009
:1011D00053657474696E67206D6F746F7220256437
:1011E00020746F2025640D0A0000000043757272A0
:1011F000656E742070726F66696C653A2025640DA7
:101200000A00000028460FF076F90446002C0CDB9B
:10121000022C0ADCF94981F8B0430021084600F0AD
:1012200034FCAFF2B820FFF78CFE00BF70BD10B5E4
:101230000446F349086821460CF0ACFC10BD03B528
:101240000179062917D2DFE801F0030408090E121C
:1012500000BF0199826811700DE000BF019909B2C9
:101260008268118007E001998268116003E00199AA
:101270008268116000BF00BF0CBD2DE9F84F074622
:101280004FF00008C246C14638460FF0F2F8054656
:1012900025B1012D21D138782A281ED1D9A0FFF7F8
:1012A00087F8002416E004EB8400DC4901EB80069B
:1012B00004EB84000A4652F82010AFF230300FF0F1
:1012C00077FD29463046FFF77BFAAFF6A800FFF717
:1012D0006FF8641C7C2CE6D393E0D1A138460FF064
:1012E000A0F85FEA000868D008F101086D1E4046CA
:1012F0000FF001F982464046FEF738FF8146002490
:1013000055E004EB8400C54901EB800604EB840141
:10131000C24A52F821000FF0ACF8834604EB840077
:10132000BE4A52F820105A4638460FF0CBF8002833
:101330003CD104EB8401B94A02EB8101C8680FF08B
:10134000AFF9834649460FF0E7F92AD804EB840148
:10135000B24A02EB810108690FF0A2F983464946BF
:101360000FF0E4F91DD804EB8400AC4901EB8000D8
:101370000079052802D1CDF8009001E0CDF800A059
:1013800030460099FFF75BFF04EB8400A34A52F854
:101390002010A4A00FF00CFD00213046FFF710FA3A
:1013A00002E0A3A0FFF704F8BDE8F88F641C7C2CD2
:1013B000A7D3A9A0FEF7FCFF23E000241FE004EB65
:1013C0008401964A52F8210039460FF02AF8A8B154
:1013D00004EB8400914901EB800604EB84000A468B
:1013E00052F82010AFF25C400FF0E2FC00213046D2
:1013F000FFF7E6F9AFF6D4100FF0DAFC641C7C2C92
:10140000DDD300BFD0E72DE9F04107460AF0CCFB61
:101410004FF47A71B0FBF1F6974803789748028849
:10142000314697A00FF0C4FC00F08EFD0546A4489D
:101430000068A449B0FBF1F6A348A44A126850F82A
:1014400022103246A2A00FF0B3FC002400BFAB482C
:1014500050F8240000B90DE00120A040284030B130
:10146000A64850F82410AFF27C400FF0A1FC601C9D
:10147000C4B2ECE700BF022000F051FDA8B1A048C3
:10148000A04A127850F822109FA00FF091FC9D48BE
:101490000078022809D15A48007D08B16F2000E089
:1014A0006E2001469BA00FF083FCAFF68820FEF76C
:1014B0007FFF09F084FF06464FF46D73324696486D
:1014C000018896A00FF074FCBDE8F0812DE9FF4182
:1014D0009F48007838B901209D4908709DA0FEF70B
:1014E00067FFFEF772FFCAE1454908680CF072FB1E
:1014F0000446092C01D03F2C74D100260027A348B4
:10150000D0F80080A24D0FE0A048006838B19F4895
:10151000296802689F480EF0D5FF00B103E006B9C4
:101520002E462F4600BF0C359948C0308542EBD37C
:101530008EB300BF954930680968405C934A3968AA
:101540001268895C884200D026E0904930680968BA
:10155000405C90B98D4800682E280ED220218B481F
:1015600002680068401C894B18608A48815400203A
:1015700088491A46126888540EE084493068096820
:10158000405C8449814A1268885480480068401C45
:101590007E490860CEE700E000BF7C48006808B1E3
:1015A000BE4211D07CA0FEF703FF354606E0286856
:1015B000FEF7FEFE0920FFF73AFE0C35BD42F6D9D4
:1015C000FEF703FF4FF0000806E0724911F808002B
:1015D000FFF72DFE08F101086C4800688045F4D340
:1015E0004CE1FFE76948006830B9042C04D1694830
:1015F000FFF703FBBDE8FF81D2E000000C040020F0
:10160000C008002043757272656E7420736574742F
:10161000696E67733A200D0A00000000FC1F010884
:101620003D00000025732073657420746F20000056
:101630004552523A2056616C756520617373696733
:101640006E6D656E74206F7574206F662072616EAA
:1016500067650D0A000000004552523A20556E6B36
:101660006E6F776E207661726961626C65206E6163
:101670006D650D0A000000006E01002000010020D1
:1016800053797374656D20557074696D653A2025C2
:1016900064207365636F6E64732C20566F6C746185
:1016A00067653A202564202A20302E3156202825CF
:1016B00064532062617474657279290D0A00000018
:1016C000A403002040420F002C1F0108CC00002082
:1016D00048617264776172653A2025732040202545
:1016E000644D487A2C206465746563746564207366
:1016F000656E736F72733A2000000000EC1E0108E3
:101700000C1F0108D401002041434348573A2025CB
:10171000730000002E256300FC0000204379636CF9
:10172000652054696D653A2025642C204932432098
:101730004572726F72733A2025642C20636F6E6657
:1017400069672073697A653A2025640D0A000000F4
:10175000000000200D0A456E746572696E672043B3
:101760004C49204D6F64652C207479706520276585
:101770007869742720746F2072657475726E2C20DE
:101780006F72202768656C70270D0A000400002026
:101790003C1F0108DC0300200D1B5B4B0000000018
:1017A0000C2C05D13AA0FEF703FEFEF70EFE65E015
:1017B0003A480068002837D00A2C01D00D2C33D1CC
:1017C0000025AFF6A050FEF7F3FD00203449334A60
:1017D00012688854084601900020029031480C237A
:1017E00010223149009001A80EF0C8FD05464DB108
:1017F00028680EF03EFE2A490844461C3046A96877
:10180000884702E029A0FEF7D3FD302124480EF0DE
:10181000F1FD0020214908602D48007808B9BDE895
:10182000FF81FEF7D2FD29E07F2C0ED11B48006816
:1018300020B3002119480068401E184A1060184A59
:10184000115424A0FEF7B4FD18E0144800683028B5
:1018500014D2202C12DB7E2C10DC1048006810B94A
:10186000202C00D10BE00D4801680068401C0B4A99
:1018700010600B4844542046FFF7D9FC00BF1649BE
:1018800008680CF0A0F900287FF42EAE00BFC6E770
:101890001B5B324A1B5B313B3148000004000020D7
:1018A000DC030020D50300083C1F01084552523AD2
:1018B00020556E6B6E6F776E20636F6D6D616E6419
:1018C0002C20747279202768656C70270000000056
:1018D0000000002008200800C0080020704770B5F4
:1018E000064634460CE02178FE480EF0B8FD054669
:1018F0002DB1A01BC1B2FB482A1AFB488154641CBD
:1019000020780028EFD170BDF849002308784528D9
:1019100001D0002070474888B0F56D7F06D1087966
:10192000BE2803D191F8B203EF2801D00020F1E7DF
:101930000A4602E010784340521C01F56D70824265
:10194000F8D30BB10020E5E70120E3E710B5FFF77E
:10195000DBFF10B90A200AF0F6F94FF46D72E34983
:10196000E3480EF02EFDE24890F8B003022803DDB4
:101970000020DF4981F8B003DD4890F8B00300EBA8
:10198000800202EBC002D848313000EB0211D022B5
:10199000D8480EF016FD10BD70B5002416E0D548ED
:1019A00090F8201004FB04F01938484300F6C410E6
:1019B0006043D049C97F484340F6C41190FBF1F021
:1019C00000B2CD4921F81400601CC4B2072CE6DB3C
:1019D00000244BE004EB8402C64B93F82130C3EBA8
:1019E00042000121002805DDC24A92F82120C2F1FF
:1019F0006402D1B2002802DABE4A92F82110BD4A30
:101A000092F8222000FB00F35A4301FB01F392FB02
:101A1000F3F2B84B93F82230C3F164031A44424303
:101A20000A2392FBF3F2B34B93F821300A2505FB0E
:101A3000032212B2B14B23F81420AD4AB2F8D220DF
:101A4000AB4BB3F8D030D21AAC4B33F914305A4305
:101A50004FF47A7392FBF3F2A54BB3F8D0301A44EB
:101A600012B2A64B23F81420601CC4B20C2CB1DBBC
:101A7000A049087802F0F4FF05F010FE70BD10B523
:101A8000FFF764FFFFF788FF10BD2DE9F047074619
:101A900088464FF000094520954908704FF46D7055
:101AA0004880BE200871EF2081F8B203002081F841
:101AB000B303B8F1000F0DD091F8B01301EB810220
:101AC00002EBC1028849313101EB0210D022894971
:101AD0000EF077FC864C03E0207880EA0909641C4C
:101AE00087488442F8D3824880F8B3930EF071F8A7
:101AF0004FF0030A1DE034200EF079FA7B480EF017
:101B0000A3F880480EF0A0F80646002507E0784AC2
:101B10005159764AA8180EF036F906462D1DB5F52E
:101B20006D7F01D2042EF2D0042E00D104E0AAF180
:101B3000010ABAF1000FDED100BF0EF056F8042EF4
:101B400002D1FFF7E1FE10B90A200AF0FCF8FFF716
:101B500096FF27B1012214210F2002F0B7F9BDE84A
:101B6000F087634989680143614A916070470020AA
:101B70005F49886070471CB563A103C9CDE90001C6
:101B80004FF46D715A480EF035FCD02159480EF0D3
:101B900031FC45205649087003204871FFF7E7FFE4
:101BA0000220FFF7DEFF0020514981F8B0034FF417
:101BB0001670A1F8F200FA20A1F8F4002A20A1F88A
:101BC000F0000020A1F8FA0000214948A0F8FC101C
:101BD000A0F8FE100020464981F8E30081F8E400F7
:101BE00081F8E500A1F8E600A1F8E800A1F8EA0014
:101BF00081F8ED0081F8EE004FF4FA70A1F8F800DA
:101C0000012081F8EC00202081F8F6004FF4C87024
:101C1000A1F806016E2081F80B012B2081F80C0140
:101C2000212081F80D01002081F80E0181F81701B3
:101C30004FF47770A1F81801002081F83A0181F87B
:101C40003B0181F83C0140F2DC50A1F81A0140F25E
:101C50004C40A1F81C0140F26C70A1F81E0100205C
:101C600081F82001012081F82101002081F8220162
:101C7000012081F8230140F27E40A1F8D00040F21B
:101C80003A70A1F8D2004FF47A70A1F8D40040F273
:101C90007E50A1F8D60040F2EA50A1F8D80040F2F8
:101CA000B450A1F8DA003220A1F8DC00C000A1F89D
:101CB000DE003220A1F8E000002081F82A0181F83E
:101CC0002B014FF4E130C1F830014FF41650C1F848
:101CD0003401002081F8380181F8390140F6AC5018
:101CE000888115E0AC2901081B05002000F80108D7
:101CF0000C040020C0070020FE0900200C0A002070
:101D0000C007002000FC01081E1E64646464646453
:101D10000020887381F8240140F6FF70A1F82601A5
:101D2000002081F8250193490870282048701E2062
:101D3000C8721720487528218E4881701E210173B2
:101D4000172181755521C1702D2141730021C17565
:101D5000322101710021817301760B214171002133
:101D6000C173417614218171082101742D2181767E
:101D70000E21C171142141745021C1765A21017282
:101D80000A218174642101772821417278218172AE
:101D90002D210175012181775A207649C87741208C
:101DA00081F82000002081F8230081F8240081F8C8
:101DB000250040F2DC50C884322081F82100002048
:101DC00081F82200488500216A4881850020694900
:101DD0000885042081F82E00282081F82F0081F842
:101DE0003000152081F831006348486363488863F8
:101DF0006348C86363480864012081F844001920DF
:101E000081F8450060A0FFF76AFD0020594981F87C
:101E1000700081F87100282081F87200012081F89B
:101E20007300002081F876004FF44870A1F8740028
:101E30000A2081F8B800C82081F8B9004FF49660F4
:101E4000A1F8BA0040F2D930A1F8BC00002419E092
:101E50004FF47F714748783020F834104FF4FA611E
:101E600000EBC400418040F2DC514248783000EB86
:101E7000C40081801DF804103E48783000EBC40097
:101E80008171641C082CE3DB01203A4981F8BE0013
:101E900081F8BF0081F8C000C820A1F8C20014205A
:101EA00081F8C4001E2081F8C500012081F8C60019
:101EB0006420A1F8C8004FF49670A1F8CA00282049
:101EC000A1F8CC005220334981F8B103002406E088
:101ED00000213048103000EB04100160641C0C2C11
:101EE000F6DB00240BE004EB840101EBC4022A4979
:101EF00001EB0210D0221F490EF063FA641C032C80
:101F0000F1DB1CBD10B50446FFF7FEFC00B12CB19F
:101F1000FFF731FE00210846FFF7B7FD10BD01466F
:101F20001E480068084008B1012070470020FCE707
:101F30001A4909680143194A11607047174909682D
:101F40008143164A11607047144800687047014683
:101F500010488068084008B1012070470020FCE765
:101F60000C49896881430B4A916070470948806831
:101F700070470000C00700209A99193FF6287C3F5F
:101F80003D0A773F0000A04041455452313233347E
:101F9000000000000C0400204C0500200800002078
:101FA0002DE9F041FE4991F845000EF082FB804694
:101FB000FC490EF005FB06460FF084FA0546FA4888
:101FC00000880EF076FB074629460EF0F9FA044623
:101FD0000FF03AFB00B2F5490880F34800880EF094
:101FE00068FB05462946F2480EF01CFB0446F14901
:101FF0000EF018FBF0490860E949B1F874000EF0E2
:1020000058FB05462946ED480EF00CFB0446EC490A
:102010000EF0D6FAEB490860E148016CEA480EF090
:10202000CFFA044621464FF07C500EF0FBFAE74908
:1020300008600820FFF773FF08B104F0D5F8BDE889
:10204000F081002801DD024600E042428A4201DAC6
:10205000002006E0002801DD401A02E0002800DA36
:10206000084470472DE9F04F95B005460C4695E8B9
:10207000070012AB07C320680FF024FA089020680D
:102080000FF00AFE074660680FF01CFA064660680B
:102090000FF002FE8046A0680FF014FA8246A06896
:1020A0000FF0FAFD8346504608990EF089FA079022
:1020B000584608990EF084FA0690514638460EF0BC
:1020C0007FFA0590594638460EF07AFA0490314668
:1020D00050460EF075FA099086F000495946484678
:1020E0000EF06EFA0A90CDF82C80414605980EF05D
:1020F00067FA814606990EF00BFA0C904146049857
:102100000EF05EFA814607990EF057FA0D9087F0AF
:102110000049314648460EF053FA0E904146079862
:102120000EF04EFA814604990EF047FA0F904146A0
:1021300006980EF045FA814605990EF0E9F91090DF
:10214000304608990EF03CFA11900F9914980EF051
:1021500037FA03900C9913980EF032FA029009990D
:1021600012980EF02DFA019002990EF0D1F98146E5
:1021700003990EF0CDF92860109914980EF020FA0A
:1021800003900D9913980EF01BFA02900A99129879
:102190000EF016FA019002990EF0BAF981460399F1
:1021A0000EF0B6F96860119914980EF009FA0390D0
:1021B0000E9913980EF004FA02900B9912980EF0F3
:1021C000FFF9019002990EF0A3F9814603990EF0F0
:1021D0009FF9A86015B0BDE8F08F2DE9F04387B0F6
:1021E0000446002520460EF064FA064678490EF0B3
:1021F000E7F905467748006880F00040049075488C
:10220000406880F0004005907348B0F900000EF07F
:1022100047FA80F00046634930460EF0D1F9069047
:102220006E49B1F900000EF03BFA01906B49B1F92B
:1022300002000EF035FA02906849B1F904000EF080
:102240002FFA039004A901A8FFF70CFF544890F857
:102250004400012828D162484078B8B9614908682B
:10226000C11700EB91615F4A1268A2EBA1115D4AB0
:102270001160104600680EF013FA074603990EF03D
:1022800047F906460EF01AFA56490860554806689E
:10229000F11706EB916188110EF002FA07460399D7
:1022A0000EF08BF9039008E03F4800880EF001FA29
:1022B000064603990EF081F903904B49039809688B
:1022C0000EF078F980462946404800680EF020F963
:1022D0008146494628460EF0A5F9074641460EF0CC
:1022E0006FF906464048016830460EF011F93E4944
:1022F000086001980FF0A8F90646294890F83010B8
:102300003046FFF79EFE394909680844374908609E
:1023100002980FF099F90646214890F8301030469F
:10232000FFF78FFE314949680844304948602E481C
:1023300000680FF089F90646194890F82F103046CA
:10234000FFF77FFE294989680844284988602848A2
:10235000006820442649086026480068401C25493A
:10236000086007B0BDE8F0832DE9F04F87B0044660
:10237000184908680FF0A6F80690164908680FF08B
:102380008BFC0590134948680FF09CF804901149A4
:1023900048680FF081FC0390A06803992CE00000CE
:1023A000C007002035FA8E3CCE0100202C00002012
:1023B0000AE81C4100401C467000002000006144F7
:1023C0004C3D0F4474000020DB0F49407800002092
:1023D000BD3786358C000020D00100201800002079
:1023E000C8090020980000209C00002090080020D0
:1023F00024000020280000200EF0E2F88346069911
:102400000EF0DEF88146606805990EF0D9F801906B
:1024100003990EF0D5F88346206804990EF0D0F8A1
:10242000594602900EF074F8824649460EF070F854
:102430000646A06805990EF0C3F8814660680699C3
:102440000EF0BEF8824649460EF0B4F80746314613
:1024500038460EF009FFFD4902900EF0B1F88346B0
:10246000FB490EF0DFF88246FA48016850460EF04C
:102470004FF88146F8490EF0D5F8804640460FF0F7
:10248000E3F805B2002D02DA05F5B47005B228466E
:1024900007B0BDE8F08F2DE9F05F04460D46A16856
:1024A00008460EF08DF88146616808460EF088F8FF
:1024B0008246216808460EF083F8834651460EF0A6
:1024C00027F8804649460EF023F807460FF0AAFC8D
:1024D0000646002130460EF01FF90ED03146206826
:1024E0000EF0A0F82860314660680EF09BF8686036
:1024F0003146A0680EF096F8A860BDE8F09F2DE97F
:10250000F04F87B0002509F032FB0646D34800683B
:10251000301A069006980EF0CCF80746D048C168ED
:1025200038460EF04DF80590CC48066000245CE07B
:10253000CC4931F914000EF0B3F8074605990EF0B6
:102540003FF802A941F82400C74890F82E0000285F
:102550003CDDC54991F82E000EF0ABF88346594694
:102560004FF07E500EF05EF88146C04931F91400FC
:102570000EF096F8824649460EF022F80746BA4910
:1025800091F82E000EF095F8834659464FF07E5094
:102590000EF048F882464FF07E510EF00EF881465C
:1025A000B34850F8241048460EF00AF880463946E1
:1025B0000DF0AEFFAE4941F8240051F824000EF0B2
:1025C0007DF800B2AB4921F8140005E0A74830F8C7
:1025D0001400A84921F81400A64830F91400A549B0
:1025E00031F9141000FB0155641C032CA0DB64209E
:1025F0006843A1490988494390FBF1F502A99F4826
:10260000FFF730FDA8B2482835DDA8B2852832DAB8
:1026100000242EE09A49B1F8F2000EF04AF8824602
:102620004FF07E510DF074FF814649464FF07E50C9
:102630000DF0F8FF07468F4931F914000EF030F81D
:1026400082468F49B1F8F2000EF033F883468B488A
:1026500050F8241058460DF0B3FF814651460DF056
:1026600057FF804639460DF0ABFF844941F82400FE
:10267000641C032CCEDB8348B0F900000EF010F888
:1026800007467E48816838460EF046F801D20120A0
:1026900000E000207C494873784A916850680EF049
:1026A000E3FD7A490860754A916890680DF088FFEB
:1026B0008246724A516850680DF082FF8346514647
:1026C0000DF026FF07460FF0ADFB80466B48006813
:1026D00080F00049414648460EF0C6FD6B4948600F
:1026E00008686B490DF06CFF07460EF0ADFF00B2B5
:1026F000684908806549486865490DF061FF0746EB
:102700000EF0A2FF00B2634948800820FFF707FCE3
:10271000E0B302A96048FFF7A5FC00242EE0584969
:10272000B1F8F4000DF0C5FF82464FF07E510DF078
:10273000EFFE814649464FF07E500DF073FF07468D
:10274000564931F914000DF0ABFF82464C49B1F8FF
:10275000F4000DF0AEFF83464F4850F82410584661
:102760000DF02EFF814651460DF0D2FE80463946CF
:102770000DF026FF484941F82400641C032CCEDBF1
:102780004548FFF7F1FD464908800DE0FFE702A943
:102790004448FFF767FC43490846FFF77CFE414881
:1027A000FFF7E2FD3E4908800698FFF716FD2E4828
:1027B00090F8760000287FD0304A916890680DF03C
:1027C000FFFE2E4A0190516850680DF0F9FE8346D5
:1027D0002A4A116810680DF0F3FE594600900DF07A
:1027E00097FE824601990DF093FE81460FF01AFB89
:1027F00007462249886839460DF014FF80462A4969
:1028000040460DF089FF03D800202849088064E085
:1028100040460EF099FC82462548016850460DF06E
:10282000CFFE81460EF010FF0746B7F5617F01DD50
:102830004FF4617738460DF033FF1E4900900DF0DC
:10284000F1FE83460FF028FA824636E00000E144AC
:10285000DB0F49406C00002000002041AC0000204C
:10286000140B00200C000020C007002012000020E4
:10287000B408002018000020CE0100209C08002091
:102880000C0400202C000020C80900208C0000202F
:102890004C3D0F4488000020A80800201E000020A6
:1028A000D0010020A00000208FC2753C68000020ED
:1028B00074000020EFB6B04410E0FE4991F87600B5
:1028C0000DF0F7FE514601900DF07AFE81460EF0B4
:1028D000BBFE00B2F849088000BF00BF07B0BDE8EA
:1028E000F08F10B503F078FC0220FFF718FB20B141
:1028F00003F0E6FAFFF703FE04E00020EF4908804A
:1029000048808880EE484079012812D1ED48B0F91E
:102910000410ED48B0F9000001EB4000032190FBEA
:10292000F1F000B2E949888008468088E6490880CD
:1029300003E0E4488088E5498880E2480088E3496C
:102940000880E0484088488010BD0020E0490860C9
:1029500048608860DF490860DF49086070472DE9FA
:10296000F04F89B009F003F90890DC48B0F9000095
:10297000002803DDD948B0F9000003E0D748B0F9DA
:1029800000004042D549B1F90210002903DDD349C6
:10299000B1F9021003E0D149B1F90210494288426D
:1029A0000DDDCE48B0F90000002803DDCB48B0F9BA
:1029B000000011E0C948B0F9000040420CE0C748EF
:1029C000B0F90200002803DDC448B0F9020003E0BA
:1029D000C248B0F90200404206B2C14908980968ED
:1029E000471A46F2A810874203D2002009B0BDE87A
:1029F000F08FBB4908980860BA480088002841DD7C
:102A0000B9490868C11700EB5171B74A1268A2EBC7
:102A1000E101B54A1160A74890F83100401EB34962
:102A20000968B1FBF0F011460968084411460860D6
:102A30000846D0F800B04FEAEB710BEB5171C810AB
:102A40000DF02EFEAA4900900DF0ECFDA949019071
:102A50000EF014FE4FF07E5102900DF0AEFDA6492F
:102A600003900DF0ADFD04900DF028FEA349086021
:102A70000020A3490860A34908609A480088401EC6
:102A8000984908808B4890F83100401E97490968A2
:102A9000B1FBF0F000900DF00CFE834694490DF070
:102AA000C1FD944901900EF0E9FD4FF07E51029076
:102AB0000DF083FD904903900DF082FD04900EF01F
:102AC000C3FD06908D4906980968401A069079481A
:102AD000416B4FF07E500DF06DFD029006980DF0A9
:102AE000DFFD019002990DF06BFD049086480068AF
:102AF0000DF0D6FD02906F48416B02980DF060FD1D
:102B0000039004990DF004FD83460EF09DFD7E496F
:102B10000860FA2E04DD4FF0FF307C49086018E0B1
:102B200030460DF0BDFD7A4901900DF046FD039051
:102B3000764800680DF0B4FD029003990DF040FD59
:102B4000734904900DF06EFD83460DF0B7FD6F499B
:102B500008606E48006800280FDD6C480068C828CF
:102B60000BDA6948006869490968401A69490860D0
:102B7000664800686449086039E063480068654950
:102B80000968401A604908606048006800282EDD26
:102B90005E490968C1F596700DF082FD83465E4975
:102BA0000DF040FD5D490860084601684FF07E5019
:102BB0000DF000FD0290544800680DF071FD019089
:102BC00002990DF0FDFC0490504800680DF068FD7E
:102BD00002905248016802980DF0F2FC03900499AB
:102BE0000DF096FC83460DF069FD474908603A48B0
:102BF00000680DF05EFD834649490DF0E1FC05904B
:102C0000344800680DF04CFD8346314988680DF06A
:102C100047FD594604900DF005FD82462E48006898
:102C20000DF047FD83463F48016850460DF0C8FC53
:102C3000594604900DF0C4FC81463148059900685E
:102C40000DF0BEFC4FF07C51039048460DF0B8FCEF
:102C5000029005990DF0B4FC834603990DF058FCE1
:102C600004902848016804980DF052FC254908603A
:102C70001048C16B4FF07E500DF09CFC0390224831
:102C800000680DF00DFD029003990DF099FC83464C
:102C90000848C16B1B4800680DF092FC594604902F
:102CA0000DF036FC1749086018480068002843DD1D
:102CB000164839E0C00700206800002012000020FC
:102CC0000C0400200C000020940000207C00002058
:102CD0009008002028000020240000208800002008
:102CE000B0000020CA010020C800002038000020E9
:102CF00080E6C547B1DC423ED048874AC400002088
:102D0000B8000020BC0000203C000020480000204B
:102D100000006144440000200000C8424000002040
:102D2000BD378635700000200068C82804DA704876
:102D300000687049086005E06F4800680DF0BEFC4F
:102D40006C49086049466D4800680DF0E1FB6B492D
:102D50000860FFF7FAFD38460DF0ABFC64490490BB
:102D60000968674A1268881A0DF09AFC6549029052
:102D70000DF026FC039004990DF054FC83460DF0F1
:102D80009DFC07905A4800685D49086040F2DC529B
:102D90005142079806F028FA07900A210798FFF792
:102DA00050F907905848816B4FF07E500DF002FCAF
:102DB000039007980DF074FC029003990DF000FC4D
:102DC00083465148816B4D4800680DF0F9FB594628
:102DD00004900DF09DFB49490860084600680EF01C
:102DE00033FC804605214046FFF72BF94749086030
:102DF000B6F5487F73DA46480078F8B9454909685E
:102E00003C4A1268881A4FF4FA72514206F0ECF903
:102E100004460A212046FFF714F904463A4800798F
:102E200000FB04FB4FEAEB710BEB5161C8114FF44F
:102E30009672514206F0D8F9054601E03648056819
:102E4000A5EB08043048807A00FB04FB4FEAEB71E5
:102E50000BEBD16148114FF49672514206F0C4F960
:102E60002E4908602848007D2D49096800FB0410A0
:102E70002B4908602B4A51422948006806F0B4F9F2
:102E8000274908600846006842F2040190FBF1F00F
:102E900022490968084421490860234801685046CE
:102EA0000DF036FB18490290887F0DF002FC01906E
:102EB00002990DF085FB83464FF088410DF0B2FB7F
:102EC00003900DF0FBFB96225142049006F08CF922
:102ED00012490968081A1149086003E0FFE7002059
:102EE0000E4908601048C0F800A001207EE50000EF
:102EF0003C0000204C000020BC000020B800002056
:102F0000C000002000247449C00700206400002095
:102F10005C000020540000205800002050000020D9
:102F20006000002020031900B400002070B50446A2
:102F30000D4600BFEA4908680AF05CFE0028F9D097
:102F4000E1B2E74A10680AF025FE204670BD88B05D
:102F50000026FEF7C3FC0020FEF7D4FFFEF7F6FCC8
:102F6000E049897B09B1012100E0002108460BF00E
:102F700014F8DD480068DD49884203D10120DC49AE
:102F8000086007E0D8480068DA49884202D1022088
:102F9000D749086008F042FEFEF7FEFC0AF039F956
:102FA0000546022D06D1D2480068022802D103202E
:102FB000CF490860CE480068032802D0012007F0FE
:102FC0006CFEC84890F80E01002814DDC54890F842
:102FD0000E01012809D0C34890F80E01092804D039
:102FE000C04890F80E01052805D1BE4890F80E01A2
:102FF0008DF8040005E000208DF80400B94981F83F
:103000000E01B84890F8250100281CDDB54890F85D
:103010002501012809D0B34890F82501092804D0DA
:10302000B04890F8250105280DD1AE4890F825014B
:10303000AC4991F80E11884205D0AA4890F82501B4
:103040008DF8050005E000208DF80500A54981F800
:10305000250101A807F086F80220FEF778FF08B1E5
:1030600002F0C1FD06F0CBF80E20FEF761FF02F082
:1030700017FC064616B9032008F065FE10209E498D
:1030800008600820091F086000241AE09A480838E0
:10309000006880F010009849083908600846006808
:1030A00080F008000860192008F08DFD012008F06C
:1030B00096FD192008F087FD002008F090FD601CA7
:1030C000C4B20A2CE2DB08208B49091F08601020DB
:1030D0000860FEF765FF00F060F98249D1F8300121
:1030E00003F045FA7F4840790E2803D07D484079A7
:1030F000082803D101208DF80E0002E000208DF891
:103100000E004FF48070FEF722FF18B90820FEF77A
:103110001EFF08B1012000E000208DF80A004020C9
:10312000FEF715FF8DF80B000120FEF710FF8DF85C
:1031300009000820FEF70BFF80F001008DF8080061
:103140006748807D8DF80C006C4890F8C000C0F393
:1031500080008DF80D006348B0F8DE00ADF8120075
:103160006048B0F8E000ADF814005E4890F8E20066
:103170008DF80F004FF47A70ADF816004FF48040D0
:10318000FEF7E5FE20B15748B0F8DA00ADF81600BA
:10319000BDF81200B0F5FA7F02DD0020ADF8160090
:1031A0005048B0F81A01ADF818005448B0F8BC0007
:1031B000ADF81A004B4890F80E01012802D00928FA
:1031C00008D103E001208DF8100007E007208DF8FA
:1031D000100003E000208DF8100000BF00BF02A81F
:1031E00008F0A3FB9DF81C003D49C875002406E0CB
:1031F00040F2DE50424921F81400601CC4B2122C87
:10320000F6DB404840490860082035494875FEF71C
:103210009EFED8B1334890F81701052815D2DFE893
:1032200000F00304080C100000BF374805F024FE2E
:103230000BE0354806F0D4F907E0334806F09CFA75
:1032400003E0314806F082FF00BF04E0254991F811
:103250002B0104F07BFA0120FEF779FE30B14FF428
:103260008060FEF774FE08B103F072F84020FEF7AC
:103270006EFE58B11B4A92F83811D2F834010AF0A8
:1032800090FB184991F839010AF0A9FB4FF400604E
:10329000FEF75DFE08B106F0A1FD08F068FC1B49D1
:1032A000086010484079052803D14FF4C8701849C8
:1032B00008804FF47A7017490880C82016490880A2
:1032C00001201649487301E001F0D8FBFCE70549ED
:1032D000B1F8D41008B200F0DBF900BFFEE700003F
:1032E000C00800200C040020A803002000127A006F
:1032F000CC000020001BB700140C0140C0070020C8
:10330000DA090020A74400081C010020F800002072
:10331000C8010020CC010020CA010020C8090020FB
:103320000146FE4800EBC100B0F9040012280ADA99
:10333000082908DAF94800EBC100B0F90400F84A9E
:1033400032F910007047F54800EBC100B0F90400F5
:10335000F8E70246F14800EBC20090F90600084089
:1033600010B14FF0FF3070470120FCE710B500248A
:1033700010E04FF48040FEF7EAFD18B1E948B0F8DC
:10338000DA0002E0E748B0F8D40000B2E64921F8DC
:103390001400641C0C2CECDB10BD70B5E1484079C6
:1033A000E24901EBC000407808B1012000E00020B4
:1033B000DF4988752020FEF7CAFD10B10120DC49E5
:1033C0008875D8484079162823D100241EE0D549B5
:1033D000103101EB0411086800210DF09DF900D1B6
:1033E00016E0D44800EB0411CE48103000EB041373
:1033F000D3E90050D3E90223C1E90050C1E9022317
:10340000CD480078401CCC490870641C0C2CDEDBD5
:1034100025E0C4484079C54911F83000C649087014
:10342000C0484079C14901EBC0004068B8B10024F0
:1034300011E0BC484079BD4901EBC000406800EB99
:103440000410BC4901EB041190E82C00C06881E82D
:103450002C00C860641CB84800788442E9DB4FF453
:103460008040FEF774FD70B3B348007801282ADD70
:10347000002424E0AF4901EB041188684FF07C512F
:103480000DF09EF8AB4901EB04118860A94901EBEE
:10349000041148684FF07C510DF092F8A54901EBFA
:1034A00004114860A34901EB0411C8684FF07C5136
:1034B0000DF086F89F4901EB0411C860641C9E481A
:1034C00000788442D6DB97484079082803D0954895
:1034D00040790E2803D101209849087402E00020A9
:1034E00096490874FFF742FF70BD70B50146491C4C
:1034F000002006E000238B4A103202EB001213601A
:10350000401C0C28F6DB894A02EBC1025268BAB1B2
:10351000002010E0854A02EBC102526802EB001362
:10352000804A103202EB001293E87000DB6882E8F8
:103530007000D360401C7D4A12F831208242E9DCE1
:1035400070BD10B57A48807D00B910BD75484079CE
:10355000082836D006DC012818D0042809D0052810
:1035600071D13BE00E2853D0142844D015286AD1DD
:103570004FE07348008981B2002008F0C4FA704817
:10358000408981B2012008F0BEFA6DE063487838C6
:1035900090F8BF0030B16A48408981B2002008F03D
:1035A000B2FA0DE06548407830B16548408981B293
:1035B000002008F0A8FA03E00021084608F0A3FA6A
:1035C00052E05F48C08881B2002008F09CFA5C4855
:1035D000008981B2012008F096FA45E05848008839
:1035E00081B2002008F08FFA5548408881B201204E
:1035F00008F089FA38E05248008981B2002008F0CA
:1036000082FA4F48408981B2012008F07CFA2BE011
:1036100000BF4B48C08881B2002008F074FA4848C7
:10362000008981B2012008F06EFA4548408981B2D4
:10363000022008F068FA4248808981B2032008F02D
:1036400062FA11E0FFE72020FEF781FC58B13C4808
:10365000008881B2002008F056FA3948408881B2CB
:10366000012008F050FA00BF00BF00BF6DE710B5A1
:10367000002408E0334830F8140081B2204608F0F6
:1036800035FA601CC4B22C4800788442F2DB10BDCD
:1036900070B50546002404E02A4820F81450601C48
:1036A000C4B2254800788442F6DBFFF7E0FF70BD26
:1036B00038B5002000902148407830B91948B0F85A
:1036C000D40000B21E49C8810CE0164BB3F8D220DA
:1036D000B3F8D0101C4BB3F9060005F085FD00B21D
:1036E0001749C8811648C089164908800D4890F8C6
:1036F000220100285FD00220FFF712FE054607488E
:103700007838B0F98A20B0F98810284605F06CFDA9
:1037100005B20448B0F81A01401B17E03808002031
:10372000DA0900200C040020F0080020282E0108EF
:10373000C008002008090020D0000020C80900208F
:10374000D2000020D80800201201002005B2FE4857
:10375000B0F90000A84209DAFC4890F82201FA49C1
:103760000988084400B2F84908800DE0F648B0F92D
:103770000000A84208DDF54890F82201F2490988C6
:10378000081A00B2F0490880F14890F98E00EE491D
:10379000B1F900104843642190FBF1F000B2ED490B
:1037A000888008468088E949B1F81A11084400B2B7
:1037B000E849888000BFE848807AB0B1E7480088CF
:1037C000BDF80010084400B2E249C880E348008810
:1037D000BDF80210084400B2DE490881DF48808845
:1037E0004881DE484088888115E0DD480088BDF8C2
:1037F0000010084400B2D749C880D9480088BDF8F5
:103800000210084400B2D3490881D5488088488115
:10381000D3484088888103241CE0CD48783000EBF1
:10382000C40090F90600CB4931F9141048436421D3
:1038300090FBF1F000B2C74921F814002046FFF7D1
:103840006FFDC44931F81410084400B2C14921F891
:103850001400641C072CE0DB38BD2DE9FC5FC14877
:103860000078032826DDBD4BB3F90430002B03DDBF
:10387000BA4BB3F9043003E0B84BB3F904305B4200
:1038800003F16402B54BB3F90430002B03DDB34BF5
:10389000B3F9043003E0B14BB3F904305B426FF08D
:1038A0006306F11AAE4BB3F9040005F09DFC00B2BB
:1038B000AB498880AB480078012856DD002450E0F1
:1038C000A34991F9BE104942A54AB2F9042001FB6F
:1038D00002F00CF0E5FE8146A34800EB0410C1683D
:1038E00048460CF06DFE07469D49B1F900000CF00A
:1038F000D7FE82469C4800EB0410416850460CF00D
:103900005FFE81469649B1F902000CF0C9FE0090B5
:10391000954800EB0410816800980CF051FE824637
:103920008E49B1F906000CF0BBFE00908E4800EB0A
:103930000410016800980CF043FE834651460CF0D9
:10394000E7FD494601900CF0E3FD804639460CF056
:10395000DFFD06460CF0B2FE00B2844921F81400E7
:10396000641C804800788442AAD3784840790828AB
:103970007BD006DC01283ED0042809D0052839D1A7
:103980004AE00E286ED014286BD01528F7D128E114
:1039900002210420FFF7DDFC7149B1F9041000FB9E
:1039A00001F301210420FFF7D4FC6D49B1F90210A5
:1039B00000FB01330420FFF7B3FC184400B2654953
:1039C000088102210520FFF7C4FC6549B1F9041004
:1039D00000FB01F301210520FFF7BBFC6049B1F9B1
:1039E000021000FB01330520FFF79AFC184400B2D7
:1039F0005849488123E10520FFF792FC0346012145
:103A00000520FFF7A6FC5649B1F9041000FB013070
:103A100000B25049488112E14D4890F97E00544966
:103A2000B1F902104843322190FBF1F30020FFF777
:103A300077FC184400B247490880454890F9860051
:103A40004B49B1F900104843322190FBF1F30120BA
:103A5000FFF766FC184400B23E494880EFE004E0FE
:103A600000E09FE0FFF724FEE9E03B48407830B9F2
:103A70003648B0F8D40000B23649C8810CE0334B68
:103A8000B3F8D220B3F8D010344BB3F9060005F0E8
:103A9000ABFB00B22F49C8812E48C089334908804A
:103AA0002D48807A50B301210320FFF752FC2B49A7
:103AB000B1F9021000FB01F302210320FFF749FCDA
:103AC0002649B1F9001000FB013000B22149C8803D
:103AD00001210420FFF73DFC2049B1F9021000FB51
:103AE00001F302210420FFF734FC1C49B1F9001056
:103AF00000FB013000B21749088140E0012103209A
:103B0000FFF727FC1649B1F9021000FB01F302216F
:103B10000320FFF71EFC1249B1F9001000FB013031
:103B200000B20C49C88001210420FFF712FC0C49A7
:103B3000B1F9021000FB01F302210420FFF709FC98
:103B40000749B1F9001015E0E20000200C04002044
:103B5000C0070020D2000020C80900201201002068
:103B60002E010020D000002008090020D8080020E5
:103B70008800002000FB013000B2C7490881032003
:103B8000FFF7CEFBC449C988084400B2C249C880C7
:103B90000420FFF7C5FBC0490989084400B2BE49AB
:103BA00008814CE0042419E001212046FFF7D1FBF5
:103BB000C4F10501B94A32F81110484300B2B649C0
:103BC00021F814002046FFF7ABFBB34931F814107D
:103BD000084400B2B04921F81400641C062CE3D359
:103BE0002DE0032424E002212046FFF7B2FBAB497D
:103BF000B1F9041000FB01F301212046FFF7A9FBF6
:103C0000C4F106014908A54A32F9111001FB003040
:103C100000B2A14921F814002046FFF781FB9E491C
:103C200031F81410084400B29B4921F81400641CB8
:103C3000072CD8D39A48C0889A49088000BF00BF93
:103C40002020FEF784F9E8B30020FFF769FB9249D2
:103C500008800120FFF764FB8F4948809248007A72
:103C600080B3924890F8C00000F0020058B38F482B
:103C700090F97E0040428E49B1F90210484332214A
:103C800090FBF1F1894890F98600894AB2F9002049
:103C90005043322290FBF2F0081A7F490988081A33
:103CA00000B27D490880814890F97E0040428049F9
:103CB000B1F902104843322190FBF1F17B4890F9B1
:103CC000860001E02FE00EE0794AB2F9002050436F
:103CD000322290FBF2F008446F494988084400B250
:103CE0006D4948801FE0714890F97E007049B1F934
:103CF00002104843322190FBF1F0674909880844DB
:103D000000B265490880694890F986006849B1F9B0
:103D100000104843322190FBF1F05F494988084484
:103D200000B25D494880002413E0604B783303EB18
:103D3000C403B3F902205D4B783333F93410564B8A
:103D400033F9140005F050FA00B2534921F8140079
:103D5000641C082CE9D3554890F8C00000F004001A
:103D600088B15448C07D061F002409E0221D524B33
:103D700033F8122091B2A219D0B207F0C4FE641C2D
:103D8000042CF3D300BF4748B0F90050012408E0E9
:103D9000444830F91400A84202DD424830F914507A
:103DA000641C464800788442F2D300246EE0444804
:103DB000B0F8D200A8420BDA3A4830F81400404973
:103DC000B1F8D210691A401A00B2364921F814002D
:103DD0004FF48040FEF7BBF828B33748B0F906002F
:103DE0003749B1F81A1188420EDD354BB3F8D220AD
:103DF000B3F8D8102B4B33F9140005F0F5F900B2E5
:103E0000284921F8140037E02D4BB3F8D620B3F839
:103E1000D410244B33F9140005F0E6F900B221491F
:103E200021F8140028E0264BB3F8D220B3F8D010C4
:103E30001C4B33F9140005F0D7F900B2194921F8E9
:103E400014001D48B0F906001D49B1F81C11884244
:103E500012DA1020FEF77BF838B91948B0F8D00014
:103E600000B2104921F8140006E01548B0F8D4005B
:103E700000B20C4921F814001248407828B91248C1
:103E800030F81400074921F81400641C0B4800782E
:103E900084428CD3BDE8FC9FD20000202E0100207C
:103EA00012010020D8080020240A0020C0070020AA
:103EB00088000020C0080020DA090020D00000207F
:103EC0000C040020C8090020F00800202DE9F04172
:103ED00004460D4616464FF000081BE0002710E090
:103EE000FE48006880F00800FC490860012007F0E7
:103EF00076FE284607F067FE002007F070FE781C6B
:103F0000C7B2A742ECDB3C2007F05DFE08F10100E0
:103F100000F0FF08B045E1DBBDE8F0812DE9F04F8E
:103F200085B0EF48B0F90600EE49C98C884202DA44
:103F30004FF064081DE0EA48B0F90600B0F5FA6FEA
:103F400012DAE748B0F90600E649C98C401AE5499B
:103F500091F825104843E349C98CC1F5FA6190FBFB
:103F6000F1F0C0F1640804E0DE4890F82500C0F1EB
:103F700064080024C7E0DA4830F91400DA49B1F8DF
:103F80001A11401A002807DDD54830F91400D64927
:103F9000B1F81A11401A06E0D348B0F81A01D04916
:103FA00031F91410401AB0F5FA7F18DACC4830F91C
:103FB0001400CD49B1F81A11401A002807DDC8488D
:103FC00030F91400C849B1F81A11401A09E0C6487E
:103FD000B0F81A01C24931F91410401A01E04FF447
:103FE000FA700546022C3BD0BE4890F8700050B1E4
:103FF000BC4890F87000A84204DABA4890F8700003
:104000002D1A00E00025642095FBF0F6B749701CDE
:1040100031F9100031F91610401A06EBC60101EB18
:104020000611A5EB81014843642190FBF1F0AF49F3
:1040300031F81610084400B2AD4921F81400A9481F
:1040400090F8230068434FF4FA7190FBF1F0C0F14F
:104050006407B8B200FB08F0642190FBF1F726E09A
:10406000A04890F8710050B19E4890F87100A842A5
:1040700004DA9C4890F871002D1A00E000259A4857
:1040800090F9EC004042684300B2994921F81400CD
:10409000944890F82400002D01DD294600E0694293
:1040A00048434FF4FA7190FBF1F0C0F164078D487A
:1040B000401C005D7843642190FBF1F08D49085568
:1040C00088480B30005D7843642190FBF1F08A4909
:1040D000085584481530005D7843642190FBF1F069
:1040E000864908557E4830F914007F49B1F81A1105
:1040F000884207DA7E4830F81400404200B27C491A
:1041000021F81400641C032CFFF635AF764AB2F890
:104110001C11734AB2F906004FF4FA6205F064F814
:1041200005467148B0F81C01281A4FF47A714843CB
:104130006D49B1F81C11C1F5FA61B0FBF1F56420CD
:1041400095FBF0F66E49701C31F9100031F916102C
:10415000401A06EBC60101EB0611A5EB81014843AD
:10416000642190FBF1F0664931F81610084400B262
:104170005F49C8806348407A002855D06249B1F948
:104180000010624AB2F90020881A0CF089FA8246BF
:104190005F490CF015FA81465E490CF043FA049031
:1041A00004980DF08FF9039004980DF075FD0290BE
:1041B0004F49B1F900000CF073FA009002990CF02D
:1041C000FFF982464A49B1F902000CF069FA009001
:1041D00003990CF0F5F9834651460CF099F98146A4
:1041E0000CF06CFA00B201904149B1F902000CF0F8
:1041F00057FA009002990CF0E3F982463C49B1F974
:1042000000000CF04DFA009003990CF0D9F98346A8
:1042100051460CF0CFF981460CF050FA00B2344907
:1042200008800198488000BF0220FDF790FE00281A
:1042300053D039480068394909880844364908602C
:1042400037480078401CC0B235490870062190FB01
:10425000F1F201FB120000286AD132490868C11747
:1042600000EB51712F4A1268A2EBE1012D4A116057
:10427000002006F01BF82B4909680844294908600A
:10428000D1F800904FEAE97109EB5171C1F3CF0009
:1042900001F075FC24490880134890F80E010028AD
:1042A00067DD22490868C11700EB51711F4A126887
:1042B000A2EBE1011D4A1160022005F0F7FF1B4946
:1042C0000968084419490860D1F800904FEAE9717B
:1042D00009EB5171C1F3CF002BE05EE00C0C014003
:1042E000DA090020C00700200C040020FE0900208D
:1042F0001201002024010020270100202A010020B3
:104300000C0A0020C8090020D0010020FE00002077
:10431000DB0F49400000344398010020FC000020DE
:10432000810100208401002000010020880100207C
:104330001FE001F042FCFE49086008460068FD49A4
:10434000096848434FF47A7190FBF1F0C117FA4ABB
:10435000D2E90032C0185141F74A03C2F74A00239C
:10436000F54903C90BF0D2FFF54908600020F14977
:104370000860F4480088F4490988884206DCF3485C
:1043800090F80D01EF490988884203DD0020F049CB
:10439000087002E00420EE490870ED48007804F04F
:1043A00049FEEC480088002803DD0220FDF7B7FD38
:1043B00018B9E9480088002806DDE848006880F060
:1043C0000800E64908600FE0E548807818B1082049
:1043D000E249091D0860E248407818B10820DF4929
:1043E0000831086005F0E3FC8020FDF7B0FD70B1F6
:1043F000DC480068DC490968401A08D4D9480068DC
:104400004CF250310844D849086007F0EBFFD5481A
:104410000068D6490968401A15D4D148407B78B95C
:104420000020CF498870CD48006880F00800CB4953
:104430000860CC480068CE490844CC49086002E0D6
:104440000120C749887002F0F4FFCA48007830B9EB
:104450004FF40060FDF77BFD08B105F0E5FC20207E
:10446000FDF75DFDA8B1BF480068C3490968401A5F
:104470000FD4C248007805280BDBBA480068C04951
:104480000844BD490860B548006880F01000B34991
:104490000860BC48806818B1BA488168BA48884743
:1044A00005B0BDE8F08F10B50446B849085D07F0C7
:1044B00034FB10BD70B50820FDF749FD68B100243C
:1044C00008E0E0B2B2490968884700B2B14921F872
:1044D0001400641C082CF4DB47E000243EE0E0B24A
:1044E000AB4909688847054640F2EE20854203DB68
:1044F00040F6CA00854202DD9448B0F81A5129B24C
:10450000A54A1068C21700EB92729210A0EB8202CB
:10451000A24B03EBC40323F8121000209D4921F89D
:10452000140000260DE09D4800EBC40030F8160092
:10453000984931F81410084400B2964921F8140043
:10454000761C042EEFDB934931F91400C11700EB00
:10455000917189108F4A22F81410641C082CBEDB5C
:104560008D480068401C8C49086070BD10B57A48C1
:10457000008870B97A48807858B17948407880B915
:104580000120774948708648B0F9000085490880C5
:1045900007E07348407820B90122FF210220FFF78D
:1045A00095FC10BD6E48407810B100206C494870F1
:1045B000704770472DE9F04F85B000270020039029
:1045C000804602907848B0F90200002803DD764862
:1045D000B0F9020003E07448B0F9020040427249A9
:1045E000B1F90010002903DD6F49B1F9001003E0B3
:1045F0006D49B1F90010494288420DDD6A48B0F9B1
:104600000200002803DD6848B0F9020011E06648A6
:10461000B0F9020040420CE06348B0F90000002805
:1046200003DD6148B0F9000003E05F48B0F9000025
:104630004042054600245CE14948C07810B948482A
:104640000079E8B3022C47DA584B33F91430DFF81D
:1046500058C13CF914C04FF0020E0EFB0C303B4B1E
:10466000B3F8F820B3F8F830594204F0BDFD5049D2
:1046700031F91410411A4F4830F914000E184D4802
:104680002A38007A7043642190FBF1F749482A38B0
:10469000007F00EB800247482A38007F404200EB51
:1046A0008001384604F0A0FD0746434951F8241024
:1046B000881942F21072514204F096FD3E4900E022
:1046C0000AE041F82400084650F8240039492A3904
:1046D000897C4843001303902148C07820B12048CA
:1046E000007908B9022C6DD12F4830F9140000EB85
:1046F000800001012F482938005D91FBF0FA2F4816
:1047000030F91400AAEB000A274830F914802C492C
:1047100051F8241001EB0A004FF47A52514204F090
:1047200063FD274941F82400244830F914004AE089
:10473000040100209801002090010020407E050027
:104740000801002000010020700100200C0400205E
:1047500080010020C8010020CC0100200C0C014089
:10476000C8090020F40000209C0100207C010020EA
:1047700020A1070000000020A00100204C01002023
:10478000F0490200140B00200C0100201B05002042
:104790001C010020DA090020A4010020880A002062
:1047A000D0010020FE00002012010020580100204E
:1047B00088000020EA070020740100207C0000200F
:1047C0007C0A00202CE0002803DDFE4830F91400AC
:1047D00003E0FC4830F914004042B0F5207F10DCC3
:1047E000022C12D1F84830F91400002803DDF648F5
:1047F00030F9140003E0F44830F914004042642812
:1048000003DD0020F14941F82400F04850F824006D
:104810007D2190FBF1F0EE49095D48438011029043
:10482000EC480079B8B1022C15DAC5F5FA70784376
:1048300008FB05004FF4FA7190FBF1FBC5F5FA7126
:1048400003984143029800FB05104FF4FA7190FB66
:10485000F1F004900BE0DF48C07828B1022C03DAB5
:10486000BB460398049002E0C34602980490D549E1
:1048700031F91410D84A125D51430A2291FBF2F02B
:10488000C11700EB5171ABEBE10BCE4830F91400CE
:10489000D24931F91410A0EB0109CA4830F81400CC
:1048A000CE4921F81400CE4850F82400CD4951F8E3
:1048B0002410084400EB09010091C94850F8240075
:1048C000C84941F82400C64840F82490C6490A5D0A
:1048D000009902FB01F0C11700EBD1614911019170
:1048E000049858440199401A00B2C04921F81400B4
:1048F000641C032CFFF6A0AE05B0BDE8F08F2DE9D7
:10490000FF5F00270024A6E0022C0BD1B0480B3833
:1049100090F824001B30AC49B1F904104843401111
:1049200003903FE0A84931F91410B14A32F914203C
:1049300088184FF4FA72514204F056FCAD4931F92F
:104940001410411AA2481F3030F914000844009096
:104950000BF0A6FEA84901900BF064FE02900BF04C
:10496000ADFE07469B48C078B0B999480B3890F81F
:1049700023001B30944931F914104843001103906F
:104980009448007970B192480B38807C7843039941
:1049900001EB2020039005E08D480B38007A784326
:1049A00000110390874830F914100398451A88487D
:1049B0000A38005D68434FEAE019844850F8241033
:1049C0008E4800886843C2128148005D02FB0010D7
:1049D0007E4941F8240051F824004FF4001251425E
:1049E00004F002FC794941F82400084650F82400FC
:1049F0004FEA603A824850F824002E1A804840F866
:104A000024507E48008800114FF6FF7191FBF0F0B2
:104A1000704386117B4850F824007B4951F82410DC
:104A2000084400EB0608774850F82400764941F81E
:104A30002400744840F8246065480A30005D00FB9B
:104A400008F04FEA202B09EB0A00584400B26749EE
:104A500021F81400641C032CFFF656AFBDE8FF9F3D
:104A600010B1012804D000BF6849694A116003E011
:104A70006849674A116000BF00BF70472DE9FF5FBA
:104A8000002500260027002003900820FDF75FFA8C
:104A9000D8B1614890F81701052815D2DFE800F079
:104AA0000304080C100000BF04F013FA03900BE09D
:104AB00004F0BAFD039007E004F06DFE039003E0FC
:104AC00005F038FB039000BF00BF5448006854490C
:104AD0000968401A02D50398002871D0002003907D
:104AE0004E48006844F6206108444D490860FFF7CD
:104AF000E1FC4FF48040FDF72AFA20B149480078E4
:104B000008B9FFF74FFD00F0F5FF474908804FF463
:104B10000070FDF71CFA002853D02D480B3890F890
:104B2000B80000EB80004149B1F90010884230DA4A
:104B30002848407868B3002407E03748B0F81A01E5
:104B400000B23B4921F81400641C032CF5DB20481B
:104B50000B38B0F8BA0000B23549C8801C480B3891
:104B600090F8B8001A490B3991F8B910084400EBD5
:104B700080002E49B1F90010884204DAFFF712FDD7
:104B80000020144908702B480088401C00B22949B5
:104B900008800F480B3890F8B80000EB80002349DC
:104BA000B1F90010884207DA0A48407820B9FFF7C7
:104BB000F9FC0020074908701C480088401C3BE0B5
:104BC00088E33CE07C000020120100207C0A0020E9
:104BD000CB070020C809002024010020A8010020E4
:104BE000C80A0020D40A00202A0100202E0100203B
:104BF000580100208800002000002041FC00002017
:104C0000F80A0020E00A0020EC0A0020B545000860
:104C100020010020FF4800080C040020F4000020C0
:104C2000B0010020240A00201A0100200E010020FB
:104C3000DA0900201001002000B2FE49088000249B
:104C400015E0AD10FC4830F91400FC49B1F81C1116
:104C5000884201DD45F08005F74830F91400F74936
:104C6000B1F81E11884201DA45F04005641C042C9D
:104C7000E7DBF3480078854209D1F2480078FA284A
:104C800008DAF0480078401CEE49087002E0002085
:104C9000EC490870EA4805704FF48040FDF757F979
:104CA000C8B1E648B0F81A01E449B1F8DC10401A7E
:104CB000E149B1F9061088420DDAE048B0F81A016E
:104CC000DE49B1F8DC100844DB49B1F9061088422E
:104CD00001DD01270DE04FF48040FDF738F940B9C0
:104CE000D548B0F90600D549B1F81C11884200DA60
:104CF0000127A7B10020D449086048608860D349E3
:104D000008604860D248B0F84600002807DDD14866
:104D1000007820B1D048007808B1FFF727FCCC48D4
:104D2000B0F8460000280FDDCA48007860B9CA48CC
:104D3000407848B1C14890F8210110B1FFF732FC2A
:104D400002E00FB1FFF72EFCBE48007814281CD1FA
:104D5000C1484078D0B1BE48B0F8460028B9B8483C
:104D600000785F2801D1FFF71DFCB44890F82001BE
:104D700000280AD0B648B0F846000028E7D1B0486D
:104D800000787D28E3D1FFF70DFCC1E00024AC489A
:104D90000078572819D14FF47A70B04908804FF441
:104DA0008070FDF7D4F808B103F056F90420FDF740
:104DB000B6F810B10A20AA4908800820FDF7AFF81C
:104DC00008BB0020A749088021E00420FDF7BFF8B8
:104DD000C8B19B4800785A2819D1A348007830B14F
:104DE0000020A14908700120A04908700FE0A048E8
:104DF000007880F001009E4908700846007818B1DC
:104E000002209C49087002E003209A4908708C48EF
:104E100000785D2801D101240AE0894800785B28E8
:104E200001D1022404E0864800785E2800D10324E2
:104E300064B1601E814981F8B00300210846FCF787
:104E400024FEE2B228210220FFF740F88048B0F8A3
:104E5000460030B97A4800786F2802D1FFF786FB08
:104E60001EE0764890F8200150B17948B0F846002D
:104E700030B9734800787E2802D1FFF777FB0FE046
:104E80006F480078972804D14FF4C8707A49088099
:104E900006E06B480078A72802D101206E4988738C
:104EA000002467480078BB2807D16948808D801CA2
:104EB00001B267488185012422E061480078B72863
:104EC00007D16348808D801E01B26148818501242D
:104ED00016E05B480078BE2807D15D48408D801CF5
:104EE00000B25B49488501240AE055480078BD2896
:104EF00006D15748408D801E00B25549488501248F
:104F000034B101210846FCF7C0FD00204D4908706E
:104F10000420FDF71CF828B35548007898B14E4896
:104F2000407880B14448B0F906004449B1F81C11FA
:104F3000884208DD4748007828B932204F49088068
:104F400000204B4908704348407C60B14C480078D1
:104F500028B94548007810B9322048490880012016
:104F6000474908700BE04048007840B13A48407823
:104F700028B900203C49087001203C4908700024F1
:104F800038E0201D2C4931F9100040F214518842BC
:104F900001DA012000E0002004EB44018840211DDB
:104FA000254A32F9111040F21452914209DD211DB7
:104FB000214A32F9111040F2A462914201DA012132
:104FC00000E0002104EB4402521C91400843211DE3
:104FD000194A32F9111040F2A462914201DD012117
:104FE00000E0002104EB4402921C9140084330434E
:104FF00086B2641C042CC4DB00240CE01448463048
:1050000030F814003040002801DD012000E00020CD
:1050100010490855641C152CF0DB0E48407888BBFD
:105020000B4890F8B80000EB80000249B1F900107D
:10503000884228E00E010020DA0900200C0400203C
:10504000AF010020AE0100207C0A00207401002086
:10505000C0070020240A0020C8090020CC0100203D
:10506000CA010020D0010020690100206A0100204F
:1050700068010020F0000020C80100206C01002021
:105080006B01002000E00EDA0220FCF748FF50B16F
:10509000FE48C07850B90020FD49086048600120F2
:1050A000FA49C87002E00020F849C870F9488078D1
:1050B00068B10020F549C8700846007950B9002051
:1050C000F349086048600120F049087102E00020BF
:1050D000EE490871EF48007810B90120EB490870DB
:1050E000EA48C07810B9E948007918B11020EA49B7
:1050F000086003E01020E849091F08600420FCF75D
:105100000EFF38B3E348C07898B1E048807998B989
:105110000120DE498871E1480068E1490860E14802
:10512000C088E14908800020E0490860E049086043
:1051300002E00020D54988714FF40050FCF707FFCA
:1051400040B1D448007930B1D048C07B10B90120BB
:10515000CE49C87302E00020CC49C8730220FCF796
:10516000DEFE18B90820FCF7DAFE30B3C9484079F2
:1051700058B1C648407958B90120C4494871CD4852
:10518000B0F90000CC49088002E00020BF49487116
:10519000C048807930B1BD48407A30B90120BB4960
:1051A000487202E00020B9494872BA48C07920B17B
:1051B000C048B0F90000C14908802020FCF7AFFECC
:1051C000E0B3B248C07AD0B3BD480078052865DBAB
:1051D000B048807A88B1AD48C07978BB0120AB492E
:1051E000C87100200872B7490870B749081F03F05A
:1051F00076FD0220B549087056E00020A349C87129
:10520000A448C07AE8B3A748B0F90000002803DD3D
:10521000A448B0F9000003E0A248B0F90000404201
:10522000AB49B1F8CC1088422CDA9E48B0F90200A4
:10523000002805DD9B48B0F9020005E02DE02DE0D7
:105240009848B0F902004042A149B1F8CC10884218
:1052500018DA8E48007A00BB01208C4908720020C1
:10526000984908709B4800689B49086099484068C5
:105270004860091D081F03F032FD012093490870A2
:1052800012E0FFE70020814908728E48007820B9BB
:1052900001208C49087003F07AFC05E000207B496E
:1052A000C8710872894908707A48007B18B10120DA
:1052B0007649887202E000207449887287484079F4
:1052C000082803D0854840790E2859D100206F491D
:1052D000487255E082480068052850D2DFE800F0A7
:1052E00003111F2D3B007E480068401C7C4908606C
:1052F0000820FCF714FE18B100F088FF00B13EE072
:1053000000BF77480068401C754908600420FCF71E
:1053100006FE18B100F000FE00B130E000BF70489A
:105320000068401C6E4908600420FCF7F8FD18B1C5
:10533000FDF715FB00B122E000BF69480068401C82
:10534000674908604FF48070FCF701FE10B103F06C
:105350009AFB14E000BF0020614908601020FCF7B0
:10536000DEFD08B100F0FFFF4FF40050FCF7EFFD49
:1053700020B14648C07B08B1FFF71BF900BF00BF52
:1053800006F0F5FB574908605448808928B1084663
:10539000006855490968401A74D4504880895149B9
:1053A0000968084450490860FDF79BFA06F0DFFBE6
:1053B0004C490860084600884C490988401A4C4905
:1053C00008804848006849490860FEF7A7FD0820A2
:1053D000FCF7A5FDB8B33348B0F90400002803DD9D
:1053E0003048B0F9040003E02E48B0F90400404210
:1053F000462829DA2548407930B32E4909882E4AB3
:105400001288891A08B210F1B40F02DC00F5B471E9
:1054100008B2B42802DBA0F5B47108B22F4991F9A3
:10542000EC104942414308B21849497B59B1284917
:10543000497A41431E2291FBF2F11A4A9288511A8D
:1054400009B2184A918004E01A48B0F900001A49DC
:1054500008800420FCF763FDA8B10C48807990B166
:105460000A48007C80B91A4890F8730068B10D486A
:10547000B0F906000C49B1F90010401A002840DDCF
:10548000084837E0E1E1DFE0D1E081E0C809002031
:1054900074010020240A0020140C01404C0000205C
:1054A0005400002012010020B40100206000002000
:1054B00050000020D0010020D2010020FE0000207A
:1054C0004C010020BC0100204001002066010020AA
:1054D000C007002034010020440100200C040020FB
:1054E000C0010020F4000020B8010020F8000020D6
:1054F000FC000020B0F90600D549B1F90010401AAF
:1055000006E0D448B0F90600D149B1F90010081AF4
:10551000D14991F8721088421CDD0020CF49086003
:105520000120CF490870CB48B0F90610B0F9060049
:10553000C74AB2F90020904204DDC74890F87200D3
:10554000404202E0C44890F87200084400B2C149E9
:10555000C88079E0C248007830B1C2480068C249CA
:1055600008600020BE490870C04BB3F8D220B3F8E1
:10557000D010B74BB3F90030DFF8F4C2DCF800C04C
:1055800003EB0C0003F030FE00B2B249C8805BE0D0
:10559000B048B0F90600AE49B1F90010401A002831
:1055A00007DDAC48B0F90600A949B1F90010401A6E
:1055B00006E0A848B0F90600A549B1F90010081A9C
:1055C000A54991F87210884211DDA249B1F906107F
:1055D0009F4AB2F90020881A00EBD0714910A54A01
:1055E00011600120A44908709D4908700BE09C4897
:1055F000007840B19B4800689B49086000209E49A4
:10560000087097490870994BB3F8D220B3F8D010BE
:105610008F4BB3F90030DFF858C2DCF800C003EB61
:105620000C0003F0E1FD00B28A49C8800CE0894813
:10563000B0F902008D4991F923118D4A126802FBDD
:10564000010000B283494880834890F8760068B131
:105650008A48C07810B98948007938B17D48C08837
:1056600087490988084400B27A49C8802020FCF79D
:1056700056FCE8B38148C07910B98048007AB8B3C5
:105680007E48007BA0B37F48B0F900000BF008F81B
:1056900081467D490AF094FF80460CF0FDFA0290A5
:1056A0007848B0F900000AF0FBFF814676490AF01D
:1056B00087FF80460BF006FF0190674890F8C50011
:1056C000F0B37249B1F90210714AB2F90220881A96
:1056D00002F03EF98046604890F8C52090F8C50079
:1056E0004142404603F080FD69494988084400E092
:1056F000A2E001B2664841806449B1F90010024657
:10570000B2F90020881A02F023F98046524890F836
:10571000C52090F8C5004142404603F065FD5C4954
:105720000988084400B25A490880B1F900000AF01B
:10573000B7FF009002990AF043FF8246544900E007
:1057400037E0B1F902000AF0ABFF009001990AF0CE
:1057500037FF834651460AF02DFF81464D490AF036
:1057600061FF80460AF0AAFF00B24B490880484911
:10577000B1F900000AF094FF009001990AF020FFAF
:1057800082464349B1F902000AF08AFF009002996B
:105790000AF016FF834651460AF0BAFE81463D499B
:1057A0000AF040FF80460AF089FF00B23A4948807B
:1057B00041E03649B1F900000AF072FF0090029909
:1057C0000AF0FEFE82463149B1F902000AF068FF94
:1057D000009001990AF0F4FE834651460AF0EAFE71
:1057E00081462C490AF01EFF80460AF067FF01B28D
:1057F000294801802549B1F900000AF051FF0090C5
:1058000001990AF0DDFE82462049B1F902000AF052
:1058100047FF009002990AF0D3FE834651460AF0F2
:1058200077FE81461B490AF0FDFE80460AF046FFDE
:1058300000B21949488000BF184800688047FEF749
:105840000CF8FDF77EFEFDF712FFBDE8FF9F00009C
:10585000B401002012010020C007002060000020D9
:10586000C40100204C000020540000200C04002043
:1058700050000020580000205C000020C8090020D3
:1058800068000020D001002035FA8E3C5E01002027
:10589000620100200000204158010020200100206A
:1058A0002DE9F84F00260027FD48B0F8F020FD4B09
:1058B000FD49FE4806F0CBFE08B101271EE0FC487A
:1058C0000068032809D1F648B0F8F020F649F748F7
:1058D00008F067FA08B1012610E0F148B0F8F010BE
:1058E000F14807F02AF948B9ED48B0F8F010EE4851
:1058F00005F000FE10B90020BDE8F88F00BFE848B1
:1059000090F8ED00072860D2DFE800F008091F4496
:10591000523204000220FCF711FB56E000BF0020C9
:105920008DF800004FF44870ADF80200DF4968467A
:1059300004F074FD10B10120DE490870D84890F8D9
:10594000ED00012800D140E000BF87B1D448B0F895
:10595000F020D44BD449D54806F079FE0220D54931
:105960000870CF4890F8ED00022800D12DE000BF6C
:105970007EB1CB48B0F8F020CB49CC4808F011FA02
:105980000520CC490870C64890F8ED00052800D1E4
:105990001BE000BFC54806F07AFF40B10320C549AF
:1059A0000870BF4890F8ED00032800D10DE000BF5B
:1059B000BE4808F0CDF840B10420BE490870B84890
:1059C00090F8ED00042800D100BF00BFB94800786E
:1059D00060B9B34890F8ED00002804DD0020B0491C
:1059E00081F8ED008BE70220FCF7A8FAB24804F03A
:1059F000C5FE30B9B04807F06EFA10B90420FCF7C4
:105A00009DFA0220FCF78BFA28B1A54A92F8E4002F
:105A1000A64A11688847A24A92F8E300A24A116890
:105A2000884700BF9E4890F8EE0048B1012808D092
:105A3000022814D003281FD10820FCF77FFA1BE0AE
:105A400000BF9E4805F0A6F840B101209C490870AF
:105A5000934890F8EE00012800D10DE000BF974870
:105A600008F033FA40B10220954908708C4890F84C
:105A7000EE00022800D100BF00BF9148007860B955
:105A8000874890F8EE00002804DD0020844981F862
:105A9000EE00C7E70820FCF751FA8A48B0F9280061
:105AA000642190FBF1F004B28648B0F9280090FB25
:105AB000F1F201FB12050820FCF731FAA8B12846E3
:105AC0000AF0EEFD834680490AF07AFD81462046C1
:105AD0000AF0E6FD824649460AF01AFD80467B49F7
