:020000040800F2
:1000000000500020E12901088D2A0108651301082C
:100010008D2A01088D2A01088D2A010800000000A0
:100020000000000000000000000000008D2A010810
:100030008D2A0108000000008D2A01083D130108E7
:100040008D2A01088D2A01088D2A01088D2A0108B0
:100050008D2A01088D2A01088D2A01083D12010808
:100060008D2A01088D2A01088D2A01088D2A010890
:100070008D2A01088D2A0108FD1101088D2A010829
:10008000411201088D2A01088D2A01088D2A0108D4
:100090008D2A01088D2A01088D2A010839120108CC
:1000A0008D2A0108C51101088D2A0108D511010802
:1000B000B5110108A5110108951101087D1201086B
:1000C0007512010879120108711201088D2A0108C0
:1000D0008D2A0108F1110108E51101088D2A010896
:1000E0004D1301088D2A01088D2A01080000000027
:1000F0000000000000000000000000000000000000
:0C01000000000000000000005FF808F1A3
:100110002DE9F04F764B774EA1B03360002373602A
:100120000BF0D0FB18B90BF007FD07F0B1FC07F09E
:100130004FFD714B714C1A78A17B42F001021A708D
:10014000002309930A930B934FF4E0130C936C4B29
:100150001A681E4642F480321A609A6942F0100210
:100160009A61336803F400330A93099B01330993BE
:100170000A9B1BB9099BB3F5A06FF2D13268604BA3
:1001800012F4003201D0022315E0186840F001009B
:1001900018600992336803F002030A93099B013344
:1001A00009930A9B1BB9099BB3F5A06FF2D1336881
:1001B0009A0739D501230B93524B53481A6842F0E2
:1001C00010021A601A6822F003021A601A6842F0DC
:1001D00002021A607368736073687360736843F433
:1001E00080637360494B1A68043B22F070425A6086
:1001F000474A1060706820F47C107060586840F0C6
:1002000000405860D86820F40040D8609B681B0408
:1002100049BF404B4FF4E01313604FF480130C932D
:100220000B9B012B01D117E0FEE7022B18D169B11E
:100230000C9BB3F5801F02D14FF4A01305E00C9B7B
:10024000B3F5E01F02D14FF400130C9371680C9BBF
:100250000B4343F4803302E0736843F4601373602C
:10026000336843F0807333603168254B8F01FBD5D1
:10027000596821F003015960596841F00201596041
:1002800073681F4903F00C03082B0793F8D14868E3
:10029000214B00F00C00042803D0082804D01A4990
:1002A00000E01168196011E048684D68C0F38340B0
:1002B000ED0300F1020001D4184905E0496811F48A
:1002C000003F116818BF4908484318607168C1F3BE
:1002D0000311114491F804A0196821FA0AFAC3F82D
:1002E00000A01368084A93421AD101221CE000BF03
:1002F000BD6D0008080100204C2F002004070020DD
:10030000001002400020024000127A000410014058
:1003100000000020001BB7006000002000093D0025
:100320009B4A934202D102229A4B1A70DFF8CC9278
:10033000994B20ADC9F80C30B369DFF8948243F0D3
:100340000103B361736A002743F080737362B3697A
:10035000924843F01C03B3614FF6FF7325F82C3D20
:1003600029468DF8567009F0C2FF4046294609F02B
:10037000BEFF29468A4809F0BAFF8A4B28465A68C8
:1003800042F000725A600FF0F5FE159B864A8748CE
:10039000B3FBF2F38360864B4FF47A721F605F60A9
:1003A000BAFBF2FA834B0AF1FF325A60F02289F865
:1003B000232007229F601A607F4B0FCB85E80F0038
:1003C000B369159843F00803B361B36916A943F004
:1003D0000803B3610823C8F810301023C8F81030A0
:1003E00009F085FF179818A909F081FFA268734BDF
:1003F00012074DD593F81A21012A49D87049714A3C
:1004000093F81B01B1F800E01388884643EA0E4ECA
:100410006D4B91469E459A4640F04B85002F37D054
:100420006A49DFF8ACB108685C4F1022CBF81420A1
:10043000294615903846039209F059FF0821396181
:100440003C2006F0A2FB039ACBF810204FF0000BE3
:1004500094F81B319B4512DA5D4908230B61782023
:100460007B610391029306F085FB0399029B782040
:100470004B613B6106F07EFB0BF1010BE8E7B8F83E
:100480000020B9F8003043EA0243534540F0188594
:10049000642006F07AFB4F480021A02214F051FEA0
:1004A000F36943F00703F361B36943F4006343F076
:1004B0000C03B36100233D4E4FF0000A06F10C021D
:1004C00003F802A001330E2BF5D1FF23B376F376A8
:1004D00033777377404A414BA7681A60514606F15B
:1004E0002000302214F02DFE07F04009514606F19D
:1004F00020083B4BCA5C0C234B4308F80320B9F19E
:10050000000F05D11E3A012A02D8364AFF2098541E
:1005100001310429EDD1344B244994F805B00B6521
:10052000324B17F0200F03EBCB01314E314A91F8DB
:100530005D109A461CBF0123336082F800B008BFEB
:10054000316000232C4A40F2DC5199520233102BC7
:10055000F8D10FA80021162214F0F3FDBBF10E0F05
:1005600002D0BBF1080F02D101238DF84C30134BA0
:1005700003F1200193F93A21012A03D1B3F83C0198
:1005800000283DD108338B42F4D1002339E000BF6D
:10059000001BB700742F00200005FA050008014079
:1005A000001001400000014040420F0008010020FF
:1005B000442F002010E000E0587B010804070020D1
:1005C000106C0040086C004007B0F750687B0108D1
:1005D000000C0140F82D00203C080020F41A0020F7
:1005E000640000202801002014070020107B01086F
:1005F000BC140020941400209614002000ED00E0AC
:1006000013468DF84130C7F340038DF84230C7F3ED
:10061000403319F100098DF83C30C7F3C03318BFDF
:100620004FF001098DF83F3017F400638DF84490C6
:1006300007D094F80E31B3F1010EDEF1000353EB55
:100640000E038DF84030C7F300438DF84530336812
:1006500007F00101003318BF01238DF84630B94B74
:10066000C7F3C0021B684FF47A7093F8A631FE04FA
:10067000C3F380038DF84730B4F8D6308DF83D10C1
:10068000ADF84A30B4F8E2308DF83E20ADF848308D
:10069000C7F380438DF84330B4F8E030ADF8500034
:1006A000ADF84E3004D5A848B0F8DC00ADF85000E5
:1006B000B3F5FA7F88BF0023A44888BFADF8503057
:1006C00094F8243180F85430002380F8553080F8B5
:1006D00056309DF84C30002B14BF0223002301B983
:1006E00002B101330AEB8303D3F81C314FF0000849
:1006F0000693CDF81080069B33F808204FF6FF7361
:100700009A4200F07481D3B2914F9DF841101E01BE
:10071000BC1919B1991E012940F263819DF844105A
:1007200021B1B9598B48814200F05B819DF8451099
:1007300029B1DFF820E2B859704500F052819DF8E8
:10074000420040B1DFF830E26068704503D1A06834
:10075000102800F046819DF83F0040B1DFF818E214
:100760006068704503D1A068022800F03A819DF8C6
:10077000400040B1DFF804E26068704503D1A06832
:10078000022800F02E814FEA122ABAF1020F02D19C
:100790009DF83C2004E0BAF1010F04D19DF83D2002
:1007A000002A00F01E819DF8462062B19DF84C2081
:1007B0004AB9A3F10802012A05D8B859664A9042FD
:1007C00008BF4FF0040A9DF8472052B19DF84C2015
:1007D0003AB911B10C3B012B01E0043B032B40F271
:1007E000E880BAF1010F42D1584BFF2283F89C20D8
:1007F00083F89D20E17BA2684FF0000B83F8A0B046
:10080000C3F8AC406068ADF854208DF85610022251
:10081000294683F858B0C3F85CB0C3F860B0C3F899
:1008200064B0C3F898B083F89EB083F89FB08DF899
:100830005720029309F05BFDB859217B5A460FF00F
:100840004FFC2046594652460AF00BFD029B434A94
:10085000C3F8B8B0C3F8B020414A2046C3F8B4206A
:1008600003F1B00103F1B4020DF0C8FFB9E0BAF131
:10087000020F42D1049A3B49D3B21C225A43049B33
:1008800001EB020B4FF000094FF0010C8BF8013027
:100890008BF802908BF80A9001F802C0E17BA26805
:1008A0006068CBF80C408DF856102946CDF80CC086
:1008B000ADF854208DF857A009F019FDB859217BE7
:1008C0004A460FF00DFCDDF80CC020466246494652
:1008D0000AF0C7FC244A2046CBF81020234ACBF864
:1008E0001890CBF814200BF110010BF114020DF04D
:1008F00085FF04980130049073E0BAF1030F55D1DD
:100900009DF84330114E33B196F8567020460821B9
:100910004FF6FF723AE0BDF84E3096F85670B3F5D8
:10092000FA7F2DD9124A2046B2FBF3F20821BDF816
:10093000503092B20AF0BFFC06EB8707C7F880017F
:100940000C4B2CE0F81100200407002008010020C7
:100950008C9B010800040040002C014079950008A0
:100960007D960008A80100201D0101085596000889
:1009700000127A009D96000800080140000C01401A
:10098000AF4A2046B2FBF3F2012192B2BDF85030DB
:100990000AF091FC06EB8707AA4BC7F88001C360F9
:1009A00096F85630013386F856301AE0BAF1040F43
:1009B00017D1BDF84830A24AA34E92FBF3F220466D
:1009C000BDF84A30012192B296F855700AF073FCD6
:1009D00096F8553006EB87070133C7F8B00186F863
:1009E000553008F10208B8F11C0F7FF484AE964B25
:1009F000964A93F855109B46117095490E78172E1C
:100A00001DD10024DBF850300021185903EB0408F5
:100A100011F0C8FB20B18F4FBB68D8042CD427E05D
:100A20008D4F98E80F00274487E80F008B4B103458
:100A30001A78C02C02F101021A70E3D1EBE7884B5F
:100A4000864A03EBC60393F85CE0D3F860C082F8F3
:100A500000E0BCF1000FDED000247445DBDA7E4FED
:100A600023011F4463440FCB013487E80F00F4E7F0
:100A7000082E7C4B28D129E0784B93F80090B9F1EF
:100A8000010FF5D9784C4FF00008C84504F1100467
:100A9000EEDA54F8100C4FF07C5111F0EFF94FF0F2
:100AA0007C5144F8100C54F8140C11F0E7F94FF095
:100AB0007C5144F8140C54F80C0C11F0DFF908F1D7
:100AC000010844F80C0CE0E70E2E03D11A7842F02E
:100AD000100202E01A7822F010021A7005F078F97C
:100AE000624B634E1A78634C42F004021A703378FA
:100AF0004FF48052012B8CBF102314238DF85630F5
:100B00004FF002038DF85730A369ADF8542043F03D
:100B10000403A3618CBF4FF001084FF00008564852
:100B2000294609F0E4FB554BB8F1000F01D0544AB7
:100B300000E0544A00201A6006F031F8524BDFF80A
:100B4000548193E80300A36985E8030043F0080398
:100B500016A9A361159809F0CAFB07F02DFC9F2385
:100B60008DF83830322000234FF480598DF8393019
:100B70008DF83A308DF83B3006F007F80422C8F8BB
:100B8000149028460EA904F0ADFFC8F810909DF807
:100B900056209DF85530120242EA03429DF8573024
:100BA0001A433A4B9A4214D0322005F0EEFFC8F8AF
:100BB0001490F52005F024F8FF2005F021F87028A6
:100BC000C8F8109005D13378022B02D1284B0322AC
:100BD0001A703378032B02D0012007F043FC3678DB
:100BE000BD6804962A4E4FF0100A05F40063524681
:100BF00030460021069314F0A4FA4FF6FF73ADF8C7
:100C0000383002234FF0000815EA030205F40049CA
:100C10008DF83A308DF83B8035463DD016480EA908
:100C2000ADF838A00FF0F8FA4FF0010A04220723BC
:100C3000327086F8018086F802A0F3702DE000BFC4
:100C400040420F008D96000808010020C0140020CB
:100C50009414002004070020B8130020732F0020F4
:100C6000107B01084E100020C01300204C2F0020E4
:100C7000742F00200010024000080140502F002077
:100C80000D640008216400083C7C01081520200048
:100C9000EC190020000C01409246049B012B12D954
:100CA000202399480EA9ADF838300FF0B5FA052386
:100CB00001222B72AA720AF10103072285F809A00A
:100CC000EA725FFA83FAB9F1000F11D002238E485D
:100CD0000EA9ADF838300FF09FFA01230AEB03029A
:100CE0002B71AB71072385F805A0EB715FFA82FACF
:100CF000069B93B1022385480EA9ADF838300FF05A
:100D00008BFA092301222B73AA730AF1010307222C
:100D100085F80DA0EA735FFA83FA63687C4843F4B0
:100D20004043636063697A4E43F001036361A369E2
:100D300043F40073A36105F0BDFB764B00241593CB
:100D4000754BBAF1020F169334BF234680231A93D2
:100D50004FF480731B934FF480631C93202315A9D9
:100D60001D9330464FF400531E931794CDF860A0A6
:100D700019941F9405F080FB3368BAF1010F43F01A
:100D800001033360654B98BF00215A6888BF012179
:100D900022F4702222F4807242EA01225A60996899
:100DA0005F4A20460A4042F4602242F002029A6002
:100DB000D96A0AF1FF3221F47001D2B241EA02523B
:100DC000DA62012329188A78002A5AD02A5C5C1C2E
:100DD000092A91F803E0E4B2504911D9A2F10A06B8
:100DE00006EB46064FF0070C0CFA06FC0EFA06FE60
:100DF000D1F80C8028EA0C0C4CEA0E06CE600EE00E
:100E000002EB42064FF0070C0CFA06FC0EFA06FE47
:100E1000D1F8108028EA0C0C4CEA0E060E61062B65
:100E20003E490ED8013B03EB83034FF01F0E0EFA31
:100E300003FE9A404E6B26EA0E0646EA02034B6317
:100E400020E00C2B0ED8073B03EB83034FF01F0E63
:100E50000EFA03FE9A400E6B26EA0E0646EA0203DD
:100E60000B630FE00D3B03EB83034FF01F0E0EFAF5
:100E700003FE9A40CE6A26EA0E0646EA0203CB62D9
:100E800000E01C460430102801D023469AE7234B8B
:100E90009A6842F480729A609A6842F001029A60FD
:100EA0009A6842F008029A6099681C4A09070FD5AF
:100EB000FAE7471E092F8CBF00270127FFF7AEBABC
:100EC000184B002283F81B2107F08EF9FFF7E0BAD8
:100ED000936843F004039360104A936813F004038B
:100EE000FAD19168B7F8E80041F4A00191600D4A89
:100EF000D8B9B2F9EA30BBB9B2F9EC30D3F1010399
:100F000038BF002311E000BF00080140000C014081
:100F1000080002404C240140FC190020002401403C
:100F2000FDF7F1FF04070020034613F0010340F032
:100F30008A80B24A00B2137510F04CFFB04910F02D
:100F40009DFFB04E0546B6F9EA0010F043FFAC49EC
:100F500010F094FF0446B6F9EC0010F03BFFA849EE
:100F600010F08CFF8046284614F068FB06462846A1
:100F700014F0D8FB0746204614F060FB05462046D7
:100F800014F0D0FB0446404614F058FB814640461E
:100F900014F0C8FB31468046484610F06FFF3146DA
:100FA0000490404610F06AFF49460690384610F01B
:100FB00065FF41460590384610F060FF294682469D
:100FC000484610F05BFF4146CBF8D00105F10040E8
:100FD00010F054FF2146CBF8D401CBF8D841059846
:100FE00010F04CFF0146069810F040FE2146CBF869
:100FF000DC01504610F042FF0146049810F034FE28
:101000002946CBF8E00107F1004010F037FF2146F8
:10101000CBF8E401049810F031FF0146504610F07F
:1010200023FE2146CBF8E801069810F027FF014681
:10103000059810F01BFE3146CBF8EC01284610F065
:101040001DFFCBF8F0016F4CA3689F0320D5C8208B
:1010500005F09BFDAE2007F049FB08B10AF0D7FC74
:101060008BF8F401C82005F090FD674B00210C229D
:101070006648CBF8F83114F064F802238BF8FF319E
:101080000AF04BFF05F01EFC614B0344CBF8043221
:10109000604B614E1B68614DB3F85230297806935E
:1010A000002333705E4BB4F8F09094F8EF70A3F126
:1010B000180294F8F740012998BF13460494CBF81E
:1010C000083207F0CDFD574C804638B3564B574A8F
:1010D000B9F1BB0F1A60564A5A60564ADA60474B5C
:1010E00001D9012212E0B9F1610F01D902220DE00C
:1010F000B9F1290F01D9032208E0B9F1130F01D981
:10110000042203E0B9F1090F06D905225A7501231B
:101110003370022300F0C7BD0622F7E7192005F05F
:1011200034FD68201521424607F09CFA68B33E4B17
:10113000414AB9F1620F1A60404A5A60404A9A60C7
:101140003C4ADA602D4B12D006D8B9F10A0F15D0FF
:10115000B9F1140F10D00DE0B9F1BC0F05D0B9F5FD
:10116000807F07D183F816800AE0012200E0022286
:101170009A7505E00322FBE70422F9E70522F7E769
:1011800001233370042300F08EBD95F80080B8F180
:10119000030F5BD1752015A9012204F055FD9DF8C0
:1011A0005430702B52D1204B264AB9F1BB0F1A6034
:1011B000254A5A601F4ADA60104B01D9012213E018
:1011C000B9F1610F01D902220EE0B9F1290F02D95C
:1011D00083F817800CE0B9F1130F01D9042203E062
:1011E000B9F1090F02D90522DA7501E00622FBE701
:1011F00001233370072300F056BD00BF000000201C
:1012000035FA8E3C04070020160800200403002055
:10121000404B4C00F811002012120020742F0020C7
:10122000287B010808010020FC110020258300080C
:10123000218C000890C1793D01820008BD8C000816
:101240008B8C0008095D0008715C0008032006F023
:10125000EDFBB04F10223B780A2543F002033B70B0
:10126000AD4B5A6108221A61AB4E1920F368013D5B
:1012700083F01003F360F36883F00803F36005F074
:1012800084FC012005F08BFC192005F07EFC002079
:1012900005F085FC15F0FF05E6D1082310279F4DCA
:1012A000336137612B68180707D59D4B77611B6841
:1012B00098479C4B012237611A709B4B9B4E1B68D1
:1012C000187B10F087FD9A4910F0D8FD14F0B6F99C
:1012D0008046308810F07EFD414610F0CFFD14F0BE
:1012E000E3F9944B1880308810F074FD0146924861
:1012F00010F078FE914910F075FE914B8C49186002
:10130000904B914ED86810F0B9FD904910F0B6FDA1
:101310008F4BFF2118601622304613F012FF002277
:1013200032702A688B4B012112F0020F197030467F
:1013300004D07170032119700221B170510704D5D6
:1013400019784E1C1E700326465412F00A0F0CD05A
:101350001A7804218154511CC9B205264654D11C67
:1013600002321970D2B2062181547B4EB2689706C0
:1013700008D5197801F1010E83F800E04FF0070E4F
:1013800000F801E011060ED519784FF0090E00F8AB
:1013900001E001F1020E013183F800E0C9B24FF023
:1013A0000A0E00F801E07179082901D00E2908D150
:1013B000197801F1010E83F800E04FF00B0E00F8F0
:1013C00001E019784FF00C0C01F1010E5FFA8EFE6E
:1013D000D70383F800E000F801C009D501F1020C41
:1013E0005C4981F800C058494FF00E0C01F80EC05E
:1013F000510708D5197801F1010E83F800E04FF08C
:10140000100E00F801E019784FF0120C00F801C03E
:1014100096F85CC101F1010E5FFA8EFEBCF1000F7F
:101420000CBF002702F0010783F800E04FB101F183
:10143000020C484981F800C043494FF0130C01F8F1
:101440000EC01978920501F1010E5FFA8EFE83F845
:1014500000E04FF01403435406D53E4B023119709F
:10146000394B152203F80E20002198223B4813F037
:1014700068FE05F0C7FF0EF0DFFC394B394AB6F8BD
:101480001E011A6081B20023374A99520233242B7D
:10149000FAD1B3681B0740F116812F4B93F81A312C
:1014A000062B00F20981DFE803F004046F96AECA50
:1014B000CA002E4A2E49012B11602E4F2E4A2F486A
:1014C0000BD14FF0030C4FF0070E82F8503287F823
:1014D00000C080F800E00C2307E002233B700323E8
:1014E0000370002382F8503207230B70244B4020F6
:1014F000C2F8543205F072F9002800F0DD800123B3
:101500004FF0000A90F9000040218DE808041D4AC0
:1015100076E000BF4C2F0020000C0140F40F0020AB
:101520004010002060100020B01200201C0000209D
:1015300035FA8E3CD41200200AE81C4100401C46BB
:10154000A8110020FC110020971D0020BD37863512
:10155000AC120020961D002004070020581A00201D
:101560008C0E0020160800200A100020940E002087
:10157000AD1D0020910E002008010020980E0020D3
:101580007D630008116A000810F024FC724910F015
:1015900075FC724910F068FB10F05CFE0023704A85
:1015A00098500433482BFAD16E4A6F4B4020C3F851
:1015B00054226E4B12221A7005F010F900287BD0CD
:1015C00001234FF0070990F9000040218DE808023F
:1015D000674A684B6AE0684A634B4020C3F854226C
:1015E000624B10221A7005F0F9F8002864D001232C
:1015F0004FF0000890F900008DE808015F4A402193
:101600004FF4E13352E05E4B574F0822C7F8543293
:10161000564B40201A7005F0E1F800284CD0012309
:101620004FF0000C90F9000040218DE80810554A59
:101630004FF4E13305F0A4FEC7F8580238E04B48F8
:101640000C21062B484A504F017010D000233B70EC
:1016500082F85C3282F85D321B2382F85E32052309
:1016600082F85F1282F860324FF4E1370DE000201B
:10167000387082F85C0282F85D02444F212082F8C3
:101680005E0282F85F1282F86032414B4020C2F85D
:10169000543205F0A3F878B101234FF0000E3D4A13
:1016A00090F9000040218DE808403B4605F068FEB7
:1016B000003018BF012030B9082008F00EFB2A4B7B
:1016C0000022C3F85422B368DFF89C8013F4804FE3
:1016D000264A04D0082111702F49C8F8541242F24A
:1016E0000101194051B12D499804C8F8541244BF62
:1016F00008211170D90744BF0C21117011781B0605
:10170000A1F10401517040F18A80DFF8A0904FF000
:10171000000ADFF89CB0514615222148214FC8F835
:1017200064B289F801A0C9F804A0C9F808A013F0B0
:1017300008FDABF1040350463B600CF0D1FE1A4BA0
:1017400002201B68C9F80C3005F048F84B4688BBEE
:10175000802008F0C2FA5AE0CDCCCC3F0000B04463
:10176000E00E0020C963000808010020AD1D002024
:101770001D6B0008A0860100B9630008A96A000873
:10178000A56300085D6A0008E00F002090D0030008
:101790006563000845690008F563000801640008F6
:1017A00070030020EC110020402F0020CC110020FD
:1017B0003C08002090F805C05A78C8494FF00C0941
:1017C00009FB021999F80190E14504D00132D2B227
:1017D000042AF2D900225A703A685B7812784FF0E6
:1017E0000C0E0EFB0311002A0CBF0122032290F9FC
:1017F0000000009200224B780192022105F0C0FD0A
:10180000B74B18600028A3D001200CF069FEB54B3F
:101810001868B54B00F5D8721A6008F027FCB36859
:101820009F050DD598044CBFB048B14804F058FB53
:101830002B684FF0FF3243F010032B60AD4B1A6062
:10184000AD4BAE4DC8F880328033C8F88432B368EF
:101850004FF00009D90385F8009040F1B28008F0FC
:1018600027FBA74BA74F40F22A3B4FF0010A18462F
:101870005A46494685F800A0029313F062FCB96904
:10188000A14841F00401B9614021ADF8341018219C
:101890008DF8371003218DF836100DA90EF0BCFC21
:1018A000F9699A4D41F00201F9619949A7F69477D7
:1018B00008689849B0FBF1F02988013821F45C717F
:1018C0000904090C298080B21D21A9852885A5F865
:1018D00014A0298C21F001010904090C2984298C08
:1018E000B5F804E0288B21F0020120F07300000419
:1018F0000904000C090C1FFA8EFE40F0600041EA5A
:101900000A01A5F804E02883A5F834902984298BDE
:1019100021F008010904090C41F008012983B5F8F8
:1019200044106FEA41416FEA514189B2A5F8441071
:10193000D7F8A81F41EA0A01C7F8A81F384604F0E3
:10194000B9FD7549029B159180211A914FF4807160
:101950001B914FF4005116931E911023384615A980
:1019600017930293CDF86490CDF87090CDF87490F1
:10197000CDF87C90CDF860B004F07EFDA989029B83
:1019800089B241F40071A98139680EA841F00201C1
:1019900039608DF838308DF839A08DF83A908DF88F
:1019A0003BA00CF00DF95D4B1A685D4B49F8032024
:1019B00009F10409B9F1800FF5D10CF0B8FD0CF074
:1019C000B6FDB3685A0555D5D4F8B495554B0420E7
:1019D000C3F8009004F002FF0421C4F8B80504F035
:1019E000D3FE514B84F8BC050820C3F8009004F0E6
:1019F000F5FE0821C4F8C00504F0C6FE4B4D84F87E
:101A0000C405002128462C2213F09BFB8E236B700B
:101A10004FF07C0BE0234FF07D0AEB7085F800B0AF
:101A200085F82BA0424D2C220021284613F089FB7B
:101A30008A236B701020A023EB7085F800B085F826
:101A40002BA0C4F8C89504F0C9FE1021C4F8CC0539
:101A500004F09AFE84F8D0052020C4F8D49504F050
:101A6000BDFE2021C4F8D80504F08EFE84F8DC0504
:101A700005F07EFE2F4B304C1B78022B40F09180FE
:101A80002E4BDFF8BC901A88002522F04002120489
:101A9000120C1A801A88322022F038021204120C1A
:101AA0001A801A884FF4805A92B242F040021A808B
:101AB0009F238DF838308DF839508DF83A508DF8D5
:101AC0003B5005F062F88DF855500422C9F814A077
:101AD00015A80EA904F006F834E000BFB081010893
:101AE000C8110020F81100209C130020447C01083C
:101AF000507C01088C110020700800202019002063
:101B00009003002000100240000801400004004043
:101B10006000002000366E01340400402683010876
:101B200022190020242A0020782A0020482A002098
:101B30007E2A0020742F0020F81D0020003800406D
:101B4000000C0140C9F810A09DF856309DF85520B2
:101B50001B0243EA02439DF857201343A74A9342CE
:101B60000AD002F54E0202F50642934204D0A44A7E
:101B7000934211D1202300E0802323704FF480731F
:101B80006380A3804FF48033A36023781B04E36059
:101B9000012388F8DD3504E025706580A580A56007
:101BA000E560E5680DB32D0CA9464FF0000AAA4583
:101BB00015DA0AEB050464100DF1540B20045946A4
:101BC000102203F0F7FF00235BF80320013240F0FE
:101BD00080830433102BF7D1A1462546E7E70EF0AA
:101BE000B9FC4FEA09400BF0D9FFB36813F40023A6
:101BF00018BF012388F8DE3504F064FE814B1860BD
:101C00007379052B03D1804B4FF4C8721A807F4B38
:101C10004FF47A721A807E4BC8221A807D4B1A7854
:101C200042F008021A707C4B1A7822F002021A70F5
:101C3000B26840F6020313400BB3784B784A1C4657
:101C40001A600CF099FE282004F09FFF079B013BCF
:101C50000793F6D12368734AD87811785A789B781D
:101C6000B1FBF2F201327049082A28BF08220A703B
:101C700092B250435A436D496D4B08801A80B36845
:101C80009B0308D5042388F8003298F8FF3143F00D
:101C9000010388F8FF316748037863F07F0303701E
:101CA00021B0BDE8F08F644A1370644B9246196806
:101CB000994641F001011960614E00233370082FED
:101CC00000F2FD80DFE817F00900FB0009002600A4
:101CD0007A00D0002600E600E6002B78012B19D808
:101CE0004FF0000820AB03F82C8D53204146012211
:101CF00006F0CAFD70B19DF85430E52B0AD1514B66
:101D0000514A8BF80C821A60504A5A60042333708F
:101D10000223D8E04E4B2978A3F11802012998BF7D
:101D20001346DFF84081CBF8083206F099FF00280F
:101D300044D0062115AB68200A4606F0A5FD9DF8A3
:101D400057309DF8597003F001035B0007F001075D
:101D500043EA87079DF8553003F001031F4306D07F
:101D6000012F01D1002317E0022F0BD113E00EAB9E
:101D700068200C21012206F087FD9DF8383013F011
:101D80000F0303D1052005F051FE07E0042B02D11B
:101D900088F80D7202E0012388F80D32294B2D4A94
:101DA0001A602D4A5A609BF80D22002A14BF6E2239
:101DB0006F221A7201233370032384E02B78012BE6
:101DC00052D8002220AB03F82C2D1C200D2101221B
:101DD00006F05AFD002847D09DF854302A2B01D038
:101DE0001A2B41D1174A1D498BF80E3211601C493C
:101DF000022333705160042365E000BF17BA20004E
:101E000015202000041300207A120020642F0020E7
:101E1000622F00204E100020722F00201C2A00206C
:101E20000A080020202A0020940000207C2A00209C
:101E3000E21900204C2F002059000020F40F002050
:101E4000542F00206812002031880008978D000868
:101E5000287B01088D830008E18B00087D8700083E
:101E6000FB8C000808010020002120AB03F82C1D8A
:101E70001820012206F008FD60B19DF85430FB2BBC
:101E800008D1BD4BBD4A1A60BD4A5A600123337068
:101E9000052318E02B78032B11D1752015A90122F9
:101EA00003F0D2FE9DF85430702B08D1B24BB54AE6
:101EB0001A60B54A5A6001233370082303E0012FEA
:101EC00009D90027F8E68AF80130D9F8003043F044
:101ED0000203C9F800302B78012B05D104F058F823
:101EE000AA4B4FF400525A610A2004F04EFE7720AC
:101EF000A02101220EAB06F0C7FC28B99BF8207286
:101F0000A34D002F65D02DE11E210122772006F080
:101F1000A9FB4FF42F6004F02DFE0025A5F1600110
:101F20000026C9B2022215AB77208DF854608DF8D7
:101F3000556006F0A9FC9DF855309DF8541043EA11
:101F40000121934B03F50472A9520235102DE5D1FE
:101F5000B3F81E72012107F00F0507F47F47A3F8BD
:101F60001E723246334622F001002044B0F81002BF
:101F7000002818BF0021D60703D5C0B2434008206F
:101F800002E083EA1023FAE71E0448BF83F4C0533B
:101F900001384FEA4303F7D10132102AE3D12F432E
:101FA000A4F81E720029A9D1C3F303339D42A5D121
:101FB000784B42F210721A805A80774A5A60774AF8
:101FC0009A60774ADA60774A1A61774A5A6103233E
:101FD00073E1DFF8B88103F0DBFF4FF480460423A0
:101FE0000EA94046DFF8DC91ADF838608DF83A3044
:101FF00008F07DF94FF40053C8F81030484606F059
:1020000027F90E21022008F05DF90823159615A87E
:1020100001268DF859304FF0030A8DF858708DF86D
:102020005A600BF0EDFD28230DA88DF834308DF8A3
:1020300035A08DF836708DF837600BF0C1FD142097
:1020400004F0A3FDD0210EAB7720324606F01CFC35
:102050009DF83830A5F844A2552B85F83B3241460F
:1020600040F08280D12132460EAB772006F00CFC86
:102070009DF83830772003F00F021B0985F83C22C9
:1020800085F83D32162215ABAA2106F0FDFB9DF81E
:1020900054209DF8553043EA0223A5F824329DF8D8
:1020A00056209DF8573043EA0223A5F826329DF8C2
:1020B00058209DF8593043EA0223A5F828329DF8AC
:1020C0005A209DF85B3043EA0223A5F82A329DF896
:1020D0005C209DF85D3043EA0223A5F82C329DF880
:1020E0005E209DF85F3043EA0223A5F82E329DF86A
:1020F00060209DF8613043EA0223A5F830329DF854
:1021000062209DF8633043EA0223A5F832329DF83D
:1021100064209DF8653043EA0223A5F834329DF827
:1021200066209DF8673043EA0223A5F836329DF811
:1021300068209DF8693043EA0223A5F83832154B30
:1021400041F2707285F820621A8046F678125A8041
:10215000164A5A60164A9A60164ADA60164A1A6196
:10216000164A5A610223A8E0154B1A684A452BD03B
:102170005A684A452CD128E0681200200D880008D2
:10218000538D0008F5980008AD5C00080010014070
:10219000080100206C1000203F870008418B0008D8
:1021A00037870008518B0008C1960008698700082E
:1021B000AD8B000847870008618B0008199800085C
:1021C000442F0020AD5A00083E46002243F8262046
:1021D0004FF400534B61414E33689D0702D5404B8D
:1021E0001B6898473F4B1B6898473F4B049D1F78DF
:1021F0003E4BA3F10C02012F8CBF1F4617463C4BF0
:1022000000221A7098460DB1022D5ED120AB03F862
:102210002C2D384A1E20C2F848720A21012206F0ED
:1022200033FB002851D09DF85430482B4DD1324B10
:10223000324A1A60324A5A60032388F80030314B20
:102240000222DA70336843F0080333602E4B93F8B0
:10225000E4200AB12D490A7093F8E5200AB12C490F
:102260000A7093F8E6300BB188F800303368214DDE
:1022700013F0080F1CD0069964270FFA81F898FB19
:10228000F7F630460FF0A6FD814607FB168000B238
:102290000FF0A0FD1F490FF0F1FD014648460FF079
:1022A000E5FC1D490FF0EAFDC5F84C02FEF7D1BF71
:1022B0000023C5F84C32FEF7CCBF124A9370074B8F
:1022C0001A6842F004021A6085E7012DBED9002584
:1022D00095E704F1010A2C467FE400BFF40F0020CB
:1022E00068120020FC110020742F00204C7B010894
:1022F000662F002008010020401000207989000886
:10230000058900085900002004070020121200204F
:10231000542F00208988883C00002041B64A2DE9CE
:10232000F04FB64B1468B3F9060023898DB098427C
:10233000904610DBB0F5FA6FE27908DAC11A4A4329
:10234000A3F5FA6392FBF3F36433049305E0C2F15F
:102350006402049201E064210491A94B0021B3F8C6
:102360001E210592A74A156893F9EE20AA4652420B
:1023700092B206920A46A14B059E31F903B0C6EB14
:102380000B0303F2F31740F2E636B74203D8002BF3
:10239000B8BF5B4201E04FF4FA73022ADFF878E23B
:1023A0002ED095F85D6126B1B342CCBFC6EB0303D6
:1023B0000023642693FBF6F7934E6FF0630936F81B
:1023C00017C009FB0739013736F917700797079EC1
:1023D0000FFA8CF7F71B07FB09F7642697FBF6F754
:1023E00067442EF80170A7183F797B43874F93FB12
:1023F000F7F33344049F9BB27B4393FBF6F615E05F
:1024000095F85E6126B1B342CCBFC6EB030300234F
:10241000069F03FB07F6AEF80460A679002BB8BF51
:102420005B425E43794F96FBF7F66436AB1893F840
:1024300001E0774F06FB0EFE64239EFBF3FE02F8DD
:1024400007E09AF80BC007F1030E06FB0CFC9CFB9F
:10245000F3FC02F80EC09AF815E0063706FB0EF6FC
:1024600096FBF3F6059BD6559B45DFF8ACB104DA35
:102470003BF801305B422BF801300132032A01F1B5
:1024800002010AF1010A7FF476AF5D4DB5F8203103
:10249000984205DBB0F5FA6FA8BF4FF4FA6000E090
:1024A0001846C01A4FF47A725043C3F5FA63B0FB72
:1024B000F3F36427544C93FBF7F204EB42016FF003
:1024C000630000FB0233098B04EB4202B2F91A00ED
:1024D0000AB2821A534393FBF7F74E4B39441A88DA
:1024E0004D4E5206ABF806103DD54C4B1888238E46
:1024F000C01A00B20FF06EFC49490FF0BFFC07464E
:1025000013F09CF88146384613F00CF90746B6F9EB
:1025100002000FF05FFC8246B6F900000FF05AFC93
:10252000494602900FF0AAFC3946024650460392F3
:102530000FF0A4FC039A014610460FF095FB0FF034
:1025400063FE4946308050460FF098FC029B81465E
:10255000394618460FF092FC014648460FF086FBBC
:102560000FF052FE7080AA6840F6020313402D4E11
:10257000002B00F0C3802C4B06211F88636B1F4487
:1025800094F8383067630133DBB2B3FBF1F084F8C1
:10259000383001FB103313F0FF0F40F0AF8093078A
:1025A00011D50CF0E9F9214B174A1B78528F9A424A
:1025B00006D21F4A12889A4234BF0023012300E04A
:1025C000022384F83C30AB68180540F195800C4A32
:1025D000BBF906B0B2F8DE00164AABF57A7BD2F84A
:1025E00000A0DFF854909AF80820012A26D06CD376
:1025F000022A45D06CE000BFA81300200A1000207A
:1026000004070020F8110020A81900200CFEFFFF8D
:10261000B6190020FC0F002082130020EC120020CD
:1026200035FA8E3C722F002002130020202A002051
:102630007C2A00201C2A0020282A002094F85130EF
:10264000206C04EB4303B3F85410082390FBF3F21F
:1026500089B2821A0A4492FBF3F322649BB240F6D9
:10266000E4425343A4F85C10BAF806104FF47A72AF
:10267000C1EB13335343BAF9042093FBF2F325E083
:102680003178BAF806204907C9F8002020D503920E
:10269000029303F07DFB039A029B20B913F0100F05
:1026A00018BF4FF0000B0BFB0BF1322391FBF3F340
:1026B0009B44BAF9043003FB0BFB4FF47A739BFB8A
:1026C000F3FB5A44C9F8002002E00023C9F80030A7
:1026D000D9F80030D4E918015F434FF47A7397FBBF
:1026E000F3F7C01941EBE7710023C4E91801714AFF
:1026F0000FF0D0FD704B1860002363636F4A704B7E
:102700001768934617F480511ABF012283F8682096
:1027100083F86810AB6894F83C90DB052FD596F8E9
:1027200000A00AF0040A5FFA8AFA04F089FC18B1E2
:102730001AF1000018BF0120C00711D50123E26E75
:1027400084F869305F4B1078B3F900105378034474
:1027500003EB8303994203DD594B022283F869207E
:1027600004F06EFC28B1BAF1000F02D1022384F804
:102770006930544BB3F900300BB984F86930524BCF
:102780001A689A4612F0200F0BD017F4C06F05D0CC
:102790004E4B1B78990701D4012300E0002384F8F5
:1027A000703094F86920464B022A02D14C204E2109
:1027B00026E0012A06D153204D214C220B460BF076
:1027C00003FE32E093F87020012A03D15320014622
:1027D0004E2206E093F86820012A04D153200146D6
:1027E00002464D23EBE7B9F1020F04D15320014615
:1027F0004D224423E3E7B9F1010F03D153204D21CA
:102800000A46F6E7324F3A88120603D553204D2187
:102810000246D3E72F4A107818B119200BF0A8FD13
:1028200003E083F8710004F0BAF93278570703D552
:10283000294B08225A6178E0DBF80030D80703D42E
:10284000264942F001020A70DAF80020510702D549
:102850002349098861B92349098809B1920705D438
:10286000214A1288003218BF012200E0012242B141
:10287000194AD16881F00801D160327822F0010252
:102880003270124A1278170703D4327822F001020C
:102890003270D80203D5337823F0010333703378D4
:1028A000124A13F0010F23D0002363670A4B08215B
:1028B000196129E0407E05002C2A0020F80F002035
:1028C000A8190020E20F0020F40F00204E10002075
:1028D000FC0F0020A6120020000C0140722F0020E7
:1028E000622F00207A120020642F0020582F002031
:1028F000616F136841B9BD4903F5F42303F5907383
:102900004B67BB4B08215961636F12686BB1D21AD8
:10291000002A0ADBB64A03F5F423D16803F5907365
:1029200081F00801D160B14A5367B24F04F020FF33
:102930003B78002B72D0A36F002B00F09485A06F22
:10294000AA4D04F078F9002800F08D85A86F04F0F6
:102950006DF9092801D03F2853D14FF00009E66FE7
:10296000DFF8B4824D4636B1A348D8F8001032469D
:1029700012F030FC10B9C14605B945469F4B08F12D
:102980000C089845EFD3F5B1D5F800C0D9F8008010
:10299000E36F96481CF803E018F80310714512D154
:1029A0005A1C59B92D2B09D8C26703444FF0200E89
:1029B000024483F880E082F8801004E0234483F826
:1029C00080E0E267E4E7E36F0BB14D4510D08C483F
:1029D00004F0E6F94D4507D855F80C0B04F0E0F982
:1029E000092004F0D7F9F5E7864804F0D9F9002664
:1029F000E36F9E42A3D2804B985D04F0CBF9013681
:102A0000F6E7EB6F002B40F06185042840F0B285BB
:102A100005F1800004F08CFC00F025BD7A4F97F89A
:102A20004A30012B40F01A85784A794B3968176093
:102A3000196092469B46DBF80000DFF8D49104F061
:102A4000FAF8002800F0FB84D9F8000004F0EEF852
:102A5000DAF8003093F848201AB9242839D1012235
:102A600034E0012A04D14D280CBF022200222DE0BF
:102A7000022A04D13C280CBF0322002226E0032AAC
:102A800009D140284FF0000220D81A71DA7158712C
:102A9000987104221AE0042A06D19A7983F8490031
:102AA00050409871052211E0052A26D159791A79EA
:102AB0009142997906D941409971511C1971134479
:102AC00018721AE081420CBF0622002283F84820C7
:102AD00013E033785B0710D42328D9F8003040F096
:102AE000E584444A01214B481170A367C4F848317A
:102AF00004F056F9434804F053F9DAF80030DFF8EF
:102B00000C9193F84820062A95D193F8490002F0D9
:102B100015F9002840F08784D9F8002092F8493050
:102B2000442B00F07A8400F2A680312B00F041841F
:102B300033D8272B00F0A9830BD8232B00F0FB8080
:102B4000252B00F09B83212B40F0BD844FF0000922
:102B5000FCE22B2B00F0B78314D8292B40F0B38470
:102B600003F0CEFDA5F80A0103F0CAFDA5F80C019B
:102B700003F0BCFD85F80E0103F0C2FDA5F81001BD
:102B800000F04EBC2D2B00F0A2832F2B40F09B8435
:102B9000DFF8889009F1400AFAE3392B00F08283CC
:102BA0000ED8352B00F0B581372B00F0B383332BD3
:102BB00040F0898403F09AFD85F81C0100F030BCD8
:102BC0003E2B00F0F1802DD83C2B40F07C84DFF8C8
:102BD0005090D9F800A003F089FD8AF80000D9F8D8
:102BE0000030187804F0E8F900F01ABCA8190020A9
:102BF000000C01406D2F0020281A0020D091010800
:102C0000A4A70108A9A70108581A0020D02A00206B
:102C1000D42A0020D9A701089890010804070020B1
:102C2000F8110020412B00F06783432B40F04B84C8
:102C300003F05CFD0023AB60687103F06BFDAB68D3
:102C40001843A86003F052FD85F81A0103F058FDFF
:102C5000A5F8E80003F054FDA5F8EA0003F050FDE4
:102C6000A5F8EC0003F04CFDA5F80A0103F048FDBF
:102C7000A5F80C01D4E3CF2B00F0CA811FD8C92BD3
:102C800000F095820AD84A2B00F09780C82B48D0D4
:102C9000482B40F0188408F0BBF9C1E3CC2B00F0BE
:102CA000638104D8CA2B00F08C8000F00CBCCD2BC3
:102CB00000F06682CE2B00F06C8200F004BCD32BB7
:102CC0002AD005D8D12B00F09A8240F24E8210E033
:102CD000D62B00F0F48106D8D42B08BF4FF0000AA1
:102CE00000F01182EFE3EF2B4FD0FA2B00F05B8264
:102CF000E9E3337803F0040303F0FF09002B40F00D
:102D00008F8303F0F3FC022885F8600740F23382DA
:102D1000B64B83F860972EE203F0F2FCB44B1880B8
:102D20007EE392F805A04FEA5A0ABAF1120F1CD8B6
:102D30004FF000091CE003F0D9FC272815D8DFF874
:102D4000C0A200F11C0BDAF8003003EB8B0B03F090
:102D5000CDFCA84B0BF1050903F58A72197A814263
:102D600000F0C1800C339342F8D10DF073F857E3B3
:102D7000D14507D203F0C4FC9F4B23F8190009F199
:102D80000109F5E701229D4B0BE2DFF87492D9F8B7
:102D900000A003F0B5FCAAF85600D9F8009003F0A3
:102DA000AFFCA9F854003BE303F0A0FC85F8270131
:102DB00003F09CFC85F8260132E303F0A1FCA88116
:102DC0002EE38F4B1A6899461278022A6ED14FF083
:102DD0000009DFF82CA209F1080BDAF800300293A1
:102DE00003F084FC0EF0F2FF86490FF0FBF8029B23
:102DF00043F82B00DAF800B003F078FC09F10A037D
:102E00000BEB830B0EF0E2FF7F490FF0EBF8DAF8E3
:102E10000030CBF80400029303F068FC0EF0D6FFFC
:102E20007A490FF0DFF809F10E0B029B09F1010955
:102E3000B9F1030F43F82B00CBD1B9F1070FDAF842
:102E400000B01AD103F052FC0EF0C0FF6D490FF034
:102E5000C9F8CBF84400DAF800B003F047FC0EF0F4
:102E6000B5FF68490FF0BEF8CBF84800DAF800B0BB
:102E700003F03CFC8BF84C0012E003F037FC0BEB4A
:102E800009035870DAF800B003F030FC0BEB0903CB
:102E9000D872DAF800B003F029FC0BEB090358757F
:102EA00009F10109B9F10A0FC7D1B9E24FF0000ADF
:102EB000D9F800B003F01AFC0BEB0A035870D9F8EC
:102EC00000B003F013FC0BEB0A03D872D9F800B082
:102ED00003F00CFC0BEB0A030AF1010ABAF10A0F2A
:102EE0005875E5D19CE21B788BF8053003F0FEFBAA
:102EF00089F8010003F0FAFB89F8020003F0F6FB01
:102F000089F80300DAF8001001F175000CF058FFA1
:102F100086E203F0EBFB0B283FF627AF4FF0060AE3
:102F20000AFB00F0364B00F588701B6803EB000AC3
:102F300003F0DCFB03283FF618AF8AF80A0003F021
:102F4000D5FB8AF8050003F0D1FB8AF8060003F0F0
:102F5000CDFB8AF8070003F0C9FB8AF8080003F0EC
:102F6000C5FB8AF809005BE253790A2B7FF4FDAEBA
:102F7000D8F8009003F0BAFB89F80000D8F8009068
:102F800003F0B4FB89F8010003F0B0FBD8F800307F
:102F90006428A8BF6420187103F0A8FBD8F800309B
:102FA0006428A8BF6420587103F0A0FBD8F8003053
:102FB000FF28A8BFFF20987103F098FBD8F8009075
:102FC000642828BF642089F8070003F08FFB89F884
:102FD0000200D8F8009003F089FB89F80300D8F8C4
:102FE000009003F08DFBA9F8080019E20407002007
:102FF0008A130020D09101080A100020E80F002059
:10300000F8110020000020410000C84200007A446E
:1030100003F076FB6FF4AF6143189BB2C62B98BFE9
:10302000A5F81E0103F06CFBCD49DFF83C93A1F835
:10303000D00003F065FBCA4AA2F8D20003F060FB9F
:10304000C74BD9F800A0A3F8D40003F059FBAAF8A5
:10305000AA0103F04BFBC24981F8340103F046FB9F
:1030600003F044FBBE4A82F8350103F03FFBBC4B42
:1030700083F80F0103F03AFBB94981F81C0103F012
:1030800035FBD9F8009003F03BFB00EB80004000DB
:10309000A9F8520003F02AFBB14A82F8060103F0B6
:1030A00025FBAF4B83F8080103F020FBAC4981F806
:1030B000070103F01BFBAA4A82F80901B0E181462F
:1030C00003F01EFBA74B23F8090009F10209B9F12F
:1030D000100FF5D1A4E1A0F57A739BB2B3F57A7F16
:1030E00004D8D9F8003003EBCB035881D9F800900D
:1030F00003F0FCFA0AF1010A09EBCB03BAF1080F5D
:10310000187300F08D81DFF860920AF12C0BD9F86A
:103110000020039203F0F4FA039A4FEACB031A4417
:10312000D080D9F800200293039203F0E9FA029BC1
:10313000039A1A441081029303F0E2FA0728029BD3
:10314000C9D8D9F8002013445873C4E7864BD3F884
:1031500000A003F0CBFA0AEBC90309F10109B9F1A8
:10316000080F83F86D01F1D15AE133785A0700F165
:10317000578108F0E1FC04F08BFC04F029FD4FE1DD
:1031800033785B0700F14C81784B4FF4C8721A809A
:1031900046E13378580700F14381754B1A7842F0C5
:1031A00004021A703CE133785907E4D58BE103F04F
:1031B0009DFA6F4B1A7810B142F0020201E022F042
:1031C00002021A7003F092FA6A4BDFF8C09118708D
:1031D00003F0A0FAC9F8000003F09CFAC9F8040053
:1031E00003F08EFA644B188003F08AFA634B188060
:1031F00094F8503143F0020384F8503110E103F0A9
:1032000075FA029003F086FA834603F083FA824649
:1032100003F080FA814603F073FA03F071FA03F0C9
:1032200065FA029BABB95649C4F854B10B88C4F88F
:1032300058A123F010030B804D4B1A7842F0010285
:103240001A70B9F1000F00F0EB804E4BC3F80090FC
:10325000E6E0102B40F0E480C4F85CB1C4F860A153
:10326000B9F1000F02D0474BC3F800904648022343
:10327000011D84F8643109F0D7F9D1E0A86003F0AA
:1032800049FAAB681843A860CAE003F039FAA5F818
:10329000E80003F035FAA5F8EA0003F031FAA5F8E2
:1032A000EC00BDE003F022FA85F8060103F01EFAF7
:1032B00085F8080103F01AFA85F8070103F016FAF9
:1032C00085F80901ACE003F011FA6871A8E003F099
:1032D0000DFA85F81A0103F013FAA5F8220103F09C
:1032E0000FFAA5F81E0103F00BFAA5F8200103F070
:1032F000FDF985F81B0193E04FF0000903F0F6F9A2
:1033000005EB090309F10109B9F1080F83F812016E
:10331000F4D185E053791C2B7FF427ADDFF8409082
:1033200009F1200A03F0E2F989F83A0103F0E8F91B
:10333000A9F83C0103F0DAF989F83E0103F0D6F967
:1033400089F83F0103F0D2F989F8410103F0CEF981
:1033500009F1080989F83801D145E3D160E000BFDF
:1033600004070020C8140020F81100207A12002061
:103370004E100020F0110020322A0020302A0020B8
:10338000FC0F002000100020041B0020382A002021
:1033900003F0B6F9A9F8EC0103F0A8F989F8EE01F9
:1033A00003F0A4F909F1040989F8EB01D145EFD143
:1033B00036E003F09BF91F283FF6D7ACD9F8003070
:1033C0005B79082B7FF4D1AC00F15A0A03F098F92D
:1033D00005EB8A0A00F03F00AAF8060003F090F916
:1033E000BAF80620800100F4FE531343AAF8063011
:1033F00003F07CF900018AF8040003F077F99AF8E9
:10340000043000F00F0018438AF8040003F06EF94E
:103410008AF8050006F04CFD02E0012384F86531CE
:10342000002003F08FFCDFF8D491D9F800309879B0
:1034300003F058FCD9F80030002283F8482094F8B3
:1034400065315BB1386803F0DCFB18B9322003F05A
:103450009CFBF7E702F028FD04F0CAFA554A4C3706
:1034600097427FF4DCAA544B1B689A0616D5534B3F
:10347000D4F868211B689A1A002A0FDB504A127888
:10348000042A0BD94F4A03F5123303F5F873C2F837
:1034900068314D4BDA6882F01002DA604B4B9B6862
:1034A000002B00F083804A4898477FE0D4F84C31E5
:1034B0001B7883427FF421AB464A474B1A6004F0E5
:1034C00097FAFFF71ABB0CF0C5FCACE70C2803D148
:1034D000424803F065FC3EE00A2801D00D283CD1AB
:1034E0003F4803F05DFCE36F0BB9E36709E0354A41
:1034F000591E02F18000085C202801D10B46F3E739
:10350000D3672344002283F8802094F88030232B53
:1035100017D0344B344E0A92009309A833491A222B
:103520000C23099611F0A7FE054638B1006811F08A
:1035300049FE0130AB683044984702E02C4803F064
:103540002FFC29480021302211F0FBFD0023E36706
:103550003B78002B87D0274808E07F2810D1013B1B
:10356000EB6700222B44244883F8802003F018FCEA
:10357000FFF7E5B90C28ABD07F2804D1FFF7DFB9FE
:103580002F2B3FF6DCA9A0F12002D2B25E2A3FF633
:10359000D6A913B920283FF4D2A95A1C2344E267C4
:1035A00083F8800003F0F6FBFFF7C9B90DB0BDE862
:1035B000F08F00BFF01A0020F40F0020582F0020D9
:1035C000F0110020A8190020000C0140FC1100207F
:1035D000141B0020EFBEADDEF04F0020AEA70108A7
:1035E0000EB4010835640008281A002098900108DC
:1035F000B9A70108A9A70108D5A70108D02A00206A
:1036000097492DE9F04F0B68964A03F59C43964D78
:1036100020331360AA6885B012F4807F0C4603D073
:10362000924B19880131198042F2010313401BB1FA
:103630008F4B1A7801321A7007F088FFAB68D804F4
:1036400005D58C4B1B68D90701D40DF019FE8A4BA8
:1036500024681868837A83B1884A013B32F91300E1
:10366000A0F57A70B0F57A7FA8BF4FF47A7020EA9F
:10367000E0700EF0AFFB82492FE0AA68120435D546
:103680007B4A5168611A002930DB04F59C412031E6
:1036900051607C494E797C4931F81660C17AB6B2E6
:1036A00096FBF1F0117A013101F00F0111720A4419
:1036B00050721846754A9A5C01331044102B80B240
:1036C000F8D100B290FBF3F000B26428A8BF6420E8
:1036D00020EAE0700EF07EFB6D490EF083FC6D4930
:1036E0000EF0CCFB0EF0B6FD6B4B1880AB686B4E4A
:1036F00013F4807F38D06A4B9C4204D95B4B1A7913
:103700000AB901221A7103F09BFC00282CD0574AF9
:103710001179134609B9118026E03278614912F017
:10372000040F12D05D4842F002020270504A534C1E
:10373000D26990892080908960809289A2800A68ED
:103740005288E2805A8801325A800A68B3F9001020
:1037500010785378034403EB8303994202DC3378F7
:103760005F0701D40DF08CFDB5F8DE0002F010FB10
:10377000804660B903F056FC3D4B0022C3F8208020
:10378000C3F82480C3F82880DA621A635A63337856
:103790005C0720D5AB68D8061DD5434B1B78D906EE
:1037A00019D4314B93F82721AAB1404B1B7893B120
:1037B0002F4B3F49B8F1000F07D10A689B6B9B1A4A
:1037C000002B08DA0DF05CFD05E009684FF47A7013
:1037D00000FB02129A63002295F8259195F82611B4
:1037E000B5F82041B5F822711346DFF890C09B0868
:1037F0003CF902000232A042C4BF63F07F03DBB297
:10380000B842B8BF43F04003082AEED1184C94F8F0
:103810003C209A4205D194F83D20F92A04D801327F
:1038200000E0002284F83D2084F83C301F4B114F0B
:103830001A789A46002A40D13B68DA0708D5B8F1D1
:10384000000F3AD13378DB0737D503F031FE34E08F
:103850003378580731D569B30DF012FD2DE000BF64
:10386000582F0020EC0F002004070020E20F00205A
:10387000181B0020F80F00208C0E00200A100020DA
:1038800000007A44EC190020FC190020211B0020C4
:103890000000C84200C07F44B01D0020722F0020ED
:1038A000404B4C00141A00204E1000202D00002028
:1038B000402F0020B8F1000FCED094F83D30AD4A33
:1038C000142BDFF8F4826CD1337819F1000903F07E
:1038D000040318BF4FF0010903F0FF019BB19AF8F0
:1038E0000030002B5DD092F83C305F2B01D10DF001
:1038F000C7FCB9F1000F54D094F83C307D2B50D167
:103900000DF0BEFC4DE092F83C30572B15D19A4B90
:103910004FF47A721A80AB68190601D506F080FB65
:10392000964B1B685A0702D5954A0A21118013F05D
:10393000080336D1934A138033E0A868400715D5B1
:103940005A2B13D1904B187818B1197001228F4B54
:1039500008E092F83E108E4B81F0010182F83E1093
:1039600011B104221A701CE00622FBE75D2B00F067
:103970007E845B2B00F07D845E2B02D1032200F05D
:1039800079BC562B01D104F02FFC9AF80030002BA3
:1039900000F0878494F83C306F2B40F07C8403F077
:1039A00087FDAB68580732D594F83E30A3B1337821
:1039B000590711D57748784BB0F90620B3F8203174
:1039C0009A4209DD3B6813F0010305D1734A3221A5
:1039D0001180684A82F83E303B68DA030AD5704BA2
:1039E0001A782AB9684A127812B96C4A32211180C1
:1039F00001220BE0644B1A784AB1327802F00402DB
:103A000002F0FF011AB91970604B01221A70D8F840
:103A10000090002309F1750A3B6009F1770698468A
:103A20000AF1020303EB080113F808204B7816F89B
:103A3000010C9A420AD231460AF076FC30B116F8EF
:103A4000023C01229A403B6813433B6008F10408A2
:103A5000B8F1A00F06F10406E2D1524B1B783BB13E
:103A60003B68464E13F0020F4F4C40F0D582CDE23A
:103A700009F21512019209F58B769846DDF804C01B
:103A800016F8010C0CF1010303EB080113F80820F0
:103A90004B789A4229D231460AF046FC28B396F870
:103AA00002C03079414B0CF1FF3C4FF00C090CEB9C
:103AB0004C0C09FB00F99C442E4B96F803B003F123
:103AC000400A0AEB09014A6862450ED000220AF852
:103AD00009B08A60012202FA00F093F87020C1F860
:103AE00004C022EA000083F8700008F10608B8F16B
:103AF000480F06F10606C1D12D4A2E4B12681E68EA
:103B0000DFF8B89001924FF00008D9F80030002B90
:103B100000F073821A78002A00F06F82D9F804103E
:103B20000198411A00290CDB00F5FA71C9F804105C
:103B3000012101FA08F194F8700020EA010184F8EB
:103B4000701019F8041C58780431C9B2002840F0EC
:103B50001682104830F91110B5F81E0100F1C80C9A
:103B6000614501DD98783AE0C838814228DA9878D2
:103B7000404234E0181B0020642F0020F40F002086
:103B8000622F0020EC120020A5120020A7120020B6
:103B9000A61200200A100020040700208C1200202A
:103BA000A41200206D2F0020FC0F0020E4920108D9
:103BB000402F0020A8130020F81100205C1B0020DB
:103BC000012303FA08F394F8702022EA0303019A10
:103BD00084F8703002F5FA73C9F804300DE294F8F5
:103BE000703043FA08F3DB0700F107820028AE4B80
:103BF000CCBF022101211970531E0D2B00F2F5815B
:103C0000DFE813F00E0017002300300044004A00E4
:103C10009700E400310165019101F30130003B00A0
:103C200033781844FA28A8BFFA2020EAE0703070F0
:103C300007E0737818446428A8BF642020EAE07085
:103C40007070304602F016FECFE1F3781844642815
:103C5000A8BF642020EAE070F070616F304602F087
:103C6000C5FDC2E173790344642BA8BF642323EA32
:103C7000E3730D2A737100F0B88133791844642816
:103C8000A8BF642020EAE0703071AEE1B379184437
:103C900080F30800B071A8E1D4F878B09BF8002058
:103CA000022A31D10EF096F880490EF09BF9DBF82C
:103CB000241000900DF0DAFF002182460EF07CFA0D
:103CC00038B950467A490EF095FA20B1DFF8E0A1F4
:103CD00001E04FF0000ACBF824A0DBF82010009898
:103CE0000DF0C4FF002182460EF066FA38B9504646
:103CF0006F490EF07FFA20B1DFF8B4A101E04FF078
:103D0000000ACBF820A070E19BF802200244C82AE8
:103D1000A8BFC82222EAE2728BF802209BF8012099
:103D20001044C828A8BFC82020EAE0708BF8010022
:103D30005BE1D4F878B09BF80020022A31D10EF074
:103D400049F85B490EF04EF9DBF8301000900DF0A9
:103D50008DFF002182460EF02FFA38B950465449A3
:103D60000EF048FA20B1DFF848A101E04FF0000A58
:103D7000CBF830A0DBF82C1000980DF077FF002175
:103D800082460EF019FA38B9504649490EF032FA17
:103D900020B1DFF81CA101E04FF0000ACBF82CA005
:103DA00023E19BF80C200244C82AA8BFC82222EABB
:103DB000E2728BF80C209BF80B201044C828A8BF97
:103DC000C82020EAE0708BF80B000EE1D4F878B040
:103DD0009BF80020022A31D10DF0FCFF35490EF08E
:103DE00001F9DBF83C1000900DF040FF0021824605
:103DF0000EF0E2F938B950462D490EF0FBF920B12A
:103E0000DFF8ACA001E04FF0000ACBF83CA0DBF8F3
:103E1000381000980DF02AFF002182460EF0CCF9F0
:103E200038B9504622490EF0E5F920B1DFF880A0FC
:103E300001E04FF0000ACBF838A0D6E09BF816203E
:103E40000244C82AA8BFC82222EAE2728BF81620D0
:103E50009BF815201044C828A8BFC82020EAE070AD
:103E60008BF81500C1E0D4F878B09BF80030022B35
:103E700022D10DF0AFFF0D490EF0B4F8DBF8281099
:103E80000DF0F4FE002182460EF096F938B9504646
:103E900007490EF0AFF920B1DFF814A001E04FF0B0
:103EA000000ACBF828A0A0E0A612002000002041C4
:103EB0000000C84200007A449BF803301844C82828
:103EC000A8BFC82020EAE0708BF803008DE0D4F88A
:103ED00078B09BF80030022B1AD10DF07BFFA3497C
:103EE0000EF080F8DBF834100DF0C0FE00218246A1
:103EF0000EF062F938B950469C490EF07BF920B1BA
:103F0000DFF868A201E04FF0000ACBF834A06CE0C3
:103F10009BF80D301844C828A8BFC82020EAE070DC
:103F20008BF80D0061E0D4F878B09BF80030022BDC
:103F30001AD10DF04FFF8E490EF054F8DBF8401007
:103F40000DF094FE002182460EF036F938B9504645
:103F500086490EF04FF920B1DFF810A201E04FF0D2
:103F6000000ACBF840A040E09BF817301844C8285E
:103F7000A8BFC82020EAE0708BF8170035E00128C0
:103F800033D198787B4B33F91110B1F5617F05DBA4
:103F900040F633039942B8BF0B4601E04FF461731A
:103FA0000C2A22D14FF4966AA3F561739AFBF0FABA
:103FB00093FBFAFA94F87C305FFA8AFA534514D0EE
:103FC000BAF1030F6C4A94BF534602230A2184F8C6
:103FD0007C3001FB032369480233036002F064FC78
:103FE000674B0AF1010A83F800A0012303FA08F3E2
:103FF00094F87020134384F8703008F10108B8F188
:10400000040F09F10C097FF480AD29E5AB68D805F0
:1040100014D503F015F888B1336899070ED52388B5
:10402000DFF86C8113F001090ED102F0FBFFB8F844
:10403000003043F00103A8F8003005E0238823F0A6
:1040400001032380012300E000233A68520711D5C1
:1040500083B12388DFF8388123F001029B07228097
:104060000CD402F0DFFFB8F8003043F00203A8F8E8
:10407000003003E0238823F0020323802388414A91
:1040800013F0030F4FF0100114BF5161116131683B
:1040900011F00A0F22D03A68D60609D558070AD47B
:1040A00043F004032380384B1888384B188002E013
:1040B00023F0040323809606238806D5580607D4E8
:1040C000334843F04003038002E023F040032380A1
:1040D000530603D52C4B1A882E4B1A808E0607D414
:1040E0003B68180540F1B580238843F48073B3E042
:1040F000294B1B78990775D5284B1B78042B71D950
:104100003B6813F400700ED02388DA06E8D4244804
:104110001F4A23F0200343F01003011D138008F011
:1041200083FA022268E0218801F0100292B232B1D3
:10413000174A21F0100111801A4A107001225E0501
:104140004AD5194B1B685989184BB3F90000002850
:10415000B8BF404288422BDAB3F90230002BB8BF17
:104160005B428B42ACBF0023012322E00000C84227
:1041700000007A440A100020640E0020A8130020DA
:10418000A6120020000C0140EC1200208A1300202F
:10419000FC0F0020D81900204E100020F011002044
:1041A000FC1A00200C1B00209C130020821300200E
:1041B00000238BB12388980621D4644A43F020035E
:1041C0001380634B63481A685B68011D026043609B
:1041D00008F02AFA01220FE0238899060FD523F070
:1041E000200306E0238813F0300F3FF479AF23F06B
:1041F0003003564A13800022574B1A7002E0002AFF
:104200003FF46EAF00231A465449002050525449DF
:10421000544E5052544906EB030C50520021995110
:104220000232CCF80400CCF8081006F1280C503605
:1042300043F80C1099519C441E44042ACCF8040005
:10424000CCF808107060B16003F114033FF448AF7C
:10425000DAE7238823F4807323806B79082B01D05D
:104260000E2B6FD1238823F0400323806AE00122C4
:1042700000E002225FFA82F909F1FF3385F8603726
:1042800003F006FC03F0A4FC022028214A4602F0B9
:104290008DFCFFF786BBB9F1000F02D07E2B3FF4F7
:1042A0007EAB94F83C30972B05D1304B4FF4C8725D
:1042B0001A80FFF776BBA72B05D12D4B1A7842F059
:1042C0000402FFF74FBB0022BB2B039201D1022354
:1042D00003E0B72B04D14FF6FE73ADF80E3009E0C2
:1042E000BE2B01D1022303E0BD2B1AD14FF6FE7382
:1042F000ADF80C30D8F80030BDF80C10B3F85420ED
:104300000A44A3F85420BDF80E10B3F856200A440E
:10431000A3F8562003F068FF002384F83D30FFF730
:1043200040BB792B04D1134BDA7822F0010206E06E
:104330007A2B7FF436AB0F4BDA7842F00102DA7059
:10434000FFF72FBB05B0BDE8F08F00BFFC0F0020CA
:10435000382A0020041B00200C1B00206E2F002098
:10436000A0130020981B0020A41300207A12002024
:104370004E100020040300202DE9F04F8E4F8DB029
:104380003B78023B072B00F2B384DFE813F0080010
:104390002E004F0069008000FB005501A204874BEE
:1043A000874D1A686B6864339A4240F2A1840024F6
:1043B000844B854A1B789C420ADA2B68804ED05C7D
:1043C00030B10CF0F3F83368013401333360EFE7B8
:1043D00029687B4B525C002A40F08A841A604FF0B7
:1043E000FF325A60032300F08ABC24230093774BEA
:1043F000062103F10C0201930292A3F12200A3F122
:104400000A02023306F03AFE002840F07184704B35
:104410009B6813F080026A4B06D04FF0FF321860A1
:104420005A60042300F06BBC1A602DE00223009355
:10443000684B042103F10C0201930292A3F11800CE
:10444000A3F108020B4406F019FE002840F0508446
:104450005B4B4FF0FF3218605A60052300F04FBCF1
:10446000072300935C4B042103F10C020193029299
:10447000A3F11800A3F108020B4406F0FFFD002889
:1044800040F036844E4B1860062300F038BC4C4C8C
:10449000236813B96360012323604A4B1D78636866
:1044A0001D44402DA8BF4025132D656040F3208496
:1044B000434B1B680D2B00F22184DFE803F05F07FC
:1044C0000B0E121923282D3135414C5243480CF064
:1044D0001FF851E04248434940E043484349444AB9
:1044E00048E03B4B434893F8801793F8812741E01D
:1044F000374B0A2193F860273F4801FB023393F8BA
:1045000062172BE0324B3D48B3F8D01026E0304B19
:104510003B48B3F8D21021E03A4B3B48D9681DE044
:104520003A4B3B48198819E03A4B1B68DB0404D529
:10453000274B394893F8061110E00C2323601DE047
:10454000234B364893F8081193F8092193F8073163
:1045500009F0FAFB10E02F4B3148998809F0F4FB81
:104560000AE01B4B9A68160508D52E48B3F80C11C3
:10457000B3F90A2109F0E8FB281A606023680133C7
:104580002360B5E3284B00241C60284B0CAD1C6055
:10459000274B1C6008233B7002F094F945F8140D7A
:1045A000012002F0FCFA234B0122204629461A7012
:1045B0000CF043F89CE300BFE6060020402F0020EB
:1045C000F40600206C00002010930108A693010857
:1045D00004070020649501088C9501084CAB010884
:1045E00069AB010881AB010889AB0108A0AB0108E8
:1045F000ACAB0108B5AB0108C9AB0108D6AB0108EB
:10460000E8AB0108FC110020FAAB01081C000020F7
:104610000DAC0108101C00201AAC01082AAC0108DE
:1046200046AC010854AC0108F0060020EC0600205E
:10463000E8060020A6120020C14B1868002840F0B0
:10464000BB80C04D05F052FB4920AC680BF0AEFFBB
:10465000BD4B0E2618680BF0E1FF20680BF0DEFF63
:1046600060680CF05BFAA0680CF058FAE0680CF097
:1046700055FA20690CF052FA60690CF04FFAA06903
:104680000CF04CFA0122B2402B681A4205D004EB20
:10469000860353F81C0C0CF041FA0136112EF1D1AF
:1046A000B4F928000CF03AFAA84EB4F92A000CF03C
:1046B00035FAB4F92C000CF031FAB6F8D030B4F970
:1046C0002E00C01A0BF0AAFF2B68D80408D59D4B0A
:1046D0009888B4F86430C01AC0F30D000BF09EFF48
:1046E0002B68990403D5B4F866000BF097FF2B688C
:1046F0005A0506D42B681B0510D5A06E0CF00EFAD7
:104700000CE0B4F96C000CF009FAB4F96E000CF08E
:1047100005FAB4F970000CF001FAEBE7B4F93000D7
:104720000CF0FCF9B4F932000CF0F8F9B4F93400EB
:104730000CF0F4F9B4F936000CF0F0F9B4F93800E3
:104740000CF0ECF9B4F93A000CF0E8F9B6F8D03016
:10475000B4F93C000126C01A0BF060FF7C4B1B78BB
:104760009E420ADA04EB4603B3F93C00B4F93C304C
:104770000136C01A0CF0D2F9F0E72B68980507D57E
:10478000704B9B68B3F95E00A0F2DC500CF0C6F9E8
:10479000AB68704A7049EB602B619B1A9B104B43CE
:1047A0000321013393FBF1F101EB41015B1A742109
:1047B00001FB0322AA607CE2644B013893F8802756
:1047C00093F881171044B0FBF1F401FB14019142FE
:1047D00080F033825B4D05F089FA5020D5F80890BF
:1047E000D5F80C800BF0E2FE2A69AB6810681B68F4
:1047F00000241844EB681B68A0EB43000CF08EF912
:1048000009EB040208EB040350685B680434C01A27
:104810000CF084F90C2CF3D1002309EB030108EB15
:1048200003020969126907AC8A1A1A5104330C2B66
:10483000F3D100221346A15801F120003F2820D8CF
:1048400001F108000F2806D80231032904D9002BF2
:1048500008BF012300E0022304320C2AEBD1012B14
:10486000079813D0022B1FD0089B00F0030003F021
:1048700003039B0043EA0010099B03F00303184362
:104880001EE009AA06A84FF0000A1DE000F00F0084
:1048900040F040000BF08AFE099B03F00F02089BDA
:1048A00042EA0310C0B20BE000F03F0040F080008D
:1048B0000BF07CFE9DF820000BF078FE9DF82400A4
:1048C0000BF074FE0E265FE052F804194FEA8A0AD4
:1048D00001F18006FF2E10D901F50046B6F5803FA4
:1048E00002D24AF0010A08E001F50001B1F1807F2F
:1048F00034BF4AF0020A4AF0030A8242E4D16AF065
:104900003F00C0B20BF052FE00260AF00302022A5A
:10491000A05D09D0032A21D0012A2DD10BF046FE3B
:10492000A059C0F3072027E00BF040FEA059C0F3C8
:1049300007200BF03BFEA059C0F307401CE000BF6E
:10494000EC060020101C0020F006002004070020C8
:10495000732F0020241C002035C2724F0BF026FE5E
:10496000A059C0F307200BF021FEA059C0F3074067
:104970000BF01CFEA059000E04360BF017FE0C2E97
:104980004FEAAA0AC1D19DE70122B2402B681A4220
:104990000AD0B30009EB0302434452F81C0C53F84D
:1049A0001C3CC01A0CF0BAF80136112EECD10023D1
:1049B00009EB0302B2F9281008EB0302B2F9282030
:1049C0008A1A44F813200233082BF1D10AAB06A847
:1049D0004FF0000B53F804194FEA8B025FFA82FB89
:1049E00069B101F108060F2E02D84BF0010B06E069
:1049F0008031FF2994BF4BF0020B4BF0030B834235
:104A0000E8D14FF0000A58460BF0D0FD5646534609
:104A10000BF00300022814D0032820D0012838D13D
:104A20002EB954F80A1006460901CBB231E054F809
:104A30000A00002600F00F00184305930BF0B6FDA6
:104A400005E036B914F80A0005930BF0AFFD059B9D
:104A50001FE054F80A00C0F30310184313E054F8A1
:104A60000A003EB9C0F3072005930BF09FFD14F830
:104A70000A00EAE7C0F3033018430BF097FD54F83F
:104A80000A00C0F307100BF091FD54F80A10090159
:104A9000CBB20AF1040ABAF1100F4FEA9B0BB7D15F
:104AA000012E02D118460BF081FD2A6812F48056BF
:104AB00006D0B9F86410B8F864300126CB1A079311
:104AC00091040AD50CA901EB8603B9F86600B8F881
:104AD00066100136411A43F8141C530512D504EB35
:104AE0008601002309EB0300B0F96CE008EB03003A
:104AF000B0F96C00C0EB0E0041F813000233062B36
:104B0000F0D1033610050BD50CAA02EB8601D8F8BC
:104B10006830D9F868200136D31A41F8143C00E017
:104B200026B1012E04D107980BF0F8FF00241AE0FB
:104B3000731E04EB8602002052F8041D4000C0B230
:104B400009B140F00100013BF6D50BF02FFD4FF00D
:104B5000000B54F82B0008B10BF0E0FF0BF1010B38
:104B6000B345F6DBE2E7AA6804F1180332F9130053
:104B7000EA68013432F913102A6932F9133002223B
:104B80000B4493FBF2F3C01A0BF0C8FF032CEAD1DD
:104B90000024AA6804F118035B001A44B2F9060065
:104BA000EA6801341A44B2F906102A691344B3F9C9
:104BB000063002220B4493FBF2F3C01A0BF0AEFF57
:104BC000032CE6D10024504B1B789C4217DAAA68CC
:104BD00004F11C035B001A44B2F90400EA680134D2
:104BE0001A44B2F904102A691344B3F904300222BA
:104BF0000B4493FBF2F3C01A0BF090FFE3E72B6832
:104C0000990506D5B9F95E00B8F95E30C01A0BF007
:104C100085FFEB68AA682B613C4B3D49EA60D21ADC
:104C200092104A430321013292FBF1F101EB410161
:104C3000521A742101FB0233AB6036498B681A06A5
:104C400037D5354C354D2268D5F870319A420CD1A4
:104C50006268D5F874319A4207D1314A1368102B33
:104C600013D1304B1B685B060FD148200BF09EFC24
:104C700020680BF053FF60680BF050FF2368C5F805
:104C800070316368C5F8743111E0274A234B1178FD
:104C900095F8802191420AD1244AD3F878111068FE
:104CA000884204D15268D3F87C319A4201D00BF08B
:104CB00039FF1F4B1A6801321A60194B1A6801320A
:104CC000202A04D100221A60164B1A6801321A6099
:104CD0000EE0184B1A68184B5B68C8339A4203D928
:104CE00002F0CEFB01230AE00BF04EFC0028F7D1C6
:104CF00006F0E8FC28B101233B7002E007233B707B
:104D0000F6E70DB0BDE8F08F732F0020241C0020C3
:104D100035C2724F04070020FC1A0020101C00202E
:104D2000EC060020E8060020F0110020382A0020C0
:104D3000F0060020402F0020F40600202DE9F04F5F
:104D40004728A9B0044600F05B8600F2BC802E28FC
:104D500000F0098655D8202800F00B8323D80328BB
:104D600000F0A78114D8012800F09881022840F0B3
:104D70007D86042001F0E6FF432001F0B3FF4C20C4
:104D800001F0B0FF462001F0ADFF4C2000F0F4BC74
:104D9000042800F09781052840F068861A2001F069
:104DA000D1FF00249DE1262800F07F850CD8222821
:104DB00000F04684242840F05986042001F0C2FF08
:104DC000D44B986800F04EBE2A2800F07F852C282E
:104DD00000F08285282840F04986CE4C072001F05B
:104DE000B1FFB4F90A0101F0B0FFB4F90C0101F010
:104DF000ACFF94F80E0101F075FFB4F9100100F05A
:104E000062BD3A2800F0EF821DD8342800F03884C3
:104E10000DD8302800F0BD85322840F027860120CB
:104E200001F090FFBB4B93F81C0100F0A5BC3628A5
:104E300000F07785382840F01986042001F082FFC1
:104E4000B44C00F08BBC402800F05D8511D83B28A5
:104E500000F0EF833D2840F00986AE4C022001F0BF
:104E600071FF94F8270101F03DFF94F8260100F04E
:104E700083BC452800F0E78500F2B085422840F069
:104E8000F585A44C102001F05DFF607901F02AFF48
:104E9000A06801F0E8FE94F81A0101F023FFB4F9CC
:104EA000E80001F052FFB4F9EA0001F04EFFB4F956
:104EB000EC0001F04AFFB4F90A0101F046FFB4F931
:104EC0000C0100F000BD6F2800F0F0826DD868285A
:104ED00000F05F8229D8652800F03C811AD8492863
:104EE00000F0B182642840F0C1850720894C01F0B0
:104EF00029FFE72001F0F6FE607901F0F3FE0020C3
:104F000001F0F0FE94F83231002B0CBF04200C208D
:104F100000F0A8BD662800F0CC81672840F0A68587
:104F2000102001F00FFF0024FCE16B2800F0438407
:104F300028D8692800F039826A2840F09785102027
:104F400001F000FF744B754C187800F0020001F07E
:104F5000C9FE734B187801F0C5FE206801F083FE8E
:104F6000606801F080FE6F4BB3F9000001F0EDFEC8
:104F70006D4BB3F9000001F0E8FE6C4BB3F91E0075
:104F800000F0A1BC6D2800F0238200F23182684C51
:104F9000062001F0D7FEB4F9000001F0D6FEB4F906
:104FA000020001F0D2FE634B1AE2762800F015846D
:104FB0004DD8732800F0F4833ED8702800F09D820D
:104FC000722840F05385534C162001F0BBFEB4F913
:104FD0001E0101F0BAFEB4F9D00001F0B6FE564D44
:104FE000B4F9D20001F0B1FEB4F9D40001F0ADFE85
:104FF0002B68B3F9AA0101F0A8FE94F8340101F07E
:1050000071FE002001F06EFE94F8350101F06AFE99
:1050100094F80F0101F066FE94F81C0101F062FEA5
:10502000002001F05FFE2B68B3F952000A2390FBC9
:10503000F3F001F08AFE91E3742800F042837528B2
:1050400040F014852F2001F07DFE3C4CE9E2A028C1
:1050500000F01D840AD8772800F06583782840F096
:105060000585382001F06EFE002563E1F02800F090
:105070000184FE2800F0F083A42840F0F7842B4D33
:10508000002495F820002E4680000130C0B201F0C7
:1050900059FE95F8200001F025FEC4E3032001F03D
:1050A00051FE002001F01EFE204601F01BFE0820EC
:1050B00062E301F047FE012001F014FE092001F037
:1050C00011FEAEE3062001F03DFE00241C4B1B68E0
:1050D000185D013401F006FE042CF7D1194B187845
:1050E000F1E3194B185D013401F0FCFD0B2CF8D1F4
:1050F0000024164B185D013401F0F4FD082CF8D1A2
:105100000024134B185D013401F0ECFD072CF8D19D
:1051100000F0AABC040700204E100020382A00200E
:10512000F0110020322A0020302A0020941D002097
:1051300088110020EC120020F8110020D7950108FA
:1051400070000020742F0020A0AB0108ACAB010858
:1051500081AB01080B2001F0F5FDBE4BBE4CB3F94D
:10516000000001F0F2FD208800B201F0EEFDBB4B23
:105170001B68C3F3C000C3F38002800040EA420012
:10518000C3F340021043C3F3401240EAC20003F0ED
:105190001003184301F0D9FDB14BA4781A8812F01E
:1051A000010F0CBF0021022112F0020F0CBF0023DF
:1051B000042312F0040F01910CBF0021102112F002
:1051C000400F02930CBF00232023049312F0100F12
:1051D000A44B03910CBF00214FF4007112F0200F7B
:1051E0001B6805910CBF00214FF4806112F4807F91
:1051F00006910CBF00214FF4006102F0080B03F48C
:10520000807A079103F4805903F4005803F4804C2A
:1052100003F4004E03F4803703F4003603F48025D2
:1052200003F4002003F4801103F0C00343EA0B03EE
:1052300043EA0A0343EA090343EA080343EA0C0387
:1052400043EA0E033B431E43874B35431B782843F9
:105250000143C3F380030B43019912F4007F43EA37
:10526000010302990CBF00224FF400120B43039973
:1052700000200B4304990B4305990B4306990B43FC
:1052800007990B431A430346A3420CD277495D5C4E
:10529000012101FA05F5154218BF994003F10103F8
:1052A00018BF0843F0E701F0DEFC714B93F860078C
:1052B00062E2122001F046FD6E4B6F4C1B88B3F585
:1052C000806F22D90025605F082390FBF3F0023540
:1052D00001F03BFD062DF6D1684CB4F9000001F059
:1052E00034FDB4F9020001F030FDB4F90400644C5F
:1052F00001F02BFDB4F9000001F027FDB4F9020024
:1053000001F023FDB4F90400DDE2B4F9000001F07E
:105310001CFDB4F9020001F018FDB4F9040001F01D
:1053200014FDD9E7574B185D013401F0DBFC102C5C
:10533000F8D199E3544E05F12C043368E40023447A
:10534000B3F9060001F001FD336801352344B3F9D8
:10535000080001F0FAFC33682344B3F90A0001F0B5
:10536000F4FC33681C44207B01F0BCFC082DE1D127
:105370007AE3082001F0E6FC0024434B1B6803EBB2
:10538000C40393F86D01013401F0ACFC082CF4D196
:105390006AE3102001F0D6FC00243C4B185D013478
:1053A00001F0A0FC102CF8D15EE32B4D0024687EA8
:1053B000400000F0FE0001F0C5FC6B7E9C4280F0D6
:1053C0005383334B33F9140001F0BFFC0134F4E78D
:1053D000062001F0B7FC2F4B186801F044FC2E4B5F
:1053E000B3F900006FE2042001F0ACFC2B4B5AE251
:1053F000072001F0A7FC2A4B4FF6FF74187801F044
:1054000071FC284B1868A042A8BF204620EAE07033
:1054100000B201F09AFC104BB3F91C0001F095FCAE
:10542000134B93F80F21204B42B11B680A205843BD
:10543000A042A8BF204620EAE07002E0186800F30E
:105440000F0000B23FE2022001F07CFC084BB3F9F0
:105450000C0038E202130020941D0020F40F0020FD
:10546000FC0F0020F80F0020722F0020971D002055
:10547000040700201C000020C01200205C2F002028
:105480004810002096140020F81100207814002005
:105490000A10002004100020B01100208C11002000
:1054A000202A00202C2A0020282A0020B44C0A2080
:1054B00001F048FC23680025187801F013FC2368EC
:1054C0002646587801F00EFC3368AD4C2B44187911
:1054D000013501F007FC032DF6D12368D87901F0DE
:1054E00001FC2368987801F0FDFB2368D87801F06F
:1054F000F9FB2368B3F90800E5E1A24D1E2001F095
:1055000021FC2B6800241B78022B77D12B6804F137
:10551000080253F822009C490CF0B0FC10F0C4F8CB
:10552000FA28A8BFFA2020EAE070C0B201F0DAFB46
:105530002B68964903EB8403D86A0CF09FFC10F0AB
:10554000B3F8FA28A8BFFA2020EAE070C0B201F050
:10555000C9FB2B6804F10E0253F822008C490CF0B1
:105560008DFC10F0A1F86428A8BF642020EAE07048
:10557000C0B2013401F0B6FB032CC7D1072C2B6855
:105580002AD1586C80490CF079FC10F08DF8FA287B
:10559000A8BFFA2020EAE070C0B201F0A3FB2B689C
:1055A0007949986C0CF06AFC10F07EF8FA28A8BFD4
:1055B000FA2020EAE070C0B201F094FB2B6893F867
:1055C0004C000CF003FC10F06FF8FA28A8BFFA208A
:1055D00020EAE070C0B20BE02344587801F082FB6F
:1055E0002B682344D87A01F07DFB2B682344587D37
:1055F000013401F077FB0A2CC0D135E22B6823443B
:10560000587801F06FFB2B682344D87A01F06AFBCD
:105610002B682344587D013401F064FB0A2CEDD142
:1056200022E214F8010F002800F01E8201F05AFB5C
:10563000F7E7012001F086FB524B1B6818789BE0CE
:10564000A02001F07FFB00244E4B04F11C021B68DC
:105650000C2103EB82035D1D4E4A5B79013401FB93
:105660000323187A01F03EFB687801F03BFBA87831
:1056700001F038FBE87801F035FB282CE4D1F3E1A8
:10568000482001F05FFB002506266E433D4B06F5E2
:1056900088761B6801351E44B07A01F023FB7079CF
:1056A00001F020FBB07901F01DFBF07901F01AFB4D
:1056B000307A01F017FB707A01F014FB0C2DE3D166
:1056C000D2E1002701240025334B9A78954222DA53
:1056D0000333E95C00232F4A03EB02089A5C8A42F9
:1056E00004D00C33B3F58A7FF5D112E0D8F804006A
:1056F0000FF068FD81460CB9264601E0074408E03A
:105700004E4506DAD8F80430985D01F0EBFA013620
:10571000F6E70135D8E7002C00F0A681F8B201F0D9
:1057200011FB0024CFE71C4D0024A87801F00AFBF0
:10573000AB789C4280F09881184BE05C0023154ABE
:1057400099189A5C824204D00C33B3F58A7FF6D163
:1057500002E0087A01F0C6FA0134E9E794F806019C
:1057600001F0C0FA94F8080101F0BCFA94F80701BE
:1057700001F0B8FA94F8090101F0B4FA74E100BF3D
:10578000A8130020F8110020000020410000C842AA
:1057900000007A44D0910108941D0020971D00203C
:1057A000082001F0CFFA0124E0B2013401F09AFAA6
:1057B000092CF9D158E1052001F0C4FAAD4BB3F939
:1057C000000001F0C2FAAC4BB3F9000001F0BDFAE1
:1057D000AA4B187800F00100CEE700F087FF0646DC
:1057E000122001F0AFFA0EB9A54B02E0102E03D142
:1057F000A44B1D685C6801E000242546304601F09A
:1058000071FA284601F02FFA204601F02CFA9E4B3F
:10581000186801F028FA002001F097FA002001F042
:1058200094FA0020A8E796F820309C4280F01C8172
:10583000964D285D01F056FA05F11003185D01F050
:1058400051FA05F12003185D303501F04BFA285D5F
:1058500001F048FA0134E6E7082001F073FA00206D
:1058600001F073FA002001F070FA002001F06DFAE7
:10587000002028E0864C042001F064FA2368B3F984
:10588000560001F062FA2368B3F954001BE00C20C3
:1058900001F058FA7F4B186801F0E5F97E4B186863
:1058A00001F0E1F97D4B1868DCE07D4C062001F049
:1058B00049FAB4F9E80001F048FAB4F9EA0001F055
:1058C00044FAB4F9EC0001F040FACDE0012001F017
:1058D00039FA734B58794FE7714C082001F032FACE
:1058E00094F81A0101F0FEF9B4F9220101F02DFA41
:1058F000B4F91E0101F029FAB4F9200101F025FAEA
:1059000094F81B0138E7082001F01CFA0024644BCE
:10591000234493F81201013401F0E4F9082CF6D184
:10592000A2E01C2001F00EFA5D4C04F1200594F871
:105930003A0101F0D7F9B4F93C0101F006FA94F804
:105940003E0101F0CFF994F83F0101F0CBF994F852
:10595000410101F0C7F9083494F8380101F0C2F9A7
:10596000AC42E4D180E0402001F0ECF94C4C04F171
:105970004005B4F9EC0101F0E8F994F8EE0101F00A
:10598000B1F9043494F8EB0101F0ACF9AC42F0D178
:105990006AE0E02001F0D6F9414C04F18005B4F84A
:1059A0006E01043400F03F0001F0CFF9B4F86A0151
:1059B000C0F3861001F0C9F994F86801000901F0FC
:1059C00091F994F8680100F00F0001F08BF994F858
:1059D000690101F087F9AC42E1D145E0314C0D207D
:1059E00001F0B0F900F0B2F801F07CF994F864002D
:1059F00001F039F9206F01F036F904F0B5FB31E020
:105A000000F088FE0446842001F09CF9204601F055
:105A10002AF9244B1D6F04F18003AB428CBFC4EB09
:105A2000050580250AF096FD20462A4608A900F0C3
:105A3000C1F800240546AC4216DA08AB185D01F047
:105A400051F90134F7E7132001F07CF90024164BDB
:105A5000185D013401F046F90B2CF8D1002001F05B
:105A600002F9002001F0FFF8012000E0002029B039
:105A7000BDE8F08FAA2A0020AC2A0020F81A0020E6
:105A8000FC1A0020041B002000100020B51D00207F
:105A9000F8110020E8F7FF1FECF7FF1FF0F7FF1FDA
:105AA00004070020941D0020A0AB0108064B1A68D3
:105AB0005969490407D5520405D54FF480425A610B
:105AC000024B01221A70704700040140BF220020DF
:105AD000024B1B681A69024B5A6170471003002081
