:020000040800F2
:1000000000C00020B11801085D190108350201087F
:100010005D1901085D1901085D1901080000000063
:100020000000000000000000000000005D19010851
:100030005D190108000000005D19010815020108A2
:100040005D1901085D1901085D1901085D190108B4
:100050005D1901085D1901085D190108C100010859
:100060005D1901085D1901085D1901085D19010894
:100070005D1901085D190108DD0001085D1901081D
:10008000190101085D1901085D1901085D190108D0
:100090005D1901085D1901085D190108BD0001081D
:1000A0005D1901089D0001085D190108AD000108F6
:1000B0008D0001087D0001086D000108550101084F
:1000C0004D01010851010108490101085D190108AC
:1000D0005D190108D1000108C50001085D1901087A
:1000E000250201085D1901085D19010800000000E2
:1000F0000000000000000000000000000000000000
:0C01000000000000000000005FF808F1A3
:100110002DE9F04F694B6A4FA1B03B6000237B6033
:100120000DF004F818B90AF0A9FA0EF039FF0EF034
:10013000D7FF644B644C1A78644D42F001021A7088
:10014000002309930A930B934FF4E0130C93236855
:10015000A97B43F480332360A36943F01003A361B8
:10016000236803F400330A93099B013309930A9B24
:100170001BB9099BB3F5A06FF2D12268524B12F460
:10018000003201D0022315E0186840F00100186029
:100190000992236803F002030A93099B0133099330
:1001A0000A9B1BB9099BB3F5A06FF2D123689E0788
:1001B00039D501230B93464B46481A6842F010028A
:1001C0001A601A6822F003021A601A6842F00202EA
:1001D0001A606368636063686360636843F48063A4
:1001E00063603D4B1A68043B22F070425A603B4A00
:1001F0001060606820F47C106060586840F0004037
:100200005860D86820F40040D8609B68180449BF43
:10021000334B4FF4E01313604FF480130C930B9B9C
:10022000012B01D117E0FEE7022B18D169B10C9B1D
:10023000B3F5801F02D14FF4A01305E00C9BB3F57A
:10024000E01F02D14FF400130C9361680C9B0B4329
:1002500043F4803302E0636843F46013636023680F
:1002600043F0807323602168174B8901FBD55968DF
:1002700021F003015960596841F002015960636837
:10028000114903F00C03082B0493F8D14868154B6F
:1002900000F00C00042803D0082804D00D4900E029
:1002A000116819602AE048684E68C0F38340F6037D
:1002B00000F102001AD40C491EE000BF9B24000884
:1002C00008010020A42E002000100240F4060020A7
:1002D0000020024000127A000410014000000020BB
:1002E000001BB7006000002000093D00496811F4C0
:1002F000003F116818BF4908484318606168DFF87B
:1003000044A2C1F303110A4492F804B01A6820AE63
:1003100022FA0BFBC3F800B0784BDFF82C82CAF846
:100320000C30A3694FF0000943F00103A361636A35
:10033000734843F080736362A36943F01C03A361B5
:100340004FF6FF7326F82C3D31468DF8569002F09B
:1003500027FF4046314602F023FF3146694802F04C
:100360001FFF694B30465A6842F000725A6006F02F
:10037000CDFD159B654ADFF8BCE1B3FBF2F3BB6032
:10038000634B4FF47A72C3F80090BBFBF2FB614BF6
:100390000BF1FF325A60F0228AF82320B44607227C
:1003A000C3F808901A60BEE80F00ACE80F009EE8A2
:1003B0000300A3698CE8030043F00803A361A36969
:1003C000042243F00803A361A3690DF1700943F00F
:1003D0002003A3610823C8F810301023C8F8103098
:1003E0004D4B0DF158081A6158F8040C414608F1BC
:1003F000080802F0D5FEC845F6D1642002F003F8E3
:1004000046480021A02213F004FEE36943F00703ED
:10041000E361A36943F4006343F00C03A361002389
:10042000DFF828914FF0000A09F10C0203F802A04E
:1004300001330E2BF4D1FF2389F81A3089F81B30D1
:1004400089F81C3089F81D30354A364BAC681A6083
:1004500009F120005146302213F0DBFD04F0400882
:10046000514609F12009304BCA5C0C234B4309F873
:100470000320B8F1000F05D11E3A012A02D82B4AF9
:10048000FF20985401310429EDD195F805A0284B9F
:10049000284A83F800A0284B14F0200F3B6502EB9C
:1004A000CA035B7EDFF8A89018BF0123C9F80030AB
:1004B0000023224A40F2DC5199520233102BF8D12A
:1004C0000FA80021162213F0A4FDBAF10E0F02D0DE
:1004D000BAF1080F02D101238DF84C30184B03F10B
:1004E000200193F93A21012A02D1B3F83C0188BBDB
:1004F00008338B42F5D100232DE000BF0005FA053B
:1005000000080140001001400000014040420F007F
:10051000A02E002010E000E000140140542D002027
:100520002C080020EC1A0020640000202801002084
:1005300084140020E06901080407002086140020CC
:10054000F406002000ED00E0000C0140080100204E
:10055000AC14002013468DF84130C4F340038DF8ED
:100560004230C4F3403318F100088DF83C30C4F336
:10057000C03318BF4FF001088DF83F3014F400630A
:100580008DF8448007D095F80E31B3F1010EDEF1FD
:10059000000353EB0E038DF84030C4F300438DF895
:1005A0004530D9F800304FF47A70003318BF01237A
:1005B0008DF84630B94B04F001011B68C4F3C0024A
:1005C00093F8A631ADF85000C3F380038DF847309F
:1005D000B5F8D630E004ADF84A30B5F8E2308DF821
:1005E0003D10ADF84830C4F380438DF84330B5F882
:1005F000E0308DF83E20ADF84E3004D5A848B0F874
:10060000DC00ADF85000B3F5FA7F84BF0023ADF8ED
:10061000503095F82431A34887F85430002387F8E8
:10062000553043709DF84C30002B14BF022300233B
:1006300001B902B101339C4A002502EB8303D3F8D0
:10064000D83003950593059B5A5B4FF6FF739A428A
:1006500000F06781D3B2DFF888829DF841101F0156
:1006600008EB070419B1991E012940F256819DF843
:10067000441029B158F807108C48814200F04D8190
:100680009DF8451029B158F807108848814200F0BC
:1006900044819DF8421039B161688548814203D197
:1006A000A168102900F039819DF83F1039B16168C7
:1006B0007F48814203D1A168022900F02E819DF874
:1006C000401039B161687B48814203D1A168022999
:1006D00000F023814FEA122BBBF1020F02D19DF8EB
:1006E0003C2004E0BBF1010F04D19DF83D20002A1D
:1006F00000F013819DF8472032B19DF84C201AB9C3
:10070000043B032B40F2F180BBF1010F43D16A4B54
:10071000FF2283F89C2083F89D20E17BA2684FF0A4
:10072000000A83F8A0A0C3F8AC406068ADF854207C
:100730008DF856100222314683F858A0C3F85CA009
:10074000C3F860A0C3F864A0C3F898A083F89EA083
:1007500083F89FA08DF85720029302F021FD58F8EE
:100760000700217B52460EF069F9204651465A4651
:100770000DF0A2FA029B514AC3F8B8A0C3F8B0200A
:100780004F4A2046C3F8B42003F1B00103F1B4028C
:100790000AF07AFDC1E0BBF1020F43D1039A494947
:1007A000D3B21C225A43039B01EB020A4FF000090B
:1007B0004FF0010C8AF801308AF802908AF80A900A
:1007C00001F802C0E17BA2686068CAF80C408DF8AD
:1007D00056103146CDF808C0ADF854208DF857B00A
:1007E00002F0DEFC58F80700217B4A460EF026F99D
:1007F000DDF808C02046624649460DF05DFA324AEF
:10080000CAF81890CAF81020304A2046CAF81420B6
:100810000AF110010AF114020AF036FD039A0132BE
:1008200003927AE0BBF1030F5CD19DF84330224F75
:1008300033B197F85680204608214FF6FF721CE02E
:10084000BDF84E3097F85680B3F5FA7F0FD9204A9D
:100850002046B2FBF3F20821BDF8503092B20DF001
:1008600004FB07EB8803C3F880011A4B0EE01A4A19
:100870002046B2FBF3F2012192B2BDF850300DF0E8
:10088000F4FA07EB8803C3F88001144BC36097F8B0
:100890005630013387F856303FE000BFE8110020A2
:1008A000F40600205D010020E0690108000400401A
:1008B00000080140000C014008010020851F0008CD
:1008C00089200008A801002079EA000861200008BA
:1008D00000127A00A920000840420F009920000869
:1008E000D0890108BBF1040F17D1BDF848307A4A0E
:1008F0007A4F92FBF3F22046BDF84A30012192B2C2
:1009000097F855800DF0B1FA07EB8803C3F8B001F2
:1009100097F85530013387F8553002351C2D7FF498
:1009200092AE6E4C6E4B94F855201A706D4B1F783A
:10093000172F1FD10025236D0021585903EB0508FF
:1009400010F098FB30B1684B9A68984612F4805FBB
:100950002ED129E0654B05EB030E98E80F008EE8D9
:100960000F00634B10351A78C02D02F101021A7086
:10097000E1D1E8E75F4A02EBC70393F818C05C4A8D
:10098000D3F81C8082F800C0B8F1000FDBD000253E
:100990006545D8DA554A2B0103EB020E43440FCBD1
:1009A00001358EE80F00F3E7082F534B28D129E0DB
:1009B0004F4B93F800A0BAF1010FF5D94F4D4FF00E
:1009C0000009D14505F11005EEDA55F8100C4FF08D
:1009D0007C5110F0BBF94FF07C5145F8100C55F8E4
:1009E000140C10F0B3F94FF07C5145F8140C55F885
:1009F0000C0C10F0ABF909F1010945F80C0CE0E71B
:100A00000E2F03D11A7842F0100202E01A7822F079
:100A100010021A700CF0CCFB394B3A4D1A784FF09B
:100A2000020942F004021A704FF48053ADF85430BA
:100A300014238DF85630AB698DF8579043F00403BA
:100A40003146AB61304802F0ABFB304A304B0020FE
:100A50001A6001F0E2FC2F4B4FF0100B93E80300FB
:100A6000AB6986E8030043F00803AB6116A915984B
:100A700002F096FB01200BF0EDF9D8F80870002188
:100A800007F400630393244B5A461846029313F06D
:100A9000C0FA029B4FF6FF728DF83A9017F00201F0
:100AA0004FF0000907F4004AADF838208DF83B906C
:100AB0001F4633D020A921F848BD134806F070FA2C
:100AC00004233B704FF0010B072387F8019087F850
:100AD00002B0FB7023E000BF40420F00080100207D
:100AE000B014002084140020F4060020A813002075
:100AF000CB2E0020E06901083E100020B01300203A
:100B0000A42E00200010024000080140891E0008A9
:100B1000A82E0020C86A0108E01900208B46BAF10F
:100B2000000F11D0022320A921F8483D8A4806F081
:100B300037FA01230BEB03023B71BB71072387F8E4
:100B400005B0FB715FFA82FB039B93B1022320A9DE
:100B500021F8483D814806F023FA092301223B731E
:100B6000BA730BF10103072287F80DB0FA735FFA2D
:100B700083FB6B687A4843F440436B606B694FF0CA
:100B8000000943F001036B61AB69DFF8D4A143F4C2
:100B90000073AB6106F0A6FA724BBBF1020F15931E
:100BA000714B3146169334BF4B4680231A934FF452
:100BB00080731B934FF480631C9320231D93504636
:100BC0004FF400531E93CDF85C90CDF860B0CDF893
:100BD0006490CDF87C9006F067FADAF80030BBF14B
:100BE000010F43F00103CAF80030604B98BF0021A9
:100BF0005A6888BF012122F4702222F4807242EAEE
:100C000001225A6099685A4A48460A4042F46022D2
:100C100042F002029A60D96A0BF1FF3221F47001AE
:100C2000D2B241EA0252DA62012339188A78002AE4
:100C30005FD03A5C5E1C092A91F803C0F6B24B49BA
:100C400012D9A2F10A0E0EEB4E0E4FF0070909FA67
:100C50000EF90CFA0EFCD1F80CA02AEA090949EAAF
:100C60000C0EC1F80CE00FE002EB420E4FF007094A
:100C700009FA0EF90CFA0EFCD1F810A02AEA0909BB
:100C800049EA0C0EC1F810E0062B38490FD8013B99
:100C900003EB83034FF01F0E0EFA03FE9A40D1F8C8
:100CA00034C02CEA0E0E4EEA02034B6322E00C2BFA
:100CB0000FD8073B03EB83034FF01F0E0EFA03FE22
:100CC0009A40D1F830C02CEA0E0E4EEA02030B63B4
:100CD00010E00D3B03EB83034FF01F0E0EFA03FEF3
:100CE0009A40D1F82CC02CEA0E0E4EEA0203CB62D9
:100CF00000E01E460430102801D0334695E71B4B18
:100D00009A6842F480729A609A6842F001029A608E
:100D10009A6842F008029A609968144A0907FBD45D
:100D2000936843F004039360104A936813F004033C
:100D3000FAD19168B8F8E80041F4A00191600D4A39
:100D4000D8B9B2F9EA30BBB9B2F9EC30D3F101034A
:100D500038BF002311E000BF00080140000C014033
:100D6000080002404C240140F019002000240140FA
:100D7000FDF7F1FFF4060020034613F0010340F0F5
:100D80008B80A84A00B213750FF08CFFA6490FF0B4
:100D9000DDFFDFF898820746B8F9EA000FF082FF1E
:100DA000A1490FF0D3FF0646B8F9EC000FF07AFF27
:100DB0009D490FF0CBFF8346384613F0A7FB8046D2
:100DC000384613F017FC8146304613F09FFB074668
:100DD000304613F00FFC0646584613F097FB824648
:100DE000584613F007FC4146834650460FF0AEFFCD
:100DF0004146039058460FF0A9FF514605904846DA
:100E00000FF0A4FF5946069048460FF09FFF394661
:100E1000079050460FF09AFF5946C4F8D00107F1E9
:100E200000400FF093FF3146C4F8D401C4F8D861F4
:100E300006980FF08BFF014605980FF07FFE3146B4
:100E4000C4F8DC0107980FF081FF014603980FF00A
:100E500073FE3946C4F8E00109F100400FF076FF57
:100E60003146C4F8E40103980FF070FF014607987B
:100E70000FF062FE3146C4F8E80105980FF066FFF6
:100E8000014606980FF05AFE4146C4F8EC01384678
:100E90000FF05CFFC4F8F001644FBB689B0320D5E2
:100EA000C82001F0B0FAAE200BF020F908B10EF026
:100EB0008EFC84F8F401C82001F0A5FA5C4B0021F7
:100EC0000C225C48C4F8F83113F0A3F8022384F82C
:100ED000FF310EF0EBFC01F071FA574B0344C4F8FC
:100EE0000432564B564A1B68B7F8F060B3F852907C
:100EF00000231370C4F8083297F8EF8097F8F7A032
:100F00000BF0D4FB4F4BF0B14F4ABB2E1A604F4A47
:100F10005A604F4ADA60434B01D901220EE0612E3C
:100F200001D902220AE0292E01D9032206E0132E5C
:100F300001D9042202E0092E03D905225A750122A3
:100F400008E00622FAE7434A1A60434A5A60434AD5
:100F50009A60082242490A70424A136843F001032A
:100F600013604346092B904600F276824FF0010B46
:100F70000BFA03F212F04D0106D112F46C7200F07C
:100F80006682394B197079E0374B00271F70374E56
:100F9000C4F808720BF08AFB00286FD006210A46BD
:100FA00015AB68200BF018F99DF857309DF85920C3
:100FB00003F0010302F001025B0043EA82039DF8A3
:100FC000552002F0010213430DD0012B02D186F807
:100FD0000C7218E0022B02D186F80CB213E0052047
:100FE0000DF0ACFF0FE00EAB68200C215A460BF061
:100FF000F3F89DF8383013F00F03F0D0043B18BF1E
:10100000012386F80C321A4B1A4A1A601A4A5A609F
:1010100094F80C22002A14BF6E226F221A72032346
:1010200034E000BF0000002035FA8E3CF4060020BA
:101030000608002004030020404B4C00E81100206B
:1010400002120020EC1100207DC100086DC60008CE
:1010500090C1793D45690008C56C000843690008E6
:1010600059000020E40F0020AC2E002008010020D1
:101070005812002081D400082DC60008B74BB84A8A
:101080001A60B84A5A6000221A720923B64A53708D
:10109000D8F8003043F00203C8F800300A2001F00D
:1010A000B2F97720A02101220EAB0BF095F8AF4EDC
:1010B00020B994F81E32002B69D049E11E2101228B
:1010C00077200AF0CFFF4FF42F6001F091F900274D
:1010D000A7F160014FF00008C9B2022215AB7720DA
:1010E0008DF854808DF855800BF076F89DF85530CA
:1010F0009DF8541043EA01219C4B03F20E22B95291
:101100000237102FE4D1B3F81CE201210EF00F07D3
:101110000EF47F4EA3F81CE24246434622F0010043
:101120002044B0F80E02002818BF002112F0010F71
:1011300003D0C0B24340082002E083EA1023FAE75C
:1011400013F4004F18BF83F4C05301384FEA430330
:10115000F6D10132102AE1D147EA0E0EA6F81CE2C0
:101160000029A6D1C3F303339F42A2D1804B42F2A0
:1011700010721A805A807F4A5A607F4A9A607F4A6A
:10118000DA607F4A1A617F4A5A61032366E1AB69DC
:101190004FF4005743F01003AB617B4D02238DF8F1
:1011A00057302846102315A98DF85630ADF85470E5
:1011B00001F0F6FF4FF48043ADF8383028460423A1
:1011C0000EA98DF83A3001F0EBFF704B2F611A68D1
:1011D000002A00F0BF800F200DF0B0FE6C4B0127FD
:1011E0005A694FF0000822F470625A615A6915A8D2
:1011F00042F400725A614FF48043159308238DF82E
:1012000059304FF0030B8DF858808DF85A7006F066
:1012100049FD28230DA88DF834308DF835B08DF8B0
:1012200036808DF8377006F01DFD142001F0EBF8C4
:101230000EAB7720D0213A460AF0CEFF9DF8383029
:101240004A4D552B84F83732A4F840B240F0AE80B6
:10125000D1213A460EAB77200AF0BEFF9DF8383018
:10126000772003F00F021B0985F8382285F8393200
:10127000162215ABAA210AF0AFFF9DF854209DF865
:10128000553043EA0223A5F820329DF856209DF8F8
:10129000573043EA0223A5F822329DF858209DF8E2
:1012A000593043EA0223A5F824329DF85A209DF8CC
:1012B0005B3043EA0223A5F826329DF85C209DF8B6
:1012C0005D3043EA0223A5F828329DF85E209DF8A0
:1012D0005F3043EA0223A5F82A329DF860209DF88A
:1012E000613043EA0223A5F82C329DF862209DF874
:1012F000633043EA0223A5F82E329DF864209DF85E
:10130000653043EA0223A5F830329DF866209DF847
:10131000673043EA0223A5F832329DF868209DF831
:10132000693043EA0223A5F83432114B41F270725E
:1013300085F81E721A8046F678125A80154A5A604D
:10134000154A9A60154ADA60154A1A61154A5A61B7
:10135000022383E0144A1A6040E700BF58120020BD
:1013600041690008BD6C00085900002008010020F8
:101370005C1000203FC100088DC5000837C100087F
:101380009DC50008CD20000800100140A02E0020BF
:101390000000014069C10008F9C5000847C1000804
:1013A000ADC5000825220008197600084A4B4B49B4
:1013B0001A688A4201D1C3F80080494A4FF40053A9
:1013C0005361484F3B689A0702D5474B1B689847C3
:1013D000DFF848B15546DBF800309847434B002210
:1013E000022D1A70984604D0032D19D0002D40F01C
:1013F0002E85002220AB03F82C2DC4F844221E2099
:101400000A2101220AF0E8FE50B19DF85430482B21
:1014100006D1374B374A1A60374A5A60022325E013
:10142000002120AB03F82C1D0C2001220AF0D4FE71
:10143000002800F00C859DF85430482B40F00785BB
:101440002B4B2E4A1A602E4A5A6003230EE0012BC2
:1014500002D82C4B1A7021E6002387E52A4A9370A4
:10146000204B1A6842F004021A60AAE7264AD37099
:101470003B6843F008033B60244D95F8E4300BB122
:10148000234A137095F8E5300BB11E4A137095F896
:10149000E6300BB188F800303B681B0740D50FFAE7
:1014A00089F94FF0640A99FBFAF840460FF0FAFB0D
:1014B00083460AFB189000B20FF0F4FB15490FF0B9
:1014C00045FC014658460FF039FB13490FF03EFC2E
:1014D000C4F8480227E000BFA02E002019760008BB
:1014E00000100140E40F002058120020BE2E002002
:1014F00030100020C5C3000851C30008E1C2000835
:1015000055C20008AC2E002059000020F40600202F
:10151000021200208988883C00002041EC11002044
:101520000023C4F84832BA4B10211A784FF00A0948
:1015300042F002021A70B74A9846516108211161BF
:10154000B44C1920E36809F1FF3983F01003E3601C
:10155000E36883F00803E36000F055FF012000F02A
:101560005CFF192000F04FFF002000F056FF19F03B
:10157000FF09E5D108234FF010092361C4F810904A
:101580003B68180709D5A44BC4F814901B6898470A
:10159000A24B0122C4F810901A70A14BA14C1B68F9
:1015A000187B0FF07FFBA0490FF0D0FB12F0AEFFCD
:1015B000814620880FF076FB49460FF0C7FB12F0FA
:1015C000DBFF9A4B188020880FF06CFB014698488F
:1015D0000FF070FC97490FF06DFC974B9249186023
:1015E000964B974CD8680FF0B1FB96490FF0AEFBC5
:1015F000954BFF2118601622204612F00AFD0022AA
:1016000022703A68914B012112F0020F19702046A6
:1016100004D06170032119700221A170510704D513
:1016200019784C1C1C700324445412F00A0F0CD07F
:101630001A7804218154511CC9B205244454D11C88
:1016400002321970D2B206218154AA68940604D5D8
:1016500019784C1C1C7007244454110608D51978BD
:10166000092444548C1C01311C70C9B20A2444540E
:101670006979082901D00E2904D119784C1C1C70F5
:101680000B24445419784FF00C0E4C1CE4B212F4A5
:10169000803F1C7000F801E009D001F1020E6B4997
:1016A00081F800E066494FF00E0E01F804E05107A2
:1016B00004D519784C1C1C701024445419784FF030
:1016C000120E00F801E095F85CE14C1CE4B2BEF1AA
:1016D000000F0CBF4FF0000E02F0010E1C70BEF1A7
:1016E000000F09D001F1020E584981F800E0544979
:1016F0004FF0130E01F804E01978920501F101048E
:10170000E4B21C704FF01403435405D54F4B023123
:1017100019704B4B15221A55002198224C4812F093
:1017200078FC0AF0B3F80DF047F94A4B4A4AB5F88D
:101730001E011A6081B20023484A99520233242BB9
:10174000FAD1AB681B0740F11F81454B93F81A3162
:10175000062B00F21281DFE803F00404329FB7D3B6
:10176000D300404A4049012B1160404C404A414857
:1017700009D14FF0030E84F800E0072482F84C32C0
:1017800004700C2307E0022323700323037000235B
:1017900082F84C3207230B70374B4020C2F850328E
:1017A00005F022FF002800F0E88001234FF0000B35
:1017B00090F9000040218DE80808304A81E00FF0E0
:1017C00071FA2F490FF0C2FA2E490FF0B5F90FF058
:1017D000A9FC00232C4A98500433482BFAD12B4AF9
:1017E000234B4020C3F850221F4B12221A7005F0E1
:1017F000FBFE002800F0C18001234FF0070A90F99A
:10180000000040218DE80804214A224BAFE000BFD0
:10181000A42E0020000C01403010002050100020A9
:10182000A01200201C00002035FA8E3CC4120020BB
:101830000AE81C4100401C4698110020EC110020D1
:101840008F1D0020BD3786359C1200208E1D002084
:10185000501A00207C0E002006080020FA0F0020FD
:10186000F4060020840E0020A51D0020810E00201B
:1018700008010020880E0020FD690008596B00084F
:10188000CDCCCC3F0000B044D00E0020496A000807
:10189000656C0008A0860100604A614B4020C3F8D7
:1018A0005022604B10221A7005F09EFE002864D072
:1018B00001234FF0000990F900008DE808025A4A10
:1018C00040214FF4E13352E0584B554C0822C4F804
:1018D0005032544B40201A7005F086FE00284CD040
:1018E00001234FF0000C90F9000040218DE8081012
:1018F0004F4A4FF4E13309F087FFC4F8540238E04F
:1019000048480C21062B464A4A4C017010D000234F
:10191000237082F8583282F859321B2382F85A32E7
:10192000052382F85B1282F85C324FF4E1340DE05B
:101930000020207082F8580282F859023E4C212083
:1019400082F85A0282F85B1282F85C323B4B4020EC
:10195000C2F8503205F048FE78B101234FF0000E76
:10196000374A90F9000040218DE80840234609F0ED
:101970004BFF003018BF012030B9082001F047F9B3
:10198000274B0022C3F85022AB68264A13F4804F3D
:1019900005D0082111702B482149C1F8500242F2AC
:1019A0000101194059B11E492748C1F85002980455
:1019B00044BF08211170D90744BF0C211170117860
:1019C0001B06A1F1040151707DD51548DFF884A0F4
:1019D0004FF000091D4C49461522C0F860A2DFF8FF
:1019E00078B000F5197084F80190C4F80490C4F838
:1019F000089012F00EFBAAF104034846CBF8003021
:101A000006F022F9124B02201B68E36005F0ECFDA2
:101A1000594618BB802001F0FAF84CE0396A0008FA
:101A200008010020A51D0020F16B0008256A0008B0
:101A3000A56B0008D00F002090D00300E5690008D6
:101A40008D6A0008756A0008816A0008BC110020D0
:101A50009C2E00202C080020DC11002090F805E0CE
:101A60006378C04A4FF00C0C0CFB032C9CF801C0AF
:101A7000F44504D00133DBB2042BF2D900236370A8
:101A80000B6890F900001B78002B63784FF00C0472
:101A900004FB03220CBF0121032153780022009193
:101AA0000192022109F0B0FEAF4B18600028B1D0BE
:101AB000012006F0C9F8AD4B1868AD4B00F5D8729F
:101AC0001A6001F06DFAAB689C050DD598044CBF07
:101AD000A848A9480BF042FC3B684FF0FF3243F0A6
:101AE00010033B60A54B1A60A54BA64AA64C136099
:101AF000A64A80331360AB680027D903277040F1F2
:101B0000AE8001F06FF9A24BDFF8D09240F22A3B91
:101B10004FF0010A184639465A4684F800A002934D
:101B200012F077FAD9F818209A4842F00402C9F85E
:101B300018204022ADF8342018228DF837200DA946
:101B400003228DF8362005F02BFAD9F81C20924C90
:101B500042F00202C9F81C20904AA9F69479116853
:101B60008F4AB1FBF2F12288013922F45C7212042F
:101B7000120C228089B21D22A2852185A4F814A00E
:101B8000228C22F001021204120C2284228CA088E2
:101B9000218B22F0020221F0730109041204090CC6
:101BA000120C41F0600180B242EA0A02A080218357
:101BB000A7862284228B22F008021204120C42F023
:101BC00008022283B4F844206FEA42426FEA52428C
:101BD00092B2A4F84420D9F8A82F42EA0A02C9F820
:101BE000A82F484605F07EFA6E4A029B1592802285
:101BF0001A924FF4807216931B9210234FF40052E6
:101C0000484615A917931E92029319971C971D9782
:101C10001F97CDF860B005F047FAA289029B92B2F7
:101C200042F40072A281D9F800200EA842F002020C
:101C3000C9F800208DF838308DF839A08DF83A7049
:101C40008DF83BA006F00EF8574B1A68574BFA5028
:101C50000437802FF8D109F0B1F909F0AFF9AB687A
:101C60005A0553D5D6F8A475514B04201F6005F0D2
:101C7000BBFC0421C6F8A80505F08CFC4D4B86F88A
:101C8000AC0508201F6005F0AFFC0821C6F8B005C0
:101C900005F080FC484C86F8B405002120462C2233
:101CA00012F0B7F98E2363704FF07C0AE0234FF0F7
:101CB0007D09E37084F800A084F82B903F4C2C221F
:101CC0000021204612F0A5F98A2363701020A0237A
:101CD000E37084F800A084F82B90C6F8B87505F07E
:101CE00083FC1021C6F8BC0505F054FC86F8C0053D
:101CF0002020C6F8C47505F077FC2021C6F8C80579
:101D000005F048FC86F8CC0509F060FFAB682C4C68
:101D100013F4002318BF012384F8CD3500F04EFBE7
:101D2000284B18606B79052B03D1274B4FF4C872F1
:101D30001A80264B4FF47A721A80254BC8221A80DB
:101D4000244B1A7842F008021A70234B1A7822F0BA
:101D500002021A70AA6840F602031340002B61D0F9
:101D60003EE000BF28700108B8110020E8110020F3
:101D70008C130020D06A0108DC6A01087C11002065
:101D8000600800208C2600201019002090260020DA
:101D90008103002000080140000400406000002092
:101DA00000366E01340400409E71010812190020B3
:101DB000F020002044210020142100204821002090
:101DC00008010020F41200206A120020BC2E00201E
:101DD000BA2E00203E100020CA2E00200010024023
:101DE0001E4B1F4A1E461A6005F09EFD282000F07B
:101DF0000AFB049B013B0493F6D13368194AD87857
:101E000011785A789B78B1FBF2F201321649082A10
:101E100028BF08220A7092B250435A431349144B08
:101E200008801A80AB689B0308D5042384F800322D
:101E300094F8FF3143F0010384F8FF3198F8003043
:101E400063F07F0388F8003021B0BDE8F08F012DEA
:101E50007FF612AB0025FFF7C1BA00BFE8200020D3
:101E6000FA07002097260020740000209A26002000
:101E700098260020034B4FF4805208B11A61704736
:101E80005A61704700080140034B4FF4805208B17B
:101E90005A6170471A6170470008014003685A1C74
:101EA000026019707047016B0346C26810B5406943
:101EB00041B1196C541A005D013918BF0A46C0B20D
:101EC0001A6410BD196A405C0131914228BF00219B
:101ED000C0B2196210BD036B13B15A68036C01E004
:101EE000C269036A9A4237BFC068C3EB0200801818
:101EF000C3EB0000C0B27047436B13B190F84400CD
:101F00007047826A436AD31A5842584170474379EE
:101F10009B070AD5436A8269D154426A0369013238
:101F2000B2FBF3F103FB112343627047437913F0D3
:101F3000010307D0C368C169026A013B881A1840CF
:101F4000C0B2704718467047437910B513F00103CB
:101F500004460DD0FFF7EAFF58B1226A6369985C26
:101F6000E3680132B2FBF3F103FB1123236210BDDE
:101F7000184610BD426A806A131A58425841704789
:101F800041717047334A10B5136C90681944081AB0
:101F900040F68C2398429160D060516013463CD942
:101FA000127893F945108A420BD1111F082908D8DD
:101FB00093F84610182901D8013103E083F8442032
:101FC00002E0002183F8461093F944108A421CD1A4
:101FD000204991F84710C1B1002191421E4806DA0C
:101FE00003EB8104246920F811400131F5E7511E0B
:101FF00000EB41011630814203D0002421F8024F4A
:10200000F9E7164908780130087083F84520002266
:1020100001211A7083F8471010BD92F84710B9B12A
:10202000A0F2EF2440F2DA518C4208D811780B2943
:1020300005D80B1D0131117042F8230010BD00229C
:1020400083F84720991804320020302A0861F9D11A
:1020500010BD00BF60010020B42C0020A826002085
:1020600010F80A3C0133DBB20A2B00F80A3C07D90E
:1020700010F8131C034A002322F8113000F80A3C20
:10208000704700BFB42C0020024B1A6C013211447F
:102090001964704760010020024B53F820301B6820
:1020A0001980704788020020074BA1F57A7153F818
:1020B00020304FF47A701A681B894B4393FBF0F37E
:1020C0009BB21380704700BF880200202DE9F04FBB
:1020D000504A514E1768738984463089A7EB03270D
:1020E00085B0039187FB0001B288CB111404C209AB
:1020F000F08842EA416287FB000114EB0208728813
:102100004FF000054FEAC2344FEA1022B08945EB88
:10211000030942EA01620B1287FB000114EB020A79
:102120004FEAD05242EA41224FF0000545EB030B43
:1021300012F5FA604FEAE15343F10001CDE90001E5
:10214000B0F5FA6F71F1000147DAA2FB024502FB1C
:1021500003F1052605EB4105A4FB060106FB05116D
:102160004D104FEA3004B8EB040869EB0509840808
:102170002A4844EA81748D104FF0FF31BAEB040A0B
:102180006BEB050BDDE9004584428D4125DA40F615
:10219000AC5012184FF0000143EB010302FB03F1B6
:1021A000A2FB02236FF0060003EB4103544200FB45
:1021B0000344A2FB000118EB000821444FF00B047C
:1021C00049EB0109A2FB040104FB031149104FEA8A
:1021D0003000BAEB000A6BEB010B114B1A68A2FB43
:1021E0000A0102FB0B11420D42EAC1224B15B2EB70
:1021F000080263EB0903D00B40EA4340BCF1000F37
:1022000001D0CCF80000039808B10099016005B036
:10221000BDE8F08F6C2600201603002024FAFFFF93
:1022200070260020324B2DE9F0411C88314B0A26E4
:102230005A89B3F91250A41A1A89ED025443B3F91A
:102240001420E413224495FBF2F22244DA6156434F
:10225000A2F57A6202FB02F4B3F90480B3F902C07A
:10226000B3F90E7002FB0CFC02FB08F2B3F90C8010
:102270002413674304FB08F4241404EB6232023293
:10228000DC88921002F50042B3F920506243B3F9A2
:1022900000304FEAEC2404EBE72404EB8304AC4069
:1022A000154B02341B68D20BA3EBA4044CF2503341
:1022B0002B41634355BF5B00B3FBF2F3B3FBF2F377
:1022C0005B001A12524340F6DE3462430B4C083670
:1022D0005C43241404EB224202F6CF62361103EB76
:1022E000221300B1036001B10E60BDE8F08100BFB0
:1022F0007C260020280300207826002043E3FFFFEF
:102300002DE9F0478278C6781E4BC2F1640802EBD3
:10231000820C54425FFA88F84FEA4C0CC6F164090B
:10232000A4B203F11807A5B228B2002804DC002DDE
:1023300014BF1546012500E0454600FB00FA6D4339
:102340000AFB06FA9AFBF5F54D4468434FF00A0A7A
:1023500090FBFAF0604480B258800D88B1F802A07A
:1023600000B2C5EB0A0A00FB0AF04FF47A7A90FB40
:10237000FAF0054423F8025F0A34BB42A4B2D2D17A
:10238000BDE8F087B619002010B544780078002326
:1023900003FB03F11939614301F6C4115943414369
:1023A00040F6C41291FBF2F1034A22F813100133F4
:1023B000072BEDD110BD00BFA019002010B5094AB0
:1023C00009491368886812689342F8D1074A11686E
:1023D0004FF47A7202FB01F4201AB0FBF1F002FB19
:1023E000030010BD9C2E002010E000E01001002032
:1023F00038B50446FFF7E2FF0546FFF7DFFF401B55
:10240000A042FAD338BD10B504462CB14FF47A700F
:10241000FFF7EEFF013CF8E710BD08B5014B1B6864
:10242000984708BDA82E002008B503685B69984747
:1024300008BD08B503681B69984708BD044B93F8AD
:10244000823713B9034B1868F3E70020704700BFC9
:10245000F40600204826002008B50368DB6898478A
:1024600008BD08B503689B68984708BD08B50368B0
:102470005B68984708BD10B5044C2068FFF7F6FF6D
:1024800018B12068FFF7EDFFF6E710BD80210020AE
:1024900008B503681B68984708BD014B1868F7E743
:1024A000E81A0020014B01461868F1E74826002091
:1024B00010B50446C0B2FFF7F5FFC4F30720BDE82E
:1024C0001040EFE710B504467F2C06D964F07F007A
:1024D000C0B2FFF7E7FFE409F6E7E0B2BDE810405D
:1024E000E0E7430083EAE070ECE70846DAE738B556
:1024F00005460446204614F8011B21B1034B186819
:10250000FFF7C6FFF6E7401B38BD00BF4826002096
:1025100038B5274B05461B780C46082B46D145207D
:10252000FFF7C0FF2846FFF7BDFF0B2D18D003D8DB
:102530003DB10A2D09D038BD0C2D1CD0FF2D2ED059
:1025400038BD2068BDE83840BCE72078FFF7AAFF17
:1025500062796378002A0CBF00208020184300E0D5
:102560002078FFF79FFFA078FFF79CFFE078FFF748
:1025700099FF207917E0B4F90000FFF799FFA078E0
:10258000FFF790FFE078FFF78DFFB4F90400FFF745
:102590008FFFB4F90600BDE83840FFF789BF054852
:1025A000FFF7A5FF0020BDE838407BE738BD00BF3E
:1025B000D5060020E8950108A0F17D03012B70B538
:1025C00004460D460A4E05D830687D21FFF760FFAE
:1025D00084F0200430682146FFF75AFF35B12B887C
:1025E0001C4404EB142404F0FF042C8070BD00BFD5
:1025F000AC21002038B5054C05465E212068FFF768
:1026000047FF20682946BDE8384041E750260020B2
:10261000014B5E2118683BE75026002010B50A4C9C
:102620005E280146206805D15D21FFF731FF206853
:102630003E2105E05D2903D1FFF72AFF20683D21F7
:10264000BDE8104024E700BF5026002010B5044626
:10265000C0B2FFF7E3FFC4F30720BDE81040FFF767
:10266000DDBF064B1B6803EBC00090F90630194232
:102670000CBF01204FF0FF30704700BF98140020BE
:102680000A4B1A6802EBC002D379FF2B07D0084926
:102690000978994203D9074A32F8130004E0072861
:1026A000D4BF908840F2DC5000B2704798140020EC
:1026B000A51D0020FA0F00202DE9F84F2E4E0446EC
:1026C0003768384611F022FF0546384611F092FF70
:1026D00076688046304611F019FF8346304611F087
:1026E00089FFD4F804900646294648460EF02EFB92
:1026F000A7688246414638460EF028FB0146504600
:102700000EF01AFA2168824658460EF01FFB414629
:10271000044648460EF01AFB31460EF017FB014600
:1027200020460EF00BFA3146044638460EF00EFBFA
:1027300029460EF00BFB014620460EF0FFF901463C
:10274000504612F00DF80D490EF000FB0C490EF04A
:10275000B1FB0C4B19680EF0F1F90B490EF0AAFB16
:1027600011F00AFF83B21A0444BF00F5B4739BB2A0
:1027700018B2BDE8F88F00BFC81200200000E14485
:10278000DB0F4940500300200000204101380A4B74
:10279000042804D8DFE800F00507090B0D00074AFC
:1027A00008E0074A06E0074A04E0074A02E0074A51
:1027B00000E0074A1A6070476800002079D90008D5
:1027C00031990008C5EB0008F19A0008D19D000876
:1027D00031A10008064B1B7803F0040303F0FF004F
:1027E0001BB1044B1888C0F3C01000F00100704703
:1027F000CA2E0020EC0F0020044B00221A605A6001
:10280000034B00221A605A60704700BFE821002085
:1028100018220020064BB3F90000064B1B681B78FA
:1028200003EB83039842D4BF00200120704700BF10
:10283000D20F00200C1A00202DE9F0410278034647
:10284000202A00F10100F9D0092AF7D02D2A02D15F
:102850000346414D04E02B2A08BF03464FF07E5546
:102860001E460024334616F8012BA2F13007F9B2B8
:1028700009290DD8394920460EF068FA0446384631
:102880000EF010FA014620460EF058F90446E9E72A
:102890002E2A17D1314F334616F8010B3038C2B209
:1028A000092A0FD80EF0FEF939460EF003FB014657
:1028B00020460EF043F92949044638460EF046FA00
:1028C0000746E8E71A7802F0DF02452A38D15A783D
:1028D0002D2A02D10233012604E02B2A14BF013332
:1028E00002330026013B002713F8012F303AD1B202
:1028F000092903D80A2101FB0727F5E7B7F59A7FD5
:1029000028BF4FF49A77B8464FF07E51B8F1070FC1
:1029100007D9084612490EF019FAA8F1080801462D
:10292000F4E707F0070737B108460C490EF00EFA36
:10293000013F0146F7E72EB120460EF0BBFA04E056
:102940004FF07E5120460EF001FA014628460EF067
:10295000FDF9BDE8F08100BF000080BF000020410C
:1029600020BCBE4CF0B50124B0FBF4F58D4201D380
:102970004C43F9E70026DCB1B0FBF4F504FB15008D
:10298000B4FBF1F41EB9002D01DC002CF3D1092DAC
:1029900003F101075FFA85FC04DD002A0CBF57250F
:1029A000372500E0302565441D7001363B46E2E7DF
:1029B0001C70F0BDF0B50124B0FBF4F58D4201D3DD
:1029C0004C43F9E70026DCB1B0FBF4F504FB15003D
:1029D000B4FBF1F41EB9002D01DC002CF3D1092D5C
:1029E00003F101075FFA85FC04DD002A0CBF5725BF
:1029F000372500E0302565441D7001363B46E2E78F
:102A00001C70F0BD70B50646B6FBF2F408461546DC
:102A100014B12046FFF7F6FF05FB1464024B1B5D63
:102A200000F8013B70BD00BFF39501082DE9F843A4
:102A3000089E002B0746884614460CBF4FF020091D
:102A40004FF03009334613F8012B0AB9254603E04D
:102A5000002CFBDD013CF6E7002D04DD384649463D
:102A6000C047013DF8E724EAE4742546331B595D6D
:102A700019B13846C0470135F8E72846BDE8F88364
:102A80002DE9F04F0C68836889B0D0F800A0D0F829
:102A900004800646204603938B4611F037FD074617
:102AA000204611F0A7FDDBF804408146204611F0D6
:102AB0002DFD0546204611F09DFDDBF8082004465B
:102AC0001046019211F022FD019A8346104611F042
:102AD00091FD3946029058460EF038F93946049077
:102AE00002980EF033F95946059048460EF02EF93B
:102AF0000299069048460EF029F929460790584653
:102B00000EF024F9014650460EF020F92146834686
:102B100006980EF01BF9014605980EF00FF80146D5
:102B200040460EF013F9014658460EF007F82146CC
:102B3000834604980EF00AF9014607980DF0FCFF51
:102B4000014603980EF002F9014658460DF0F6FFD3
:102B50003060029905F100400EF0F8F80146504649
:102B60000EF0F4F82146834607980EF0EFF8014680
:102B700004980DF0E1FF014640460EF0E7F80146EB
:102B800058460DF0DBFF2146834605980EF0DEF82F
:102B9000014606980DF0D2FF014603980EF0D6F8D4
:102BA000014658460DF0CAFF2146706050460EF0AF
:102BB000CDF82946044609F100400EF0C7F8014659
:102BC00040460EF0C3F8014620460DF0B7FF3946E7
:102BD000044628460EF0BAF8014603980EF0B6F8FF
:102BE000014620460DF0AAFFB06009B0BDE8F08FA5
:102BF00080EAE073A3EBE0738B4206DB002801DD83
:102C0000401A704702D00844704700207047034BB9
:102C10009A6822EA00009860704700BFF40600201E
:102C20002C4B2D4A1B68126810B51A602B4A11688C
:102C30005960516892689960DA60294A116819618F
:102C40005168926859619A61264A1168D961516840
:102C5000926819625A62244A1188198551885985E7
:102C60009188D2889985DA85204A118819865188F9
:102C7000598692889A861E4A1188D98651889288E8
:102C800019875A871B4A117800228A4207DA1A4CA0
:102C900003EB420034F8124001328487F5E7174A0B
:102CA0001288A3F86420164A1288A3F86620154AF1
:102CB0001188A3F86C1051889288A3F86E10A3F8BD
:102CC0007020114A12689A66104A5289A3F85E2051
:102CD00010BD00BF101C0020B02E0020F02C0020E2
:102CE000FC2C0020082D002072130020B42E0020A0
:102CF000B0120020CB2E0020681400204E260020A9
:102D0000F8190020381000207411002086140020CB
:102D1000114A30B50028B8BF4042104C90FBF2F386
:102D200004FB03003C2568430D4D90FBF2F22D6837
:102D30002D7B25B903EB830303EB830301E0C3EB96
:102D4000031302EB830304FB02020B804FF47A733C
:102D500092FBF3F24A8030BD80969800806967FF4D
:102D6000F0200020022803D0431E584258417047EB
:102D7000064B1B681B7823B1054B1868C0F3C04095
:102D80007047044B1878C0F380007047AC060020F1
:102D9000E80F0020CA2E002008B5084811F07AF983
:102DA000C0B209280246054B04DC01302021C0B224
:102DB0009954F6E700221A5408BD00BF292D0020BF
:102DC00008B5074811F066F9C0B21428044B04D8BE
:102DD000421C20211954D0B2F7E700221A5408BD32
:102DE000292D0020F0B5244A244D254900231468DC
:102DF0002B700B701A461846A61876884EB9A75C39
:102E00003FB92B70002308704B702F7818461A4674
:102E10000CE0360548BF013002F1040203F1010362
:102E200048BFC0B2802ADBB2E6D1EAE7C5B2BD42F4
:102E30000CD214F8205001302E099E4205F00F05E7
:102E4000A8BF731C9542A8BF6A1CEFE74B708A703D
:102E50000C4851084C1E047002F001020A4811444B
:102E60000170C3F347020949501E087003F00103C3
:102E700007491A440A70F0BD8C26002094260020D1
:102E800098190020A4260020A6260020A7260020AE
:102E9000A5260020F8B5101A0C461F460DF002FFBB
:102EA0000546381B0DF0FEFE174B079E19680DF006
:102EB0004DFF2946044628460DF048FF21460746A7
:102EC00020460DF043FF014638460DF037FE11F065
:102ED000D1FD0E490DF03AFF0EF024F9069B214674
:102EE000186005F1004011F03BFC09490DF02EFF80
:102EF00008490DF023FE0EF0EFF80028BCBF00F5E6
:102F00000C40A0303060F8BD440000202C7D8E3F86
:102F1000A00CB34500A00C4610B50DF0C3FE002177
:102F200004460EF0CFF808B1204601E004F100405D
:102F300005490DF0BFFF05490DF008FF11F0E6FA55
:102F4000034B186010BD00BF8096184B35FA8E3CBD
:102F50004400002010B50C4C23789B0713D50B4B75
:102F60001B78042B0FD90A4A0A4B10685268186064
:102F70005A60FFF7D1FF084B1A88084B1A80237854
:102F800043F00103237010BD3E100020E01100202B
:102F900004210020F41A0020DC1200204C1F002025
:102FA00070B5044640790DF079FE1E490DF082FFA0
:102FB0001D4D1E4E2860E07B0DF070FE19490DF08E
:102FC00079FFEE606860A0790DF068FE18490DF099
:102FD00071FF184D2860207C0DF060FE11490DF046
:102FE00069FF6860A07E0DF059FE13490DF062FF85
:102FF000EE60A860E0790DF051FE0D490DF05AFF2A
:103000000E4D2860607C0DF049FE06490DF052FF20
:103010006860E07E0DF042FE07490DF04BFFEE6068
:10302000A86070BD0000C842081F00200000FA44DC
:1030300000002041181F002000007A443C1F00209F
:1030400044F25063984203DDA0F50C40A03870476D
:10305000034B9842BCBF00F50C40A030704700BF46
:10306000B0B9FFFF2DE9F041038A87890446BFB25A
:103070000D461F40002F36D0B7FA87F34FF00042BD
:10308000DA40D24391B21B3B21821740042BF1D886
:10309000DFE803F0221F1C1903006B6A33B103F150
:1030A000FF3800231FFA88F86B6203E0B4F82C8025
:1030B0001FFA88F82E6A002EDCD03368304641466D
:1030C00098477668F7E72868A18E08E06868218F3E
:1030D00005E0A868A18F02E0E868B4F84010036832
:1030E00089B29847C6E7BDE8F0810C4B800A984248
:1030F0000CD003D8B0F5801F0ED00BE0084B9842DF
:1031000006D04933984205D100207047022070470D
:1031100003207047FE207047012070470100100017
:103120000200100090F83B3210B57BB990F83A32AB
:1031300090F83922934209D201219940B0F84042D7
:1031400001332143A0F84012DBB2F3E710BD8379CD
:10315000DB0703D5D1F1010138BF0021D0F83431AC
:103160005A681B8909B11361704753617047044B5A
:1031700053F820301BB107289CBF1B68198070478B
:10318000B802002010B5054C00202188FFF7EFFFA2
:1031900061880120BDE81040E9E700BF86140020E7
:1031A0002DE9F0410F88002347FA03F2D2072BD50F
:1031B0008A7803F0070512F0100F18BF91F803C0CA
:1031C00002F00F0618BF46EA0C06AD004FF00F0CD8
:1031D0000CFA05FC06FA05F5DC0850F82480282ACC
:1031E00028EA0C0C45EA0C0540F8245005D10122D0
:1031F0009A40C46824EA020205E0482A04D1012268
:103200009A40C4682243C2600133102BCCD1BDE880
:10321000F08100BFB64A2DE9F04FB64B1468B3F900
:10322000060023898DB09842904610DBB0F5FA6F06
:10323000E27908DAC11A4A43A3F5FA6392FBF3F381
:103240006433049305E0C2F16402049201E0642156
:103250000491A94B0021B3F81E210592A74A1568D5
:1032600093F9EE20AA46524292B206920A46A14B28
:10327000059E31F903B0C6EB0B0303F2F31740F2DE
:10328000E636B74203D8002BB8BF5B4201E04FF4EB
:10329000FA73022ADFF878E22ED095F85D6126B144
:1032A000B342CCBFC6EB03030023642693FBF6F7BF
:1032B000934E6FF0630936F817C009FB07390137E1
:1032C00036F917700797079E0FFA8CF7F71B07FB65
:1032D00009F7642697FBF6F767442EF80170A718E4
:1032E0003F797B43874F93FBF7F33344049F9BB2B3
:1032F0007B4393FBF6F615E095F85E6126B1B34289
:10330000CCBFC6EB03030023069F03FB07F6AEF812
:103310000460A679002BB8BF5B425E43794F96FBF1
:10332000F7F66436AB1893F801E0774F06FB0EFE14
:1033300064239EFBF3FE02F807E09AF80BC007F146
:10334000030E06FB0CFC9CFBF3FC02F80EC09AF883
:1033500015E0063706FB0EF696FBF3F6059BD655F1
:103360009B45DFF8ACB104DA3BF801305B422BF847
:1033700001300132032A01F102010AF1010A7FF44E
:1033800076AF5D4DB5F82031984205DBB0F5FA6FA8
:10339000A8BF4FF4FA6000E01846C01A4FF47A72E2
:1033A0005043C3F5FA63B0FBF3F36427544C93FB2B
:1033B000F7F204EB42016FF0630000FB0233098B6C
:1033C00004EB4202B2F91A000AB2821A534393FB89
:1033D000F7F74E4B39441A884D4E5206ABF806109B
:1033E0003DD54C4B1888238EC01A00B20DF05AFC04
:1033F00049490DF0ABFC074611F088F88146384684
:1034000011F0F8F80746B6F902000DF04BFC8246C1
:10341000B6F900000DF046FC494602900DF096FC0E
:1034200039460246504603920DF090FC039A01463D
:1034300010460DF081FB0DF04FFE4946308050469E
:103440000DF084FC029B8146394618460DF07EFC47
:10345000014648460DF072FB0DF03EFE7080AA68F2
:1034600040F6020313402D4E002B00F0C5802C4B7C
:1034700006211F88636B1F4494F83830676301335B
:10348000DBB2B3FBF1F084F8383001FB103313F0FA
:10349000FF0F40F0B180930711D504F045FA214B9E
:1034A000214A1B7812889A4206D2204A12889A42F0
:1034B00034BF0023012300E0022384F83930AB68D5
:1034C000180540F197800C4ABBF906B0B2F8DE004F
:1034D000174AABF57A7BD2F800A0DFF858909AF83B
:1034E0000820012A28D06ED3022A47D06EE000BF00
:1034F00098130020FA0F0020F4060020E8110020A5
:10350000A01900200CFEFFFFAE190020EC0F0020D8
:1035100072130020DC12002035FA8E3CCA2E0020E7
:10352000F212002097260020982600209A260020DC
:10353000E8200020F420002094F84D30E06B04EBEC
:103540004303B3F85010082390FBF3F289B2821AB8
:103550000A4492FBF3F3E2639BB240F6E442534326
:10356000A4F85810BAF806104FF47A72C1EB13336E
:103570005343BAF9042093FBF2F325E03178BAF80B
:1035800006204907C9F8002020D50392029309F0CC
:10359000EFFD039A029B20B913F0100F18BF4FF0F4
:1035A000000B0BFB0BF1322391FBF3F39B44BAF9B5
:1035B000043003FB0BFB4FF47A739BFBF3FB5A4481
:1035C000C9F8002002E00023C9F80030D9F8003023
:1035D000D4E918015F434FF47A7397FBF3F7C019EE
:1035E00041EBE7710023C4E91801714A0DF0BAFDFF
:1035F000704B1860002363636F4A704B17689346E3
:1036000017F480511ABF012283F8682083F86810EC
:10361000AB6894F83990DB052FD596F800A00AF036
:10362000040A5FFA8AFAFFF7F5F818B11AF10000F8
:1036300018BF0120C00711D50123E26E84F869305C
:103640005F4B1078B3F900105378034403EB830306
:10365000994203DD594B022283F86920FFF7DAF81B
:1036600028B1BAF1000F02D1022384F86930544B1B
:10367000B3F900300BB984F86930524B1A689A4696
:1036800012F0200F0BD017F4C06F05D04E4B1B78F3
:10369000990701D4012300E0002384F8703094F8E6
:1036A0006920464B022A02D14C204E2126E0012AF5
:1036B00006D153204D214C220B4607F065FE32E027
:1036C00093F87020012A03D1532001464E2206E0D0
:1036D00093F86820012A04D15320014602464D2365
:1036E000EBE7B9F1020F04D1532001464D224423E8
:1036F000E3E7B9F1010F03D153204D210A46F6E764
:10370000324F3A88120603D553204D210246D3E7A3
:103710002F4A107818B1192007F00AFE03E083F849
:103720007100FEF77AFE3278570703D5294B08223D
:103730005A6178E0DBF80030D80703D4264942F01C
:1037400001020A70DAF80020510702D523490988DE
:1037500061B92349098809B1920705D4214A128821
:10376000003218BF012200E0012242B1194AD1689B
:1037700081F00801D160327822F001023270124AE1
:103780001278170703D4327822F001023270D8027F
:1037900003D5337823F0010333703378124A13F0E2
:1037A000010F23D0002363670A4B0821196129E028
:1037B000407E0500F8200020E80F0020A01900201E
:1037C000D20F0020E40F00203E100020EC0F00205C
:1037D00096120020000C0140CA2E0020BA2E0020B4
:1037E0006A120020BC2E0020B02E0020616F1368EA
:1037F00041B9BD4903F5F42303F590734B67BB4B07
:1038000008215961636F12686BB1D21A002A0ADB72
:10381000B64A03F5F423D16803F5907381F00801EB
:10382000D160B14A5367B24F08F0D0F93B78002B12
:1038300072D0A36F002B00F08B85A06FAA4DFEF70E
:1038400015FE002800F08485A86FFEF70AFE0928FF
:1038500001D03F2853D14FF00009E66FDFF8B48262
:103860004D4636B1A348D8F80010324610F01AFC85
:1038700010B9C14605B945469F4B08F10C0898455B
:10388000EFD3F5B1D5F800C0D9F80080E36F9648C2
:103890001CF803E018F80310714512D15A1C59B9ED
:1038A0002D2B09D8C26703444FF0200E024483F841
:1038B00080E082F8801004E0234483F880E0E2672F
:1038C000E4E7E36F0BB14D4510D08C4803F018FED0
:1038D0004D4507D855F80C0B03F012FE092003F0F4
:1038E00008FEF5E7864803F00BFE0026E36F9E42D4
:1038F000A3D2804B985D03F0FCFD0136F6E7EB6F39
:10390000002B40F05885042840F0A98505F180007F
:1039100008F078FA00F01CBD7A4F97F84A30012B76
:1039200040F01185DFF8E891774B3A68C9F80070EC
:103930001A60CB46DFF8D0A152461068FEF796FD1C
:10394000002800F0F184DAF80000FEF78AFDDBF8C9
:10395000003093F848201AB9242839D1012234E0E4
:10396000012A04D14D280CBF022200222DE0022A98
:1039700004D13C280CBF0322002226E0032A09D1EF
:1039800040284FF0000220D81A71DA7158719871EE
:1039900004221AE0042A06D19A7983F8490050409B
:1039A0009871052211E0052A26D159791A79914298
:1039B000997906D941409971511C197113441872B3
:1039C0001AE081420CBF0622002283F8482013E04F
:1039D00033785B0710D42328DAF8003040F0DB841A
:1039E000434A012149481170A367C4F8483103F0E4
:1039F00087FD434803F084FDDBF8003093F848204E
:103A0000062A97D193F8490002F0FEF88246002872
:103A100040F07E843E4B1A6892F84930432B00F008
:103A2000CC8379D82F2B00F028842AD8272B00F0BC
:103A30008D830BD8232B00F0D280252B00F07F83C1
:103A4000212B40F0B5844FF00009E0E22B2B00F071
:103A50008A832D2B00F08B83292B40F0A98403F05F
:103A600035FDA5F80A0103F031FDA5F80C0103F0BE
:103A700023FD85F80E0103F029FDA5F8100100F0E3
:103A800044BC372B00F0D4830AD8332B00F0848356
:103A9000352B00F0A081312B40F08A8400F002BC6D
:103AA0003C2B00F0E28014D8392B40F0818403F0E5
:103AB00003FD85F8060103F0FFFC85F8080103F01B
:103AC000FBFC85F8070103F0F7FC85F8090100F01D
:103AD0001CBC3E2B00F0BC80412B08BF4FF00009FE
:103AE00000F05F8300F064BCA0190020000C0140CE
:103AF000C52E0020201A0020188001081896010801
:103B00001D960108501A0020A02100204D960108A2
:103B10009C210020107F0108CF2B00F0DB8120D8F2
:103B2000C92B00F0A5820BD84A2B00F09A80C82B35
:103B30004BD0442B40F03C84012384F86531E4E30E
:103B4000CC2B00F0738104D8CA2B00F09C8000F0CD
:103B50002FBCCD2B00F07582CE2B00F07B8200F0C5
:103B600027BCD32B2CD005D8D12B00F0A98240F252
:103B70005D8212E0D62B00F0048207D8D42B08BF58
:103B80004FF0000A00F0208200F012BCEF2B50D062
:103B9000FA2B00F0698200F00BBC337803F00403C9
:103BA00003F0FF09002B40F0B08303F085FC0228EE
:103BB00085F8600740F24082BD4B83F860973BE296
:103BC00003F084FCBB4B18809FE392F805A04FEAFA
:103BD0005A0ABAF1120F1CD84FF000091CE003F08A
:103BE0006BFC272815D8DFF8DCA200F11C0BDAF8F3
:103BF000003003EB8B0B03F05FFCAF4B0BF10509BF
:103C000003F58A72197A814200F0CF800C33934217
:103C1000F8D10AF0DFFE78E3D14507D203F056FC75
:103C2000A64B23F8190009F10109F5E70122A44B7D
:103C300018E2DFF89092D9F800A003F047FCAAF848
:103C40005600D9F8009003F041FCA9F854005CE359
:103C500003F032FC85F8270103F02EFC85F82601DD
:103C600053E303F033FCA8814FE3DFF85892D9F80F
:103C700000A003F021FC8AF80000D9F80030187881
:103C8000FEF784FD41E38F4B1A6899461278022AA9
:103C90006ED14FF00009DFF82CA209F1080BDAF819
:103CA0000030029303F008FC0CF0F8FF86490DF099
:103CB00001F9029B43F82B00DAF800B003F0FCFB9B
:103CC00009F10A030BEB830B0CF0E8FF7F490DF0C1
:103CD000F1F8DAF80030CBF80400029303F0ECFBC3
:103CE0000CF0DCFF7A490DF0E5F809F10E0B029BB0
:103CF00009F10109B9F1030F43F82B00CBD1B9F158
:103D0000070FDAF800B01AD103F0D6FB0CF0C6FFAB
:103D10006D490DF0CFF8CBF84400DAF800B003F0AD
:103D2000CBFB0CF0BBFF68490DF0C4F8CBF84800A2
:103D3000DAF800B003F0C0FB8BF84C0012E003F09F
:103D4000BBFB0BEB09035870DAF800B003F0B4FBCF
:103D50000BEB0903D872DAF800B003F0ADFB0BEB04
:103D60000903587509F10109B9F10A0FC7D1CCE26D
:103D70004FF0000AD9F800B003F09EFB0BEB0A03EA
:103D80005870D9F800B003F097FB0BEB0A03D87218
:103D9000D9F800B003F090FB0BEB0A030AF1010A1B
:103DA000BAF10A0F5875E5D1AFE21B788BF80530F0
:103DB00003F082FB89F8010003F07EFB89F8020022
:103DC00003F07AFB89F80300DAF8001001F17500BE
:103DD0000AF064FD99E203F06FFB0B283FF619AF80
:103DE0004FF0060A0AFB00F0364B00F588701B689E
:103DF00003EB000A03F060FB03283FF60AAF8AF8E2
:103E00000A0003F059FB8AF8050003F055FB8AF815
:103E1000060003F051FB8AF8070003F04DFB8AF817
:103E2000080003F049FB8AF809006EE253790A2B77
:103E30007FF4EFAED8F8009003F03EFB89F8000065
:103E4000D8F8009003F038FB89F8010003F034FB48
:103E5000D8F800306428A8BF6420187103F02CFB48
:103E6000D8F800306428A8BF6420587103F024FB00
:103E7000D8F80030FF28A8BFFF20987103F01CFB82
:103E8000D8F80090642828BF642089F8070003F060
:103E900013FB89F80200D8F8009003F00DFB89F8B5
:103EA0000300D8F8009003F011FBA9F808002CE2F9
:103EB000F40600207A13002018800108FA0F002071
:103EC000D80F0020E8110020000020410000C84267
:103ED00000007A4403F0FAFA6FF4AF6143189BB222
:103EE000C62B98BFA5F81E0103F0F0FAC449DFF80D
:103EF0001893A1F8D00003F0E9FAC14AA2F8D20061
:103F000003F0E4FABE4BD9F800A0A3F8D40003F004
:103F1000DDFAAAF8AA0103F0CFFAB94981F8340111
:103F200003F0CAFA03F0C8FAB54A82F8350103F083
:103F3000C3FAB34B83F80F0103F0BEFAB04981F81E
:103F40001C0103F0B9FAD9F8009003F0BFFA00EBB6
:103F500080004000A9F8520003F0AEFAA84A82F8A7
:103F6000060103F0A9FAA64B83F8080103F0A4FAAE
:103F7000A34981F8070103F09FFAA14A82F80901D9
:103F8000C3E103F0A3FA9F4B23F80A000AF1020AE7
:103F9000BAF1100FF5D1B8E1A0F57A739BB2B3F581
:103FA0007A7F04D8D9F8003003EBCB035881D9F8D5
:103FB000009003F081FA0AF1010A09EBCB03BAF190
:103FC000080F187300F0A181DFF83C920AF12C0B66
:103FD000D9F80020039203F079FA039A4FEACB0351
:103FE0001A44D080D9F800200293039203F06EFAAD
:103FF000029B039A1A441081029303F067FA072880
:10400000029BC9D8D9F8002013445873C4E77E4BEB
:10401000D3F800A003F050FA0AEBC90309F1010933
:10402000B9F1080F83F86D01F1D16EE133785A07C9
:1040300000F16B8106F022FB0AF0B2FF0BF050F8A2
:1040400063E133785B0700F16081704B4FF4C87215
:104050001A805AE13378580700F157816C4B1A786F
:1040600042F004021A7050E133785907E4D59FE119
:1040700003F022FA664B1A7810B142F0020201E016
:1040800022F002021A7003F017FA624BDFF89C91DB
:10409000187003F025FAC9F8000003F021FAC9F8F6
:1040A000040003F013FA5C4B188003F00FFA5B4B2B
:1040B000188094F8503143F0020384F8503124E121
:1040C00003F0FAF9029003F00BFA834603F008FAC2
:1040D000824603F005FA814603F0F8F903F0F6F999
:1040E00003F0EAF9029BABB94D49C4F854B10B880F
:1040F000C4F858A123F010030B80454B1A7842F006
:1041000001021A70B9F1000F00F0FF80454BC3F8AF
:104110000090FAE0102B40F0F880C4F85CB1C4F8CD
:1041200060A1B9F1000F02D03E4BC3F800903E48A9
:104130000223011D84F8643109F078FDE5E0A860F0
:1041400003F0CEF9AB681843A860DEE003F0BEF9D7
:10415000A5F8E80003F0BAF9A5F8EA0003F0B6F90B
:10416000A5F8EC00D1E003F0A7F96871CDE003F009
:10417000A3F985F81A0103F0A9F9A5F8220103F0C3
:10418000A5F9A5F81E0103F0A1F9A5F8200103F097
:1041900093F985F81B01B8E003F08EF985F81C014E
:1041A000B3E003F089F905EB090309F10109B9F15D
:1041B000080F83F81201F4D1A7E003F07DF9C5F8E8
:1041C00008A0687103F08CF9AB681843A86003F08D
:1041D00073F985F81A0103F079F9A5F8E80003F0FE
:1041E00075F9A5F8EA0003F071F9A5F8EC0003F001
:1041F0006DF9A5F80A0103F069F9A5F80C0184E04E
:10420000F4060020B8140020E81100206A120020F3
:104210003E100020E0110020FE200020FC200020A5
:10422000EC0F0020F00F0020FC1A002004210020D9
:1042300053791C2B7FF4EDACDFF8A89209F1200A2A
:1042400003F03AF989F83A0103F040F9A9F83C0182
:1042500003F032F989F83E0103F02EF989F83F01A5
:1042600003F02AF989F8410103F026F909F1080958
:1042700089F83801D145E3D147E0DFF8689209F1C8
:10428000400A03F023F9A9F8EC0103F015F989F8C5
:10429000EE0103F011F909F1040989F8EB01D145A8
:1042A000EFD132E003F008F91F283FF6B2ACD9F89D
:1042B00000305B79082B7FF4ACAC00F15A0A03F0B4
:1042C00005F905EB8A0A00F03F00AAF8060003F0A2
:1042D000FDF8BAF80620800100F4FE531343AAF853
:1042E000063003F0E9F800018AF8040003F0E4F86E
:1042F0009AF8043000F00F0018438AF8040003F025
:10430000DBF88AF80500FEF76DFD002003F0ACF83D
:10431000DFF8D491D9F80030987903F075F8D9F81E
:104320000030002283F8482094F865315BB138688A
:10433000FEF77FF818B93220FEF765F8F7E708F0C6
:10434000A3FF0AF0DDFD554B4C379F427FF4E5AAF1
:10435000534B1B689A0616D5524BD4F868211B683C
:104360009A1A002A0FDB504A1278042A0BD94F4AB6
:1043700003F5123303F5F873C2F868314C4BDA6871
:1043800082F01002DA604B4B9B68002B00F08380B8
:10439000494898477FE0D4F84C311B7883427FF43A
:1043A0002BAB464A464B1A600AF0AAFDFFF724BB26
:1043B0000AF010FBACE70C2803D1424803F0A0F848
:1043C0003EE00A2801D00D283CD13F4803F098F880
:1043D000E36F0BB9E36709E0344A591E02F180002C
:1043E000085C202801D10B46F3E7D3672344002261
:1043F00083F8802094F88030232B17D0334B344E31
:104400000A92009309A8334916220C2309960FF04B
:104410009AFE054638B100680FF03CFE0130AB68EB
:104420003044984702E02C4803F06AF828480021FD
:1044300030220FF0EEFD0023E3673B78002B87D09E
:10444000264808E07F2810D1013BEB6700222B446F
:10445000234883F8802003F053F8FFF7EEB90C28C7
:10446000ABD07F2804D1FFF7E8B92F2B3FF6E5A9A1
:10447000A0F12002D2B25E2A3FF6DFA913B92028AC
:104480003FF4DBA95A1C2344E26783F8800003F061
:1044900030F8FFF7D2B90DB0BDE8F08FE81A002070
:1044A000E40F0020B02E0020E0110020A019002011
:1044B000000C0140EC1100200C1B0020EFBEADDE13
:1044C000F04F002022960108449D0108CD6C0008A1
:1044D000201A0020107F01082D9601081D96010862
:1044E00049960108F40600209C21002097492DE9F7
:1044F000F04F0B68964A03F59C43964D20331360AA
:10450000AA6885B012F4807F0C4603D0924B1988BC
:104510000131198042F2010313401BB18F4B1A780D
:1045200001321A7008F08CFBAB68D80405D58C4BAF
:104530001B68D90701D40BF00FFE8A4B246818685A
:10454000837A83B1884A013B32F91300A0F57A706F
:10455000B0F57A7FA8BF4FF47A7020EAE0700CF0D3
:10456000A1FB82492FE0AA68120435D57B4A516825
:10457000611A002930DB04F59C41203151607C49EF
:104580004E797C4931F81660C17AB6B296FBF1F0EB
:10459000117A013101F00F0111720A44507218466C
:1045A000754A9A5C01331044102B80B2F8D100B2E6
:1045B00090FBF3F000B26428A8BF642020EAE0700A
:1045C0000CF070FB6D490CF075FC6D490CF0BEFBF6
:1045D0000CF0A8FD6B4B1880AB686B4E13F4807F1A
:1045E00038D06A4B9C4204D95B4B1A790AB9012234
:1045F0001A71FEF70FF900282CD0574A117913468B
:1046000009B9118026E03278614912F0040F12D006
:104610005D4842F002020270504A534CD2699089C0
:104620002080908960809289A2800A685288E28006
:104630005A8801325A800A68B3F90010107853780A
:10464000034403EB8303994202DC33785F0701D410
:104650000BF082FDB5F8DE0008F08AFD804660B9F7
:10466000FEF7CAF83D4B0022C3F82080C3F824802F
:10467000C3F82880DA621A635A6333785C0720D55E
:10468000AB68D8061DD5434B1B78D90619D4314BDE
:1046900093F82721AAB1404B1B7893B12F4B3F4988
:1046A000B8F1000F07D10A689B6B9B1A002B08DA40
:1046B0000BF052FD05E009684FF47A7000FB02121E
:1046C0009A63002295F8259195F82611B5F82041B6
:1046D000B5F822711346DFF890C09B083CF9020040
:1046E0000232A042C4BF63F07F03DBB2B842B8BF5E
:1046F00043F04003082AEED1184C94F83C209A422B
:1047000005D194F83D20F92A04D8013200E00022B6
:1047100084F83D2084F83C301F4B114F1A789A469C
:10472000002A40D13B68DA0708D5B8F1000F3AD12A
:104730003378DB0737D507F0FFF834E033785807D4
:1047400031D569B30BF008FD2DE000BFB02E00207D
:10475000DC0F0020F4060020D20F0020101B0020E8
:10476000E80F00207C0E0020FA0F002000007A44A1
:10477000E0190020F0190020191B00200000C84299
:1047800000C07F44A81D0020CA2E0020404B4C00D2
:104790000C1A00203E1000202D0000209C2E00202E
:1047A000B8F1000FCED094F83D30AD4A142BDFF8AD
:1047B000F4826CD1337819F1000903F0040318BFB7
:1047C0004FF0010903F0FF019BB19AF80030002B74
:1047D0005DD092F83C305F2B01D10BF0BDFCB9F1FC
:1047E000000F54D094F83C307D2B50D10BF0B4FC2A
:1047F0004DE092F83C30572B15D19A4B4FF47A721A
:104800001A80AB68190601D5FEF7A4FB964B1B680E
:104810005A0702D5954A0A21118013F0080336D1B0
:10482000934A138033E0A868400715D55A2B13D15B
:10483000904B187818B1197001228F4B08E092F84C
:104840003E108E4B81F0010182F83E1011B104221E
:104850001A701CE00622FBE75D2B00F07E845B2BC8
:1048600000F07D845E2B02D1032200F079BC562B30
:1048700001D10AF031FF9AF80030002B00F0878454
:1048800094F83C306F2B40F07C8407F055F8AB680F
:10489000580732D594F83E30A3B13378590711D573
:1048A0007748784BB0F90620B3F820319A4209DDF9
:1048B0003B6813F0010305D1734A32211180684A25
:1048C00082F83E303B68DA030AD5704B1A782AB971
:1048D000684A127812B96C4A3221118001220BE029
:1048E000644B1A784AB1327802F0040202F0FF01F8
:1048F0001AB91970604B01221A70D8F80090002381
:1049000009F1750A3B6009F1770698460AF102033E
:1049100003EB080113F808204B7816F8010C9A42B3
:104920000AD2314606F0E6FD30B116F8023C01220B
:104930009A403B6813433B6008F10408B8F1A00FAC
:1049400006F10406E2D1524B1B783BB13B68464E60
:1049500013F0020F4F4C40F0D582CDE209F2151250
:10496000019209F58B769846DDF804C016F8010C23
:104970000CF1010303EB080113F808204B789A426D
:1049800029D2314606F0B6FD28B396F802C0307938
:10499000414B0CF1FF3C4FF00C090CEB4C0C09FBAC
:1049A00000F99C442E4B96F803B003F1400A0AEB41
:1049B00009014A6862450ED000220AF809B08A60EF
:1049C000012202FA00F093F87020C1F804C022EA34
:1049D000000083F8700008F10608B8F1480F06F1EE
:1049E0000606C1D12D4A2E4B12681E68DFF8B8901A
:1049F00001924FF00008D9F80030002B00F07382CC
:104A00001A78002A00F06F82D9F804100198411A30
:104A100000290CDB00F5FA71C9F80410012101FA34
:104A200008F194F8700020EA010184F8701019F878
:104A3000041C58780431C9B2002840F0168210488E
:104A400030F91110B5F81E0100F1C80C614501DD07
:104A500098783AE0C838814228DA9878404234E0C1
:104A6000101B0020BC2E0020E40F0020BA2E0020D6
:104A7000DC120020951200209712002096120020D0
:104A8000FA0F0020F40600207C120020941200206F
:104A9000C52E0020EC0F00202C8101089C2E002048
:104AA00098130020E8110020541B0020012303FA72
:104AB00008F394F8702022EA0303019A84F8703016
:104AC00002F5FA73C9F804300DE294F8703043FA35
:104AD00008F3DB0700F107820028AE4BCCBF0221B0
:104AE00001211970531E0D2B00F2F581DFE813F040
:104AF0000E0017002300300044004A009700E40035
:104B0000310165019101F30130003B003378184415
:104B1000FA28A8BFFA2020EAE070307007E0737826
:104B200018446428A8BF642020EAE0707070304602
:104B3000FDF72AFCCFE1F37818446428A8BF64206D
:104B400020EAE070F070616F3046FDF7D9FBC2E1FA
:104B500073790344642BA8BF642323EAE3730D2A0B
:104B6000737100F0B881337918446428A8BF6420B9
:104B700020EAE0703071AEE1B379184480F30800A8
:104B8000B071A8E1D4F878B09BF80020022A31D1A6
:104B90000CF088F880490CF08DF9DBF824100090B7
:104BA0000BF0CCFF002182460CF06EFA38B950466B
:104BB0007A490CF087FA20B1DFF8E0A101E04FF06C
:104BC000000ACBF824A0DBF8201000980BF0B6FF09
:104BD000002182460CF058FA38B950466F490CF063
:104BE00071FA20B1DFF8B4A101E04FF0000ACBF870
:104BF00020A070E19BF802200244C82AA8BFC82266
:104C000022EAE2728BF802209BF801201044C828A7
:104C1000A8BFC82020EAE0708BF801005BE1D4F85F
:104C200078B09BF80020022A31D10CF03BF85B49A8
:104C30000CF040F9DBF8301000900BF07FFF002102
:104C400082460CF021FA38B9504654490CF03AFA31
:104C500020B1DFF848A101E04FF0000ACBF830A006
:104C6000DBF82C1000980BF069FF002182460CF055
:104C70000BFA38B9504649490CF024FA20B1DFF854
:104C80001CA101E04FF0000ACBF82CA023E19BF817
:104C90000C200244C82AA8BFC82222EAE2728BF87C
:104CA0000C209BF80B201044C828A8BFC82020EA7D
:104CB000E0708BF80B000EE1D4F878B09BF8002080
:104CC000022A31D10BF0EEFF35490CF0F3F8DBF896
:104CD0003C1000900BF032FF002182460CF0D4F91A
:104CE00038B950462D490CF0EDF920B1DFF8ACA0F1
:104CF00001E04FF0000ACBF83CA0DBF83810009838
:104D00000BF01CFF002182460CF0BEF938B950466A
:104D100022490CF0D7F920B1DFF880A001E04FF074
:104D2000000ACBF838A0D6E09BF816200244C82A27
:104D3000A8BFC82222EAE2728BF816209BF8152041
:104D40001044C828A8BFC82020EAE0708BF81500DE
:104D5000C1E0D4F878B09BF80030022B22D10BF0E0
:104D6000A1FF0D490CF0A6F8DBF828100BF0E6FEC9
:104D7000002182460CF088F938B9504607490CF0FA
:104D8000A1F920B1DFF814A001E04FF0000ACBF840
:104D900028A0A0E096120020000020410000C84298
:104DA00000007A449BF803301844C828A8BFC820E4
:104DB00020EAE0708BF803008DE0D4F878B09BF81F
:104DC0000030022B1AD10BF06DFFA3490CF072F8E2
:104DD000DBF834100BF0B2FE002182460CF054F9DF
:104DE00038B950469C490CF06DF920B1DFF868A243
:104DF00001E04FF0000ACBF834A06CE09BF80D30D6
:104E00001844C828A8BFC82020EAE0708BF80D001D
:104E100061E0D4F878B09BF80030022B1AD10BF087
:104E200041FF8E490CF046F8DBF840100BF086FE8F
:104E3000002182460CF028F938B9504686490CF01A
:104E400041F920B1DFF810A201E04FF0000ACBF8E1
:104E500040A040E09BF817301844C828A8BFC820DD
:104E600020EAE0708BF8170035E0012833D19878FC
:104E70007B4B33F91110B1F5617F05DB40F633034D
:104E80009942B8BF0B4601E04FF461730C2A22D15E
:104E90004FF4966AA3F561739AFBF0FA93FBFAFA62
:104EA00094F87C305FFA8AFA534514D0BAF1030FB4
:104EB0006C4A94BF534602230A2184F87C3001FBDC
:104EC000032369480233036002F096FB674B0AF143
:104ED000010A83F800A0012303FA08F394F8702074
:104EE000134384F8703008F10108B8F1040F09F198
:104EF0000C097FF480AD29E5AB68D80514D5FDF722
:104F000089FC88B1336899070ED52388DFF86C8156
:104F100013F001090ED1FDF76FFCB8F8003043F033
:104F20000103A8F8003005E0238823F00103238063
:104F3000012300E000233A68520711D583B123888A
:104F4000DFF8388123F001029B0722800CD4FDF7A3
:104F500053FCB8F8003043F00203A8F8003003E037
:104F6000238823F0020323802388414A13F0030F90
:104F70004FF0100114BF51611161316811F00A0F37
:104F800022D03A68D60609D558070AD443F004035C
:104F90002380384B1888384B188002E023F0040334
:104FA00023809606238806D5580607D4334843F055
:104FB0004003038002E023F040032380530603D51F
:104FC0002C4B1A882E4B1A808E0607D43B68180586
:104FD00040F1B580238843F48073B3E0294B1B78FC
:104FE000990775D5284B1B78042B71D93B6813F4AE
:104FF00000700ED02388DA06E8D424481F4A23F034
:10500000200343F01003011D138008F00FFE02225D
:1050100068E0218801F0100292B232B1174A21F003
:10502000100111801A4A107001225E054AD5194BF1
:105030001B685989184BB3F900000028B8BF4042DB
:1050400088422BDAB3F90230002BB8BF5B428B42A7
:10505000ACBF0023012322E00000C84200007A44D4
:10506000FA0F0020540E0020981300209612002002
:10507000000C0140DC1200207A130020EC0F00200D
:10508000D01900203E100020E0110020F41A00206A
:10509000041B00208C1300207213002000238BB10E
:1050A0002388980621D4644A43F020031380634B7D
:1050B00063481A685B68011D0260436008F0B6FD32
:1050C00001220FE0238899060FD523F0200306E084
:1050D000238813F0300F3FF479AF23F03003564AA2
:1050E00013800022574B1A7002E0002A3FF46EAF83
:1050F00000231A465449002050525449544E5052ED
:10510000544906EB030C5052002199510232CCF85D
:105110000400CCF8081006F1280C503643F80C10A7
:1051200099519C441E44042ACCF80400CCF8081081
:105130007060B16003F114033FF448AFDAE72388ED
:1051400023F4807323806B79082B01D00E2B6FD151
:10515000238823F0400323806AE0012200E002223A
:105160005FFA82F909F1FF3385F8603709F018FF1B
:1051700009F0B6FF022028214A4602F0E1F8FFF7C5
:1051800086BBB9F1000F02D07E2B3FF47EAB94F8C2
:105190003C30972B05D1304B4FF4C8721A80FFF783
:1051A00076BBA72B05D12D4B1A7842F00402FFF7EE
:1051B0004FBB0022BB2B039201D1022303E0B72B8C
:1051C00004D14FF6FE73ADF80E3009E0BE2B01D1CD
:1051D000022303E0BD2B1AD14FF6FE73ADF80C305D
:1051E000D8F80030BDF80C10B3F854200A44A3F8E6
:1051F0005420BDF80E10B3F856200A44A3F85620E8
:105200000AF06AFA002384F83D30FFF740BB792B9F
:1052100004D1134BDA7822F0010206E07A2B7FF4F6
:1052200036AB0F4BDA7842F00102DA70FFF72FBB92
:1052300005B0BDE8F08F00BFEC0F00200421002076
:10524000FC1A0020041B0020C62E00209013002012
:10525000901B0020941300206A1200203E100020B2
:10526000040300202DE9F04F8E4E8BB03378023BC3
:10527000072B00F2AB84DFE813F008002E004F008C
:1052800069008000FB0055019704874B874D1A6821
:105290006B6864339A4240F299840024844B854AB7
:1052A0001B789C420ADA2B68804FD05C30B1FDF746
:1052B000F9F83B68013401333B60EFE729687B4B29
:1052C000525C002A40F082841A604FF0FF325A602C
:1052D000032300F07ABC24230093774B062103F1CB
:1052E0000C0201930292A3F12200A3F10A020233FD
:1052F00007F094FE002840F06984704B9B6813F01F
:1053000080026A4B06D04FF0FF3218605A600423C7
:1053100000F05BBC1A602DE002230093684B04216F
:1053200003F10C0201930292A3F11800A3F1080209
:105330000B4407F073FE002840F048845B4B4FF0AD
:10534000FF3218605A60052300F03FBC072300932A
:105350005C4B042103F10C0201930292A3F11800AB
:10536000A3F108020B4407F059FE002840F02E84F8
:105370004E4B1860062300F028BC4C4C236813B930
:105380006360012323604A4B1D7863681D44402DF0
:10539000A8BF4025132D656040F31884434B1B685C
:1053A0000D2B00F21184DFE803F05F070B0E1219DA
:1053B00023282D3135414C524348FDF798F851E0F0
:1053C0004248434940E043484349444A48E03B4B54
:1053D000434893F8801793F8812741E0374B0A211F
:1053E00093F860273F4801FB023393F862172BE0E4
:1053F000324B3D48B3F8D01026E0304B3B48B3F871
:10540000D21021E03A4B3B48D9681DE03A4B3B486B
:10541000198819E03A4B1B68DE0404D5274B39483C
:1054200093F8061110E00C2323601DE0234B36484F
:1054300093F8081193F8092193F8073102F0D6FC8C
:1054400010E02F4B3148998802F0D0FC0AE01B4B4A
:105450009A68100508D52E48B3F80C11B3F90A2143
:1054600002F0C4FC281A6060236801332360ADE3B6
:10547000284B00241C60284B0AAD1C60274B1C6085
:1054800008233370FCF79AFF45F8140D0120FCF750
:10549000C4FF234B0122204629461A70FDF738F835
:1054A00094E300BFD50600209C2E0020E4060020D7
:1054B0006C00002058810108EE810108F4060020EC
:1054C000AC830108D4830108299901084699010891
:1054D0005E990108669901087D990108899901087A
:1054E00092990108A6990108B3990108C599010884
:1054F000EC110020D79901081C000020EA9901084E
:10550000081C0020F7990108079A0108239A01084E
:10551000319A0108E0060020DC060020D8060020B1
:1055200096120020BF4B1868002840F0BB80BE4D8B
:10553000FDF776FB4920AC68FCF7B4FFBB4B0E26A9
:105540001868FCF7BFFF2068FCF7BCFF6068FCF739
:10555000C8FFA068FCF7C5FFE068FCF7C2FF206940
:10556000FCF7BFFF6069FCF7BCFFA069FCF7B9FF5F
:105570000122B2402B681A4205D004EB860353F88F
:105580001C0CFCF7AEFF0136112EF1D1B4F9280046
:10559000FCF7A7FFA64EB4F92A00FCF7A2FFB4F966
:1055A0002C00FCF79EFFB6F8D030B4F92E00C01ADC
:1055B000FCF788FF2B68D90408D59B4B9888B4F872
:1055C0006430C01AC0F30D00FCF77CFF2B689A040E
:1055D00003D5B4F86600FCF775FF2B685B0506D4AD
:1055E0002B681F0510D5A06EFCF77BFF0CE0B4F90B
:1055F0006C00FCF776FFB4F96E00FCF772FFB4F9AB
:105600007000FCF76EFFEBE7B4F93000FCF769FFC0
:10561000B4F93200FCF765FFB4F93400FCF761FF20
:10562000B4F93600FCF75DFFB4F93800FCF759FF18
:10563000B4F93A00FCF755FFB6F8D030B4F93C00A5
:105640000126C01AFCF73EFF7A4B1B789E420ADA0D
:1056500004EB4603B3F93C00B4F93C300136C01A00
:10566000FCF73FFFF0E72B68980507D56E4B9B686A
:10567000B3F95E00A0F2DC50FCF733FFAB686E4A72
:105680006E49EB602B619B1A9B104B430321013346
:1056900093FBF1F101EB41015B1A742101FB032241
:1056A000AA6071E2624B013893F8802793F8811762
:1056B0001044B0FBF1F401FB1401914280F0288208
:1056C000594DFDF7ADFA5020D5F80880EF68FCF78A
:1056D000E9FE2A69AB6810681B6800241844EB686F
:1056E0001B68A0EB4300FCF7FCFE08EB04023B192F
:1056F00050685B680434C01AFCF7F3FE0C2CF4D13C
:10570000002308EB0301FA180969126905AC8A1A2B
:105710001A5104330C2BF4D100221346A15801F185
:1057200020003F2820D801F108000F2806D80231B8
:10573000032904D9002B08BF012300E0022304320F
:105740000C2AEBD1012B059813D0022B1FD0069BFE
:1057500000F0030003F003039B0043EA0010079BE3
:1057600003F0030318431EE007AB04A94FF0000B3E
:105770001DE000F00F0040F04000FCF793FE079B97
:1057800003F00F02069B42EA0310C0B20BE000F0E8
:105790003F0040F08000FCF785FE9DF81800FCF704
:1057A00081FE9DF81C00FCF77DFE0E265EE053F89E
:1057B00004294FEA8B0B02F18000FF2810D902F573
:1057C0000040B0F5803F02D24BF0010B08E002F53B
:1057D0000002B2F1807F34BF4BF0020B4BF0030BA1
:1057E0008B42E4D16BF03F00C0B2FCF75BFE0026B9
:1057F0000BF00303022BA05D09D0032B20D0012B5B
:105800002CD1FCF74FFEA059C0F3072026E0FCF78F
:1058100049FEA059C0F30720FCF744FEA059C0F38D
:1058200007401BE0DC060020081C0020E0060020EA
:10583000F4060020CB2E00201C1C002035C2724F25
:10584000FCF730FEA059C0F30720FCF72BFEA0594F
:10585000C0F30740FCF726FEA059000E0436FCF703
:1058600021FE0C2E4FEAAB0BC2D19EE70122B240C3
:105870002B681A420AD0B30008EB03023B4452F8EB
:105880001C0C53F81C3CC01AFCF72BFE0136112EE1
:10589000ECD1002308EB0302B2F92810FA18B2F990
:1058A00028208A1A44F813200233082BF2D108AAC0
:1058B00004A84FF0000952F804194FEA89035FFA6F
:1058C00083F969B101F108060F2E02D849F00109E8
:1058D00006E08031FF2994BF49F0020949F003092D
:1058E0008242E8D14846FCF7DDFD0026B246B346C9
:1058F00009F00301022916D003291DD0012936D150
:10590000BBF1000F05D1A2598B4612015FFA82FA52
:105910002DE0A0594FF0000B00F00F0040EA0A0004
:10592000FCF7C0FD23E0BBF1000F0DD0A059C0F380
:10593000031040EA0A0014E0A059BBF1000F07D1A0
:10594000C0F30720FCF7AEFDA05DFCF7ABFD0EE059
:10595000C0F3033040EA0A00FCF7A4FDA059C0F3ED
:105960000710FCF79FFDA25912015FFA82FA043674
:10597000102E4FEA9909BBD1BBF1010F02D150465D
:10598000FCF790FD2A6812F4805606D0B8F864102F
:10599000B7F864300126CB1A059391040AD50AA9F9
:1059A00001EB8603B8F86600B7F866100136411AB5
:1059B00043F8141C530511D504EB8601002308EBB2
:1059C0000300B0F96CE0F818B0F96C00C0EB0E0001
:1059D00041F813000233062BF1D1033610050AD526
:1059E0000AAA02EB8601BB6ED8F868200136D31AEA
:1059F00041F8143C00E026B1012E04D10598FCF7D3
:105A000070FD00241AE0731E04EB8602002052F899
:105A1000041D4000C0B209B140F00100013BF6D5C1
:105A2000FCF740FD4FF0000B54F82B0008B1FCF7D9
:105A300058FD0BF1010BB345F6DBE2E7AA6804F170
:105A4000180332F91300EA68013432F913102A6995
:105A500032F9133002220B4493FBF2F3C01AFCF725
:105A600040FD032CEAD10024AA6804F118035B006E
:105A70001A44B2F90600EA6801341A44B2F9061071
:105A80002A691344B3F9063002220B4493FBF2F364
:105A9000C01AFCF726FD032CE6D100244D4B1B78E1
:105AA0009C4217DAAA6804F11C035B001A44B2F99D
:105AB0000400EA6801341A44B2F904102A69134454
:105AC000B3F9043002220B4493FBF2F3C01AFCF743
:105AD00008FDE3E72B68990506D5B8F95E00B7F92C
