:020000040800F2
:10000000005000209517000845180008B158000856
:1000100045180008451800084518000800000000B1
:10002000000000000000000000000000451800086B
:1000300045180008000000004518000881880008E5
:10004000451800084518000845180008451800081C
:10005000451800084518000845180008993500089B
:1000600045180008451800084518000845180008FC
:1000700045180008451800088D4400084518000878
:10008000D93400084518000845180008451800082C
:100090004518000845180008451800089D35000857
:1000A0004518000845180008451800087948000858
:1000B000854800088D48000899480008652B00080D
:1000C0003D2D0008692B0008412D00084518000847
:1000D00045180008C1440008FD4400084518000800
:1000E000912300084518000845180008000000008A
:1000F0000000000000000000000000000000000000
:0C01000000000000000000005FF808F1A3
:1001100010B5054C237833B9044B13B10448AFF341
:1001200000800123237010BDE805002000000000BE
:10013000E45D010808B5064B1BB106480649AFF35C
:1001400000800648036813B1054B03B1984708BD0A
:1001500000000000E45D0108EC050020E40500203B
:100160000000000081F0004102E000BF83F0004386
:1001700030B54FEA41044FEA430594EA050F08BF42
:1001800090EA020F1FBF54EA000C55EA020C7FEA06
:10019000645C7FEA655C00F0E2804FEA5454D4EB83
:1001A0005555B8BF6D420CDD2C4480EA020281EA4D
:1001B000030382EA000083EA010180EA020281EA85
:1001C0000303362D88BF30BD11F0004F4FEA0131D7
:1001D0004FF4801C4CEA113102D0404261EB4101E6
:1001E00013F0004F4FEA03334CEA133302D052426C
:1001F00063EB430394EA050F00F0A780A4F1010428
:10020000D5F1200E0DDB02FA0EFC22FA05F2801861
:1002100041F1000103FA0EF2801843FA05F3594147
:100220000EE0A5F120050EF1200E012A03FA0EFCC6
:1002300028BF4CF0020C43FA05F3C01851EBE371F0
:1002400001F0004507D54FF0000EDCF1000C7EEB0D
:1002500000006EEB0101B1F5801F1BD3B1F5001F4B
:100260000CD349085FEA30004FEA3C0C04F101046A
:100270004FEA445212F5800F80F09A80BCF1004F93
:1002800008BF5FEA500C50F1000041EB045141EA15
:10029000050130BD5FEA4C0C404141EB010111F416
:1002A000801FA4F10104E9D191F0000F04BF0146C1
:1002B0000020B1FA81F308BF2033A3F10B03B3F19F
:1002C00020020CDA0C3208DD02F1140CC2F10C022F
:1002D00001FA0CF021FA02F10CE002F11402D8BF8D
:1002E000C2F1200C01FA02F120FA0CFCDCBF41EA59
:1002F0000C019040E41AA2BF01EB0451294330BD28
:100300006FEA04041F3C1CDA0C340EDC04F1140404
:10031000C4F1200220FA04F001FA02F340EA0300DB
:1003200021FA04F345EA030130BDC4F10C04C4F121
:10033000200220FA02F001FA04F340EA0300294601
:1003400030BD21FA04F0294630BD94F0000F83F44B
:10035000801306BF81F480110134013D4EE77FEA2E
:10036000645C18BF7FEA655C29D094EA050F08BF7A
:1003700090EA020F05D054EA000C04BF194610465B
:1003800030BD91EA030F1EBF0021002030BD5FEA9F
:10039000545C05D14000494128BF41F0004130BDC7
:1003A00014F580043CBF01F5801130BD01F000451B
:1003B00045F0FE4141F470014FF0000030BD7FEA8E
:1003C000645C1ABF194610467FEA655C1CBF0B4689
:1003D000024650EA013406BF52EA033591EA030FA0
:1003E00041F4002130BD00BF90F0000F04BF002198
:1003F000704730B54FF4806404F132044FF00005CB
:100400004FF0000150E700BF90F0000F04BF002143
:10041000704730B54FF4806404F1320410F00045A9
:1004200048BF40424FF000013EE700BF42004FEAA4
:10043000E2014FEA31014FEA02701FBF12F07F4321
:1004400093F07F4F81F06051704792F0000F14BF1E
:1004500093F07F4F704730B54FF4607401F0004562
:1004600021F0004120E700BF50EA010208BF7047B9
:1004700030B54FF000050AE050EA010208BF7047AE
:1004800030B511F0004502D5404261EB41014FF417
:10049000806404F132045FEA915C3FF4DCAE4FF01B
:1004A00003025FEADC0C18BF03325FEADC0C18BF02
:1004B000033202EBDC02C2F1200300FA03FC20FA53
:1004C00002F001FA03FE40EA0E0021FA02F11444A0
:1004D000C1E600BF70B54FF0FF0C4CF4E06C1CEAB5
:1004E00011541DBF1CEA135594EA0C0F95EA0C0F2A
:1004F00000F0DEF82C4481EA030621EA4C5123EA9D
:100500004C5350EA013518BF52EA033541F48011CB
:1005100043F4801338D0A0FB02CE4FF00005E1FB7E
:1005200002E506F00042E0FB03E54FF00006E1FBC8
:1005300003569CF0000F18BF4EF0010EA4F1FF040B
:10054000B6F5007F64F5407404D25FEA4E0E6D414B
:1005500046EB060642EAC62141EA55514FEAC5205C
:1005600040EA5E504FEACE2EB4F1FD0C88BFBCF5D8
:10057000E06F1ED8BEF1004F08BF5FEA500E50F189
:10058000000041EB045170BD06F0004646EA01014F
:1005900040EA020081EA0301B4EB5C04C2BFD4EB81
:1005A0000C0541EA045170BD41F480114FF0000E7A
:1005B000013C00F3AB8014F1360FDEBF002001F0E8
:1005C000004170BDC4F10004203C35DA0C341BDC62
:1005D00004F11404C4F1200500FA05F320FA04F034
:1005E00001FA05F240EA020001F0004221F0004168
:1005F00010EBD37021FA04F642EB06015EEA430EDB
:1006000008BF20EAD37070BDC4F10C04C4F120050A
:1006100000FA04F320FA05F001FA04F240EA0200BD
:1006200001F0004110EBD37041F100015EEA430E8E
:1006300008BF20EAD37070BDC4F1200500FA05F2AE
:100640004EEA020E20FA04F301FA05F243EA02032D
:1006500021FA04F001F0004121FA04F220EA02003C
:1006600000EBD3705EEA430E08BF20EAD37070BD82
:1006700094F0000F0FD101F00046400041EB010162
:1006800011F4801F08BF013CF7D041EA060195F044
:10069000000F18BF704703F00046520043EB0303FE
:1006A00013F4801F08BF013DF7D043EA06037047EB
:1006B00094EA0C0F0CEA135518BF95EA0C0F0CD0F6
:1006C00050EA410618BF52EA4306D1D181EA03013C
:1006D00001F000414FF0000070BD50EA410606BF36
:1006E0001046194652EA430619D094EA0C0F02D17B
:1006F00050EA013613D195EA0C0F05D152EA0336C0
:100700001CBF104619460AD181EA030101F00041DD
:1007100041F0FE4141F470014FF0000070BD41F026
:10072000FE4141F4780170BD70B54FF0FF0C4CF400
:10073000E06C1CEA11541DBF1CEA135594EA0C0F1F
:1007400095EA0C0F00F0A7F8A4EB050481EA030E6C
:1007500052EA03354FEA013100F088804FEA033353
:100760004FF0805545EA131343EA12634FEA022221
:1007700045EA111545EA10654FEA00260EF00041E2
:100780009D4208BF964244F1FD0404F5407402D234
:100790005B084FEA3202B61A65EB03055B084FEAC5
:1007A00032024FF480104FF4002CB6EB020E75EBC2
:1007B000030E22BFB61A754640EA0C005B084FEAEA
:1007C0003202B6EB020E75EB030E22BFB61A754667
:1007D00040EA5C005B084FEA3202B6EB020E75EBB2
:1007E000030E22BFB61A754640EA9C005B084FEA2A
:1007F0003202B6EB020E75EB030E22BFB61A754637
:1008000040EADC0055EA060E18D04FEA051545EA25
:1008100016754FEA06164FEAC30343EA52734FEACE
:10082000C2025FEA1C1CC0D111F4801F0BD141EA47
:1008300000014FF000004FF0004CB6E711F4801FAC
:1008400004BF01430020B4F1FD0C88BFBCF5E06F8C
:100850003FF6AFAEB5EB030C04BFB6EB020C5FEA9C
:10086000500C50F1000041EB045170BD0EF0004EF1
:100870004EEA113114EB5C04C2BFD4EB0C0541EA23
:10088000045170BD41F480114FF0000E013C90E620
:1008900045EA060E8DE60CEA135594EA0C0F08BFE4
:1008A00095EA0C0F3FF43BAF94EA0C0F0AD150EAE3
:1008B00001347FF434AF95EA0C0F7FF425AF104676
:1008C00019462CE795EA0C0F06D152EA03353FF49E
:1008D000FDAE1046194622E750EA410618BF52EA1B
:1008E00043067FF4C5AE50EA41047FF40DAF52EAEF
:1008F00043057FF4EBAE12E74FF0FF3C06E000BF8C
:100900004FF0010C02E000BF4FF0010C4DF804CD98
:100910004FEA410C7FEA6C5C4FEA430C18BF7FEA58
:100920006C5C1BD001B050EA410C0CBF52EA430C86
:1009300091EA030F02BF90EA020F0020704710F106
:10094000000F91EA030F58BF994208BF90422CBF95
:10095000D8176FEAE37040F0010070474FEA410C8E
:100960007FEA6C5C02D150EA013C07D14FEA430CAC
:100970007FEA6C5CD6D152EA033CD3D05DF8040B1D
:10098000704700BF8446104662468C46194663464F
:1009900000E000BF01B5FFF7B7FF002848BF10F126
:1009A000000F01BD4DF808EDFFF7F4FF0CBF01206B
:1009B00000205DF808FB00BF4DF808EDFFF7EAFFE7
:1009C00034BF012000205DF808FB00BF4DF808EDA2
:1009D000FFF7E0FF94BF012000205DF808FB00BF97
:1009E0004DF808EDFFF7CEFF94BF012000205DF821
:1009F00008FB00BF4DF808EDFFF7C4FF34BF01202E
:100A000000205DF808FB00BF4FEA4102B2F1E0436D
:100A100024BFB3F5001CDCF1FE5C0DD901F0004CE5
:100A20004FEAC0024CEA5070B2F1004F40EB830035
:100A300008BF20F00100704711F0804F21D113F161
:100A40003872BCBF01F00040704741F480114FEA9A
:100A50005252C2F11802C2F1200C10FA0CF320FA23
:100A600002F018BF40F001004FEAC1234FEAD32340
:100A700003FA0CFC40EA0C0023FA02F34FEA4303AA
:100A8000CCE77FEA625307D150EA01331EBF4FF033
:100A9000FE4040F44000704701F0004040F0FE404E
:100AA00040F40000704700BF80F0004002E000BF4B
:100AB00081F0004142001FBF5FEA410392EA030F49
:100AC0007FEA226C7FEA236C6AD04FEA1262D2EB93
:100AD0001363C1BFD218414048404140B8BF5B4298
:100AE000192B88BF704710F0004F40F4000020F031
:100AF0007F4018BF404211F0004F41F4000121F047
:100B00007F4118BF494292EA030F3FD0A2F1010290
:100B100041FA03FC10EB0C00C3F1200301FA03F1CE
:100B200000F0004302D5494260EB4000B0F5000FF1
:100B300013D3B0F1807F06D340084FEA310102F1B0
:100B40000102FE2A51D2B1F1004F40EBC25008BF62
:100B500020F0010040EA03007047490040EB00002C
:100B600010F4000FA2F10102EDD1B0FA80FCACF15B
:100B7000080CB2EB0C0200FA0CF0AABF00EBC2505A
:100B800052421843BCBFD0401843704792F0000F48
:100B900081F4000106BF80F400000132013BB5E79B
:100BA0004FEA41037FEA226C18BF7FEA236C21D011
:100BB00092EA030F04D092F0000F08BF0846704776
:100BC00090EA010F1CBF0020704712F07F4F04D144
:100BD000400028BF40F00040704712F100723CBF57
:100BE00000F50000704700F0004343F0FE4040F481
:100BF000000070477FEA226216BF08467FEA23633F
:100C00000146420206BF5FEA412390EA010F40F429
:100C1000800070474FF0000304E000BF10F0004375
:100C200048BF40425FEA000C08BF704743F096435C
:100C300001464FF000001CE050EA010208BF704777
:100C40004FF000030AE000BF50EA010208BF7047FE
:100C500011F0004302D5404261EB41015FEA010C13
:100C600002BF84460146002043F0B64308BFA3F10B
:100C70008053A3F50003BCFA8CF2083AA3EBC253ED
:100C800010DB01FA02FC634400FA02FCC2F120020C
:100C9000BCF1004F20FA02F243EB020008BF20F043
:100CA0000100704702F1200201FA02FCC2F12002A9
:100CB00050EA4C0021FA02F243EB020008BF20EA9E
:100CC000DC7070474FF0FF0C1CEAD0521EBF1CEACC
:100CD000D15392EA0C0F93EA0C0F6FD01A4480EABA
:100CE000010C400218BF5FEA41211ED04FF00063A3
:100CF00043EA501043EA5111A0FB01310CF00040CF
:100D0000B1F5000F3EBF490041EAD3715B0040EAF4
:100D1000010062F17F02FD2A1DD8B3F1004F40EBC4
:100D2000C25008BF20F00100704790F0000F0CF097
:100D3000004C08BF49024CEA502040EA51207F3A5B
:100D4000C2BFD2F1FF0340EAC250704740F4000036
:100D50004FF00003013A5DDC12F1190FDCBF00F027
:100D600000407047C2F10002410021FA02F1C2F1D5
:100D7000200200FA02FC5FEA310040F1000053EA71
:100D80004C0308BF20EADC70704792F0000F00F0BF
:100D9000004C02BF400010F4000F013AF9D040EAC5
:100DA0000C0093F0000F01F0004C02BF490011F459
:100DB000000F013BF9D041EA0C018FE70CEAD15357
:100DC00092EA0C0F18BF93EA0C0F0AD030F0004CD7
:100DD00018BF31F0004CD8D180EA010000F000408B
:100DE000704790F0000F17BF90F0004F084691F049
:100DF000000F91F0004F14D092EA0C0F01D1420283
:100E00000FD193EA0C0F03D14B0218BF084608D14B
:100E100080EA010000F0004040F0FE4040F4000095
:100E2000704740F0FE4040F4400070474FF0FF0C28
:100E30001CEAD0521EBF1CEAD15392EA0C0F93EA6F
:100E40000C0F69D0A2EB030280EA010C49024FEAC1
:100E5000402037D04FF0805343EA111143EA10137A
:100E60000CF000408B4238BF5B0042F17D024FF432
:100E7000000C8B4224BF5B1A40EA0C00B3EB510F0D
:100E800024BFA3EB510340EA5C00B3EB910F24BFF6
:100E9000A3EB910340EA9C00B3EBD10F24BFA3EB7B
:100EA000D10340EADC001B0118BF5FEA1C1CE0D143
:100EB000FD2A3FF650AF8B4240EBC25008BF20F0F6
:100EC000010070470CF0004C4CEA50207F32C2BF4A
:100ED000D2F1FF0340EAC250704740F400004FF0E7
:100EE0000003013A37E792F0000F00F0004C02BF18
:100EF000400010F4000F013AF9D040EA0C0093F0E2
:100F0000000F01F0004C02BF490011F4000F013B3B
:100F1000F9D041EA0C0195E70CEAD15392EA0C0FA3
:100F200008D142027FF47DAF93EA0C0F7FF470AFDB
:100F3000084676E793EA0C0F04D14B023FF44CAF1E
:100F400008466EE730F0004C18BF31F0004CCAD1B3
:100F500030F000427FF45CAF31F000437FF43CAFEF
:100F60005FE700BF4FF0FF3C06E000BF4FF0010C11
:100F700002E000BF4FF0010C4DF804CD4FEA4002F3
:100F80004FEA41037FEA226C18BF7FEA236C11D03D
:100F900001B052EA530C18BF90EA010F58BFB2EBF0
:100FA000030088BFC81738BF6FEAE17018BF40F070
:100FB000010070477FEA226C02D15FEA402C05D124
:100FC0007FEA236CE4D15FEA412CE1D05DF8040BA9
:100FD000704700BF844608466146FFE70FB5FFF73C
:100FE000C9FF002848BF10F1000F0FBD4DF808EDF4
:100FF000FFF7F4FF0CBF012000205DF808FB00BFE5
:101000004DF808EDFFF7EAFF34BF012000205DF83E
:1010100008FB00BF4DF808EDFFF7E0FF94BF01208B
:1010200000205DF808FB00BF4DF808EDFFF7D2FF88
:1010300094BF012000205DF808FB00BF4DF808EDCB
:10104000FFF7C8FF34BF012000205DF808FB00BF98
:101050004FEA4002B2F1FE4F0FD34FF09E03B3EBC5
:1010600012620DD94FEA002343F0004310F0004F05
:1010700023FA02F018BF404270474FF0000070475B
:1010800012F1610F01D1420205D110F0004008BFFA
:101090006FF0004070474FF00000704742000ED2E2
:1010A000B2F1FE4F0BD34FF09E03B3EB126209D4A3
:1010B0004FEA002343F0004323FA02F070474FF059
:1010C0000000704712F1610F01D1420202D14FF0CE
:1010D000FF3070474FF00000704700BF73B96AB926
:1010E000002908BF0028BCBF00204FF00041C4BF4A
:1010F0006FF000414FF0FF3000F03CB882B0EC469A
:101100002DE9005000F006F8DDF804E002B00CBC58
:10111000704700BF2DE9704F089E14461D4680465B
:10112000894600F029F804FB01F3A4FB00AB00FBA7
:1011300005329344B8EB0A0869EB0B09C6E900894C
:10114000BDE8708F2DE9704F089E14461D468046FD
:10115000894600F061F900FB05F5A0FB04AB04FB38
:101160000154A344B8EB0A0869EB0B09C6E90089EE
:10117000BDE8708F704700BF00292DE9F00FC0F265
:10118000A1800024002BC0F29880154606460F4629
:10119000002B3FD18A4258D9B2FA82F34BB1C3F146
:1011A000200201FA03F720FA02F29D4000FA03F64A
:1011B0001743290CB7FBF1F201FB1277A8B200FB31
:1011C00002F34FEA164C4CEA0747BB4209D97F1994
:1011D00002F1FF3C80F00581BB4240F20281023AFD
:1011E0002F44FF1AB7FBF1F301FB137100FB03F06F
:1011F000B6B246EA0141884208D9491903F1FF37DE
:1012000080F0F180884240F2EE80023B43EA0242E5
:10121000002303E08B420AD900231A4610461946E0
:1012200014B1404261EB4101BDE8F00F7047B3FAE1
:1012300083F8B8F1000F40F088808B4202D38242DD
:1012400000F2E28000230122E8E712B90123B3FB98
:10125000F2F5B5FA85F2002A3AD17F1B280C1FFA65
:1012600085FC0123B7FBF0F100FB11770CFB01F2C9
:101270004FEA164848EA0747BA4207D97F1901F1F1
:10128000FF3802D2BA4200F2C4804146BF1AB7FB0F
:10129000F0F200FB12700CFB02FCB6B246EA004012
:1012A000844507D9401902F1FF3702D2844500F284
:1012B000AE803A4642EA0142B0E7E443524263EB71
:1012C000430362E7404261EB41014FF0FF3459E7CD
:1012D0009540C2F1200927FA09F126FA09F9974049
:1012E000280CB1FBF0F800FB18111FFA85FC0CFB71
:1012F00008F349EA07094FEA194747EA01418B42D7
:1013000006FA02F608D9491908F1FF327AD28B425F
:1013100078D9A8F102082944C91AB1FBF0F300FBFF
:1013200013170CFB03F21FFA89F949EA0747BA427F
:1013300007D97F1903F1FF3160D2BA425ED9023B6F
:101340002F44BF1A43EA08438CE7C8F1200225FA6C
:1013500002F103FA08FC27FA02F320FA02F207FA74
:1013600008F741EA0C0C4FEA1C49B3FBF9F109FB01
:1013700011331FFA8CFA0AFB01FB17433A0C42EABD
:1013800003439B4505FA08F008D913EB0C0301F160
:10139000FF3235D29B4533D902396344CBEB03038B
:1013A000B3FBF9F209FB12330AFB02FABFB247EAB8
:1013B0000347BA4508D917EB0C0702F1FF331BD2DC
:1013C000BA4519D9023A674442EA0145A5FB000132
:1013D000CAEB07078F424FF000030AD305D02A4615
:1013E0001CE76246FDE63B4610E706FA08F6864231
:1013F000F5D26A1E002311E71A46E5E70B46A0E77F
:101400001146CBE7904687E74346424606E7023A55
:1014100050E702392F4439E72DE9F00F144605460D
:101420000E46002B43D18A4253D9B2FA82F757B104
:10143000C7F1200620FA06F601FA07F302FA07F4CC
:1014400000FA07F51E43210CB6FBF1F201FB126610
:10145000A0B200FB02F32F0C47EA0646B34209D9BB
:10146000361902F1FF3780F0FD80B34240F2FA8076
:10147000023A2644F61AB6FBF1F301FB136100FBB6
:1014800003F0ADB245EA0141884208D9091903F1D8
:10149000FF3680F0E980884240F2E680023B43EA72
:1014A0000242002310461946BDE8F00F70478B42F8
:1014B0004CD8B3FA83F6002E4FD18B4202D382422E
:1014C00000F2DD80BDE8F00F00230122104619462E
:1014D000704712B90124B4FBF2F4B4FA84F2002A82
:1014E00040F08280091B260CA7B20123B1FBF6F065
:1014F00006FB101107FB00F24FEA154C4CEA0141C4
:101500008A4207D9091900F1FF3C02D28A4200F24F
:10151000C8806046891AB1FBF6F206FB121107FB80
:1015200002F7ADB245EA0145AF4208D92C1902F1E4
:10153000FF3180F09B80A74240F29880023A42EA55
:10154000004210461946BDE8F00F704700231A46C6
:1015500010461946BDE8F00F7047C6F1200522FA83
:1015600005F703FA06F421FA05F301FA06FB20FA5F
:1015700005F53C434FEA1448B3FBF8FC08FB1C3369
:101580001FFA84F909FB0CFA45EA0B0B4FEA1B45DD
:1015900045EA03439A4502FA06F204D91B190CF1F5
:1015A000FF356FD3AC46CAEB0303B3FBF8F508FB7A
:1015B000153309FB05F91FFA8BFB4BEA0347B945C5
:1015C00004D93F1905F1FF3362D31D4645EA0C4C9F
:1015D000ACFB0223C9EB07079F424FF000054AD33B
:1015E00046D062462B465DE79440C2F1200921FABD
:1015F00009FC914020FA09F9260CBCFBF6F806FB21
:1016000018CCA7B207FB08F349EA01094FEA1941D0
:1016100041EA0C4C634500FA02F509D91CEB040CB5
:1016200008F1FF323BD2634539D9A8F10208A4443E
:10163000C3EB0C0CBCFBF6F306FB13C107FB03F278
:101640001FFA89F949EA01418A4207D9091903F1C8
:10165000FF3022D28A4220D9023B2144891A43EA30
:10166000084343E73A4605E7334618E70A4666E784
:10167000B0409042B5D20CF1FF32002312E733465E
:1016800032460FE79A458DD9ACF1020C23448AE724
:10169000B9459AD9023D274498E70346DEE79046CC
:1016A000C6E70238214435E7844641EA000313F0D7
:1016B000030349D1403A23D30B6803604B6843606E
:1016C0008B688360CB68C3600B6903614B694361BE
:1016D0008B698361CB69C3610B6A03624B6A4362A6
:1016E0008B6A8362CB6AC3620B6B03634B6B43638E
:1016F0008B6B8363CB6BC36340304031403ADBD2AA
:1017000030320BD30B6803604B6843608B68836097
:10171000CB68C36010301031103AF3D20C3205D3CD
:1017200051F8043B40F8043B043AF9D2043208D0A3
:10173000D2071CBF11F8013B00F8013B01D30B8815
:1017400003806046704700BF082A13D38B07B1D0CF
:1017500010F00303AED0C3F10403D21ADB071CBFA1
:1017600011F8013B00F8013BA4D331F8023B20F80B
:10177000023B9FE7043AD9D3013A11F8013B00F844
:10178000013BF9D20B7803704B7843708B788370F0
:10179000604670471D481E49026800608A4200F09A
:1017A0001F80002100F004B81A4B5B5843500431ED
:1017B00019481A4B42189A42FFF4F6AF184A00F043
:1017C00003B8002342F8043B164B9A42FFF4F9AFEA
:1017D0000DF0F2F910F000FC04F064F8FFF7FEBF22
:1017E000114E124830601248016821F070610160AA
:1017F000410201600F4C182020600F490F4808601B
:101800000F48D0F800D0406800470000F04F00209B
:10181000EFBEADDE105E010800000020E4050020F0
:10182000E8050020502700201810024009000000A1
:1018300004000140140C0140000C014044344344B6
:1018400000F0FF1FFFF7FEBF2E4B2DE9F3411B7881
:101850000546002B38D0002426462746A0460822FD
:101860006B465320322101F0E1FA9DF801209DF8EA
:101870000030013403EB02231BB29DF8032098448F
:101880009DF80230E4B203EB02231BB21F449DF823
:1018900005209DF80430202C03EB02231BB21E44CC
:1018A0009DF8073003F07F0301D0002BD7D1164BF2
:1018B00098FBF4F897FBF4F796FBF4F6A5F8008094
:1018C0006F80AE801C701AE006226B4653203221D6
:1018D00001F0ACFA9DF801209DF8003003EB0223E3
:1018E0002B809DF803209DF8023003EB02236B80D0
:1018F0009DF805209DF8043003EB0223AB8002B075
:10190000BDE8F081040600200506002008B5134B51
:1019100053201B782D2108227BB101F07DFA312163
:101920000A22532001F078FA2C210C22532001F0D6
:1019300073FA53203821902209E001F06DFA312129
:101940000A22532001F068FA53202C210A2201F0C8
:1019500063FA034B40F209121A8008BD0406002006
:101960007601002037B5114B0C461A68104B002148
:101970009A4205468DF8071001D1002013E053204C
:1019800001220DF1070301F051FA0028F5D09DF86E
:101990000730E52BF1D12A78064B01201A70064B4F
:1019A0002360064B636003B030BD00BF9001002090
:1019B000001BB700040600200D1900084918000894
:1019C00013B5062204466B460221182001F02EFAB8
:1019D0009DF800309DF801209B0803EB0223238033
:1019E0009DF802309DF803209B0803EB02236380DF
:1019F0009DF804309DF805209B0803EB0223A3808B
:101A000002B010BD08B50F210822182001F004FA19
:101A10000E221820102101F0FFF9024B4FF48052E2
:101A20001A8008BD7601002037B5002402AB0546B8
:101A300003F8014D18202146012201F0F7F950B1B9
:101A40009DF80730FB2B05D1044B01202B60044B84
:101A50006B6000E0204603B030BD00BF051A0008EF
:101A6000C119000813B5062204466B46A821682058
:101A700001F0DCF99DF800209DF8013043EA0223D3
:101A800023809DF802209DF8033043EA02236380FF
:101A90009DF804209DF8053043EA0223A38002B09C
:101AA00010BD000008B5642006F01DFF682023214A
:101AB000F02201F0B1F910B9032006F069FF05200A
:101AC00006F011FF044B68201A78202142F00F0223
:101AD000BDE8084001F0A0B90606002037B505466C
:101AE00019200C4606F0FFFE0DF1070368200F21B8
:101AF000012201F09BF99DF80730D32B15D10C4B37
:101B00004E2C2B600B4B6B600B4BEB600B4B06D0E2
:101B10005D2C08D0362C14BF0022402200E0802229
:101B20001A70012002E0C022FAE7002003B030BDA5
:101B3000A51A0008651A0008325C8F3D06060020D1
:101B400013B5062204466B4601211C2001F06EF9F4
:101B50009DF801309DF800209DF8021043EA022212
:101B600042F38D02042392FBF3F222809DF80320BE
:101B700042EA012242F38D0292FBF3F262809DF869
:101B800004109DF8052042EA012242F38D0292FBE7
:101B9000F3F3A38002B010BD13B500222A211C204C
:101BA00001F03AF90E2102221C2001F035F90F2133
:101BB00003221C2001F030F912222B211C2001F0FD
:101BC0002BF9042001210DF01BFD2023ADF804307A
:101BD00004230DEB0301022410488DF806308DF824
:101BE000074001F0B3FA22462C211C2001F014F921
:101BF0002D2101221C2001F00FF92E2100221C2092
:101C000001F00AF92A2105221C2001F005F9044BF4
:101C10004FF480721A8002B010BD00BF000801406E
:101C20007601002013B500238DF807300F4B0446D2
:101C30001A680F4B9A4201D1002015E01C200D219B
:101C400001220DF1070301F0F1F80028F4D09DF80E
:101C500007302A2B01D01A2BEED1064A0120226030
:101C6000054A6260054A137002B010BD9001002061
:101C7000001BB700991B0008411B00080706002045
:101C800013B50222044601AB1B21682001F0CEF8F7
:101C90009DF804209DF8053043EA022303F54E53D6
:101CA0004FF48C72103393FBF2F32333238002B092
:101CB00010BD13B5062204466B461D21682001F0B5
:101CC000B5F89DF800209DF8013043EA02232380F7
:101CD0009DF802209DF8033043EA022363809DF8BB
:101CE00004209DF8053043EA0223A38002B010BD12
:101CF00008B5192006F0F7FD68201521002201F033
:101D00008BF810B9032006F043FE0C4B16211A780D
:101D1000682042F0180201F07FF8172100226820A5
:101D200001F07AF83D210122682001F075F8BDE844
:101D3000084068203E21012201F06EB8000000201A
:101D400038B5054619200C4606F0CDFD6820152152
:101D5000002201F061F818B3124B622C2B60124B79
:101D60006B60124BAB60124BEB60124B0FD004D880
:101D70000A2C12D0142C0ED00BE0BC2C04D0B4F5DD
:101D8000807F06D1002209E00120187038BD0222B0
:101D900004E0032202E0042200E005221A70012080
:101DA00038BD00BFF11C0008B31C0008811C0008EE
:101DB00090C1793D00000020064B1B7813B1012B28
:101DC00003D070474FF4006201E04FF48052024BA1
:101DD0001A807047080600207601002013B50622FD
:101DE00004466B463B21682001F020F89DF8002056
:101DF0009DF8013043EA022323809DF802209DF8DC
:101E0000033043EA022363809DF804209DF80530E7
:101E100043EA0223A38002B010BD13B50622044694
:101E20006B464321682001F001F89DF800209DF8E1
:101E3000013043EA022323809DF802209DF80330FD
:101E400043EA022363809DF804209DF8053043EAAD
:101E50000223A38002B010BD07B5232006F043FD86
:101E60006820752101220DF1070300F0DFFF28B182
:101E70009DF80700B0F168035842584103B05DF87F
:101E800004FB000007B54FF40053ADF80430022303
:101E90008DF8073004238DF806301C4B1C4A1B6854
:101EA000934201D11B4803E01B4A934203D11B48D4
:101EB00001A901F04BF96B218022682000F0ACFFF2
:101EC000052006F010FD19210022682000F0A4FF73
:101ED0006B210322682000F09FFF37210222682037
:101EE00000F09AFF0E4B1A211A78682000F094FF38
:101EF0001B211822682000F08FFF1C21102268206F
:101F000000F08AFF03B05DF804FB00BF90010020E1
:101F100000127A00000C0140001BB70000100140C5
:101F200001000020F0B585B00546FFF795FF074694
:101F300000283ED0062102AB68200A4600F076FF5A
:101F40009DF80B309DF80D6003F001035B0006F077
:101F5000010643EA86069DF80930174C03F0010399
:101F60001E4306D0012E01D1002317E0022E0CD112
:101F700013E00DF1070368200C21012200F056FF49
:101F80009DF8073013F00F0303D1052006F000FD84
:101F900005E0042B01D1267001E001232370074BDB
:101FA0002B60074B6B602378002B14BF6E236F23CD
:101FB0002B72384605B0F0BD08060020B91D000898
:101FC000DD1D000838B505460C46FFF745FF18B380
:101FD000124B142C2B60124B6B60124BEB60124BAC
:101FE00014D004D8052C15D00A2C11D00CE0BC2C30
:101FF00008D0B4F5807F03D0622C05D102220AE01C
:10200000002208E0012206E0032204E0042202E0AC
:10201000052200E006221A7038BD00BF851E0008A8
:102020001B1E000890C1793D01000020044B03EB0A
:1020300080004278034B33F8120080B2704700BF33
:10204000D0170020C8170020F0B55D4C102593B0C4
:102050002A460646002120460FF0E6FF01A80DF0B3
:1020600097F90023042263708DF80730072322704C
:10207000E3703278ADF804500125A5703AB1122210
:1020800025716571A571ADF80420E37102254D4BF2
:102090001A684D4B9A420ED1BDF80430012243F02C
:1020A0002003ADF8043005232373A2736B1C0722B1
:1020B0006573E273DDB2454801A90DF01BF9737831
:1020C0007BB10223424801A9ADF804300DF012F9AA
:1020D000092301222372A2726B1C07226572E2722D
:1020E000DDB2012001460DF07FFA01214FF40070AE
:1020F0000DF086FA37480CF049FF374B002607935E
:10210000364B012D08930CBF334680230C934FF4BC
:1021100080730D934FF480630E9320230F932D480B
:102120004FF4005307A9109309960A950B96119640
:102130000CF0A4FF274801210CF0CBFF012D94BF28
:10214000002301238DF80C3001274FF4602324482D
:1021500002A902968DF80D70049305968DF818501B
:102160000CF07AFE3A46A319997839B1551CEDB2B4
:102170001B48A15DDB780CF0C0FE2A460436102E09
:10218000F1D1174801210CF094FE154801210CF003
:1021900087FE13480CF096FE11480CF098FE0028BC
:1021A000FAD10F480CF097FE0D480CF099FE00286C
:1021B000FAD10B4801210CF097FE13B0F0BD00BF1F
:1021C000D017002090010020001BB700000801403C
:1021D000000C0140080002404C240140C8170020B8
:1021E00000240140324B2DE9F0411C88314B0A2676
:1021F0005A89B3F91250A41A1A89ED025443B3F95B
:102200001420E413224495FBF2F22244DA6156438F
:10221000A2F57A6202FB02F4B3F90480B3F902C0BA
:10222000B3F90E7002FB0CFC02FB08F2B3F90C8050
:102230002413674304FB08F4241404EB62320232D3
:10224000DC88921002F50042B3F920506243B3F9E2
:1022500000304FEAEC2404EBE72404EB8304AC40A9
:10226000154B02341B68D20BA3EBA4044CF2503381
:102270002B41634355BF5B00B3FBF2F3B3FBF2F3B7
:102280005B001A12524340F6DE3462430B4C0836B0
:102290005C43241404EB224202F6CF62361103EBB6
:1022A000221300B1036001B10E60BDE8F08100BFF0
:1022B000360600200C0600203006002043E3FFFF16
:1022C000114B07B51B781BB9104B1A8801321A80C5
:1022D00001ABF6210322772000F0A8FD9DF8052030
:1022E0009DF80430120242EA03429DF806301A4378
:1022F000074BB3F92030C3F10803DA40054B1A60ED
:1023000003B05DF804FB00BF090600200A060020A8
:102310000C060020300600200C4B07B51B781BB9BB
:102320000B4B1A8801321A8001ABF621022277206A
:1023300000F07CFD9DF805309DF8042043EA022260
:10234000044B1A8003B05DF804FB00BF09060020AF
:102350000A06002036060020064B002193F82020B4
:10236000054B9201343219707720F42102F0FC02FF
:1023700000F052BD0C06002009060020034B00228D
:102380001A707720F4212E2200F046BD09060020A5
:1023900010B54FF480400CF011FF0128044605D120
:1023A0004FF480400CF018FF014B1C7010BD00BFB3
:1023B000090600202DE9F0476D4B8CB01A686D4B73
:1023C00005469A4200F0CE80DFF8C8A19AF8008056
:1023D000B8F1000F40F0C880674F102001210DF0C8
:1023E0000FF94FF4005902261023384603A94FF481
:1023F00080448DF80F608DF80E30ADF80C9000F031
:10240000A5FE0423384603A98DF80E30ADF80C4024
:1024100000F09CFE0E213046C7F8109000F0CFFE71
:102420000126082304A804948DF815308DF8148033
:102430008DF816600CF088FE28238DF8083002A86D
:102440000F238DF809308DF80A308DF80B600CF0F1
:10245000CFFC142006F047FA32460DF1070377202F
:10246000D02100F0E3FC9DF80730444C0322552BAB
:10247000E375228418BFC7F8149073D1D121324676
:102480000DF10703772000F0D1FC9DF8073077208D
:1024900003F00F021B0922766376162206ABAA21EF
:1024A00000F0C4FC9DF818209DF8193043EA02237F
:1024B00023809DF81A209DF81B3043EA0223638095
:1024C0009DF81C209DF81D3043EA0223A3809DF84F
:1024D0001E209DF81F3043EA0223E3809DF8202050
:1024E0009DF8213043EA022323819DF822209DF8A4
:1024F000233043EA022363819DF824209DF8253090
:1025000043EA0223A3819DF826209DF8273043EA61
:102510000223E3819DF828209DF8293043EA022315
:1025200023829DF82A209DF82B3043EA0223638200
:102530009DF82C209DF82D3043EA0223A38241F21E
:1025400070738AF800602B8046F678136B800C4B12
:102550006B600C4BAB600C4BEB600C4B2B610C4B72
:102560006B6101E0002000E001200CB0BDE8F087C5
:1025700090010020001BB700001001400C06002055
:102580007D2300081923000859230008C1220008F0
:10259000E5210008340600202DE9F04F504A514E45
:1025A0001768738984463089A7EB032785B00391A8
:1025B00087FB0001B288CB111404C209F08842EAFB
:1025C000416287FB000114EB020872884FF000059E
:1025D0004FEAC2344FEA1022B08945EB030942EAC0
:1025E00001620B1287FB000114EB020A4FEAD05282
:1025F00042EA41224FF0000545EB030B12F5FA6069
:102600004FEAE15343F10001CDE90001B0F5FA6F63
:1026100071F1000147DAA2FB024502FB03F1052636
:1026200005EB4105A4FB060106FB05114D104FEA21
:102630003004B8EB040869EB050984082A4844EA29
:1026400081748D104FF0FF31BAEB040A6BEB050B70
:10265000DDE9004584428D4125DA40F6AC50121880
:102660004FF0000143EB010302FB03F1A2FB022345
:102670006FF0060003EB4103544200FB0344A2FB4E
:10268000000118EB000821444FF00B0449EB01094D
:10269000A2FB040104FB031149104FEA3000BAEB1E
:1026A000000A6BEB010B114B1A68A2FB0A0102FB3B
:1026B0000B11420D42EAC1224B15B2EB080263EB4B
:1026C0000903D00B40EA4340BCF1000F01D0CCF825
:1026D0000000039808B10099016005B0BDE8F08FD3
:1026E0003C0600204006002024FAFFFF38060020A8
:1026F00007B5002101AB0322772000F097FB9DF87E
:1027000005009DF80430000240EA03409DF80630C1
:10271000184303B05DF804FB08B5FFF7E9FF014B70
:10272000186008BD3806002008B5FFF7E1FF014B2F
:10273000186008BD3C06002077204821012200F0E7
:102740006BBB77205821012200F066BB464BF7B5E2
:102750001A68464B04469A4213D010200121444D7A
:102760000CF04EFF02234FF400568DF80730284638
:10277000102301A9ADF804608DF8063000F0E6FCE6
:102780006E610A2006F0AFF87720A02101220DF13A
:10279000030300F04BFB002863D01E2101227720A9
:1027A00000F03AFB4FF42F6006F092F80025A5F1F7
:1027B00060010026022201AB7720C9B28DF80460C7
:1027C0008DF8056000F032FB9DF804209DF805307F
:1027D00043EA0223274AAB520235102DE7D1D789AD
:1027E000314607F00F0507F47F47D7810123505A80
:1027F0000231002818BF00231029F8D103BB194665
:1028000011F0010F4FEA610004D012F810004340AC
:10281000082004E032F8100083EA1023F8E71E04D1
:1028200048BF83F4C05301384FEA4303F7D1013165
:102830001029E5D1C3F303332F439D42D78101D043
:1028400000200EE042F21073238063800A4B0120C7
:1028500063600A4BA3600A4BE3600A4B23610A4B97
:10286000636103B0F0BD00BF90010020001BB70002
:1028700000100140400600204327000829270008D7
:102880003927000819270008992500082DE9F0418B
:102890008E4C2068878ABFB2FBB213F0010636D097
:1028A0000388012123F400631B041B0C03800CF03C
:1028B00031FE874B00221A70864A1D461278864BDD
:1028C000C2B1864A117819B985490978FF2911D111
:1028D00001211170834A1278022A05D122681188D9
:1028E00089B241F4006111801978206801220CF04E
:1028F00026FE10E11978206800220CF020FE784BAB
:102900001B78FF2B00F00781FF232B7003E103F0FE
:10291000020202F0FF01002A3DD0BFF35F8F714B2E
:102920001D78EDB2012D16D16A4A12789AB16B4A20
:10293000127882B131460CF0EDFDBFF35F8F206855
:102940002946038B0CF0DAFD674B20681D704FF4AD
:1029500080612A46DDE0028BBFF35F8F1A78022A7E
:102960000AD15C4A12783AB15C4A127822B100214D
:102970000CF0D0FD2068C9E01B78032B07D1554B24
:102980001B7823B1554B1B78002B40F0BF804FF4D0
:1029900080610122BDE003F0040202F0FF0C002A76
:1029A0005AD04C4BDFF840811A78012688F8006035
:1029B0004A4B002A3AD01A78002A37D0494B444D66
:1029C0001B784A4F022B1ED90CF0A4FD2B782068EF
:1029D00099192970018A3A685BB2C9B2D15431465B
:1029E0000CF08CFD2B78206899192970018A3A68BF
:1029F0005BB2C9B2D1544FF48061324688F80060AE
:102A00000CF094FD23E031460CF078FD29783A680B
:102A1000CBB248B221680E8AF6B21654098A581C05
:102A200040B2C9B2033311542B7010E01B7801215E
:102A300013B92F4B1B782BB10CF060FD244B1A7887
:102A4000013203E00CF04EFD244B01221A70226883
:102A50001388D905FCD45EE003F0400303F0FF02C5
:102A60001B4D204EE3B1214B2978078A1A68FFB22B
:102A70004B1C49B2DBB257542B7032785BB2033334
:102A80009A4204D14FF4806162460CF04FFD2B78DE
:102A900031785AB291423ED10D4A013313703AE077
:102AA0003B0638D52B7859B24F1C25D0114F013336
:102AB0003F68DBB2795C2B70C9B2018231785BB2BE
:102AC000994228D14FF4806123E000BF68060020BE
:102AD00050060020650600206F06002052060020E8
:102AE00053060020540600206406002058060020EB
:102AF0005106002060060020134B2A701B78DBB2C1
:102B00000382124B1B780BB9337823B94FF48061E1
:102B100000220CF00BFD0E4B0E4A1B7892F90020A0
:102B200001339A420DD10C4B00221A700B4B1B78CB
:102B300023B120684FF440710CF0F8FC084B0022E0
:102B40001A70BDE8F08100BF530600206506002022
:102B50005406002050060020520600206406002083
:102B60006E060020FFF792BEFFF790BE2DE9F04100
:102B7000484C86B08046012147480CF04DFD4FF48B
:102B800040651C230227204601A9444EADF804509D
:102B90008DF806308DF8077000F0D8FA142320461F
:102BA00002A9ADF80850C6F800808DF80B708DF8BA
:102BB0000A3000F0CBFA25610825364CA3685B0586
:102BC00003D40A2005F084FEF7E74FF480670A205B
:102BD000676105F07DFE013D27610A2005F078FE62
:102BE00015F0FF05E9D14FF40068C4F814800A20FD
:102BF00005F06EFE67610A2005F06AFE27610A2073
:102C000005F066FE4FF44063C4F81080ADF808305C
:102C1000022302A98DF80B3020461C238DF80A30C0
:102C200000F094FA30680CF0BBFB02A80CF040FCFA
:102C30002A4630684FF440710CF078FC4BF6FF7375
:102C4000ADF80E304FF48043ADF81430144B3068BB
:102C500001210293ADF80C500CF038FC02A9306849
:102C60000CF0B8FB22238DF80030684601238DF864
:102C700003308DF801508DF802500CF0B9F8212383
:102C800068468DF800308DF801500CF0B1F806B0B0
:102C9000BDE8F081000C01400800400068060020FB
:102CA000801A060037B5224C2068838A9BB20193B4
:102CB000019B13F4706F02D01E4B01221A70019B0E
:102CC00013F4E06F28D04FF480610022038B0CF0E6
:102CD0002DFC019B98051FD42068038899051BD4FF
:102CE000058805F48075ADB265B10388DA05FCD4BA
:102CF00001210CF003FC206803889B05FCD4FFF73E
:102D000035FF09E001210CF0F9FB094B4FF440714C
:102D100018682A460CF00AFC2268938A23F4706330
:102D20001B041B0C9382044B00221A7003B030BDAD
:102D3000680600205C0600206E060020FFF7B2BF88
:102D4000FFF7B0BF08B5054B1A88013292B21A805E
:102D5000034B1868FFF70AFF002008BD6C0600202F
:102D60006806002070B54000214CC0B22070214898
:102D700001240170204900200C702049087020496E
:102D80000B6020490B60204B20491A70204A214BD0
:102D90000C70107018680D4684881E4614F4007F6D
:102DA000144614D10388D9050BD447F23053028856
:102DB000920502D5013BFAD111E083B101210CF05B
:102DC00091FB30684FF4407101220CF0AFFB47F2E9
:102DD00030532A7812B1013BFBD100E01BB9BDE8AA
:102DE0007040FFF7AFBF207880F0010070BD00BFDA
:102DF0006F060020530600205106002065060020C3
:102E00006006002058060020540600206E060020B0
:102E10005C0600206806002007B502AB03F8012D10
:102E20000122FFF79FFF03B05DF804FB70B540007F
:102E3000214CC0B22070214801240170204900209B
:102E4000087020490C7020490B6020490B60204B12
:102E500020491A70204A214B0C70107018680D46DA
:102E600084881E4614F4007F144614D10388D905C3
:102E70000BD447F230530288920502D5013BFAD1B8
:102E800011E083B101210CF02DFB30684FF440714B
:102E900001220CF04BFB47F230532A7812B1013B70
:102EA000FBD100E01BB9BDE87040FFF74BBF2078B5
:102EB00080F0010070BD00BF6F06002053060020A7
:102EC00051060020650600205806002060060020FC
:102ED000540600206E0600205C06002068060020D4
:102EE000014B188880B270476C06002007B500229D
:102EF00002AB03F8012D1E200A210122FFF796FFE5
:102F000028B19DF80700B0F148035842584103B07A
:102F10005DF804FB37B50622044603216B461E20EC
:102F2000FFF784FF9DF801309DF80000154D43EA3E
:102F3000002000B2FDF772FE2968FDF7C3FEFEF720
:102F400087F89DF8033020809DF8020043EA0020B6
:102F500000B2FDF763FEA968FDF7B4FEFEF778F84E
:102F60009DF80530A0809DF8040043EA002000B2DF
:102F7000FDF754FE6968FDF7A5FEFEF769F860806D
:102F800003B030BD040000202DE9FF41674B684AC3
:102F90001B68934211D1082001210CF031FB4FF442
:102FA0008053ADF8043002238DF8073004238DF8E8
:102FB000063060480DEB03010CE05F4A93420BD1F1
:102FC000102001210CF01CFB04A94FF480435B4846
:102FD00021F80C3D00F0BAF8322005F084FC002105
:102FE00011221E20FFF718FF012160221E20FFF78B
:102FF00013FF642005F077FC02A8FFF78BFF002485
:103000000A2527462646022101221E20FFF704FF3B
:10301000322005F068FC02A8FFF77CFFBDF908200C
:10302000BDF90A10BDF90C3014449142B8BF0A46EC
:103030001E449A42B8BF134613F5805F0F4409DD62
:103040003C4B013DDA6882F01002DA60DBD14FF0D0
:10305000010801E04FF000081E2000211222FFF7B6
:10306000DBFE0A25022101221E20FFF7D5FE3220B9
:1030700005F039FC02A8FFF74DFFBDF90820BDF9A6
:103080000A10BDF90C30A41A9142B8BF0A46F61ACC
:103090009A42B8BF134613F5805FC1EB070707DDFF
:1030A000244B013DDA6882F01002DA60DAD101E0E7
:1030B0004FF000082046FDF7B1FD01462048FDF71E
:1030C000B5FE204D20F0004028603846FDF7A6FDF3
:1030D00001461B48FDF7AAFE20F00040686030461C
:1030E000FDF79CFD01461848FDF7A0FE20F00040CA
:1030F000A860002170221E20FFF78EFE01212022F1
:103100001E20FFF789FE1E2002210022FFF784FE09
:10311000642005F0E8FBB8F1000F04D14FF07E53B6
:103120002B606B60AB6004B0BDE8F08190010020C3
:1031300000127A00000C0140001BB7000010014093
:1031400000406F460400002001C05E462DE9F041BA
:103150000F88002347FA03F2D2072BD58A7803F0B1
:10316000070512F0100F18BF91F803C002F00F0608
:1031700018BF46EA0C06AD004FF00F0C0CFA05FC28
:1031800006FA05F5DC0850F82480282A28EA0C0CF9
:1031900045EA0C0540F8245005D101229A40C46844
:1031A00024EA020205E0482A04D101229A40C468B8
:1031B0002243C2600133102BCCD1BDE8F08101F075
:1031C00003039B000F229A40984001F0FC0101F19B
:1031D000804101F5803110B58C6824EA02028A60D2
:1031E0008A6802438A6010BD30B5144B85B004ACC8
:1031F0000FCB04E90F00082001210CF001FA082090
:1032000001210CF0FDF90E4B08221A6110221A61FF
:1032100001AC05AD0B4B1A680B4B9A4204D1A37855
:10322000142B04BF1023A37054F8040C2146083457
:10323000FFF78CFFAC42EDD105B030BD6431010821
:10324000000C014090010020001BB70010B5044B9A
:103250000C8800EB40001A181C528B78937010BD3C
:103260007B06002030B50A4A00EB4000155C642460
:103270004D43131895FBF4F515545A784A4392FBC5
:10328000F4F25A709A78514391FBF4F49C7030BD7B
:103290007B06002010B50023044A0488D118D452BC
:1032A00082780333542B8A70F6D110BD7B06002040
:1032B000034B1878D0F1010038BF0020704700BFE1
:1032C0007A0600200B4970B50A8800230D4600FAE3
:1032D00003F4D11814F0800F03F10103064C14BF5E
:1032E0001126092689B2082B6654F0D108322A80AB
:1032F00070BD00BF70060020E01700201F4A2DE9B6
:10330000F047136814461E485D1C0178814601F0A1
:10331000FF0209B12B46F6E723601A4B1A4C1A80BC
:1033200022809A46BAF800502BB21B2B13DCDFF830
:10333000608003EB430708EB07067078FFF7C2FFD6
:1033400018F80700FFF7BEFFB078FFF7BBFF0D4B83
:1033500001351D80E6E7238840F2C922934205D853
:103360000A4A0021D15401339BB2F5E7238001239F
:1033700089F80030BDE8F04700F0C6B874060020B8
:103380007A0600207806002070060020E017002052
:103390007B06002008B500F009F80348FFF77AFF24
:1033A000BDE80840FFF7AABF9F3B01082DE9F041A7
:1033B000042094B001210CF023F94023ADF8003033
:1033C00018238DF80330694603233B488DF80230FB
:1033D0000BF090FF022001210CF01EF9374B384E04
:1033E0001A68384B0025B2FBF3F3013B1D2230462F
:1033F00002A9ADF80C200124ADF80830ADF80E504C
:10340000ADF80A500CF098F96023304605A9ADF8E4
:103410001430ADF81640ADF81A50ADF81C500CF051
:10342000D5F9304608210CF016FB274F30462146CF
:103430000CF0F1FA214620460CF0D6F838460BF095
:10344000A5FD224B4FF010080993214B38460A93F3
:1034500040F2CA230C9380230E934FF480730F9392
:1034600009A94FF400531293CDF82C800D951095B7
:10347000119513950BF002FE304622464FF4007171
:103480000CF0E0FA0221224638460BF02DFE022312
:1034900001A88DF806308DF804808DF805408DF870
:1034A00007400BF0A5FC0B48FFF7F4FEFFF726FFE3
:1034B00014B0BDE8F08100BF000801409401002075
:1034C0000004004000366E016C00024034040040ED
:1034D000E01700209F3B010808B54FF400100BF0E7
:1034E00011FE58B1064B0021064819700BF0F1FD92
:1034F000BDE808404FF400100BF012BE08BD00BF3D
:103500007A0600206C00024038B50A4C0A4D20466D
:1035100040F2CA210BF0F0FD284600210CF0BFFA62
:10352000284601210CF06BFA20460121BDE8384005
:103530000BF0CFBD6C00024000040040114B124A5A
:103540009B68128810B51A42104C03D005F0A0F900
:10355000206010E005F09CF9236898420BD9C01A4E
:103560003B220B4BB0FBF2F0B0F5967F1B68C8BF57
:103570004FF0FF301860074BBDE8104018680BF0A3
:103580002BBE00BF000C0140D4060020E406002042
:10359000DC060020D8060020FFF7D0BFFFF7CEBF23
:1035A0002DE9FF412B4B2C4F2C4C2D4E2D4D40B176
:1035B000012811D102223A8022601880307007223F
:1035C00009E04FF480721A804FF400723A80226052
:1035D0000922327017222A701B884FF01008ADF8AC
:1035E000043001A9022320488DF807308DF80680A9
:1035F000FFF7ACFD3B881C48ADF8043004230DEB0D
:1036000003018DF80630FFF7A1FD31780120FFF7A7
:10361000D6FD20680BF0E0FD236802A80293012488
:1036200000238DF80C308DF80E408DF80D800BF0D6
:103630008BFD2B780D4A59B203F01F039C404909BA
:1036400042F8214005F03EF9094B3C38186004B0BF
:10365000BDE8F081E0060020D4060020D806002056
:10366000D7060020D6060020000C014000E100E053
:10367000D006002038B5044605F024F9084B196837
:103680003C3188420BD31860064D074B0B201C6061
:103690002B88064C236105F01BF92B88636138BD2C
:1036A000D0060020E0060020DC060020000C0140CF
:1036B0002DE9F0413E4D00232B706B70037A427868
:1036C000002B044614BF0223002302B10133394A00
:1036D000002652F82380374638F806304FF6FF723E
:1036E0009342D8B260D0E27812B1821E012A58D932
:1036F000227912B1021F032A53D962792AB12E49C5
:10370000020189582D4A91424BD0A2780AB1012872
:1037100047D01B0A022B04D12278002A08BF0023BD
:1037200002E0012B08BF6378A27932B1227A22B974
:10373000A0F10802012A98BF0423E27922B1227A7B
:1037400012B9021F032A21D9012B02D100F040FA3D
:1037500027E0022B04D1F9B200F002FA013720E091
:10376000032B11D1628914490001B2F5FA7F084494
:10377000E389697802D900F0EBF801E000F0FEF887
:103780006B7801336B700CE0042B0AD10A4B29785B
:1037900003EB0010A289238A00F006F92B7801338D
:1037A0002B7002361C2E97D10148BDE8F08100BF76
:1037B000E80600208431010830320108000400408E
:1037C000074BA1F57A7153F820304FF47A701A68DC
:1037D0009B884B4393FBF0F39BB21380704700BF71
:1037E000EC060020024B53F820301B68198070470C
:1037F000EC0600202DE9F04F474D044628788E4610
:1038000091460C26421C87B02A70464372462068B7
:103810004946019301F000F8A2686068ADF80820FD
:103820004FF0020A182202A98DF80A208DF80BA089
:10383000FFF78CFC02A8256894F80CB00CF0CDF8CA
:103840007022019B354FADF808200122ADF80A2007
:10385000ADF80E3000224FF4807307EB0608ADF888
:103860000C20ADF810A0ADF81430BBF10C0F2BD824
:10387000DFE80BF0072A2A2A102A2A2A192A2A2ADC
:103880002200284602A90BF0A1FF284608210CF0CF
:10389000E2F819E0284602A90BF0DCFF28460821CF
:1038A0000CF0E1F810E0284602A90CF017F82846C1
:1038B00008210CF0E2F807E0284602A90CF050F8C5
:1038C000284608210CF0E1F8A37B1BB120680121F8
:1038D0000CF0A1F8206801210CF091F8237B0C2B4F
:1038E00014D8DFE803F0071313130A1313130D138F
:1038F000131310002368343307E02368383304E0DF
:1039000023683C3301E023684033BB514046A8F8AC
:10391000049007B0BDE8F08FEA0600203C070020C5
:1039200008B5044B53F820301BB10B2801D89B6815
:10393000984708BDEC060020044B53F820301BB11B
:1039400007289CBF1B681980704700BF1C07002018
:1039500010B50C460649B1FBF2F292B20821FFF70E
:1039600049FF044B43F82400034B836010BD00BFA4
:1039700000127A00EC060020C137000810B50C4692
:103980000649B1FBF2F292B20121FFF733FF044B7B
:1039900043F82400034B836010BD00BF40420F007A
:1039A000EC060020E537000810B50C46054991FBF0
:1039B000F2F292B20121FFF71DFF034B43F82400FE
:1039C00010BD00BF40420F001C070020024B1A6CC4
:1039D00011441964704700BFAC1A0020334A10B577
:1039E000136C90681944081A40F68C239842916031
:1039F000D060516013463CD9127893F945108A4241
:103A00000BD1111F082908D893F84610182901D89E
:103A1000013103E083F8442002E0002183F84610DE
:103A200093F944108A421CD1204991F84710C1B142
:103A3000002191421E4806DA03EB8104246920F834
:103A400011400131F5E7511E00EB41011630814272
:103A500003D0002421F8024FF9E716490878013015
:103A6000087083F84520002201211A7083F847105E
:103A700010BD92F84710B9B1A0F2EF2440F2DA512C
:103A80008C4208D811780B2905D80B1D0131117013
:103A900042F8230010BD002283F847209918043211
:103AA0000020302A0861F9D110BD00BFAC1A0020F7
:103AB000CE07002068080020034B1878034B1B78C2
:103AC000C01A18BF0120704768080020CC070020EA
:103AD000024B1A78024B1A70704700BF680800202A
:103AE000CC0700207FB5044601A80D4616460BF012
:103AF0007EFF0123ADF808300023ADF80A302046E0
:103B0000032301A9ADF80450ADF80660ADF80C3000
:103B10000BF0F8FF04B070BD10B50F4B03EB0010B5
:103B20008278C36832B9012282708180197B18685B
:103B300002220CE08288C1804478891A074A89B23F
:103B400022F814100022018182701868197BBDE8E8
:103B50001040FFF7C7BF00BFE8070020CE070020D6
:103B60002DE9F3410D46174F17492A014FEA001876
:103B700008EB07048B1801265D708E54DC60A36887
:103B8000E27B6068ADF8043001A902238DF80730AC
:103B90008DF80620FFF7DAFA58F80700217B00229B
:103BA000FFF7A0FF204632464FF6FF7100F056FEA9
:103BB00020462946054A002300F002FE02B0BDE877
:103BC000F08100BF30320108E8070020193B0008EF
:103BD0001B4BF7B50024FF221A4E1C70DC60070156
:103BE0005C609C601C6483F8442083F8452083F863
:103BF000464083F84740144BBD191C70DD60AB682C
:103C0000EA7B6868ADF8043001A902238DF807301B
:103C10008DF80620FFF79AFAB859297B2246FFF75C
:103C200061FF28464FF6FF71012200F017FE28467B
:103C30002146064A064B00F0C3FD03B0F0BD00BFAD
:103C4000AC1A002030320108E8070020DD390008F6
:103C5000CD390008014B33F810007047CE07002023
:103C600041717047426A806A131A5842584170473E
:103C70007FB5044601A80D4616460BF0B8FE012399
:103C8000ADF808302046002301A9ADF80450ADF886
:103C90000660ADF80A30ADF80C300BF033FF04B01D
:103CA00070BD437913F0010307D00369C169026A4B
:103CB000013B881A1840C0B27047184670474379D4
:103CC00010B513F0010304460DD0FFF7EAFF58B119
:103CD000226A6369985CE3680132B2FBF3F103FB8B
:103CE0001123236210BD184610BD43799B070AD5E6
:103CF000436A8269D154426A03690132B2FBF3F12B
:103D000003FB1123436270478379012B03D1D1F167
:103D1000010138BF0021D0F834315A689B6809B1DD
:103D2000136170475361704707B503469B6840684D
:103D3000ADF8043048238DF8063001A902238DF830
:103D40000730FFF703FA03B05DF804FB2DE9F743F2
:103D500091464FF4127242431F463D4B0646D4181B
:103D600008B93C4802E0012804D13B4820631030E8
:103D7000C4F8340139480025D050032363714FF44F
:103D800080734FF00108E3602361D4F8343184F884
:103D90003C5284F8388284F8395284F84662586874
:103DA0009B6804F134026261ADF8043004F59C7242
:103DB0001023A261E162256201A9E561A562656245
:103DC000A4F84252A4F844528DF80630C4F8089082
:103DD0000223A7718DF80730FFF7B8F9206BFFF7C2
:103DE000A3FF41462046FFF78FFF322004F07BFD02
:103DF0001B4BD4F834811B681D46B5FBF9F1B1F5B6
:103E0000803F03D3012DF8D96D08F6E7154A4046E7
:103E1000B3FBF2F289B2D2B200F020FD4046314647
:103E20000023114A00F0CCFC256B012F14BF0222A5
:103E300000222868297BFFF71BFF284631460B4AE2
:103E4000002300F0BDFC204603B0BDE8F08300BFB6
:103E5000F41A002070320108903201080032010883
:103E60009401002040420F0085400008113F0008E7
:103E700003460A4690F84602D96A9B79FFF766BF67
:103E800010B590F83C220446C2B9836A416A99424F
:103E900028D08069591CA162C05C2369C0B29942D4
:103EA0004FEA400343F40073A4F83E324FF00A0394
:103EB00084F83D3228BFA262012311E090F93D321F
:103EC00073B1B0F83E124B08A0F83E3201F0010188
:103ED000FFF71AFF94F83D32013B84F83D3210BDE4
:103EE00084F83C3210BD90F83B3210B57BB990F8A5
:103EF0003A3290F83922934209D201219940B0F820
:103F0000404201332143A0F84012DBB2F3E710BD79
:103F10002B4B10B54FF4127404FB00346379DB07AC
:103F20004DD594F838321BB3236B002118680BF081
:103F3000B6FD94F83C3223B1B4F842320133A4F810
:103F40004232A279236B012A1868197B0CBF022226
:103F50000022FFF78DFE012384F83B32002384F812
:103F6000393284F83A3284F83832A4F8403210BD3D
:103F700094F83B322046012B04BF94F8393284F880
:103F80003A32FFF7B0FF94F83B12236BA27949B99C
:103F9000012184F83B128A421868197B0CBF022267
:103FA000002208E0002184F83B12012A1868197BDE
:103FB00014BF02220022BDE81040FFF759BE10BD19
:103FC000F41A0020012280F8382290F83B220023C6
:103FD000012A80F839320BD1827980F83B32036BA9
:103FE000012A1868197B14BF02220022FFF740BE85
:103FF0007047427908B50346D0071CD5B3F8400294
:10400000810501D4C20705D4B3F844220132A3F8D4
:10401000442208BDDA6AC0F347000AB1904708BDE0
:10402000DA6959698854D969DA680131B1FBF2F06B
:1040300002FB1012DA6108BD10B590F83832044660
:10404000F3B990F839320133DBB2092B80F83932F9
:1040500003D1BDE81040FFF746BF0A2B10D190F8FE
:104060003B322BB9B0F8403243F00103A0F84032A4
:104070002046FFF7BEFF2046BDE81040FFF7A2BF75
:1040800010BD0000064B10B54FF4127404FB003451
:104090002046FFF7F5FE2046BDE81040FFF7CCBFF5
:1040A000F41A0020436B13B190F844007047826A01
:1040B000436AD31A5842584170471FB5836800932A
:1040C0000023ADF80430437903F0040101F0FF024E
:1040D00031B14FF40052ADF806204FF4806201E098
:1040E000ADF80620ADF808200022ADF80C2013F042
:1040F000010218BF04229B07ADF80A2005D5BDF8C0
:104100000A3043F00803ADF80A30006D69460BF041
:10411000ADFD05B05DF804FB8160FFF7CEBF4171D6
:10412000FFF7CBBF026B03691AB15168013B026C08
:1041300002E0C169026A013B881A1840C0B27047A8
:10414000016B0346C26810B5406941B1196C541A3D
:10415000005D013918BF0A46C0B21A6410BD196A61
:10416000405C0131B1FBF2F402FB1412C0B21A62DE
:1041700010BD00002DE9F0431E464E4B8DB0984215
:104180008946904604D11046314600F0CDF807E04C
:10419000494B984240F089801046314600F020F9A2
:1041A0000025012780F844700562C561856245627B
:1041B000C0F82C904671C0F8088085710446FFF75E
:1041C0007CFF01A80AF078FFE36CF20701934FF43B
:1041D00080530A934FF080030B950595079506933E
:1041E000089527D5206BD0B1E3680395049320236D
:1041F0000993636902930AF0C9FE206B01A90AF0D2
:104200003DFF206B39460AF064FF206D40213A469D
:104210000BF0A4FD206B0AF071FF20640AE0206D12
:1042200040F225510BF0A3FD206D40F225513A4696
:104230000BF07CFD01A80AF03FFFA36C0025019361
:104240004FF480530A938027B3070B950595079584
:104250000697089523D5606BD8B123690995049317
:10426000102303930AF092FE606B01A90AF006FF87
:10427000606B012202210AF037FF606B29460AF0C9
:104280003BFF636B206D5D60394601220BF066FDDC
:1042900005E0206D40F2277101220BF047FD206DF3
:1042A00001210BF037FD204600E000200DB0BDE8F5
:1042B000F08300BF003801400044004003469A6A82
:1042C0009969406B1144C160596A914203D98A1AB5
:1042D0004260996204E019698A1A426000229A6277
:1042E000002283F8442001210AF0F3BE10B5426A8F
:1042F0008469A154416A02690131B1FBF2F402FB05
:1043000014124262426B32B11368DB070BD4BDE872
:104310001040FFF7D3BF006D40F227710122BDE8C6
:1043200010400BF003BD10BD274B284A13B51A608F
:10433000274A98605A61274A0C469A614FF4807266
:10434000DA601A61244A4FF480401A6504329A6494
:10435000DA6402F5484254321A630121143A5A636E
:104360000BF04EF9012001460BF03EF902238DF8C7
:1043700003304FF40073ADF80030A2074FF018037C
:104380008DF8023003D515486946FEF7DFFE4FF47D
:104390008063ADF8003048238DF80230E30703D581
:1043A0000E486946FEF7D2FE0E238DF8043001A8B0
:1043B00001238DF805308DF806308DF807300AF0AE
:1043C00017FD014802B010BD2C0B00201832010867
:1043D000E9080020290A00200038014000080140B7
:1043E000244B254A13B51A608022DA6040221A61F4
:1043F000224A98605A61224A0C469A61214A4FF437
:1044000000301A65012104329A64DA640BF004F971
:10441000012001460BF0E8F802238DF80330042355
:10442000ADF80030A2074FF018038DF8023003D525
:1044300015486946FEF78AFE0823ADF80030482388
:104440008DF80230E30703D50F486946FEF77EFE7C
:1044500026238DF804300222012301A88DF80530AF
:104460008DF806208DF807300AF0C2FC014802B032
:1044700010BD00BF800B0020183201086908002021
:10448000E9090020004400400008014010B50B4C31
:104490004FF400500AF04EFE606B00210AF019FE46
:1044A000626AA36A9A4204D02046BDE81040FFF732
:1044B00005BF012384F8443010BD00BF2C0B002041
:1044C0000D4B186D0288120614D59A6A596A8A42F1
:1044D0000BD09969895C0132C9B281801969B2FB3C
:1044E000F1F001FB10229A62704740F2277100221E
:1044F0000BF01CBC704700BF2C0B002038B51B4CC8
:10450000236D1D88ADB2AA0612D5E26A1AB1988849
:1045100080B290470CE09B88E2696169DBB28B5402
:10452000E269E3680132B2FBF3F103FB1123E361BB
:104530002B0619D5A26A616A0C4B8A420CD0986985
:10454000196D805C0132C0B288801969B2FBF1F04C
:1045500001FB10229A6238BD186D40F227710022CB
:10456000BDE838400BF0E2BB38BD00BF800B002037
:1045700007B50E4B93E8030002AB03E903000420E8
:1045800001210BF03DF80A4B1A680A4B9A4206D1FA
:104590009DF80630142B04BF10238DF806300098C8
:1045A00001A9FEF7D3FD03B05DF804FB74310108E7
:1045B00090010020001BB70010B1034A034B1A60A2
:1045C000034A044BDA607047EFBEADDEF04F0020C7
:1045D0000400FA0500ED00E013B51C2001210BF0EA
:1045E0000FF8002302AC8DF806304FF6FF7324F865
:1045F000043D21460648FEF7A9FD21460548FEF781
:10460000A5FD05482146FEF7A1FD02B010BD00BF83
:1046100000080140000C01400010014010B50023CB
:10462000094CDAB254F8224001338442F8D1002315
:10463000064CD8B234F8104001338C42F8D102EB6A
:104640008000C0B210BD00BF103301082033010844
:10465000F8B5012104460BF0FAFA01280146414F52
:1046600001D0002616E020460BF0FCFAA68D0025AE
:10467000B6B22046795DFFF7D1FF3B4B142202FB17
:104680000030C36813B1007C314698470235082DCD
:10469000EFD1E6E7BD5DADB9204602210BF0D7FAB8
:1046A00001285BD1204602210BF0DCFA2946204686
:1046B000FFF7B4FF2C4B142505FB003520460BF00B
:1046C000B9FA46E0042D15D1204629460BF0BFFA71
:1046D000012843D1204629460BF0C4FA294620463A
:1046E000FFF79CFF204B142505FB003520460BF0FF
:1046F000A4FA2EE0082D15D1204629460BF0A7FA82
:1047000001282BD1204629460BF0ACFA2946204639
:10471000FFF784FF144B142505FB003520460BF0F2
:104720008FFA16E00C2D19D1204610210BF08FFACC
:10473000012813D1204610210BF094FA2946204677
:10474000FFF76CFF084B142505FB003520460BF0E6
:104750007AFAAB6801460BB1287C98470236082EDE
:1047600098D1F8BD20330108D40B002070B50C4659
:1047700015461E46FFF752FF0F2808D8044B142297
:1047800002FB0030049B8660C3600471057470BD39
:10479000D40B00200C2912D8DFE801F00711111109
:1047A000091111110B1111110D00022104E0042156
:1047B00002E0082100E0102101220BF03AB9704715
:1047C000F7B50F461646017B009304461D46006868
:1047D0003A463346FFF7CAFF2068217BFFF7DAFF2E
:1047E0003DB1012120680A4603B0BDE8F0400BF05E
:1047F00020B903B0F0BD07B501238DF8040001A86E
:104800008DF805308DF806308DF807300AF0F0FA93
:1048100003B05DF804FB00007FB5044601A816460E
:104820000D460BF0D1F80B4B013D5E430A4B204681
:104830001B6801A9B3FBF6F6013E0023ADF8085052
:10484000ADF80460ADF80A30ADF806300AF074FF38
:1048500004B070BD40420F009401002010B5044622
:104860000068FFF7D9FF206801210BF0C8F8607BD2
:10487000BDE81040FFF7BFBF0148FFF7E9BE00BF2A
:10488000002C01404FF08040FFF7E2BE0148FFF7E7
:10489000DFBE00BF000400400148FFF7D9BE00BFE3
:1048A0000008004008B500214FF4A07206480DF042
:1048B000BBFB072001210AF0AFFEBDE8084040F62F
:1048C0000C0001210AF09CBED40B00200F4B1A787B
:1048D000482A17D1598840F2CC42914212D11A7914
:1048E000BE2A0FD193F8C9240020EF2A0CD113F867
:1048F000012B5040064A9342F9D1D0F1010038BF54
:104900000020704700207047704700BF00F8010882
:10491000CCFC0108C8230380142383701E23C370BA
:10492000012303716423C3804FF49673038128230A
:104930004381704710B50446272005F0D9FF207049
:10494000102005F0D5FF6070002005F0D1FFA070A9
:10495000002005F0CDFF4FF4E1336360A360E36016
:1049600023615223E070237510BD00002DE9FF4143
:104970002B4C2C4D204605F033FF2946204605F0F0
:1049800049FF05F1240009F0AFFA05F1700009F0C4
:104990005BFC14F8500C02F0B1FBA4F14C0804F1DC
:1049A000D00004F007FA404605F012F904F1C40003
:1049B00002F014F805F1280009F0FCF805F15103A4
:1049C000009305F13E03019304F1CE03A91D2A468D
:1049D000029304F1840004F1CC0303F045FA288C1F
:1049E000FCF718F9104E7060688CFCF713F9237C03
:1049F00004F11405337094F82430B06073703046BD
:104A000041462A4604F1110302F06AFCB4F8800022
:104A100002F04AFC284604B0BDE8F04109F0D0B8E5
:104A2000A024002054200020140D002008B5054BC0
:104A30004FF4967202FB0030034900F5A270FCF7B8
:104A400033FE08BD841F002050240020F8B5274BFA
:104A500048221A7040F2CC425A80BE221A71EF22CC
:104A600083F8C924002283F8CA2411461F46BB5C80
:104A70000132594040F2CC439A42F8D11B4B0426F4
:104A800083F8CA140AF0AEFB0025013E16F0FF06BB
:104A90001ED034200AF0BAFB154CC4F3090363B1ED
:104AA0003A1902F17842A2F5FC32204611680AF068
:104AB000F7FB0428054607D0E7E720460AF0D2FBBB
:104AC00004280546ECD0E0E70A4B04349C42E4D1CC
:104AD0000AF094FB042D02D1FFF7F8FE20B90A205A
:104AE000BDE8F84003F054BFF8BD00BF841F0020AC
:104AF00000F80108CCFC0108034B9B6818420CBF6E
:104B000000200120704700BF841F0020024B9A68DC
:104B100010439860704700BF841F00202DE9F04FBC
:104B2000B84AB94D85B010685168B84C02AB03C3A0
:104B300040F2CC42002128460DF076FA00214FF4D5
:104B4000967220460DF070FA48232B700220032342
:104B50006B71FFF7DBFF4FF41673A5F8F030FA2303
:104B6000A5F8F2302A23A5F8EE304FF4FA73A5F831
:104B7000F630202385F8F4306E2385F8043140F2B6
:104B80004C412B2385F80531A5F81A11212340F259
:104B90006C7100264FF0010840F2DC5285F80631B6
:104BA000A5F81C114FF4C87340F27E41A5F80831F6
:104BB000A5F8182185F8C864A5F8FA60A5F8F8608A
:104BC000A5F8FC6085F8E26085F8E36085F8E460AC
:104BD000A5F8E660A5F8E860A5F8EA6085F8ED605C
:104BE00085F8EC80A5F80A6185F8406185F8426196
:104BF00085F8416185F8166185F81E6185F82061A8
:104C000085F8216185F82281A5F8D01040F23A712B
:104C1000A5F8D2104FF47A71A5F8D41040F27E5165
:104C2000A5F8D61040F2EA514FF03209A5F8D81095
:104C300005F5947040F2B451A5F8DA10A5F8DE300D
:104C40000192A5F8DC90A5F8E09085F8236185F83D
:104C50002461FFF76FFE40F6AC5308201E21AB81A4
:104C6000E07417230E20A1732376E17363760B2182
:104C70005523A0726420A37121722D231421E077A3
:104C80007820DFF8B0A123746172637721756073B7
:104C900050215F48E3755F4B2827A1774FF00A0B3F
:104CA0005A21E1726062AE73267027716771A67631
:104CB00084F807906674E676A674267784F815B0B3
:104CC000277384F82180C4F830A0E36323644FF095
:104CD0008243E3624FF07C53A3634F4B84F8501040
:104CE00063644E4B84F85460A3644D4B84F8556064
:104CF000E364412384F8513084F85660019AA0623D
:104D0000C4F834A004F15C00A4F8582084F8529050
:104D100084F8536001F0AAFE042384F86030152360
:104D200084F864303F4BC4F868A0E3663E4B3F48CC
:104D3000236705F58771A4F85A6084F8617084F8D8
:104D4000627084F8748008F013F94FF44873A4F883
:104D5000D030C82384F815314FF49663A4F8163187
:104D600040F2D933A4F8183140F64303A4F81A31BD
:104D700084F8CC6084F8CD6084F8CE7084F8CF805D
:104D800084F8D26084F814B123464FF47F72A4F8FB
:104D9000D4204FF4FA62A4F8D62002A940F2DC52E3
:104DA000A4F8D8208A5D013684F8DA20082E4FF066
:104DB000FF0284F8DB2004F10804E6D101221C483C
:104DC00083F81C2183F81D2183F81E21FFF7A2FD23
:104DD0000023EA1810330021C02B1161F9D10024FF
:104DE000281900F5A27009494FF4967204F59674DB
:104DF000FCF75AFCB4F5617FF2D105B0BDE8F04F85
:104E0000FFF724BE7C310108841F002050240020BD
:104E1000000020408FC2753DCDCC4C3D0000A0402D
:104E200000004040F6287C3F3D0A773F28330108C8
:104E3000702500209A99193F08B5FFF747FD18B96A
:104E4000BDE80840FFF76ABE08BD0000024B9A6843
:104E500022EA000098607047841F002010B5214CA2
:104E600042F20103A26813403BB944F20803134025
:104E70001BB94FF40050FFF749FEA368D80703D5CC
:104E80004FF40050FFF7E2FFA368590409D508204A
:104E9000FFF7DCFF4FF40050FFF7D8FF0120FFF7CA
:104EA000D5FFA3681A0706D54FF40050FFF7CEFFD1
:104EB0000120FFF7CBFFA3689B0402D54020FFF73A
:104EC000C5FF094807F0CAFE084805F08FFE0748ED
:104ED00005F00AFE20B90548BDE81040FFF72ABDDD
:104EE00010BD00BF841F002092200020AC200020B5
:104EF00007B5FFF7EBFC10B90A2003F049FD104B92
:104F00001049184640F2CC42FCF7CEFB90F8C8247A
:104F1000022A84BF002280F8C82490F8C8144FF4F5
:104F2000967202FB0101084801F5A271FCF7BCFB77
:104F3000FFF794FF03B05DF804EBFFF717BD00BF68
:104F4000841F002000F801085024002008B5FFF756
:104F5000CFFFBDE808400F201421012207F026BE34
:104F600008B5054B93F8C804FFF760FDFFF76EFD29
:104F7000BDE80840FFF7EABF841F002010B5074BCB
:104F8000044683F8C804FFF761FDFFF7B1FF22462E
:104F900002202821BDE8104007F008BE841F002031
:104FA000014B9868704700BF841F0020034B1B68AB
:104FB00018420CBF00200120704700BF200D0020C8
:104FC000024B1A6810431860704700BF200D002084
:104FD000024B1A6822EA000018607047200D00207A
:104FE000014B1868704700BF200D0020884203DB8A
:104FF0009042A8BF104670470846704770B50446F7
:105000000E461546FBF7FCFF30B920462946FCF753
:1050100015F818B1284670BD304670BD204670BDE9
:105020000023036170472DE9F0410669044601360B
:10503000012E0D46066105D1002361602160836069
:10504000BDE8F081D0F8008008464146FBF730FD0E
:1050500007463046FBF7E2FD01463846FBF7E6FE21
:1050600001464046FBF726FD06466060314628466D
:10507000FBF71EFD01463846FBF724FEA168FBF74F
:1050800019FD2660E060A060BDE8F08110B504461F
:105090000069012807DD0138FBF7C0FD0146E06823
:1050A000FBF7C4FE10BD002010BD08B5FFF7EEFFF2
:1050B000BDE808400BF0EEB808B5FBF7A5F904A36E
:1050C000D3E90023FBF706FAFBF79EFC08BD00BFFF
:1050D000399D52A246DF913F2DE9F041069C002BFD
:1050E00006460F460CBF4FF020084FF0300823460D
:1050F00013F8011B09B9154603E0002AFBDD013A4C
:10510000F6E7002D04DD30464146B847013DF8E79B
:1051100014F8011B11B13046B847F9E7BDE8F0813A
:10512000014B186803F04ABB2C0D00202DE9F04715
:1051300088B006460F4603921C46039A531C0393FD
:105140001178002900F08D80252901D0304686E0B5
:105150000023911C049303915578302D05D1D31C65
:10516000039395784FF0010800E09846A5F13003CD
:10517000DBB2092B06D8284603A90A2204AB00F0AB
:1051800034F905466C2D05D1039B5A1C03921D78FA
:10519000012200E00022632D4FD006D8252D5CD0DF
:1051A000582D2AD0002D5CD0C7E7732D4AD002D8E5
:1051B000642D14D0C1E7752D02D0782D1DD0BCE729
:1051C00004F1040905AD20680A2122B100222B4612
:1051D00000F090F80EE02B4600F0BFF80AE005ADB5
:1051E00004F104092068294612B100F0ABF801E08F
:1051F00000F0DBF84C46009518E004F1040A0DF1CC
:105200001409206810213AB1B5F158046242624194
:105210004B4600F06FF806E0B5F158035A425A4188
:105220004B4600F09AF85446CDF800903046394687
:10523000049A4346FFF750FF7FE730462178251D4B
:10524000B84708E02368304600933946049A0023A3
:10525000251DFFF741FF2C466FE730462946B8472A
:105260006BE708B0BDE8F0870FB407B50A4904AB97
:1052700008680A4953F8042B09680193FFF756FFA1
:10528000074B186803F0B9FA0028F9D003B05DF8AD
:1052900004EB04B0704700BF280D0020240D00204F
:1052A0002C0D0020034A044B1A60044B00221A60A4
:1052B000704700BF21510008240D0020280D002058
:1052C000014B1860704700BF2C0D002070B50646DA
:1052D000B6FBF2F40846154614B12046FFF7F6FF78
:1052E00005FB1464024B1B5D00F8013B70BD00BF61
:1052F00031330108F0B50124B0FBF4F58D4201D340
:105300004C43F9E70026DCB1B0FBF4F504FB1500D3
:10531000B4FBF1F41EB9002D01DC002CF3D1092DF2
:1053200003F101075FFA85FC04DD002A0CBF572555
:10533000372500E0302565441D7001363B46E2E725
:105340001C70F0BD00280B4603DA2D2240420A7083
:105350004B1C0A210022FFF7CDBFF0B50124B0FBA2
:10536000F4F58D4201D34C43F9E70026DCB1B0FBE4
:10537000F4F504FB1500B4FBF1F41EB9002D01DCBB
:10538000002CF3D1092D03F101075FFA85FC04DD40
:10539000002A0CBF5725372500E0302565441D70D5
:1053A00001363B46E2E71C70F0BD00280B4603DAED
:1053B0002D2240420A704B1C0A210022FFF7CDBF6C
:1053C000A0F13003DAB2092A01D818467047A0F1DB
:1053D0006103052B01D857387047A0F14103052B15
:1053E00094BF37384FF0FF3070472DE9F8430D6810
:1053F00004460F469046994600262046FFF7E0FFF8
:10540000002806DB404504DC08FB060615F8014BC6
:10541000F3E73D602046C9F80060BDE8F883931EBD
:10542000232B28BF0A22031E10B50C4603DA2D20B9
:1054300001F8010B5842FFF749FF00230370204693
:1054400010BD000030B587B005460C4603A800210A
:105450000C220CF0E9FD28460021FBF7EFFD20B1FE
:1054600028462949FBF726FB03E028462649FBF797
:105470001FFB2649FBF726FCFBF7EAFD054685EAFC
:10548000E570A0EBE57069460A22FFF7C8FF002D22
:10549000ACBF20232D2368468DF80C300DF0BAF9EF
:1054A000012807D130238DF80D308DF80E308DF89E
:1054B0000F300CE0022805D130238DF80D308DF827
:1054C0000E3004E0032804BF30238DF80D30694608
:1054D00003A80DF0A1F803A80DF09CF90338C5B29C
:1054E0002A4603A920460DF0EDF900236355204616
:1054F00007490DF091F803A9204629440DF08CF8D6
:10550000204607B030BD00BF6F12033A00007A4456
:105510001C3F01082DE9F04102780346202A00F1E2
:105520000100F9D0092AF7D02D2A02D10346414DB6
:1055300004E02B2A08BF03464FF07E551E46002488
:10554000334616F8012BA2F13007F9B209290DD81C
:1055500039492046FBF7B6FB04463846FBF75EFBAD
:1055600001462046FBF7A6FA0446E9E72E2A17D1A2
:10557000314F334616F8010B3038C2B2092A0FD822
:10558000FBF74CFB3946FBF751FC01462046FBF785
:1055900091FA294904463846FBF794FB0746E8E7A9
:1055A0001A7802F0DF02452A38D15A782D2A02D122
:1055B0000233012604E02B2A14BF013302330026F4
:1055C000013B002713F8012F303AD1B2092903D843
:1055D0000A2101FB0727F5E7B7F59A7F28BF4FF4AB
:1055E0009A77B8464FF07E51B8F1070F07D90846B1
:1055F0001249FBF767FBA8F108080146F4E707F03A
:10560000070737B108460C49FBF75CFB013F014631
:10561000F7E72EB12046FBF709FC04E04FF07E517E
:105620002046FBF74FFB01462846FBF74BFBBDE846
:10563000F08100BF000080BF0000204120BCBE4CB4
:10564000F0B58D4C87B0FFF72DFEFFF7F5FBFFF7A8
:105650004FFCA07B894D003018BF012003F04EF9AC
:105660004FF40040FFF748FA8DF800004FF4006057
:10567000FFF742FA8DF801006846FCF7E5FC04F1FB
:10568000E60008F045F80E20FFF79AFC04F1E2006E
:10569000B4F8EE1094F8ED20B5F95A3008F0F4FCA7
:1056A0002F4610B9032003F073F9754B10225A618D
:1056B00008221A610A26724D1920EB68013E83F018
:1056C0001003EB60EB6883F00803EB6003F00BF969
:1056D000012003F0B1F8192003F005F9002003F0D0
:1056E000ABF816F0FF06E6D1102308262E612B61D9
:1056F00001F096FD6079634902F002FC3046FFF745
:1057000055FC08B108F05CFBFFF7CCF85E4805F0EB
:10571000FFFA01A8002112220CF086FC63790E2BFF
:1057200001D0082B02D101238DF80C304FF400502A
:10573000FFF7E2F928B95448012105F01BFA8DF86A
:1057400007004020FFF7D8F98DF808004FF400500B
:10575000FFF7D2F98DF804004FF40040FFF7CCF9C1
:105760008DF806004FF48030FFF7C6F98DF8090078
:105770000120FFF7C1F98DF8050003F017F897F83D
:105780001E318DF80A00C3F380038DF80B30B4F896
:10579000DE304FF48050ADF80E30B4F8E030ADF8A4
:1057A00010304FF47A73ADF81230FFF7A5F920B13D
:1057B000314BB3F8DA30ADF81230BDF80E3001A835
:1057C000B3F5FA7F84BF0023ADF81230B4F8183176
:1057D0002E4DADF81430FDF76BFF02F0C3FB2C48E3
:1057E00001F006F9286003F07BF92948296807F0E1
:1057F0006FFA8020FFF780F930B12348254A411F16
:10580000A2F58E7304F034FA4FF40070FFF774F9C8
:1058100008B108F0E7FC4FF48030FFF76DF918B1DC
:10582000FDF7B8FD04F0DAFE4FF48060FFF764F98D
:1058300008B108F091FD03F02BF8174B186063795D
:10584000052B03D14FF4C87008F09CF84FF47A7020
:1058500008F050FBC82008F0C3F9104B01225A731E
:10586000022000225A70FFF747F910B10C4807F0E8
:10587000DFFE07B0F0BD00BF841F002050240020D1
:10588000000C0140941F0020AC200020A425002023
:105890009220002070250020340D00207C2500205F
:1058A0008820002008B5FFF7CBFE00F063FCFCE782
:1058B00008B5034BB3F9D40002F06AFCFEE700BF61
:1058C000841F0020074B0188B3F85C200A44A3F82A
:1058D0005C204188B3F85E200A44A3F85E20FFF7FD
:1058E0003FBB00BF5024002038B5194B194C1D7D1B
:1058F000237CFDB153BBA3789BB100F0E1FC164DB6
:1059000008B92B781BB100F053FE00232B7013480D
:1059100010F8041C00F06AFE0123114A237413706E
:1059200038BD00F013FF88B1FFF71AFBBDE838401F
:1059300000F03EBE13B100F0C7FE2574A3782BB96A
:10594000074B1B7813B1044B01221A7038BD00BFFE
:105950008D2500207C250020540D0020542400209B
:10596000480D002008B50220FFF720FB18B908F009
:105970000FF828B90AE008F029F90028F7D108BD86
:1059800008F0BEFA80F00100C0B205E00220FFF787
:105990000DFB0028F4D0012000F0010008BD00003C
:1059A000B34B2DE9F04FB3F90600B24B85B0B3F815
:1059B000582090420FDBB0F5FA6F93F8564007DAA3
:1059C000811A4C43A2F5FA6294FBF2F4643403E0CA
:1059D000C4F1640400E06424A74A93F85410B2F8B8
:1059E00018C192F9EC2093F8CC5093F8CD60524254
:1059F00093F8553092B201910021029203930A4626
:105A00009B4B40F2E637CB5E0093CCEB030303F2F3
:105A1000F31EBE4503D8002BB8BF5B4201E04FF434
:105A2000FA73022ADFF85C822CD025B1AB42CCBFDE
:105A3000C5EB030300236427DFF878A293FBF7FE8E
:105A40006FF0630B3AF81E900BFB0E3B0EF1010E4C
:105A50003AF91EA00FFA89FECEEB0A0E0EFB0BFEE2
:105A60009EFBF7FECE4428F801E0DDF8048003FB3E
:105A700008FE824B9EFBF3F33B449BB2634393FBD4
:105A8000F7F714E026B1B342CCBFC6EB0303002303
:105A9000DDF808E003FB0EF7A8F80470039F002B65
:105AA000B8BF5B427B43754F93FBF7F76437714B8D
:105AB000DFF8048202EB030E9EF80490642307FBD8
:105AC00009F999FBF3F902F808909EF80E909EF8F8
:105AD00018E007FB09F907FB0EF7DFF8E08199FBF7
