:020000040800F2
:1000000000A00020610D0108EDC3000879FD000883
:10001000EBC30008E9C30008E7C3000800000000C4
:10002000000000000000000000000000E5C3000820
:10003000E3C3000800000000E1C3000859FD000808
:10004000D50D0108D50D0108D50D0108D50D010804
:10005000D50D0108D50D0108D50D0108D50D0108F4
:10006000D50D0108D50D0108D50D0108D50D0108E4
:10007000D50D0108FDC40008B1C40008D50D010864
:10008000D50D0108D50D0108D50D0108D50D0108C4
:10009000A1BC0008D50D0108D50D0108D50D01083A
:1000A00001C4000861C40008EFC3000889C4000847
:1000B00051C4000841C4000831C40008D50D01082E
:1000C000D50D0108D50D0108D50D0108D50D010884
:1000D000D50D0108A5C4000899C40008D50D010874
:1000E00069FD0008D50D0108D1C30008D50D010830
:1000F00011C40008D50D010821C40008D50D010860
:10010000000000000000000000000000D50D010804
:10011000D50D0108D50D0108D50D0108D50D010833
:10012000D50D0108D50D0108D50D0108D50D010823
:10013000D50D0108D50D01080000000000000000E9
:10014000D50D0108D50D0108D50D010800000000EE
:10015000000000000000000000000000000000009F
:100160000000000000000000D50D0108D50D0108B9
:10017000D50D010800000000000000000000000094
:0801800000000000D50D01088C
:100188002DE9F04F2DED068B6E4E6F4B3360ABB003
:100198000023736008F066F818B90BF0B9F808F096
:1001A80085F805F082FA694B694C1A7842F0010229
:1001B8001A70684A4FF47001C2F88810002206923B
:1001C8000792226842F480322260236803F40033E5
:1001D8000793069B01330693079B1BB9069BB3F550
:1001E800A04FF2D1236813F4003318BF01230793FB
:1001F800079B012B7CD0574D574BEB60636ADFF8A8
:100208008C8143F080736362636943F4FC030DF1EE
:10021800A80A636103238DF85A3041F6FF732AF860
:10022800503D4FF0904051460AF04BFC4FF6FF739B
:100238004A48ADF8583051460AF043FC4848514600
:100248000AF03FFC474851460AF03BFC40465146FD
:100258000AF037FC514644480AF033FC50460AF08D
:100268005FFA169B414AB3FBF2F3B360404B414A35
:1002780000271F60404B5A60F02285F823203F4D2D
:100288009F6007221A6095E80F008AE80F006369EB
:10029800169843F400136361636943F400136361C0
:1002A8004FF48853A8F828304FF48843A8F828302A
:1002B80017A90AF006FC19A918980AF002FC64208C
:1002C80006F0C7F92E4839464FF4A07212F085FFA0
:1002D800E36943F00703E361A36943F4E523A361FA
:1002E800636943F4BC036361264B03F5B4704FE0C4
:1002F800254B12221A6063686360636863606368F1
:1003080043F480636360636823F47C136360636809
:1003180043F4E8136360236843F080732360226822
:100328000B4B9201FBD55A6822F003025A605A68B7
:1003380042F002025A60636803F00C03082BFAD1FA
:1003480059E700BF980100201D690008782B00209C
:100358000010024000ED00E00005FA050004004826
:1003680000080048000C00480014004840420F00F4
:10037800742B00203F19010010E000E03C580108F0
:1003880040230020B87501080020024000100048F2
:100398001A7B5F7B53F8145B02F00701D20805EB68
:1003A80082028900156A4FF00F0E8F400EFA01F194
:1003B80025EA01011162156A834247EA05011162C3
:1003C800E6D10022A749002353540132122AF9D159
:1003D800A54D05F11E02FF2199540133082BF7D1D1
:1003E800A24BA34F1F6005F128000021242212F020
:1003F800F4FEA04AA048137885F82830537885F889
:100408003430937885F84030A7F59C739B4A5F7920
:10041800177003F11002EA649D68994A00EBC7015E
:1004280015F0200F18BF0123497C1160904618BFB2
:1004380013600023934A40F2DC5199520233102B87
:10044800F8D110A80021162212F0C7FE0E2F01D0F5
:10045800082F02D101238DF85030C5F340038DF8E1
:100468004530C5F380138DF84730C5F340338DF818
:100478004030C5F3C0338DF8433015F4006305D020
:10048800814991F80E315F1E7B427B418DF84430E3
:10049800C5F300438DF84830D8F800307A48003367
:1004A80018BF01238DF84930784B1B6893F8A631A3
:1004B800C3F380038DF84A30B0F8D630ADF84E302B
:1004C800B0F8E230ADF84C30C5F380438DF84630D3
:1004D800B0F8E030ADF852304FF47A7005F0010111
:1004E800C5F3C002ADF85400E8048DF841108DF84A
:1004F800422004D56448B0F8DC00ADF85400B3F5E8
:10050800FA7F614884BF0023ADF8543090F8243155
:100518005F4886F85030002386F8513043709DF8C4
:100528005030002B14BF0223002301B902B101335C
:10053800514901EB83034FF0000BD3F8D0300593FA
:10054800CDF810B0059A32F80B304FF6FF7293428F
:1005580000F04A81DAB24F4F9DF848104FF0140866
:1005680008FB02F81B0A07EB080529B157F8081021
:100578004948814200F032819DF8451039B16968D7
:100588004648814203D1A968012900F027819DF8D6
:10059800431039B169684148814203D1A9680429E7
:1005A80000F01C819DF8441039B169683B488142CC
:1005B80003D1A968022900F01181022B02D19DF80C
:1005C800401003E0012B04D19DF84110002900F0F0
:1005D80005819DF84A1031B19DF8501019B9043AB7
:1005E800032A40F2E480012B60D1FF234FF0000979
:1005F80086F8983086F89930AB68EA7B6868ADF879
:1006080058305146022386F89C90C6F8A8508DF8B9
:100618005B308DF85A2086F85490C6F85890C6F882
:100628005C90C6F86090C6F8949086F89A9086F820
:100638009B900AF046FA297B57F808004A4609F0C9
:10064800CFFE284607F0B6FB154B1649C6F8AC3066
:10065800154BC6F8B030C6F8B49028460A1D0CF001
:100668002BFABBE0A4010020980100201C1B0020ED
:100678007C080020140100203C580108BC1400200C
:10068800E4140020BE14002044070020201200209B
:10069800E9010020B4750108004401400008004841
:1006A80011F000084402002015F10008022B41D186
:1006B800049881498DF85B30C2B21C20424301EB9B
:1006C8000209049889F801004FF0000C012089F80C
:1006D80002C089F80AC08854A968EA7B6868C9F822
:1006E8000C50ADF8581051468DF85A20CDF808C076
:1006F8000AF0E7F9DDF808C0297B57F808006246D8
:1007080009F06EFE284607F055FB6C4BC9F810300F
:10071800DDF808C06A4BC9F8143009F11001C9F8AE
:1007280018C0284609F114020CF0C6F904990131E1
:10073800049153E0032B38D19DF84630614F33B113
:1007480097F85280284608214FF6FF721CE0BDF842
:10075800523097F85280B3F5FA7F0FD95A4AB2FB54
:10076800F3F22846BDF85430082192B207F04EFB48
:1007780007EB8807554BC7F87C010EE0544AB2FBDB
:10078800F3F22846012192B2BDF8543007F03EFB3F
:1007980007EB88074F4BC7F87C01C360494B93F8B8
:1007A8005220013283F8522018E0042B16D1BDF8EC
:1007B8004C30474A96F8517092FBF3F22846BDF840
:1007C8004E30012192B207F021FB96F8513006EB2A
:1007D80087070133C7F8AC0186F851300BF1020BDB
:1007E800BBF1240F7FF4AEAE3B4B96F851201A7044
:1007F8003A4B1F78172F1CD10025F36C2B44D3EDEF
:10080800007AF5EE407AF1EE10FA04D1344B9B6889
:10081800D9042BD426E0334A05EB020E0FCB8EE821
:100828000F00314B1A7810350132C02D1A70E4D1FF
:10083800ECE72E482C4A00EBC703D3F814C093F812
:1008480010E082F800E0BCF1000FDFD0002575450C
:10085800DCDA244E2B011E4463440FCB013586E8B5
:100868000F00F4E7082F224B20D121E01E4B197806
:100878000129F7D91F4B00228A4203F11003F1DA4C
:1008880013ED047AF6EE007A27EE277A013203EDAB
:10089800047A13ED057A27EE277A03ED057A13ED2E
:1008A800037A67EE277A43ED037AE5E70E2F23D123
:1008B8001A7842F0100222E034020020E5A4000871
:1008C800EDF000089801002000127A0035F10008C8
:1008D80040420F0025F10008E8140020BC14002055
:1008E80044070020E01300209F2B00203C580108FB
:1008F80086100020E81300201A7822F010021A70DF
:100908000CF08EFD59495A480B785A4EDFF88491FD
:10091800DFF884B143F004030B704FF40853ADF8CB
:10092800583063694FF00208012743F40013514619
:100938008DF85A708DF85B8063610AF0C2F84E4BEF
:100948004E4A1A60002005F08EFE0DF02FFA4C4B2F
:100958001E60636943F480236361E36943F4001311
:10096800E361236B23F010032363236B43F010032D
:100978002363D9F8203023F07063C9F82030D9F800
:10098800203043F08063C9F82030D9F8203023F0B4
:100998007043C9F82030D9F8203043F08043C9F8B3
:1009A800203000254FF0030C4023484651468DF86F
:1009B8005DC0CDF808C016938DF85E508DF85F5075
:1009C8008DF85C800AF03EF880234846514616931D
:1009D8000AF038F8336823F0010333603268294B92
:1009E80013403360284B336133683B433360B56051
:1009F800F560B560B36843F40043B36033683360AF
:100A0800736823F0784323F40043736033683B43EF
:100A180033601E4B9E68039306F4006204925846A6
:100A28001022294612F0D9FB039BDDF808C08DF887
:100A3800318016EA080206F400498DF832508DF824
:100A480033508DF830C01E4628D011480B970BA99B
:100A580009F0F8FF06238BF8003007238BF80150C4
:100A68008BF803308BF8027019E000BF782B002058
:100A780000100048005400407C2B0020ED61000865
:100A8800BC1D0020FFE0CF007A25E00044070020CD
:100A98000008004800040048141A00201746049B68
:100AA8008BB10223A6480B930BA909F0CBFF0723B0
:100AB8008BF80C308BF80F3001238BF80D701F4426
:100AC8008BF80E30FFB2B9F1000F12D004239C4806
:100AD8000B930BA909F0B6FF08238BF80430072302
:100AE8008BF8073001238BF805701F448BF806300C
:100AF800FFB20BA9082392480B9309F0A3FF09231F
:100B08008BF8083007238BF809708BF80B3001231A
:100B18008BF80A301F44E36A8A4823F4F873E362C7
:100B2800E36A43F4D873E362636943F0805343F0A4
:100B38000103636109F07DFD504609F04FFD824BCA
:100B48001693FFB2814B1793012F4FF000030CBF90
:100B58001A4680221B924FF480727A4C1C924FF4F2
:100B680080621D92202220461E9251464FF4005268
:100B780018931A931F922093ADF8647009F03BFD07
:100B8800236843F0010323604FF0A0440A20A368C0
:100B980023F04053A360A36843F08053A36005F09B
:100BA80058FDA36823F08043A360A368A360A368EB
:100BB80043F00043A3604FF0A0439A68002AFADB91
:100BC8009A68634922F040529A609A6842F000524B
:100BD8009A6088685F4A024042F468328A60D9683D
:100BE8005D4A0A4042F40052DA601A6B013F22F073
:100BF8000F0217431F63002001230BEB00029178BB
:100C080000296CD05C1C042BD5781BF80010E4B2CA
:100C18004FF0A0420FD81BB203EB4303176B5B00E6
:100C28004FF01F0E0EFA03FE27EA0E0701FA03F330
:100C38003B4313632FE0092B10D84FF0060E053BFA
:100C48000EFB03F3576B4FF01F0E0EFA03FE27EA55
:100C58000E0701FA03F33B4353631CE00E2B4FF0DE
:100C680006070CD80A3B5F43D2F838E01F23BB4085
:100C78002EEA030301FA07F71F4397630BE00F3BC4
:100C88007B43D2F83CE01F279F402EEA070701FA72
:100C980003F33B43D36309294FF0A0430FD90A3923
:100CA8009A699F6901EB410107228A4027EA0202FB
:100CB8009A619A6905FA01F11143996110E00139C5
:100CC8005A695F6901EB410138228A4027EA02022A
:100CD8005A615A6903318D4015435D6100E01C4635
:100CE8000430102801D0234687E74FF0A0439A68C4
:100CF80042F001029A604FF0A0431A68D207FAD571
:100D0800DA6822F00202DA60DA6842F00202DA6097
:100D1800DA6842F00102DA609A6842F004029A60E6
:100D2800B6F8E8200D4B002A40F04F81B3F9EA10DD
:100D3800B1B9B3F9EC30D3F1010338BF002310E0A7
:100D4800000800480800024040000050241A002013
:100D580000030050E010FCFF07C0FFFD440700201F
:100D6800134613F00103C34C6CD1C349C3480B703D
:100D780012B2C249B0F9EA00B1F9EC10DFEDC07A5D
:100D880008EE902AF8EEE88A08EE100A0AEE901AA1
:100D980068EEA78AB8EEC88AF8EEEAAAB0EE680A42
:100DA80028EE278A6AEEA7AA12F092FCB0EE409AC3
:100DB800B0EE680A12F012FDF0EE409AB0EE480A62
:100DC80012F086FCF0EE408AB0EE480A12F006FDFA
:100DD800B0EE408AB0EE6A0A12F07AFCB0EE40AA91
:100DE800B0EE6A0A12F0FAFC20EE097A69EE8A7A05
:100DF800F0EE475AE7EE885A2AEE096A69EE806AE9
:100E0800C4ED765AF0EE465AE6EEC85AE7EE087A8E
:100E1800E6EE486A2AEE28AA28EEC00A69EEE89AA1
:100E280068EE898A84ED73AA84ED740A84ED758A64
:100E3800C4ED775AC4ED789AC4ED796AC4ED7A7A2C
:100E4800C4ED7B8A8F4B904D1B6896F8F720B3F85A
:100E58005230059300232B70B6F8F07096F8EF9097
:100E68000492C4F8F0310AF0A5F9A846874D08B3F2
:100E7800874B2B60874B6B60BB2F874BEB607E4BA0
:100E880001D901220EE0612F01D902220AE0292F9F
:100E980001D9032206E0132F01D9042202E0092F09
:100EA80006D905225A70012388F8003002230BE086
:100EB8000622F7E7794B2B60794B6B60794BEB6037
:100EC800022388F800300523774A1370774B196896
:100ED80041F00101CB4619609146754B0022BBF1E8
:100EE800090F1A7000F2FE85012202FA0BF340F294
:100EF800B231194000296AD113F0450F0BD11B07F5
:100F080065D54FF0000A5B4FC4F8F0A10AF052F91A
:100F180000285CD00EE01920272116AB0AF06EF8E5
:100F28000028EED0634B644A1A60644A5A6006236C
:100F380000F0DCBD062116AB68200A460AF05EF810
:100F48009DF85B309DF85DC003F001035B000CF079
:100F5800010C43EA8C0C9DF8593003F001035CEA5C
:100F6800030B09D0BBF1010F02D187F8F4A11AE0F5
:100F7800BBF1020F0BD113E00BAB68200C2101224F
:100F88000AF03CF89DF82C3013F00F0303D105202C
:100F980005F098FB07E0042B02D187F8F4B102E0D2
:100FA800012387F8F431434B454A1A60454A5A6091
:100FB80094F8F421002A14BF6E226F221A723C4B57
:100FC80001221A70032300F091BD0023C9E6BBF18A
:100FD800010F00F287850A2005F03BFB7720A0214E
:100FE80001220BAB0AF00AF8002800F083801E21CA
:100FF800012277200DF00AF84FF42F6005F01EFB50
:101008000027A7F160014FF0000AC9B2022216AB0F
:1010180077208DF858A08DF859A009F0EFFF9DF8BA
:1010280059309DF8581043EA0121124B03F5FB7221
:10103800B9520237102FE4D1B3F804E20EF00F07CB
:101048000EF47F4EA3F804E201215346524622F0E3
:1010580001002044B0F8F601002818BF002112F062
:10106800010F03D0C0B2434008202DE083EA1023CB
:10107800FAE700BF98010020000000204407002084
:1010880035FA8E3C201200203A120020241200204B
:10109800E9E000087DB1000890C1793D15DA000843
:1010A800B9D80008295C8F3D100100202C100020C1
:1010B800802B00209012002045E10008E7B10008CD
:1010C800FF7C00083DB1000813F4004F18BF83F4FB
:1010D800C05301384FEA4303F6D10132102AB6D182
:1010E80047EA0E0EA4F804E221B9C3F303339F4282
:1010F80000F00585314F3B68990702D5304B1B68D6
:1011080098472B689847DDF810B02E4B00221A70CC
:101118009A46BBF1000F04D0ABF10203012B00F299
:1011280007852AAB0C2003F8502D0021012209F075
:1011380065FF002800F0FC849DF85830482B40F0EB
:10114800F784214B214A1A60214A5A6006238AF8FB
:101158000030032389F803303B6843F008033B6001
:1011680096F8E4300BB188F8003096F8E5300BB10A
:10117800184A137096F8E6300BB18AF800303B68CD
:101188001A072BD5059B1AB2642392FBF3F103FBD4
:1011980011231BB207EE103AF8EEC76A07EE101AD1
:1011A800F8EEC77A9FED0C7AE6EE877AB2EE047A0B
:1011B80067EE877AC4ED827A13E000BF2C10002016
:1011C80090120020922B002078100020435600082F
:1011D800B7550008802B00208988883C0023C4F874
:1011E8000832B04E337843F002033370AE4B4FF4FD
:1011F80088429A614FF488521A854FF00A09DFF83D
:10120800A882B8F814309BB283F48843A8F8143045
:10121800B8F814309BB283F48853A8F81430192016
:1012280005F017FA012005F01EFA192005F011FA49
:1012380009F1FF39002005F016FA19F0FF09DED18F
:101248004FF48853A8F828303B684FF488491B07A7
:10125800A8F8289009D5954BC8F818901B689847A6
:10126800934BA8F8289001221A70924B9FED928A0E
:101278001B68DFF898821B7B00EE103AB8EEC00AB4
:1012880020EE080A12F024FAB8F8000007EE900AD7
:10129800F8EEE77A27EE800A12F056FAB8F80080DE
:1012A8009FED867A864B07EE908AF8EEE77A1880EB
:1012B800C7EE277A834BFF2116229FED837AC7EE6C
:1012C800877AC3ED007AD5ED037A804D804B27EEFF
:1012D800888ADFED807A28EE278A284683ED008AFF
:1012E80011F07BFF00222A703A687B4B012112F033
:1012F800020F1970284604D0697003211970022161
:10130800A970570704D519784D1C1D70032545543D
:1013180012F00A0F0CD01A7804218154511CC9B25A
:1013280005254554D11C0232D2B2197006218154C8
:101338006A4FBA68950604D519784D1C1D700725A3
:101348004554110608D51978092545548D1C0131D5
:10135800C9B21D700A2545547979082901D00E298A
:1013680004D119784D1C1D700B25455419784D1C56
:10137800EDB24FF00C0E12F4803F1D7000F801E042
:1013880009D001F1020E544981F800E04F494FF0AD
:101398000E0E01F805E0510704D519784D1C1D7093
:1013A8001025455419784FF0120E00F801E097F80F
:1013B80054E14D1CEDB2BEF1000F0CBF4FF0000E12
:1013C80002F0010E1D70BEF1000F09D001F1020EEE
:1013D800414981F800E03D494FF0130E01F805E05E
:1013E80019784D1CEDB21D7092054FF0140343544B
:1013F80005D5394B02311970344B15225A559822AC
:101408000021374811F0E9FE0EF0D8F906F050FA3D
:10141800344B354A1A60B7F81E21002390B233497D
:1014280058520233242BFAD1BB681B0740F11381B1
:101438002A4B93F81A31062B00F20781DFE803F0F4
:1014480004046C97AEC9C900294A2A491160012BC6
:10145800294A2A4D2A4809D14FF0030E85F800E0A1
:10146800072582F80C3205700C2307E002232B7045
:1014780003230370002382F80C3207230B704020EB
:10148800204BC2F8103204F099FF002800F0DD80EC
:1014980001234FF0000890F900001B4A8DE808016D
:1014A800402178E0782B00200010004878100020B8
:1014B80098100020D812002035FA8E3C0AE81C410A
:1014C800FC120020D411002000401C46C51D00203D
:1014D800D4120020BD378635C41D002044070020E3
:1014E800801A0020C40E0020560800204210002058
:1014F800CC0E0020DB1D002098010020C90E002022
:10150800D00E002059610008E164000804000020A2
:101518000000B0C4CDCCCC3F07EE102A5FED047AB2
:10152800F8EEC76A1FED057AE6EE877A0023FCEE2F
:10153800E77A6C4A17EE900A98500433482BF8D192
:10154800694B6A4AC3F81022694B122240201A706C
:1015580004F034FF002878D001234FF0070C90F9ED
:101568000000644A8DE808104021634B67E0634B34
:10157800C4F810325E4B102240201A7004F01EFF8F
:10158800002862D001234FF0000E90F900005C4A59
:101598008DE8084040214FF4E13350E0594BC4F83E
:1015A8001032534B082240201A7004F007FF00281D
:1015B8004BD00123002590F90000534A8DE82800FC
:1015C80040214FF4E1330DF071FA474BC3F8140290
:1015D80037E04748444A4D4D0C21062B017010D086
:1015E80000232B7082F8183282F819321B2382F8F4
:1015F8001A32052382F81B1282F81C324FF4E135A7
:101608000DE00020287082F8180282F81902404D77
:1016180082F81B12212082F81A0282F81C323D4BF4
:10162800C2F81032402004F0C9FE70B10121002335
:10163800394A90F900008DE80A0040212B460DF048
:1016480035FA003018BF012028B908200DF0F7FD41
:101658000023C4F81032BB68254A13F4804F04D025
:10166800082111702D49C4F8101242F201011940E5
:1016780003F0010003F4005449B11B49284DC1F897
:1016880010520CB10821117008B10C211170117899
:10169800043951701A0640F181801348214CDFF853
:1016A8008C80C0F82082002529461522DFF880901A
:1016B800657000F509706560A56011F08EFDA8F1F0
:1016C80004032846C9F800300CF0BCF8164B022079
:1016D8001B68E36004F072FE494658BB80200DF099
:1016E800AEFD53E0180F002098010020A561000806
:1016F800DB1D0020ED650008A0860100956100084B
:1017080079650008816100082D650008181000201F
:1017180090D0030045610008A9A20008D56100081F
:10172800E1610008F4110020702B00207C080020E3
:101738001412002045796378C44A4FF00C0E0EFB52
:10174800032E9EF801E0AE4504D00133DBB2042B32
:10175800F2D9002363700B6890F900001B78002B06
:1017680063784FF00C0404FB03220CBF0121032112
:10177800537800910022019202210DF097F9B44BA1
:1017880018600028AAD001200CF05CF8B14B18684A
:10179800B14B00F5D8721A600DF0F8FEAF4AB04BA5
:1017A8001360B04AB04D80331360BB680024DB037C
:1017B8002C7040F1AB80DFF804B3DFF8049340F2FB
:1017C8002A3A4FF001080DF0FFFD214652465846CF
:1017D80085F8008011F001FDD9F81430A348A44D14
:1017E80043F48023C9F81430436A23F00F0343629B
:1017F800436A43EA080343624FF480724FF0020CD5
:10180800032309A9099203928DF828C08DF829307D
:10181800CDF808C08DF82A408DF82B8009F012F910
:10182800D9F81830DDF808C043F40033C9F8183087
:101838002B8823F440731B041B0C2B801D23EB62A5
:101848000BA9A5F828C060232C862846C5F8148063
:101858000B93ADF832400D94ADF83840ADF83A40EE
:10186800ADF83C40ADF83E40ADF8308008F064FE7D
:10187800AB6943F00803AB616B6C43F400436B64E2
:10188800D9F8143043EA0803C9F81430A9F57D697A
:10189800484608F0CEFE16A808F0A0FE754B169331
:1018A8001023189380231B93039ACDF85CB04FF450
:1018B8000053484616A91F93ADF864A01A941C92C9
:1018C8001D941E94209408F096FEEB6843F4007370
:1018D800EB60D9F8003043F00203C9F8003008A8DB
:1018E8000D238DF820308DF821808DF822408DF859
:1018F80023800BF021FA604B1A68604BE2500434E5
:10190800802CF8D10BF043F90BF041F9BB685C4C23
:1019180013F4806F55D05B4BD4F86485C3F800800E
:10192800042004F04BFD0421C4F8680504F020FDF0
:10193800554B84F86C050820C3F8008004F03EFD80
:101948000821C4F8700504F013FD504D84F874059F
:10195800002128462C2211F040FC8E236B704FF09A
:101968007C0AE0234FF07D09EB7085F800A085F82C
:101978002B90474D2C220021284611F02EFC8A235B
:101988006B701020A023EB7085F800A085F82B90D1
:10199800C4F8788504F012FD1021C4F87C0504F021
:1019A800E7FC84F880052020C4F8848504F006FD4F
:1019B8002021C4F8880504F0DBFC84F88C050EF0BF
:1019C80097F8BB6813F4002318BF012384F88D35FA
:1019D80004F068FD2F4B18607B79052B03D12E4B43
:1019E8004FF4C8721A802D4B4FF47A721A802C4B20
:1019F800C8221A802B4B1A7842F008021A702A4B18
:101A08001A7822F002021A70BA6840F602031340EC
:101A1800002B5ED0254B264A1A6008241D460BF081
:101A28009BFE282004F015FE013CF8D12B68214AC2
:101A3800D87811785A789B78B1FBF2F201321E49B6
:101A4800082A28BF08220A703CE000BF605E01082F
:101A5800F011002020120020C4130020F0220020E2
:101A6800A8080020F422002048190020000400489B
:101A78000044014034440140D65F01084A1900205F
:101A880098010020E42000203821002008210020AF
:101A98003E2100202C130020A2120020902B0020B1
:101AA8008E2B0020861000209E2B0020DC2000209A
:101AB8004A080020E020002024010020D103002053
:101AC8000010024092B250431D495A431D4B0880F2
:101AD8001A80337863F07F0333702BB0BDEC068B2C
:101AE800BDE8F08F4FF0000BFFF7F7B989F8013028
:101AF800154B1A6842F002021A60FFF76CBA134BD2
:101B080042F210721A805A80114A5A60114A9A6039
:101B1800114ADA60114A1A61114A5A61032389F895
:101B28000230094B1A6842F004021A60FFF7E2BA61
:101B3800BBF1010F7FF614AB4FF0000BFFF7E5BACE
:101B48003C2100200A1A00202C100020A41000209C
:101B5800E1E000081DB10008AD5500082DB10008EE
:101B680035ED00082DE9F04FC84AC94B1468B3F9A0
:101B7800060023892DED028B98428DB010DBB0F55D
:101B8800FA6FE27908DAC11A4A43A3F5FA6392FBBD
:101B9800F3F36433049305E0C2F16402049201E0B4
:101BA80064210491BB4FBC4BB7F81E211D6897F9FF
:101BB800EE3006925B429BB200210793AB460A4681
:101BC800B34B069ECB5E05939B1B03F2F31E40F2BC
:101BD800E636B64503D8002BB8BF5B4201E04FF4A8
:101BE800FA73022ADFF8BCC233D095F85D6126B1DA
:101BF800B342CCBFC6EB03030023642693FBF6FE77
:101C0800DFF89C926FF0630A39F81E800AFB0E3ADF
:101C18000EF1010E39F91E900FFA88FECEEB090E6F
:101C28000EFB0AFE9EFBF6FEC6442CF801E004EB10
:101C3800020E9EF804E003FB0EFE984B9EFBF3F3A6
:101C48003344DDF810E09BB20EFB03F393FBF6F68A
:101C580016E095F85E6126B1B342CCBFC6EB03032C
:101C68000023DDF81CE003FB0EF6ACF80460A6794F
:101C7800002BB8BF5B427343884E93FBF6F664367D
:101C8800AB18DFF844E293F801C0642306FB0CFCB0
:101C98009CFBF3FC02F80EC09BF80B800EF1030CC2
:101CA80006FB08F898FBF3F802F80C809BF815C0BF
:101CB800DFF8F0810EF1060E06FB0CF696FBF3F644
:101CC80002F80E60059B069EB34204DA38F801302C
:101CD8005B4228F801300132032A01F102010BF1BD
:101CE800010B7FF46DAF6B4DB5F82031984205DBE1
:101CF800B0F5FA6FA8BF4FF4FA6000E01846C01AB2
:101D08004FF47A725043C3F5FA63B0FBF3F34FF024
:101D1800640E634C634E93FBFEF204EB42016FF0DA
:101D2800630000FB023304EB4202098BB2F91A008C
:101D38000AB2821A534393FBFEFE5B4B1A88714426
:101D48005206A8F8061034D5584BDFED597A1A8890
:101D5800238ED31A1BB208EE903AF8EEE88A68EEA2
:101D6800A78AB0EE680A11F0B3FCB0EE408AB0EE74
:101D7800680A11F033FDB6F902E0B6F9001006EE74
:101D880090EA07EE901AF8EEE66AF8EEE77A20EEA7
:101D9800667AA7EE887A67EE807ABDEEC77AE6EEB5
:101DA800887A17EE103AFDEEE77A338017EE903A0C
:101DB8007380AA683F4E40F602031340002B00F0E0
:101DC800C7803D4BB3F80090636B994494F8383062
:101DD800C4F834900133DBB20621B3FBF1F084F888
:101DE800383001FB103313F0FF0F40F0B180930738
:101DF80011D50BF0B1FC314B294A1B78528F9A420E
:101E080006D22F4A12889A4234BF0023012300E0E9
:101E1800022384F83C30AB68180540F197801D4ACE
:101E2800B8F906B0B2F8DE00264ADFF8A080D2F88A
:101E380000A09AF80820012AABF57A7B03D06CD36E
:101E4800022A45D06CE094F85130206C04EB43032F
:101E5800B3F85410082390FBF3F289B2821A0A44AB
:101E680092FBF3F3A4F85C1022649BB240F6E442C0
:101E7800BAF806105343C1EB13334FF47A72534345
:101E8800BAF9042093FBF2F348E000BFD013002016
:101E98004210002044070020201200200CFEFFFF03
:101EA800D0190020AA130020341000201413002099
:101EB80035FA8E3C9E2B00202A130020E0200020BB
:101EC8003C210020DC200020DE190020E820002032
:101ED8003178BAF80620C8F80020490720D50392BF
:101EE80002930BF0B9FA039A029B20B913F0100F72
:101EF80018BF4FF0000B0BFB0BF1322391FBF3F3F0
:101F08009B44BAF9043003FB0BFB4FF47A739BFB39
:101F1800F3FB5A44C8F8002002E00023C8F8003058
:101F2800D8F80030794AD4E9180103FB09F94FF4CD
:101F38007A7399FBF3F910EB090041EBE97100237F
:101F4800C4E918010EF008F9714B186000236363A7
:101F5800704A714BD2F8008094F83C9018F4805184
:101F680093461ABF012283F8682083F86810AB688B
:101F7800DA052FD596F800A00AF0040A5FFA8AFA63
:101F880004F086FE18B11AF1000018BF0120C3073B
:101F980011D50123E26E84F86930604B1078B3F9EB
:101FA80000105378034403EB8303994203DD5A4B33
:101FB800022283F8692004F06BFE28B1BAF1000F01
:101FC80002D1022384F86930544BB3F900300BB9BD
:101FD80084F86930524B1A6890060BD518F4C06F14
:101FE80005D0504B1B78990701D4012300E000234A
:101FF80084F8703094F86920474B022A02D14C20AB
:102008004E2126E0012A06D153204D214C220B46B1
:102018000BF0EAFA32E093F87020012A03D153203A
:1020280001464E2206E093F86820012A04D1532085
:10203800014602464D23EBE7B9F1020F04D15320C4
:1020480001464D224423E3E7B9F1010F03D15320A0
:102058004D210A46F6E734490A88120603D553206B
:102068004D210246D3E7314A107818B119200BF0F8
:102078008FFA03E083F8710004F0F5FA327850071C
:1020880004D52B4B4FF488529A617CE0DBF8003082
:10209800D90703D4274942F001020A7020490A6887
:1020A800500702D52449098861B92449098809B12A
:1020B800910705D4224A1288003218BF012200E095
:1020C80001224AB11A4A918A89B281F488519182CF
:1020D800327822F001023270124A1278120703D4C1
:1020E800327822F001023270D80203D5337823F017
:1020F800010333703378134A13F0010F24D00023FF
:1021080063670B4B4FF4885119852AE0407E050020
:10211800EC20002030100020D01900201A100020D8
:102128002C1000208610002034100020CE12002031
:10213800001000489E2B00208E2B0020A2120020A9
:10214800902B0020842B0020616F136849B9B8498F
:1021580003F5F42303F590734B67B64B4FF488519E
:102168009961636F126873B1D21A002A0BDBB14A06
:10217800918A89B281F48851918203F5F423AC4A9B
:1021880003F5907353670DF0B3FCAB4B1A78984680
:10219800002A6ED0A36F002B00F08985A06FA44D94
:1021A80004F0F6FA002800F08285A86F04F0EBFA34
:1021B800092801D03F284FD14FF00009E66F9F4F03
:1021C8004D462EB19E483968324611F04FF810B985
:1021D800B94605B93D469B4B0C379F42F1D3EDB14B
:1021E800D5F800E0D9F800C0E36F91481EF80370F5
:1021F8001CF80310B94211D15A1C51B92D2B08D81B
:10220800C26703440244202783F8807082F8801054
:1022180004E02344E26783F88070E5E7E36F0BB1DD
:102228004D4510D0884804F067FB4D4507D855F850
:102238000C0B04F061FB092004F058FBF5E7834818
:1022480004F05AFB0026E36F9E42A7D27C4B985DB0
:1022580004F04CFB0136F6E7EB6F002B40F05C8591
:10226800042840F0AE8505F1800006F01DF900F065
:102278001EBDDFF8E88198F84A30012B40F011853F
:10228800DFF8D491724BD8F80020C9F800801A60A2
:10229800CB46DFF8BCA15346186804F079FA002849
:1022A80000F0EE84DAF8000004F06DFADBF8003094
:1022B80093F848201AB9242839D1012234E0012A98
:1022C80004D14D280CBF022200222DE0022A04D19D
:1022D8003C280CBF0322002226E0032A09D140280B
:1022E8004FF0000220D81A71DA71587198710422DF
:1022F8001AE0042A06D19A7983F849005040987167
:10230800052211E0052A26D159791A79914299793D
:1023180006D941409971511C1971134418721AE079
:1023280081420CBF0622002283F8482013E033784C
:102338005B0710D42328DAF8003040F0DC843E4AEA
:102348004448A36701211170C4F8483104F0D4FA55
:102358003E4804F0D1FADBF8003093F84820062A0A
:1023680097D193F8490002F0EDF88246002840F032
:102378007B84394B1A6892F84930432B00F0C883A4
:1023880079D82F2B00F00C842AD8272B00F08983CA
:102398000BD8232B00F0D280252B00F07B83212B38
:1023A80040F0B7844FF00009DCE22B2B00F0868365
:1023B8002D2B00F08783292B40F0AB8403F090FF8E
:1023C800A5F80A0103F08CFFA5F80C0103F07EFFC5
:1023D80085F80E0103F084FFA5F8100100F041BC58
:1023E800372B00F0B88309D8332B00F08083352BC6
:1023F80000F0A381312B40F08C84FFE33C2B00F0EC
:10240800E3802DD8392B40F0848403F05FFF85F8F2
:10241800060103F05BFF85F8080103F057FF85F814
:10242800070103F053FF85F8090100F01ABC00BF4B
:10243800D019002000100048992B0020E46C0108F6
:10244800501A0020EC6D0108C5810108CA810108F5
:1024580094210020FA81010890210020801A002090
:102468003E2B00F0A480412B08BF4FF0000900F07C
:10247800438300F04EBCCF2B00F0E48120D8C92B59
:1024880000F0A1820BD84A2B00F09A80C82B4BD0C1
:10249800442B40F03E84012384F86531E1E3CC2BE2
:1024A80000F0768104D8CA2B00F09C8000F031BC83
:1024B800CD2B00F07182CE2B00F0778200F029BC82
:1024C800D32B2CD005D8D12B00F0A58240F259820D
:1024D80012E0D62B00F0028207D8D42B08BF4FF0A9
:1024E800000900F0208200F014BCEF2B50D0FA2B2A
:1024F80000F0658200F00DBC337803F0040303F0AC
:10250800FF09002B40F0AD8303F0E0FE022885F8B8
:10251800580740F23C82C24B83F8589737E203F0E1
:10252800DFFEC04B18809CE392F805A04FEA5A0AD8
:10253800BAF1120F1CD84FF000091CE003F0C6FED8
:10254800272815D8DFF8ECA2DAF8003000F11C0BC8
:1025580003EB8B0B03F0BAFEB34B0BF1050903F544
:102568008A72197A814200F0D2800C339342F8D1F2
:1025780005F0ACF975E3D14507D203F0B1FEAB4BDA
:1025880023F8190009F10109F5E70122A84B14E223
:10259800DFF8A092D9F800A003F0A2FEAAF856002E
:1025A800D9F8009003F09CFEA9F8540059E303F011
:1025B8008DFE85F8270103F089FE85F8260150E392
:1025C80003F08EFEA8814CE3DFF86892D9F800A0EA
:1025D80003F07CFE8AF80000D9F80030187804F07F
:1025E80013FB3EE3934B1A681278022A4FF0000A55
:1025F800994671D1DFF83C92D9F800B003F066FE35
:1026080007EE100AF8EE477AB2EE048AC7EE887A27
:102618000BEB8A03D9F800B0C3ED087A03F056FE35
:1026280007EE900AB8EE677ADFED837AC7EE277A6D
:102638000BEB8A03D9F800B0C3ED0B7A03F046FE22
:1026480007EE900AB8EE677ADFED7C7AC7EE277A54
:102658000BEB8A030AF1010ABAF1030FC3ED0E7AF4
:10266800C8D1BAF1070FD9F800B01CD103F02EFE7B
:1026780007EE100AF8EE477AC7EE887ACBED117AA2
:10268800D9F800B003F022FE07EE100AF8EE477AF8
:10269800C7EE887ACBED127AD9F800B003F016FEAF
:1026A8008BF84C0012E003F011FE0BEB0A03587094
:1026B800D9F800B003F00AFE0BEB0A03D9F800B012
:1026C800D87203F003FE0BEB0A0358750AF1010AEE
:1026D800BAF10A0FC5D1C4E2D9F800B003F0F6FD8B
:1026E8000BEB0A035870D9F800B003F0EFFD0BEBC1
:1026F8000A03D9F800B0D87203F0E8FD0BEB0A031F
:102708000AF1010ABAF10A0F5875E5D1A9E21B7856
:102718008BF8053003F0DAFD89F8010003F0D6FDE7
:1027280089F8020003F0D2FD89F80300DAF80010F6
:1027380001F1750004F0F0FD93E203F0C7FD0B28EA
:102748003FF616AF3B4B4FF0060A0AFB00F01B683A
:1027580000F5887003EB000A03F0B8FD03283FF684
:1027680007AF8AF80A0003F0B1FD8AF8050003F004
:10277800ADFD8AF8060003F0A9FD8AF8070003F00A
:10278800A5FD8AF8080003F0A1FD8AF8090068E2AF
:1027980053790A2B7FF4ECAE2949D1F8009003F065
:1027A80095FD274A89F80000D2F8009003F08EFDC5
:1027B80089F8010003F08AFD21490B686428A8BF45
:1027C8006420187103F082FD1D4A13686428A8BFAD
:1027D8006420587103F07AFD19490B68FF28A8BFD7
:1027E800FF20987103F072FD154AD2F80090642812
:1027F80028BF642089F8070003F068FD104B89F8AA
:102808000200D3F8009003F061FD0D4989F8030038
:10281800D1F8009003F064FDA9F8080021E200BF98
:1028280044070020B2130020EC6D0108421000207C
:1028380020100020201200200000C84200007A4426
:10284800D013002003F04CFD6FF4AF6143189BB226
:10285800C62B98BFA5F81E0103F042FDA7F8D000CB
:1028680003F03EFDA7F8D20003F03AFDDFF86093CD
:10287800A7F8D400D9F800A003F032FDAAF8AA01FD
:1028880003F024FD87F8340103F020FD03F01EFD5A
:1028980087F8350103F01AFD87F80F0103F016FDDC
:1028A80087F81C0103F012FDD9F8009003F018FD19
:1028B80000EB80004000A9F8520003F007FD87F8FC
:1028C800060103F003FD87F8080103F0FFFC87F811
:1028D800070103F0FBFC87F80901C2E103F000FDE2
:1028E800BA4B23F80A000AF1020ABAF1100FF5D11F
:1028F800B7E1A0F57A739BB2B3F57A7F05D8DAF819
:10290800003003EBC903A3F86A01DAF800A003F06A
:10291800DDFC0AEBC90309F10109B9F1080F83F8D5
:102928006C0100F09E81DFF8A8A2DAF8003002936B
:1029380009F12C0B03F0D4FC029B4FEACB0B5B4450
:10294800D880DAF80030029303F0CAFC029B5B449B
:10295800188103F0C5FC0728CBD8DAF800305B44AF
:102968005873C6E79A4BD3F800A003F0AFFC0AEB04
:10297800C90309F10109B9F1080F83F86D01F1D113
:102988006FE133785A0700F16C8108F0C1FC05F05B
:102998008DFC02F08AFE64E133785B0700F1618107
:1029A8008C4B4FF4C8721A805BE13378580700F1FA
:1029B8005881894B1A7842F004021A7051E1337831
:1029C8005907E4D5A5E103F081FC834B1A7810B1CF
:1029D80042F0020201E022F002021A7003F076FCD3
:1029E8007E4BDFF81092187003F084FCC9F80000E1
:1029F80003F080FCC9F8040003F072FC784B1880DF
:102A080003F06EFC774B188094F8503143F00203C2
:102A180084F8503125E103F059FC029003F06AFC78
:102A2800834603F067FC824603F064FC814603F0AA
:102A380057FC03F055FC03F049FC029BABB96A4A0A
:102A4800C4F854B11388C4F858A123F010031380B4
:102A5800614B1A7842F001021A70B9F1000F00F0C8
:102A68000081624BC3F80090FBE0102B40F0F98026
:102A7800C4F85CB1C4F860A1B9F1000F02D05B4B97
:102A8800C3F800905A480223011D84F8643105F008
:102A980047F9E6E0A86003F02DFCAB681843A8608E
:102AA800DFE003F01DFCA5F8E80003F019FCA5F829
:102AB800EA0003F015FCA5F8EC00D2E003F006FCF0
:102AC8006871CEE003F002FC85F81A0103F008FCF7
:102AD800A5F8220103F004FCA5F81E0103F000FC90
:102AE800A5F8200103F0F2FB85F81B01B9E003F01B
:102AF800EDFB85F81C01B4E003F0E8FB05EB0903E6
:102B080009F10109B9F1080F83F81201F4D1A8E01D
:102B180003F0DCFBC5F808A0687103F0EBFBAB68B9
:102B28001843A86003F0D2FB85F81A0103F0D8FB1C
:102B3800A5F8E80003F0D4FBA5F8EA0003F0D0FB01
:102B4800A5F8EC0003F0CCFBA5F80A0103F0C8FBDC
:102B5800A5F80C0185E05379152B7FF409ADDFF852
:102B6800989009F1180A03F0B1FB89F83A0103F0CB
:102B7800B7FBA9F83C0103F0A9FB89F83E0103F073
:102B8800A5FB89F83F0103F0A1FB89F8410103F097
:102B98009DFB09F1080989F83801D145E3D160E0C6
:102BA800DFF8549009F1400A03F09AFBA9F8E40110
:102BB80003F08CFB89F8E60103F088FB09F10409AE
:102BC80089F8E301D145EFD14BE000BFF0140020B4
:102BD80020120020A21200208610002018120020C7
:102BE800F2200020F02000203410002038100020AF
:102BF8002C1B0020F82000204407002003F066FB6F
:102C08001F283FF6B5ACD9F800305B79082B7FF464
:102C1800AFAC00F1580A03F063FB05EB8A0A00F039
:102C28003F00AAF8060003F05BFBBAF80620800113
:102C380000F4FE531343AAF8063003F047FB0001E3
:102C48008AF8040003F042FB9AF8043000F00F0001
:102C580018438AF8040003F039FB8AF805000CF0E1
:102C6800B3FB002003F01AFEDFF8E891D9F8003032
:102C7800987903F0E3FDD9F80030002283F8482062
:102C880094F865316BB1D8F8000003F05AFD18B913
:102C9800322003F0DEFCF6E70AF0A6FB594B5A4A4D
:102CA800DA605A4908F14C0888457FF4E4AA584A82
:102CB80013689A0617D5574BD4F868211B689A1AD7
:102CC800002A10DB544A1278042A0CD9534A03F517
:102CD800123303F5F873C2F86831514B9A8A92B2ED
:102CE80082F488429A824F4B9B68002B00F08580C3
:102CF8004D48984781E0D4F84C311B7883427FF4E3
:102D08002AAB4A4B4A4A1A603E4B3F4ADA60FFF701
:102D180022BB04F0DBFDA7E70C2803D1454803F0EC
:102D2800EBFD3FE00A2801D00D283DD1424803F0D1
:102D3800E3FDE36F0BB9E36709E0384A591E02F176
:102D48008000085C202801D10B46F3E7D3672344B1
:102D5800002283F8802094F88030232B17D0374B3B
:102D68000A920093364E3749099609A816220C2371
:102D780010F0CDFA054638B1006810F06FFA01304E
:102D8800AB683044984702E02F4803F0B5FD2C4863
:102D98000021302210F021FA0023E36798F8003070
:102DA800002B84D0294808E07F2810D1013BEB672D
:102DB8002B440022264883F8802003F09DFDFFF76E
:102DC800EDB90C28AAD07F2804D1FFF7E7B92F2B3B
:102DD8003FF6E4A9A0F12002D2B25E2A3FF6DEA9AE
:102DE80013B920283FF4DAA95A1C2344E26783F870
:102DF800800003F07BFDFFF7D1B90DB0BDEC028B6D
:102E0800BDE8F08F00ED00E00400FA05181B002073
:102E18002C100020842B002018120020D01900202C
:102E280000100048241200203C1B0020FC9F0020BA
:102E3800EFBEADDECF810108748B01081F62000868
:102E4800501A0020E46C0108DA810108CA810108DF
:102E5800F6810108902100209D499E4A0B682DE9C2
:102E6800F04F03F59C439C4D20331360AA6812F47D
:102E7800807F87B00C4603D0984B198801311980A0
:102E880042F2010313401BB1954B1A7801321A70B4
:102E980005F0A4F8AB68D80405D5924B1B68D90790
:102EA80001D40CF01DFF904B21681C68A37A9BB1DC
:102EB800013B8E4A32F91330A3F57A73B3F57A7F62
:102EC800A8BF4FF47A7323EAE37307EE903AB8EE9B
:102ED800E77ADFED877A32E0AA6812043BD5804AA8
:102EE8005068081A002836DB01F59C4020305060F5
:102EF80080484679804830F81660E07AB6B296FB8A
:102F0800F0F4107A013000F00F001072024454728D
:102F18001A467A48185C01330244102B92B2F8D151
:102F280012B292FBF3F31BB2642BA8BF642323EA0B
:102F3800E37307EE903AB8EEE77ADFED717AC7EE01
:102F4800277A704B9FED707A67EE877AFCEEE77A06
:102F580017EE902A1A80AB68DFF890816B4E13F455
:102F6800807F3BD06A4B994204D95C4B1A790AB9E5
:102F780001221A7103F08CFE00282FD0574A1179CC
:102F8800134609B9118029E03278624912F0040F1A
:102F980015D05E4842F002020270514AD269908907
:102FA800A8F800009089A8F802009289A8F80420DF
:102FB8000A685288A8F806205A8801325A800A6896
:102FC800B3F9001010785378034403EB8303994254
:102FD80002DC33785F0701D40CF082FEB5F8DE001E
:102FE8000AF03AFA814660B903F044FE3C4B0022ED
:102FF800C3F82090C3F82490C3F82890DA621A63C3
:103008005A6333785C0720D5AB68D8061DD5424B88
:103018001B78D90619D4304B93F82721AAB13F4B16
:103028001B7893B12E4B3E49B9F1000F07D10A68BE
:103038009B6B9B1A002B08DA0CF052FE05E009681E
:103048004FF47A7000FB02129A63002295F825A1CA
:1030580095F82611B5F82041B5F82271134638F9CC
:1030680002009B08A042C4BF63F07F03DBB20232B8
:10307800B842B8BF43F04003082AF0D1184C94F87E
:103088003C209A4205D194F83D20F92A04D801320F
:1030980000E0002284F83D2084F83C301F4B114F9B
:1030A8001A789B46002A40D13B68DA0708D5B9F15F
:1030B800000F3AD13378DB0737D50CF0D3FB34E077
:1030C8003378580731D569B30CF00AFE2DE000BFFC
:1030D800842B002024100020440700201A10002010
:1030E800401B002030100020C40E00204210002099
:1030F80000007A44141A0020241A0020491B0020DA
:103108000000C842DE1D002000C07F449E2B002026
:10311800404B4C003C1A002086100020150000206F
:10312800702B0020B9F1000FCED094F83D30B14A91
:10313800DFF80493142B74D133781AF1000A03F0E2
:10314800040318BF4FF0010A03F0FF019BB19BF87D
:103158000030002B65D092F83C305F2B01D10CF089
:10316800BFFDBAF1000F5CD094F83C307D2B58D1EC
:103178000CF0B6FD55E092F83C30572B15D19E4B1C
:103188004FF47A721A80AB68190601D50CF0D8F999
:103198009A4B1B685A0702D5994A0A21118013F0E5
:1031A80008033ED1974A13803BE0A868400714D52E
:1031B8005A2B12D1944B187818B119700122934BDD
:1031C8001DE092F83E10924B81F0010182F83E100A
:1031D80009B1042213E0062211E05D2B00F05D84A2
:1031E8005B2B00F05C845E2B0BD1032200F058BCF3
:1031F800A72B40F0A084874B1A7842F004021A707B
:103208000FE0562B01D10AF041FE9BF80030002B4D
:1032180000F0868494F83C306F2B40F07B840CF0EF
:1032280021FBAB685B0731D594F83E309BB133780E
:10323800580710D5784BB8F90620B3F820319A42D0
:1032480009DD3B6813F0010305D1744A322111806E
:10325800684A82F83E303B68D9030AD5704B1A7821
:103268002AB9694A127812B96C4A322111800122AE
:103278000BE0654B1A784AB1327802F0040202F08A
:10328800FF011AB91970614B01221A70D9F800A010
:1032980000230AF1750B3B600AF1770699460BF19A
:1032A800020303EB090113F809204B7816F8010C07
:1032B8009A420AD231460AF047F930B116F8023C70
:1032C80001229A403B6813433B6009F10409B9F1B4
:1032D800A00F06F10406E2D1524B1B783BB13B68C4
:1032E800464E514C13F0020F40F0CE82C6E20AF26D
:1032F800151203920AF58B769946039A16F8010C73
:10330800531C03EB090113F809204B789A422DD27C
:1033180031460AF019F948B396F802C0434B0CF14C
:10332800FF3C0CEB4C0C63440193337900930098F9
:10333800304B96F803C04FF00C0A0AFB00FA03F171
:10334800400B0BEB0A0101984A6882420ED000221A
:103358000BF80AC048608A600099012202FA01F05D
:1033680093F8702022EA000083F8700009F106093A
:10337800B9F1480F06F10606BFD12D4B2D4A1E683C
:10338800D2F800B0DFF8B4904FF0000AD9F8003056
:10339800002B00F06A821978002900F06682D9F8BB
:1033A8000420C2EB0B02002A0CDB0BF5FA7294F82E
:1033B8007000C9F80420012202FA0AF220EA020287
:1033C80084F8702019F8042C58780432D2B20028F6
:1033D80040F01082B5F81E0138F9122000F1C80C2F
:1033E800624501DD9B7839E0C838824228DA9B784B
:1033F8005B4233E0401B0020902B00202C10002063
:103408008E2B002014130020CD120020CF12002094
:10341800CE1200208610002044070020B41200209D
:10342800CC120020992B002034100020006F0108D6
:10343800D0130020702B002020120020841B0020B5
:1034480094F87020012303FA0AF322EA030384F8AC
:1034580070300BF5FA73C9F8043006E294F870205E
:1034680042FA0AF2D20700F10082002BC24ACCBF0E
:103478000220012010704A1E0D2A00F2EE81DFE8BA
:1034880012F00E0017002300300044004A00960096
:10349800E0002C0159018C01EC0130003B0032782E
:1034A8001344FA2BA8BFFA2323EAE373337007E027
:1034B80072781344642BA8BF642323EAE373737000
:1034C800304602F0C7FFC8E1F2781344642BA8BF66
:1034D800642323EAE373F3703046616F02F074FFEC
:1034E800BBE172791A44642AA8BF642222EAE27214
:1034F8000D29727100F0B18132791344642BA8BF91
:10350800642323EAE3733371A7E1B279134483F3A5
:103518000803B371A1E1A26F1178022936D107EE31
:10352800903AB8EEE77AF2EE047AC7EE277A92ED8F
:10353800097A37EE877AB5EEC07AF1EE10FA09D437
:10354800DFED8F6AB4EEE67AF1EE10FAC8BFB0EE9E
:10355800667A01E09FED8B7A82ED097A92ED087A1E
:1035680077EE877AF5EEC07AF1EE10FA09D49FED7E
:10357800847AF4EEC77AF1EE10FAC8BFF0EE477A13
:1035880001E0DFED807AC2ED087A66E191781944AE
:10359800C829A8BFC82121EAE171917051780B446C
:1035A800C82BA8BFC82323EAE373537055E1A26F61
:1035B8001178022934D107EE103AF8EEC77A9FED58
:1035C800707AD2ED0C6AC7EE877A77EEA66AF5EEC6
:1035D800C06AF1EE10FA07D4F4EEC76AF1EE10FAF9
:1035E800C8BFF0EE476A01E0DFED666AC2ED0C6A1B
:1035F800D2ED0B6A77EEA67AF5EEC07AF1EE10FA04
:1036080009D4F4EEC77A9FED5E7AF1EE10FAC8BFDE
:10361800F0EE477A01E0DFED5B7AC2ED0B7A1CE150
:10362800117B1944C829A8BFC82121EAE171117387
:10363800D17A0B44C82BA8BFC82323EAE373D372FB
:103648000BE1A26F1178022936D107EE903AB8EE55
:10365800E77ADFED4A7AC7EE277A92ED0F7A37EEEE
:10366800877AB5EEC07AF1EE10FA09D4DFED446A34
:10367800B4EEE67AF1EE10FAC8BFB0EE667A01E071
:103688009FED407A82ED0F7A92ED0E7A77EE877A87
:10369800F5EEC07AF1EE10FA09D49FED397AF4EE1E
:1036A800C77AF1EE10FAC8BFF0EE477A01E0DFED15
:1036B800357AC2ED0E7AD0E0917D1944C829A8BFA9
:1036C800C82121EAE1719175517D0B44C82BA8BF2F
:1036D800C82323EAE3735375BFE0A26F1178022968
:1036E8001FD107EE903AB8EEE77AF2EE047AC7EE09
:1036F800277A92ED0A7A77EE877AF5EEC07AF1EEBC
:1037080010FA09D49FED1E7AF4EEC77AF1EE10FA9A
:10371800C8BFF0EE477A01E0DFED1A7AC2ED0A7A07
:103728009BE0D1780B44C82BA8BFC82323EAE373D6
:10373800D37092E0A26F1178022925D107EE103AD2
:10374800F8EEC77A9FED0E7AD2ED0D6AC7EE877A4A
:1037580077EEA67AF5EEC07AF1EE10FA07D4F4EE19
:10376800C77AF1EE10FAC8BFF0EE477A01E0DFED54
:10377800057AC2ED0D7A70E0CE12002000007A447E
:103788000000C84200000000517B0B44C82BA8BFB2
:10379800C82323EAE37353735FE0A26F1178022909
:1037A8001FD107EE903AB8EEE77A5FED0C7AC7EED4
:1037B800277A92ED107A77EE877AF5EEC07AF1EEF5
:1037C80010FA09D41FED127AF4EEC77AF1EE10FA66
:1037D800C8BFF0EE477A01E05FED167AC2ED107AC5
:1037E8003BE0D17D0B44C82BA8BFC82323EAE37371
:1037F800D37532E0012830D138F912209878B2F523
:10380800617F05DB40F633039A42B8BF134601E0F7
:103818004FF461730C2920D14FF4966292FBF0F0BB
:10382800A3F5617393FBF0F394F87C20DBB29A4222
:1038380013D0032BA34994BF1A4602220A2084F806
:103848007C2000FB0212A04802320260029302F0C0
:103858001BFE029B9D4A0133137094F870200123CC
:1038680003FA0AF3134384F870300AF1010ABAF133
:10387800040F09F10C097FF489AD30E5AB68D80570
:1038880014D503F005FA88B1336899070ED5238853
:10389800DFF8488213F001090ED103F0EBF9B8F80C
:1038A800003043F00103A8F8003005E0238823F036
:1038B80001032380012300E000233A68520711D551
:1038C80083B12388DFF8148223F001029B0722804A
:1038D8000CD403F0CFF9B8F8003043F00203A8F88D
:1038E800003003E0238823F0020323802388784AEA
:1038F80013F0030F4FF4884114BF916111853168AB
:1039080011F00A0F22D03A68D60609D558070AD40A
:1039180043F0040323806F4B18886F4B188002E034
:1039280023F0040323809606238806D5580607D477
:103938006A4843F04003038002E023F040032380F9
:10394800530603D5634B1A88654B1A808E0607D435
:103958003B68180540F19280238843F4807390E017
:10396800604B1B78990753D55F4B1B78042B4FD9B5
:103978003B6813F400700ED02388DA06E8D45B485D
:10398800564A23F0200343F01003011D138004F06E
:10399800C7F9022245E0218801F0100292B232B143
:1039A8004E4A21F010011180514A107001225E0523
:1039B80028D5504B1B6859894F4BB3F90000002894
:1039C800B8BF4042884209DAB3F90230002BB8BFC9
:1039D8005B428B42ACBF0023012300E000238BB184
:1039E8002388980620D43D4A444843F02003138096
:1039F800434B011D1A685B680260436004F090F94C
:103A080001220EE0238899060ED523F0200305E055
:103A1800238813F0300F9BD023F030032F4A1380F4
:103A28000022334B1A7001E0002A91D0002213467D
:103A38003448354E0021195234481952344806EB9F
:103A4800020C19520020CCF80000CCF80410CCF875
:103A5800080006F1280C5036944416440233042B0F
:103A6800CCF80000CCF80410CCF808003060716085
:103A7800B06002F114023FF46BAFD9E7238823F456
:103A8800807323806B79082B02D00E2B40F0828044
:103A9800238823F0400323807CE0012200E00222F7
:103AA8005FFA82FA0AF1FF3385F8583704F0FEFB13
:103AB80001F0FBFD02202821524602F0DBFDFFF752
:103AC800B0BB00BF9C0E0020D0130020CE120020F7
:103AD8000010004814130020B213002034100020F6
:103AE800001A00208610002018120020241B002035
:103AF800341B0020C4130020AA1300202C1B002014
:103B0800F82000209A2B0020C01B0020C81300209A
:103B1800CC130020BAF1000F02D07E2B3FF47FAB0C
:103B280094F83C30972B7FF463AB1C4B4FF4C8726E
:103B38001A80FFF776BB0022BB2B059201D1022326
:103B480003E0B72B04D14FF6FE73ADF816300AE048
:103B5800BE2B01D1022304E0BD2B7FF462AB4FF6EC
:103B6800FE73ADF81430D9F80030BDF81410B3F86E
:103B780054200A44A3F85420BDF81610B3F8562070
:103B88000A44A3F856200AF081F9002384F83D304E
:103B9800FFF747BB07B0BDE8F08F00BFA2120020B7
:103BA8002DE9F04F8E4E3378023B8BB0072B00F295
:103BB800AB84DFE813F008002E004F006900800096
:103BC800FB0055019704874B874D1A686B6864336F
:103BD8009A4240F299840024844B854A1B789C427F
:103BE8000ADA2B68804FD05C30B102F099FE3B684E
:103BF800013301343B60EFE729687B4B525C002AB4
:103C080040F082841A604FF0FF325A60032300F0BC
:103C18007ABC24230093774B019303F10C020292A0
:103C2800A3F12200A3F10A020621023304F092FA5A
:103C3800002840F06984704B9B6813F080026A4B3F
:103C480006D04FF0FF3218605A60042300F05BBCC6
:103C58001A602DE002230093684B019303F10C02D4
:103C680004210292A3F11800A3F108020B4404F006
:103C780071FA002840F048845B4B4FF0FF3218601F
:103C88005A60052300F03FBC072300935C4B019367
:103C980003F10C0204210292A3F11800A3F1080217
:103CA8000B4404F057FA002840F02E844E4B18605D
:103CB800062300F028BC4C4C236813B96360012329
:103CC80023604A4B1D7863681D44402DA8BF4025DA
:103CD800132D656040F31884434B1B680D2B00F2CD
:103CE8001184DFE803F05F070B0E121923282D312A
:103CF80035414C52434802F038FE51E042484349AE
:103D080040E043484349444A48E03B4B434893F822
:103D1800781793F8792741E0374B414893F85827AB
:103D28000A2101FB023393F85A172BE0324B3D4826
:103D3800B3F8D01026E0304B3B48B3F8D21021E05E
:103D48003A4B3B48D9681DE03A4B3B48198819E083
:103D58003A4B1B68DE0404D5274B394893F8061103
:103D680010E00C2323601DE0234B364893F808111C
:103D780093F8092193F8073109F07AF810E02F4BEE
:103D88003148998809F074F80AE01B4B9A681005C5
:103D980008D52E48B3F80C11B3F90A2109F068F8D0
:103DA800281A6060236801332360ADE3284B0024A0
:103DB8001C60284B1C60284B1C600823337002F0E1
:103DC80071FB0AAD45F8140D012002F04CFC234BA1
:103DD8000122204629461A7002F0D8FD94E300BF5C
:103DE80025070020702B0020340700201C0100202C
:103DF8002C6F0108C26F0108440700208071010878
:103E0800A8710108D6840108F38401080B8501080C
:103E1800138501082A850108368501083F850108B0
:103E28005385010860850108728501082412002065
:103E3800848501080400002097850108381C0020AB
:103E4800A4850108B4850108D0850108DE8501082C
:103E5800300700202C07002028070020CE12002061
:103E6800BF4B1868002840F0BB80BE4D0BF0F0F93E
:103E78004920AC6802F054FDBB4B186802F060FDA5
:103E8800206802F05DFD606802F069FDA06802F03C
:103E980066FDE06802F063FD206902F060FD60697C
:103EA80002F05DFDA06902F05AFD0E2601222B6882
:103EB800B2401A4205D004EB860353F81C0C02F0FA
:103EC8004EFD0136112EF1D1B4F92800A74E02F0AB
:103ED80046FDB4F92A0002F042FDB4F92C0002F0C4
:103EE8003EFDB6F8D030B4F92E00C01A02F028FD15
:103EF8002B68D90408D59B4B9888B4F86430C01A4D
:103F0800C0F30D0002F01CFD2B689A0403D5B4F829
:103F1800660002F015FD2B685B0506D42B681F05AB
:103F280010D5A06E02F01BFD0CE0B4F96C0002F095
:103F380016FDB4F96E0002F012FDB4F9700002F03B
:103F48000EFDEBE7B4F9300002F009FDB4F93200D8
:103F580002F005FDB4F9340002F001FDB4F93600B1
:103F680002F0FDFCB4F9380002F0F9FCB4F93A00AB
:103F780002F0F5FCB6F8D030B4F93C00C01A02F0F3
:103F8800DFFC01267A4B1B789E420ADA04EB4603D3
:103F98000136B3F93C00B4F93C30C01A02F0DFFC3A
:103FA800F0E72B68980507D56E4B9B68B3F95E0060
:103FB800A0F2DC5002F0D3FCAB686E4A6E49EB60AD
:103FC8002B619B1A9B104B430133032193FBF1F1A7
:103FD80001EB41015B1A742101FB0322AA6071E223
:103FE800624B93F8782793F8791701381044B0FB9F
:103FF800F1F401FB1401914280F02882594D0BF035
:1040080027F95020D5F80880EF6802F089FC2A6962
:10401800AB6810681B681844EB681B68A0EB43008A
:1040280002F09DFC002408EB04023B1950685B6811
:104038000434C01A02F093FC0C2CF4D1002308EBD2
:104048000301FA180969126905AC8A1A1A5104336E
:104058000C2BF4D100221346A15801F120003F286F
:1040680020D801F108000F2806D80231032904D905
:10407800002B08BF012300E0022304320C2AEBD1F5
:10408800012B059813D0022B1FD0069B03F00303C6
:104098009B0000F0030043EA0010079B03F00303B2
:1040A80018431EE007AB04A94FF0000B1DE000F019
:1040B8000F0040F0400002F033FC079B03F00F02B2
:1040C800069B42EA0310C0B20BE000F03F0040F04C
:1040D800800002F025FC9DF8180002F021FC9DF8F4
:1040E8001C0002F01DFC0E265EE053F8042902F1C4
:1040F8008000FF284FEA8B0B10D902F50040B0F57D
:10410800803F02D24BF0010B08E002F50002B2F149
:10411800807F34BF4BF0020B4BF0030B8B42E4D192
:104128006BF03F00C0B202F0FBFB00260BF003036C
:10413800022BA05D09D0032B20D0012B2CD102F03B
:10414800EFFBA059C0F3072026E002F0E9FBA059D5
:10415800C0F3072002F0E4FBA059C0F307401BE0BE
:104168002C070020381C00203007002044070020BE
:104178009F2B00204C1C002035C2724F02F0D0FB50
:10418800A059C0F3072002F0CBFBA059C0F30740A9
:1041980002F0C6FBA059000E043602F0C1FB0C2E3B
:1041A8004FEAAB0BC2D19EE701222B68B2401A42FC
:1041B8000AD0B30008EB03023B4452F81C0C53F836
:1041C8001C3CC01A02F0CBFB0136112EECD10023A7
:1041D80008EB0302B2F92810FA18B2F928208A1A53
:1041E80044F813200233082BF2D108AA04A84FF090
:1041F800000952F804194FEA89035FFA83F969B193
:1042080001F108060F2E02D849F0010906E08031B5
:10421800FF2994BF49F0020949F003098242E8D115
:10422800484602F07DFB0026B246B34609F003017A
:10423800022916D003291DD0012936D1BBF1000F60
:1042480005D1A25912015FFA82FA8B462DE0A059D6
:1042580000F00F0040EA0A0002F062FB4FF0000B8A
:1042680023E0BBF1000F0DD0A059C0F3031040EAC2
:104278000A0014E0A059BBF1000F07D1C0F30720D2
:1042880002F04EFBA05D02F04BFB0EE0C0F30330E2
:1042980040EA0A0002F044FBA059C0F3071002F0FC
:1042A8003FFBA25912015FFA82FA0436102E4FEA38
:1042B8009909BBD1BBF1010F02D1504602F030FB86
:1042C8002A6812F4805606D0B8F86410B7F864303B
:1042D800CB1A0593012691040AD50AA901EB860396
:1042E800B8F86600B7F86610411A43F8141C01368E
:1042F800530511D504EB8601002308EB0300B0F940
:104308006CE0F818B0F96C00C0EB0E0041F813002F
:104318000233062BF1D1033610050AD50AAA02EB9F
:104328008601BB6ED8F86820D31A41F8143C0136D0
:1043380000E026B1012E04D1059802F010FB0024FC
:104348001AE0731E04EB8602002052F8041D400098
:10435800C0B209B140F00100013BF6D502F0E0FA25
:104368004FF0000B54F82B0008B102F0F8FA0BF1EB
:10437800010BB345F6DBE2E704F11803AA6832F94A
:104388001300EA6832F913102A6932F9133002224D
:104398000B4493FBF2F3C01A013402F0E0FA032C49
:1043A800EAD10024AA6804F118035B001A44013416
:1043B800B2F90600EA681A44B2F906102A691344E9
:1043C8000222B3F906300B4493FBF2F3C01A02F051
:1043D800C6FA032CE6D100244D4B1B789C4217DA11
:1043E800AA6804F11C035B001A440134B2F9040002
:1043F800EA681A44B2F904102A6913440222B3F98C
:1044080004300B4493FBF2F3C01A02F0A8FAE3E776
:104418002B68990506D5B8F95E00B7F95E30C01A61
:1044280002F09DFAEB68AA682B613A4B3A49EA60B8
:10443800D21A92104A430132032192FBF1F101EBA7
:104448004101521A742101FB0233AB6033498B6876
:104458001A0637D5324C334D2268D5F870319A4256
:104468000CD16268D5F874319A4207D12E4A136884
:10447800102B13D12D4B1B685B060FD1482002F07F
:104488004FFA206802F06BFA606802F068FA236855
:10449800C5F870316368C5F8743111E0244A214BBE
:1044A800117895F8802191420AD1224AD3F87811DF
:1044B8001068884204D15268D3F87C319A4201D0FE
:1044C80003F08AFF1C4B1A6801321A60164B1A68EF
:1044D8000132202A04D100221A60144B1A680132D2
:1044E8001A6011E0154B1A68154B5B68C8339A427D
:1044F80003D90BF0A1F9012305E002F032F90028F5
:10450800F7D101E0072333700BB0BDE8F08F00BF8F
:104518009F2B00204C1C002035C2724F44070020FE
:10452800241B0020381C00202C070020280700200E
:1045380018120020F820002030070020702B0020DF
:10454800340700202DE9F04F2DED028B462887B067
:10455800044600F0578600F28E802C2800F0B885BB
:1045680045D8202800F0DF8223D8032800F07A817C
:1045780014D8012800F06B81022840F060860420DE
:1045880002F08CF9432002F059F94C2002F056F958
:10459800462002F053F94C2000F048BC042800F0F3
:1045A8006A81052840F04B861A2002F077F900242A
:1045B8006EE1262800F055850CD8222800F03984B1
:1045C800242840F03C86042002F068F9BD4B986826
:1045D80000F031BE282800F068852A2840F02F8690
:1045E800012002F05BF9B74B587900F01FBC38285E
:1045F80000F048851FD8322800F081850DD82E2874
:1046080000F0CB85302840F01A86AE4CE02002F04E
:1046180045F904F1800500F0D6BD342800F029845E
:10462800362840F00C86A74C152002F037F904F123
:10463800180500F096BD3D2800F0DE820CD83A2817
:1046480000F0AB823B2840F0FA85012002F026F901
:104658009D4B1B681878E9E3422800F061854528DE
:1046680000F0DA85402840F0EA85082002F016F9C3
:10467800002400F04BBD6F2800F0FD826DD868283B
:1046880000F0618229D8652800F03A811AD84928B3
:1046980000F0EA82642840F0D2850720894C02F0B5
:1046A800FDF8E72002F0CAF8607902F0C7F80020A8
:1046B80002F0C4F894F83231002B0CBF04200C200F
:1046C80000F0B9BD662800F0CE81672840F0B785B4
:1046D800102002F0E3F80024FEE16B2800F0958337
:1046E80028D8692800F03B826A2840F0A885102065
:1046F80002F0D4F8754B764C187800F0020002F0FE
:104708009DF8744B187802F099F8206802F057F871
:10471800606802F054F8704BB3F9000002F0C1F879
:104728006E4BB3F9000002F0BCF86D4BB3F92400EE
:1047380000F0A5BC6D2800F0258200F23282694C99
:10474800062002F0ABF8B4F9000002F0AAF8B4F9B8
:10475800020002F0A6F8644B1CE2762800F01984E7
:104768004ED8732800F00A843FD8702800F0AA8237
:10477800722840F06485534C534D162002F08EF891
:10478800B4F91E0102F08DF8B4F9D00002F089F8EE
:10479800B4F9D20002F085F8B4F9D40002F081F837
:1047A8002B68B3F9AA0102F07CF894F8340102F0FE
:1047B80045F8002002F042F894F8350102F03EF87E
:1047C80094F80F0102F03AF894F81C0102F036F858
:1047D800002002F033F82B68B3F952000A2390FB4B
:1047E800F3F002F05EF800F051BC742800F0628328
:1047F800752840F024852F2002F050F83B4CFCE24D
:10480800A02800F020840AD8772800F0858378282B
:1048180040F01585382002F041F8002564E1F028C1
:1048280000F00484FE2800F0F383A42840F00785F4
:104838002B4D95F8260080000130C0B202F02EF80A
:1048480095F8260001F0FAFF00242E46C7E303205E
:1048580002F024F8002001F0F1FF204601F0EEFFFD
:104868000820E3E202F01AF8012001F0E7FF09202E
:1048780001F0E4FFB1E3062002F010F800241C4B1D
:104888001B68185D013401F0D9FF042CF7D1CBE384
:10489800184B185D013401F0D1FF0B2CF8D100241E
:1048A800154B185D013401F0C9FF082CF8D100241C
:1048B800124B185D013401F0C1FF072CF8D100F04C
:1048C800BCBC00BF44070020201200208610002036
:1048D800F820002018120020F2200020F0200020EC
:1048E800BC1D0020E411002014130020F3710108FE
:1048F800200100202A850108368501080B8501085A
:104908000B2001F0CBFFC24BB3F9000001F0C9FF47
:10491800C04BC1491A688A420CBF9888D88880B2AF
:1049280000B201F0BEFFBD4B1B68C3F3C000C3F368
:104938008002800040EA4200C3F340021043C3F300
:10494800401240EAC20003F01003184301F0A9FF27
:10495800B34B1A8812F0010F0CBF0021022112F08C
:10496800020F0CBF0020042012F0040F0CBF00231C
:10497800102312F0400F009001930CBF002020205C
:10498800A84B029012F0100F0CBF00204FF40070DB
:1049980012F0200F1B6803900CBF00204FF48060BA
:1049A80012F4807F04900CBF00204FF4006002F0E6
:1049B800080B03F4807A059003F4805903F4005837
:1049C80003F4804C03F4004E03F4803703F40036FC
:1049D80003F4802503F4002403F4801003F0C003DB
:1049E80043EA0B0343EA0A0343EA090343EA0803D9
:1049F80043EA0C0343EA0E031F438B4B3E43354304
:104A08001B782C432043C3F3800303430B430099D3
:104A180001980B430299034303980B4304990343FA
:104A2800059812F4007F43EA010343EA00030CBF30
:104A380000224FF400121A43764B00201C7A0346DA
:104A4800A3420AD279495D5C012101FA05F51542B4
:104A58001CBF994008430133F2E701F0B0FE744BE4
:104A680093F85807E2E1122001F018FF714B724CDD
:104A78001B88B3F5806F22D90025605F082390FB5F
:104A8800F3F0023501F00DFF062DF6D16B4CB4F9A9
:104A9800000001F006FFB4F9020001F002FFB4F9CA
:104AA8000400674C01F0FDFEB4F9000001F0F9FEC6
:104AB800B4F9020001F0F5FEB4F90400DFE2B4F93C
:104AC800000001F0EEFEB4F9020001F0EAFEB4F9CC
:104AD800040001F0E6FED9E75A4B185D013401F0F5
:104AE800ADFE102CF8D1A8E3574E05F12C0433681D
:104AF800E40023440135B3F9060001F0D2FE33681F
:104B08002344B3F9080001F0CCFE33682344B3F919
:104B18000A0001F0C6FE33681C44207B01F08EFEBB
:104B2800082DE1D189E3082001F0B8FE0024464BA6
:104B38001B6803EBC403013493F86D0101F07EFE9A
:104B4800082CF4D179E3102001F0A8FE00243F4B93
:104B5800185D013401F072FE102CF8D16DE32D4D73
:104B6800E87F400000F0FE0001F098FE0024EB7F93
:104B78009C4280F06283364B33F9140001F091FEB9
:104B88000134F4E7062001F089FE324B186801F081
:104B980016FE314BB3F9000071E2042001F07EFEED
:104BA80048E3072001F07AFE2C4B187801F046FE06
:104BB8002B4B18684FF6FF74A042A8BF204620EA86
:104BC800E07000B201F06DFE124BB3F9220001F063
:104BD80068FE174B93F80F21224B42B11B680A203D
:104BE8005843A042A8BF204620EAE07002E01868B7
:104BF80000F30F0000B242E20D4C022001F04EFE1D
:104C080094F8270101F01AFE94F826010EE100BF7E
:104C18002A130020BC1D0020005400402C10002046
:104C280034100020301000209E2B0020C51D0020CD
:104C38004407002004000020E8120020882B0020F0
:104C480080100020BE14002020120020A014002094
:104C5800421000203C100020DC110020E020002041
:104C6800EC200020E8200020022001F017FEB84BBD
:104C7800B3F90C0003E2B74C0A2001F00FFE2368D9
:104C8800187801F0DBFD2368587801F0D7FD00257E
:104C980026463368AF4C2B440135187901F0CEFD18
:104CA800032DF6D12368D87901F0C8FD23689878D8
:104CB80001F0C4FD2368D87801F0C0FD2368B3F97A
:104CC8000800DCE1A44D1E2001F0E8FD2B681B78EC
:104CD800022B4FF000047DD12B6803EB840393ED86
:104CE800080AB2EE048A20EE080A0EF02DFDFA2812
:104CF800A8BFFA2020EAE070C0B201F09FFD2B683F
:104D0800DFED967A03EB840393ED0B0A20EE270A76
:104D18000EF01AFDFA28A8BFFA2020EAE070C0B207
:104D280001F08CFD2B68DFED8E7A03EB840393EDA5
:104D38000E0A20EE270A0EF007FD6428A8BF64209B
:104D480020EAE070C0B2013401F078FD032CC3D131
:104D5800072C2B682CD193ED110A20EE080A0EF0CF
:104D6800F3FCFA28A8BFFA2020EAE070C0B201F0EC
:104D780065FD2B6893ED120A20EE080A0EF0E4FC9C
:104D8800FA28A8BFFA2020EAE070C0B201F056FD68
:104D98002B6893F84C3000EE103AB8EE400A0EF04B
:104DA800D3FCFA28A8BFFA2020EAE070C0B20BE0D2
:104DB8002344587801F042FD2B682344D87A01F047
:104DC8003DFD2B682344587D013401F037FD0A2C42
:104DD800BED132E22B682344587801F02FFD2B68AE
:104DE8002344D87A01F02AFD2B6823440134587DE6
:104DF80001F024FD0A2CEDD11FE214F8010F002860
:104E080000F01B8201F01AFDF7E7052001F046FDCE
:104E1800544BB3F9000001F044FD534BB3F90000C3
:104E280001F03FFD514B187800F0010001F006FD3C
:104E380003E2A02001F032FD0024474B1B6804F177
:104E48001C0203EB82035D1D494A5B790C2101FBBF
:104E580003230134187A01F0F1FC687801F0EEFCC4
:104E6800A87801F0EBFCE87801F0E8FC282CE4D104
:104E7800E3E1482001F012FD0025374B06261B68A8
:104E88006E4306F588761E440135B07A01F0D6FCEB
:104E9800707901F0D3FCB07901F0D0FCF07901F021
:104EA800CDFC307A01F0CAFC707A01F0C7FC0C2DF9
:104EB800E3D1C2E10027012400252E4B1A7A95423E
:104EC80022DA0933E95C0023294A03EB02089A5CD9
:104ED8008A4204D00C33B3F58A7FF5D112E0D8F8B2
:104EE80004000EF0BBF981460CB9264601E00744E0
:104EF80008E04E4506DAD8F80430985D01F09EFCCB
:104F08000136F6E70135D8E7002C00F09681F8B2B3
:104F180001F0C4FC0024CFE7164D287A01F0BEFC4E
:104F280000242B7A9C4280F08881134BE05C00239C
:104F38000F4A99189A5C824204D00C33B3F58A7FE1
:104F4800F6D102E0087A01F079FC0134E9E700BF04
:104F580044070020D0130020201200200000C8427F
:104F680000007A446A2100206C210020201B0020C8
:104F7800EC6D0108BC1D0020C51D0020082001F0B3
:104F88008DFC0124E0B2013401F058FC092CF9D160
:104F980053E101F09BF90646122001F07FFC0EB99F
:104FA800AA4B02E0102E03D1A94B1D685C6801E0F2
:104FB80000242546304601F041FC284601F0FFFB5D
:104FC800204601F0FCFBA34B186801F0F8FB002019
:104FD80001F067FC002001F064FC002026E796F849
:104FE80026309C4280F029819B4D285D01F026FCEB
:104FF80005F11003185D01F021FC05F1200330359F
:10500800185D01F01BFC285D01F018FC0134E6E78F
:10501800082001F043FC002001F043FC002001F0CF
:1050280040FC002001F03DFC002028E08B4C0420CF
:1050380001F034FC2368B3F9560001F032FC236810
:10504800B3F954001BE00C2001F028FC844B1868CD
:1050580001F0B5FB834B186801F0B1FB824B18686F
:10506800E9E0824C062001F019FCB4F9E80001F0EF
:1050780018FCB4F9EA0001F014FCB4F9EC0001F0F2
:1050880010FCDAE0042001F009FC784C94F80601E1
:1050980001F0D4FB94F8080101F0D0FB94F8070163
:1050A80001F0CCFB94F80901C0E6704C072001F030
:1050B800F5FBB4F90A0101F0F4FBB4F90C0101F0B5
:1050C800F0FB94F80E0101F0B9FBB4F91001D6E732
:1050D800664C082001F0E2FB94F81A0101F0AEFBDF
:1050E800B4F9220101F0DDFBB4F91E0101F0D9FB8E
:1050F800B4F9200101F0D5FB94F81B0196E60120D4
:1051080001F0CCFB594B93F81C018FE6574B234415
:10511800013493F8120101F091FB082CF6D18CE0D0
:10512800524C102001F0BAFB607901F087FBA068AF
:1051380001F045FB94F81A0101F080FBB4F9E8008E
:1051480001F0AFFBB4F9EA0001F0ABFBB4F9EC00F5
:1051580001F0A7FBB4F90A0101F0A3FBB4F90C01B3
:105168008DE794F83A0101F069FBB4F93C0101F0CC
:1051780098FB94F83E0101F061FB94F83F0101F0BF
:105188005DFB94F8410101F059FB083494F83801AB
:1051980001F054FBAC42E4D14FE04020334C01F025
:1051A8007DFB04F14005B4F9E40101F07AFB94F8C1
:1051B800E60101F043FB043494F8E30101F03EFBFF
:1051C800AC42F0D139E0B4F8660100F03F0001F0DC
:1051D80068FBB4F86601C0F3861001F062FB94F82E
:1051E8006401000901F02AFB94F8640100F00F0043
:1051F80001F024FB043494F8610101F01FFBAC4278
:10520800E1D11AE00D2001F049FB002001F016FB66
:10521800002001F0D4FA0AE0132001F03FFB00243B
:10522800134B185D013401F009FB0B2CF8D1002059
:1052380001F0C5FA002001F0C2FA012000E00020C8
:1052480007B0BDEC028BBDE8F08F00BF241B002027
:105258002C1B002038100020E31D00202012002005
:10526800ACF7FF1FB0F7FF1FB4F7FF1F440700207C
:105278002A8501082DE9F04F2DED068B83B0914664
:105288000193B24BDFEDB27A1B8800910AEE903A97
:10529800B04B1A88F8EE6AAA12F0020F83466AEE3B
:1052A800A7AAF7EE009A4CD0129BAB499B89B1F99B
:1052B8000020D21A02F2F31440F2E630844203D8F6
:1052C800002AB8BF524201E04FF4FA72B1F9021055
:1052D800C91A01F2F31040F2E633984203D80029C4
:1052E800B8BF494201E04FF4FA719BF84C305BB308
:1052F8009142A8BF0A46C2F5FA7206EE902ADFED7F
:10530800977AF8EEE66A6422C6EEA76A92FBF3F390
:1053180006EE103A76EEE96AB8EEC67AF0EE698AD9
:10532800E6EE878AF7EE007AF5EEC08AF1EE10FA1B
:105338000AD4F4EE678AF1EE10FAC8BFF0EE678A75
:1053480004E0F0EE698A01E0DFED858A00245F461B
:1053580025462646009ADFF848A23244022E92F8E3
:105368000480B2EE049A0ED1BAF9042008F10A08B2
:1053780002FB08F807EE108AF8EEC77A9FED797AF3
:10538800C7EE877A42E078493AF90500695E084431
:10539800C9F10001884203DB4845B4BF01464946CC
:1053A8007248019B285E091A585F014406EE101ADC
:1053B800B8EEC68A88EE098A01F04AFC38B16C4911
:1053C800885DB0EE480A03F0F7FDB0EE408A614B05
:1053D8001988CA0704D5DBED117A68EE277A15E03B
:1053E8003AF905209FED5F7A08F1140802FB08F8E6
:1053F80006EE108AF8EEC67A8B07C7EE877A05D5CF
:105408009BED127A28EE078AE8EE287A594A97ED3A
:1054180008AAAA5E07EE102A574AB8EEC77AD2ED54
:10542800036A564A27EE267AD7ED0B6A77EEC77AD3
:10543800224427EE8AAA67EEAA7A92ED008A67EEDE
:10544800A67AA7EE898ADFED4E7AB4EEE78AF1EE06
:1054580010FA09D4DFED4B7AB4EE678AF1EE10FA50
:10546800C8BFB0EE678A01E0B0EE678A82ED008AB5
:10547800454A1119D1ED007A81ED007A77EE677A05
:1054880089EEAA7A02F10C0118322144224492EDE5
:10549800009A67EE877A91ED007AC1ED007A37EECF
:1054A800099A82ED007A39EE279AF0EE087A89EEA9
:1054B800279AD7ED0E7A29EE279ADFED347AB4EEE3
:1054C800E79AF1EE10FA09D4DFED317AB4EE679A73
:1054D800F1EE10FAC8BFB0EE679A01E0B0EE679A35
:1054E8003AEE080A013630EE490A0EF02DF9294A3B
:1054F800B0F57A7FA8BF4FF47A709042B8BF1046D3
:10550800BDEECAAA244A1AEE103AA852BDEEC88ABD
:10551800224AB1EE499AA35002F10C0118EE103A52
:10552800BDEEC99A6350183219EE103A032EA350F3
:1055380005F1020504F1040407F104077FF40AAF3A
:1055480003B0BDEC068BBDE8F08F00BF2A13002026
:10555800BD37863534100020421000200000FA4381
:1055680000000000000048429A2B0020E4110020AF
:1055780030720108882B0020241200206C1B0020A8
:1055880000007AC300007A43241E0020000096C35E
:105598000000964318FCFFFFD4130020481E00208B
:1055A800AA13002077204821012208F02FBD1FB53B
:1055B800044602210C2001220DF1070305F01EFD0F
:1055C800C8B39DF80730DB0735D50321062202ABA7
:1055D8000C2005F013FD0C20092101220DF1070311
:1055E80005F00CFD38B39DF8073013F00C0F22D1ED
:1055F8009DF809209DF8083043EA0223C3EB833362
:105608009B009DF80B2023809DF80A3043EA022373
:10561800C3EB83339B009DF80D2063809DF80C300D
:1056280043EA0223C3EB83339B00A3800C200A21A7
:10563800012208F0EBFC04B010BD07B50A210022D6
:105648000C2008F0E3FC142001F003F80A210F22D3
:105658000C2008F0DBFC0A2000F0FBFF01AB102156
:1056680003220C2005F0CAFC0A2000F0F2FF0A21F0
:1056780000220C2008F0CAFC0A2000F0EAFF0DF115
:105688000303022101220C2005F0B8FC0DF10303ED
:10569800092101220C2005F0B1FC0A2101220C206D
:1056A80008F0B4FC03B05DF804FBF8B502F0DAFDCD
:1056B80010B90A2001F006F8984C9949994E4FF410
:1056C800F06220460DF080FD94F85837022B84BF15
:1056D800002384F8583794F858374FF4DE7202FBE9
:1056E800034303F5097393F850203360022A84BFFB
:1056F800002283F850208C4A93F8503013700A2205
:1057080002FB0343894A03F25A731360A36842F207
:1057180001021A403AB944F208021A401AB97F4AFB
:1057280043F400539360A368D80703D54FF400509F
:1057380009F085FDA368590409D5082009F07FFD03
:105748004FF4005009F07BFD012009F078FDA368B3
:105758001A0706D54FF4005009F071FD012009F031
:105768006EFDA3689B0406D54FF4803009F067FDF1
:10577800402009F064FD94F82521684B2AB193F87C
:105788002A2112B1002283F82A21694B694F1F6030
:1057980000221146A318B3F83C315D0805F07735AF
:1057A800980800F033305D1B2D1AD80800F011302E
:1057B8002D1A05EB251505F00F35FF2095FBF0F0A8
:1057C80013F0010E284418BF013100F0FF0018BF84
:1057D800C9B201280AD9022840F09D80BEF1000F05
:1057E80000F0998013F0BC0F00F095800832182A59
:1057F800D0D10139012900F28E8000F045FE302217
:1058080000214D484D4D0DF0E8FC316801F175005F
:1058180001F082FD4A4B1D604A4B05F15E021A6099
:105828003368187801F0F0F93068474B00F5D87202
:105838001A6009F0ABFE3368444AD3ED176A9FED4E
:10584800447A03F5D4711160424A00211180424A1A
:10585800291D1160414A03F5B3711160404A03F5EF
:10586800D37111603F4AA5F11E0111603E4AA5F1AE
:10587800260111603D4A05F1340010603C4AB4F835
:10588800F2003C35156007EE900A3A4AB4F8F40085
:10589800176026EE877AF6EE006A374AF8EE677ADE
:1058A80086EE877A4832C2ED017A07EE900A93F8BD
:1058B8005800107093F87400507094F82801107311
:1058C800F8EE677AB3F86201C2ED027A07EE900A41
:1058D8002A4802602A4A13602A4A03F160001060CD
:1058E800294AF8EEE77A82ED007A9FED287A284A6D
:1058F800C7EE277A03F1640003F25D139FED257A62
:1059080067EE877AC2ED007A234A1060234A136053
:10591800234B1960F8BD01F0D5FC6EE74407002061
:1059280000F8030820120020BC1B0020D013002020
:10593800C40E002056080020801B00203A080020D2
:105948003C120020FC060020C41300203C1A002052
:10595800DB0F49401A100020A4120020D0140020A8
:10596800E0140020EC140020D4140020DC130020E4
:10597800D8140020B8140020241E0020D8120020BB
:10598800EC110020241300202013002000006144A3
:10599800C01300204C3D0F44CC100020B41300204D
:1059A800BC1300202DE9F04FC44BDA682DED028BB3
:1059B8001A61C34A1268DA60C24B1A6842F02002C0
:1059C8001A60C14B1A78012A0CBF002201221A70F2
:1059D800BE4B1A78910789B040F14683BC490978D3
:1059E800042940F24183BB49097801F0040101F020
:1059F800FF0011B922F001021A701B78DB0702D4EC
:105A080008B109F09DFDB44BB44993F858200978C2
:105A1800029101324FF0050C92FBFCFC0CEB8C0C54
:105A2800CCEB020C1A46603302F858CF03EB8C0C0F
:105A38000023AB48AB4E1D5819180391AA4995FB92
:105A4800F6F401F1080601F1100A9C5103EB830BEF
:105A5800A64E5D5053F80A7006FB04555CF80B60BF
:105A68004CF80B50C6EB070942F2107809EB050613
:105A780095FBF8F89B4F43F80A600525183196FB0B
:105A8800F5F607FB04645C5002991FFA88F80129AF
:105A980022F8028F074606D1A8F10208B8F5797FE7
:105AA8009CBF039D2C600433082BC2D18A4C844BC5
:105AB800D4F8A82019689FED8E7A1B68C4F8A8301E
:105AC8008A1A07EE902AF8EE677A804B894E1B787F
