:020000040800F2
:1000000000A0002069AF0008C19E0008E19E000822
:10001000BF9E0008BD9E0008BB9E000800000000B7
:10002000000000000000000000000000B99E000871
:10003000B79E000800000000B59E0008C39E00089F
:10004000DDAF0008DDAF0008DDAF0008DDAF000860
:10005000DDAF0008DDAF0008DDAF0008DDAF000850
:10006000DDAF0008DDAF0008DDAF0008DDAF000840
:10007000DDAF00086DA0000821A00008DDAF00087A
:10008000DDAF0008DDAF0008DDAF0008DDAF000820
:10009000A9970008DDAF0008DDAF0008DDAF00085C
:1000A000AD9F0008DD9F00089D9F0008ED9F0008A0
:1000B000CD9F0008BD9F0008DDAF0008DDAF000840
:1000C000DDAF0008DDAF0008DDAF0008DDAF0008E0
:1000D000DDAF000815A0000809A00008FD9F00087A
:1000E000D19E0008DDAF00089DA00008DDAF00082C
:1000F000DDAF0008DDAF0008DDAF0008DDAF0008B0
:10010000000000000000000000000000DDAF00085B
:10011000DDAF0008DDAF0008DDAF0008DDAF00088F
:10012000DDAF0008DDAF0008DDAF0008DDAF00087F
:10013000DDAF0008DDAF0008000000000000000097
:10014000DDAF0008DDAF0008DDAF000800000000F3
:10015000000000000000000000000000000000009F
:100160000000000000000000DDAF0008DDAF000867
:10017000DDAF0008000000000000000000000000EB
:0801800000000000DDAF0008E3
:100188002DE9F04F2DED068B894D8A4B2B60A5B0DC
:1001980000236B6003F02CFF18B905F029FD03F06C
:1001A8004BFF06F04DFA844B844C1A7842F001025A
:1001B8001A70834A4FF47001C2F888100022069220
:1001C8000792226842F480322260236803F40033E5
:1001D8000793069B01330693079B1BB9069BB3F550
:1001E800A04FF2D1236813F4003318BF01230793FB
:1001F800079B012B63D0724F724BFB60636A724E90
:1002080043F080736362636943F4FC030DF1900863
:10021800636103238DF8423041F6FF7328F8503D9F
:100228004FF09040414603F0D6FC4FF6FF7330463E
:100238004146ADF8403003F0CEFC6448414603F037
:10024800CAFC6348414603F0C6FC6248414603F0D5
:10025800C2FC4146604803F0BEFC404603F0EAFA9F
:10026800109B5E4A5E49B3FBF2F3AB605D4B002224
:100278001A605D4B5960F02187F823105B4F9A6034
:1002880007221A6097E80F0088E80F006369109842
:1002980043F480236361636943F48023636110231B
:1002A800B3612023B36111A903F095FC129813A937
:1002B80003F091FC4E4B9A68100729D49EE04D4BF1
:1002C80012221A606368636063686360636843F45A
:1002D80080636360636823F47C136360636843F43A
:1002E800E8136360236843F0807323602268334B0C
:1002F8009101FBD55A6822F003025A605A6842F00D
:1003080002025A60636803F00C03082BFAD172E703
:10031800374890F81A31012B70D8344990F81B717E
:100328000869C8F800004146304603F054FC0A202A
:1003380008F07CF8338A03F480539BB2002B5DD11C
:100348001E4A526AD20040F10884DB0756D52A4B70
:100358001D4E186820273785414610904FF0904071
:1003680003F039FC4FF0904308229A613C2008F0D2
:1003780068F8B76100261E4A92F81B319E423DDAA2
:10038800DFF844A04FF090474FF0100B4FF00809EA
:10039800CAF818B07820A7F8289008F047F8AAF803
:1003A80028B07820C7F8189008F040F80136E2E73E
:1003B800881100208F7F0008B81E0020001002401E
:1003C80000ED00E00005FA050004004800080048B8
:1003D800000C0048001000480014004840420F007C
:1003E8003F190100B41E002010E000E030FA0008B8
:1003F8007C0100200020024044FA0008642008F034
:1004080020F8B2480021C8220CF079FFE36943F0D4
:100418000303E361A36943F4A123A361636943F47C
:10042800C0236361AA4B03F1DC001A7B5F7B53F89E
:10043800146B02F00701D20806EB82028900166AE3
:100448004FF00F0E8F400EFA01F126EA01011162FA
:10045800166A834247EA06011162E6D100239D4EDF
:1004680006F10C020021995401330B2BF7D1FF231D
:10047800F37533767376B376F376974BDFF88C9211
:10048800C3F8009006F11C0030220CF038FF934BA3
:1004980093481A7832775A7886F828209A78DB7841
:1004A80086F84030A9F59A73A9F59A715F798D4B52
:1004B80086F834201F70A9F59273F36400EBC70225
:1004C800894B8E68527E1A60994616F0200F1CBF21
:1004D8000123C9F800300023844A40F2DC519952C4
:1004E8000233102BF8D10AA8002116220CF007FFBE
:1004F8000E2F01D0082F02D101238DF83830C6F312
:1005080040038DF82D30C6F380138DF82F30C6F3D5
:1005180040338DF82830C6F3C0338DF82B3016F4ED
:10052800006305D0724A92F80E315F1E7B427B4110
:100538008DF82C30C6F300438DF83030D9F80030F0
:100548006B48003318BF01238DF83130694B1B68A5
:1005580093F8A631C3F380038DF83230B0F8D63063
:10056800ADF83630B0F8E230ADF83430C6F3804339
:100578008DF82E30B0F8E030ADF83A304FF47A709C
:1005880006F00101C6F3C002ADF83C00F0048DF896
:1005980029108DF82A2004D55548B0F8DC00ADF8AC
:1005A8003C00B3F5FA7F524884BF0023ADF83C30D5
:1005B80090F82431504885F85030002385F85130A0
:1005C80043709DF83830002B14BF0223002301B973
:1005D80002B10133424901EB83030027D3F8D83035
:1005E8000593B9460598C35B4FF6FF72934200F036
:1005F8002681D9B24FF0140C404E9DF82D200CFBEB
:1006080001FC1B0A66443AB17268B2F1904F03D1FB
:10061800B268102A00F00F81022B02D19DF8282021
:1006280003E0012B04D19DF82920002A00F0038162
:100638009DF8322032B19DF838201AB904390329BF
:1006480040F2E280012B63D1FF234FF0000A85F8C6
:10065800983085F89930B368F27B706885F89CA06B
:10066800C5F8A860ADF84030414602238DF8433004
:1006780085F854A0C5F858A0C5F85CA0C5F860A0D6
:10068800C5F894A085F89AA085F89BA08DF842201B
:10069800CDF810C003F09FFADDF810C0174A317B7F
:1006A80052F80C00524602F06FFF304605F0E0FEAB
:1006B800134B1449C5F8AC30134BC5F8B030C5F826
:1006C800B4A030460A1D03F0FDFEB4E0D81E002099
:1006D800340E010888110020E0140020F9000020E1
:1006E80030FA0008F40C00201C0D0020F60C002045
:1006F8007C010020180A0020D9110020300E0108C2
:1007080019800008341200201D810008B002002062
:10071800022B3ED17E498DF843305FFA89F21C20C6
:10072800424301EB020A4FF0000B01208AF80190C6
:100738008AF802B08AF80AB08854B168F27B706807
:10074800CAF80C60ADF8401041468DF84220CDF84B
:1007580010C003F040FADDF810C06E4B317B53F83F
:100768000C005A4602F010FF304605F081FE6A4B35
:10077800CAF81030694BCAF81430CAF818B03046B5
:100788000AF110010AF1140203F09CFE09F10109B3
:1007980051E0032B36D19DF82E3033B195F852A095
:1007A800304608214FF6FF721CE0BDF83A3095F844
:1007B80052A0B3F5FA7F0FD9594AB2FBF3F230468B
:1007C800BDF83C30082192B205F0CAF805EB8A035F
:1007D800C3F87C01534B0EE0534AB2FBF3F23046A8
:1007E800012192B2BDF83C3005F0BAF805EB8A0356
:1007F800C3F87C014D4BC36095F85230013385F83E
:10080800523018E0042B16D1BDF83430464A95F81A
:1008180051A092FBF3F23046BDF83630012192B276
:1008280005F09EF805EB8A03C3F8AC0195F8513042
:10083800013385F851300237162F7FF4D3AE3C4B85
:1008480095F851201A703B4B1E78172E1CD10027A3
:10085800EB6C3B44D3ED007AF5EE407AF1EE10FAFA
:1008680004D1354DAB68D9042AD426E0334A07EBC6
:10087800020E0FCB8EE80F00314B1A781037013279
:10088800C02F1A70E4D1ECE72E492D4A01EBC603BC
:10089800D3F81CC093F818E082F800E0BCF1000F10
:1008A800DFD000257545DCDA244F2B011F44634453
:1008B8000FCB013587E80F00F4E7082E20D121E09F
:1008C8001F4B19780129F8D91F4B00228A4203F1DE
:1008D8001003F2DA13ED047AF6EE007A27EE277A9F
:1008E800013203ED047A13ED057A27EE277A03ED3A
:1008F800057A13ED037A67EE277A43ED037AE5E785
:100908000E2E25D1114A137843F01003137024E0FA
:1009180024120020300E01088D360008F5800008EA
:1009280000127A003D81000840420F002D81000826
:10093800200D0020F40C00207C010020180C002061
:10094800AE20002030FA0008200C0020FC0900200E
:10095800B648037823F01003037003F003FCB4498E
:10096800DFF804B30B7843F004030B702023ADF8D1
:10097800403011238DF8423063694FF0020943F487
:10098800003341468DF843904FF09040636103F087
:1009980022F9A84BA84A1A60002007F05CFDA74B73
:1009A800A74A1A60636943F400336361E36943F457
:1009B8008003E361236B23F020032363236B43F05D
:1009C80080534FF0904643F020032363736A23F06B
:1009D800F0037362736A43F040037362736A23F42B
:1009E80070637362736A4FF4007143F480637362D7
:1009F800002703231091304641468DF84530039374
:100A080004928DF846708DF847708DF8449003F085
:100A1800A3F84FF4806110913046414603F09CF8EA
:100A2800049A116821F0010111601068854901409C
:100A3800116085491161116841F0010111609760E9
:100A4800D7609760916841F4004191601168116026
:100A5800516821F0784121F400415160116841F05A
:100A680001011160AA684FF0100A02EA090C584601
:100A780052463946CDF810C00CF041FCDDF810C0E4
:100A8800039B8DF825904FF6FF7208928DF826701B
:100A98008DF827708DF82430BCF1000F11D024A9EF
:100AA800304641F870AD03F057F84FF001090723BD
:100AB8008BF800908BF801708BF803308BF802905C
:100AC80000E0E146E36A23F4F873E362E36A43F47F
:100AD800D873E362636943F0805343F002036361B0
:100AE8005A4C204602F02EFE0023129314931A93B8
:100AF80015934FF4807316934FF48063544A1793F9
:100B08002023204610921893524A11924FF4005312
:100B180041461993ADF84C9002F0F6FD236843F076
:100B2800010323604C4CA36823F04053A360A368DF
:100B380043F08053A3600A2007F083FCA36823F0E6
:100B48008043A360A368A360A36843F00043A36045
:100B5800A268414B002A07DAFAE77B1E092B8CBFF3
:100B680000230123FFF7F1BB9A683C4922F0405269
:100B78009A609A6842F000529A608868384A02403F
:100B880042F468328A60D968364A0A4042F4005210
:100B9800DA601A6B09F1FF3922F00F0249EA020202
:100BA8001A63002001230BEB00029178002900F062
:100BB8008C805C1C042BD6781BF80010264AE4B203
:100BC8000FD81BB203EB4303176B5B004FF01F0EEC
:100BD8000EFA03FE27EA0E0701FA03F33B431363F9
:100BE80050E0092B10D84FF0060E053B0EFB03F31F
:100BF800576B4FF01F0E0EFA03FE27EA0E0701FA95
:100C080003F33B4353633DE00E2B4FF006072DD80B
:100C18000A3B5F43D2F838E01F23BB402EEA0303A8
:100C280001FA07F71F4397632CE000BFFC09002077
:100C3800B81E0020B0200020757F0008E4140020B2
:100C480000580040FFE0CF007A25E0000804024089
:100C580040010050C009002000010050000300506E
:100C6800E010FCFF07C0FFFDB00900200F3B7B43ED
:100C7800D2F83CE01F279F402EEA070701FA03F34A
:100C88003B43D3630929A44B0FD90A399A699F6951
:100C980001EB410107228A4027EA02029A619A6918
:100CA80006FA01F11143996110E001395A695F6947
:100CB80001EB410138228A4027EA02025A615A6947
:100CC80003318E4016435E6100E01C460430102854
:100CD80001D0234667E7904B9A6842F001029A6078
:100CE80019460A688C4BD207FBD5DA6822F0020253
:100CF800DA60DA6842F00202DA60DA6842F0010289
:100D0800DA609A6842F004029A60B5F8E820834BEA
:100D1800002A40F00D84B3F9EA1031B9B3F9EC3088
:100D2800D3F1010338BF002300E0134613F0010399
:100D38007B4C6CD17B49DFED7C7A0B7012B208EEEC
:100D4800902A764B754AB3F9EC30B2F9EA20F8EEFE
:100D5800E88A08EE102A0AEE903A68EEA78AB8EEFA
:100D6800C88AF8EEEAAAB0EE680A28EE278A6AEE80
:100D7800A7AA0CF0F3FCB0EE409AB0EE680A0CF0AB
:100D880073FDF0EE409AB0EE480A0CF0E7FCF0EE86
:100D9800408AB0EE480A0CF067FDB0EE408AB0EE2B
:100DA8006A0A0CF0DBFCB0EE40AAB0EE6A0A0CF05E
:100DB8005BFD20EE097A69EE8A7AF0EE475AE7EE93
:100DC800885A2AEE096A69EE806AC4ED765AF0EE0E
:100DD800465AE6EEC85AE7EE087AE6EE486A2AEE80
:100DE80028AA28EEC00A69EEE89A68EE898A84ED96
:100DF80073AA84ED740A84ED758AC4ED775AC4ED3C
:100E0800789AC4ED796AC4ED7A7AC4ED7B8A474B47
:100E1800474F1B68B5F8F060B3F8523005930023CC
:100E280095F8EFA03B70C4F8F03108F0A5FCB8467F
:100E3800002800F080833F493F4B0B603F4B4B60DD
:100E4800BB2E3F4BCB60374B01D901220EE0612E00
:100E580001D902220AE0292E01D9032206E0132E25
:100E680001D9042202E0092E0ED905225A70042362
:100E7800344E88F80030344B02221A70326842F03F
:100E880001023260D14611E00622EFE74FF0010A75
:100E98000AFA09F140F2B23B01EA0B0BBBF1000F71
:100EA8000BD0B9F1010F78D94FF00009274B002179
:100EB800B9F1090F1970F7D8E8E711F04D0FF0D024
:100EC800174FC4F8F0B108F057FC0028E9D0062005
:100ED800014610AA05F0F0F99DF843209DF8451049
:100EE80002EA0A0201EA0A0102FA0AF242EA810265
:100EF8009DF8411001EA0A010A4329D0524502D15E
:100F080087F8F4B133E0022A02D187F8F4A12EE081
:100F1800052007F0CFFA2AE0000100507C010020EC
:100F2800881100201400002035FA8E3C180A002091
:100F38007E0A0020680A002091770008018D0008C9
:100F480090C1793D080A0020F40000209C20002070
:100F58000C20514608AA05F0AFF99DF8203013F08F
:100F68000F03D5D0043B18BF012387F8F431B24BE7
:100F7800B24A1A60B24A5A6094F8F421B148002A79
:100F880014BF6E226F221A72AF4B04221A70032309
:100F98004370336843F00203336033689B0702D51C
:100FA800A54B1B689847A9490B689847A84A00238E
:100FB800137095F8E4300BB188F8003095F8E530F7
:100FC8000BB1A1490B7095F8E63003B11370336883
:100FD8001F071CD5059B0FFA83FB64239BFBF3F2C9
:100FE80003FB12BB0FFA8BFB07EE10BAF8EEC76AC9
:100FF80007EE102AF8EEC77A9FED967AE6EE877A22
:10100800B2EE047A67EE877AC4ED7E7A02E00023B6
:10101800C4F8F831904B1A7842F002021A708F4ADD
:1010280020211185102191610A2799468B4EB38A98
:101038009BB283F02003B382B38A9BB283F0100380
:10104800B382192007F0FDF9012007F004FA1920EE
:1010580007F0F7F9013F002007F0FDF917F0FF0747
:10106800E4D11023B3612023B3617D4B9FED7D8ACA
:101078001B687D4E1B7B00EE103AB8EEC00A20EECE
:10108800080A0CF06BFB308807EE900AF8EEE77A56
:1010980027EE800A0CF09EFB36889FED747A744B1D
:1010A80007EE906AF8EEE77A1880C7EE277A674B62
:1010B800704EFF21162230469FED6F7AC7EE877A71
:1010C800C4ED7F7AD3ED037A6C4B27EE888ADFED87
:1010D8006C7A28EE278A83ED008A0CF010F9694AA9
:1010E800694B12683770012112F0020F19703046EF
:1010F80004D07170032119700221B170560704D50C
:1011080019784E1C1E700326465412F00A0F0CD094
:101118001A7804218154511CC9B205264654D11CA1
:101128000232D2B2197006218154AA68910604D5F8
:1011380019784E1C1E70072646546979082901D073
:101148000E2904D119784E1C1E700B2646541978A6
:101158000C274E1CF6B2475457071E7005D54A4F48
:1011680002313970434910278F551978122747548F
:1011780095F858714E1CF6B2002F0CBF002702F0EC
:1011880001071E702FB1404F0231397039491327BA
:101198008F5519784E1CF6B21E7092054FF0140345
:1011A800435405D5384B02311970324B15229A55E4
:1011B8000021982235480CF0A2F8012007F0A8F881
:1011C8000026002866D0012E64D84FF04C0CDFF8BA
:1011D800BCA00CFB06FB0BEB0A0898F84A7017B189
:1011E8000136F6B2EDE70179294B90F90020CDF8E8
:1011F80010C003EB810303218DE882001046D3F869
:10120800E83001213A4606F06DFDDDF810C00346CE
:1012180068B140463946624603930CF070F8039B68
:101228004BF80A3001231E4488F84A30F6B20120F0
:1012380007F052F8C5E700BFD40A0020754300083C
:101248003F8D0008F40000209C200020680A002040
:10125800AF2000208988883CB81E00200004004880
:10126800180B002035FA8E3C020000200AE81C41C9
:101278003C0B0020ED14002000401C46140B0020FD
:10128800BD378635080A0020EC1400203C140020E5
:1012980030FA000803F08EFFA94BAA4A1A60B5F885
:1012A8001E21002390B2A84958520233242BFAD1A8
:1012B800AB681B0740F1D280A44B93F81A31062B78
:1012C80000F2C680DFE803F004042F586E89890015
:1012D8009F49A04A0A60012B9F48A04907D10326CD
:1012E8000670072084F8003208700C2307E00223F8
:1012F800037003230B70002384F800320723137054
:101308004020974BC4F8043207F002F8002800F098
:101318009F8001234FF0000E90F90000914A8DE85C
:10132800084040213BE007EE102ADFED8F7AF8EE07
:10133800C76A9FED8E7AE6EE877A0023FCEEE77A9D
:101348008B4A17EE900A98500433482BF8D1894BF2
:10135800C4F804327F4B122240201A7006F0D8FFDE
:10136800002875D00123072790F90000824A8DE8EC
:1013780088004021814B65E0814BC4F80432754BED
:10138800102240201A7006F0C3FF002860D0012305
:10139800002690F900007B4A8DE8480040214FF470
:1013A800E1334FE0784BC4F804326A4B08224020FE
:1013B8001A7006F0ADFF00284AD00121002390F9E9
:1013C8000000724A8DE80A004FF4E133402106F02C
:1013D80089FC6F4BC3F8080236E05E496D480C2261
:1013E800062B0A7010D00023037084F80C3284F89E
:1013F8000D321B2384F80E32052384F80F2284F85B
:1014080010324FF4E1360DE00021017084F80C121F
:1014180084F80D12604E84F80F22212184F80E12F0
:1014280084F810325D4BC4F80432402006F070FF97
:1014380070B10122002390F900008DE80C00584A91
:101448004021334606F04EFC003018BF012028B971
:10145800082007F0E2FA0023C4F80432AA683D4BDA
:1014680012F4804F04D0082119704E49C4F80412B0
:1014780042F20101114002F0010002F4005641B1AC
:10148800494AC4F804220EB108221A7008B10C2285
:101498001A701A78043A5A7006F0AEFF434B186077
:1014A8006B79052B03D1424B4FF4C8721A8041491E
:1014B800414B4FF47A721A800B7843F008030B7093
:1014C8003E4B1A7822F002021A70204A916840F6C0
:1014D80002030B400BB33A4B02F583721A600824DF
:1014E8001D4604F0B9F9282006F0ABFF013CF8D1FD
:1014F8002B68344AD87811785A789B78B1FBF2F285
:1015080001323149082A28BF08220A7092B2504392
:101518002E495A432E4B08801A8099F8003063F000
:101528007F0389F8003025B0BDEC068BBDE8F08F4D
:101538000023FFF7FBBB032006F0BCFF6AE500BFF2
:10154800180800208E020020860900207C01002057
:1015580020080020031500201D0800202408002072
:1015680069320008BD3300080000B0C4CDCCCC3FC0
:101578006C080020B5320008C9340008A0860100B4
:10158800A5320008553400089132000809340008D3
:10159800881100206C09002090D003005132000807
:1015A800F1320008E5320008597F0008800B00205E
:1015B800120A0020FC090020AA200020AD200020EB
:1015C800E0130020D9130020F8000020DC130020CD
:1015D800DA130020CF4B2DE9F04FB3F90600CE4BBC
:1015E8001E682DED028B3389984291B010DBB0F55F
:1015F800FA6FF27908DAC11A4A43A3F5FA6392FB43
:10160800F3F36433049305E0C2F16402049201E049
:1016180064210491C14CB4F81E310693C04B1F6875
:1016280094F9EE305B429BB2002107933D460A468F
:10163800B84BDDF818C0CB5E0593CCEB030303F27F
:10164800F31C40F2E63EF44503D8002BB8BF5B42DA
:1016580001E04FF4FA73022ADFF8D08236D097F807
:101668005DE1BEF1000F04D07345CCBFCEEB0303A0
:1016780000234FF0640E93FBFEFCDFF8ACA26FF082
:10168800630B3AF81C900BFB0C3B0CF1010C3AF97C
:101698001CA00FFA89FCCCEB0A0C0CFB0BFC9CFB86
:1016A800FEFCCC4428F801C006EB020C9CF804C0F0
:1016B80003FB0CFC9B4B9CFBF3F37344DDF810C05D
:1016C8009BB20CFB03F393FBFEFE1BE097F85EE175
:1016D800BEF1000F04D07345CCBFCEEB030300234B
:1016E800DDF81CC003FB0CFEA8F804E096F806E041
:1016F800002BB8BF5B4203FB0EFE8A4B9EFBF3FE3A
:101708000EF1640EBB18DFF844C293F8018064231D
:101718000EFB08F898FBF3F802F80C8095F80B908C
:101728000CF103080EFB09F999FBF3F902F808908C
:1017380095F815800CF1060C0EFB08FE9EFBF3F3E2
:1017480002F80C30DDF814E0069BDFF8E0819E45D6
:1017580004DA38F801305B4228F801300132032AF4
:1017680001F1020105F101057FF462AF6B4FB7F893
:101778002031984205DBB0F5FA6FA8BF4FF4FA6044
:1017880000E01846C01A4FF47A725043C3F5FA6362
:10179800B0FBF3F34FF0640E634D644E93FBFEF21F
:1017A80005EB42016FF0630000FB023305EB4202D8
:1017B800098BB2F91A000AB2821A534393FBFEFE50
:1017C8005B4B1A88714412F0400FA8F8061099462E
:1017D80034D0584BDFED587A1A882B8ED31A1BB2A7
:1017E80008EE903AF8EEE88A68EEA78AB0EE680A42
:1017F8000BF0B4FFB0EE408AB0EE680A0CF034F893
:10180800B6F902C0B6F900E006EE90CA07EE90EA13
:10181800F8EEE66AF8EEE77A20EE667AA7EE887ABE
:1018280067EE807ABDEEC77AE6EE887A17EE103A50
:10183800FDEEE77A338017EE903A7380BA683F4E30
:1018480040F602031340002B00F0BC803C4BDFF84D
:10185800D8B0B3F800A06B6B9A4495F83830C5F847
:1018680034A00133DBB20621B3FBF1F085F8383040
:1018780001FB103313F0FF0F40F0A480910711D53E
:1018880003F0EAFF9BF83930BBF83A209A4206D2B7
:10189800BBF83C209A4234BF0023012300E0022316
:1018A80085F83E30B9680A0540F18A80B8F906B073
:1018B800D5F84080194B98F80820B3F8DE001A4B89
:1018C800012AABF57A7B03D065D3022A40D064E0C5
:1018D8001C4A596C507B1C4A32F81000082291FBB4
:1018E800F2FE80B2CEEB0101014491FBF2F2A3F8C3
:1018F8004800596492B240F6E441B8F806004A43F9
:10190800C0EB12324FF47A714A43B8F9041092FBD3
:10191800F1F241E086090020500A00207C010020F5
:10192800180A00200CFEFFFFA0130020FE0B002069
:101938005E0A00200C0A002035FA8E3CAD200020FB
:101948007E0B0020B0090020C0090020AE13002043
:10195800B8F80620DA6433785B071ED50391029243
:1019680002F0BEFC0399029A20B911F0100F18BFBB
:101978004FF0000B0BFB0BF1322391FBF3F39B446D
:10198800B8F9043003FB0BFB4FF47A739BFBF3FBB2
:101998005A44EA6401E00022DA64EB6CD5E91401E8
:1019A8004FF47A7203FB0AF393FBF2F3C01841EB8E
:1019B800E371C5E914019C4A002308F081FBA8657E
:1019C80000236B6399499A4A0B6895F83E8013F493
:1019D800805318BF012382F85C30BB688A46D9055A
:1019E8002CD5377807F00407FFB206F06BFE10B16C
:1019F800381C18BF012010F0010FDFF870B211D0A9
:101A0800012385F85D308B4BBBF900101A681078FC
:101A18005378034403EB8303994203DD844B02228A
:101A280083F85D2006F04EFE18B117B9022385F839
:101A38005D30BBF900300BB985F85D3095F85D2055
:101A48007B4B022A02D14C204E211EE0012A06D1EE
:101A580053204D214C220B4602F0E2FD2AE093F878
:101A68005C20012A04D15320014602464D23F3E7A6
:101A7800B8F1020F04D1532001464D224423EBE76D
:101A8800B8F1010F03D153204D210A46F6E7B9F802
:101A98000020120603D553204D210246DBE7664A93
:101AA800107818B1192002F08EFD03E083F85E006B
:101AB80006F0D1FC3278570703D5604B10221A85FF
:101AC80057E0DAF80030D80703D45D4942F0010244
:101AD8000A705C4A12881AB15B4A1268910705D4E9
:101AE8005A4A1288003218BF012200E001224AB186
:101AF800524A918A89B281F010019182327822F09B
:101B080001023270524A1278120703D4327822F056
:101B180001023270DB0203D5337823F001033370FE
:101B280033784C4A13F0010F05D000232B66434B42
:101B3800102199610BE0296E136841B93C4903F5FE
:101B4800F42303F590730B663C4B102119852B6E1B
:101B5800126873B1D21A002A0BDB384A918A89B20B
:101B680081F01001918203F5F423314A03F5907353
:101B78001366394B1A789946002A00F093806B6EE9
:101B8800002B00F02087686E294C03685B68984733
:101B9800002800F01887606E03689B68984709283A
:101BA80001D03F2871D14FF00008AE6E2B4F44464C
:101BB8002EB12B48396832460BF0EAFB10B9B8460B
:101BC80004B93C46274B0C379F42F1D3D4B1AB6ED6
:101BD80022681748D75CD8F80020D15CB94211D1E7
:101BE8005A1C51B92D2B08D8826603440244202779
:101BF80083F86C7082F86C1004E02B44AA6683F8B2
:101C08006C70E4E7AB6E0BB1444535D0164806F06E
:101C180055FB44452CD854F80C0B06F04FFB092013
:101C280006F044FBF5E700BF407E05008009002070
:101C3800A0130020E0090020110A00200004004839
:101C4800AD200020120A0020080A0020AA20002047
:101C5800FC090020A0200020AC2000202000010862
:101C68000C140020040101080C0F01086E09002063
:101C7800B74806F023FB0026AB6E9E4283D2B54BD5
:101C8800985D06F013FB0136F6E7A36E002B41F0D2
:101C9800DF81042841F0D68104F16C0002F004FBD6
:101CA80000F091BEAC4D95F84A30012B40F0868685
:101CB800AA4E2B68C6F83451C6F838313746D7F8DB
:101CC8003801DFF8988203685B689847002800F0BD
:101CD8006486D8F8380103689B689847D8F8343187
:101CE80093F848201AB9242839D1012234E0012A6E
:101CF80004D14D280CBF022200222DE0022A04D173
:101D08003C280CBF0322002226E0032A09D14028E0
:101D18004FF0000220D81A71DA71587198710422B4
:101D28001AE0042A06D19A7983F84900504098713C
:101D3800052211E0052A28D159791A799142997911
:101D480006D941409971511C1971134418721CE04D
:101D580081420CBF0622002283F8482015E0804B00
:101D68001B785B0711D42328D8F8383140F0338624
:101D78007C4A7D48C8F8643001211170C8F83C31AC
:101D880006F09CFA724806F099FAD7F83421DFF881
:101D9800CC8192F84830062B91D192F84930452BE6
:101DA80000F0B88500F2B8802A2B00F079854AD86F
:101DB800052B00F016821CD8022B00F0EE810DD8FE
:101DC800012B40F01686032006F038FA002006F0B2
:101DD80005FA012006F002FA0820EBE1032B00F0D7
:101DE800EC81042B40F00586062006F027FA002631
:101DF800EEE1242B00F02C850BD8202B00F0BF82BD
:101E0800222B40F0F685A02006F018FA002600F0F4
:101E18001BBC262B00F02285282B40F0EA85534E68
:101E2800072006F00BFAB6F90A0106F00AFAB6F925
:101E38000C0106F006FA96F80E0106F0CFF9B6F98D
:101E4800100100F048BD382B00F017852BD8322B35
:101E580000F02C8519D82C2B40F0CB85434E082058
:101E680006F0ECF996F81A0106F0B8F9B6F922016D
:101E780006F0E7F9B6F91E0106F0E3F9B6F9200114
:101E880006F0DFF996F81B0194E1342B00F0F88393
:101E9800362B40F0AE85354E1C2006F0CFF906F102
:101EA800200700F01BBD3D2B00F0D5820CD83A2B43
:101EB80000F0A1823B2B40F09C85012006F0BEF982
:101EC8002B4B1B68187875E1402B00F0F684422BE9
:101ED80040F08F85254E102006F0B0F9707906F095
:101EE8007DF9B06806F043F996F81A0106F076F91C
:101EF800B6F9E80006F0A5F9B6F9EA0006F0A1F986
:101F0800B6F9EC0006F09DF9B6F90A0106F099F960
:101F1800B6F90C0100F0DFBC6E2B00F0708200F205
:101F28000081662B00F0A08100F2DF80492B00F0D1
:101F38009D821FD8462B40F05C850D2006F07EF967
:101F4800002006F04BF9002006F011F900F0EDBC76
:101F5800110F01080C1400203C140020A0130020CD
:101F6800AD200020AC200020410F01087C0100209A
:101F7800180A0020642B00F05081652B40F0398549
:101F88000B2006F05BF9CE4BB3F9000006F059F9C7
:101F9800D6F84411CB4ACC4B91420CBFB3F8480158
:101FA800B3F84A0180B200B206F04BF9C74B1B6880
:101FB800C3F3C000C3F38002800040EA4200C3F3C9
:101FC80040021043C3F3401240EAC20003F010037A
:101FD800184306F036F9BE4B1A8812F0010F0CBFF1
:101FE8000021022112F0020F0CBF0023042312F07B
:101FF800040F0CBF00261026059312F0400FB54BB6
:1020080004910CBF4FF0000C4FF0200C12F0100F91
:102018001B6806960CBF4FF0000E4FF4007E12F0BE
:10202800200F0CBF00214FF4806112F4807F0CBF99
:1020380000264FF40066099103F4802103F48037E9
:1020480003F4002002F0080BCDF81CC003F4807ADA
:1020580003F4804CCDF820E00A9603F4004E03F414
:10206800003603F4805903F400580B9103F48011EF
:1020780003F0C00343EA0B0343EA0A0343EA0903F4
:1020880043EA080343EA0C0343EA0E033B433343A2
:102098000B9EDDF810C0DDF814E0334303430B4317
:1020A8008D49079E0F780699C7F380073B4343EA9B
:1020B8000C0343EA0E030B43DDF820C0DDF824E0EF
:1020C8000A99334343EA0C0312F4007F43EA0E03F0
:1020D80043EA01030CBF00224FF400121A437A4B63
:1020E800002093F84C610346ABE0692B00F05F8158
:1020F8000AD8672B00F01381682B40F07A841020EF
:1021080006F09CF800264AE16C2B00F064816D2BE8
:1021180040F06F84062006F091F8002006F027F8BA
:1021280079E3752B00F06C8215D8722B00F02483AC
:1021380007D86F2B00F0A181702B00F0C68100F04A
:1021480058BC732B00F05C83742B40F052844FF022
:1021580000090126C5E2A02B00F06C830AD8772B72
:1021680000F0EE82782B40F04484382006F066F8C0
:102178000027E0E0F02B00F05083FE2B40F039847C
:10218800082006F05BF8002006F05BF8002006F057
:1021980058F8002006F055F83DE3042006F04EF804
:1021A800432006F01BF84C2006F018F8462006F0ED
:1021B80015F84C2006F012F8E4E3032006F03EF888
:1021C800012006F00BF8092006F008F80020F1E7D6
:1021D800424B1B68985D013606F000F8042EF7D1D3
:1021E80019E31A2006F02AF800263D4B985D0136BF
:1021F80005F0F4FF0B2EF8D100263A4B985D013616
:1022080005F0ECFF082EF8D10026374B985D013613
:1022180005F0E4FF072EF8D1B4E30720334E06F0AB
:102228000DF8E72005F0DAFF707905F0D7FF0020F8
:1022380005F0D4FF96F83231002B0CBF04200C2097
:1022480077E3B3420AD22A495F5C012101FA07F712
:1022580017421CBF994008430133F2E705F087FF96
:10226800224B93F87806A5E7122005F0E7FF214BEB
:10227800214E1B88B3F5806F44D90027F05F0823EF
:1022880090FBF3F0023705F0DCFF062FF6D11B4E6A
:10229800B6F9000005F0D5FFB6F9020005F0D1FF48
:1022A800B6F90400164E05F0CCFFB6F9000005F0AB
:1022B800C8FFB6F9020005F0C4FFB6F904000AE346
:1022C8007E0B002000540040A0130020080A0020C4
:1022D8005E0A002080090020AD20002000010020B7
:1022E800790F0108850F01088E0F01087C01002075
:1022F800ED14002002000020280B0020A42000205C
:1023080080110020B6F9000005F09BFFB6F9020025
:1023180005F097FFB6F9040005F093FFB7E7102022
:1023280005F08CFF0026BC4B985D013605F056FF82
:10233800102EF8D126E3DFF8E48207F12C06D8F84E
:102348000030F60033440137B3F9060005F079FF91
:10235800D8F800303344B3F9080005F072FFD8F814
:1023680000303344B3F90A0005F06BFFD8F80030A9
:102378001E44307B05F032FF082FDCD102E3082031
:1023880005F05CFF0026A54B1B6803EBC60301366E
:1023980093F86D0105F022FF082EF4D1F2E2A04B6C
:1023A800985D013605F01AFF102EF8D1EAE298F888
:1023B8006301400000F0FE0005F040FF002697F89A
:1023C80063319E4280F0DE82964B33F9160005F0A9
:1023D80038FF0136F3E7944E062005F02FFFB6F9D3
:1023E800000005F02EFFB6F9020005F02AFF8F4B1A
:1023F800B3F900006FE2042005F020FF98E20720FF
:1024080005F01CFF98F8390005F0E8FED8F85800E8
:102418004FF6FF76B042A8BF304620EAE07000B21F
:1024280005F00FFF824BB3F9000005F00AFF814B5E
:1024380093F80F314BB1D8F84C300A205843B042CA
:10244800A8BF304620EAE07003E0D8F84C0000F35B
:102458000F0000B23FE2774E022005F0EFFE96F83B
:10246800270105F0BBFE96F82601A3E6022005F039
:10247800E5FE704BB3F90C002DE26F4E0A2005F013
:10248800DDFE3368187805F0A9FE3368587805F042
:10249800A5FE0027B046D8F80030674E3B44013708
:1024A800187905F09BFE032FF5D13368D87905F02C
:1024B80095FE3368987805F091FE3368D87805F072
:1024C8008DFE3368B3F9080005E2544F1E2005F06D
:1024D800B5FE3B681B78022B4FF000067DD13B68A8
:1024E80003EB860393ED080AB2EE048A20EE080A8D
:1024F8000BF070F9FA28A8BFFA2020EAE070C0B201
:1025080005F06CFE3B68DFED4D7A03EB860393ED37
:102518000B0A20EE270A0BF05DF9FA28A8BFFA206B
:1025280020EAE070C0B205F059FE3B68DFED447A5E
:1025380003EB860393ED0E0A20EE270A0BF04AF907
:102548006428A8BF642020EAE070C0B2013605F014
:1025580045FE032EC3D1072E3B682CD193ED110AFB
:1025680020EE080A0BF036F9FA28A8BFFA2020EA6C
:10257800E070C0B205F032FE3B6893ED120A20EE1F
:10258800080A0BF027F9FA28A8BFFA2020EAE07019
:10259800C0B205F023FE3B6893F84C3000EE103AC9
:1025A800B8EE400A0BF016F9FA28A8BFFA2020EA7C
:1025B800E070C0B20BE03344587805F00FFE3B687A
:1025C8003344D87A05F00AFE3B683344587D013617
:1025D80005F004FE0A2EBED1D4E13B683344587896
:1025E80005F0FCFD3B683344D87A05F0F7FD3B68FD
:1025F80033440136587D05F0F1FD0A2EEDD1C1E1D5
:102608002F2005F01BFE0F4E16F8010F002800F0D2
:10261800B98105F0E3FDF7E7F60C0020180A002061
:10262800D80C002086090020480B00200C0A002046
:10263800840900207C010020500A00200000C842C4
:1026480000007A4403010108BB4B1B6806F11C0219
:1026580003EB82035F1DB94A5B790C2101FB03235D
:102668000136187A05F0BAFD787805F0B7FDB87824
:1026780005F0B4FDF87805F0B1FD282EE4D181E12C
:10268800482005F0DBFD0027AB4B4FF006081B6820
:1026980008FB07F808F588789844013798F80A0085
:1026A80005F09CFD98F8050005F098FD98F80600DF
:1026B80005F094FD98F8070005F090FD98F80800DB
:1026C80005F08CFD98F8090005F088FD0C2FDBD18A
:1026D80058E1002E00F056815FFA89F005F0AEFD52
:1026E80000264FF0000897F84C319845F1DA944BE2
:1026F80018F803100023914A03EB020B9A5C8A42F4
:1027080004D00C33B3F58A7FF5D116E0DBF804006A
:102718000AF036FE03460EB9B24601E081440CE0E9
:102728009A450ADADBF8042012F80A0003930AF142
:10273800010A05F053FD039BF2E708F10108D2E70F
:1027480096F84C0105F07AFD002697F84C319E4228
:1027580080F018817A4BF05C0023784A99189A5CCB
:10276800824204D00C33B3F58A7FF6D102E0087AAE
:1027780005F034FD0136E8E7162005F05FFDB4F9F1
:102788001E016D4E05F05DFDB4F9D00005F059FD50
:10279800B4F9D20005F055FDB4F9D40005F051FDA7
:1027A8003368B3F9AA0105F04CFD002005F016FDC9
:1027B800002005F013FD002005F010FD94F80F012E
:1027C80005F00CFD94F81C0105F008FD002005F04B
:1027D80005FD3368B3F952000A2390FBF3F005F0C6
:1027E80030FD94F8060105F0F9FC94F8080105F0AD
:1027F800F5FC94F8070105F0F1FC94F80901D9E417
:10280800082005F01BFD0126F0B2013605F0E6FCB4
:10281800092EF9D1B6E000205DE0474E042005F00E
:102828000DFD3368B3F9560005F00BFD3368B3F9B5
:10283800540050E00C2005F001FD424B186805F0EB
:1028480096FC414B186805F092FC404B186870E004
:10285800042005F0F3FC3E4B98686AE03C4E0620E5
:1028680005F0ECFCB6F9E80005F0EBFCB6F9EA0077
:1028780005F0E7FCB6F9EC002DE0354E042005F034
:10288800DDFC96F8060105F0A9FC96F8080105F0AC
:10289800A5FC96F8070105F0A1FC96F8090189E462
:1028A800012005F0CBFC2A4B587983E4012005F080
:1028B800C5FC274B93F81C017CE4082005F0BEFCFE
:1028C8000026234B3344013693F8120105F086FCA9
:1028D800082EF6D156E005F0B4FC53E096F8360120
:1028E80005F07CFCB6F9380105F0ABFC96F83A0126
:1028F80005F074FC96F83B0105F070FC96F83D0174
:1029080005F06CFC083696F8340105F067FCBE4209
:10291800E4D137E0132005F091FC00260D4B985DBB
:10292800013605F05BFC0B2EF8D1002005F01FFCEA
:10293800002005F01CFC25E0180A002034010108DD
:10294800ED140020ACF7FF1FB0F7FF1FB4F7FF1F0F
:102958007C010020790F010840F2D481D42B00F0CB
:10296800278300F2EF82D22B40F0E682BB4B1B7824
:1029780003F0040303F0FF06002B00F0C4820020DC
:1029880005F05CFCB64ED6F83431987905F026FC93
:10299800D6F83431002283F84820B14B93F86831D7
:1029A80063B1286805F0BEFD18B9322005F049FD6D
:1029B800F7E701F041FCAB4BAB4ADA60AB494C3569
:1029C8008D427FF470A9AA4B9B68002B00F0AE8360
:1029D800A8489847AAE3D8F840311B7883427FF487
:1029E800D4A9A54BA54A1A609E4B9F4ADA60FFF707
:1029F800CCB9432B27D105F045FCA14E0023B36089
:102A0800707105F049FC074605F046FC07EB0040ED
:102A180006F00CF805F036FC86F81A0105F03CFCC7
:102A2800A6F8E80005F038FCA6F8EA0005F034FC42
:102A3800A6F8EC0005F030FCA6F80A0105F02CFC1D
:102A4800A6F80C019BE700F221812D2B15D105F08A
:102A580019FC8B4E86F81A0105F01EFCA6F8220117
:102A680005F01AFCA6F81E0105F016FCA6F82001D0
:102A780005F008FC86F81B0181E76ED8252B0CD1E0
:102A88007F4B00229A6005F007FC064605F004FC1F
:102A980006EB004005F0CAFF71E732D8212B00F0A1
:102AA800C182232B40F0CB8205F0ECFB272802D90A
:102AB80002F08EFB63E7734F3B6800F11C0803EBE1
:102AC800880805F0DFFB704B08F1050603F58A72EC
:102AD800197A814203D00C339342F9D1E8E71B7885
:102AE80088F8053005F0CEFB707005F0CBFBB070B0
:102AF80005F0C8FBF070396801F1750003F0E2FADF
:102B08003DE7292B11D105F0C7FB5D4EA6F80A0158
:102B180005F0C2FBA6F80C0105F0B4FB86F80E011F
:102B280005F0BAFBA6F8100129E72B2B04D105F014
:102B3800A9FB534B587122E7272B40F0808205F000
:102B4800ABFB4F4EA6F8E80005F0A6FBA6F8EA0096
:102B580005F0A2FBA6F8EC0011E7392B11D105F01E
:102B680091FB474E86F8060105F08CFB86F80801B4
:102B780005F088FB86F8070105F084FB86F8090153
:102B8800FDE64FD8352B1FD105F07CFB0B288FD8DD
:102B98003C4B062778431F6800F58870074405F00A
:102BA80071FB032884D8B87205F06CFB787105F0C6
:102BB80069FBB87105F066FBF87105F063FB3872C4
:102BC80005F060FB7872DAE6372B22D153791C2B9B
:102BD8007FF46EAF2A4E06F1200705F053FB86F806
:102BE800360105F059FBA6F8380105F04BFB86F8CD
:102BF8003A0105F047FB86F83B0105F043FB86F8F0
:102C08003D0105F03FFB083686F83401BE42E4D1A9
:102C1800B5E6332B40F0138205F034FB184B83F8EC
:102C28001C01ACE63E2B09D105F02CFB144E86F8AE
:102C3800270105F027FB86F82601A0E6412B00F0C6
:102C4800E6813C2B40F0FB810E4E376805F01AFBFD
:102C580038703368187805F0F1FC90E6AD20002054
:102C6800A013002000ED00E00400FA05D4140020B1
:102C7800680A00200A150020FC9F0020EFBEADDE88
:102C88007C010020180A002034010108CF2B7FF4B2
:102C980063AE05F001FB6FF4AF67C3199BB2B94E81
:102CA800B94FC62B98BFA6F81E0105F0F5FAA6F88D
:102CB800D00005F0F1FAA6F8D20005F0EDFAD7F841
:102CC8000080A6F8D40005F0E7FAA8F8AA0105F0F4
:102CD800D9FA05F0D7FA05F0D5FA05F0D3FA86F84F
:102CE8000F0105F0CFFA86F81C0105F0CBFA3F6812
:102CF80005F0D2FA00EB80004000A7F8520005F07A
:102D0800C1FA2FE7CA2B40F08B809F4F3B681B7896
:102D1800022B4FF000066AD1D7F8008005F0B2FA0E
:102D280007EE100AF8EE477AB2EE048AC7EE887A00
:102D380008EB8603D7F80080C3ED087A05F0A2FAFD
:102D480007EE900AB8EE677ADFED907AC7EE277A39
:102D580008EB8603D7F80080C3ED0B7A05F092FAEA
:102D680007EE900AB8EE677ADFED897AC7EE277A20
:102D780008EB86030136032EC3ED0E7ACCD1072E5D
:102D8800D7F800801CD105F07DFA07EE100AF8EE9E
:102D9800477AC7EE887AC8ED117AD7F8008005F02F
:102DA80071FA07EE100AF8EE477AC7EE887AC8ED8E
:102DB800127AD7F8008005F065FA88F84C0012E01E
:102DC80005F060FA08EB06035870D7F8008005F0A4
:102DD80059FA08EB0603D7F80080D87205F052FAC2
:102DE80008EB0603587501360A2EC8D1C7E5D7F88F
:102DF800008005F047FA08EB06035870D7F8008002
:102E080005F040FA08EB0603D7F80080D87205F001
:102E180039FA08EB060301360A2E5875E7D1AEE5F4
:102E28001AD84A2B04D105F037FA564B9881A6E5F3
:102E3800C82B1FD157797F08122F3FF639AE0026CD
:102E4800BE4206D205F028FA524B23F81600013686
:102E5800F6E70122504B0BE0CD2B12D01BD94F4B7C
:102E68001B7859073FF58BAD4D4B1A7842F0040299
:102E78001A7084E5442B40F0E280012386F868311B
:102E88007DE5464B1B7858073FF579AD454B4FF428
:102E9800C8721A8073E5CC2B40F0D18053790A2B85
:102EA8007FF406AE404E376805F0ECF938703768A5
:102EB80005F0E8F9787005F0E5F933686428A8BFEB
:102EC8006420187105F0DEF933686428A8BF64200F
:102ED800587105F0D7F93368FF28A8BFFF2098710B
:102EE80005F0D0F93768642828BF6420F87105F028
:102EF800C9F9B870376805F0C5F9F870366805F093
:102F0800CBF930813BE505F0BDF91E4B022883F86B
:102F180078060CD983F8786609E0D02B40F08F80CA
:102F28001E4B1B785E073FF52AAD02F061FE01F0EB
:102F380083F803F085FB22E5EFD905F0ADF9A6F893
:102F480066011CE5EF2B0BD10F4E376805F0A4F98D
:102F5800A7F85600366805F09FF9A6F854000EE564
:102F6800FA2B04D10D4B1B785A07E0D567E0D62B16
:102F780065D1002605F090F90C4B98530236102EB7
:102F8800F8D1FCE47C010020180A00200000C842A7
:102F980000007A448609002074090020AD20002032
:102FA800FC090020120A0020500A0020280D0020E9
:102FB8000027614E07F12C08D6F800A04FEAC8098F
:102FC80005F06AF90AEB0903D6F800A0D88005F0E5
:102FD80063F90AEB0903188105F05EF9072802D89E
:102FE80033684B445873A0F57A739BB2B3F57A7F74
:102FF80003D8336803EBC8035881366805F042F9F3
:1030080006EBC8060137082F3073D2D1B7E4002683
:1030180005F038F9494B33440136082E83F812017C
:10302800F6D1ACE40026444B1F6805F02BF907EBFA
:10303800C6070136082E87F86D01F4D19FE402F027
:10304800C7F89FE40C2824D13D4805F037F91EE065
:103058000C28F9D00A2820D13A4805F02FF9AB6E90
:10306800002B3FD1AB662B44002283F86C2095F8E7
:103078006C30232B41D13448002130220AF03FF92B
:103088000023AB6699F80030002B3FF49CAC2F4826
:103098000EE07F2813D1FEF776BD0D28DCD07F28FF
:1030A8000AD1013BA36623440022294883F86C20F7
:1030B80005F004F9FEF767BD2F2B3EF664ADA0F1CD
:1030C8002002D2B25E2A3EF65EAD13B920283EF445
:1030D8005AAD5A1C2B44AA6683F86C0005F0E6F832
:1030E800FEF751BD1B4A591E02F16C00085C2028EE
:1030F80001D10B46B4E79366B5E7174B0E920093E0
:10310800114E16490D960DA813220C230AF091F9B9
:10311800044638B100680AF033F90130A368304436
:103128009847A8E70E4805F0C9F8A4E711B0BDEC28
:10313800028BBDE8F08F00BF180A00207C01002038
:10314800160F0108621501080C140020110F010860
:103158003D0F0108A01300205D8100082000010830
:10316800210F010810B5064C18B9236801221A82EC
:1031780010BD044B1B689B68984720680C3010BD35
:103188009C1E0020A01E002010B5064C18B923680C
:1031980001221A8210BD044B1B681B6898472068DF
:1031A8000A3010BD9C1E0020A01E002030B5002251
:1031B8001346141820490C5D83EA0423082413F4E9
:1031C800004F4FEA430318BF83F4815304F1FF34DF
:1031D80018BF83F0010314F0FF049BB2EFD1013252
:1031E800192AE6D100F119028D5C00F11A028A5CF5
:1031F80002EB052292B29A421DD1104B1D7823464C
:10320800DAB2AA4214D2441C04EB4202D2B28C5C59
:1032180001328A5C02EB0424A4B24FF4AF62544337
:103228002413074A04F5487422F813400133E7E7EA
:10323800044B01221A7030BD10150020971300208E
:10324800321500206C09002003788B4283BF034BA2
:1032580003EB4101488C0020704700BF1015002087
:1032680003788B420AD9064B1A78064B53F821008B
:1032780002B1400800F5777080B2704700207047AF
:10328800881300203808002007299ABF024B33F81A
:1032980021000020704700BF4C090020024B53F862
:1032A8002100C0F3CF007047F4080020094BDFED80
:1032B8000A7A53F8213006EE903AF8EE666AB6EECE
:1032C800047AE6EE877AFCEEE77A17EE900A80B287
:1032D800704700BF6C08002000005C44014B33F8C5
:1032E8001100704786090020F8B52D4E2D4C2E4D43
:1032F800074605F081F8F36BF063C31AB3F5FA5F7C
:10330800336402D9002323702B7023781BB9A12FB3
:1033180004BF01222A702A781AB1FFB2F754013388
:103328002370224B21781A7891421F4636D1204BC0
:103338001B78052B02D0062B03D02CE00020FFF7CA
:1033480035FF73781E2B26D13878002201381346B2
:10335800D1B2814219DA775C19463B46082781EADF
:10336800030C1CF0010F1CBF83F01803C3F34603C2
:1033780007F1FF370CBF5B0843F0800317F0FF0726
:10338800C1F34701EBD10132E2E7325C934202D14B
:103398000320FFF70BFF00232B702370F8BD00BF3D
:1033A8001015002095130020941300209613002078
:1033B8009813002010B5044605F01EF80D4B5A6C02
:1033C8005864821A41F288318A429A6484BF002282
:1033D80083F84C2093F84C30074AE4B20F2BD454AE
:1033E80003D1064B01221A7010BD024A013382F83C
:1033F8004C3010BD10150020250800201C080020A6
:1034080010B5044604F0F8FF0D4B1A6D1865821AC2
:1034180041F288318A425A6584BF002283F85820D5
:1034280093F85830074A142BD45403D1064B012281
:103438001A7010BD024A013382F8583010BD00BF1F
:1034480010150020350900203409002010B5044665
:1034580004F0D2FF164AD36DD065C31AB3F57A6F5C
:1034680084BF002382F8603092F8603023B9A82C1A
:103478001DD110490B7006E0022B02D10E490C70C9
:1034880001E0242B01D80D49CC540133DBB282F87A
:103498006030094A1178052202EB4102934206D1B5
:1034A800034B002283F86020024B01221A7010BDE2
:1034B80010150020CD080020F3080020CE080020B9
:1034C80010B5044604F098FF104B5A6E40F6AC5104
:1034D800821A8A42C4BF002283F8682093F86820C1
:1034E8000B498C541AB90F2C0ED1084C6066013266
:1034F800D2B2192A83F8682003D10B7E23B901229E
:1035080000E00022034B1A7010BD00BF1015002008
:10351800B408002068080020026D036B70B50446EB
:10352800D5699BB9A90611D5C36A1BB1908C80B225
:1035380098470BE0E169928C40694E1CD2B2E66173
:103548004254E169E268914228BFE361616BA9B91D
:103558002A0613D5636AA26A9A42236D0AD0501CC0
:10356800A669A062B25CD2B21A852369984205D3D3
:10357800A16203E01A6822F080021A602B0702D5C4
:10358800236D08221A6270BD3D4B1B78012B30B5A4
:103598000CBF03230023B1B9016A21F001010162C4
:1035A8008469016A24F0F30444F0010421F00A015B
:1035B80042F0010244EA03130A4383610262836909
:1035C80023F00C031BE00429046A1CD14FF6EF71A9
:1035D800214001628169046A21F4734141F48071D8
:1035E800120141EA033342F010024FF65F712140A5
:1035F80092B2114383610162836923F4406383615A
:103608008369836130BD08291AD14FF6FF612140D3
:103618000162C469016A89B2A4B221F4206124F06C
:10362800F30441F4807144F0010441EA022244EABF
:10363800031392B2C3610262C2694FF6F37319E0D1
:103648004EF6FF7121400162C569046A40F6FF41E8
:10365800294041F4807545F6FF71214041F48054BA
:1036680044EA023245EA033392B2C3610262C26994
:103678004FF2FF331340C361C369C36130BD00BF5C
:10368800D811002038B510F80E2C50F8043C044628
:1036980052B9012200F80E2C20F80C1C197B18686E
:1036A8000222BDE838406FE730F80C2C20F80A1CDD
:1036B800891A89B220F8081C084A10F80F0C02EB86
:1036C80040020025A2F86A1004F80E5C1868197BFD
:1036D8002A46FFF759FF04F8065C38BD101500208C
:1036E800084BDA68D10709D4DA68D20608D4DB684F
:1036F80013F0040F0CBF042003207047012070470B
:1037080002207047002002408A68036810B50C6ADE
:1037180014430A6914434A6914438A691443CA69F9
:1037280014434A6A14438A6A23F4FF4323F070035C
:103738002243134303608B8943600B6883604B68A3
:10374800C36010BD02684FF6FE7313400360002388
:10375800036043608360C3602A4B984222D02A4B9F
:10376800984229D0294B984230D0294B984237D0DB
:10377800284B98423ED0284B984206D153F8682CE3
:1037880042F4700243F8682C7047244B984206D1E3
:1037980053F87C2C42F0706243F87C2C7047204B25
:1037A800984206D153F8042C42F00F0243F8042C37
:1037B80070471C4B984206D153F8182C42F0F0027F
:1037C80043F8182C7047184B984206D153F82C2C04
:1037D80042F4706243F82C2C7047144B984206D17F
:1037E80053F8402C42F4704243F8402C7047104B79
:1037F800984205D153F8542C42F4702243F8542CC3
:10380800704700BF080002401C0002403000024020
:1038180044000240580002406C0002408000024010
:10382800080402401C0402403004024044040240E0
:1038380058040240AD4A516801F00C0104292DE9F1
:10384800F04305D0082906D0A94B0360B9B917E0A1
:10385800A74B036013E053685468C3F38343E6033C
:1038680003F1020301D4A34906E0D16AA04C01F098
:103878000F010131B4FBF1F15943016000E000216F
:103888005368DFF874C2C3F303131CF803500368CA
:10389800EDB223FA05F444605668C6F302261CF814
:1038A800067024FA07F787605668C6F3C2261CF824
:1038B8000660F6B2F440C460D2F82C90C9F304193B
:1038C80009F00F080CEB480819F0100FB8F8108031
:1038D8001FFA88F807D0B8F1000F04D0B1FBF8F848
:1038E800C0F8108000E00361D2F82C80C8F34428A7
:1038F80008F00F090CEB490C18F0100FBCF810C0B9
:103908001FFA8CFC07D0BCF1000F04D0B1FBFCFC03
:10391800C0F814C000E04361D2F830C01CF0100FAA
:1039280006BFDFF8CCC1C0F818C08361D2F830C038
:103938001CF0200F06BFDFF8B8C1C0F81CC0C36177
:10394800D2F830C01CF0400F06BFDFF8A4C1C0F8A1
:1039580020C00362D2F830C01CF4807F08D08B42AC
:1039680006D1AE4204D14FEA430CC0F824C000E0AF
:103978004462D2F830C01CF4805F08D08B4206D174
:10398800AE4204D14FEA430CC0F828C000E084627C
:10399800D2F830C01CF4007F08D08B4206D1AE426A
:1039A80004D14FEA430CC0F82CC000E0C462D2F83E
:1039B80030C01CF4806F08D08B4206D1AE4204D1CF
:1039C8004FEA430CC0F844C000E04464D2F830C069
:1039D8001CF4006F08D08B4206D1AE4204D14FEAE6
:1039E800430CC0F848C000E08464D2F830C01CF42E
:1039F800005F06D08B4204D1AE4202D15900C164A7
:103A080000E08464156B3949AD0701D1046315E002
:103A18000C6B04F00304012C01D103630EE00C6B62
:103A280004F00304022C02D14FF4004105E0096BB5
:103A380001F00301032901D12D490163146B2B49BE
:103A480014F4403F01D1476318E00C6B04F4403490
:103A5800B4F5803F01D1436310E00C6B04F44034AB
:103A6800B4F5003F02D14FF4004106E0096B01F4C0
:103A78004031B1F5403F01D11D494163146B1B49E9
:103A880014F4402F01D1876318E00C6B04F4402430
:103A9800B4F5802F01D1836310E00C6B04F440244B
:103AA800B4F5002F02D14FF4004106E0096B01F490
:103AB8004021B1F5402F01D10D498163146B0B49A9
:103AC80014F4401F01D1C76320E00C6B04F44014C8
:103AD800B4F5801F01D1C36318E00C6B04F44014E3
:103AE800B4F5001F0AD14FF400410EE00010024067
:103AF80000127A0000093D0016000020096B01F44D
:103B08004011B1F5401F01D11149C163126B114930
:103B180012F4400F02D10764BDE8F0830A6B02F487
:103B28004002B2F5800F0FD00B6B03F44003B3F5DE
:103B3800000F02D14FF4004306E00B6B03F440037F
:103B4800B3F5400F01D1024B0364BDE8F08300BF19
:103B580000127A0000100240F0B500230E681A46E1
:103B68000125954005EA0604AC422ED10D796F1E59
:103B7800012F1AD887684FF0030C0CFA03FC27EAC8
:103B88000C07876091F805C087680CFA03FC4CEABB
:103B9800070787608788BFB227EA040484808C7986
:103BA800878894403C43A4B28480032407689C40DF
:103BB800E4432740076007689D403D430560C568AA
:103BC8002C40CD799D402C43C4600132102A03F16A
:103BD8000203C5D1F0BD73B506460D460024012386
:103BE8002A88A34013421AD00093AB7803F003024B
:103BF8008DF80420EA78022A03D0032A0CBF032296
:103C080001228DF805203046C3F301126946C3F33B
:103C180081038DF806208DF80730FFF79DFF0134EA
:103C2800102CDCD102B070BD38B52DED048B4A4B99
:103C38000C460168C3F882108188A3F88610013AFF
:103C4800072A42D8DFE802F0040A101822292F3583
:103C5800B3F882202280B3F8842013E0B3F88420DC
:103C68002280B3F8822005E0B3F8822052422280F5
:103C7800B3F88420524205E0B3F8842052422280EF
:103C8800B3F882206280B3F886301DE0B3F8822052
:103C980052422280B3F8842012E0B3F884202280B4
:103CA800B3F882200CE0B3F882202280B3F8842095
:103CB80005E0B3F8842052422280B3F882205242B1
:103CC8006280B3F886305B42A380244B1B78002BBC
:103CD8003FD1B4F90210224DB4F9003095ED030A32
:103CE800D5ED007A09EE101A08EE903AB8EEC99AA6
:103CF800B4F90430F8EEE88A29EE000A08EE103A22
:103D0800A7EEA80AB8EEC88AD5ED067AA7EE880A03
:103D180009F060FD95ED040AD5ED017A208029EEC1
:103D2800000AA7EEA80AD5ED077AA7EE880A09F0D7
:103D380051FD95ED050AD5ED027A608029EE000A5D
:103D4800A7EEA80AD5ED087AA7EE880A09F042FD81
:103D5800A080BDEC048B38BD101500201400002095
:103D68005413002070B50E462021154609F0FBFAC1
:103D78000446B8B1441C204609F057FBB0F5617FF2
:103D880005DB40F634039842A8BF184601E04FF41B
:103D980061701923A0F5617090FBF3F030702B78F7
:103DA80001332B702046202109F0DDFA0446B8B112
:103DB800441C204609F039FBB0F5617F05DB40F66D
:103DC80034039842A8BF184601E04FF461701923E4
:103DD800A0F5617090FBF3F070702B7801332B70B5
:103DE800204670BDF0B5047887B0054604BB454A47
:103DF80006231268634303F58873134419259F79D2
:103E0800DE799A7A4FF46170591D15FB070715FB87
:103E180006005B7900970190C878029009790391B0
:103E280039482146013400F0E9FD0C2CDFD167E068
:103E380009F0FBFA0B285FDC324B062670431E683C
:103E480000F5887006440023681C20218DF817307F
:103E580009F089FA741D054658B1451C284609F031
:103E6800E4FA032805D89DF81730607101338DF8FE
:103E780017302846202109F076FA054658B1451C26
:103E8800284609F0D2FA0D2805D870719DF8173028
:103E980001338DF817302846611C0DF11702FFF722
:103EA80061FF202109F05FFA054658B1451C2846F4
:103EB80009F0BBFA0E2805D89DF81730E0700133D9
:103EC8008DF817302846202109F04DFA50B10130FD
:103ED80009F0ABFA0D2805D89DF817302071013389
:103EE8008DF817309DF81730062B09D02046002191
:103EF800062209F004FA03E004480C2100F07EFDD4
:103F080007B0F0BD180A0020EC1101080C120108D6
:103F1800F0B5047885B00746DCB9324B1B6804F16C
:103F28001C0203EB82021920D679157A531D4FF42F
:103F3800617110FB061610FB051152795B782A484F
:103F4800019100962146013400F058FD282CE4D157
:103F580045E009F06AFA27283DDC224B1B6800F18E
:103F68001C0603EB8606781C002320218DF80F30F1
:103F780009F0F9F9751D044658B1441C204609F0AA
:103F880054FA152805D870719DF80F3001338DF853
:103F98000F302046202109F0E6F9044658B1441CA8
:103FA800204609F042FA0D2805D89DF80F306870B0
:103FB80001338DF80F302046A91C0DF10F02FFF7D1
:103FC800D1FE9DF80F30042B09D028460021042289
:103FD80009F095F903E00548282100F00FFD05B028
:103FE800F0BD00BF180A0020221201080C120108B7
:103FF8000F4B1A785F2A18D1598840F29C62914277
:1040080013D11A79BE2A10D193F89826EF2A4FF0C7
:1040180000000CD113F8012B5040064A9342F9D105
:10402800D0F1010038BF002070470020704770476A
:1040380000F803089CFE0308454B5F222DE9F34175
:104048001A7040F29C625A80BE221A71EF2283F8DD
:104058009826002283F8992611461E46B35C013241
:10406800594040F29C639A42F8D1394B83F899162B
:10407800384B1A69120604D5374A5A6002F1883259
:104088005A6004270020013F17F0FF0750D0314B3A
:104098003422DA60002444B1002356F804800193E6
:1040A80002F030F80428EED117E002F02BF80428CB
:1040B800E9D1284D2B6943F002032B61274B6B6133
:1040C8002B6943F040032B6102F01CF82B6904288C
:1040D80023F002032B61DFD0D5E71E4D2B6904F1D5
:1040E800006243F0010302F57E322B611FFA88F368
:1040F800138002F007F8042810D1194A22440192CB
:10410800019B4FEA1848A3F8008001F0FBFF2B69D8
:10411800042823F001032B6105D0B4E72B6923F0B1
:1041280001032B61AFE7043440F29C639C42B2D197
:10413800084B1A69042842F080021A6102D1FFF77D
:1041480057FF10B90A2004F0B5F902B0BDE8F081B4
:104158007C010020002002402301674500F8030885
:1041680002F80308094B30B59D68094B1868094BDC
:1041780005F480551C6800230DB1828800E0A288F0
:1041880005495A520233182BF6D130BD7C01002064
:10419800240D00200C0D0020280D0020F8B5002467
:1041A8001F4B1F78E0B2B8420CD21E4B33F81010E8
:1041B8001D4B53F820301BB10B2801D8DB689847FA
:1041C8000134EDE7194B9B685B0328D50025184E91
:1041D8002B46EAB2BA4222D2726854689C4216D080
:1041E800204604F06AFCEFF31283502282F312880F
:1041F8001049626A4FF0280C0CFB00100132426231
:10420800626942F001026261DBB283F3118856F8F9
:10421800043F1B6800221A6001352346D9E7F8BD20
:10422800AE200020D80C0020041300207C010020C0
:1042380000130020D81E002008B50A4B1B68988878
:10424800094B1A780023D9B2914204D2074921F8C0
:1042580013000133F7E7FFF7A1FF3220BDE808405C
:1042680004F0EFB80C0D0020AE200020D80C002080
:1042780010B5094804F022F8084B1C68204604F0E1
:1042880051F918B90A2004F0DCF8F7E7FFF7D4FF72
:10429800034B044ADA6010BD3712010804140020E9
:1042A80000ED00E00400FA0510B5084804F006F82F
:1042B800074B00241C70074B1C60074B1C70FFF752
:1042C80051FFFFF7D5FF054B1C6010BD43120108D5
:1042D8000C14002008140020AC2000200414002036
:1042E8000D4B9A6812F4805F0C4A09D0B3F81E315E
:1042F800B2F90620191A8A420BDD1844824204E0FA
:10430800B2F90600B3F820319842B4BF002001206A
:1043180070470120704700BF7C01002086090020FB
:10432800104B1A7813B51C46D2B90F4B1B68BBB19A
:10433800196831B102F1804202F504325069014333
:1043480051619A88ADF8042002228DF807209868F8
:10435800002201A98DF80620FFF73DFC01232370F8
:1043680002B010BD981500207813002008B5FFF79B
:10437800D7FF074B1B7813B1012B03D008BD4FF4AF
:10438800006201E04FF48052024B1A8008BD00BF62
:104398007C13002002000020F0B5046D86682368B5
:1043A80023F00103236005468379697913F0020F2E
:1043B8000CBF00274FF4005713F0040F0CBF002068
:1043C8004FF4806011F0010F14BF042300238A0703
:1043D800226822F001022260626822F4405247EA11
:1043E80002026260226822F4B05222F00C0248BF36
:1043F80043F00803024313432360A36895B023F4F2
:104408004073A3606846FFF715FA284B9C4201D118
:104418000C9A0EE0264B9C4201D10D9A09E0254BDF
:104428009C4201D10E9A04E0234B9C420CBF0F9A88
:10443800109A23681F0448BF5200B2FBF6F306FB2C
:104448001322B2EB560F226828BF0133160406D593
:104458004FF6F072C3F342011A4041EA02039BB2DD
:10446800A3816B79A97913F0020F14BF4FF40032BE
:10447800002201F00100DC0748BF42F480322B6DB6
:1044880010B15868024302E0586820EA02025A60F4
:104498009A6809074CBF42F0080222F008029A60A5
:1044A8001A6842F001021A6015B0F0BD00380140E8
:1044B8000044004000480040004C004041716BE758
:1044C800816069E7F8B50468054620460E46174638
:1044D80004F0F3FA042843D82B7B9B089AB246B918
:1044E8004FF0020C0CFA03F3E168DB439BB20B407C
:1044F800E3600A211B4B01FB002143F821600431D2
:1045080043F8217046B12A7BE1689208022505FA32
:1045180002F292B20A43E260282202FB003000F164
:104528002002EFF31286502383F312880023C11868
:104538000D6915B115600A6904320433102BF6D1E0
:1045480000231360F3B283F31188036A1BB1E36895
:1045580043F0010303E0E2684FF6FE731340E360A3
:10456800F8BD00BFD81E0020826A8169436B1144E0
:10457800D960416A914203D98A1A5A60816204E07B
:1045880001698A1A5A6000228262002280F8442057
:104598001A6842F001021A607047436A8269D1546E
:1045A800436A02690133934228BF00234362436B85
:1045B8001BB11B68DB0705D4D6E7036D1A6842F008
:1045C80080021A60704738B5114B124D1A78124C98
:1045D80029688AB162680244914217D30020187092
:1045E80003F039FF2B6863600C4B1A780AB1013A63
:1045F8001A700123237238BD6268C832914205D30C
:104608000120187003F027FF2B68636038BD00BFD6
:10461800FE130020B01E002098150020110A00206B
:1046280037B5214D8DF807306B7A8DF8062002AA30
:104638001A448DF804008DF8051012F8042C443A39
:10464800D2B20F2A29D81949022B31F8124003D8BF
:1046580014B12046FFF7B7FF6B7A134A022B09D92A
:10466800134B19685368091B8B4203D200235372FA
:10467800104A13702B7A012B00D09CB96B7A022B4D
:1046880002D8094A013353720B4B00202872187064
:1046980003B0BDE8304003F0DEBE022B4FF0C80483
:1046A800D7D9D9E703B030BD9815002054020108C6
:1046B800B01E0020110A0020FE13002011490B78BB
:1046C80013F0010F03F0040215D0D2B9980712D4E1
:1046D80043F004030B700C4B1A880C4B1A800C4BDC
:1046E8000C4A1B6892F827214FF47A7101FB0232B9
:1046F800094B1A60704722B90220FF21012203F0FA
:10470800B1BE7047AD2000200C0A0020D013002055
:10471800B01E00207C010020000A00200430104B4D
:1047280033F91030B3F5617F10B505DB40F633027D
:104738009342A8BF134601E04FF461730C78192027
:1047480040F2833210FB04249C4207DA497810FBBC
:1047580001209842B4BF0020012010BD002010BDE8
:104768008609002030B50A4B1A68D378042B0CD878
:10477800084C518A04EBC30518B9AB88591A118241
:1047880030BD54F83300084430BD002030BD00BFB0
:104798009C1E00204800002021B9022834BF0020B8
:1047A8000220704702207047074B1B681B7803F0F4
:1047B8007F03212B06D100F0DF0002280CBF002068
:1047C80002207047022070479C1E002020B9034B2E
:1047D8001B6808221A827047014870479C1E0020F7
:1047E8006800002020B9034B1B6808221A82704712
:1047F800014870479C1E002068000020212810B541
:1048080008D1114B1B681B7803F07F03212B10D0B4
:10481800022010BD2028FBD10B4B0C4A1B681070DE
:104828001B7803F07F03212B094B18BF00230BB91A
:10483800EEE7084B044A002412682046936154822C
:104848009847204610BD00BF9C1E0020B4200020C1
:10485800ED470008D54700087047034B1A78202A0F
:1048680004BF00221A707047B4200020014B0422B4
:104878001A607047B8200020034B9B7A13B1034B92
:1048880005221A60704700BFBC1E0020B820002017
:10489800014B00221A60704764170020013101EBB8
:1048A800420291420BD0030F092B94BF30333733A8
:1048B80001F8013C0023000101F8023BF1E77047D1
:1048C800134B10B593E8140008331B68D01808D0B0
:1048D80010490822FFF7E2FF20460F490422FFF79C
:1048E800DDFF0E4B1A68002393720D4A01211160F7
:1048F8000C4913604FF4E0500B6010600A480B60DD
:104908004FF4364101801160084A136010BD00BFA2
:10491800ACF7FF1F72000020820000209C1E0020C0
:10492800405C0040445C0040921E0020B8200020FB
:10493800704710B5204B18B91B6802221A8210BDA7
:104948001E4A1968002010800C7814F07F04134662
:104958000DD14A7A910644BF0221197012F0400F16
:104968001A7814BF42F0010222F0010215E0012C6E
:1049780020D0022C1FD14A7912F0800F02F00F02CA
:104988004FEA820202F1804202F5B842126806D06C
:1049980002F03002102A07D101221A7004E002F452
:1049A8004052B2F5805FF6E7054B1B681B699847D4
:1049B800024810BD104610BD9C1E0020A415002002
:1049C800A01E002070B50646441E14F8011F81B1D0
:1049D800084D284608F0C7FC0028F6D005F1080362
:1049E8009842F2D2451B04482844A31B80F8123190
:1049F800EBE770BD991801087C0100200FB42DE980
:104A0800F04F684A89B012AB12680392664A53F8AD
:104A1800045B176804931E4600242978002900F0D7
:104A2800B580252902D001350398ACE06B78302B8E
:104A380003D002354FF0000903E0AB784FF00109CD
:104A48000335A3F13002092A4FF000081AD8A3F160
:104A58003002D1B2092907D80A2A13DC0A2303FB3A
:104A6800082815F8013BF2E7A3F16102052A02D8EC
:104A7800A3F15702F0E7A3F14102052A02D8A3F1F6
:104A88003702E9E76C2B03BF2B780122013500229E
:104A9800642B29D011D8252B73D002D8002B75D0C0
:104AA800BBE7582B40D0632BB7D13178039806F178
:104AB8000408B84701344646AFE7732B54D005D8ED
:104AC8006E2BAAD1336804361C60A6E7752B02D07A
:104AD800782B29D0A1E706F1040B0DF1140A3068F0
:104AE8000A219AB300222AE006F1040B0DF1140AF8
:104AF800306862B1002806DA2D238DF81430404260
:104B08000DF1150300E053460A21002218E00028A1
:104B180006DA2D238DF8143040420DF1150300E01C
:104B280053460A21002212E006F1040B0DF1140A83
:104B3800306810213AB1B3F15806724272415346B7
:104B480003F08CFE05E0583B5A425A41534603F0A5
:104B58005DFECDF800A00398394642464B4603F067
:104B6800B9FE5E46044458E7336800930398394613
:104B78004246002303F0AEFE06F1040904444E4603
:104B88004BE703981946B847013446E7074B1868BE
:104B980003F0C8FC0028F9D0204609B0BDE8F04F62
:104BA80004B070478C11002088110020DC1400200C
:104BB80007B5074B0093074B0193074B074A196842
:104BC8000748084BFFF71AFF03B05DF804FB00BF66
:104BD800850F01088E0F0108040100208E120108BC
:104BE8006F120108790F010810B5074803F066FB3A
:104BF8000024064B0648E158E2180C345268FFF7C7
:104C0800FDFEE42CF5D110BD941201082000010826
:104C1800AA12010870B5037888B004460BB10025C4
:104C280031E01C46314B1B6804F12C0203EBC20334
:104C3800991DB1F90400B3F90620B3F908300090C2
:104C480091F90600019091F9071002912848214630
:104C58000134FFF7D3FE082CE4D144E02D2B16D104
:104C6800052D1BDC204608F0E0FB08AB6E1C03EBAF
:104C78004505631C25F80C0C1C4601332278303A94
:104C8800092AF9D935462378002BE7D104E0A3F1A6
:104C98003002092A08D8E3E7062D0AD0154808B0DB
:104CA800BDE8704003F00ABB202BF7D101342E4633
:104CB800E8E7BDF81420072AF0D80C4BBDF8161009
:104CC8001B6812B22C3203EBC202931DD180BDF8CF
:104CD80018205A80BDF81A209A80BDF81C209A71B5
:104CE800BDF81E20DA7108B070BD00BF180A002098
:104CF800B2120108CC120108F8B5074608F040FBCB
:104D0800044638B9194B1A485A791A4B013A53F8DC
:104D1800221028E038461849224608F039FB60B9C5
:104D28001648174C03F0CAFA54F8041F19B115486D
:104D3800FFF764FEF8E7144805E000250D4B53F82B
:104D4800256026B91148BDE8F84003F0B7BA3846DF
:104D58003146224608F01CFB01350028EED1034BF2
:104D68000B485D713146BDE8F84047E67C010020FC
:104D7800DA120108D802010896100108EE1201089B
:104D8800D40201080113010862150108051301087E
:104D98001A13010870B503780BB91E482DE01E4997
:104DA80008F068FB00242646254678B12CB1012C72
:104DB80006D108F03AFB064602E008F036FB054645
:104DC80015490020013408F055FBEEE70B2D04D9F6
:104DD80012480C21BDE8704010E6012C07DC104B8E
:104DE800104833F915202946BDE8704006E6A6F5B7
:104DF8007A73B3F57A7F04D90B48BDE8704003F0A5
:104E08005DBA0A4829463246FFF7F8FD044B23F8F5
:104E1800156070BD2C130108140F010866130108F2
:104E2800280D00208C130108A4130108C6130108DB
:104E380030B52DED028B87B0B0EE408A00210C22F0
:104E4800044603A808F05BFAB5EEC08ADFED2C7AB9
:104E5800F1EE10FACCBF38EE278A38EE678ADFED1C
:104E6800297A28EE278A6946BDEEC88A0A2218EEF2
:104E7800105A85EAE570A0EBE57003F017FD0023F2
:104E88009D420370ACBF20232D2368468DF80C305B
:104E980008F076FA012807D130238DF80D308DF807
:104EA8000E308DF80F300CE0022805D130238DF834
:104EB8000D308DF80E3004E0032804BF30238DF840
:104EC8000D30694603A808F041FA03A808F058FA1B
:104ED8000338C5B22A4603A9204608F07BFA002306
:104EE80063552046084908F031FA03A920462944A9
:104EF80008F02CFA204607B0BDEC028B30BD00BF8D
:104F08006F12033A00007A44DF1301082DE9F041DB
:104F1800057888B00446002D72D19048904C03F073
:104F2800CDF954ED027AF5EE407AF1EE10FA2CD074
:104F3800013529468B48FFF761FD14ED020A04A8E4
:104F4800FFF776FF01468848FFF758FD14ED010A80
:104F580004A8FFF76DFF01468348FFF74FFD94ED66
:104F6800000A04A8FFF764FF01467F48FFF746FDE3
:104F780094ED010A04A8FFF75BFF01467B48FFF7A1
:104F88003DFD0C2D04F11004CBD1DFED797A794B7E
:104F9800B0EE677AF0EE676A0022AA4203F11003C6
:104FA8000DDA13ED045A53ED035A13ED026A013278
:104FB80076EE856A77EEA57A37EE067AEDE76E48E3
:104FC800CDED016ACDED027A8DED037A03F076F925
:104FD800002408AB234413ED077ADFED687A684BA9
:104FE8006848B0EEC77AB4EEE77AF1EE10FAD8BFA7
:104FF8001846043403F062F90C2CEAD1624894E0B4
:105008006249052208F0C4F938B9614B03441030ED
:105018000022C0281A61F8D19CE020465D4904228C
:1050280008F0B6F906462046002E40D1202108F0A7
:105038009AF9002800F08E80451C284608F0A0F94F
:1050480034468046544B53F824600EB953486CE0FC
:10505800284631465FFA88F208F09AF9671C20BBA7
:105068004B4BC21810300021C02811619C46F7D163
:105078004B4B03EBC7029846D2F804E00024BEF17C
:10508800000F04D131464748FFF7B8FC5AE018F83A
:1050980037309C42F6DA23010CEB030573440FCB3F
:1050A800103585E80F000134F1E73C46CAE708F0FF
:1050B800BCF9461E0B2E074648DC2046202108F086
:1050C80052F9054650B1451C284603F017FB304BF2
:1050D80003EB071787ED000A012400E00446284681
:1050E800202108F040F9054648B1451C284603F040
:1050F80005FB274B03EB061383ED050A013428460D
:10510800202108F030F9054648B1451C284603F02F
:10511800F5FA1F4B03EB061383ED060A0134284604
:10512800202108F020F918B91F4803F0C7F811E04A
:10513800013003F0E3FA164B032C03EB061686ED59
:10514800070AF1D11948FFF7E1FE03E018480C21DE
:10515800FFF754FC08B0BDE8F08100BFE91301086F
:1051680094010020141401081A140108AD12010852
:1051780000000000900100201E1401080AD7233CFB
:10518800E5130108E1130108621501082D1401084F
:105198007C01002033140108D80201080513010816
:1051A80048FA00083814010848140108400F01089B
:1051B80082140108034B0448044A1A600023438000
:1051C80003717047DC0900206E0900208E02002060
:1051D8000120002103F014B80D4B1B689BB203EBB0
:1051E800C0000C4B3E2903444FEA430209D94B093E
:1051F800C80604BF03F1FF339BB29B0243F400438C
:1052080004E04B08C90748BF01339B02136070478D
:10521800505C00400630002010B5444B1B681878DD
:1052280010F07F0004D15A7A22F020025A7210BD81
:10523800022878D15A88002A76D11A79002A73D19F
:105248005A7922F08000840004F1804101F5B841C8
:1052580012F0800F096814BF01F0300101F44051C9
:10526800032860D800295ED09B7A002B5BD004F11C
:10527800804404F5B8441106236824D503F03003AC
:10528800102B4AD102F07F039B0003F1804303F502
:10529800B8431A68520608D5196840F60F720A40D2
:1052A80042F4004242F0C0021A601A6822F4E04256
:1052B80022F0400292B282F0300242F4004242F000
:1052C80080021A6029E003F44053B3F5805F24D1CB
:1052D80028B9174B93F82C10FFF77EFF10E09200C7
:1052E80002F1804202F5B84213685B0408D51168E0
:1052F80040F60F730B4043F4404343F080031360C0
:10530800236823F4804323F070039BB283F4405353
:1053180043F4004343F080032360064B1B685B693A
:105328009847002010BD022010BD00BF9C1E002021
:10533800C0000020A01E002008B50B4B002093F8E9
:105348002C10FFF749FF094B1B68187A082806D16B
:10535800074B4FF480521A80064B10221A80B0F186
:1053680009035842584108BDC00000209C1E002077
:10537800961E0020981E002030B5002303F18052AD
:1053880002F5B852940043F40041256840F60F72C4
:1053980041F080012A4001330A43042B2260EDD1F9
:1053A800024B40F08000186030BD00BF4C5C0040EC
:1053B8002DE9F041054607F0E3FF304B04469E68AF
:1053C80088B92F4802F07AFF2E4B53F8241041B1C8
:1053D8000123A340334202D02B48FFF70FFB0134CF
:1053E800F2E72A4821E028462949224607F0D0FF5B
:1053F80058B92848284C02F061FF54F8041F0029C6
:10540800EFD02148FFF7FAFAF7E72B782D2B03BFE7
:10541800013504F1FF344FF001084FF00008002671
:10542800184B53F8267027B91C48BDE8F04102F024
:1054380045BF28463946224607F0AAFFD8B90120B9
:10544800B040020601D51648EFE7830501D5154897
:10545800EBE7B8F1000F03D003F0DFFA124802E0DF
:1054680003F0E4FA114802F029FF39461048BDE874
:10547800F041FFF7C3BA0136D2E700BF7C01002034
:10548800B514010838030108011301086215010861
:1054980096100108C814010834030108DD14010836
:1054A800F4140108061501081A1501082415010845
:1054B800AD12010837B582888368044610060D4688
:1054C80006D52B4991F878164FF4D87000FB0133B4
:1054D800D10505D52749097801EB810103EB410383
:1054E80002F03F02042A12D006D8012A0DD0022A5F
:1054F80032D193F9001030E0102A0AD0202A0AD0BD
:10550800082A29D1B3F9001027E0197825E019886D
:1055180023E0196821E093ED000A6846FFF788FC4C
:1055280001461548FFF76AFA05B3D4ED037A6846D1
:10553800B8EEE70AFFF77CFC01461048FFF75EFA71
:1055480094ED040A6846B8EEC00AFFF771FC0146FC
:105558000A48FFF753FA09E000210948FFF74EFA15
:1055680025B10848E1682269FFF748FA03B030BD61
:105578007C0100205C0A00202E1501082D15010869
:1055880035150108311501082DE9F04100240746B9
:105598002546104BE6583946304604EB030807F019
:1055A8002BFF58B131460C48FFF728FA4046002136
:1055B800FFF780FF094802F081FE01351434B4F585
:1055C800396FE6D125B90648BDE8F04102F076BE4C
:1055D800BDE8F081A0EE0008C915010862150108B0
:1055E800381501082DE9F0472DED028B044607F028
:1055F800C7FE054620B1012818D123782A2B15D1DA
:10560800544802F05BFE0024534B5448E158E61816
:10561800FFF7F4F930462946FFF74CFF1434504899
:1056280002F04CFEB4F5396FEED18FE020463D21F3
:1056380007F099FE002800F08380034613F8012C38
:10564800202A01D1013BF9E7451C2846C4EB030990
:1056580007F0EBFE8246284603F050F80025B0EE2E
:10566800408A14226A433C4BD7583846D61807F06C
:1056780087FE804639462046424607F089FE0028C4
:1056880054D15FFA89F3434550D196ED037AF8EE89
:10569800C77AB4EEE78AF1EE10FA45DB96ED047AA4
:1056A800F8EEC77AB4EEE78AF1EE10FA3CD8B38880
:1056B800B28813F0200F08BF08EE10AA140618EEDF
:1056C800101AB36806D5274890F878064FF4D874AE
:1056D80004FB0033D00505D52348007800EB800093
:1056E80003EB400302F03F02042A0BD004D8013A2E
:1056F800012A0DD819700BE0102A05D0202A05D0F0
:10570800082A05D1198003E0196001E083ED008AB9
:1057180039461648FFF772F9BDEC028B3046002176
:10572800BDE8F047FFF7C6BE114803E00135942DE8
:1057380097D11048BDEC028BBDE8F04702F0BEBD22
:10574800BDEC028B2046BDE8F0471DE7BDEC028B9F
:10575800BDE8F08750150108A0EE0008C91501083A
:10576800621501087C0100205C0A0020651501080B
:1057780070150108381501087FB5044607F000FECA
:10578800082824D100231F49E25C0968114449789C
:1057980001F00301022908BF203AE2540133082B23
:1057A800F1D10025665D1848314607F0DCFD28B1C7
:1057B80001356019314607F0D6FD18B1134802F0DB
:1057C8007DFD1CE0082DEDD12046FFF7FBF81048C1
:1057D80002F074FD00230F4A1A4404A992F812211A
:1057E8000A440949595C02F80C1C0133082BF2D110
:1057F800002309488DF80C3001A9FFF7FFF804B021
:1058080070BD00BF08010020991801089015010813
:10581800B01501087C010020AD12010870B50646DC
:1058280000240A4BE518AA8816420AD0E15808480D
:10583800FFF7E4F828460021FFF73CFE054802F090
:105848003DFD1434B4F5396FEBD170BDA0EE0008FE
:10585800C515010862150108144B19784A1C1A70FD
:10586800134A5078134A32F8102001F0070192B217
:105878005A8003EB41039A8000231A460E49595A6D
:1058880002330A44102B92B2F8D10C4B1B681B78D8
:10589800D20803EB4313534303F59F4349F6F672CB
:1058A8007B33B3FBF2F3064A13707047A815002048
:1058B800B0090020C0090020AC150020E01300202A
:1058C800D9130020224B5343224A10B5224CB2FB75
:1058D800F3F203880139013AA04289B292B29BB22D
:1058E8000ED004F50064A0420AD0B0F1804F07D072
:1058F800A4F59834A04203D004F58064A04202D1F4
:1059080023F070039BB2154CA04206D004F58064C6
:10591800A0421CBF23F440739BB203800E4BC162AC
:10592800984202850FD003F5006398420BD003F527
:105938004063984207D003F58063984203D003F58B
:105948008063984201D1002303860123436110BD7F
:1059580040420F0000A24A04002C01400010004001
:105968002DE9F3477B4F3E7D05460C4600681146FE
:10597800924698462246731C3B75FFF7A3FFAB6817
:10598800ADF804306868022301A98DF806308DF857
:105998000730FEF720F92B7B2C681837360107EB08
:1059A80006090C2B00F2AB80DFE803F007A9A9A9D0
:1059B8003BA9A9A964A9A9A98A00236A664823F072
:1059C80001032362216A6368A26922F4803222F00B
:1059D8007302844242F0700212D000F500608442E3
:1059E8000ED000F5406084420AD000F58060844201
:1059F80006D000F58060844202D041F0030107E040
:105A080021F00E0123F4407341F0030143F4807345
:105A18006360A261C4F834802162A36943F008037B
:105A280026E0236A4C4823F010032362216A636846
:105A3800A26922F0807222F4E642844242F4E042F3
:105A480006D000F50060844202D041F0300107E042
:105A580021F0E00123F4406341F0300143F4806316
:105A68006360A261C4F838802162A36943F40063CB
:105A7800A36144E0236A384823F480732362226ACE
:105A88006368E169844221F0730141F0700106D036
:105A980000F50060844202D042F4407207E022F42C
:105AA800606223F4405342F4407243F480536360CD
:105AB800E161C4F83C802262E36943F008031DE019
:105AC800236A254823F480532362226A6368E169C4
