:020000040800F2
:1000000000500020F1EE00089DEF0008F1D8000834
:100010009DEF00089DEF00089DEF00080000000024
:100020000000000000000000000000009DEF00083C
:100030009DEF0008000000009DEF0008E1D80008D7
:100040009DEF00089DEF00089DEF00089DEF000860
:100050009DEF00089DEF00089DEF00087DD7000888
:100060009DEF00089DEF00089DEF00089DEF000840
:100070009DEF00089DEF00083DD700089DEF0008A8
:1000800081D700089DEF00089DEF00089DEF000854
:100090009DEF00089DEF00089DEF000879D700084C
:1000A0009DEF000851D600089DEF000861D60008BA
:1000B00041D6000831D6000821D60008BDD7000877
:1000C000B5D70008B9D70008B1D700089DEF0008E0
:1000D0009DEF0008F9D6000871D600089DEF0008D2
:1000E000C1D700089DEF00089DEF00080000000048
:1000F0000000000000000000000000000000000000
:0C01000000000000000000005FF808F1A3
:100110002DE9F04F734B744D9FB02B6000236B6043
:100120000AF066F918B907F0ABFC0AF083F90DF094
:10013000B5F8002308936D4C09930A934FF4E0132C
:100140000B9323686A4943F480338A7B2360A36955
:10015000894643F01003A361236803F40033099335
:10016000089B01330893099B1BB9089BB3F5A06F4B
:10017000F2D121685D4B11F4003101D0022315E06A
:10018000186840F0010018600891236803F002032A
:100190000993089B01330893099B1BB9089BB3F58E
:1001A000A06FF2D12368990739D501230A93514BE7
:1001B000514F196841F010011960196821F00301CD
:1001C0001960196841F0020119606368636063682F
:1001D0006360636843F480636360484B1968043B61
:1001E00021F07041596046493960616821F47C1101
:1001F0006160596841F000415960D96821F40041BB
:10020000D9609B681B0449BF3E4B4FF4E0133B6031
:100210004FF480130B930A9B012B01D117E0FEE7EB
:10022000022B18D16AB10B9BB3F5801F02D14FF49A
:10023000A01305E00B9BB3F5E01F02D14FF40013B0
:100240000B9362680B9B134343F4803302E06368B3
:1002500043F460136360236843F080732360226873
:10026000224B9601FBD55A6822F003025A605A6865
:1002700042F002025A6063681C4A03F00C03082B28
:100280000693F8D15168204B01F00C01042903D0EA
:10029000082904D01A4A00E03A681A6011E051684F
:1002A0005068C1F38341C00301F1020101D4174A30
:1002B00005E0526812F4003F3A6818BF52085143F3
:1002C00019606268C2F303123A4492F804B01A68E3
:1002D00022FA0BFB0A4AC3F800B03B68934217D1DD
:1002E000012219E075620008580700200010024042
:1002F000A41E002000200240140000200410014031
:1003000000127A00001BB700A400002000093D0085
:10031000B24A934202D10222B14B1A70DFF800A315
:10032000B04B1EAECAF80C30A3694FF0000843F082
:100330000103A361636AAC4843F080736362A369FD
:1003400043F01C03A3614FF6FF7326F82C3D3146A2
:100350008DF84E8004F096F9A448314604F092F9E5
:100360003146A34804F08EF9A24B30465A6842F059
:1003700000725A600CF05CFC139B9F4A6420B3FB34
:10038000F2F34FF47A72AB60BBFBF2FB9B4B0BF1C9
:10039000FF325A60F0228AF823200722C3F808802F
:1003A0001A6006F0B2FC96484146A02211F0E9F826
:1003B000E36943F00703E361A36943F4006343F097
:1003C0000C03A3618F4B002103F10C0208F802100B
:1003D00008F10108B8F10E0FF4D1FF229A76DA760F
:1003E0001A775A77884B0FCB86E80F00A36908224B
:1003F00043F00803A361A369139843F00803A361C2
:100400007A4B14A91A6110221A6104F03BF915986D
:1004100016A904F037F9724B73481A789846012AE6
:100420008CBF102314238DF84E304FF002038DF84B
:100430004F30A3694FF4805243F00403ADF84C20D1
:100440008CBF4FF0010A4FF0000AA361314604F05F
:1004500019F96E4BBAF1000F01D06D4A00E06D4AF8
:1004600000201A6006F05BFC6B4B93E80300A36965
:1004700086E8030043F0080314A9A361139804F06D
:1004800001F90BF0D5FE9F238DF838303220002380
:100490008DF839308DF83A308DF83B3006F035FC68
:1004A000524B4FF480525A61A3F554430EAA9B89D4
:1004B00005204FF47A7331469246013823D01AB1A1
:1004C00092F800E0013208E04FF0FF0E05E003F182
:1004D000FF3C1FFA8CFC93B16346DFF848C1BCF8BF
:1004E00008B01BF0020FF2D0ACF80CE0DFF834E1FA
:1004F000BEF808C01CF0010F00F0938186E1EB8B81
:1005000001339BB2EB83DFF8E4B04FF48053CBF8B8
:1005100010309DF84E109DF84D20090241EA02412D
:100520009DF84F2011433D4A914214D0CBF814302E
:10053000F520029308F090FDFF2008F08DFD029B4E
:100540007028CBF8103006D198F80030022B02D179
:10055000234B03221A7098F800B0BBF1030F02D0AE
:10056000012008F073F9D9F80820DFF8988002F428
:1005700000434FF0100C02F4006204920021624626
:1005800008F120000293CDF80CC010F0FAFF002211
:100590008DF83B200422DDF80CC0072085F82020D0
:1005A0000122022185F8230093458DF83A10ADF819
:1005B00038C085F82220029B36D94FF0300EADF8B6
:1005C00038E04FF0050E88F828E088F8292088F8F0
:1005D0002A2088F82B00884627E000BF001BB700C0
:1005E000532600200005FA0500080140000C0140D8
:1005F000001001400000014040420F0010E000E008
:10060000501D002058070020A43C01085826002057
:100610004D62000861620008B43C0108152020000A
:1006200000ED00E00038004090469BB1BDF8383046
:1006300085F8258043F00203ADF83830012308EB3C
:10064000030285F8243085F82630072385F8273003
:100650005FFA82F88548514605F092FF049BABB1E2
:10066000022383485146ADF8383005F089FF09234D
:10067000012285F82C3085F82E2008F1010307228D
:1006800085F82D8085F82F205FFA83F86369794813
:1006900043F001036361A369764D43F40073A361E2
:1006A0000CF04EFA744B00241393744BB8F1010F05
:1006B00014930CBF2346802318934FF4807319932F
:1006C0004FF480631A93202331461B9328464FF43E
:1006D00000531C931594CDF8588017941D940CF07A
:1006E00011FA2B68B8F1010F43F001032B60644B42
:1006F00098BF00215A6888BF012122F4702222F499
:10070000807242EA01225A6099685E4A20460A4095
:1007100042F4602242F002029A60D96A08F1FF3284
:1007200021F47001D2B241EA0252DA620123564A40
:1007300011188C78002C51D0825C5C1C092ACE7870
:10074000E4B24F4910D9A2F10A0505EB45054FF077
:10075000070E0EFA05FEAE40D1F80CC02CEA0E0EC4
:100760004EEA0605CD600DE002EB42054FF0070EA4
:100770000EFA05FEAE40D1F810C02CEA0E0E4EEA7D
:1007800006050D61062B3E490CD8013B03EB8303A4
:100790001F259D409A404E6B26EA050545EA020357
:1007A0004B631CE00C2B0CD8073B03EB83031F258A
:1007B0009D409A400E6B26EA050545EA02030B634D
:1007C0000DE00D3B03EB83031F259D409A40CE6A4D
:1007D00026EA050545EA0203CB6200E01C46043028
:1007E000102801D02346A2E7254B9A6842F4807274
:1007F0009A609A6842F001029A609A6842F0080290
:100800009A6099681E4A090714D5FAE7BEF80CE009
:100810001FFA8EFE00293FF450AE81F800E001314E
:100820004BE603F1FF3E1FFA8EFE002B3FF467AE4E
:1008300073465BE6936843F004039360104A936841
:1008400013F00403FAD19168B9F8E60041F4A0016D
:1008500091600E4AE8B9B2F9E830CBB9B2F9EA30A2
:10086000D3F1010338BF002313E000BF00080140AB
:10087000000C0140080002404C2401408807002081
:1008800000240140FDF7F1FF78070020A41E00209E
:10089000034613F0010340F081803B7500B20DF078
:1008A00059FDAB490DF0AAFDAA4C0646B4F9E80083
:1008B0000DF050FDA6490DF0A1FD0546B4F9EA0082
:1008C0000DF048FDA2490DF099FD0446304611F0A7
:1008D00087F80746304611F0F7F88046284611F0B1
:1008E0007FF80646284611F0EFF80546204611F03D
:1008F00077F88246204611F0E7F83946814650469F
:100900000DF07CFD3946834648460DF077FD514693
:10091000049040460DF072FD4946059040460DF0AA
:100920006DFD3146079050460DF068FD8A4C4946F2
:10093000A06306F100400DF061FD2946E0632564E7
:1009400005980DF05BFD014604980DF04FFC29461B
:10095000606407980DF052FD014658460DF044FCC6
:100960003146A06408F100400DF048FD2946E064DE
:1009700058460DF043FD014607980DF035FC294619
:10098000206504980DF03AFD014605980DF02EFC07
:100990003946606530460DF031FDA0656D4B6E4DFA
:1009A0009A6812F4003F18D0C8206A4C06F0ADF9DE
:1009B00005F05FF8C82006F0A8F904F58873002157
:1009C0000C2205F16000EB6510F0DBFD05F0D0F8BE
:1009D00006F08CF8614B0344AB66614B00211A684A
:1009E000994642F00E021A605E4A5F4B12685948FF
:1009F000B2F85220B0F8EE6005925C4A90F8ED70C3
:100A000011705B4903F10C0291F800A0594CBAF146
:100A1000010F88BF1346EB6605F084FBDFF8848185
:100A20008346DFF884C108B3534BBB2EC8F80030AF
:100A3000524BC8F80CC0C8F8043001D901230EE0AD
:100A4000612E01D902230AE0292E01D9032306E0F1
:100A5000132E01D9042302E0092E05D90523434AA8
:100A60006375012313702CE00623F8E71920CDF8F5
:100A70000CC006F04AF9682015215A4604F0F4FE2D
:100A8000DDF80CC0002801F021823D4A622EC8F832
:100A900000203C4AC8F80CC0C8F804203A4AC8F8FC
:100AA000082000F0ED8240F2E482BC2E00F0E682E5
:100AB000B6F5807F40F0E78284F816B02B4801231A
:100AC0000370D9F8003043F00103C9F800302F4E0D
:100AD000002333701A46092F00F2F480DFE817F084
:100AE000110011003200B900DA00F200F200F20049
:100AF000F2000A00D9F8003023F00203C9F80030F0
:100B0000E0E0BAF1010F20D84FF000081EAB03F867
:100B10002C2D53204146012207F09AFF90B19DF8F9
:100B20004C30E52B0ED11A4B1A4A85F870801A60AA
:100B3000194A5A60042301223370184B97421A70E5
:100B400000F0C080BAF1010F30D9154B2FE000BF83
:100B500035FA8E3CA41E002058070020404B4C0064
:100B60004C020020E80300208C3C01080204002015
:100B70005326002014000020979E00081F560008EE
:100B8000E55F00088F5600085D5600086A040020E3
:100B900058040020596000086957000854260020B6
:100BA000983C0108EC03002090C1793D8B4BDFF8A5
:100BB0005882EB6605F0B6FA00284AD0062113AB3E
:100BC00068200A4607F044FF9DF84F309DF851B069
:100BD00003F001035B000BF0010B43EA8B0B9DF864
:100BE0004D3003F001035BEA030B08D0BBF1010FAA
:100BF00001D1002317E0BBF1020F0BD112E00EABC5
:100C000068200C21012207F023FF9DF8383013F0F3
:100C10000F0302D1052001F05AB9042B02D188F844
:100C200071B002E0012388F871306D4B6D4A1A6093
:100C30006D4A5A6095F87120002A14BF6E226F2207
:100C40001A726A4B02221A7097424FF001033370F6
:100C500038D0BAF1010F1DD800221EAB03F82C2D9D
:100C60001C200D21012207F0F3FE98B19DF84C30B5
:100C70002A2B01D01A2B0DD1594A5D4985F87230C3
:100C800011605C490223516033700322574B974235
:100C90001A7017D000211EAB03F82C1D182001225A
:100CA00007F0D6FE70B19DF84C30FB2B0AD14C4BAF
:100CB000514A1A60514A5A604C4B04221A70504BE8
:100CC00001221A70494B1B7843B90FB11F46FEE64B
:100CD000D9F8003023F00203C9F80030BAF1010F4F
:100CE00005D107F0E1FF474B4FF400525A610A204B
:100CF00006F00BF87720A02101220EAB07F0A8FE2A
:100D000038B995F884A0404EBAF1000F00F08A80FF
:100D100055E11E210122772004F0A6FD4FF42F603B
:100D200005F0E8FF0026A6F160010027C9B2022203
:100D300013AB77208DF84C708DF84D7007F088FE5E
:100D40009DF84D309DF84C1043EA01212E4B03F1E4
:100D50007402B1520236102EE5D1B3F882E00121BF
:100D60000EF00F060EF47F4EA3F882E03A463B46A3
:100D700022F001002844B0F87400002818BF0021B8
:100D8000D70703D5C0B24340082002E083EA10230E
:100D9000FAE71F0448BF83F4C05301384FEA430306
:100DA000F7D10132102AE3D146EA0E0EA5F882E00F
:100DB0000029A6D1C3F303339E42A2D1134B42F2C2
:100DC00010721A805A80124A5A60124A9A60124A65
:100DD000DA60124A1A61124A5BE100BF8C3C0108DA
:100DE00058040020019F0008E15500085426002007
:100DF000F5580008CD560008356000082557000852
:100E00006A0400200010014058070020A0020020C2
:100E1000A55F0008395500089D5F00084955000886
:100E2000913A00089C4F07F03FFF4FF480450EA910
:100E300004233846ADF838508DF83A304FF4005856
:100E400003F020FC954BC7F810805A6913A822F4D0
:100E500070625A615A694FF0030942F400725A6194
:100E60000823139501258DF851308DF850A08DF889
:100E700052500AF01FFB28230DA88DF834308DF84E
:100E800035908DF836A08DF837500AF0F3FA14201B
:100E900005F03BFF0EAB7720D0212A4607F0D8FDA6
:100EA0009DF83830A6F8A890552B86F89F307FD152
:100EB000D1212A460EAB772007F0CAFD9DF83830C5
:100EC000772003F00F021B0986F8A02086F8A130D6
:100ED000162213ABAA2107F0BBFD9DF84C209DF80C
:100EE0004D3043EA0223A6F888309DF84E209DF845
:100EF0004F3043EA0223A6F88A309DF850209DF82F
:100F0000513043EA0223A6F88C309DF852209DF818
:100F1000533043EA0223A6F88E309DF854209DF802
:100F2000553043EA0223A6F890309DF856209DF8EC
:100F3000573043EA0223A6F892309DF858209DF8D6
:100F4000593043EA0223A6F894309DF85A209DF8C0
:100F50005B3043EA0223A6F896309DF85C209DF8AA
:100F60005D3043EA0223A6F898309DF85E209DF894
:100F70005F3043EA0223A6F89A309DF860209DF87E
:100F8000613043EA0223A6F89C30454B41F270726F
:100F900086F884501A8046F678125A80414A5A6080
:100FA000414A9A60414ADA60414A1A61414A70E016
:100FB000414BC7F814801A6822F004021A601EAA76
:100FC000002302F82C3D04921E200A210122049BDA
:100FD00007F03EFD384F38B19DF84C30482B03D117
:100FE000364B03221A7003E03B6823F008033B6092
:100FF000334D95F8E2300BB1324A137095F8E33077
:101000000BB1314A137095F8E4300BB12B4A1370D1
:101010003B68990702D52D4B1B689847DFF8BC80C9
:101020002B4ED8F8003098473B6813F0080F1CD0BF
:10103000059B4FF0640A0FFA83F898FBFAF94846CB
:101040000DF088F983460AFB198000B20DF082F991
:1010500020490DF0D3F9014658460DF0C7F81E4956
:101060000DF0CCF9C6F8AC003AE00023C6F8AC307D
:1010700036E00A2E0BD0142E07D004E0012300E046
:101080000223A3751AE50323FBE70423F9E70523ED
:10109000F7E75A6193E700BF0010014000000140EC
:1010A000A0020020D15F0008A9550008AD5F00082C
:1010B00059550008E93B00084C0200204726002053
:1010C000A41E0020020400206A040020580400200E
:1010D000580700208988883C00002041EC0300204C
:1010E000844B10225A6108221A614FF00A0ADFF875
:1010F00004921920D9F80C300AF1FF3A83F010035A
:10110000C9F80C30D9F80C3083F00803C9F80C305A
:1011100005F0FBFD012005F002FE192005F0F5FDAC
:10112000002005F0FCFD1AF0FF0AE0D10823C9F801
:1011300010301023C9F810306F4BDFF8FC911B689A
:1011400093F90C000DF006F96C490DF057F910F009
:1011500047FC8246B9F800000DF0FCF851460DF04E
:101160004DF910F073FC664B1880B9F800000DF0D3
:10117000F1F8014663480DF0F5F963490DF0F2F915
:10118000624B63491860C8685C490DF037F96149E2
:101190000DF034F9604B6A791860604B60491A7041
:1011A000604B01EBC20292F83120C6F8B0305E4BC2
:1011B0001A60AA68920644BF01221A603B681B07A6
:1011C00040F1FF804B4B10225A61584A4FF0000803
:1011D00012784FF00A0A012A554A8CBF4FF0100EC0
:1011E0004FF0080E90698CBF4FF480414FF480514E
:1011F0004EEA000090614F484FF0020298BF184637
:10120000ADF838108DF83B200EA904228DF83A2055
:1012100003F038FA322005F078FD002111221E205B
:1012200004F022FB012160221E2004F01DFB64203B
:1012300005F06BFD049804F03BFFC146C346022154
:1012400001221E2004F010FB322005F05EFD049800
:1012500004F02EFFBDF94C20BDF94E10BDF9503001
:1012600093449142B8BF0A4698449A42B8BF134685
:1012700013F5805F89440ADD1E4BBAF1010ADA6872
:1012800082F01002DA60DAD14FF0010A01E04FF08B
:10129000000A1E200021122204F0E6FA0A2302218D
:1012A00001221E20029304F0DFFA322005F02DFD0A
:1012B000049804F0FDFEBDF94C10BDF94E00BDF9D7
:1012C0005020C1EB0B0B8842B8BF0146C2EB0808A7
:1012D0009142B8BF0A4612F5805FC0EB0909029B34
:1012E0002CDD044A013BD16881F01001D160D6D1D8
:1012F00026E000BF000C0140A404002035FA8E3C1B
:10130000C80400200AE81C4100401C46C00300201D
:10131000EC030020BD378635A0040020A005002086
:101320008C3C0108B41E00209C05002053260020A0
:101330000010024000100140000000204FF0000AA1
:10134000B64B584602930DF005F80146B4480DF02F
:1013500009F920F00040A06148460CF0FBFF01466F
:10136000AF480DF0FFF820F00040E06140460CF07F
:10137000F1FF0146AB480DF0F5F820F00040206287
:10138000002170221E2004F06FFA012120221E206D
:1013900004F06AFA022100221E2004F065FA64209B
:1013A00005F0B3FC029BBAF1000F04D14FF07E525E
:1013B0009A61DA611A629C4B10221A619B4B0122DE
:1013C0001A700BF02BFD0EA80021142210F0D9F892
:1013D0006B790E2B01D0082B02D101238DF84230FE
:1013E000934A944993680968C3F340028DF83D20FD
:1013F000C3F3801200318DF83E20C3F3403218BF92
:1014000001218DF83820C3F3C0328DF83A208DF8D1
:101410004010C3F3C02288498DF83B20C3F300423B
:101420008DF83F20096803F00102814C8DF83920C6
:1014300091F8B011B4F8E000C1F380018DF84110CB
:10144000ADF84600B4F8DE104FF47A70ADF84800FD
:10145000D804ADF8441003D5B4F8DA30ADF848300C
:10146000B1F5FA7F84BF0023ADF84830B5F81A31E2
:1014700095F82211ADF84A30704B83F8B410002172
:1014800083F8B51083F8B6109DF842308B4214BF34
:1014900002230B4602B10133694A4FF0000B02EB05
:1014A0008303D3F8E830CDF814B00793079C4FF6C8
:1014B000FF7334F80B8098455FFA88F20DD15F4CCA
:1014C00094F8B53084F8B7305E4B93F80090B9F1DA
:1014D000160F40F09181002680E15B4B9DF83C1097
:1014E0004FEA021A03EB0A0419B1911E012940F2D6
:1014F0005F819DF83E1029B153F80A10534881428C
:1015000000F056819DF83F1029B153F80A104F485A
:10151000814200F04D819DF83A1011B1012A00F08E
:1015200047814FEA1828B8F1020F06D19DF838100C
:10153000002908BF4FF0000804E0B8F1010F08BF10
:101540009DF839809DF8401041B19DF8421029B9AD
:10155000A2F10801012998BF4FF004089DF841103D
:1015600031B19DF8421019B9043A032A40F20781BB
:10157000B8F1010F72D1FF22E17B86F8FC2086F8DA
:10158000FD20A2684FF00009606886F80091C6F857
:101590000C41ADF84C208DF84E100222049986F8CB
:1015A000B890C6F8BC90C6F8C090C6F8C490C6F80B
:1015B000F89086F8FE9086F8FF908DF84F20029301
:1015C00003F060F8029B217B53F80A004A4604F0BE
:1015D0008BFF42462046494607F0E4FA029B53F847
:1015E0000A201B4B9A4206D1AB685A0303D5134B12
:1015F000032283F8E021114A164B02F58871C2F8E4
:101600001031154B2046C2F814310023C2F81831AE
:1016100002F58A7207F03AF8CAE000BF1400002011
:1016200000406F4601C05E46000C0140940200205D
:10163000A41E00209C050020E8030020580700207D
:101640008C3C0108A00500204C5601080004004015
:1016500000080040693900084D3A0008B8F1020F4F
:1016600046D10598B949C2B21C2042434FF0000050
:1016700001EB020989F8020089F80A0005984FF089
:10168000010C89F8010001F802C0E17BA2686068E2
:10169000C9F80C408DF84E100499CDF80CC0ADF887
:1016A0004C2002938DF84F8002F0ECFF029B217BCF
:1016B00053F80A00002204F017FFDDF80CC02046A2
:1016C0006246002107F06EFAA14B0021C9F81030E4
:1016D000A04BC9F818102046C9F8143009F11001C0
:1016E00009F1140206F0D2FF059C013405945FE075
:1016F000B8F1030F40D1BDF84420DFF86882B2F59D
:10170000FA7F98F8B69010D9934B2046B3FBF2F2CB
:101710000821BDF8483092B209F04AFF08EB89036E
:10172000C3F8E4018D4BC3601FE0A968BDF84830E1
:1017300011F4802F4FEA890A04D0204608214FF681
:10174000FF7205E086492046B1FBF2F292B2012118
:1017500009F02EFF08EB0A03C3F8E401814B824A2B
:1017600003EB8903D3F8E431DA607E4B93F8B620BB
:10177000013283F8B6201BE0B8F1040F18D1BDF890
:101780004630774ADFF8DC8192FBF3F22046BDF861
:101790004A30012192B298F8B59009F009FF08EBA0
:1017A0008903C3F8140298F8B530013388F8B530CE
:1017B0000BF1020BBBF11C0F7FF478AE7FE66B4B95
:1017C00006EB030E98E80F008EE80F00684B10360A
:1017D0001A78C02E02F101021A7009D0D4F8B03084
:1017E0000021985903EB06080CF09CFF0028E6D076
:1017F000AB68DB0420D419E05E4B5D4A03EBC90300
:1018000093F830C0D3F8348082F800C0B8F1000FEC
:10181000EED000266645EBDA544A330103EB020EA4
:1018200043440FCB01368EE80F00F3E7B9F1080F00
:10183000DFF86C8128D12AE04D4B93F800A0BAF173
:10184000010FF3D94C4E4FF00008D04506F11006B9
:10185000ECDA56F8100C4FF07C510CF0CFFD4FF045
:101860007C5146F8100C56F8140C0CF0C7FD4FF0E4
:101870007C5146F8140C56F80C0C0CF0BFFD08F126
:10188000010846F80C0CE0E7B9F10E0F04D198F806
:10189000003043F0100303E098F8003023F0100309
:1018A00088F8003007F068FD3449354B3548364A32
:1018B000C4F8F83201600023B5F81A01C4F8F41234
:1018C000A4F8FE3284F80033C4F80423C4F80823D3
:1018D0002E4958520233242BFAD12D4B1A60AB6893
:1018E0001E0740F1AE802B4B002293F81831042BD9
:1018F00000F2A180DFE803F00303567C8B00012B8C
:101900004FF0030208D184F80C23072284F80E3329
:1019100084F80D230C2308E0022384F80C33002301
:1019200084F80E3384F80D23072384F80F33002343
:1019300000931020012318494FF4E1320AF00EFC05
:10194000164BC4F81403C4F8183370E0580800208C
:10195000256500083D39000800127A006D3A00083C
:1019600040420F00580700205D3A00088C09002013
:101970001C2600208C3C010894090020B41F002084
:10198000843D01083C010020500A00201A07002075
:1019900040020020A41E0020816B00085161000855
:1019A000820200200123574A574900931020052343
:1019B0000AF0D4FBC4F81C030646B5F81A010CF073
:1019C000C9FC52490CF01AFD51490CF00DFC0CF009
:1019D00001FF00234F4A98500433402BFAD14E4B5D
:1019E000301CC4F818334FF0100384F80F331FE095
:1019F00000920123102049494FF4E1320AF0AEFB76
:101A0000474BC4F82003C4F8183310230DE00092AC
:101A10000123102043494FF4E1320AF09FFB424B6F
:101A2000C4F82403C4F81833082384F80F330030B3
:101A300018BF012028B9082002F0EBFB0023C4F8EE
:101A40001833AB68580405D5082284F80F23374AA9
:101A5000C4F8182342F201021A4003F0010103F412
:101A600000505AB1324AC4F8182318B1314A08203C
:101A700082F80F0311B10C2284F80F2394F80F237E
:101A80001906A2F1040284F8102369D5294B2A4AC9
:101A9000D5F83811C3F828230023284A02EB031095
:101AA000D0F824011646884204D00133DBB2042B5F
:101AB000F3D9002384F82D33214B0020C4F8483398
:101AC00008F0A6F81F4B94F82D231B680021C4F8DA
:101AD000343395F8283106EB02128B42C4F83013E8
:101AE0004FF020000091D2F824210CBF01230323E2
:101AF0000AF034FBC4F84C0330BB802002F089FBB1
:101B000025E000BFA0860100956C0008CDCCCC3F3D
:101B10000000B0445C010020056200081D6C000854
:101B2000F5610008CD6B0008E16100083162000832
:101B30003D62000858070020D01F00208C3C01089F
:101B4000CC1F0020A01E0020012008F061F88C4B63
:101B500018688C4B00F5D97204301A6002F092FCC0
:101B6000AB689A050CD59E044CBF8748874807F0A0
:101B700034F83B68002243F010033B60844B1A604A
:101B8000844B8549D4F804230B608033C4F8503368
:101B9000824B834E1A60AB680027D803377040F140
:101BA000B380DFF828B2DFF828A202F0A7FB02F02A
:101BB000E1FB02F0BBFB40F22A334FF001091A4669
:101BC0005846394686F8009002930FF0DAFCDAF8AE
:101BD0001820744842F00402CAF818204022ADF8D8
:101BE000302018228DF833200CA903228DF83220E2
:101BF00004F0C6FCDAF81C206B4E42F00202CAF870
:101C00001C206A4AAAF6947A1168694AB1FBF2F17B
:101C10003288013922F45C721204120C328089B2CB
:101C20001D22B2853185A6F81490328C22F0010273
:101C30001204120C3284328CB088318B22F00202F2
:101C400021F0730109041204090C120C41F0600127
:101C500080B242EA0902B0803183B7863284328B87
:101C600022F008021204120C42F008023283B6F885
:101C700044206FEA42426FEA524292B2A6F84420F0
:101C8000DAF8A82F42EA0902CAF8A82F50460AF04B
:101C900057FF484A029B1392802218924FF4807299
:101CA000CDF850B019924FF0100B4FF4005250463F
:101CB00004991C92CDF854B0169317971A971B9756
:101CC0001D970AF01FFFB2890DA892B242F400726C
:101CD000B281DAF8002042F00202CAF800208DF842
:101CE00034B08DF835908DF836708DF8379009F056
:101CF000C1FB314B1A68314BFA500437802FF8D1B1
:101D000006F0EDFB06F0EBFBAB68590540F1928065
:101D100002F0DAFA08B1082000E00420012108F0FE
:101D200039FBAB6884F87E0613F4806F244E01D132
:101D300000201DE033681B78032B05D133681B7826
:101D4000032B0BD0012013E0042008F04AFA0146CF
:101D5000042008F037F90028F0D1E9E7082008F05E
:101D600040FA0146082008F02DF9003018BF012084
:101D7000144B36681870337863BB134B1E604DE00C
:101D8000E80300208C050020FC3D0108083E010806
:101D9000A0000020F81F002094060020400700202B
:101DA000840600200008014000040040A400002038
:101DB00000366E0134040040503C010898060020B3
:101DC000AC050020A8050020D4050020AC0A0020A6
:101DD00000100240012B21D13F4F002138462C2218
:101DE000C4F880660FF0CDFB8E237B704FF07C0A29
:101DF000E0234FF07D09FB7087F800A087F82B9057
:101E0000364F002138462C220FF0BBFB8A237B7013
:101E1000A02387F800A0FB7087F82B903378022B63
:101E200008BFC4F8846602F04FFA08B1C4F88866A7
:101E30000BF0A6F804F05AFE294B18606B79052BBD
:101E400003D1284B4FF4C8721A80274B4FF47A7293
:101E50001A80264BC8221A8098F8003043F00803F5
:101E600088F80030224B1A7822F002021A70AB6810
:101E70009A071ED51F4B204A1E461A6004F09CFC90
:101E8000282004F042FF069901390691F6D1316805
:101E90001A4B48781F7802460123974203D3013337
:101EA000082B0244F9D1164A13708A785343A4F8D8
:101EB0008C36AB689B030CD594F8633043F0010378
:101EC00084F86330032384F8643002E0032004F0D4
:101ED00053FF1FB0BDE8F08FE80500201406002076
:101EE000000500206C040020442600203C26002031
:101EF00052260020BC050020A81F0020C00500209D
:101F000094000020A14A2DE9F04F1368A04903F581
:101F10009C43A04D20330B60AB6885B013F4807FE9
:101F2000174604D09C4B1B681B681B699847AB681D
:101F300042F201041C405CB9984E337873B1964B61
:101F40001B681B681B68984706F0F6FF347005E0B5
:101F5000934B1A7801321A7006F0EEFFAB68DA0480
:101F600005D5904B1B68DB0701D40BF03DFC8E4B75
:101F70003C681868037CCBB18C4A013B32F91300F2
:101F8000A0F57A70B0F57A7FA8BF4FF47A7020EA96
:101F9000E0700CF0DFF986490CF0E4FA85490CF0AA
:101FA0002DFA0CF017FC7E4B588039E0AA68160415
:101FB00036D57B4A5168611A002931DB04F59C4112
:101FC000203151607C494E797C4931F81660417C62
:101FD000B6B296FBF1F0117A013101F00F011172E6
:101FE0000A44507218466E4E06F109029A5C01339B
:101FF0001044102B80B2F6D100B290FBF3F000B287
:102000006428A8BF642020EAE0700CF0A3F96C49B2
:102010000CF0A8FA67490CF0F1F90CF0DBFB7080CA
:10202000AB68D80510D5674B9C42674C08D923682C
:102030001B681B6A984718B923681B685B6A984736
:1020400023681B685B699847AA68DFF860A112F4EF
:10205000805F504BB5F8DC10BAF9062007D0B3F812
:102060001A31581A824207DD19448A4202E0B3F855
:102070001C319A42C0F254840122002195F8238138
:1020800095F82401B5F81C61B5F81E710B463AF9B4
:1020900001409B08B442C4BF63F07F03DBB202314E
:1020A000BC42B8BF43F040030829F0D13C4C617EEC
:1020B000994204D1A17EF92903D8013100E0002121
:1020C000A1766376414B374F1978A1B93B68D907A0
:1020D00007D582B93E4B1B78DB070CD508F002F917
:1020E00009E03B4B1B785E0705D510B10BF07CFB7C
:1020F00001E0002AFAD0A37E294A142B354E40F085
:102100009980334B18F100081B7818BF4FF0010875
:1021100003F0040303F0FF0093B12C490B78002B6C
:1021200000F08880537E5F2B01D10BF05DFBB8F18E
:10213000000F7FD0637E7D2B7CD10BF055FB79E0C7
:10214000537E572B0BD1244B4FF47A721A80234BBA
:102150001B6813F008036DD1214A13806AE0A96857
:10216000490745D55A2B43D11E4B197819B1187020
:1021700001221D4B4DE0D17E1C4B81F00101D17637
:1021800009B1042245E0062243E000BF38260020C2
:1021900044020020A41E002040020020380100203C
:1021A000E80D0020500200203C0100201A0700200A
:1021B00000007A4400C07F44780700208807002090
:1021C0000000C842404B4C005C0A00203800002050
:1021D00052260020E8030020442600204C02002064
:1021E000E0040020990400209B0400209A040020B1
:1021F0005D2B00F01D835B2B00F01C835E2B0AD14E
:10220000032218E3A72B40F05F83AA4B1A7842F011
:1022100004021A700EE0562B01D10AF05FF8A64AAC
:102220001378002B00F01D83637E6F2B40F0138327
:1022300008F058F8AB685B0731D5E37E9BB19F4B44
:102240001B7858070FD59E4BBAF90620B3F81C31FE
:102250009A4208DD3B6813F0010304D1994A322108
:102260001180994AD3763B68D9030AD5974B1A78DF
:102270002AB9974A127812B9924A32211180012262
:102280000CE0934B1A7852B18C4A127802F0040297
:1022900002F0FF011AB919708E4B01221A70D6F89C
:1022A0000090002309F1750B3B6009F17706984611
:1022B0000BF1020303EB080113F808204B7816F822
:1022C000010C9A420AD2314605F0FEFE30B116F8F2
:1022D000023C01229A403B6813433B6008F104082A
:1022E000B8F1A00F06F10406E2D17B4B1B7843B195
:1022F0003B68DFF8FC8113F0020F784E40F09A81C2
:102300008FE109F21512019209F58B769846019A30
:1023100016F8010C531C03EB080113F808204B7846
:102320009A4228D2314605F0CFFE20B3B0786C4BEC
:10233000013800EB400096F804B018444FF00C0C44
:10234000F3780CFB0BFC00935F4B03F11C0909EBCA
:102350000C014A6882420ED0009A09F80C20002233
:102360008A60012202FA0BFB93F84C20486022EAB3
:102370000B0B83F84CB008F10608B8F1480F06F1D2
:102380000606C4D1574BDFF86C811E68564B4FF0E0
:102390000009D3F800B0D8F80030002B00F03881E5
:1023A0001978002900F03481D8F80420C2EB0B0220
:1023B000002A0CDB0BF5FA72C8F80420012202FA9D
:1023C00009F294F84C0020EA020284F84C2018F834
:1023D000040C5A780430C0B2002A40F0E1803AF987
:1023E0001020B5F81A0100F1C80C624501DD9B7898
:1023F00013E0C838824202DA9B785B420DE0012389
:1024000003FA09F394F84C2022EA030384F84C30D1
:102410000BF5FA73C8F80430FAE094F84C2042FA4D
:1024200009F2D20700F1F480002B304ACCBF022021
:102430000120013910700A2900F2E280DFE801F082
:10244000060F1B28315C6E80929CA60032781344E4
:10245000FA2BA8BFFA2323EAE373337007E07278FC
:102460001344642BA8BF642323EAE37373703046DC
:1024700004F014FBC4E0F27830461344642BA8BF88
:10248000642323EAE373F370216D04F0C3FAB7E029
:1024900032791344642BA8BF642323EAE3733371B6
:1024A000AEE072791344642BA8BF642323EAE3737C
:1024B0007371A5E08202002038000020522600201F
:1024C000A41E002080040020E80D002098040020B5
:1024D000990400209B0400204C2600205402002078
:1024E0000443010898050020A01E00209A04002043
:1024F0004C020020080E0020616D4A781A44C82A58
:10250000A8BFC82222EAE2724A700A781344C82B94
:10251000A8BFC82323EAE3730B7071E0616DCA7A28
:102520001A44C82AA8BFC82222EAE272CA728A7A6A
:102530001344C82BA8BFC82323EAE3738B725FE060
:10254000616D4A7D1A44C82AA8BFC82222EAE272F5
:102550004A750A7D1344C82BA8BFC82323EAE37336
:102560000B754DE0626D91780B44C82BA8BFC82352
:1025700023EAE373937043E0626D117B0B44C82B35
:10258000A8BFC82323EAE373137339E0626D917D1A
:102590000B44C82BA8BFC82323EAE37393752FE02D
:1025A000012A2DD13AF910009B784FF49662B0F5CC
:1025B000617F92FBF3F305DB40F633029042B8BF34
:1025C000024601E04FF46172A2F5617292FBF3F3EF
:1025D000DBB2A84A581C0C29107011D194F858206D
:1025E0009A420DD0A44A042B28BF02230A2184F862
:1025F000583001FB0323A14A0633136004F068FA44
:10260000012303FA09F394F84C20134384F84C3067
:1026100009F10109B9F1040F08F10C087FF4BBAE10
:1026200066E6AB68D80514D5954B1B681B689B689C
:10263000984770B1D8F800309B070AD5338813F05B
:1026400001020CD18F4943F00103E26522660B8041
:1026500006E03388012223F00103338000E00022EA
:102660003B68590710D57AB1328822F0010102F097
:10267000020289B292B2318052B9E2652266814A81
:1026800041F00201118003E0328822F00202328020
:1026900032887D4912F0030F4FF0100014BF4861DB
:1026A0000861D8F8001011F00A0F21D0D80609D51A
:1026B00050070AD442F004023280744A1088744AE7
:1026C000108002E022F0040232809806328806D59B
:1026D000500607D46B4842F04002028002E022F02C
:1026E00040023280580603D5684A1288A4F8642054
:1026F000890640F18880674A127892077CD5664A3D
:102700001278042A78D913F4007C328812D002F0AF
:1027100010039BB2002B76D15A4922F0200242F0DE
:1027200010025E480A805E4A011D537007F004FCE7
:10273000022366E022F0100189B2580531802ED5BF
:10274000584B1B685889584BB3F90080B8F1000FFB
:10275000B8BFC8F10008804509DAB3F90230002B90
:10276000B8BF5B428342ACBF0023012300E0634655
:10277000DB0714D502F0200292B2002A43D1484B65
:102780004A485A704A4B41F020011A685B68318010
:10279000011DA367626707F0CFFB012331E022F040
:1027A000300232803E4A53786BBB012151701A4689
:1027B0004049002050524049404C5052404904EB9F
:1027C000030C5052002119510232CCF80400CCF80D
:1027D000081004F1280C503443F80C1019519C4493
:1027E0001C44042ACCF80400CCF808106060A160F6
:1027F00003F11403DCD106E0338823F03003338087
:10280000002384F870303B6813F4006F338814BFE2
:1028100043F4807323F4807333806B79082B02D0E8
:102820000E2B40F09080338823F0400333808AE001
:10283000012200E002225FFA82F808F1FF3385F8F6
:10284000543707F0F7FD0AF029FD022028214246FF
:1028500004F06CFAEEE4B8F1000F02D07E2B3FF4E6
:10286000E7AC637E972B7FF4CDAC164B4FF4C87268
:102870001A80DFE49A040020F42500209805002047
:102880005C0A002054020020000C0140E0040020FB
:102890007A05002082020020D0050020500E002082
:1028A000380000208C050020620200205C0E002011
:1028B000DC0500204E26002090050020640E00203C
:1028C000940500206C0400200022BB2B039201D150
:1028D000022303E0B72B04D14FF6FE73ADF80E30A0
:1028E0000AE0BE2B01D1022304E0BD2B7FF4A2AC91
:1028F0004FF6FE73ADF80C303368BDF80C10B3F82A
:1029000054200A44A3F85420BDF80E10B3F8562002
:102910000A44A3F8562009F0E1FC0023A37689E4D9
:102920000A4B00220021DA651A66C3F8F420C3F8C6
:10293000F820C3F8FC20C3F80011C3F80411C3F851
:102940000811FFF79ABB05B0BDE8F08FE80D002035
:10295000664B2DE9F04FB3F90600654B87B01D6853
:102960002B8998420EDBB0F5FA6FAF7907DAC21AFD
:102970005743A3F5FA6397FBF3F7643703E0C7F116
:10298000640700E064275B4B5B4AB3F81A1193F9C4
:10299000EC3016685B4204919BB2002105933446EB
:1029A0000A46524BDDF810C0CB5E40F2E63E039380
:1029B000CCEB030303F2F31CF44503D8002BB8BFA0
:1029C0005B4201E04FF4FA73022ADFF8388131D01C
:1029D00096F85DE1BEF1000F04D07345CCBFCEEB9D
:1029E000030300234FF0640EDFF814A193FBFEFCF9
:1029F0006FF0630B3AF81C900BFB0C3B0CF1010CD5
:102A00003AF91CA00FFA89FCCCEB0A0C0CFB0BFC6E
:102A10009CFBFEFCCC4428F801C095F804C003FBE5
:102A20000CFC364B9CFBF3F373449BB27B4393FB50
:102A3000FEFE1BE096F85EE1BEF1000F04D0734588
:102A4000CCBFCEEB03030023DDF814C003FB0CFE68
:102A5000A8F804E095F805E0002BB8BF5B4203FB43
:102A60000EFE264B9EFBF3FE0EF1640EB31893F898
:102A70000480DFF894C00EFB08F8642398FBF3F899
:102A800002F80C8094F80E900CF103080EFB09F983
:102A900099FBF3F902F8089094F818800CF1060CF1
:102AA0000EFB08FE9EFBF3F302F80C30DDF80CE0A1
:102AB000049B9E45DFF84CE004DA3EF801305B42AF
:102AC0002EF801300132032A01F1020104F1010460
:102AD0007FF467AF074EB6F81C31984216DBB0F5AD
:102AE000FA6FA8BF4FF4FA6011E000BF1A07002088
:102AF00098050020A41E0020E80300200CFEFFFF24
:102B0000F80E002062020020060F00201846C01AAE
:102B10004FF47A725043C3F5FA63B0FBF3F36427C2
:102B2000A34C93FBF7F204EB42016FF0630000FB50
:102B30000233098B04EB4202B2F91A000AB2821A7C
:102B4000534393FBF7F739449A4F9B4D3B88AEF8BC
:102B500006105A063DD5994B1888994B1B88C01A08
:102B600000B20BF0F7FB97490BF048FC80460EF0E3
:102B700037FF814640460EF0A7FF8046B5F90200B8
:102B80000BF0E8FB8246B5F900000BF0E3FB494689
:102B900083460BF033FC41460346504602930BF04C
:102BA0002DFC029B014618460BF01EFB0BF0ECFDC2
:102BB0004946288050460BF021FC41468146584644
:102BC0000BF01CFC014648460BF010FB0BF0DCFD43
:102BD0006880B26840F602031340002B53D07A4B52
:102BE00006211D88236B1D4494F83430256301337E
:102BF000DBB2B3FBF1F084F8343001FB103313F097
:102C0000FF0F40D1930706D503F0D6FD03F0BEFDBC
:102C1000674B83F83500B368180532D56B4BA16B51
:102C20005A7B6B4B33F81200082391FBF3F280B20E
:102C30008A1A0244A26392FBF3F292B240F6E44392
:102C40005A43644B40F6FF71B2FBF1F219684FF43E
:102C50007A73C8888988121A5A4392FBF1F2554355
:102C60005D4995FBF3F30A60D4E91001C01841EB0C
:102C7000E371C4E910010023584A0BF0CBFD584B17
:102C80001860002323635749494A0B6894F835803C
:102C900013F4805318BF012382F84830B3688A4682
:102CA00013F4807F504D2CD0DFF850912878D9F85C
:102CB0000030C0F380001B685B68984760B1012357
:102CC00084F84930D9F800301B68DB68984718B1A0
:102CD000374B022283F84920D9F800301B689B68E3
:102CE000984728B12B7859075CBF022384F84930F4
:102CF000D9F800301B689B69984710B1002384F80D
:102D000049303A4B1A6892060DD5DAF8003013F4C0
:102D1000C06F05D0364B1B789B0701D4012300E020
:102D2000002384F84A3094F84920214B022A02D12A
:102D30004C204E211EE0012A06D153204D214C2269
:102D40000B4606F0D9FE2BE093F84A20012A03D166
:102D5000532001464E2206E093F84820012A04D170
:102D60005320014602464D23EBE7B8F1000F04D093
:102D700053204D210A464423E3E73A88170603D53A
:102D800053204D210246DBE71A4A12781AB1192066
:102D900006F086FE04E0404683F84B8003F0BFFF58
:102DA0002B7858072CD5144B08225A6183E000BFBA
:102DB000F80E00205402002062020020E0040020EF
:102DC0004C0E002035FA8E3CFC04002078070020D1
:102DD00088070020BC050020C4050020407E0500B7
:102DE000C805002050020020522600204C0200207E
:102DF000820200209A040020000C0140600A00209A
:102E0000DAF80020D10703D4B74943F001030B706F
:102E1000B6490B6813F0020302D0B5490988A1B97D
:102E2000B449098801B12BB9B34B1B88003318BFD3
:102E3000012300E0012343B1B04BD96881F00801C0
:102E4000D9602B7823F001032B70AD4B1B781F0743
:102E500003D42B7823F001032B70D00203D52B78F9
:102E600023F001032B702B78A64A13F0010F05D035
:102E70000023E364A14B082119610BE0E16C1368A6
:102E800041B9A14903F5F42303F59073CB649B4B3F
:102E900008215961E36C12686BB1D21A002A0ADB6F
:102EA000964A03F5F423D16803F5907381F0080185
:102EB000D160954AD3640AF063F8944B1B7813B140
:102EC00004F0D6FCF9E3012007F075FA002800F0C1
:102ED000F483DFF8589299F84A30012B40F0E783E9
:102EE0008B4A8C4BD9F80010C2F8009019609246BA
:102EF000884A106803F076FF002800F0D283854BE3
:102F0000186803F06AFFDAF8003093F84820DAB95D
:102F1000B0F124014A424A4183F84820002AE7D10F
:102F20002B785B07E4D4232802D104F0A1FCDFE76F
:102F3000D4F8E8301B7D8342DAD1774A774B1A60A8
:102F4000774A784BDA60D3E7012A04D14D2814BFC1
:102F500000220222A2E3022A04D13C2814BF00224C
:102F600003229BE3032A0AD140284FF0000200F21B
:102F700095831A71DA715871987104228EE3042ACC
:102F800006D19A7983F8490050409871052285E36B
:102F9000052AADD159791A799142997906D94140DA
:102FA0009971511C197113441872A1E7814240F0C4
:102FB000728393F8490007F07BFB002840F066839A
:102FC000DAF8003093F84930C82B00F0DD8043D8A0
:102FD0002D2B00F0F08224D8252B00F0CD8206D8CE
:102FE000212B00F02382232B00F0688186E3292B1C
:102FF00000F0CD822B2B00F0D682272B40F07E8371
:10300000002003F069FC03F025FC474FA7F8E60019
:1030100003F020FCA7F8E80003F01CFCA7F8EA0086
:1030200031E3332B00F0DB820CD82F2B00F0ED8244
:10303000312B40F063833C4FC02003F04DFC07F17F
:103040008008F8E2412B00F0D282442B00F0158377
:10305000352B40F0538353E1D02B00F0F58169D834
:10306000CC2B00F07B8106D8C92B00F02782CA2B1D
:1030700000F0A28042E3CE2B00F0128240F2EF81FA
:1030800003F0E8FB03F0E6FB274FDFF8A480A7F886
:10309000D00003F0DFFBA7F8D20003F0DBFBD8F889
:1030A00000B0A7F8D40003F0D5FBABF8A80103F0FB
:1030B000D1FB03F0D9FBD8F8008003F0CBFB00EB89
:1030C00080004000A8F8520003F0BAFB87F8040122
:1030D00003F0B6FB87F8060103F0B2FB87F80501A1
:1030E00003F0AEFBCFE200BF522600204C020020CE
:1030F0003C2600206C04002044260020000C0140E7
:103100008202002038260020F80E00204C260020E5
:103110006006002064060020EFBEADDEF04F002008
:103120000400FA0500ED00E0A41E0020480F002076
:10313000E8030020D42B00F0438108D8D22B10D014
:1031400040F2E18103F086FBC94B18809BE2EF2B34
:1031500025D0FA2B00F0AE81D62B40F0CF8200278D
:1031600026E12B7803F0040303F0FF07002B40F067
:103170008A8203F065FBBF4B022883F8540740F2B4
:10318000698183F8547765E1002703F063FBBA4B4C
:10319000D8530237102FF8D10122B84B88E1B84F2D
:1031A000D7F8008003F056FBA8F856003F6803F0FC
:1031B00051FBA7F8540066E2B14B00271A68984605
:1031C0001278022A61D1D8F800B003F039FB07F178
:1031D00008020BEB820B0BF0B9F8AA490BF0C2F90D
:1031E000CBF80400D8F800B003F02AFB07F10A027C
:1031F0000BEB820B0BF0AAF8A3490BF0B3F9CBF859
:103200000800D8F800B003F01BFB07F10E020BEB2F
:10321000820B0BF09BF89D490BF0A4F90137032FAB
:10322000CBF80400CFD1072FD8F800B016D103F0A7
:1032300007FB0BF08BF893490BF094F9CBF848009F
:10324000D8F800B003F0FCFA0BF080F88D490BF0D1
:1032500089F9CBF84C0003F0F3FA12E003F0F0FA2E
:103260000BEB07031871D8F800B003F0E9FA0BEB89
:1032700007039873D8F800B003F0E2FA0BEB0703EA
:10328000187601370A2FCED1FDE1D8F800B003F04F
:10329000D7FA0BEB07031871D8F800B003F0D0FA97
:1032A0000BEB07039873D8F800B003F0C9FA0BEBE7
:1032B000070301370A2F1876E7D1E4E103F0C0FADB
:1032C000272821D86E4B00F11C081B6803EB8808E7
:1032D00003F0B6FA6E4B08F1050703F58A72197A06
:1032E000814203D00C339342F9D10DE01B7888F86A
:1032F000053003F0A5FA787003F0A2FAB87053E035
:1033000003F09EFA0B2804D90120002103F0C6FA2D
:10331000B9E14FF0060808FB00F0594B00F5887042
:103320001B6803EB000803F08BFA0328ECD888F83D
:103330000A0003F085FA88F8050003F081FA88F89E
:10334000060003F07DFA88F8070003F079FA88F8A0
:10335000080003F075FA88F8090094E14D4FD7F89A
:10336000008003F06DFA88F80000D7F8008003F0C1
:1033700067FA88F80100D7F8008003F061FA88F84E
:103380000400D7F8008003F05BFA88F80500D7F84E
:10339000008003F055FA88F80600D7F8008003F0A3
:1033A0004FFA88F802003F6803F04AFAF8706AE1C1
:1033B00003F050FA384BD8530237102FF8D162E19E
:1033C0004FF000082E4F08F12C0B3968029103F0E2
:1033D00041FA02994FEACB021144C8803968019240
:1033E000029103F037FA019A02991144088101927F
:1033F00003F030FA0728019A02D839680A4450735A
:10340000A0F57A7292B2B2F57A7F03D83A6802EBED
:10341000CB0250813F6803F013FA08F1010807EB73
:10342000CB03B8F1080F1873CCD12CE10027144B53
:10343000D3F8008003F004FA08EBC7030137082F24
:1034400083F86D01F3D11EE12B785F0700F11B813A
:1034500004F016FB06F0EEFF09F020FF13E12B78D5
:10346000580700F110810D4B4FF4C8721A800AE121
:103470007A050020A41E00201A0700203C0200202C
:10348000E8030020000020410000C84200007A4408
:103490002843010898050020E40F00206C04002058
:1034A0002B78590700F1EF80984B1A7842F004020C
:1034B0001A70E8E02B785A07CCD51FE103F0C0F969
:1034C000924B1A7810B142F0020201E022F002029F
:1034D0001A7003F0B5F98E4B8E4F187003F0C4F9D3
:1034E000386003F0C1F9786003F0B4F98A4B1880B2
:1034F00003F0B0F9894B188094F8043143F00203CB
:1035000084F80431BFE003F09BF9019003F0ACF9BB
:10351000029003F0A9F9804603F0A6F9074603F0EC
:1035200099F903F097F903F08BF9019A029B92B98C
:103530007B4A82E808017B4B1A8822F010021A802D
:10354000724B1A7842F001021A70002F00F09B8033
:10355000754B1F6097E0102A40F09580734A82E80F
:1035600008010FB1704B1F607048714B0222011DA2
:103570001A7006F0E1FC86E0002003F0ADF90023AC
:10358000B36003F071F9B3681843B0607BE00020CA
:1035900003F0A2F903F05EF9A6F8080103F05AF966
:1035A000A6F80A016FE0002003F096F903F048F94D
:1035B000604B587167E0002003F08EF903F040F98A
:1035C00086F8180103F046F9A6F81E0103F042F947
:1035D000A6F81A0103F03EF9A6F81C0153E00020FA
:1035E00003F07AF903F02CF986F820014BE0002073
:1035F00003F072F9002703F023F94E4B3B440137E7
:10360000082F83F81001F6D13DE0002003F064F9A3
:10361000484F07F1400803F01DF9A7F8D40103F063
:103620000FF987F8D60103F00BF9043787F8D301B7
:103630004745F0D127E003F00DF900F03F00A7F86F
:10364000560103F007F9B7F85621800100F4F8633A
:103650001343A7F8563103F0F3F8000187F854013B
:1036600003F0EEF897F8543100F00F00184387F894
:10367000540104374745DED105E0002003F02CF962
:10368000012384F80531002003F026F9DAF8003030
:10369000987903F0F2F8DAF80030002283F8482035
:1036A00026E494F8053113B1234A244BDA60244B05
:1036B00009F14C0999457FF40EAC22490B689B0631
:1036C00016D5214BD4F808211B689A1A002A0FDB63
:1036D0000F4A1278042A0BD91C4A03F5123303F55A
:1036E000F873C2F808311A4BDA6882F01002DA6017
:1036F000184B9B683BB11848984704E00120002113
:1037000003F0CCF8C2E707B0BDE8F08F82020020DA
:10371000D0050020DC050020CE050020CC050020CF
:10372000500E002054020020580200205C0E0020A1
:10373000580E0020A41E00200400FA0500ED00E051
:10374000E00F00204C02002038260020F80E002058
:10375000000C0140EC03002004100020032810B5E9
:103760000F4B0DD80F4A126894888C4208D2D28829
:103770008A4205D9012202FA00F01A781043187023
:103780001B780F2B0BD1064B00221A70064B998821
:1037900008B2142802DD1439998010BD9A8010BD3A
:1037A000081000209C1E0020500A0020024B9A881E
:1037B00001329A80704700BF500A0020074B1A68F8
:1037C000074B1178B3F9040053780B4403EB8303E0
:1037D0009842D4BF00200120704700BF9C1E0020EB
:1037E000500A0020064BB3F90400064B1B681B78F7
:1037F00003EB83039842D4BF00200120704700BF31
:10380000500A00209C1E002010B50446FFF7EAFF76
:10381000002814BF2046002000F0010010BD024B1C
:1038200001221A72704700BF500A0020014B187A1B
:10383000704700BF500A0020034BB3F90400D0F1D9
:10384000010038BF00207047500A0020014B0022C1
:103850009A807047500A002003685A1C0260197051
:103860007047016B0346C26810B5406941B1196CDD
:10387000541A005D013918BF0A46C0B21A6410BD5F
:10388000196A405C0131B1FBF2F402FB1412C0B2C0
:103890001A6210BD026B03691AB15168013B026CD8
:1038A00002E0C169026A013B881A1840C0B2704741
:1038B000436B13B190F844007047826A436AD31A8D
:1038C00058425841704743799B070AD5436A826939
:1038D000D154426A03690132B2FBF3F103FB1123B5
:1038E00043627047437913F0010307D0C368C1698D
:1038F000026A013B881A1840C0B2704718467047E8
:10390000437910B513F0010304460DD0FFF7EAFF29
:1039100058B1226A6369985CE3680132B2FBF3F143
:1039200003FB1123236210BD184610BD426A806A52
:10393000131A5842584170474171704710F80A3CB9
:103940000133DBB20A2B00F80A3C0AD910F8123C0A
:1039500023B910F8131C034A22F81130002300F891
:103960000A3C704756120020344A10B5136C906818
:103970001944334B1C7840F68C23E140081A9842D6
:103980009160D060516013463CD9127893F945108C
:103990008A420BD1111F082908D893F8461018291C
:1039A00001D8013103E083F8442002E0002183F8CC
:1039B000461093F944108A421CD1204991F84710CF
:1039C000C1B1002191421F4806DA03EB810424694A
:1039D00020F811400131F5E7511E00EB410116308E
:1039E000814203D0002421F8024FF9E716490878F4
:1039F0000130087083F84520002201211A7083F8F5
:103A0000471010BD92F84710B9B1A0F2EF2440F270
:103A1000DA518C4208D811780B2905D80B1D0131D9
:103A2000117042F8230010BD002283F84720991836
:103A300004320020302A0861F9D110BD100800209E
:103A4000380900205612002077130020024B1A6C10
:103A5000013211441964704710080020024B53F8DA
:103A600020301B68198070473C090020074BA1F5E6
:103A70007A7153F820304FF47A701A681B894B43DF
:103A800093FBF0F39BB21380704700BF3C0900200A
:103A90002DE9F04F504A514E17687389844630899A
:103AA000A7EB032785B0039187FB0001B288CB11F8
:103AB0001404C209F08842EA416287FB000114EB5A
:103AC000020872884FF000054FEAC2344FEA102214
:103AD000B08945EB030942EA01620B1287FB000142
:103AE00014EB020A4FEAD05242EA41224FF000059D
:103AF00045EB030B12F5FA604FEAE15343F1000185
:103B0000CDE90001B0F5FA6F71F1000147DAA2FBCF
:103B1000024502FB03F1052605EB4105A4FB060166
:103B200006FB05114D104FEA3004B8EB040869EBB1
:103B3000050984082A4844EA81748D104FF0FF314A
:103B4000BAEB040A6BEB050BDDE9004584428D41BD
:103B500025DA40F6AC5012184FF0000143EB010398
:103B600002FB03F1A2FB02236FF0060003EB41030B
:103B7000544200FB0344A2FB000118EB000821445F
:103B80004FF00B0449EB0109A2FB040104FB0311F4
:103B900049104FEA3000BAEB000A6BEB010B114BF6
:103BA0001A68A2FB0A0102FB0B11420D42EAC12274
:103BB0004B15B2EB080263EB0903D00B40EA43401C
:103BC000BCF1000F01D0CCF80000039808B10099B7
:103BD000016005B0BDE8F08FD0110020CC070020B7
:103BE00024FAFFFFD4110020324B2DE9F0411C884C
:103BF000314B0A265A89B3F91250A41A1A89ED02D8
:103C00005443B3F91420E413224495FBF2F2224406
:103C1000DA615643A2F57A6202FB02F4B3F904803A
:103C2000B3F902C0B3F90E7002FB0CFC02FB08F200
:103C3000B3F90C802413674304FB08F4241404EB49
:103C400062320232DC88921002F50042B3F9205051
:103C50006243B3F900304FEAEC2404EBE72404EBB1
:103C60008304AC40154B02341B68D20BA3EBA404B5
:103C70004CF250332B41634355BF5B00B3FBF2F36F
:103C8000B3FBF2F35B001A12524340F6DE34624398
:103C90000B4C08365C43241404EB224202F6CF623C
:103CA000361103EB221300B1036001B10E60BDE8D1
:103CB000F08100BFE0110020E0070020DC110020AF
:103CC00043E3FFFF08B503681B68984708BD10B5BC
:103CD000094C5E280146206805D15D21FFF7F2FFFF
:103CE00020683E2105E05D2903D1FFF7EBFF206846
:103CF0003D21BDE81040E5E7B0050020054B1B68FD
:103D000003EBC00090F9063019420CBF01204FF0C0
:103D1000FF307047281D00200A4B1A6802EBC002D2
:103D2000D379FF2B07D008490978994203D9074A6C
:103D300032F8130004E00728D4BF908840F2DC502A
:103D400000B27047281D0020670A00201A070020D3
:103D50002DE9F04F0C68836889B0D0F800A0D0F846
:103D600004800646204603938B460DF039FE074635
:103D700020460DF0A9FEDBF80440814620460DF0F8
:103D80002FFE054620460DF09FFEDBF80820044676
:103D9000104601920DF024FE019A834610460DF064
:103DA00093FE3946029058460AF028FB39460490A3
:103DB00002980AF023FB5946059048460AF01EFB7C
:103DC0000299069048460AF019FB29460790584682
:103DD0000AF014FB014650460AF010FB21468346C8
:103DE00006980AF00BFB014605980AF0FFF9014618
:103DF00040460AF003FB014658460AF0F7F921460F
:103E0000834604980AF0FAFA014607980AF0ECF99A
:103E1000014603980AF0F2FA014658460AF0E6F91C
:103E20003060029905F100400AF0E8FA0146504678
:103E30000AF0E4FA2146834607980AF0DFFA0146C1
:103E400004980AF0D1F9014640460AF0D7FA014633
:103E500058460AF0CBF92146834605980AF0CEFA77
:103E6000014606980AF0C2F9014603980AF0C6FA1C
:103E7000014658460AF0BAF92146706050460AF0E9
:103E8000BDFA2946044609F100400AF0B7FA014696
:103E900040460AF0B3FA014620460AF0A7F939462F
:103EA000044628460AF0AAFA014603980AF0A6FA40
:103EB000014620460AF09AF9B06009B0BDE8F08FDB
:103EC0002DE9F84F2E4E0446376838460DF088FD30
:103ED000054638460DF0F8FD7668804630460DF010
:103EE0007FFD834630460DF0EFFDD4F80490064682
:103EF000294648460AF082FAA76882464146384673
:103F00000AF07CFA014650460AF06EF921688246B2
:103F100058460AF073FA4146044648460AF06EFADB
:103F200031460AF06BFA014620460AF05FF9314645
:103F3000044638460AF062FA29460AF05FFA01465A
:103F400020460AF053F9014650460DF04BFE0D494C
:103F50000AF054FA0C490AF005FB0C4B19680AF0F8
:103F600045F90B490AF0FEFA0DF070FD83B21A0410
:103F700044BF00F5B4739BB218B2BDE8F88F00BF20
:103F8000CC0400200000E144DB0F4940040800207D
:103F900000002041064B1B7803F0040303F0FF00F0
:103FA0001BB1044B1888C0F3C01000F0010070472B
:103FB00052260020540200202DE9F04102780346E9
:103FC000202A00F10100F9D0092AF7D02D2A02D1C8
:103FD0000346414D04E02B2A08BF03464FF07E55AF
:103FE0001E460024334616F8012BA2F13007F9B221
:103FF00009290DD8394920460AF000FA0446384606
:104000000AF0A8F9014620460AF0F0F80446E9E76C
:104010002E2A17D1314F334616F8010B3038C2B271
:10402000092A0FD80AF096F939460AF09BFA014698
:1040300020460AF0DBF82949044638460AF0DEF942
:104040000746E8E71A7802F0DF02452A38D15A78A5
:104050002D2A02D10233012604E02B2A14BF01339A
:1040600002330026013B002713F8012F303AD1B26A
:10407000092903D80A2101FB0727F5E7B7F59A7F3D
:1040800028BF4FF49A77B8464FF07E51B8F1070F2A
:1040900007D9084612490AF0B1F9A8F10808014603
:1040A000F4E707F0070737B108460C490AF0A6F90C
:1040B000013F0146F7E72EB120460AF053FA04E02B
:1040C0004FF07E5120460AF099F9014628460AF041
:1040D00095F9BDE8F08100BF000080BF00002041DD
:1040E00020BCBE4CF0B50124B0FBF4F58D4201D3E9
:1040F0004C43F9E70026DCB1B0FBF4F504FB1500F6
:10410000B4FBF1F41EB9002D01DC002CF3D1092D14
:1041100003F101075FFA85FC04DD002A0CBF572577
:10412000372500E0302565441D7001363B46E2E747
:104130001C70F0BDF0B50124B0FBF4F58D4201D345
:104140004C43F9E70026DCB1B0FBF4F504FB1500A5
:10415000B4FBF1F41EB9002D01DC002CF3D1092DC4
:1041600003F101075FFA85FC04DD002A0CBF572527
:10417000372500E0302565441D7001363B46E2E7F7
:104180001C70F0BD70B50646B6FBF2F40846154645
:1041900014B12046FFF7F6FF05FB1464024B1B5DCC
:1041A00000F8013B70BD00BFBF5801082DE9F04188
:1041B000069C002B06460F460CBF4FF020084FF020
:1041C0003008234613F8011B09B9154603E0002AFD
:1041D000FBDD013AF6E7002D04DD30464146B847E5
:1041E000013DF8E714F8011B11B13046B847F9E773
:1041F000BDE8F08180EAE073A3EBE0738B4206DB5D
:10420000002801DD401A704702D0084470470020A2
:104210007047034B9A6822EA00009860704700BF1D
:10422000A41E00200E4B1B78BBB10E4B1B681A78E6
:10423000032A06D10C4B187802288CBF00200120DD
:1042400070475B7823B1094B1868C0F3C0407047D2
:10425000074B1878C0F3800070470120704700BFFB
:10426000D60D0020AC0500206C0600205002002076
:1042700052260020114A30B50028B8BF4042104CE9
:1042800090FBF2F304FB03003C2568430D4D90FBCB
:10429000F2F22D682D7B25B903EB830303EB830337
:1042A00001E0C3EB031302EB830304FB02020B8068
:1042B0004FF47A7392FBF3F24A8030BD80969800F7
:1042C000806967FFD4050020034B1B681878C31E64
:1042D00058425841704700BFAC05002008B5064859
:1042E0000DF090F9C0B2142805D8034A431C2021D0
:1042F0001154D8B2F7E708BDFD110020094A0A4859
:10430000002310B5116803701A46CC1864880CB9E4
:10431000CC5C24B104330132802BD2B2F5D10270CF
:1043200010BD00BF940600201807002010B50B4BED
:104330000B4819780B4B5A784B085C1E047001F03F
:10434000010109480B44037008495308581E0870BE
:1043500002F00102064913440B7010BD5107002002
:104360004C070020081000204E0700204F070020B7
:104370004D070020F0B50F4A0F4816780F4A00236A
:10438000176843701A4619460546D0B2B0420CD29F
:1043900017F82200013204099C4200F00F00A8BF68
:1043A000631C8842A8BF411CEFE76B70044B197077
:1043B000F0BD00BF18070020081000209406002060
:1043C00051070020F8B5101A0C461F4609F0C2FF2D
:1043D0000546381B09F0BEFF174B079E19680AF007
:1043E0000DF82946044628460AF008F821460746F3
:1043F00020460AF003F80146384609F0F7FE0DF0B2
:104400007BFD0E4909F0FAFF0AF0E4F9069B21460C
:10441000186005F100400DF0E5FB094909F0EEFFD9
:10442000084909F0E3FE0AF0AFF90028BCBF00F527
:104430000C40A0303060F8BD3C0000202C7D8E3F49
:10444000A00CB34500A00C4610B509F083FF002175
:1044500004460AF08FF908B1204601E004F100405B
:1044600005490AF07FF8054909F0C8FF0DF0B8FAD0
:10447000034B186010BD00BF8096184B35FA8E3C78
:104480003C00002070B50446007909F05FFF1E492A
:104490000AF068F81D4D1E4E2860A07B09F056FFFB
:1044A00019490AF05FF8EE606860607909F04EFF24
:1044B00018490AF057F8184D2860E07B09F046FFCC
:1044C00011490AF04FF86860607E09F03FFF134918
:1044D0000AF048F8EE60A860A07909F037FF0D49AE
:1044E0000AF040F80E4D2860207C09F02FFF0649A5
:1044F0000AF038F86860A07E09F028FF07490AF042
:1045000031F8EE60A86070BD0000C8428C11002038
:104510000000FA44000020419C11002000007A4471
:10452000C011002044F25063984203DDA0F50C4016
:10453000A0387047034B9842BCBF00F50C40A03038
:10454000704700BFB0B9FFFF2DE9F041038A8789AA
:104550000446BFB20D461F40002F36D0B7FA87F38E
:104560004FF00042DA40D24391B21B3B2182174008
:10457000042BF1D8DFE803F0221F1C1903006B6A3B
:1045800033B103F1FF3800231FFA88F86B6203E0B0
:10459000B4F82C801FFA88F82E6A002EDCD033681D
:1045A0003046414698477668F7E72868A18E08E0CC
:1045B0006868218F05E0A868A18F02E0E868B4F878
:1045C0004010036889B29847C6E7BDE8F0810C4BFC
:1045D000800A98420CD003D8B0F5801F0ED00BE0B3
:1045E000084B984206D04933984205D100207047C5
:1045F0000220704703207047FE207047012070475B
:10460000010010000200100090F83B3210B57BB999
:1046100090F83A3290F83922934209D20121994018
:10462000B0F8404201332143A0F84012DBB2F3E777
:1046300010BD8379012B03D1D1F1010138BF0021D5
:10464000D0F834315A681B8909B11361704753613E
:104650007047044B53F820301BB107289CBF1B68E0
:10466000198070476C09002010B5054C0020218886
:10467000FFF7EFFF61880120BDE81040E9E700BFC8
:10468000840000202DE9F0410F88002347FA03F24F
:10469000D2072BD58A7803F0070512F0100F18BF48
:1046A00091F803C002F00F0618BF46EA0C06AD00F1
:1046B0004FF00F0C0CFA05FC06FA05F5DC0850F873
:1046C0002480282A28EA0C0C45EA0C0540F82450DE
:1046D00005D101229A40C46824EA020205E0482A72
:1046E00004D101229A40C4682243C2600133102BD6
:1046F000CCD1BDE8F08100BF2DE9F04F974B91B0D0
:104700001B68BBB9964C2378013B042B00F2F08662
:10471000DFE813F00B060B060B06DE06C406206866
:1047200002F05BFB8F4B04461B681B784BB1012BDF
:1047300000F0ED80894C206802F054FB0028EED197
:10474000E0E72428884D0CD006D80A2800F08E8097
:104750000D2800F08B80C6E02A2806D02C2804D033
:10476000C1E02B706B70AB70CEE06A782E782A4473
:1047700000217D4BD170EEB9DA789E74472A19D1A9
:104780001A79502A16D15A79472A07D19A79472A95
:1047900004D1DA79412A01D101229A746A79724BE3
:1047A000522A07D19A794D2A04D1DA79432A04BFD3
:1047B00002229A74AB7C6C4F012B02D0022B36D0B4
:1047C00049E0B31E072B46D8DFE803F004081014B5
:1047D0001C27452C07F038F868613CE0EA78624B0A
:1047E000532A38D15A6952425A6134E007F02CF802
:1047F000A86130E0EA785C4B572A2CD19A69524282
:104800009A6128E0EB78302B584B1A788CBF42F035
:10481000020222F002021A701DE0002007F06EF87A
:10482000287718E0002007F069F8E88313E0072EE6
:1048300006D0082E0FD1012007F060F878840AE036
:10484000012007F05BF841F2184358434FF47A72A5
:10485000B0FBF2F33B84013600232A2C424A2E702F
:104860006B704CD1012182F824104DE095F8243072
:10487000002B34D03C4BDB78402B04D9A3F137021A
:104880001201D2B202E01B0103F0F0022B79A978E9
:10489000402B8CBF373B303BDBB21344DBB2994239
:1048A000314A1BD1937C012B08D0022B16D1118CDD
:1048B0002F4B528C19802F4B1A800FE02B4909780F
:1048C0008E070CD52C495069086090694860107FAC
:1048D0002A490870D18B2A4A118000E00023002267
:1048E00085F8242010E06B781F4A0E2B03D8591C42
:1048F00013445170DC7095F824301B4A1BB9917831
:104900004C40947000E0002303F0010361E1164B7A
:10491000002193F82520082A00F25A81DFE802F0EE
:104920000B0514324353718D9A00622801D1022283
:1049300007E083F82510B52C40F04A8193F8252034
:10494000013283F8252043E1032283F8252083F8F0
:10495000260083F8270083F8280039E1A40A002004
:10496000840A0020A00A00200C10002082020020EF
:10497000CC050020C6180020DC050020D005002052
:10498000CE050020042283F8252093F8272093F8F1
:1049900028100244D2B283F827200A4483F8282042
:1049A00083F8290014E1052283F8252093F82720B5
:1049B00093F828100244D2B283F827200A4483F8DF
:1049C0002820588504E1062183F8251093F8271044
:1049D00093F828002144C9B283F82710014483F8D2
:1049E0002810598D6C4A01EB0424A4B2B4F5007F61
:1049F00089BF00215485518582F8251000229A85AF
:104A0000E6E093F8272093F828100244D2B283F806
:104A100027200A4483F828209A8DC72A03D85E49A4
:104A2000114481F83000013292B29A855B8D934235
:104A300040F0CE800722584B83E7082283F82520D8
:104A400093F82730834200F0C380534A002382F852
:104A50002530BEE083F8251093F828104E4A814295
:104A600040F0B68092F82910062947D004D80229D0
:104A700012D003292CD0ABE012295CD0302940F0B1
:104A8000A78092F83410454A102988BF1021117070
:104A90001078434900225CE04249506B4860906BBB
:104AA0000860116C4FF47A7091FBF0F13E48018080
:104AB00092F8F8103D4A19B1117841F0020102E074
:104AC000117821F002011170012283F8F92055E0DC
:104AD00092F8351011F0010105D092F83420D41E5F
:104AE0006242624100E00A4683F8F820002A45D17C
:104AF0002E4A117821F0020111703FE092F83B102C
:104B000011F0010105D092F83A20D01E42424241F4
:104B100000E00A4683F8F82022B9244A117821F0EF
:104B20000201117093F85F10214A1170B3F85C1004
:104B3000204A118022E0516C1F480180916C42F2A2
:104B4000107091FBF0F11D480180012182F8FA10EC
:104B500014E0824201F10C0110DA11F8045C184CE7
:104B6000155511F8035C174C155511F8015C164CDE
:104B700015550D78154C15550132EAE793F8F930C3
:104B8000054A2BB392F8FA3013B3002382F8F930B8
:104B900082F8FA3001231CE00C100020C818002015
:104BA0003C100020DC050020CE0500208202002001
:104BB000D00500209C000020CC050020C618002055
:104BC000C9180020D9180020E9180020F918002081
:104BD0000023002B3FF4AEADA54BA64E9A68DA60D9
:104BE00032689A60A44B1A6842F020021A60A34B04
:104BF0001A78012A0CBF002201221A70A04B1A78E1
:104C000091077FF597AD9F49097804297FF692AD0A
:104C10009D49097801F0040101F0FF0011B922F06B
:104C200001021A701B78964F13F0010F974C984DA4
:104C300011D180B19B070ED5964B28686A68186021
:104C40005A60FFF701FC944B1B88A4F8FC303B78BA
:104C500043F001033B7094F8FE304FF00509013337
:104C600093FBF9F909EB8909C9EB03098B4B8C48D4
:104C70001B7884F8FE900593831D03EB8909079048
:104C80000023DFF80CE2874A53F80E00864F985055
:104C900090FBF7FC02F1080743F807C0834F03EBD2
:104CA0000E0107FB0C0742F2107097FBF0F0069123
:104CB000079980B221F8020F02F1100A03EB830B6F
:104CC0000490079153F80A0059F80B1049F80B703B
:104CD000C1EB000808EB0700734F4FF0050843F8DD
:104CE0000A0090FBF8F007FB0C0005991832012927
:104CF0009850774608D1DDF810E0AEF10202B2F527
:104D0000797F9CBF069908600433082BB9D1DFF87E
:104D10007C813068D8F84C31C01A09F017FB64491F
:104D200009F020FC33684FF07E51C8F84C318146C1
:104D300009F002FD10B94FF07E5000E048460CAA81
:104D4000C4F85001534B00920DAA019297E803005A
:104D50000CCBFFF737FB0C9B56496422B3FBF2F3F5
:104D60000D980B80544B90FBF2F21A80444A474E48
:104D7000127812F0010208BF1A8098F8543108BF67
:104D80000A80002B3AD0D6F850114FF07E5009F02F
:104D9000E9FBD6F8583181462868C01A09F0DAFADA
:104DA000494609F02BFB09F0EFFCD6F85C211FFA0D
:104DB00080FA68680FFA8AFA801A09F0CBFA3F4B3A
:104DC000196809F01BFB494609F018FB09F0DCFCE7
:104DD000B6F9623100B2C218B6F96031022153440B
:104DE00092FBF1F293FBF1F392B29BB2A6F866212B
:104DF000A6F86431A6F86221A6F86031012388F88C
:104E000054312F4B79681B88386803F030031F4EEC
:104E10001F4DC8F85C11C8F85801002B3FF48AAC4C
:104E200006F5B873009306F5BA730193D6F86821B6
:104E3000D6F86C31FFF7C6FA6B68D6F86C01C01A69
:104E400009F088FA1D4B196809F0D8FA09F09CFCA2
:104E5000D6F868312A68C6F87C019B1AC6F8783102
:104E60000E4B1B78012B2DD0022B00F0F58061E456
:104E7000840A0020A01E00204C020020FC0F00200D
:104E800082020020D0050020522600200C100020B5
:104E9000DC050020500E0020E0040020580E002009
:104EA0000A1100203811002080969800806967FF61
:104EB00000007A4440060020420600203C0000200A
:104EC00054020020D6F89C41D6F89031D6F88021C3
:104ED000D6F8947104F1004005930492079709F005
:104EE00053FC0746204609F04FFC8C4BD6F8505136
:104EF0001B68D6F898618A4C0890069609934FF083
:104F0000000ADFF83C9259F81A60A9F11402304601
:104F10003AF8028009F01EFA049909F06FFA09F0D4
:104F200033FCC8EB000080B209F128092AF8090017
:104F30000FFA80F9484609F00DFA059909F05EFA72
:104F400009F022FC1FFA80FB09EB060009F002FAC7
:104F5000079909F053FA294609F050FA216809F037
:104F600045F909F011FCB84204DB089A9042A8BF49
:104F7000104600E0384609F0EDF9206009F004FC25
:104F800058441FFA80FB606808F13108301A09F0B4
:104F9000E1F9294609F0E6FA099B20610246987872
:104FA000D4F80890039209F0D1F95E4909F026FA85
:104FB00001464FF07E5009F0D5FA294609F016F95E
:104FC0000146284609F0CEFA039A8446494610461F
:104FD000CDF80CC009F008F9DDF80CC001466046B8
:104FE00009F00CFA0146484609F000F91FFA88F862
:104FF000B8F1620F014620616660A0600ED9069884
:1050000009F0FCF909F0C0FB474AB0F5FA6FA8BFF8
:105010004FF4FA609042B8BF104600E0002083448D
:1050200040F6B8320FFA8BFB9345A8BF93463F4A30
:105030000A219345B8BF934601FB0AF13C4A54F854
:10504000140B2AF802B03B4A0AF1020ABAF1040F23
:1050500088503FF46FAB54E7304BD6F870911F681F
:10506000B6F8A451B7F808A04FEA59039A4528BFEB
:105070009A462BB29A4502DC1FFA8AFA0BE02E49B7
:10508000D6F8500109F0BAF909F07EFB28441FFA5E
:1050900080FAA6F8A4A1D8F87451D8F8A861AE1B7C
:1050A0003046FFF73FFA0028D8BF404241F2931341
:1050B0009842CCBF00200120002843D0304609F0A0
:1050C00049F91E4909F09AF90CF0FEFC06464846DB
:1050D00009F03CF90146304609F090F909F054FB1B
:1050E00080B240F6B83203B29342A8BF13460F4ACB
:1050F000A8F8AC019342ACBFEB18AB1848F6A0423D
:10510000934203DDA3F50C43A03B04E0002BBCBF9E
:1051100003F50C43A033C8F8B03115E08C0500202E
:105120008C0E0020DB0FC94030F8FFFF48F4FFFF72
:1051300094050020B40E00200000C842D302373985
:1051400084110020C8F8B051D4F8B021C2F50C5039
:105150002830049209F0FEF8AA4909F04FF90546F3
:105160000CF03EFC0F9028460CF0AEFCD4F8C05179
:10517000D4F8B431D4F8B8210E9005F1004007936B
:105180000A9209F001FB0590284609F0FDFAD4F8CF
:105190005081D4F8BC410B9009949B4C002550469B
:1051A00009F0D8F80EAB53F8151009F027F9DFF81D
:1051B00094B206463BF9050009F0CCF801463046AA
:1051C00009F012F809F0E0FA904B06B2B6F57A7FD2
:1051D000A8BF4FF47A769E42B8BF1E46B0B20BF11C
:1051E0003C0B25F80B0000B209F0B4F80799834690
:1051F00009F004F909F0C8FA80B208900A995846F3
:1052000009F0FCF8414609F0F9F8216808F0EEFFD2
:1052100009F0BAFA059B984204DB0B9A9042A8BFAA
:10522000104600E0059809F095F883462060606814
:105230001434301A09F08EF8414609F093F954F805
:105240000C3C44F8040C0246B8780693039209F02B
:105250007DF86F4909F0D2F801464FF07E5009F011
:1052600081F9414608F0C2FF0146404609F07AF94B
:10527000039A844606991046CDF80CC008F0B4FF96
:10528000DDF80CC00146604609F0B8F80146069802
:1052900008F0ACFF44F8106C014644F8040C44F8E4
:1052A0000C0C099809F0AAF809F06EFA089E064459
:1052B000584609F069FA304440F6B83200B29042DC
:1052C000A8BF1046534A0A219042B8BF104669430E
:1052D000514AA852514A0235042D41F802B07FF4D8
:1052E0005EAF3B792BB1049B642293FBF2F24C4BF3
:1052F0001A803B884B4C99450ED9D4F8A831D4F884
:105300007401C01AFFF70EF942F210730028B8BFFB
:10531000404298427FF70EAA434B01221A70B4F81C
:10532000FC203F4B1A80FFF705BA404A11689046AF
:105330000F7817B1012F0DD0ADE0012B00F2AB803B
:1053400062783B4B03EB02133A4A5968106801F04C
:105350003FFD9DE0374E306801F035FDB146002835
:1053600000F099802378344D022B29D0032B31D0C3
:10537000012B40F09080314B1F686B69FB1A632B47
:1053800040F289802B69042B18D8DFF8A48030689C
:1053900008EB0313596801F01BFD6B78366808EBC6
:1053A00003139D6815F8011B19B13046FEF78AFCFE
:1053B000F8E723696761013323616CE0022068E04C
:1053C0006A781B4B306803EB0213596801F000FD4B
:1053D00003205EE02B7E03B92F76227E164B012A36
:1053E00036D11A697B2A2FD8D8F800309B782BB990
:1053F000134BD9F80000995CFEF764FC2369013374
:10540000236125E0D3023739B40E002018FCFFFFDA
:10541000DB0FC94048F4FFFF940500208C0E0020EC
:105420007A0500200C100020580E0020A00A002051
:10543000AC3D0108A40A0020840A0020A01E002020
:105440003C4401087011002000221A6102221A76E1
:10545000227E294B022A18D11A690F2A13D8D8F8AC
:105460000030997859B95B78244903EB03130B4456
:105470001A44D9F8000092F87D10FEF723FC236946
:105480000133236101E003221A76237E022B02D925
:10549000042004F0BDFB0023636029E0636805225B
:1054A00001336360637801200133DBB2B3FBF2F2B6
:1054B00002EB82029B1A6370114B00221B68A360EF
:1054C000104B1A70104B1A7822F002021A700DE07D
:1054D0000B4B1A68A368D21A40F6C4139A4207D934
:1054E0000A4B05201A6822F020021A6004F090FB93
:1054F00011B0BDE8F08F00BF840A00203C440108D1
:10550000A01E0020D0050020820200204C020020B6
:1055100007B5002101AB0322772003F099FA9DF82B
:1055200005009DF80430000240EA03409DF8063073
:10553000184303B05DF804FB08B5FFF7E9FF014B22
:10554000186008BDD011002008B5FFF7E1FF014B3E
:10555000586008BDD0110020104B13B51B78104CBB
:1055600013B923890133238101ABF621032277206C
:1055700003F06EFA9DF805309DF804201B0243EA03
:1055800002439DF806201343064AB2F92020C2F1D7
:105590000802D340E36002B010BD00BF981E002097
:1055A000D0110020E00700200B4B13B51B780B4CEB
:1055B00013B923890133238101ABF621022277201D
:1055C00003F046FA9DF804209DF8053043EA0223D3
:1055D000238202B010BD00BF981E0020D011002011
:1055E00013B5062204466B463B21682003F030FACF
:1055F0009DF800209DF8013043EA022323809DF8A6
:1056000002209DF8033043EA022363809DF80420C2
:105610009DF8053043EA0223A38002B010BD13B504
:10562000062204466B464321682003F011FA9DF8D8
:1056300000209DF8013043EA022323809DF80220D8
:105640009DF8033043EA022363809DF804209DF80F
:10565000053043EA0223A38002B010BD13B5022235
:10566000044601AB1B21682003F0F2F99DF80420E9
:105670009DF8053043EA022303F54E534FF48C7234
:10568000103393FBF2F32333238002B010BD13B524
:10569000062204466B461D21682003F0D9F99DF8C7
:1056A00000209DF8013043EA022323809DF8022068
:1056B0009DF8033043EA022363809DF804209DF89F
:1056C000053043EA0223A38002B010BD13B50622C1
:1056D00004466B4601211C2003F0BAF99DF8013005
:1056E0009DF800209DF8021043EA022242F38D0249
:1056F000042392FBF3F222809DF8032042EA012268
:1057000042F38D0292FBF3F262809DF804109DF843
:10571000052042EA012242F38D0292FBF3F3A380BB
:1057200002B010BD13B5062204466B4602211820B4
:1057300003F08EF99DF800309DF801209B0803EBE3
:10574000022323809DF802309DF803209B0803EB81
:10575000022363809DF804309DF805209B0803EB2D
:105760000223A38002B010BD2E4B2DE9F3411B781C
:105770000546002B38D0002426462746A04608229E
:105780006B465320322103F063F99DF801209DF808
:105790000030013403EB02231BB29DF80320984430
:1057A0009DF80230E4B203EB02231BB21F449DF8C4
:1057B00005209DF80430202C03EB02231BB21E446D
:1057C0009DF8073003F07F0301D0002BD7D1164B93
:1057D00098FBF4F897FBF4F796FBF4F6A5F8008035
:1057E0006F80AE809C741AE006226B4653203221F3
:1057F00003F02EF99DF801209DF8003003EB022301
:105800002B809DF803209DF8023003EB02236B8070
:105810009DF805209DF8043003EB0223AB8002B015
:10582000BDE8F081C8070020D01100200C4B07B55F
:105830001B68196819B10B4A9069014391619A88F4
:105840009868ADF8042002228DF8072004220DEBA1
:1058500002018DF80620FEF715FF03B05DF804FB8A
:10586000C40700200010024013B5214B4000C0B215
:10587000D87402AC586A197504F8012D0021012270
:105880005A759C619975DC6183F8202083F821208A
:1058900083F8221048B38288920515D40288D40573
:1058A0000DD447F230520188890502D5013AFAD168
:1058B00013E092B1028892B242F480720280828830
:1058C00092B242F44072828047F2305293F8211033
:1058D00011B1013AFAD100E012B903F0A9F804E0DD
:1058E000034B93F8220080F0010002B010BD00BF0E
:1058F000D011002013B500222A211C20FFF7B4FF8D
:105900000E2102221C20FFF7AFFF0F2103221C20D3
:10591000FFF7AAFF2B2112221C20FFF7A5FF164B31
:1059200002249A69154842F004029A612023ADF8D6
:10593000043004230DEB03018DF806308DF8074089
:10594000FEF7A0FE22462C211C20FFF78DFF2D2103
:1059500001221C20FFF788FF2E2100221C20FFF7C8
:1059600083FF2A2105221C20FFF77EFF044B4FF402
:1059700080721A8002B010BD001002400008014081
:1059800000000020024640213C206DE770B50A4E21
:1059900000EB800006440024331913F8A00C074BD9
:1059A00001341D786840FFF7EDFF052CF4D128463F
:1059B000BDE87040FFF7E6BF0D4501085C260020FA
:1059C000642928BF6421F8B501FB00F7642497FB24
:1059D000F4F40546E4B20026F3B2A34204D29F20B9
:1059E000FFF7D4FF0136F7E7AC420BD2142097FB48
:1059F000F0F0C4EB84136638C4EB83031844C0B2E0
:105A0000FFF7C4FF0134E4B2AC4238BF9A20F7D3A9
:105A1000F8BD0F4B10B50446185CFFF7B7FF0D4BF0
:105A200033F91430B3F57A7F05DBB3F5FA6FA8BF0D
:105A30004FF4FA6301E04FF47A73A3F57A730A2204
:105A400093FBF2F10920C9B2BDE81040FFF7B8BFDF
:105A50001D6001081A07002010B5441E14F8010F3C
:105A600010B1FFF793FFF9E710BD024680213C20FB
:105A7000FAE610B5AE20FFF7F8FFD420FFF7F5FFE8
:105A80008020FFF7F2FFA820FFF7EFFF3F20FFF78E
:105A9000ECFFD320FFF7E9FF0020FFF7E6FF4020EF
:105AA000FFF7E3FF8D20FFF7E0FF1420FFF7DDFF96
:105AB000A120FFF7DAFFC820FFF7D7FFDA20FFF7B2
:105AC000D4FF1220FFF7D1FF8120FFF7CEFFCF20B8
:105AD000FFF7CBFFD920FFF7C8FFF120FFF7C5FF85
