:020000040800F2
:1000000000C00020B9200108652101083D0A01084F
:100010006521010865210108652101080000000033
:100020000000000000000000000000006521010841
:100030006521010800000000652101081D0A010872
:100040006521010865210108652101086521010874
:10005000652101086521010865210108C908010819
:100060006521010865210108652101086521010854
:100070006521010865210108E508010865210108DD
:100080002109010865210108652101086521010890
:10009000652101086521010865210108C5080108DD
:1000A00065210108A508010865210108B5080108B6
:1000B0009508010885080108750801085D0901080F
:1000C000550901085909010851090108652101086C
:1000D00065210108D9080108CD080108652101083A
:1000E0002D0A0108652101086521010800000000B2
:1000F0000000000000000000000000000000000000
:0C01000000000000000000005FF808F1A3
:100110002DE9F04F734B744CA1B023600023636052
:1001200007F040F818B90DF04EFF08F0E5FA08F0B6
:100130009DFB6E4B6E4E1A78B17B42F001021A7035
:10014000002309930A930B934FF4E0130C93694B2C
:100150001A689B4642F480321A609A6942F0100293
:100160009A61DBF8003003F400330A93099B0133F2
:1001700009930A9B1BB9099BB3F5A06FF1D1DBF87A
:1001800000205C4B12F4003201D0022317E0186803
:1001900040F0010018600992DBF8003003F0020320
:1001A0000A93099B013309930A9B1BB9099BB3F579
:1001B000A06FF1D1DBF800309B0741D501230B93F1
:1001C0004D4B4E481A6842F010021A601A6822F02D
:1001D00003021A601A6842F002021A60DBF8043067
:1001E000CBF80430DBF80430CBF80430DBF8043013
:1001F00043F48063CBF80430414B1A68043B22F08F
:1002000070425A603F4A1060DBF8040020F47C1012
:10021000CBF80400586840F000405860D86820F4DB
:100220000040D8609B681F0449BF374B4FF4E01370
:1002300013604FF480130C930B9B012B01D118E03A
:10024000FEE7022B1BD169B10C9BB3F5801F02D1D5
:100250004FF4A01305E00C9BB3F5E01F02D14FF45F
:1002600000130C93DBF804100C9B0B4343F4803316
:1002700003E0DBF8043043F46013CBF80430DBF820
:10028000003043F08073CBF80030DBF80010194BDE
:100290008D01FAD5596821F003015960596841F080
:1002A00002015960DBF80430124903F00C03082BFB
:1002B0000593F7D14868154B00F00C00042803D0D3
:1002C000082804D00D4900E0116819602AE0486848
:1002D0004C68C0F38340E40300F102001AD40C49D7
:1002E0001EE000BF4F28000800010020A02E0020C3
:1002F000F4060020001002400020024000127A00A4
:100300000410014000000020001BB7005C0000202A
:1003100000093D00496811F4003F116818BF490801
:1003200048431860DBF80410A34CC1F303110A44DE
:1003300092F804901A6820AD22FA09F9C3F80090E7
:100340009E4BDFF8B082E360DBF81830002743F003
:100350000103CBF81830DBF82430994843F0807360
:10036000CBF82430DBF8183043F01C03CBF81830FE
:100370004FF6FF7325F82C3D29468DF8567003F093
:10038000E9F84046294603F0E5F829468D4803F090
:10039000E1F88D4B28465A6842F000725A6007F027
:1003A0003FFC159B894A8A48B3FBF2F38360894B73
:1003B0004FF47A721F60B9FBF2F9874B09F1FF32F3
:1003C0005A60F02284F823200722844C9F601A6030
:1003D00094E80F0085E80F00DBF81830159843F01B
:1003E0000803CBF81830DBF8183016A943F00803DF
:1003F000CBF818300823C8F810301023C8F8103094
:1004000003F0A8F8179818A903F0A4F8B268744B81
:1004100012074CD593F81A21012A48D8714A72491B
:1004200093F81B01B1F800E01388914643EA0E4EA1
:100430006E4B9E459A4640F0C484002F37D06C49DD
:10044000DFF8B08108685E4F1022C8F814202946F2
:1004500015903846039203F07DF8082139613C205D
:1004600002F0B3F9039AC8F810204FF0000896F88C
:100470001B31984512DA5F4908230B6178207B61B4
:100480000391029302F096F90399029B78204B6145
:100490003B6102F08FF908F10108E8E75249B9F829
:1004A00000300A8843EA0243534540F091846420B7
:1004B00002F08BF950480021A02214F0AEF9DBF8CD
:1004C0001C3043F00703CBF81C30DBF8183043F442
:1004D000006343F00C03CBF818300023DFF8F08002
:1004E0004FF0000A08F10C0203F802A001330E2BB2
:1004F000F4D1FF2388F81A3088F81B3088F81C30B4
:1005000088F81D303D4A3E4BB7681A6008F120005C
:100510005146302214F081F907F04009514608F1A4
:100520002008384BCA5C0C234B4308F80320B9F170
:10053000000F05D11E3A012A02D8334AFF209854F1
:1005400001310429EDD196F80580304B204A83F81B
:1005500000802F4B17F0200F136504EBC8035B7D61
:10056000DFF8B4A018BF0123CAF800300023294ADD
:1005700040F2DC5199520233102BF8D10FA8002120
:10058000162214F04AF9B8F10E0F02D0B8F1080F94
:1005900002D101238DF84C30114B03F1200193F966
:1005A0003A21012A02D1B3F83C01B8BB08338B428F
:1005B000F5D1002333E000BF00ED00E00005FA05AF
:1005C00000080140001001400000014040420F00BF
:1005D000000100209C2E002010E000E0E8710108DE
:1005E000F4060020086C0040106C004007B0F75083
:1005F000F8710108000C0140502D00202C0800204B
:10060000EC1A00206000002020010020841400204B
:100610000407002086140020AC14002013468DF837
:100620004130C7F340038DF84230C7F3403319F12E
:1006300000098DF83C30C7F3C03318BF4FF00109F3
:100640008DF83F3017F400638DF8449007D096F88A
:100650000E31B3F1010EDEF1000353EB0E038DF802
:100660004030C7F300438DF84530DAF8003007F02A
:100670000101003318BF01238DF84630BC4BC7F38E
:10068000C0021B684FF47A7093F8A6318DF83D10C4
:10069000C3F380038DF84730B6F8D6308DF83E208E
:1006A000ADF84A30B6F8E230ADF85000ADF8483059
:1006B000C7F380438DF84330B6F8E030FF04ADF85F
:1006C0004E3004D5AB48B0F8DC00ADF85000B3F5BF
:1006D000FA7F88BF0023A84888BFADF8503096F84D
:1006E000243180F85430002380F8553080F856309B
:1006F0009DF84C30002B14BF0223002301B902B136
:10070000013304EB8304D4F8D4404FF0000906947D
:10071000CDF8109006984FF6FF7330F809209A42F2
:1007200000F06781D3B2DFF884829DF841101F0189
:1007300008EB070419B1991E012940F254819DF874
:10074000441029B158F807108C48814200F04B81C1
:100750009DF8451029B158F807108848814200F0EB
:1007600042819DF8421039B161688548814203D1C8
:10077000A168102900F037819DF83F1039B16168F8
:100780007F48814203D1A168022900F02C819DF8A5
:10079000401039B161687B48814203D1A1680229C8
:1007A00000F021814FEA122BBBF1020F02D19DF81C
:1007B0003C2004E0BBF1010F04D19DF83D20002A4C
:1007C00000F011819DF8472032B19DF84C201AB9F4
:1007D000043B032B40F2EF80BBF1010F43D1664B8A
:1007E000FF2283F89C2083F89D20E17BA2684FF0D4
:1007F000000A83F8A0A0C3F8AC406068ADF85420AC
:100800008DF856100222294683F858A0C3F85CA040
:10081000C3F860A0C3F864A0C3F898A083F89EA0B2
:1008200083F89FA08DF85720029302F093FE58F8AA
:100830000700217B52460CF037FF204651465A46AE
:100840000DF050FE029B504AC3F8B8A0C3F8B02088
:100850004E4A2046C3F8B42003F1B00103F1B402BC
:100860000BF032FEBFE0BBF1020F46D1049A4849BB
:10087000D3B21C225A43049801EB020A00234FF022
:10088000010C8AF802308AF80A308AF8010001F86F
:1008900002C0E17BA2686068CAF80C408DF856106F
:1008A0002946CDF80CC0ADF8542002938DF857B00E
:1008B00002F050FE029B58F807001A46217B0CF00C
:1008C000F3FE029BDDF80CC01946624620460DF08F
:1008D00009FE304A029BCAF810202F4A0AF1100183
:1008E000CAF81420CAF8183020460AF114020BF096
:1008F000EBFD04990131049175E0BBF1030F57D171
:100900009DF843301C4F33B197F85680204608219C
:100910004FF6FF721CE0BDF84E3097F85680B3F5E5
:10092000FA7F0FD91D4A2046B2FBF3F20821BDF829
:10093000503092B20DF0AFFE07EB8803C3F8800190
:10094000174B0EE0174A2046B2FBF3F2012192B298
:10095000BDF850300DF09FFE07EB8803C3F880010F
:10096000114BC36097F85630013387F856303AE0A0
:10097000E8110020F40600200001002000040040DF
:1009800000080140000C0140CD220008D1230008DE
:10099000A0010020E5D60008A923000800127A0073
:1009A000F123000840420F00E1230008D89101081C
:1009B000BBF1040F17D1BDF84830C04AC04F92FBBD
:1009C000F3F22046BDF84A30012192B297F85580E3
:1009D0000DF061FE07EB8803C3F8B00197F85530BE
:1009E000013387F8553009F10209B9F11C0F7FF482
:1009F00091AEB34BB24C93F85520B24B1A70B24B38
:100A000093F80080B8F1170F1CD10027236D002147
:100A1000D85903EB070910F031FF18B1B368D804B7
:100A20002FD429E0A94B07EB030E99E80F008EE8BD
:100A30000F00A74B10371A78C02F02F101021A706D
:100A4000E4D1EBE7A34BA24A03EBC80393F814C02D
:100A5000D3F8189082F800C0B9F1000FDED000275B
:100A60006745DBDA994A3B0103EB020E4B440FCB9F
:100A700001378EE80F00F3E7B8F1080F964B26D147
:100A800028E0934B93F80090B9F1010FF4D9934EFD
:100A900000274F4506F11006EEDA56F8100C4FF01D
:100AA0007C5110F057FD4FF07C5146F8100C56F871
:100AB000140C10F04FFD4FF07C5146F8140C56F812
:100AC0000C0C10F047FD013746F80C0CE1E7B8F1CB
:100AD0000E0F03D11A7842F0100202E01A7822F0C9
:100AE00010021A7006F012FC7D4B7E4F1A78DFF868
:100AF0001CB242F004021A707B4B4FF0100893E8CE
:100B00000300BB6985E8030043F00803BB6116A935
:100B1000159802F01FFD012007F00EFC734B4246B2
:100B20009E68584606F4006104910021029313F078
:100B300074FE4FF6FF72ADF8382002224FF0000924
:100B400016EA020106F4004A8DF83A208DF83B902F
:100B50005E4610D020A921F8488D654807F0AAF814
:100B6000042333704FF00108072386F8019086F8BC
:100B70000280F37000E08846BAF1000F11D0022322
:100B800020A921F8483D5A4807F094F8012308EBC2
:100B900003023371B371072386F80580F3715FFA9E
:100BA00082F8049B93B1022320A921F8483D5148C3
:100BB00007F080F8092301223373B27308F10103AF
:100BC000072286F80D80F2735FFA83F87B684A4843
:100BD00043F440437B607B69DFF81C9143F00103E1
:100BE0007B61BB6943F40073BB6107F01EF9434BA3
:100BF00000271593424BB8F1020F169334BF3B46C2
:100C000080231A934FF480731B934FF480631C93DB
:100C1000202329461D9348464FF400531E931797EF
:100C2000CDF8608019971F9707F0E1F8D9F80030E8
:100C3000B8F1010F43F00103C9F80030314B98BF00
:100C400000215A6888BF012122F4702222F48072A8
:100C500042EA01225A6099682B4A38460A4042F417
:100C6000602242F002029A60D96A08F1FF3221F450
:100C70007001D2B241EA0252DA62012331188A7855
:100C8000002A00F08680325C5D1C092A91F803E09E
:100C9000EDB21C493CD9A2F10A0707EB47074FF018
:100CA000070C0CFA07FC0EFA07FED1F80C8028EAB4
:100CB0000C0C4CEA0E07CF6039E000BF40420F0039
:100CC00000010020B014002084140020A81300208C
:100CD000C32E0020E87101083E100020B013002050
:100CE000A02E002000100240CC720108F406002063
:100CF00000080140000C0140080002404C24014063
:100D0000F019002000240140FDF7F1FFE019002058
:100D100002EB42074FF0070C0CFA07FC0EFA07FE35
:100D2000D1F8108028EA0C0C4CEA0E070F61062B54
:100D3000B1490ED8013B03EB83034FF01F0E0EFAAF
:100D400003FE9A404F6B27EA0E0747EA02034B6304
:100D500020E00C2B0ED8073B03EB83034FF01F0E54
:100D60000EFA03FE9A400F6B27EA0E0747EA0203CA
:100D70000B630FE00D3B03EB83034FF01F0E0EFAE6
:100D800003FE9A40CF6A27EA0E0747EA0203CB62C6
:100D900000E01D460430102801D02B466EE7964B2C
:100DA0009A6842F480729A609A6842F001029A60EE
:100DB0009A6842F008029A6099688F4A09070FD52D
:100DC000FAE7471E092F8CBF00270127FFF735BB25
:100DD0008A4B002283F81B2108F044F8FFF767BB19
:100DE000936843F004039360834A936813F0040309
:100DF000FAD1916841F4A0019160804AB2F8E8000C
:100E000050B9B2F9EA3033B9B2F9EC30D3F1010399
:100E100038BF002300E0034613F0010340F08A804E
:100E2000774A00B2137510F041FB764910F092FB3F
:100E3000724F0646B7F9EA0010F038FB714910F01E
:100E400089FB0546B7F9EC0010F030FB6D4910F056
:100E500081FB8146304613F05DFF0746304613F0B4
:100E6000CDFF8046284613F055FF0646284613F06E
:100E7000C5FF0546484613F04DFF8246484613F02D
:100E8000BDFF39468146504610F064FB3946834623
:100E9000484610F05FFB51460490404610F05AFB64
:100EA00049460690404610F055FB314607905046A3
:100EB00010F050FB4946C4F8D00106F1004010F094
:100EC00049FB2946C4F8D401C4F8D851069810F05B
:100ED00041FB0146049810F035FA2946C4F8DC01BC
:100EE000079810F037FB0146584610F029FA3146B2
:100EF000C4F8E00108F1004010F02CFB2946C4F8CA
:100F0000E401584610F026FB0146079810F018FA45
:100F10002946C4F8E801049810F01CFB0146069825
:100F200010F010FA3946C4F8EC01304610F012FB0C
:100F3000C4F8F001314EB3689B0320D5C82001F0FE
:100F400044FCAE200FF03EFA08B10DF01EFE84F80E
:100F5000F401C82001F039FC2B4B00210C222B4856
:100F6000C4F8F83113F059FC022384F8FF310DF076
:100F70007BFE01F005FC264B0344C4F80432DFF885
:100F8000AC900022D9F80030C4F80822B3F852809F
:100F9000204BB6F8F0501A7096F8EFB096F8F7A01C
:100FA00002930FF051FC029B1B4F84461A46002807
:100FB0003ED01A4B1A49BB2D19601A4959601A497B
:100FC000D9600F4B01D901210EE0612D01D9022119
:100FD0000AE0292D01D9032106E0132D01D90421AE
:100FE00002E0092D05D9052159750123137002234B
:100FF00043E00621F8E700BF00240140F40600208A
:101000000000002035FA8E3C06080020FC0200207B
:10101000404B4C000212002000010020EC11002087
:10102000D90601085D01010890C1793DE811002051
:101030001920CDF80CC001F0C8FB15AB68200F21BA
:10104000012207F087FA9DF85430DDF80CC0D32B4D
:1010500040F0ED80B94BBA4A4E2D1A60B94A5A6039
:10106000B94ADA6000F0DD805D2D00F0DC80362DBD
:1010700000F0D58087F80CC20123B44F3B70B44B0D
:101080001A6842F001021A600022B24BBBF1090F4C
:1010900000F29E83DFE81BF010009C0310000E009E
:1010A0007B000C000E000A000A00B9001A709CE0D8
:1010B0001A7086E01A7017E01A70002520AB03F84A
:1010C0002C2D53202946012207F044FA60B19DF8E7
:1010D0005430E52B08D1A04BA04A84F810521A6076
:1010E0009F4A5A600223EDE14FF0000B9D4DC4F87A
:1010F00008B20FF0A9FB00284AD0062115AB6820E2
:101100000A4607F027FA9DF857309DF859C003F0BA
:1011100001035B000CF0010C43EA8C0C9DF8553088
:1011200003F001035CEA030909D0B9F1010F02D110
:1011300085F811B21AE0B9F1020F0BD113E00EAB32
:1011400068200C21012207F005FA9DF8383013F0D1
:101150000F0303D1052007F0A3FA07E0042B02D107
:1011600085F8119202E0012385F811327A4B7E4A0C
:101170001A607E4A5A6094F81122002A14BF6E2227
:101180006F221A72734B01221A7003239AE11A70AC
:10119000002220AB03F82C2D1C200D21012207F08A
:1011A000D9F970B19DF854302A2B01D01A2B08D1EF
:1011B000694A6F4984F8123211606E490423516004
:1011C00080E1002120AB03F82C1D1820012207F03C
:1011D000C1F950B19DF85430FB2B06D15E4B664AE5
:1011E0001A60664A5A6005236CE1752015A9012230
:1011F00006F038F99DF85430702B07D1564B604AF1
:101200001A60604A5A6008235CE11A70524B5E4AC9
:101210001A605E4A5A6000221A72092352E1402382
:1012200002E0802300E0C02387F80C3224E794F822
:101230000D72002F56D00023A4F80E32002F40F07C
:10124000C480534B80211A886B2022F04002120484
:10125000120C1A801A8822F038021204120C42F082
:1012600030021A801A8892B242F040021A8006F0C8
:10127000E9F8962001F0A9FA0321682006F0E2F8C7
:10128000962001F0A2FA03216B2006F0DBF8012082
:1012900001F090FA10216A2006F0D4F8012001F044
:1012A00089FA39466C2006F0CDF8012001F082FA67
:1012B0003946192006F0C6F8012001F07BFA10210A
:1012C0001C2006F0BFF8012001F074FA1B20182141
:1012D00006F0B8F8012001F06DFA224B012283F8E4
:1012E0000D2272E02A4B6B201A88802122F04002E6
:1012F0001204120C1A801A884FF0060922F03802E4
:101300001204120C42F030021A801A8892B242F093
:1013100040021A8006F096F8962001F056FA012253
:10132000752015A906F07AF89DF85420682A31D066
:1013300009F1FF3313F0FF09EED13BE0EC1100207F
:1013400095070108F5010108325C8F3D5800002027
:10135000E40F0020A42E002058120020F1070108FD
:101360007702010800010020CDC800081D01010816
:10137000350701089D010108CD0701083302010866
:1013800049260008C974000855760008D17900087C
:10139000003800400C2015A9012206F03FF89DF806
:1013A0005430142B06D3182B7FF645AF543B062B35
:1013B0007FF641AF752015A9012206F053F89DF87C
:1013C0005430702B7E4B57D074E0142D13D005D8B9
:1013D000052D14D00A2D10D05DB912E0BC2D12D00D
:1013E000B5F5807F03D0622D03D102210CE00021EE
:1013F0000AE0032108E0042106E0052104E00621BB
:1014000002E0072100E001216E4B1A201A8822F029
:1014100040021204120C1A801A8822F038021204B8
:10142000120C42F030021A801A8892B242F0400246
:101430001A8006F007F8012001F0BCF915A80CF09D
:10144000D9FF9DF95630013303D19DF95430013352
:1014500003D0B4F80E329BB21BB10023A4F80E32B5
:10146000A8E7574B584A64201A60584A5A60584AAD
:10147000DA6001F0AAF9FFE5564ABB2D1A60564A18
:101480005A60534ADA60554B01D901220EE0612DB2
:1014900001D902220AE0292D01D9032206E0132DE9
:1014A00001D9042202E0092D02D905229A75E3E54B
:1014B0000622FBE74A4A1A604A4A5A604A4A9A6038
:1014C0000823DAE57B70494B1A6842F002021A6081
:1014D0000A2001F07AF97720A02101220EAB07F053
:1014E00039F830B994F82432414D002B40F0228174
:1014F0008CE01E21012277200EF020FF4FF42F6098
:1015000001F058F90025A5F160010027C9B20222B7
:1015100015AB77208DF854708DF8557007F01AF8D8
:101520009DF855309DF8541043EA0121304B03F5E6
:101530000572A9520235102DE5D1B3F822E201213E
:101540000EF00F050EF47F4EA3F822E23A463B461A
:1015500022F001002044B0F81402002818BF002136
:10156000D70703D5C0B24340082002E083EA102326
:10157000FAE71F0448BF83F4C05301384FEA43031E
:10158000F7D10132102AE3D145EA0E0EA4F822E287
:101590000029A7D1C3F303339D42A3D1154B42F2D7
:1015A00010721A805A80144A5A60144A9A60144A77
:1015B000DA60144A1A61144A5A610323BBE000BF7F
:1015C000EC1100200038004059260008F5E300081F
:1015D00090C1793D716D00088D74000800000020F5
:1015E00059760008D979000857760008E40F0020E2
:1015F000000100205C100020B106010895000108E0
:10160000A9060108A500010815240008142001F00E
:10161000DCF801220EAB7720D02106F09BFF9DF86D
:1016200038300322552B85F83F32A5F8482240F088
:101630008980D12101220EAB772006F08BFF9DF827
:101640003830772003F00F021B0985F8402285F817
:101650004132162215ABAA2106F07CFF9DF85420DA
:101660009DF8553043EA0223A5F828329DF856200C
:101670009DF8573043EA0223A5F82A329DF85820F6
:101680009DF8593043EA0223A5F82C329DF85A20E0
:101690009DF85B3043EA0223A5F82E329DF85C20CA
:1016A0009DF85D3043EA0223A5F830329DF85E20B4
:1016B0009DF85F3043EA0223A5F832329DF860209E
:1016C0009DF8613043EA0223A5F834329DF8622088
:1016D0009DF8633043EA0223A5F836329DF8642072
:1016E0009DF8653043EA0223A5F838329DF866205C
:1016F0009DF8673043EA0223A5F83A329DF8682046
:101700009DF8693043EA0223A5F83C32012385F8AD
:1017100024324B4B41F270721A8046F678125A808E
:10172000484A5A60484A9A60484ADA60484A1A6108
:10173000484A5A610223484A9370484B1A6842F05B
:1017400004021A60454D2B689B0702D5444B1B6869
:101750009847444F3B689847BB46434F0023BAF134
:10176000020F3B7005D0BAF1030F1AD0BAF1000F87
:1017700034D1002220AB03F82C2DC4F84C221E20BB
:101780000A21012206F0E6FE58B19DF85430482B9C
:1017900007D1364B364A1A60364A5A60022300F0A7
:1017A0000CBD002120AB03F82C1D0C20012206F0FB
:1017B000D1FE98B19DF85430482B0FD12B4B2E4AB7
:1017C0001A602E4A5A6007233B70032300F0F5BCD1
:1017D000BBF1010F3FF670AC1A7079E6BAF1010F58
:1017E00000F2E78496F8E4300BB1254A137096F8BE
:1017F000E5300BB1234A137096F8E63003B13B7025
:101800002B681F0744D50FFA88F84FF0640A98FB3D
:10181000FAF738460FF04AFE81460AFB178000B2FD
:101820000FF044FE18490FF095FE014648460FF0B0
:1018300089FD16490FF08EFEC4F850022BE000BF60
:101840005C100020D1060108F5000108B906010866
:10185000B50001086D25000858000020E40F0020A5
:1018600058120020EC110020B62E0020301000206D
:101870000F040108F9FF000839060108AD05010849
:1018800002120020A42E00208988883C00002041FC
:101890000023C4F85032B64F10223B784FF00A08AC
:1018A00043F002033B70B34B5A6108221A61B14CFA
:1018B0001920E36808F1FF3883F01003E360E36860
:1018C00083F00803E36000F080FF192000F07DFF43
:1018D00018F0FF08EBD108234FF010082361C4F87B
:1018E00010802B68180709D5A34BC4F814801B6817
:1018F0009847A24B0122C4F810801A70A04BA14C4B
:101900001B68187B0FF0D2FD9F490FF023FE13F0E8
:1019100001FA804620880FF0C9FD41460FF01AFEFB
:1019200013F02EFA994B188020880FF0BFFD014666
:1019300097480FF0C3FE97490FF0C0FE964B9249AF
:101940001860DBF80C000FF005FE94490FF002FE62
:10195000934C944BFF2118601622204612F05DFF35
:10196000002222702A68904B012112F0020F197098
:10197000204604D06170032119700221A170510723
:1019800004D519784C1C1C700324445412F00A0F1F
:101990000CD01A7804218154511CC9B20524445436
:1019A000D11C02321970D2B206218154B268940659
:1019B00004D519784C1C1C7007244454110608D512
:1019C0001978092444548C1C01311C70C9B20A24B2
:1019D00044547179082901D00E2904D119784C1C7E
:1019E0001C700B24445419784FF00C0E4C1CE4B2BC
:1019F00012F4803F1C7000F801E009D001F1020EE2
:101A0000694981F800E066494FF00E0E01F804E0E4
:101A1000510704D519784C1C1C70102444541978B3
:101A20004FF0120E00F801E096F85CE14C1CE4B2B5
:101A3000BEF1000F0CBF4FF0000E02F0010E1C7043
:101A4000BEF1000F09D001F1020E574981F800E004
:101A500053494FF0130E01F804E01978920501F193
:101A60000104E4B21C704FF01403435405D54E4BEF
:101A7000023119704A4B15221A55002198224B4801
:101A800012F0CBFE09F072FE0BF0CCFD484B494A38
:101A9000B6F81E011A6081B20023474A99520233F8
:101AA000242BFAD1B3681B0740F11C81434B93F8F8
:101AB0001A31062B00F20F81DFE803F00404329C98
:101AC000B4D0D0003E4A3F49012B11603E4C3F4A02
:101AD0003F4809D14FF0030E84F800E0072482F854
:101AE000543204700C2307E0022323700323037095
:101AF000002382F8543207230B70364B4020C2F883
:101B0000583206F0A7FB002800F0E58001234FF0D3
:101B1000000A90F9000040218DE808042E4A7EE07A
:101B20000FF0C4FC2D490FF015FD2D490FF008FCF6
:101B30000FF0FCFE00232B4A98500433482BFAD1B7
:101B4000294A224B4020C3F858221E4B12221A70F9
:101B500006F080FB002800F0BE8001234FF007094B
:101B600090F9000040218DE80802204A204BACE0AB
:101B7000A02E0020000C014030100020501000204A
:101B8000A01200201C00002035FA8E3CC412002058
:101B90000AE81C4100401C4698110020BD378635DC
:101BA0008F1D00209C1200208E1D0020501A002046
:101BB0007C0E002006080020FA0F0020F40600200A
:101BC000840E0020A51D0020810E002000010020B1
:101BD000880E0020117700086D780008CDCCCC3F2E
:101BE0000000B044D00E00205D770008797900082D
:101BF000A0860100604A614B4020C3F85822604B28
:101C000010221A7006F026FB002864D001234FF042
:101C1000000890F900008DE808015A4A40214FF46D
:101C2000E13352E0584B554C0822C4F85832544B1B
:101C300040201A7006F00EFB00284CD001234FF014
:101C4000000C90F9000040218DE808104F4A4FF435
:101C5000E13309F049FDC4F85C0238E048480C2142
:101C6000062B464A4A4C017010D00023237082F89C
:101C7000603282F861321B2382F86232052382F8D7
:101C8000631282F864324FF4E1340DE000202070DA
:101C900082F8600282F861023E4C212082F86202E2
:101CA00082F8631282F864323B4B4020C2F858320B
:101CB00006F0D0FA78B101234FF0000E374A90F9C0
:101CC000000040218DE80840234609F00DFD00305A
:101CD00018BF012030B9082001F073F9274B00220A
:101CE000C3F85822B368264A13F4804F05D0082160
:101CF00011702B482149C1F8580242F201011940E4
:101D000059B11E492748C1F85802990444BF082117
:101D10001170DC0744BF0C21117011781806A1F175
:101D2000040151707DD51548DFF884A04FF00008FC
:101D30001D4C41461522C0F868A2DFF878B000F5C6
:101D40001B7084F80180C4F80480C4F8088012F085
:101D500064FDAAF104034046CBF8003009F07AF89C
:101D6000124B02201B68E36006F074FA594618BB58
:101D7000802001F026F94CE04D770008000100209A
:101D8000A51D00200579000839770008B9780008FA
:101D9000D00F002090D00300F9760008A17700084A
:101DA0008977000895770008BC110020982E002044
:101DB0002C080020DC11002090F805E06378C24A6E
:101DC0004FF00C0C0CFB032C9CF801C0F44504D024
:101DD0000133DBB2042BF2D9002363700B6890F956
:101DE00000001B78002B63784FF00C0404FB0322E7
:101DF0000CBF01210321537800220091019202219E
:101E000009F072FCB14B18600028B1D0012009F034
:101E100021F8AF4AAF4B106800F5D8721A6001F094
:101E200099FAB36899050DD59A044CBFAA48AB48F6
:101E300005F0DAF92B684FF0FF3243F010032B6006
:101E4000A74B1A60A74BA84A03F180011360A74A69
:101E5000A3F5B67311609A68A54C002512F4803F73
:101E60002570984600F0A780DFF8D8B2A14E40F266
:101E70002A3A01F091F94FF0010952465846294695
:101E800084F8009012F0C9FCB3699B4843F0040346
:101E9000B3614023ADF8343018238DF837300DA9E5
:101EA00003238DF8363005F005FFF369934C43F0BA
:101EB0000203F361924BA6F694761A68914BB2FB3B
:101EC000F3F22388013A23F45C731B041B0C238078
:101ED00092B21D23A3852285A4F81490238C23F0AD
:101EE00001031B041B0C2384238CA188228B23F069
:101EF000020322F0730212041B04120C1B0C89B2A1
:101F000042F0600243EA0903A1802283A58623846C
:101F1000238B23F008031B041B0C43F008032383CB
:101F2000B4F844306FEA43436FEA53439BB2A4F8DA
:101F30004430D6F8A83F43EA0903C6F8A83F304624
:101F400005F073FF704BCDF858B0159380231A93AA
:101F50004FF480734FF0100B1B9330464FF4005337
:101F600015A91E9319951C951D951F95CDF85CB06C
:101F7000CDF860A005F03BFFA3890EA89BB243F407
:101F80000073A381336843F0020333608DF838B0E7
:101F90008DF839908DF83A508DF83B900AF04EFC50
:101FA0005A4B1A685A4BEA500435802DF8D10AF082
:101FB0006FFB0AF06DFBD8F80830564C13F4806FB5
:101FC00053D0D4F8AC65544B04201E6006F042F99F
:101FD0000421C4F8B00500F040FB504B84F8B40570
:101FE00008201E6006F036F90821C4F8B80500F094
:101FF00034FB4B4D84F8BC05002128462C2212F0FE
:102000000CFC8E236B704FF07C0AE0234FF07D09AF
:10201000EB7085F800A085F82B90424D2C22002112
:10202000284612F0FAFB8A236B701020A023EB7075
:1020300085F800A085F82B90C4F8C06506F00AF971
:102040001021C4F8C40500F008FB84F8C80520205E
:10205000C4F8CC6506F0FEF82021C4F8D00500F0E5
:10206000FCFA84F8D40509F021FDD8F8083013F4FF
:10207000002318BF012384F8D53500F081FB2A4BDB
:10208000186098F80530052B03D1284B4FF4C8721F
:102090001A80274B4FF47A721A80264BC8221A8076
:1020A000254B1A7842F008021A70244B1A7822F055
:1020B00002021A70D8F8082040F602031340002BE1
:1020C00063D01F4B40E000BF2C780108B8110020FE
:1020D000E81100208C130020D4720108E07201087E
:1020E0007C110020600800200C2400201024002017
:1020F00010190020001002400008014000040040B8
:102100005C00002000366E0134040040A279010812
:102110001219002000010020041F0020581F002079
:10212000281F00205C1F0020F41200206A120020EB
:10213000B42E0020B22E00203E100020C22E00201F
:10214000FC1E002081030020204A1D461A6008F072
:102150008BFF282000F039FB059B013B0593F6D14E
:102160002B681B4AD87811785A789B78B1FBF2F229
:1021700001321849082A28BF08220A7092B2504337
:102180005A431549154B08801A80D8F808309B032C
:1021900008D5042384F8003294F8FF3143F001039A
:1021A00084F8FF313B7863F07F033B7021B0BDE8DA
:1021B000F08F4FF0000AFFF7D0BA094AD3702B68AE
:1021C00043F008032B60FFF70DBB00BFFA070020A8
:1021D00017240020700000201A240020182400205A
:1021E0005800002003685A1C026019707047016B88
:1021F0000346C26810B5406941B1196C541A005DBC
:10220000013918BF0A46C0B21A6410BD196A405C91
:102210000131914228BF0021C0B2196210BD036B89
:1022200013B15A68036C01E0C269036A9A4237BF6E
:10223000C068C3EB02008018C3EB0000C0B2704757
:10224000436B13B190F844007047826A436AD31A13
:1022500058425841704743799B070AD5436A8269BF
:10226000D154426A03690132B2FBF3F103FB11233B
:1022700043627047437913F0010307D0C368C16913
:10228000026A013B881A1840C0B27047184670476E
:10229000437910B513F0010304460DD0FFF7EAFFB0
:1022A00058B1226A6369985CE3680132B2FBF3F1CA
:1022B00003FB1123236210BD184610BD426A806AD9
:1022C000131A58425841704741717047334A10B54C
:1022D000136C90681944081A40F68C239842916058
:1022E000D060516013463CD9127893F945108A4268
:1022F0000BD1111F082908D893F84610182901D8C6
:10230000013103E083F8442002E0002183F8461005
:1023100093F944108A421CD1204991F84710C1B169
:10232000002191421E4806DA03EB8104246920F85B
:1023300011400131F5E7511E00EB41011630814299
:1023400003D0002421F8024FF9E71649087801303C
:10235000087083F84520002201211A7083F8471085
:1023600010BD92F84710B9B1A0F2EF2440F2DA5153
:102370008C4208D811780B2905D80B1D013111703A
:1023800042F8230010BD002283F847209918043238
:102390000020302A0861F9D110BD00BF580100208B
:1023A0003C240020682B002010F80A3C0133DBB2EB
:1023B0000A2B00F80A3C07D910F8131C034A002323
:1023C00022F8113000F80A3C704700BF3C2400207E
:1023D000024B1A6C013211441964704758010020F5
:1023E000024B53F820301B68198070478002002090
:1023F000074BA1F57A7153F820304FF47A701A68C0
:102400001B894B4393FBF0F39BB21380704700BFD3
:10241000800200202DE9F04F504A514E1768738911
:1024200084463089A7EB032785B0039187FB000121
:10243000B288CB111404C209F08842EA416287FBDA
:10244000000114EB020872884FF000054FEAC23415
:102450004FEA1022B08945EB030942EA01620B12F0
:1024600087FB000114EB020A4FEAD05242EA4122F4
:102470004FF0000545EB030B12F5FA604FEAE1530C
:1024800043F10001CDE90001B0F5FA6F71F10001EF
:1024900047DAA2FB024502FB03F1052605EB4105E5
:1024A000A4FB060106FB05114D104FEA3004B8EB02
:1024B000040869EB050984082A4844EA81748D10F0
:1024C0004FF0FF31BAEB040A6BEB050BDDE9004579
:1024D00084428D4125DA40F6AC5012184FF00001CD
:1024E00043EB010302FB03F1A2FB02236FF00600A2
:1024F00003EB4103544200FB0344A2FB000118EB31
:10250000000821444FF00B0449EB0109A2FB040130
:1025100004FB031149104FEA3000BAEB000A6BEBE1
:10252000010B114B1A68A2FB0A0102FB0B11420DB1
:1025300042EAC1224B15B2EB080263EB0903D00B50
:1025400040EA4340BCF1000F01D0CCF800000398F2
:1025500008B10099016005B0BDE8F08F2C2D002076
:102560001403002024FAFFFF302D0020324B2DE908
:10257000F0411C88314B0A265A89B3F91250A41A2B
:102580001A89ED025443B3F91420E413224495FB55
:10259000F2F22244DA615643A2F57A6202FB02F4B7
:1025A000B3F90480B3F902C0B3F90E7002FB0CFC5E
:1025B00002FB08F2B3F90C802413674304FB08F410
:1025C000241404EB62320232DC88921002F50042DD
:1025D000B3F920506243B3F900304FEAEC2404EB26
:1025E000E72404EB8304AC40154B02341B68D20B88
:1025F000A3EBA4044CF250332B41634355BF5B0063
:10260000B3FBF2F3B3FBF2F35B001A12524340F652
:10261000DE3462430B4C08365C43241404EB224244
:1026200002F6CF62361103EB221300B1036001B151
:102630000E60BDE8F08100BF382D00202803002087
:10264000342D002043E3FFFF024B4FF480521A80E9
:10265000704700BF1C000020704738B1438811EA62
:10266000030003D08B4214BF02200120704730B515
:102670000B4B0C4A1C681378032B0DD8591C04EB28
:10268000C3039D88C9B2284203F1020302D011702E
:10269000184630BD0B46EFE71370002030BD00BF79
:1026A000EC1A0020681E00202DE9F0478278C678D9
:1026B0001E4BC2F1640802EB820C54425FFA88F8A8
:1026C0004FEA4C0CC6F16409A4B203F11807A5B295
:1026D00028B2002804DC002D14BF1546012500E0B7
:1026E000454600FB00FA6D430AFB06FA9AFBF5F536
:1026F0004D4468434FF00A0A90FBFAF0604480B200
:1027000058800D88B1F802A000B2C5EB0A0A00FBA0
:102710000AF04FF47A7A90FBFAF0054423F8025F4E
:102720000A34BB42A4B2D2D1BDE8F087B61900206A
:1027300010B544780078002303FB03F11939614395
:1027400001F6C4115943414340F6C41291FBF2F122
:10275000034A22F813100133072BEDD110BD00BF3F
:10276000A019002010B5044C2068FFF7E1FF206895
:102770000249BDE8104097E798130020C4070020E5
:1027800010B5094A09491368886812689342F8D15C
:10279000074A11684FF47A7202FB01F4201AB0FB69
:1027A000F1F002FB030010BD982E002010E000E0C5
:1027B0000801002038B50446FFF7E2FF0546FFF7A1
:1027C000DFFF401BA042FAD338BD10B504462CB140
:1027D0004FF47A70FFF7EEFF013CF8E710BD08B543
:1027E00003685B69984708BD08B503681B6998478B
:1027F00008BD044B93F8823713B9034B1868F3E70D
:1028000000207047F4060020F423002008B5036878
:10281000DB68984708BD08B503689B68984708BD02
:1028200008B503685B68984708BD10B5044C20687C
:10283000FFF7F6FF18B12068FFF7EDFFF6E710BDD0
:10284000941F002008B503681B68984708BD014B1A
:102850001868F7E7E81A0020014B01461868F1E70D
:10286000F423002010B50446C0B2FFF7F5FFC4F30F
:102870000720BDE81040EFE710B504467F2C06D9CD
:1028800064F07F00C0B2FFF7E7FFE409F6E7E0B2CB
:10289000BDE81040E0E7430083EAE070ECE708465B
:1028A000DAE738B505460446204614F8011B21B185
:1028B000034B1868FFF7C6FFF6E7401B38BD00BFA3
:1028C000F423002038B5274B05461B780C46082B0F
:1028D00046D14520FFF7C0FF2846FFF7BDFF0B2D6F
:1028E00018D003D83DB10A2D09D038BD0C2D1CD00D
:1028F000FF2D2ED038BD2068BDE83840BCE72078D9
:10290000FFF7AAFF62796378002A0CBF00208020BD
:10291000184300E02078FFF79FFFA078FFF79CFFA7
:10292000E078FFF799FF207917E0B4F90000FFF78E
:1029300099FFA078FFF790FFE078FFF78DFFB4F9DB
:102940000400FFF78FFFB4F90600BDE83840FFF739
:1029500089BF0548FFF7A5FF0020BDE838407BE7A9
:1029600038BD00BFD5060020F09D0108A0F17D0311
:10297000012B70B504460D460A4E05D830687D21FE
:10298000FFF760FF84F0200430682146FFF75AFF0C
:1029900035B12B881C4404EB142404F0FF042C8074
:1029A00070BD00BFC01F002038B5054C05465E2134
:1029B0002068FFF747FF20682946BDE8384041E717
:1029C000FC230020014B5E2118683BE7FC2300201C
:1029D00010B50A4C5E280146206805D15D21FFF73D
:1029E00031FF20683E2105E05D2903D1FFF72AFF72
:1029F00020683D21BDE8104024E700BFFC230020F3
:102A000010B50446C0B2FFF7E3FFC4F30720BDE8EA
:102A10001040FFF7DDBF064B1B6803EBC00090F9C9
:102A2000063019420CBF01204FF0FF30704700BF45
:102A3000981400200A4B1A6802EBC002D379FF2BCE
:102A400007D008490978994203D9074A32F8130098
:102A500004E00728D4BF908840F2DC5000B27047F1
:102A600098140020A51D0020FA0F00202DE9F84F32
:102A70002E4E04463768384612F04CF90546384663
:102A800012F0BCF976688046304612F043F983466E
:102A9000304612F0B3F9D4F8049006462946484669
:102AA0000EF058FDA7688246414638460EF052FDAA
:102AB000014650460EF044FC2168824658460EF00E
:102AC00049FD4146044648460EF044FD31460EF0AD
:102AD00041FD014620460EF035FC3146044638469D
:102AE0000EF038FD29460EF035FD014620460EF069
:102AF00029FC0146504612F037FA0D490EF02AFD26
:102B00000C490EF0DBFD0C4B19680EF01BFC0B4959
:102B10000EF0D4FD12F034F983B21A0444BF00F56C
:102B2000B4739BB218B2BDE8F88F00BFC812002082
:102B30000000E144DB0F4940500300200000204129
:102B400001380A4B042804D8DFE800F00507090B18
:102B50000D00074A08E0074A06E0074A04E0074A72
:102B600002E0074A00E0074A1A607047640000204C
:102B70009D9D00083DD700081DF500081192000832
:102B8000F194000851980008064B1B7803F00403E9
:102B900003F0FF001BB1044B1888C0F3C01000F015
:102BA00001007047C22E0020EC0F0020044B0022D1
:102BB0001A605A60034B00221A605A60704700BFC7
:102BC000881E0020B81E0020064BB3F90000064BFB
:102BD0001B681B7803EB83039842D4BF00200120BD
:102BE000704700BFD20F00200C1A00202DE9F041E1
:102BF00002780346202A00F10100F9D0092AF7D013
:102C00002D2A02D10346414D04E02B2A08BF03467A
:102C10004FF07E551E460024334616F8012BA2F1D4
:102C20003007F9B209290DD8394920460EF092FC37
:102C3000044638460EF03AFC014620460EF082FB70
:102C40000446E9E72E2A17D1314F334616F8010B17
:102C50003038C2B2092A0FD80EF028FC39460EF0DF
:102C60002DFD014620460EF06DFB294904463846ED
:102C70000EF070FC0746E8E71A7802F0DF02452AFA
:102C800038D15A782D2A02D10233012604E02B2AAA
:102C900014BF013302330026013B002713F8012F34
:102CA000303AD1B2092903D80A2101FB0727F5E7F9
:102CB000B7F59A7F28BF4FF49A77B8464FF07E5108
:102CC000B8F1070F07D9084612490EF043FCA8F1E6
:102CD00008080146F4E707F0070737B108460C4932
:102CE0000EF038FC013F0146F7E72EB120460EF00A
:102CF000E5FC04E04FF07E5120460EF02BFC01462F
:102D000028460EF027FCBDE8F08100BF000080BF20
:102D10000000204120BCBE4CF0B50124B0FBF4F50E
:102D20008D4201D34C43F9E70026DCB1B0FBF4F54A
:102D300004FB1500B4FBF1F41EB9002D01DC002CDE
:102D4000F3D1092D03F101075FFA85FC04DD002AA8
:102D50000CBF5725372500E0302565441D7001362E
:102D60003B46E2E71C70F0BDF0B50124B0FBF4F582
:102D70008D4201D34C43F9E70026DCB1B0FBF4F5FA
:102D800004FB1500B4FBF1F41EB9002D01DC002C8E
:102D9000F3D1092D03F101075FFA85FC04DD002A58
:102DA0000CBF5725372500E0302565441D700136DE
:102DB0003B46E2E71C70F0BD70B50646B6FBF2F488
:102DC0000846154614B12046FFF7F6FF05FB1464CC
:102DD000024B1B5D00F8013B70BD00BFFB9D01086D
:102DE0002DE9F843089E002B0746884614460CBF81
:102DF0004FF020094FF03009334613F8012B0AB980
:102E0000254603E0002CFBDD013CF6E7002D04DD48
:102E100038464946C047013DF8E724EAE4742546B0
:102E2000331B595D19B13846C0470135F8E72846CC
:102E3000BDE8F8832DE9F04F0C68836889B0D0F8BD
:102E400000A0D0F804800646204603938B4611F07C
:102E500061FF0746204611F0D1FFDBF804408146B0
:102E6000204611F057FF0546204611F0C7FFDBF85A
:102E7000082004461046019211F04CFF019A834647
:102E8000104611F0BBFF3946029058460EF062FB27
:102E90003946049002980EF05DFB5946059048466D
:102EA0000EF058FB0299069048460EF053FB294657
:102EB000079058460EF04EFB014650460EF04AFB76
:102EC0002146834606980EF045FB014605980EF014
:102ED00039FA014640460EF03DFB014658460EF0D9
:102EE00031FA2146834604980EF034FB01460798D8
:102EF0000EF026FA014603980EF02CFB01465846C8
:102F00000EF020FA3060029905F100400EF022FB2D
:102F1000014650460EF01EFB2146834607980EF0F0
:102F200019FB014604980EF00BFA014640460EF0DC
:102F300011FB014658460EF005FA214683460598D6
:102F40000EF008FB014606980EF0FCF901460398C6
:102F50000EF000FB014658460EF0F4F92146706071
:102F600050460EF0F7FA2946044609F100400EF0EB
:102F7000F1FA014640460EF0EDFA014620460EF009
:102F8000E1F93946044628460EF0E4FA0146039872
:102F90000EF0E0FA014620460EF0D4F9B06009B018
:102FA000BDE8F08F80EAE073A3EBE0738B4206DBB1
:102FB000002801DD401A704702D008447047002005
:102FC0007047034B9A6822EA00009860704700BF80
:102FD000F40600202C4B2D4A1B68126810B51A60AD
:102FE0002B4A11685960516892689960DA60294AE1
:102FF000116819615168926859619A61264A11688D
:10300000D9615168926819625A62244A11881985F7
:10301000518859859188D2889985DA85204A118806
:1030200019865188598692889A861E4A1188D986AF
:103030005188928819875A871B4A117800228A4240
:1030400007DA1A4C03EB420034F81240013284874D
:10305000F5E7174A1288A3F86420164A1288A3F8E5
:103060006620154A1188A3F86C1051889288A3F83D
:103070006E10A3F87020114A12689A66104A52899D
:10308000A3F85E2010BD00BF101C0020A82E002059
:103090003C2C0020482C0020542C002072130020CF
:1030A000AC2E0020B0120020C32E00206814002097
:1030B000FA230020F8190020381000207411002095
:1030C00086140020114A30B50028B8BF4042104C89
:1030D00090FBF2F304FB03003C2568430D4D90FB8D
:1030E000F2F22D682D7B25B903EB830303EB8303F9
:1030F00001E0C3EB031302EB830304FB02020B802A
:103100004FF47A7392FBF3F24A8030BD80969800B8
:10311000806967FF041F0020022803D0431E584225
:1031200058417047064B1B681B7823B1054B186844
:10313000C0F3C0407047044B1878C0F3800070475C
:10314000AC060020E80F0020C22E002008B5084879
:1031500011F0A4FBC0B209280246054B04DC013083
:103160002021C0B29954F6E700221A5408BD00BFCE
:10317000ED2B002008B5074811F090FBC0B21428D1
:10318000044B04D8421C20211954D0B2F7E7002286
:103190001A5408BDED2B0020F0B5244A244D2549D2
:1031A000002314682B700B701A461846A6187688F0
:1031B0004EB9A75C3FB92B70002308704B702F7875
:1031C00018461A460CE0360548BF013002F10402E9
:1031D00003F1010348BFC0B2802ADBB2E6D1EAE7BF
:1031E000C5B2BD420CD214F8205001302E099E42C7
:1031F00005F00F05A8BF731C9542A8BF6A1CEFE736
:103200004B708A700C4851084C1E047002F0010289
:103210000A4811440170C3F347020949501E08705F
:1032200003F0010307491A440A70F0BD0C24002082
:103230001424002098190020242400202624002093
:103240002724002025240020F8B5101A0C461F461C
:103250000EF02CF90546381B0EF028F9174B079E87
:1032600019680EF077F92946044628460EF072F9DF
:103270002146074620460EF06DF9014638460EF00D
:1032800061F811F0FBFF0E490EF064F90EF04EFBF1
:10329000069B2146186005F1004011F065FE0949C2
:1032A0000EF058F908490EF04DF80EF019FB002801
:1032B000BCBF00F50C40A0303060F8BD48000020D5
:1032C0002C7D8E3FA00CB34500A00C4610B50EF02F
:1032D000EDF8002104460EF0F9FA08B1204601E0AD
:1032E00004F1004005490EF0E9F905490EF032F904
:1032F00011F010FD034B186010BD00BF8096184BF5
:1033000035FA8E3C4800002010B50C4C23789B0702
:1033100013D50B4B1B78042B0FD90A4A0A4B1068A4
:10332000526818605A60FFF7D1FF084B1A88084BA3
:103330001A80237843F00103237010BD3E10002053
:10334000E0110020181F0020F41A0020DC120020D9
:10335000282D002070B5044640790EF0A3F81E49D0
:103360000EF0ACF91D4D1E4E2860E07B0EF09AF871
:1033700019490EF0A3F9EE606860A0790EF092F89A
:1033800018490EF09BF9184D2860207C0EF08AF841
:1033900011490EF093F96860A07E0EF083F813498E
:1033A0000EF08CF9EE60A860E0790EF07BF80D4924
:1033B0000EF084F90E4D2860607C0EF073F806491B
:1033C0000EF07CF96860E07E0EF06CF807490EF0B4
:1033D00075F9EE60A86070BD0000C842E42C0020C2
:1033E0000000FA4400002041F42C002000007A4440
:1033F000182D002044F25063984203DDA0F50C40E4
:10340000A0387047034B9842BCBF00F50C40A03079
:10341000704700BFB0B9FFFF2DE9F041038A8789EB
:103420000446BFB20D461F40002F36D0B7FA87F3CF
:103430004FF00042DA40D24391B21B3B2182174049
:10344000042BF1D8DFE803F0221F1C1903006B6A7C
:1034500033B103F1FF3800231FFA88F86B6203E0F1
:10346000B4F82C801FFA88F82E6A002EDCD033685E
:103470003046414698477668F7E72868A18E08E00D
:103480006868218F05E0A868A18F02E0E868B4F8B9
:103490004010036889B29847C6E7BDE8F0810C4B3D
:1034A000800A98420CD003D8B0F5801F0ED00BE0F4
:1034B000084B984206D04933984205D10020704706
:1034C0000220704703207047FE207047012070479C
:1034D000010010000200100090F83B3210B57BB9DB
:1034E00090F83A3290F83922934209D2012199405A
:1034F000B0F8404201332143A0F84012DBB2F3E7B9
:1035000010BD8379DB0703D5D1F1010138BF00215C
:10351000D0F834315A681B8909B11361704753617F
:103520007047044B53F820301BB107289CBF1B6821
:1035300019807047B002002010B5054C002021888A
:10354000FFF7EFFF61880120BDE81040E9E700BF09
:10355000861400202DE9F0410F88002347FA03F27A
:10356000D2072BD58A7803F0070512F0100F18BF89
:1035700091F803C002F00F0618BF46EA0C06AD0032
:103580004FF00F0C0CFA05FC06FA05F5DC0850F8B4
:103590002480282A28EA0C0C45EA0C0540F824501F
:1035A00005D101229A40C46824EA020205E0482AB3
:1035B00004D101229A40C4682243C2600133102B17
:1035C000CCD1BDE8F08100BFB64A2DE9F04FB64B33
:1035D0001468B3F9060023898DB09842904610DB39
:1035E000B0F5FA6FE27908DAC11A4A43A3F5FA6333
:1035F00092FBF3F36433049305E0C2F16402049296
:1036000001E064210491A94B0021B3F81E21059229
:10361000A74A156893F9EE20AA46524292B2069242
:103620000A46A14B059E31F903B0C6EB0B0303F22A
:10363000F31740F2E636B74203D8002BB8BF5B421F
:1036400001E04FF4FA73022ADFF878E22ED095F801
:103650005D6126B1B342CCBFC6EB030300236426F1
:1036600093FBF6F7934E6FF0630936F817C009FB2A
:103670000739013736F917700797079E0FFA8CF74D
:10368000F71B07FB09F7642697FBF6F767442EF84C
:103690000170A7183F797B43874F93FBF7F33344BF
:1036A000049F9BB27B4393FBF6F615E095F85E61B1
:1036B00026B1B342CCBFC6EB03030023069F03FB36
:1036C00007F6AEF80460A679002BB8BF5B425E43F4
:1036D000794F96FBF7F66436AB1893F801E0774F15
:1036E00006FB0EFE64239EFBF3FE02F807E09AF849
:1036F0000BC007F1030E06FB0CFC9CFBF3FC02F86D
:103700000EC09AF815E0063706FB0EF696FBF3F6A8
:10371000059BD6559B45DFF8ACB104DA3BF8013088
:103720005B422BF801300132032A01F102010AF158
:10373000010A7FF476AF5D4DB5F82031984205DB84
:10374000B0F5FA6FA8BF4FF4FA6000E01846C01A4F
:103750004FF47A725043C3F5FA63B0FBF3F3642776
:10376000544C93FBF7F204EB42016FF0630000FB53
:103770000233098B04EB4202B2F91A000AB2821A30
:10378000534393FBF7F74E4B39441A884D4E52067C
:10379000ABF806103DD54C4B1888238EC01A00B2EA
:1037A0000DF084FE49490DF0D5FE074611F0B2FA3E
:1037B0008146384611F022FB0746B6F902000DF0AB
:1037C00075FE8246B6F900000DF070FE4946029083
:1037D0000DF0C0FE39460246504603920DF0BAFE87
:1037E000039A014610460DF0ABFD0EF079F84946FC
:1037F000308050460DF0AEFE029B81463946184699
:103800000DF0A8FE014648460DF09CFD0EF068F84C
:103810007080AA6840F6020313402D4E002B00F082
:10382000C5802C4B06211F88636B1F4494F83830E9
:1038300067630133DBB2B3FBF1F084F8383001FB8E
:10384000103313F0FF0F40F0B180930711D507F04C
:103850000BFC214B214A1B7812889A4206D2204A3F
:1038600012889A4234BF0023012300E0022384F827
:103870003930AB68180540F197800C4ABBF906B0A7
:10388000B2F8DE00174AABF57A7BD2F800A0DFF879
:1038900058909AF80820012A28D06ED3022A47D0DF
:1038A0006EE000BF98130020FA0F0020F4060020FD
:1038B000E8110020A01900200CFEFFFFAE19002027
:1038C000EC0F002072130020DC12002035FA8E3C31
:1038D000C22E0020F21200201724002018240020FD
:1038E0001A240020FC1E0020081F002094F84D30F0
:1038F000E06B04EB4303B3F85010082390FBF3F2A2
:1039000089B2821A0A4492FBF3F3E2639BB240F657
:10391000E4425343A4F85810BAF806104FF47A72F0
:10392000C1EB13335343BAF9042093FBF2F325E0C0
:103930003178BAF806204907C9F8002020D503924B
:10394000029303F0C3FC039A029B20B913F0100FFB
:1039500018BF4FF0000B0BFB0BF1322391FBF3F37D
:103960009B44BAF9043003FB0BFB4FF47A739BFBC7
:10397000F3FB5A44C9F8002002E00023C9F80030E4
:10398000D9F80030D4E918015F434FF47A7397FBFC
:10399000F3F7C01941EBE7710023C4E91801704A3D
:1039A0000DF0E4FF6F4B1860002363636E4A6F4BAA
:1039B0001768934617F480511ABF012283F86820D4
:1039C00083F86810AB6894F83990DB052FD596F82A
:1039D00000A00AF0040A5FFA8AFAFFF7F5F818B1B6
:1039E0001AF1000018BF0120C00711D50123E26EB3
:1039F00084F869305E4B1078B3F9001053780344B3
:103A000003EB8303994203DD584B022283F86920BC
:103A1000FFF7DAF828B1BAF1000F02D1022384F8D7
:103A20006930534BB3F900300BB984F86930514B0E
:103A30001A689A4612F0200F0BD017F4C06F05D009
:103A40004D4B1B78990701D4012300E0002384F833
:103A5000703094F86920454B022A02D14C204E2147
:103A600026E0012A06D153204D214C220B4607F0B7
:103A700065FA30E093F87020012A03D15320014603
:103A80004E2206E093F86820012A04D15320014613
:103A900002464D23EBE7B9F1020F04D15320014652
:103AA0004D224423E3E7B9F1010F03D153204D2107
:103AB0000A46F6E7314F3A88120603D553204D21C6
:103AC0000246D3E72E4A12781AB1192007F00CFAF1
:103AD00001E083F871203278570703D5294B08227B
:103AE0005A6178E0DBF80030D80703D4264942F069
:103AF00001020A70DAF80020510702D5234909882B
:103B000061B92349098809B1920705D4214A12886D
:103B1000003218BF012200E0012242B1194AD168E7
:103B200081F00801D160327822F001023270124A2D
:103B30001278170703D4327822F001023270D802CB
:103B400003D5337823F0010333703378124A13F02E
:103B5000010F23D0002363670A4B0821196129E074
:103B6000407E05000C1F0020E80F0020A019002057
:103B7000D20F0020E40F00203E100020EC0F0020A8
:103B800096120020000C0140C22E0020B22E002010
:103B90006A120020B42E0020A82E0020616F136846
:103BA00041B9BD4903F5F42303F590734B67BB4B53
:103BB00008215961636F12686BB1D21A002A0ADBBF
:103BC000B64A03F5F423D16803F5907381F0080138
:103BD000D160B14A5367B24F07F068FF3B78002BC2
:103BE00072D0A36F002B00F08B85A06FAA4DFEF75B
:103BF00017FE002800F08485A86FFEF70CFE092848
:103C000001D03F2853D14FF00009E66FDFF8B482AE
:103C10004D4636B1A348D8F80010324610F046FEA3
:103C200010B9C14605B945469F4B08F10C089845A7
:103C3000EFD3F5B1D5F800C0D9F80080E36F96480E
:103C40001CF803E018F80310714512D15A1C59B939
:103C50002D2B09D8C26703444FF0200E024483F88D
:103C600080E082F8801004E0234483F880E0E2677B
:103C7000E4E7E36F0BB14D4510D08C4804F0DCFA5B
:103C80004D4507D855F80C0B04F0D6FA092004F07E
:103C9000CCFAF5E7864804F0CFFA0026E36F9E429F
:103CA000A3D2804B985D04F0C0FA0136F6E7EB6FC3
:103CB000002B40F05885042840F0A98505F18000CC
:103CC00004F01EFB00F01CBD7A4F97F84A30012B20
:103CD00040F01185DFF8E891774B3A68C9F8007039
:103CE0001A60CB46DFF8D0A152461068FEF798FD67
:103CF000002800F0F184DAF80000FEF78CFDDBF814
:103D0000003093F848201AB9242839D1012234E030
:103D1000012A04D14D280CBF022200222DE0022AE4
:103D200004D13C280CBF0322002226E0032A09D13B
:103D300040284FF0000220D81A71DA71587198713A
:103D400004221AE0042A06D19A7983F849005040E7
:103D50009871052211E0052A26D159791A799142E4
:103D6000997906D941409971511C197113441872FF
:103D70001AE081420CBF0622002283F8482013E09B
:103D800033785B0710D42328DAF8003040F0DB8466
:103D9000434A012149481170A367C4F8483104F02F
:103DA0004BFA434804F048FADBF8003093F8482017
:103DB000062A97D193F8490002F006F982460028B6
:103DC00040F07E843E4B1A6892F84930432B00F055
:103DD000CC8379D82F2B00F028842AD8272B00F009
:103DE0008D830BD8232B00F0D280252B00F07F830E
:103DF000212B40F0B5844FF00009E0E22B2B00F0BE
:103E00008A832D2B00F08B83292B40F0A98404F0AA
:103E1000F9F9A5F80A0104F0F5F9A5F80C0104F088
:103E2000E7F985F80E0104F0EDF9A5F8100100F0AE
:103E300044BC372B00F0D4830AD8332B00F08483A2
:103E4000352B00F0A081312B40F08A8400F002BCB9
:103E50003C2B00F0E28014D8392B40F0818404F030
:103E6000C7F985F8060104F0C3F985F8080104F0E4
:103E7000BFF985F8070104F0BBF985F8090100F0E6
:103E80001CBC3E2B00F0BC80412B08BF4FF000094A
:103E900000F05F8300F064BCA0190020000C01401A
:103EA000BD2E0020201A00201C880108209E010839
:103EB000259E0108501A0020B41F0020559E0108BD
:103EC000B01F002014870108CF2B00F0DB8120D821
:103ED000C92B00F0A5820BD84A2B00F09A80C82B82
:103EE0004BD0442B40F03C84012384F86531E4E35B
:103EF000CC2B00F0738104D8CA2B00F09C8000F01A
:103F00002FBCCD2B00F07582CE2B00F07B8200F011
:103F100027BCD32B2CD005D8D12B00F0A98240F29E
:103F20005D8212E0D62B00F0048207D8D42B08BFA4
:103F30004FF0000A00F0208200F012BCEF2B50D0AE
:103F4000FA2B00F0698200F00BBC337803F0040315
:103F500003F0FF09002B40F0B08304F049F9022878
:103F600085F8600740F24082BD4B83F860973BE2E2
:103F700004F048F9BB4B18809FE392F805A04FEA84
:103F80005A0ABAF1120F1CD84FF000091CE004F0D5
:103F90002FF9272815D8DFF8DCA200F11C0BDAF87E
:103FA000003003EB8B0B04F023F9AF4B0BF1050949
:103FB00003F58A72197A814200F0CF800C33934264
:103FC000F8D109F03DFB78E3D14507D204F01AF9A6
:103FD000A64B23F8190009F10109F5E70122A44BCA
:103FE00018E2DFF89092D9F800A004F00BF9AAF8D3
:103FF0005600D9F8009004F005F9A9F854005CE3E4
:1040000004F0F6F885F8270104F0F2F885F82601A7
:1040100053E304F0F7F8A8814FE3DFF85892D9F89A
:1040200000A004F0E5F88AF80000D9F8003018780C
:10403000FEF786FD41E38F4B1A6899461278022AF3
:104040006ED14FF00009DFF82CA209F1080BDAF865
:104050000030029304F0CCF80DF024FA86490DF0FC
:104060002DFB029B43F82B00DAF800B004F0C0F8F7
:1040700009F10A030BEB830B0DF014FA7F490DF0E5
:104080001DFBDAF80030CBF80400029304F0B0F81E
:104090000DF008FA7A490DF011FB09F10E0B029BA5
:1040A00009F10109B9F1030F43F82B00CBD1B9F1A4
:1040B000070FDAF800B01AD104F09AF80DF0F2F90F
:1040C0006D490DF0FBFACBF84400DAF800B004F0CB
:1040D0008FF80DF0E7F968490DF0F0FACBF84800D9
:1040E000DAF800B004F084F88BF84C0012E004F029
:1040F0007FF80BEB09035870DAF800B004F078F899
:104100000BEB0903D872DAF800B004F071F80BEB8E
:104110000903587509F10109B9F10A0FC7D1CCE2B9
:104120004FF0000AD9F800B004F062F80BEB0A0374
:104130005870D9F800B004F05BF80BEB0A03D872A2
:10414000D9F800B004F054F80BEB0A030AF1010AA5
:10415000BAF10A0F5875E5D1AFE21B788BF805303C
:1041600004F046F889F8010004F042F889F80200EA
:1041700004F03EF889F80300DAF8001001F1750048
:1041800009F0C2F999E204F033F80B283FF619AFB1
:104190004FF0060A0AFB00F0364B00F588701B68EA
:1041A00003EB000A04F024F803283FF60AAF8AF86C
:1041B0000A0004F01DF88AF8050004F019F88AF8DE
:1041C000060004F015F88AF8070004F011F88AF8E0
:1041D000080004F00DF88AF809006EE253790A2B02
:1041E0007FF4EFAED8F8009004F002F889F80000F0
:1041F000D8F8009003F0FCFF89F8010003F0F8FF05
:10420000D8F800306428A8BF6420187103F0F0FFCC
:10421000D8F800306428A8BF6420587103F0E8FF84
:10422000D8F80030FF28A8BFFF20987103F0E0FF06
:10423000D8F80090642828BF642089F8070003F0AC
:10424000D7FF89F80200D8F8009003F0D1FF89F871
:104250000300D8F8009003F0D5FFA9F808002CE27D
:10426000F40600207A1300201C880108FA0F0020B1
:10427000D80F0020E8110020000020410000C842B3
:1042800000007A4403F0BEFF6FF4AF6143189BB2A5
:10429000C62B98BFA5F81E0103F0B4FFC449DFF890
:1042A0001893A1F8D00003F0ADFFC14AA2F8D200E4
:1042B00003F0A8FFBE4BD9F800A0A3F8D40003F088
:1042C000A1FFAAF8AA0103F093FFB94981F83401CC
:1042D00003F08EFF03F08CFFB54A82F8350103F03E
:1042E00087FFB34B83F80F0103F082FFB04981F8D9
:1042F0001C0103F07DFFD9F8009003F083FF00EB71
:1043000080004000A9F8520003F072FFA84A82F82A
:10431000060103F06DFFA64B83F8080103F068FF68
:10432000A34981F8070103F063FFA14A82F809015C
:10433000C3E103F067FF9F4B23F80A000AF1020A6A
:10434000BAF1100FF5D1B8E1A0F57A739BB2B3F5CD
:104350007A7F04D8D9F8003003EBCB035881D9F821
:10436000009003F045FF0AF1010A09EBCB03BAF113
:10437000080F187300F0A181DFF83C920AF12C0BB2
:10438000D9F80020039203F03DFF039A4FEACB03D4
:104390001A44D080D9F800200293039203F032FF30
:1043A000029B039A1A441081029303F02BFF072803
:1043B000029BC9D8D9F8002013445873C4E77E4B38
:1043C000D3F800A003F014FF0AEBC90309F10109B7
:1043D000B9F1080F83F86D01F1D16EE133785A0716
:1043E00000F16B8109F0EFFD04F086F904F03EFA6C
:1043F00063E133785B0700F16081704B4FF4C87262
:104400001A805AE13378580700F157816C4B1A78BB
:1044100042F004021A7050E133785907E4D59FE165
:1044200003F0E6FE664B1A7810B142F0020201E09A
:1044300022F002021A7003F0DBFE624BDFF89C915F
:10444000187003F0E9FEC9F8000003F0E5FEC9F8B2
:10445000040003F0D7FE5C4B188003F0D3FE5B4BE7
:10446000188094F8503143F0020384F8503124E16D
:1044700003F0BEFE029003F0CFFE834603F0CCFEB5
:10448000824603F0C9FE814603F0BCFE03F0BAFE8B
:1044900003F0AEFE029BABB94D49C4F854B10B8892
:1044A000C4F858A123F010030B80454B1A7842F052
:1044B00001021A70B9F1000F00F0FF80454BC3F8FC
:1044C0000090FAE0102B40F0F880C4F85CB1C4F81A
:1044D00060A1B9F1000F02D03E4BC3F800903E48F6
:1044E0000223011D84F8643109F0B6FFE5E0A860FD
:1044F00003F092FEAB681843A860DEE003F082FE92
:10450000A5F8E80003F07EFEA5F8EA0003F07AFEC5
:10451000A5F8EC00D1E003F06BFE6871CDE003F08C
:1045200067FE85F81A0103F06DFEA5F8220103F07D
:1045300069FEA5F81E0103F065FEA5F8200103F051
:1045400057FE85F81B01B8E003F052FE85F81C0108
:10455000B3E003F04DFE05EB090309F10109B9F1E0
:10456000080F83F81201F4D1A7E003F041FEC5F86B
:1045700008A0687103F050FEAB681843A86003F010
:1045800037FE85F81A0103F03DFEA5F8E80003F0B8
:1045900039FEA5F8EA0003F035FEA5F8EC0003F0BB
:1045A00031FEA5F80A0103F02DFEA5F80C0184E008
:1045B000F4060020B8140020E81100206A12002040
:1045C0003E100020E0110020121F0020101F0020CC
:1045D000EC0F0020F00F0020FC1A0020181F002014
:1045E00053791C2B7FF4EDACDFF8A89209F1200A77
:1045F00003F0FEFD89F83A0103F004FEA9F83C013E
:1046000003F0F6FD89F83E0103F0F2FD89F83F0161
:1046100003F0EEFD89F8410103F0EAFD09F1080914
:1046200089F83801D145E3D147E0DFF8689209F114
:10463000400A03F0E7FDA9F8EC0103F0D9FD89F881
:10464000EE0103F0D5FD09F1040989F8EB01D1452C
:10465000EFD132E003F0CCFD1F283FF6B2ACD9F821
:1046600000305B79082B7FF4ACAC00F15A0A03F000
:10467000C9FD05EB8A0A00F03F00AAF8060003F026
:10468000C1FDBAF80620800100F4FE531343AAF8D6
:10469000063003F0ADFD00018AF8040003F0A8FD28
:1046A0009AF8043000F00F0018438AF8040003F071
:1046B0009FFD8AF80500FEF76FFD002003F070FDF6
:1046C000DFF8D491D9F80030987903F039FDD9F8A2
:1046D0000030002283F8482094F865315BB13868D7
:1046E000FEF782F818B93220FEF76FF8F7E702F00C
:1046F00079FE0BF0B1F8554B4C379F427FF4E5AA99
:10470000534B1B689A0616D5524BD4F868211B6888
:104710009A1A002A0FDB504A1278042A0BD94F4A02
:1047200003F5123303F5F873C2F868314C4BDA68BD
:1047300082F01002DA604B4B9B68002B00F0838004
:10474000494898477FE0D4F84C311B7883427FF486
:104750002BAB464A464B1A600BF07EF8FFF724BBA2
:1047600008F06EFFACE70C2803D1424803F064FD6B
:104770003EE00A2801D00D283CD13F4803F05CFD03
:10478000E36F0BB9E36709E0344A591E02F1800078
:10479000085C202801D10B46F3E7D36723440022AD
:1047A00083F8802094F88030232B17D0334B344E7D
:1047B0000A92009309A8334916220C23099610F097
:1047C000C6F8054638B1006810F068F80130AB68EB
:1047D0003044984702E02C4803F02EFD2848002181
:1047E000302210F01AF80023E3673B78002B87D0C3
:1047F000264808E07F2810D1013BEB6700222B44BC
:10480000234883F8802003F017FDFFF7EEB90C284A
:10481000ABD07F2804D1FFF7E8B92F2B3FF6E5A9ED
:10482000A0F12002D2B25E2A3FF6DFA913B92028F8
:104830003FF4DBA95A1C2344E26783F8800003F0AD
:10484000F4FCFFF7D2B90DB0BDE8F08FE81A0020F4
:10485000E40F0020A82E0020E0110020A019002065
:10486000000C0140EC1100200C1B0020EFBEADDE5F
:10487000F04F00202A9E010887A80108E17900086E
:10488000201A002014870108359E0108259E010882
:10489000519E0108F4060020B01F002097492DE921
:1048A000F04F0B68964A03F59C43964D20331360F6
:1048B000AA6885B012F4807F0C4603D0924B198809
:1048C0000131198042F2010313401BB18F4B1A785A
:1048D00001321A700AF02EF8AB68DE0405D58C4B55
:1048E0001B68D80701D40CF03BF88A4B2468186881
:1048F000837A83B1884A013B32F91300A0F57A70BC
:10490000B0F57A7FA8BF4FF47A7020EAE0700CF01F
:10491000CDFD82492FE0AA68110435D57B4A516844
:10492000611A002930DB04F59C41203151607C493B
:104930004E797C4931F81660C17AB6B296FBF1F037
:10494000117A013101F00F0111720A4450721846B8
:10495000754A9A5C01331044102B80B2F8D100B232
:1049600090FBF3F000B26428A8BF642020EAE07056
:104970000CF09CFD6D490CF0A1FE6D490CF0EAFDB8
:104980000CF0D4FF6B4B1880AB686B4E13F4807F38
:1049900038D06A4B9C4204D95B4B1A790AB9012280
:1049A0001A71FEF711F900282CD0574A11791346D5
:1049B00009B9118026E03278614912F0040F12D053
:1049C0005D4842F002020270504A534CD26990890D
:1049D0002080908960809289A2800A685288E28053
:1049E0005A8801325A800A68B3F900101078537857
:1049F000034403EB8303994202DC33785A0701D462
:104A00000BF0AEFFB5F8DE0002F060FC804660B946
:104A1000FEF7CCF83D4B0022C3F82080C3F8248079
:104A2000C3F82880DA621A635A6333785B0720D5AB
:104A3000AB68DF061DD5434B1B78DC0619D4314B20
:104A400093F82721AAB1404B1B7893B12F4B3F49D4
:104A5000B8F1000F07D10A689B6B9B1A002B08DA8C
:104A60000BF07EFF05E009684FF47A7000FB02123C
:104A70009A63002295F8259195F82611B5F8204102
:104A8000B5F822711346DFF890C09B083CF902008C
:104A90000232A042C4BF63F07F03DBB2B842B8BFAA
:104AA00043F04003082AEED1184C94F83C209A4277
:104AB00005D194F83D20F92A04D8013200E0002203
:104AC00084F83D2084F83C301F4B114F1A789A46E9
:104AD000002A40D13B68D80708D5B8F1000F3AD179
:104AE0003378DA0737D506F097FE34E033785B0782
:104AF00031D569B30BF034FF2DE000BFA82E0020A4
:104B0000DC0F0020F4060020D20F0020101B002034
:104B1000E80F00207C0E0020FA0F002000007A44ED
:104B2000E0190020F0190020191B00200000C842E5
:104B300000C07F44A81D0020C22E0020404B4C0026
:104B40000C1A00203E1000202D000020982E00207E
:104B5000B8F1000FCED094F83D20B04B142ADFF806
:104B6000008371D1327819F1000902F0040218BFF4
:104B70004FF0010902F0FF019AB19AF80020002AD3
:104B800062D093F83C305F2B01D10BF0E9FEB9F114
:104B9000000F59D094F83C307D2B55D10BF0E0FE3E
:104BA00052E093F83CB0BBF1570F15D19C4B4FF43A
:104BB0007A721A80AB68180601D5FEF7A5FB994BEF
:104BC0001B68590702D5984A0A21118013F008037F
:104BD0003AD1964A138037E0AA68520716D5BBF13E
:104BE0005A0F13D1924A107818B11170914B0122CB
:104BF00008E093F83E2082F0010283F83E208E4BBD
:104C000012B104221A701FE00622FBE7BBF15D0F10
:104C100000F08184BBF15B0F00F07F84BBF15E0F7D
:104C200002D1032200F07ABCBBF1560F01D104F08F
:104C300019F99AF80030002B00F08884BBF16F0F4F
:104C400040F07D8406F0E8FDAB68580732D594F853
:104C50003E30A3B13378590711D57848784BB0F975
:104C60000620B3F820319A4209DD3B6813F00103B6
:104C700005D1744A32211180684A82F83E303B687F
:104C8000DA030AD5704B1A782AB9694A127812B930
:104C90006C4A3221118001220BE0654B1A784AB12F
:104CA000327802F0040202F0FF011AB91970614B68
:104CB00001221A70D8F80090002309F1750A3B60B0
:104CC00009F1770698460AF1020303EB080113F88D
:104CD00008204B7816F8010C9A420AD2314606F0A9
:104CE0009FF930B116F8023C01229A403B68134309
:104CF0003B6008F10408B8F1A00F06F10406E2D108
:104D0000524B1B783BB13B68464E13F0020F504CA0
:104D100040F0D682CEE209F21512019209F58B76A7
:104D20009846DDF804C016F8010C0CF1010303EB02
:104D3000080113F808204B789A4229D2314606F030
:104D40006FF928B396F802C03079424B0CF1FF3C62
:104D50004FF00C090CEB4C0C09FB00F99C442F4B59
:104D600096F803B003F1400A0AEB09014A6862456C
:104D70000ED000220AF809B08A60012202FA00F07F
:104D800093F87020C1F804C022EA000083F8700094
:104D900008F10608B8F1480F06F10606C1D12E4AFF
:104DA0002E4B12681E68DFF8BC9001924FF000088D
:104DB000D9F80030002B00F074821A78002A00F035
:104DC0007082D9F804100198411A00290CDB00F513
:104DD000FA71C9F80410012101FA08F194F8700081
:104DE00020EA010184F8701019F8041C5878043185
:104DF000C9B2002840F01782104830F91110B5F8F8
:104E00001E0100F1C80C614501DD98783BE0C8380F
:104E1000814229DA9878404235E000BF101B00201B
:104E2000B42E0020E40F0020B22E0020DC1200205F
:104E3000951200209712002096120020FA0F0020F1
:104E4000F40600207C12002094120020BD2E0020C9
:104E5000EC0F002030890108982E002098130020C4
:104E6000E8110020541B0020012303FA08F394F8F2
:104E7000702022EA0303019A84F8703002F5FA7375
:104E8000C9F804300DE294F8703043FA08F3DB07F8
:104E900000F107820028AE4BCCBF0221012119701E
:104EA000531E0D2B00F2F581DFE813F00E00170002
:104EB0002300300044004A009700E40031016501FE
:104EC0009101F30130003B0033781844FA28A8BF61
:104ED000FA2020EAE070307007E073781844642804
:104EE000A8BF642020EAE07070703046FDF720FC17
:104EF000CFE1F37818446428A8BF642020EAE0706A
:104F0000F070616F3046FDF7CFFBC2E17379034467
:104F1000642BA8BF642323EAE3730D2A737100F0A6
:104F2000B881337918446428A8BF642020EAE0706F
:104F30003071AEE1B379184480F30800B071A8E194
:104F4000D4F878B09BF80020022A31D10CF0AEFAE8
:104F500080490CF0B3FBDBF8241000900CF0F2F960
:104F6000002182460CF094FC38B950467A490CF086
:104F7000ADFC20B1DFF8E0A101E04FF0000ACBF872
:104F800024A0DBF8201000980CF0DCF90021824608
:104F90000CF07EFC38B950466F490CF097FC20B1FC
:104FA000DFF8B4A101E04FF0000ACBF820A070E1D7
:104FB0009BF802200244C82AA8BFC82222EAE27253
:104FC0008BF802209BF801201044C828A8BFC820F5
:104FD00020EAE0708BF801005BE1D4F878B09BF830
:104FE0000020022A31D10CF061FA5B490CF066FB1B
:104FF000DBF8301000900CF0A5F9002182460CF08F
:1050000047FC38B9504654490CF060FC20B1DFF839
:1050100048A101E04FF0000ACBF830A0DBF82C10DB
:1050200000980CF08FF9002182460CF031FC38B961
:10503000504649490CF04AFC20B1DFF81CA101E0C0
:105040004FF0000ACBF82CA023E19BF80C2002447F
:10505000C82AA8BFC82222EAE2728BF80C209BF86B
:105060000B201044C828A8BFC82020EAE0708BF8A5
:105070000B000EE1D4F878B09BF80020022A31D161
:105080000CF014FA35490CF019FBDBF83C100090D9
:105090000CF058F9002182460CF0FAFB38B9504662
:1050A0002D490CF013FC20B1DFF8ACA001E04FF06B
:1050B000000ACBF83CA0DBF8381000980CF042F95D
:1050C000002182460CF0E4FB38B9504622490CF02E
:1050D000FDFB20B1DFF880A001E04FF0000ACBF823
:1050E00038A0D6E09BF816200244C82AA8BFC822E0
:1050F00022EAE2728BF816209BF815201044C8288B
:10510000A8BFC82020EAE0708BF81500C1E0D4F8F1
:1051100078B09BF80030022B22D10CF0C7F90D4972
:105120000CF0CCFADBF828100CF00CF900218246C8
:105130000CF0AEFB38B9504607490CF0C7FB20B164
:10514000DFF814A001E04FF0000ACBF828A0A0E09F
:1051500096120020000020410000C84200007A445E
:105160009BF803301844C828A8BFC82020EAE07084
:105170008BF803008DE0D4F878B09BF80030022B58
:105180001AD10CF093F9A3490CF098FADBF834101B
:105190000CF0D8F8002182460CF07AFB38B9504662
:1051A0009C490CF093FB20B1DFF868A201E04FF0BE
:1051B000000ACBF834A06CE09BF80D301844C828E6
:1051C000A8BFC82020EAE0708BF80D0061E0D4F899
:1051D00078B09BF80030022B1AD10CF067F98E4999
:1051E0000CF06CFADBF840100CF0ACF800218246B1
:1051F0000CF04EFB38B9504686490CF067FB20B1E5
:10520000DFF810A201E04FF0000ACBF840A040E028
:105210009BF817301844C828A8BFC82020EAE070BF
:105220008BF8170035E0012833D198787B4B33F9A0
:105230001110B1F5617F05DB40F633039942B8BF29
:105240000B4601E04FF461730C2A22D14FF4966AA9
:10525000A3F561739AFBF0FA93FBFAFA94F87C30A9
:105260005FFA8AFA534514D0BAF1030F6C4A94BF1F
:10527000534602230A2184F87C3001FB032369484A
:1052800002330360FDF76EFA674B0AF1010A83F8F7
:1052900000A0012303FA08F394F87020134384F864
:1052A000703008F10108B8F1040F09F10C097FF41E
:1052B0007FAD28E5AB68D80514D5FDF785FC88B12E
:1052C000336899070ED52388DFF86C8113F0010944
:1052D0000ED1FDF76BFCB8F8003043F00103A8F8DD
:1052E000003005E0238823F001032380012300E040
:1052F00000233A68520711D583B12388DFF838813B
:1053000023F001029B0722800CD4FDF74FFCB8F874
:10531000003043F00203A8F8003003E0238823F0B4
:10532000020323802388414A13F0030F4FF010013A
:1053300014BF51611161316811F00A0F22D03A682F
:10534000D60609D558070AD443F004032380384B06
:105350001888384B188002E023F004032380960657
:10536000238806D5580607D4334843F0400303800A
:1053700002E023F040032380530603D52C4B1A8808
:105380002E4B1A808E0607D43B68180540F1B58075
:10539000238843F48073B3E0294B1B78990775D5B4
:1053A000284B1B78042B71D93B6813F400700ED086
:1053B0002388DA06E8D424481F4A23F0200343F068
:1053C0001003011D138009F047F8022268E02188CC
:1053D00001F0100292B232B1174A21F0100111808F
:1053E0001A4A107001225E054AD5194B1B6859896B
:1053F000184BB3F900000028B8BF404288422BDAAE
:10540000B3F90230002BB8BF5B428B42ACBF002324
:10541000012322E00000C84200007A44FA0F002075
:10542000540E00209813002096120020000C01401A
:10543000DC1200207A130020EC0F0020D01900208D
:105440003E100020E0110020F41A0020041B002070
:105450008C1300207213002000238BB12388980640
:1054600021D4674A43F020031380664B66481A68CC
:105470005B68011D0260436008F0EEFF01220FE04F
:10548000238899060FD523F0200306E0238813F024
:10549000300F3FF479AF23F03003594A13800022D4
:1054A0005A4B1A7002E0002A3FF46EAF00231A46EE
:1054B0005749002050525749574E5052574906EB12
:1054C000030C5052002199510232CCF80400CCF860
:1054D000081006F1280C503643F80C1099519C44E2
:1054E0001E44042ACCF80400CCF808107060B160A7
:1054F00003F114033FF448AFDAE7238823F4807301
:1055000023806B79082B01D00E2B76D1238823F0D2
:105510004003238071E0012200E002225FFA82F959
:1055200009F1FF3385F8603703F0E6F803F09EF9E0
:10553000022028214A4602F0A5FDFFF785BBB9F1FC
:10554000000F03D0BBF17E0F3FF47CABBBF1970F94
:1055500005D1334B4FF4C8721A80FFF775BBBBF10E
:10556000A70F05D12F4B1A7842F00402FFF74ABB70
:105570000023BBF1BB0F039301D1022304E0BBF175
:10558000B70F04D14FF6FE73ADF80E300BE0BBF150
:10559000BE0F01D1022304E0BBF1BD0F1AD14FF6BB
:1055A000FE73ADF80C30D8F80030BDF80C10B3F82D
:1055B00054200A44A3F85420BDF80E10B3F8562026
:1055C0000A44A3F8562003F04DFC002384F83D3034
:1055D000FFF73ABBBBF1790F04D1134BDA7822F015
:1055E000010207E0BBF17A0F7FF42EAB0E4BDA78A5
:1055F00042F00102DA70FFF727BB05B0BDE8F08F7B
:10560000EC0F0020181F0020FC1A0020041B0020B3
:10561000BE2E002090130020901B00209413002029
:105620006A1200203E100020FC0200202DE9F04FFD
:105630008C4E8BB03378023B072B00F2A784DFE857
:1056400013F008002E004F0069008000FB0051019C
:105650009304854B854D1A686B6864339A4240F217
:1056600095840024824B834A1B789C420ADA2B687B
:105670007E4FD05C30B1FDF7EFF83B680134013369
:105680003B60EFE72968794B525C002A40F07E844A
:105690001A604FF0FF325A60032300F076BC2423D7
:1056A0000093754B062103F10C0201930292A3F1C2
:1056B0002200A3F10A02023301F0F0FC002840F0BE
:1056C00065846E4B9B6813F08002684B06D04FF0E8
:1056D000FF3218605A60042300F057BC1A602DE0B6
:1056E00002230093664B042103F10C020193029202
:1056F000A3F11800A3F108020B4401F0CFFC00282D
:1057000040F04484594B4FF0FF3218605A60052333
:1057100000F03BBC072300935A4B042103F10C0219
:1057200001930292A3F11800A3F108020B4401F0C7
:10573000B5FC002840F02A844C4B1860062300F08A
:1057400024BC4A4C236813B9636001232360484B8F
:105750001D7863681D44402DA8BF4025132D65604A
:1057600040F31484414B1B680D2B00F20D84DFE8DD
:1057700003F05F070B0E121923282D3135414C52CF
:105780004148FDF78EF851E04048414940E041482A
:105790004149424A48E0394B414893F8801793F811
:1057A000812741E0354B0A2193F860273D4801FBF2
:1057B000023393F862172BE0304B3B48B3F8D0101C
:1057C00026E02E4B3948B3F8D21021E0384B394847
:1057D000D9681DE0384B3948198819E0384B1B68E7
:1057E000DE0404D5254B374893F8061110E00C234E
:1057F00023601DE0214B344893F8081193F80921E8
:1058000093F8073107F0F2F810E02D4B2F489988F4
:1058100007F0ECF80AE0194B9A68100508D52C48F7
:10582000B3F80C11B3F90A2107F0E0F8281A606008
:10583000236801332360A9E3264B00241C60264B18
:105840001C60264B1C6008233370FCF799FF0AA9E3
:10585000234B41F8140D012220461A70FDF732F84F
:1058600094E300BFD5060020982E0020E406002017
:10587000680000205C890108F2890108F406002014
:10588000B08B0108D88B010831A101084EA1010895
:1058900066A101086EA1010885A1010891A1010876
:1058A0009AA10108AEA10108BBA10108CDA1010880
:1058B000EC110020DFA101081C000020F2A101086A
:1058C000081C0020FFA101080FA201082BA201085B
:1058D00039A20108E0060020DC060020D8060020DE
:1058E00096120020BF4B1868002840F0BB80BE4DC8
:1058F000FDF770FB4920AC68FCF7AEFFBB4B0E26F2
:105900001868FCF7B9FF2068FCF7B6FF6068FCF781
:10591000C2FFA068FCF7BFFFE068FCF7BCFF20698E
:10592000FCF7B9FF6069FCF7B6FFA069FCF7B3FFAD
:105930000122B2402B681A4205D004EB860353F8CB
:105940001C0CFCF7A8FF0136112EF1D1B4F9280088
:10595000FCF7A1FFA64EB4F92A00FCF79CFFB4F9AE
:105960002C00FCF798FFB6F8D030B4F92E00C01A1E
:10597000FCF782FF2B68D90408D59B4B9888B4F8B4
:105980006430C01AC0F30D00FCF776FF2B689A0450
:1059900003D5B4F86600FCF76FFF2B685B0506D4EF
:1059A0002B681F0510D5A06EFCF775FF0CE0B4F94D
:1059B0006C00FCF770FFB4F96E00FCF76CFFB4F9F3
:1059C0007000FCF768FFEBE7B4F93000FCF763FF09
:1059D000B4F93200FCF75FFFB4F93400FCF75BFF69
:1059E000B4F93600FCF757FFB4F93800FCF753FF61
:1059F000B4F93A00FCF74FFFB6F8D030B4F93C00E8
:105A00000126C01AFCF738FF7A4B1B789E420ADA4F
:105A100004EB4603B3F93C00B4F93C300136C01A3C
:105A2000FCF739FFF0E72B68980507D56E4B9B68AC
:105A3000B3F95E00A0F2DC50FCF72DFFAB686E4AB4
:105A40006E49EB602B619B1A9B104B430321013382
:105A500093FBF1F101EB41015B1A742101FB03227D
:105A6000AA6071E2624B013893F8802793F881179E
:105A70001044B0FBF1F401FB1401914280F0288244
:105A8000594DFDF7A7FA5020D5F80880EF68FCF7CC
:105A9000E3FE2A69AB6810681B6800241844EB68B1
:105AA0001B68A0EB4300FCF7F6FE08EB04023B1971
:105AB00050685B680434C01AFCF7EDFE0C2CF4D17E
:105AC000002308EB0301FA180969126905AC8A1A68
:105AD0001A5104330C2BF4D100221346A15801F1C2
