:020000040800F2
:100000000050002045960008F1960008B5810008D0
:10001000F1960008F1960008F19600080000000033
:10002000000000000000000000000000F196000841
:10003000F196000800000000F19600089581000884
:10004000F1960008F1960008F1960008F196000874
:10005000F1960008F1960008F1960008F196000864
:10006000F1960008F1960008F1960008F196000854
:10007000F1960008F1960008FD800008F19600084E
:10008000F1960008F1960008F1960008F196000834
:10009000F1960008F1960008F1960008F196000824
:1000A000F1960008C5800008F1960008D580000888
:1000B000B5800008A58000089580000845810008EB
:1000C0003D8100084181000839810008F19600084F
:1000D000F1960008F1800008E5800008F19600081C
:1000E000A5810008F1960008F196000800000000C4
:1000F0000000000000000000000000000000000000
:0C01000000000000000000005FF808F1A3
:10011000BE4B2DE9F04FB3F90600BD4B91B01D6801
:100120002B89984210DBB0F5FA6FEA7908DAC11A28
:100130004A43A3F5FA6392FBF3F36433049305E0B7
:10014000C2F16402049201E064210491B14C0021E7
:10015000B4F81E310A460693AF4B1E6894F9EE3090
:10016000B2465B429BB20793A84B069FCB5E0593BA
:10017000DB1B03F2F31C40F2E637BC4503D8002B2F
:10018000B8BF5B4201E04FF4FA73022ADFF89882AD
:1001900036D096F85D7127B1BB42CCBFC7EB0303E5
:1001A0000023642793FBF7FC9C4F6FF0630B37F839
:1001B0001C900BFB0C3B0CF1010C37F91CC0CDF86B
:1001C00020C0089F0FFA89FCCCEB070C0CFB0BFC42
:1001D00064279CFBF7FCCC4428F801C005EB020C1B
:1001E0009CF804C003FB0CFC8D4B9CFBF3F33B44DD
:1001F000DDF810C09BB20CFB03F393FBF7F716E09E
:1002000096F85E7127B1BB42CCBFC7EB0303002356
:10021000DDF81CC003FB0CF7A8F80470AF79002BC5
:10022000B8BF5B427B437E4F93FBF7F76437B3184D
:1002300093F80180DFF818C207FB08F8642398FBE5
:10024000F3F802F80C809AF80B900CF1030807FB06
:1002500009F999FBF3F902F808909AF815800CF166
:10026000060C07FB08F797FBF3F702F80C70059BE9
:10027000069FDFF8B4B1BB4204DA3BF801707F425D
:100280002BF801700132032A01F102010AF1010A7F
:100290007FF46AAF5F4FB7F82021904205DBB0F5DD
:1002A000FA6FA8BF4FF4FA6000E01046801A4FF4CE
:1002B0007A714843C2F5FA62B0FBF2F24FF064087B
:1002C000564D92FBF8F105EB4100B0F818C06FF005
:1002D000630000FB012205EB4101B1F91A000FFA9E
:1002E0008CF1411A4A4392FBF8F84E4AC4441188F3
:1002F0004D4E4A06ABF806C040D54C4A10884C4AD1
:100300001288801A00B208F007FC4A4908F058FC2D
:1003100080460BF091F9814640460BF001FA804689
:10032000B6F9020008F0F8FB8246B6F9000008F0C2
:10033000F3FB4946029008F043FC41468446504690
:10034000CDF80CC008F03CFCDDF80CC0014660465E
:1003500008F02CFB08F0FAFD49463080504608F0C2
:100360002FFC029A81464146104608F029FC0146BE
:10037000484608F01DFB08F0E9FD7080B96840F6BA
:1003800002020A402C4E002A00F0B7802B4A0620B9
:10039000B2F800902A6B914495F83420C5F830905B
:1003A0000132D2B2B2FBF0FC85F8342000FB1C22F3
:1003B00012F0FF0F40F0A1808B0711D503F068FC0D
:1003C0001F4A204912780988914206D21E4909889D
:1003D000914234BF0022012200E0022285F835203C
:1003E000BA68100540F18780184B0A49D3F800809D
:1003F000BBF906A098F80830B1F8DE00012BAAF589
:100400007A7A27D062D3022B3ED061E00608002022
:10041000A0080020D400002068080020180B00204D
:100420000CFEFFFFAE080020000A00205C08002040
:10043000B208002035FA8E3CA7160020FA090020E9
:10044000600E0020640E0020620E00205C0E002072
:10045000260B0020AA6B082392FBF3F1521A92FBA1
:10046000F3F3AA639BB240F6E44253430021A98709
:10047000B8F806104FF47A72C1EB13335343B8F94E
:10048000042093FBF2F322E03178B8F806304907F4
:100490002B641DD50292039306F0A4FD029A039BE0
:1004A00020B912F0100F18BF4FF0000A0AFB0AF132
:1004B000322291FBF2F29244B8F9042002FB0AFACC
:1004C0004FF47A729AFBF2FA534400E000232B6453
:1004D0002B6C4FF47A7203FB09F3D5E9120193FBFD
:1004E000F2F3C01841EBE371C5E912019D4A002304
:1004F00008F072FD286500232B639B499B4A0B681B
:10050000894613F4805318BF012382F85430BB6826
:1005100095F83580D9052CD5377807F00407FFB258
:1005200004F0CAFA10B1381C18BF012010F0010FF6
:10053000DFF878A211D0012385F855308C4BBAF939
:1005400000101A6810785378034403EB8303994230
:1005500003DD864B022283F8552004F0ADFA18B172
:1005600017B9022385F85530BAF900300BB985F870
:10057000553095F855207D4B022A02D14C204E2152
:100580001EE0012A06D153204D214C220B4606F0D5
:100590002FFE28E093F85420012A04D1532001466D
:1005A00002464D23F3E7B8F1020F04D15320014670
:1005B0004D224423EBE7B8F1010F03D153204D2125
:1005C0000A46F6E76B490A88120603D553204D21E7
:1005D0000246DBE7684A12781AB1192006F0DAFD04
:1005E00001E083F856203278570704D5634B4FF467
:1005F00080425A615AE0D9F80030D80703D46049E4
:1006000042F001020A705F4A12881AB15E4A12680B
:10061000910705D45D4A1288003218BF012200E01C
:10062000012242B1554AD16881F48041D1603278CB
:1006300022F001023270564A1278120703D432783F
:1006400022F001023270DB0203D5337823F001037C
:10065000337033784F4A13F0010F09D00023AB6594
:1006600003F180434FF4804103F5883319610CE0B6
:10067000A96D136849B93D4903F5F42303F5907357
:100680008B653E4B4FF480415961AB6D12686BB185
:10069000D21A002A0ADB394A03F5F423D16803F59C
:1006A000907381F48041D160304A93653A4B1A7857
:1006B0009946002A00F09A80EB6D002B00F0AF867F
:1006C000E86D2A4C03685B689847002800F0A7860D
:1006D000E06D03689B6898470928014601D03F28D0
:1006E00077D14FF000082E6E2C4F44462EB12C4887
:1006F000396832460AF0BAFD10B9B84604B93C462A
:10070000284B0C379F42F1D3D4B12B6E2268174887
:10071000D75CD8F80020D15CB94211D15A1C51B92C
:100720002D2B08D8026603442027024483F8647006
:1007300082F8641004E02B4483F864702A66E4E7CE
:100740002B6E0BB1444537D0174804F005F94445EA
:100750002ED854F80C0B04F0FFF8E86D092104F0D2
:1007600060F8F4E7407E050000080020180B002028
:1007700030080020AE080020610800200010014071
:10078000A71600206208002058080020A4160020A8
:100790004C08002098160020A6160020B4D70008A8
:1007A0007C0B002080D80008F3E20008EE07002050
:1007B000B74804F0D1F800262A6EB64B9642BFF433
:1007C0007FAF03F16402915DD86D04F02AF8013621
:1007D000F2E7236E002B41F01981042841F01081CB
:1007E00004F1640005F0BEF900F019BEAA4D95F8B9
:1007F0004A30012B40F00E86A64E2B68C6F8945066
:10080000C6F898303746D7F89800DFF88882036832
:100810005B689847002800F0ED85D8F898000368D9
:100820009B689847D8F8943093F848201AB9242840
:1008300039D1012234E0012A04D14D280CBF022213
:1008400000222DE0022A04D13C280CBF0322002202
:1008500026E0032A09D140284FF0000220D81A715F
:10086000DA715871987104221AE0042A06D19A7933
:1008700083F8490050409871052211E0052A28D1DB
:1008800059791A799142997906D941409971511C47
:100890001971134418721CE081420CBF0622002219
:1008A00083F8482015E07D4B1B785B0711D4232883
:1008B000D8F8983040F0BB85794A01217948117009
:1008C000C8F85C30C8F89C3004F046F8704804F072
:1008D00043F8D7F89420DFF8BC8192F84830062B13
:1008E00091D192F84930452B00F0528500F2B48046
:1008F0002A2B00F0138546D8052B00F0FC811CD86C
:10090000022B00F0D4810DD8012B40F09D850320EF
:1009100003F0FAFF002003F0C7FF012003F0C4FF3B
:100920000820D1E1032B00F0D281042B40F08C850C
:10093000062003F0E9FF0026D4E1242B00F0C68452
:1009400007D8222B40F08085A02003F0DDFF002691
:10095000A7E3262B00F0C084282B40F07585524E6B
:10096000072003F0D1FFB6F90A0103F0D0FFB6F972
:100970000C0103F0CCFF96F80E0103F095FFB6F9D9
:10098000100100F0E6BC382B00F0B5842BD8322BD8
:1009900000F0CA8419D82C2B40F05685424E08200E
:1009A00003F0B2FF96F81A0103F07EFFB6F92201B8
:1009B00003F0ADFFB6F91E0103F0A9FFB6F920015F
:1009C00003F0A5FF96F81B017EE1342B00F0858330
:1009D000362B40F03985344E0E2003F095FF06F19A
:1009E000100700F0B9BC3D2B00F081820CD83A2BE7
:1009F00000F04D823B2B40F02785012003F084FF5F
:100A00002A4B1B6818785FE1402B00F09484422B3E
:100A100040F01A85244E102003F076FF707903F021
:100A200043FFB06803F002FF96F81A0103F03CFFA1
:100A3000B6F9E80003F06BFFB6F9EA0003F067FFD0
:100A4000B6F9EC0003F063FFB6F90A0103F05FFFAB
:100A5000B6F90C0100F07DBC6E2B00F01C8200F298
:100A6000EF80662B00F08C8100F2D180492B00F0E2
:100A700049821DD8462B40F0E7840D2003F044FF47
:100A8000002003F011FF002003F0D0FE00F08BBC2B
:100A9000F8E20008180B0020B00D0020A716002077
:100AA000A616002028E30008D400002068080020D3
:100AB000642B00F03C81652B40F0C6840B2003F0D2
:100AC00023FFD04BB3F9000003F021FFB6F8A000DC
:100AD00000B203F01CFFCC4B1B68C3F3C000C3F390
:100AE0008002800040EA4200C3F340021043C3F397
:100AF000401240EAC20003F01003184303F007FF5E
:100B0000C24B1A8812F0010F0CBF0023022312F00F
:100B1000020F0CBF0026042612F0040F0CBF0027A2
:100B20001027049312F0400FB94B0CBF4FF0000C8C
:100B30004FF0200C12F0100F1B680CBF00214FF477
:100B4000007112F0200F05960CBF00264FF480664E
:100B500012F4807F069708910CBF00274FF40067BE
:100B600003F4802103F4002002F0080BCDF81CC030
:100B700003F4807A03F4804C09960A9703F4003654
:100B800003F4803703F4805903F4005803F4004E53
:100B90000B9103F4801103F0C00343EA0B0343EA13
:100BA0000A0343EA090343EA080343EA0C0343EA5E
:100BB0000E033B4333430B9EDDF814C03343034322
:100BC0000B439449079E0F780699C7F380073B4370
:100BD000049F12F4007F43EA070343EA0C0343EA4D
:100BE0000103089F43EA0603DDF824C043EA070334
:100BF0000A9943EA0C0343EA01030CBF00224FF4B5
:100C000000121A43844B00201E780346A3E0692B90
:100C100000F01A8107D8682B40F01684102003F0EA
:100C200073FE0026E5E06C2B00F021816D2B40F077
:100C30000B84062003F068FE002003F0F7FD28E394
:100C4000742B00F08F820FD8702B00F08A81C0F0D7
:100C50006081722B00F0D282732B40F0F583082064
:100C600003F052FE01260DE3A02B00F021830BD8E8
:100C7000752B00F00A82772B40F0E683664F002642
:100C8000387803F041FEADE2F02B00F00483FE2B38
:100C900040F0DA83082003F037FE002003F037FE2F
:100CA000002003F034FE002003F031FEF1E20420C6
:100CB00003F02AFE432003F0F7FD4C2003F0F4FD7F
:100CC000462003F0F1FD4C2003F0EEFD87E3032006
:100CD00003F01AFE012003F0E7FD092003F0E4FD14
:100CE0000020F1E74D4B1B68985D013603F0DCFDF9
:100CF000042EF7D1CDE21A2003F006FE0026484B61
:100D0000985D013603F0D0FD0B2EF8D10026454B3F
:100D1000985D013603F0C8FD082EF8D10026424B3D
:100D2000985D013603F0C0FD072EF8D157E3072088
:100D30003E4E03F0E9FDE72003F0B6FD707903F0C5
:100D4000B3FD002003F0B0FD96F82B31002B0CBF53
:100D500004200C202BE3B3420CD235495F5C012107
:100D600001FA07F7174218BF994003F1010318BFB2
:100D70000843F0E703F05AFD2C4B93F8A005A3E7D6
:100D8000122003F0C1FD2B4B2B4E1B88B3F5806F57
:100D900022D90027F05F082390FBF3F0023703F01D
:100DA000B6FD062FF6D1254EB6F9000003F0AFFDD3
:100DB000B6F9020003F0ABFDB6F90400204E03F0D3
:100DC000A6FDB6F9000003F0A2FDB6F9020003F09B
:100DD0009EFDB6F90400BCE2B6F9000003F097FDF1
:100DE000B6F9020003F093FDB6F9040003F08FFD9D
:100DF000D9E7144B985D013603F056FD102EF8D15B
:100E0000EDE200BFFA09002058080020AE080020DB
:100E100000080020A7160020AE0D00204C00002086
:100E200060E300086CE3000875E30008D4000020CC
:100E3000980D002002000020A40900209E1600202A
:100E4000C4080020D80A0020B84F00263878400097
:100E500000F0FE0003F058FD3B789E4280F0BF8218
:100E6000B34B33F9160003F052FD0136F4E7B14EEF
:100E7000062003F049FDB6F9000003F048FDB6F97D
:100E8000020003F044FDAC4BB3F9000061E2042022
:100E900003F03AFD8AE2072003F036FDA74B4FF638
:100EA000FF76187803F000FDD8F85000B042A8BFD4
:100EB000304620EAE07000B203F029FDA04BB3F900
:100EC000000003F024FD9F4B93F80F314BB1D8F88D
:100ED00040300A205843B042A8BF304620EAE070B4
:100EE00003E0D8F8400000F30F0000B231E2954E65
:100EF000022003F009FD96F8270103F0D5FC96F8CF
:100F00002601E1E6022003F0FFFC8E4BB3F90C0052
:100F10001FE28D4E0A2003F0F7FC33680027187893
:100F200003F0C2FC3368B046587803F0BDFCD8F833
:100F30000030854E3B441879013703F0B5FC032F90
:100F4000F5D13368D87903F0AFFC3368987803F0B3
:100F5000ABFC3368D87803F0A7FC3368B3F908001A
:100F6000F7E17A4F1E2003F0CFFC3B6800261B7888
:100F7000022B77D13B6806F1080253F8220074492E
:100F800007F01EFE0AF08EFBFA28A8BFFA2020EA1E
:100F9000E070C0B203F088FC3B686E4903EB860347
:100FA000D86A07F00DFE0AF07DFBFA28A8BFFA20E8
:100FB00020EAE070C0B203F077FC3B6806F10E0255
:100FC00053F82200644907F0FBFD0AF06BFB64282C
:100FD000A8BF642020EAE070C0B2013603F064FCD0
:100FE000032EC7D1072E3B682AD1586C584907F009
:100FF000E7FD0AF057FBFA28A8BFFA2020EAE070C4
:10100000C0B203F051FC3B685149986C07F0D8FD21
:101010000AF048FBFA28A8BFFA2020EAE070C0B224
:1010200003F042FC3B6893F84C0007F071FD0AF0B6
:1010300039FBFA28A8BFFA2020EAE070C0B20BE022
:101040003344587803F030FC3B683344D87A03F0DB
:101050002BFC3B683344587D013603F025FC0A2EF7
:10106000C0D1BCE13B683344587803F01DFC3B68B9
:101070003344D87A03F018FC3B683344587D01367A
:1010800003F012FC0A2EEDD1A9E12F2003F03CFC65
:10109000324E16F8010F002800F0A18103F004FC85
:1010A000F7E72A4B06F11C021B680C2103EB8203B5
:1010B0005F1D2B4A5B79013601FB0323187A03F08D
:1010C000F3FB787803F0F0FBB87803F0EDFBF878E9
:1010D00003F0EAFB282EE4D181E1482003F014FC60
:1010E00000274FF0060808FB07F8184B08F588782A
:1010F0001B680137984498F80A0003F0D5FB98F86C
:10110000050003F0D1FB98F8060003F0CDFB98F83A
:10111000070003F0C9FB98F8080003F0C5FB98F836
:10112000090003F0C1FB0C2FDBD158E1480E002071
:1011300006080020C40900205C080020600E002082
:1011400004080020D4000020A00800206808002027
:10115000000020410000C84200007A447FD8000807
:10116000B0D800084FF0000901260027BE4B1B78BD
:101170009F4224DABD4BF95C0023BD4A03EB020A0F
:101180009A5C8A4204D00C33B3F58A7FF5D114E01F
:10119000DAF804000AF062F883460EB9B04601E0BE
:1011A00081440AE0D84508DADAF8043013F8080078
:1011B00003F07AFB08F10108F4E70137D6E7002EC7
:1011C00000F00D815FFA89F003F09EFB0026CCE76A
:1011D000A74A99189A5C82420CD00C33B3F58A7FE7
:1011E000F6D101363B789E4280F0F9809F4BF05C4F
:1011F0000023EDE7087A03F057FBF2E7162003F02F
:1012000083FBB4F91E0103F082FBB4F9D00003F0B4
:101210007EFB984EB4F9D20003F079FBB4F9D40008
:1012200003F075FB3368B3F9680103F070FB00202D
:1012300003F03AFB002003F037FB002003F034FBFF
:1012400094F80F0103F030FB94F81C0103F02CFB21
:10125000002003F029FB3368B3F952000A2390FB06
:10126000F3F003F054FB94F8060103F01DFB94F82F
:10127000080103F019FB94F8070103F015FB94F83B
:10128000090121E5F0B2013603F00EFB092EF9D178
:10129000A5E000205DE0774E042003F035FB3368C5
:1012A000B3F9560003F033FB3368B3F9540050E050
:1012B0000C2003F029FB704B186803F0B7FA6F4B52
:1012C000186803F0B3FA6E4B186870E0042003F05E
:1012D0001BFB6C4B98686AE06A4E062003F014FB17
:1012E000B6F9E80003F013FBB6F9EA0003F00FFBD0
:1012F000B6F9EC002DE0634E042003F005FB96F8F0
:10130000060103F0D1FA96F8080103F0CDFA96F839
:10131000070103F0C9FA96F80901D5E4012003F0AA
:10132000F3FA584B5879CFE4012003F0EDFA554B0E
:1013300093F81C01C8E4082003F0E6FA0026514B9C
:10134000334493F81201013603F0AEFA082EF6D1B9
:1013500045E003F0DCFA42E096F8300103F0A4FA2D
:10136000B6F9320103F0D3FA96F8340103F09CFA8F
:1013700096F8350103F098FA96F8370103F094FADD
:10138000083696F82E0103F08FFABE42E4D126E02B
:10139000132003F0B9FA00263B4B985D013603F0A9
:1013A00083FA0B2EF8D1002003F040FA002003F05E
:1013B0003DFA14E040F2DB81D42B0DD000F2F28232
:1013C000D22B40F0E982314B1B7803F0040303F089
:1013D000FF06002B00F0C882002003F095FA2C4E87
:1013E000D6F89430987903F05FFAD6F8943000225A
:1013F00083F84820264B93F8A2305BB1286803F0AD
:101400000BFA18B9322003F0DCF9F7E705F076FEA5
:1014100004F072FB1F4B4C359D427FF4E8A91E4B34
:101420009B68002B00F061831C4898475DE31C4BD0
:101430001B681B7883427FF44CAA1A4A1A4B1A6025
:1014400004F05AFBFFF745BA442B03D1012386F879
:10145000A230C1E700F24F81332B27D103F038F8D7
:10146000084B83F81C01B7E7AE0D0020980D002053
:10147000B0D8000868080020E8F7FF1FECF7FF1F4E
:10148000F0F7FF1FD400002060E30008A71600203B
:10149000180B0020480E0020E4080020BC0B0020A0
:1014A000E00B0020EFBEADDEF04F00207FD8252BF3
:1014B0000DD1D94E0023B36003F014F8074603F0B2
:1014C00011F8B36807EB00400343B36084E731D8F9
:1014D000212B81D0232B40F0908202F0F9FF2728A6
:1014E00002D903F0CBFE77E7CC4F00F11C083B6834
:1014F00003EB880802F0ECFFC94B08F1050603F581
:101500008A72197A814203D00C339342F9D1E8E709
:101510001B7888F8053002F0DBFF707002F0D8FF0E
:10152000B07002F0D5FFF070396801F1750002F07B
:10153000BBFD51E7292B11D102F0D4FFB64EA6F81E
:101540000A0102F0CFFFA6F80C0102F0C1FF86F8F5
:101550000E0102F0C7FFA6F810013DE72D2B15D1B3
:1015600002F0B6FFAC4E86F81A0102F0BBFFA6F8F7
:10157000220102F0B7FFA6F81E0102F0B3FFA6F8A1
:10158000200102F0A5FF86F81B0125E7272B40F07C
:10159000348202F0A7FFA04EA6F8E80002F0A2FFF6
:1015A000A6F8EA0002F09EFFA6F8EC0014E73C2B38
:1015B00009D19A4E376802F08BFF3870336818787B
:1015C00003F048FA08E75CD8372B21D153790E2B6A
:1015D00087D1914E06F1100702F07AFF86F83001AC
:1015E00002F080FFA6F8320102F072FF86F83401A3
:1015F00002F06EFF86F8350102F06AFF86F83701C7
:1016000002F066FF083686F82E01BE42E4D1E3E61A
:10161000392B11D102F05CFF7F4E86F8060102F0F3
:1016200057FF86F8080102F053FF86F8070102F021
:101630004FFF86F80901CFE6352B40F0DE8102F03E
:1016400047FF0B283FF64DAF06277843734B00F555
:1016500088701F68074402F03BFF03283FF641AF44
:10166000B87202F035FF787102F032FFB87102F003
:101670002FFFF87102F02CFF387202F029FF787208
:10168000AAE6412B00F0AE81432B27D1624E02F037
:101690001FFF0023B36002F025FF074602F022FF80
:1016A000B36807EB00400343B36002F011FF86F814
:1016B0001A0102F017FFA6F8E80002F013FFA6F8DF
:1016C000EA0002F00FFFA6F8EC0002F00BFFA6F80C
:1016D0000A0102F007FFA6F80C017DE63E2B40F060
:1016E0008C8102F0F5FE4C4E86F8270102F0F0FEE8
:1016F00086F8260170E6CF2B7FF45CAE02F0F2FE96
:101700006FF4AF67C3199BB2434EC62B98BFA6F8C0
:101710001E0102F0E7FEA6F8D00002F0E3FEA6F8F4
:10172000D20002F0DFFE3D4FA6F8D400D7F80080CB
:1017300002F0D8FEA8F8680102F0CAFE02F0C8FE66
:1017400002F0C6FE02F0C4FE86F80F0102F0C0FEF1
:1017500086F81C0102F0BCFE3F6802F0C3FE00EBFD
:1017600080004000A7F8520002F0B2FE55E7CA2BF5
:1017700040F08E80294F00263B681B78022B6ED1EB
:10178000D7F8008002F0A4FE07F0C2F9254907F05F
:10179000CBFA06F1080948F82900D7F8008002F0D2
:1017A00097FE06F10A0308EB830807F0B1F91E491A
:1017B00007F0BAFAC8F80400D7F8008002F088FEF3
:1017C00007F0A6F9194907F0AFFA06F10E0901363C
:1017D000032E48F82900D3D1072ED7F8008027D14F
:1017E00002F076FE07F094F90E4907F09DFAC8F86A
:1017F0004400D7F8008002F06BFE07F089F9094930
:1018000007F092FAC8F84800D7F8008002F060FEAE
:1018100088F84C001FE000BFD400002068080020BA
:10182000B0D80008000020410000C84200007A44FF
:1018300002F04EFE08EB06035870D7F8008002F065
:1018400047FE08EB0603D872D7F8008002F040FE8E
:1018500008EB0603587501360A2EBDD1BCE5D7F852
:10186000008002F035FE08EB06035870D7F80080C0
:1018700002F02EFE08EB0603D872D7F8008002F0C3
:1018800027FE08EB060301360A2E5875E7D1A3E5BB
:101890001BD84A2B04D102F025FE954B98819BE57D
:1018A000C82B40F0AA8057797F08122F3FF619AE57
:1018B0000026BE4206D202F015FE8E4B23F816001B
:1018C0000136F6E701228C4B0BE0CD2B0BD014D95F
:1018D0008A4B1B7859073FF57FAD894B1A7842F048
:1018E00004021A7078E5854B1B7858073FF574ADF4
:1018F000844B4FF4C8721A806EE5CC2B7DD153799E
:101900000A2B7FF4EEAD804E376802F0E1FD3870AF
:10191000376802F0DDFD787002F0DAFD3368642884
:10192000A8BF6420187102F0D3FD33686428A8BFF3
:101930006420587102F0CCFD3368FF28A8BFFF2057
:10194000987102F0C5FD3768642828BF6420F871DB
:1019500002F0BEFDB870376802F0BAFDF870366864
:1019600002F0C0FD308137E502F0B2FD604B022885
:1019700083F8A0050BD983F8A06508E0D02B3CD1F3
:101980005E4B1B785E073FF527AD01F0BCFD04F010
:1019900031F904F0E9F91FE5F0D902F0A3FD5B4B42
:1019A000188019E5EF2B0BD1594E376802F09AFDDC
:1019B000A7F85600366802F095FDA6F854000BE52E
:1019C000FA2B04D14D4B1B785A07E0D515E0D62BE6
:1019D00013D1002602F086FD4E4B98530236102E8E
:1019E000F8D1F9E4002602F073FD414B334401368F
:1019F000082E83F81201F6D1EEE403F03FFCEEE48A
:101A00000C2824D1444802F0A7FF1EE00C28F9D08E
:101A10000A2920D1414802F09FFF2B6E002B40D1B4
:101A20002B662B44002283F8642095F86430232B26
:101A300042D13B480021302209F0CFFB00232B6626
:101A400099F80030002B3FF4EAAC36480EE07F29CD
:101A500013D1FEF735BE0D29DCD07F290AD1013B19
:101A6000236600222344304883F8642002F074FF88
:101A7000FEF726BE2F2B3EF623AEA1F12002D2B2F6
:101A80005E2A3EF61DAE13B920293EF419AE5A1C4B
:101A9000E86D2B442A6683F8641002F0C2FEFEF75C
:101AA0000FBE224A591E02F16400085C202801D1B1
:101AB0000B46B3E71366B4E71D4B194E0E92009325
:101AC0000DA81C4911220C230D9609F020FC044698
:101AD00038B1006809F0C2FB0130A3683044984770
:101AE000A7E7154802F038FFA3E711B0BDE8F08F73
:101AF000D400002006080020F4070020A7160020CC
:101B00004C08002062080020A0080020B008002037
:101B100068080020FC0A0020FDE200088AEB0008AB
:101B20007C0B0020F8E2000824E30008180B0020DA
:101B300019440008B4D7000808E300082DE9F04F65
:101B4000664B674C99B023600023636005F0E6F9AB
:101B5000A34618B901F0D7FC04F04CF804F004F9DE
:101B6000604B614C1A78614E42F001021A700022FB
:101B70000C920D920E924FF4E0120F922268B07BFD
:101B800042F480322260A26942F01002A26123680E
:101B900003F400330D930C9B01330C930D9B1BB985
:101BA0000C9BB3F5A06FF2D122684F4B12F40032B8
:101BB00001D0022315E0196841F0010119600C926F
:101BC000236803F002030D930C9B01330C930D9BD0
:101BD0001BB90C9BB3F5A06FF2D123689B0732D5DC
:101BE00001230E93424B434D1A683F4942F01002C5
:101BF0001A601A6822F003021A601A6842F00202A0
:101C00001A606368636063686360636843F4806359
:101C10006360394B1A6822F070421A60374A1560C7
:101C2000656825F47C1565601D6845F000451D60FC
:101C30009D6825F400459D604FF4E0150F950E9DBD
:101C4000012D01D118E0FEE7022D19D168B10F9BDB
:101C5000B3F5801F02D14FF4A01305E00F9BB3F53D
:101C6000E01F02D14FF400130F9361680F9B0B43E9
:101C700043F48033636003E04B6843F460134B60CC
:101C8000236843F0807323602168174B8F01FBD5D5
:101C9000596821F003015960596841F00201596007
:101CA0006368114903F00C03082B0793F8D14868C7
:101CB000134B00F00C00042803D0082804D00D4971
:101CC00000E01168196027E048684D68C0F3834060
:101CD000ED0300F1020017D40A491BE07549000822
:101CE000C00B00209016002000100240D4000020FD
:101CF0000020024000127A00041001401000002071
:101D00005800002000093D00496811F4003F1168A7
:101D100018BF49084843186061689948C1F3031126
:101D20000A4492F804901A68DFF89C8222FA09F9B2
:101D3000C3F80090836818AD13F4004F914B14BFA3
:101D4000022201221A70904B0027C8F80C30A369B8
:101D50008E4843F00103A361636A43F080736362BA
:101D6000A36943F01C03A3614FF6FF7325F8183DE8
:101D700029468DF84A7003F079F88548294603F022
:101D800075F829467E4803F071F8824B28465A6858
:101D900042F000725A6003F0A1FB129B7E4AAE46ED
:101DA000B3FBF2F3CBF808307C4B4FF47A721F6030
:101DB000B9FBF2F97A4B09F1FF325A60F02288F848
:101DC00023209F60774F07221A600FCFAEE80F00E5
:101DD00097E80300A3698EE8030043F01003A361B2
:101DE000A369674943F01003A361A3690DF14C088F
:101DF00043F01003A3614FF480430B614FF4005391
:101E00000B614FF400430B610DF1640958F8040CA9
:101E1000414608F1080803F029F8C845F6D1B26830
:101E2000614B100754D593F81A21012A50D85F4905
:101E30005F480A88078893F81B3142EA07475D4AE2
:101E400088469742914640F0AA830023002B3FD05A
:101E5000594B4B4A18684D4F4FF4005AC2F814A022
:101E600029461290384603F001F808233B613C20D4
:101E700002F0A7FC424BC3F810A04FF0000A96F8FE
:101E80001B319A451BDA3E484FF480424FF4004321
:101E9000082102610361796178200491059203931E
:101EA00002F084FC059A3648039B04994261436121
:101EB0003961782002F07AFC0AF1010ADFE73C4937
:101EC000B8F800300A8843EA02434B4540F0968355
:101ED000642002F076FC39480021A02209F07DF947
:101EE000E36943F00703E361A36943F4006343F04C
:101EF0000C03A3610023324C4FF0000804F10C02E4
:101F000003F8028001330E2BF5D1FF23DFF8BC90DC
:101F1000A376E376237763774146182204F1240001
:101F2000C4F8209009F059F9264B77791A785B7834
:101F300084F8242084F830302846A9F58F73414670
:101F4000102284F83C70236409F047F90E2F01D069
:101F5000082F02D101238DF8523096F93031012B30
:101F600003D1114AB2F832219ABB96F93831012BCC
:101F70002ED10D4BB3F83A31003318BF012328E0BE
:101F800000100140A91600200005FA0500080140D4
:101F9000000C01400000014040420F008C16002060
:101FA00010E000E0D0D90008D4000020086C004008
:101FB000106C004007B0F750E8D900084015002029
:101FC000C00B00205C00002000ED00E002020020B9
:101FD00000238DF84D30B368C3F340028DF84E20D6
:101FE000C3F380128DF85020C3F340328DF848209F
:101FF000C3F3C0328DF84B2013F4006205D0A14A20
:1020000092F80E21511E4A424A41C3F380408DF896
:102010004C208DF84F00C3F30042B6F8E00003F007
:1020200001018DF851204FF47A74C3F3C002DB0430
:102030008DF849108DF84A20ADF85400ADF856409F
:1020400004D5904BB3F8DC30ADF85630B0F5FA7FDC
:1020500084BF0023ADF8563096F824318A488BF8B7
:10206000443000238BF8453043709DF85230002BEC
:1020700014BF0223002301B902B10133834A0027B0
:1020800002EB8303DB69B8460693069AD35B4FF6EF
:10209000FF72934200F0CD80DAB27D4C9DF84D1076
:1020A0004FEA021A1B0A544419B1023A012A40F2BB
:1020B000BC80022B3BD19DF84820002A00F0B5805F
:1020C0005FFA88F21C20424372494FF000098D18D4
:1020D000012085F8018085F8029085F80A908854DF
:1020E000A168E27B6068ADF84010EC6010A98DF843
:1020F00043308DF8422002F0B9FE65494A4651F856
:102100000A00217B03F0BEF8204604F02BFE624B50
:10211000C5F818902B61614B20466B6105F11001E9
:1021200005F1140205F0B2F808F101087DE0012B79
:1021300040D19DF84930002B77D0FF238BF88C30AD
:102140008BF88D30A3680025E27B6068ADF84030E5
:1021500010A902238BF89050CBF89C408DF84220B8
:102160008DF843308BF84850CBF84C50CBF850509A
:10217000CBF85450CBF888508BF88E508BF88F509A
:1021800002F074FE424B217B53F80A002A4603F00A
:1021900079F8204604F0E6FD414B4249CBF8A030E7
:1021A000414BCBF8A850CBF8A43020460A1D05F0CF
:1021B0006DF83AE0032B38D19DF84F20BDF856302A
:1021C00052B19BF84650204608214FF6FF7201F0AD
:1021D000FFFD0BEB85051FE0BDF85420334DB2F534
:1021E000FA7F95F846900DD931492046B1FBF2F2BD
:1021F00092B2082101F0ECFD05EB8905C5F87001EC
:102200002C4B0CE02C492046B1FBF2F292B201219A
:1022100001F0DEFD05EB8905284BC5F87001C360B0
:102220009BF8463001338BF8463002371C2F7FF481
:102230002CAF234B04221A700024224D224B25443C
:1022400023441034402C0FCB85E80F00F5D104F067
:10225000E9FE1E48037843F004030370002000F0F9
:10226000ADFEB6F8E800074B48B9B3F9EA207ABBEF
:10227000B3F9EC30D3F1010338BF002329E0002388
:1022800027E000BFD4000020050C0020D0D90008B2
:10229000B4E50008500C002081540008AD4300084C
:1022A000D3420008600C0020D5430008C00B00207A
:1022B00000127A00F543000840420F00E543000891
:1022C000A8160020180A0020FCD90008901600204B
:1022D000034613F0010340F08A80B44A00B213753C
:1022E00006F01AFCB24906F06BFCB24E0546B6F990
:1022F000EA0006F011FCAE4906F062FC0446B6F9AD
:10230000EC0006F009FCAA4906F05AFC8046284673
:1023100009F092F90646284609F002FA07462046D7
:1023200009F08AF90546204609F0FAF904464046C4
:1023300009F082F98146404609F0F2F931468046BB
:10234000484606F03DFC31460690404606F038FC13
:1023500049460890384606F033FC41460990384615
:1023600006F02EFC29468246484606F029FC4146E6
:10237000CBF8A00105F1004006F022FC2146CBF885
:10238000A401CBF8A841099806F01AFC0146089868
:1023900006F00EFB2146CBF8AC01504606F010FCCF
:1023A0000146069806F002FB2946CBF8B00107F17A
:1023B000004006F005FC2146CBF8B401069806F073
:1023C000FFFB0146504606F0F1FA2146CBF8B80172
:1023D000089806F0F5FB0146099806F0E9FA31463F
:1023E000CBF8BC01284606F0EBFBCBF8C001724BE2
:1023F000704D1B68DFF80092B3F85230B5F8F0600A
:102400000693002395F8EF7095F8F7A089F800304F
:10241000CBF8C43100F0E8FF684C8046002800F09B
:10242000E683674B674ABB2E1A60674A5A60674A61
:10243000DA605E4B01D901220EE0612E01D9022241
:102440000AE0292E01D9032206E0132E01D9042225
:1024500002E0092E0BD905225A755D4B01221A7034
:102460005C4BBB461A6842F001021A600EE006227D
:10247000F2E74FF0010909FA0BF240F2B2361640CA
:102480005EB1BBF1010F5DD94FF0000B524A002144
:10249000BBF1090F1170F7D8EBE712F04D0FF0D038
:1024A000464FC4F8C46100F09FFF0028E9D0062120
:1024B0000A4610AB682000F0D7FE9DF843309DF827
:1024C000452003EA090303FA09F302EA090243EA91
:1024D00082039DF8412002EA090213430DD04B45C7
:1024E00002D187F8C86119E0022B02D187F8C891A0
:1024F00014E0052003F052FB10E00DF12F036820DB
:102500000C214A4600F0B0FE9DF82F3013F00F0367
:10251000EFD0043B18BF012387F8C8312F4B304A56
:102520001A60304A5A6094F8C821002A14BF6E22FB
:102530006F221A72264B03225A70264B1A6842F0F9
:1025400002021A60234E33689F0702D5234B1B6893
:1025500098471B4B1B689847234F00223A70BAF1EB
:10256000000F02D0BAF1020F4FD118AB03F8202DA3
:10257000C4F8CC211E200A21012200F075FE00289B
:1025800043D09DF84030482B3FD1184B184A1A6071
:10259000184A5A60B8F1000F40F0218335E0013B42
:1025A000092B8CBF0023012350E400BF1000002042
:1025B00035FA8E3CD400002068080020C00B0020B3
:1025C000E40800209D5A0008A933000890C1793D15
:1025D00050000020580800209416002050090020C8
:1025E000B96F0008693300089C160020BC08002061
:1025F000FD580008F5320008FA080020B64B00220A
:1026000083F81B2103F0EEFD62E4BAF1010F00F242
:10261000E38295F8E4300BB1B0490B7095F8E530E2
:102620000BB1AF4A137095F8E63003B13B703368D5
:1026300018071BD5069A64270FFA82F999FBF7F65B
:10264000304606F069FA804607FB169000B206F0A5
:1026500063FAA44906F0B4FA0146404606F0A8F928
:10266000A14906F0ADFAC4F8D00102E00023C4F895
:10267000D0319E4B9E481A780A2742F002021A7007
:102680004FF4005242614FF4804202619946984EE5
:102690001920F368013F83F40053F360F36883F477
:1026A0008043F36002F08DF8192002F08AF817F0E9
:1026B000FF07ECD14FF4804333614FF400578D4B4B
:1026C00037611A68984612F0080F07D08A4B776175
:1026D0001B689847894B012237611A70884B894FD4
:1026E0001B68187B06F018FA874906F069FA08F0AB
:1026F000A3FF0646388806F00FFA314606F060FA66
:1027000008F0D0FF814B824E1880388806F004FA1A
:102710000146804806F008FB7F4906F005FB7F4B29
:10272000C4F8D4017849D86806F04AFA7C4906F022
:1027300047FA7C4BFF211860162206F5EC7008F072
:102740004CFD002384F8D831D8F8003001229907D5
:1027500084F8EE2107D586F8D921032286F8EE21E8
:10276000022286F8DA215A0708D594F8EE21511C86
:1027700084F8EE112244032182F8D81113F00A0FD5
:1027800014D094F8EE310421E21882F8D8115A1CC2
:10279000D2B22244052182F8D811DA1C0233DBB20E
:1027A00084F8EE212344062283F8D821AB689F06E3
:1027B00008D594F8EE21511C84F8EE11224407212B
:1027C00082F8D8116A79082A01D00E2A08D194F823
:1027D000EE21511C84F8EE1122440B2182F8D8110D
:1027E00094F8EE210C27A618511CC9B286F8D871AE
:1027F0005E07474884F8EE1106D5023280F8EE21D4
:102800000144102281F8D82194F8EE211227A6184D
:1028100086F8D87195F84061511CC9B2002E0CBFE2
:10282000002603F001063A4884F8EE1136B1023270
:1028300080F8EE210144132281F8D8219A0508D5A9
:1028400094F8EE315A1C84F8EE212344152283F8C3
:10285000D82100219822344808F0BFFC012001F063
:1028600067FE0026002863D0012E61D84FF04C0C83
:102870000CFB06FADFF8B0B00BEB0A0898F84A70C8
:1028800017B10136F6B2EDE70179284B90F9002037
:1028900003EB810303218DE882001046DB6E0121EA
:1028A0003A46CDF814C005F0C7FBDDF814C0034666
:1028B00068B1404639466246039308F08EFC039B9C
:1028C0004BF80A3001231E4488F84A30F6B2012042
:1028D00001F012FEC6E700BFD4000020FA08002075
:1028E000941600208988883C000020419016002022
:1028F0000010014058080020BC080020DC0800201F
:10290000940900200200002035FA8E3CB80900200E
:10291000C00B00200AE81C4100401C46E4080020CF
:10292000BD37863590090020B00D0020D0D90008B1
:1029300002F096FCB04BB14AB5F81E011A6081B2A4
:102940000023AF4A99520233242BFAD1AB681B07FC
:1029500040F1D480AB4B93F81A31062B00F2C880BB
:10296000DFE803F0040432586F8B8B00A64AA749B6
:1029700002F52270012B0860A548A64907D103265D
:102980000670072082F88A3208700C2307E00223C1
:10299000037003230B70002382F88A32072382F826
:1029A00088329D4B4020C4F88C3201F0C1FD0028D4
:1029B00000F09E8001234FF0000A90F900004021B2
:1029C0008DE80804954A39E006F0A6F8944906F027
:1029D000F7F8944905F0EAFF06F0DEFA0023924A80
:1029E00098500433482BFAD1904B4020C4F88C32D5
:1029F000122384F8883201F09BFD002878D001234F
:102A00004FF0070890F9000040218DE80801884A3E
:102A1000884B67E0884B4020C4F88C32102384F840
:102A2000883201F085FD002862D001234FF0000CB0
:102A300090F900008DE80810804A40214FF4E133FE
:102A400050E07F4B4020C4F88C32082384F8883251
:102A500001F06EFD00284BD001234FF0000E90F9DD
:102A6000000040218DE80840764A4FF4E13305F03C
:102A7000E3FA654BC3F8900236E00C22062B72484D
:102A800084F8882210D00023037084F8943284F8EC
:102A900095321B2384F89632052384F8972284F814
:102AA00098324FF4E1360DE00021017084F8941261
:102AB00084F89512654E212184F8961284F89722A5
:102AC00084F89832624B4020C4F88C3201F030FD1B
:102AD00070B1012300275F4A90F9000040218DE882
:102AE0008800334605F0A8FA003018BF012028B945
:102AF000082002F052F90023C4F88C32AB68590464
:102B000005D5082284F88822534AC4F88C2242F260
:102B100001021A406AB1514AC4F88C229A0403D5C2
:102B2000394A082182F88812DB0744BF0C2384F855
:102B3000883294F88832043B84F8893201F06AFDC7
:102B4000474B18606B79052B03D1464B4FF4C87285
:102B50001A80454B4FF47A721A80444B1A7842F02F
:102B600008021A70424B1A7822F002021A70AA6800
:102B700040F60203134013B33E4BC4F89C3201F0FD
:102B800087F8282001F01DFE079A013A0792F6D136
:102B900094F8A02295F80731B2FBF3F30133364ADB
:102BA000082B28BF0823137095F809219BB25A43BC
:102BB000A4F8A22295F808215343A4F8A4322F4B7D
:102BC0004FF400425A6199F8003063F07F0389F8AE
:102BD000003019B0BDE8F08F4FF0000ABCE4284B7C
:102BE0000222DA70336843F00803336011E50320F2
:102BF00002F0D4FF3DE500BF98060020E60100206A
:102C000006080020D4000020C00B0020A0060020F1
:102C10009D060020A4060020D9410008494600086E
:102C2000CDCCCC3F0000B044EC060020254200088B
:102C300055470008A086010015420008E14600083B
:102C40000142000895460008EC07002090D00300E0
:102C5000C5410008094F0008514200085D420008C4
:102C6000FC09002062080020A41600204C08002067
:102C7000A7160020DA0100205400002000100140B7
:102C8000500000202DE9F04F8BB00993A44B8346F0
:102C900018880891059205F03BFFA24905F090FFC6
:102CA000A14B04901B889B074AD5149B9F499A8986
:102CB000B1F9003040F2E6309B1A03F2F31484427B
:102CC00003D8002BB8BF5B4201E04FF4FA73B1F9AF
:102CD0000200801A00F2F31140F2E632914203D86A
:102CE0000028B8BF404201E04FF4FA709BF84C4016
:102CF0004CB39842B8BF1846C0F5FA7005F00CFF07
:102D00008B4906F011F84FF07E5105F04FFE054655
:102D1000642090FBF4F005F0FFFE0146284605F024
:102D20004FFF4FF07E5105F043FE0021064606F0AE
:102D3000E5F840B930464FF07E5106F0FDF818B185
:102D40004FF07E5600E000264FF07E50049905F0CB
:102D5000EBFF00240790D84625462746089B022F04
:102D60003B441B79734A09D1B2F904000A33584332
:102D700005F0D2FE704905F0D7FF3DE0059932F924
:102D800005904A42914503DB0A469145B8BF4A4641
:102D90006A49695E521A0999485F0193104405F027
:102DA000BBFE674905F0C0FF5F490246B1F800A0CD
:102DB000019B1AF0010F04D0DBF8441005F000FF6E
:102DC0001AE003F1140009FB00F0029205F0A4FEE2
:102DD000594905F0A9FF1AF0020F8146029A0CD05A
:102DE0001046DBF8481005F0EBFE314605F0E8FE32
:102DF0000146484605F0DCFD8146524B585F05F020
:102E00008BFE514BD96805F0DBFE824651464846A1
:102E100005F0CCFDD8F82010814605F0D1FE0499CC
:102E20000690484605F0CCFED8F82C1005F0C8FEF8
:102E3000434905F0C5FE454BE15805F0B9FD44494D
:102E4000814606F05BF838B94846424906F074F806
:102E500020B1DFF8009101E0DFF8F4903B4B5046E1
:102E600044F803903C4BE158019305F09FFD019B12
:102E7000079944F803A0019305F0A2FE019B824646
:102E800003F10C0254F802C01833E1586046029274
:102E90000193CDF80CC005F08BFD514605F088FD7F
:102EA000019BDDF80CC0029A44F803C044F802A06C
:102EB0002A4905F039FFD8F8381005F081FE284975
:102EC000824606F01BF838B95046264906F034F819
:102ED00020B1DFF890A001E0DFF884A00698494611
:102EE00005F066FD514605F061FD08F0DBFB1E4B69
:102EF000B0F57A7FA8BF4FF47A709842B8BF1846F1
:102F000001371A4B032FE85204F1040405F10205BE
:102F100008F104087FF422AF0BB0BDE8F08F00BFCA
:102F2000FA090020BD378635AE08002006080020CB
:102F30000000FA43000A002000004842C4090020B3
:102F4000000020419E160020E408002040080020D8
:102F500000007AC300007A43680E00200000404061
:102F6000000096C30000964318FCFFFF0C0A0020E7
:102F700008B5037833B90C4B0C481978BDE8084004
:102F800002F02AB808F0BFF902280CD8064B0A2232
:102F90001870074B02FB0030064B0230186001F03E
:102FA0002BFB0548E5E708BDAC08002094E60008C7
:102FB00074060020A008002027E300082DE9F04F48
:102FC000012834BF07460127142000FB07F3DFF870
:102FD000D8B189B00BEB03015BF803406D4B0A6974
:102FE0005C6283F828706C4B0E89DD69B1F80A9039
:102FF0002A43DA61A2884D6822F440721204120C4E
:1030000049EA0608A28003A9C5F8108002228DF8BB
:103010000E0028460193ADF80C808DF80F2001F0CA
:1030200025FF019B4FF0080A9B46AA68164203D170
:103030000A2001F0BBFBF8E70A206E6101F0B6FB45
:103040002E610A2001F0B2FBBAF1010AEDD10A208B
:10305000C5F8149001F0AAFB0A206E6101F0A6FBEE
:103060000A202E6101F0A2FB0222C5F8109028462A
:103070008DF80F2003A91C228DF80E20ADF80C80CE
:1030800001F0F4FE454A9442DBF8102008D142F4E6
:103090000012CBF81020DBF8102022F4001207E019
:1030A00042F48002CBF81020DBF8102022F48002DA
:1030B000CBF81020A38803A823F440731B041B0C37
:1030C000A38023889BB243F001032380A58802F0EC
:1030D00005FA25F03F050599314A2D04B1FBF2F2BE
:1030E0002D0C1543ADB2A5802388012523F00103E3
:1030F0001B041B0C23802B4B03A8B1FBF3F34FF4F1
:1031000096714A439BB24FF47A71002B92FBF1F215
:1031100008BF0123013243F4004392B22284A38307
:103120002388214A9BB243F001032380238823F4A0
:10313000816323F002031B041B0C23804FF48043A4
:103140002381142303FB07277B7B00248DF80C309D
:103150008DF80D408DF80E408DF80F5000F0C4FD35
:103160003B7B9DF80F208DF80C308DF80D408DF8CD
:103170000E401AB103A800F0B7FD07E0590903F0AB
:103180001F039D40094A203142F8215009B0BDE893
:10319000F08F00BF680E0020001002400054004075
:1031A00040420F00804F120084DA000800E100E086
:1031B00008B5064B1A88013292B21A80044B93F874
:1031C0002800FFF7FBFE002008BD00BFB80B002061
:1031D000680E002013B5234B4000C0B283F82900CD
:1031E00002AC586A83F82A1004F8012D002101224C
:1031F00083F82B201C6383F82C105C6383F8382041
:1032000083F8392083F83A1048B38288920515D4A0
:103210000288D4050DD447F230520188890502D5C1
:10322000013AFAD113E092B1028892B242F480726C
:103230000280828892B242F44072828047F2305219
:1032400093F8391011B1013AFAD100E012B9FFF741
:10325000AFFF04E0034B93F83A0080F0010002B0A6
:1032600010BD00BF680E002010B54000204CC0B259
:1032700084F8290084F82A100120002184F82B10FA
:1032800084F82C0084F8382084F83900606A63637D
:10329000236384F83A1050B383889B0515D40388C0
:1032A000D9050DD447F230530288920502D5013B6F
:1032B000FAD113E093B103889BB243F48073038087
:1032C00083889BB243F44073838047F2305394F871
:1032D000392012B1013BFAD100E01BB9BDE8104022
:1032E000FFF766BF024B93F83A0080F0010010BD73
:1032F000680E002037B50622044603216B461E20C7
:10330000FFF7B2FF9DF801309DF80000154D43EA2C
:10331000002000B205F000FC296805F051FC05F022
:1033200015FE9DF8033020809DF8020043EA00203E
:1033300000B205F0F1FBA96805F042FC05F006FEBD
:103340009DF80530A0809DF8040043EA002000B2FB
:1033500005F0E2FB696805F033FC05F0F7FD6080DD
:1033600003B030BD3C00002013B5062204463B21CB
:1033700068206B46FFF778FFA0B19DF800209DF80C
:10338000013043EA022323809DF802209DF8033098
:1033900043EA022363809DF804209DF8053043EA48
:1033A0000223A38002B010BD13B5062204464321B8
:1033B00068206B46FFF758FFA0B19DF800209DF8EC
:1033C000013043EA022323809DF802209DF8033058
:1033D00043EA022363809DF804209DF8053043EA08
:1033E0000223A38002B010BD07B5232001F0E9F944
:1033F0006820752101220DF10703FFF735FF28B181
:103400009DF80700B0F168035842584103B05DF8D9
:1034100004FB10B5214C636A998A89B211F4706F6C
:103420001CBF012284F83A2011F4E06F2BD01A8BD4
:103430009A88890522F480624FEA02424FEA1242DA
:103440009A8020D41A8892051DD41A88D0050FD5E9
:103450001A88D105FCD41A8892B242F400721A80FC
:103460001A889205FCD494F82800FFF7A7FD0AE01B
:103470001A8892B242F400721A809A8822F440723A
:103480001204120C9A80626A938A23F470631B04FC
:103490001B0C9382002384F8393010BD680E002085
:1034A000026D70B515880446ADB2A90613D5036B3D
:1034B0008BB9C36A1BB1908880B298470BE0E16971
:1034C000928840694E1CD2B2E6614254E169E268DA
:1034D000914228BFE3612B0614D5636AA26A9A421F
:1034E000236D0BD0511CA069A162825CD2B29A807C
:1034F0002369994206D30023A36270BDDA6822F0E3
:103500008002DA6070BD2DE9F04FB54C85B0DFF870
:10351000F892002140F2C452204607F05EFE04F506
:10352000A873C9F80030AF4B0025AF4A1D7004F2F4
:10353000A25313605F2323700323637140F20113CE
:10354000A3604FF41673A4F8F230FA23A4F8F43011
:103550002A23A4F8F0304FF4FA73A4F8F8302023AB
:1035600084F8F6306E2384F806312B2384F8073173
:10357000232384F809314FF4C873A4F80A310523D2
:1035800084F84F3140F24C4184F8273140F27E43B9
:10359000A4F82011A4F8D03040F26C7140F23A73D4
:1035A00001262122192040F2DC5AA4F82211A4F8A5
:1035B000D2301E214FF47A7B40F27E5384F80821EA
:1035C00084F81D1184F8280184F8EE6084F80E61F7
:1035D000A4F81EA184F8266184F8296184F82A6180
:1035E00084F82C61A4F8D4B0A4F8D6A0A4F8D830FC
:1035F00040F2EA53A4F8DA3040F2B4534FF0320804
:10360000A4F8DC304FF47A53A4F8E0300190029132
:103610000392A4F8DE80A4F8E28000F025FD40F6D5
:10362000AC53A381D9F800302827A5734FF0170EAB
:103630005F701D70029983F815E083F816E04FF073
:103640000F0E83F805E04FF0220ED972197383F83C
:1036500006E055214FF00E0ED97083F810E02D21B1
:103660004FF0350E9F70597383F81AE0DD7583F8BB
:1036700004809D731D76DD735D7601984FF00A0C12
:10368000D871039A5A205A745322DA7664221A7730
:103690007822187283F812C05F729A7219755349B2
:1036A000DFF868E19963D9634FF0824199624FF086
:1036B0007C5159634E49C3F820E0C3F824E0DFF899
:1036C00050E119644B4A4C49C3F848E04FF04B0EA7
:1036D000DA621A6359649E7783F84CE084F8A20595
:1036E000412084F8A30584F8A48584F8A55584F8BE
:1036F000A955A4F8AAA584F8A65584F8A75584F876
:10370000A8559A663D4A0420DA663D4A83F8580077
:10371000D9653C48152183F8607083F861701A6799
:10372000A3F85450A3F85650A3F8525083F86410ED
:1037300083F87460CDF80CC000F0D6FCD9F80030E6
:103740004FF4487283F85F7183F85D5183F85E51DE
:1037500083F8606183F86451A3F86221C822DDF820
:103760000CC083F8672140F2D932A3F86A211E4FBA
:1037700040F6430283F866C1A3F868B1A3F86C2150
:10378000621910350021C02D154E1161F8D119466E
:1037900006F530704FF4B872039307F015FD039BE4
:1037A00006F5866019464FF4B87207F00DFD3B68C8
:1037B00006F2AC525968186803C2198922F8021B34
:1037C0001968C6F8B615596851601B891381012321
:1037D00086F81033022386F8803405B0BDE8F08FF8
:1037E000D4000020AC080020A00800208FC2753D46
:1037F000CDCC4C3D9A99193F0000A040F6287C3F63
:103800003D0A773FA5E60008680800200000204038
:103810000000404007B5074B074A0093074B084894
:103820000193084B1968084B01F0D6FB03B05DF813
:1038300004FB00BF6CE30008CDE6000875E3000858
:10384000AEE600086000002060E3000810B50748FD
:1038500001F082F80024064B0648E218E15852684D
:103860000C3401F0B9FBCC2CF5D110BDD3E6000827
:10387000B4D70008E9E6000870B503780BB91F4813
:103880002FE01F4907F064FD00242646254678B145
:103890002CB1012C06D107F036FD064602E007F0F8
:1038A00032FD054616490020013407F051FDEEE7D0
:1038B0000B2D05D9BDE8704012480C2101F08CBBDE
:1038C000012C08DC104B294633F915200F48BDE8C0
:1038D000704001F081BBA6F57A73B3F57A7F04D905
:1038E0000B48BDE8704001F037B80A482946324617
:1038F00001F072FB044B23F8156070BDF1E600087F
:10390000FBE200082BE70008FC0A002051E7000852
:1039100069E700088BE7000837B5828804468368AA
:1039200010060D4606D529494FF4B87091F8A01538
:1039300000FB0133D10504D525490A20097800FB95
:10394000013302F03F02042A12D006D8012A0DD01A
:10395000022A2FD193F900102DE0102A0AD0202A34
:103960000AD0082A26D1B3F9001024E0197822E001
:10397000198820E019681EE06946186801F006FC05
:103980000146144801F028FBF5B1E06805F0C4F8E1
:10399000694601F0FBFB01460F4801F01DFB206961
:1039A00005F0BAF8694601F0F1FB01460A4801F05A
:1039B00013FB09E00021094801F00EFB25B108487E
:1039C000E168226901F008FB03B030BDD40000209B
:1039D000AC080020A5E70008A4E70008ACE7000851
:1039E000A8E70008F0B5884C884A23689D8AADB2E4
:1039F000E9B211F0010F32D0198821F400610904F5
:103A0000090C1980198889B241F48061198000215C
:103A100011707F4908787F49A8B1507818B97E485D
:103A20000078FF280FD1012050707C4800780228D0
:103A300004D1188880B240F400601880097841F001
:103A40000101198202E1097801F0FE011982724B2D
:103A50001B78FF2B00F0FA80FF231370F6E08F072E
:103A60003CD5BFF35F8F6D490878C0B2012814D1EF
:103A7000674D2D788DB155787DB1198821F480611D
:103A80000904090C1980BFF35F8F198B1988907096
:103A900089B241F4007119801BE0188BBFF35F8F6E
:103AA000087802280BD15A48007840B1507830B1DC
:103AB000198821F480610904090C1980C0E0097893
:103AC000032906D15249097819B15178002940F0EB
:103AD000B780998889B241F48061B6E04E075BD522
:103AE000012191704A49097800293AD0517800297A
:103AF00037D04A4910780978494D022919881ED9CA
:103B000021F480610904090C19801F8A2E68C1B252
:103B1000FFB240B23754188880B240F40070188069
:103B20008B1C1370236828681D8A013149B2EDB2DD
:103B30004554998889B241F48061998027E089B21F
:103B400041F4007119801E8A2D68C1B2F6B240B2EC
:103B50002E541B8A481C40B2DBB203312B54117027
:103B600015E0517811B92F49097841B1198889B206
:103B700041F40071198013780133137007E019883C
:103B800089B241F480711980204B0121597021685C
:103B90000B88D805FCD459E001F0400101F0FF0684
:103BA0001E48F1B11E49B3F810C00F6811785FFAD2
:103BB0008CFCCDB26E1C49B2F6B207F801C016708B
:103BC000077876B2F11C8F4205D1998821F4806183
:103BD0000904090C99800378B34237D10235157076
:103BE00034E0290632D511784DB26F1C1ED00E4E2E
:103BF00001313668C9B2755D1170EDB21D82007871
:103C000049B2884222D11BE08C0E0020A40E002075
:103C1000940E0020910E0020920E0020A00E002095
:103C20009C0E0020930E0020980E00201349167061
:103C30000978C9B219821249097809B9017829B9F4
:103C4000998821F480610904090C99800D4B92F93F
:103C5000001018780C4B421C91420DD100225A7072
:103C60009B7833B12268938823F440731B041B0CA8
:103C70009380064B00221A70F0BD00BF920E002008
:103C8000940E0020A00E0020A40E0020A10E002003
:103C9000114AD1784B1CD37001F0070100239380A7
:103CA00002EB4102D3801A460C49595A02330A44A6
:103CB000102B92B2F8D10A4BD2081B681B7803EB89
:103CC0004313534303F59F4349F6F6727B33B3FB2B
:103CD000F2F3044A13707047A40E0020AA0E0020CD
:103CE0005C0E0020600E00200D4B0278D9684378EE
:103CF000C943C1F30221C1F1040103FA01F1094BE7
:103D00000901C9B21A4482F800130278012051094E
:103D100002F01F0200FA02F243F82120704700BFB0
:103D200000ED00E000E100E0254B10B55343254ACB
:103D3000254C12680139B2FBF3F20388013AA04224
:103D400089B292B29BB212D004F50064A0420ED0A8
:103D5000B0F1804F0BD0A4F59834A04207D004F501
:103D60008064A04203D004F58064A04202D123F015
:103D700070039BB2154CA04206D004F58064A042AB
:103D80001CBF23F440739BB203800F4B8185984284
:103D900002850FD003F5006398420BD003F5406312
:103DA000984207D003F58063984203D003F58063FF
:103DB000984201D1002303860123838210BD00BFF6
:103DC00040420F0058000020002C0140001000402D
:103DD0002DE9F74FA24F0C46BE7D054611460068FF
:103DE00091469B462246731CBB75FFF79DFFAB684F
:103DF0006868ADF8043018238DF8063001A9022355
:103E00008DF8073001F032F82B7B1837360107EBBD
:103E1000060A2C680C2B00F2F280DFE813F00D008C
:103E2000F000F000F0004D00F000F000F000820023
:103E3000F000F000F000B600238C8A4823F0010364
:103E40001B041B0C2384218CA288238B844223F027
:103E500073034FEA03434FEA134389B292B243F02C
:103E6000700314D000F50060844210D000F540606B
:103E700084420CD000F58060844208D000F5806058
:103E8000844204D021F0020141F0030107E021F057
:103E90000E0122F4407241F0030142F48072A280CC
:103EA0002383A4F834B02184238B23F008031B045C
:103EB0001B0C43F0080332E0238C6A4823F0100304
:103EC0001B041B0C2384218CA288238B844223F4A3
:103ED000E6434FEA03434FEA134389B292B243F4F5
:103EE000E04308D000F50060844204D021F02001B6
:103EF00041F0300107E021F0E00122F4406241F09E
:103F0000300142F48062A2802383A4F838B0218477
:103F1000238B23F400631B041B0C43F400632383F3
:103F20006DE0238C4F4823F480731B041B0C238407
:103F3000218CA288A38B844223F073034FEA0343AE
:103F40004FEA134389B292B243F0700308D000F5F0
:103F50000060844204D021F4007141F4407107E014
:103F600021F4606122F4405241F4407142F48052E5
:103F7000A280A383A4F83CB02184A38B23F0080380
:103F80001B041B0C43F0080338E0B4F820C0354A8A
:103F90002CF4805C4FEA0C4C4FEA1C4CA4F820C077
:103FA000B4F820C0A388B4F81C802CF4005C28F47A
:103FB000E6484FEA08484FEA0C4C4FEA18484FEAE7
:103FC0001C4C94429BB248F4E0484CF4405C03D053
:103FD00002F50062944203D123F4804343F480430A
:103FE000A380A4F81C80A4F840B0A4F820C0A38B40
:103FF00023F400631B041B0C43F40063A383AB7B1B
:1040000043B1B4F844306FEA43436FEA53439BB281
:10401000A4F8443023889BB243F0010323802B7B18
:104020000C2B14D8DFE803F0071313130A13131330
:104030000D131313100004F1340307E004F13803E7
:1040400004E004F13C0301E004F14003BB5150469D
:10405000AAF80890CAF8044003B0BDE8F08F00BF8A
:10406000A40E0020002C014010B50D4C002112229E
:10407000204607F0B2F80B4904220B78A4F597709C
:10408000A3700523A3712372A373237401234978BA
:10409000A3805223E271E27380F82E31A17210BD29
:1040A000020200205C0000200B4A0C4B30B51A6065
:1040B0000B4B0C4A19600123137014460023C25C99
:1040C00032B9C1188D78C9788D4201D2227030BDC5
:1040D0000433A02BF3D130BDA4010020A40800209C
:1040E000A80800200000002070B50646441E14F801
:1040F000011F81B1084D284607F0A3F80028F6D02B
:1041000005F108039842F2D2451B0448A31B28443A
:1041100080F81231EBE770BD80EA0008D40000207F
:104120007FB5044607F09AF8082824D100231F49D8
:10413000E25C09681144497801F00301022908BFD3
:10414000203AE2540133082BF1D10025665D18486E
:10415000314607F076F828B101356019314607F08D
:1041600070F818B1134800F0F7FB1CE0082DEDD1F2
:104170002046FFF7B9FF104800F0EEFB00230F4A7E
:1041800004A91A4492F812210A440949595C0133DE
:10419000082B02F80C1CF2D10023094801A98DF864
:1041A0000C3000F019FF04B070BD00BF64000020A7
:1041B00080EA0008AFE70008CFE70008D40000203D
:1041C000ECE6000803788B4286BF024B33F81100FF
:1041D000002070477C0F002003788B420AD9064BE1
:1041E0001A78064B53F8210002B1400800F57770A9
:1041F00080B27047002070474A0E0020B8060020A9
:1042000007299ABF024B33F821000020704700BFF6
:10421000CC070020024B53F82100C0F3CF007047B9
:104220007407002008B5074B53F8210004F070FC18
:10423000054904F0C5FC054904F0BAFB04F0ACFEE6
:1042400080B208BDEC0600200000203F00005C4466
:10425000014B33F81100704706080020014B33F87A
:1042600011007047EA0F00207047016B0346C268D7
:1042700010B5406941B1196C541A005D013918BF7D
:104280000A46C0B21A6410BD196A405C01319142FD
:1042900028BF0021C0B2196210BD036B13B15A6868
:1042A000036C01E0C269036A9A4237BFC068C3EB7E
:1042B00002008018C3EB0000C0B27047436B13B11B
:1042C00090F844007047826A436AD31A58425841B2
:1042D0007047334A10B5136C90681944081A40F6B9
:1042E0008C2398429160D060516013463CD912787B
:1042F00093F945108A420BD1111F082908D893F869
:104300004610182901D8013103E083F8442002E067
:10431000002183F8461093F944108A421CD12049A9
:1043200091F84710C1B1002191421E4806DA03EB13
:104330008104246920F811400131F5E7511E00EB9A
:1043400041011630814203D0002421F8024FF9E7E1
:10435000154908780130087083F8452000220121B2
:104360001A7083F8471010BD92F84710B9B1A0F247
:10437000EF2440F2DA518C4208D811780B2905D885
:104380000B1D0131117042F8230010BD002283F88B
:104390004720991804320020302A0861F9D110BD55
:1043A000080C0020EA0F00206C10002010F80A3CD6
:1043B0000133DBB20A2B00F80A3C07D910F8131CB2
:1043C000034A002322F8113000F80A3C704700BF6E
:1043D000EA0F0020024B1A6C013211441964704735
:1043E000080C0020024B53F820301B6819807047DE
:1043F000300D0020074BA1F57A7153F820304FF4AF
:104400007A701A681B894B4393FBF0F39BB21380BD
:10441000704700BF300D002038B50C6805462046B7
:1044200006F01CFF214602462868BDE8384006F029
:104430001DBF30B500221346214914180C5D83EAD4
:104440000423082413F4004F4FEA430318BF83F4F6
:10445000815304F1FF3418BF83F0010314F0FF040B
:104460009BB2EFD10132192AE6D100F119028D5C1D
:1044700000F11A028A5C02EB052292B29A421DD127
:10448000104B1D782346DAB2AA4214D2441C04EB26
:104490004202D2B28C5C01328A5C02EB0424A4B2E8
:1044A0004FF4AF625443084A241304F5487422F8C9
:1044B00013400133E7E7054B01221A7030BD00BFFE
:1044C000C80F0020570E00207C0F0020EC070020B2
:1044D000034B1B68DA79511CD9711344187A704761
:1044E000AC0B002010B5FFF7F3FF0446FFF7F0FF19
:1044F00004EB002080B210BD30B50B4B0B4A1C689A
:10450000137E012B0DD8591C04EBC3039D88C9B23F
:10451000284203F1020302D01176184630BD0B4643
:10452000EFE71376002030BDE00B00207C0F002069
:10453000014B00221A76DFE77C0F00202DE9F047BF
:104540008278C6781E4BC2F1640802EB820C54429A
:104550005FFA88F84FEA4C0CC6F16409A4B203F183
:104560001807A5B228B2002804DC002D14BF154698
:10457000012500E0454600FB00FA6D430AFB06FA00
:104580009AFBF5F54D4468434FF00A0A90FBFAF0A8
:10459000604480B258800D88B1F802A000B2C5EB2B
:1045A0000A0A00FB0AF04FF47A7A90FBFAF005440D
:1045B00023F8025F0A34BB42A4B2D2D1BDE8F0872F
:1045C0002E0B002010B544780078002303FB03F184
:1045D0001939614301F6C4115943414340F6C412ED
:1045E00091FBF2F1034A22F813100133072BEDD1AE
:1045F00010BD00BF180B002010B5044C2068FFF759
:10460000E1FF20680249BDE8104097E7A0080020BC
:10461000A401002010B5094A094913688868126886
:104620009342F8D1074A11684FF47A7202FB01F401
:10463000201AB0FBF1F002FB030010BD8816002029
:1046400010E000E0C80B002010B50446FFF7E2FFC1
:104650000D4B41F28831DA69D861821A8A421A62B6
:1046600084BF002283F8242093F82430074AE4B260
:104670000F2BD45403D1064B01221A7010BD024AED
:10468000013382F8243010BD7C0F0020A5060020E5
:104690009C06002010B50446FFF7BCFF0D4B41F20D
:1046A00088319A6A9862821A8A42DA6284BF00224A
:1046B00083F8302093F83030074A142BD45403D1B8
:1046C000064B01221A7010BD024A013382F83030C5
:1046D00010BD00BF7C0F0020B5070020B4070020EC
:1046E00010B50446FFF796FF164A536B5063C31A82
:1046F000B3F57A6F84BF002382F8383092F83830EF
:1047000023B9A82C1CD110490B7006E0022B02D152
:104710000E490C7001E0242B01D80D49CC54013313
:10472000DBB282F83830094A1278520005329342DF
:1047300006D1044B002283F83820034B01221A7063
:1047400010BD00BF7C0F00204D0700207307002024
:104750004E07002010B50446FFF75CFF104B40F6F3
:10476000AC51DA6B821A8A42C4BF002283F840201F
:1047700093F840200B498C541AB90F2C0ED1084CD9
:10478000E0630132D2B2192A83F8402003D10B7EB4
:1047900023B9012200E00022034B1A7010BD00BFB4
:1047A0007C0F002034070020E806002038B50446BE
:1047B000FFF730FF0546FFF72DFF401BA042FAD35D
:1047C00038BD10B504462CB14FF47A70FFF7EEFFF8
:1047D000013CF8E710BD2DE9F04106460F46904632
:1047E0000025EBB2434512D20024E3B2B34209D212
:1047F000084B3846DA68013482F48042DA60FFF709
:10480000E0FFF2E73C20FFF7DCFF0135E9E7BDE818
:10481000F08100BF0010014008B503681B6998478C
:1048200008BD08B503681B68984708BDF8B51B4D5F
:104830001B4C1C4F0646C1B2286884F84110FFF794
:10484000F0FF3B6894F841109A7928684A409A71C1
:10485000C6F3072184F84110FFF7E3FF3B6894F8A3
:1048600041109A7928684A409A71C6F3074184F842
:104870004110FFF7D6FF3B6894F841109A792868F9
:104880004A409A71310E84F84110FFF7CAFF3B6825
:1048900094F841109A794A409A71F8BDB00B002003
:1048A0007C0F0020AC0B0020064B10B504462146BF
:1048B0001868FFF7B6FF044B1B689A7954409C7147
:1048C00010BD00BFB00B0020AC0B002038B5044673
:1048D00024200D46FFF7E8FF4D20FFF7E5FF002CF1
:1048E000084C0CBF3E202120FFF7DEFF236800228A
:1048F00028469A71FFF7D8FF236893F84900BDE86E
:104900003840D1E7AC0B002001460020DEE7F8B5C7
:104910000E4E0F4C0F4DC1B20746306884F842105E
:10492000FFF77FFF2B6894F842109A7930684A406D
:104930009A71C7F3072184F84210FFF772FF2B68C2
:1049400094F842109A794A409A71F8BDB00B002051
:104950007C0F0020AC0B002010B5441E14F8011F82
:1049600021B1034B1868FFF75CFFF7E710BD00BFEC
:10497000740B0020014B186853E700BFB40B0020F4
:104980002DE9F84F2E4E04463768384606F054FE9F
:104990000546384606F0C4FE76688046304606F086
:1049A0004BFE8346304606F0BBFED4F80490064624
:1049B0002946484604F004F9A7688246414638462D
:1049C00004F0FEF80146504603F0F0FF21688246ED
:1049D000584604F0F5F841460446484604F0F0F81D
:1049E000314604F0EDF80146204603F0E1FF314680
:1049F0000446384604F0E4F8294604F0E1F801469C
:104A0000204603F0D5FF0146504606F017FF0D493A
:104A100004F0D6F80C4904F087F90C4B196803F040
:104A2000C7FF0B4904F080F906F03CFE83B21A047C
:104A300044BF00F5B4739BB218B2BDE8F88F00BF55
:104A4000BC0900200000E144DB0F4940900D00202C
:104A50000000204101380A4B042804D8DFE800F0A8
:104A60000507090B0D00074A08E0074A06E0074A58
:104A700004E0074A02E0074A00E0074A1A6070476C
:104A800048000020FD610008E1780008852C00083E
:104A9000717600089573000865640008044B0022D5
:104AA0001A605A60034B00221A605A60704700BFB8
:104AB0002C10002054100020064BB3F90000064BC8
:104AC0001B681B7803EB83039842D4BF00200120AE
:104AD000704700BFEE07002030080020034B1A7813
:104AE000510744BF22F004021A707047A716002035
:104AF000F0B50124B0FBF4F58D4201D34C43F9E746
:104B00000026DCB1B0FBF4F504FB1500B4FBF1F4B6
:104B10001EB9002D01DC002CF3D1092D03F1010792
:104B20005FFA85FC04DD002A0CBF5725372500E01D
:104B3000302565441D7001363B46E2E71C70F0BD30
:104B4000F0B50124B0FBF4F58D4201D34C43F9E7F5
:104B50000026DCB1B0FBF4F504FB1500B4FBF1F466
:104B60001EB9002D01DC002CF3D1092D03F1010742
:104B70005FFA85FC04DD002A0CBF5725372500E0CD
:104B8000302565441D7001363B46E2E71C70F0BDE0
:104B900070B50646B6FBF2F40846154614B1204639
:104BA000FFF7F6FF05FB1464024B1B5D00F8013BA9
:104BB00070BD00BFEAE700082DE9F843089E002B0E
:104BC0000746884614460CBF4FF020094FF03009C5
:104BD000334613F8012B0AB9254603E0002CFBDD10
:104BE000013CF6E7002D04DD38464946C047013D4B
:104BF000F8E724EAE4742546331B595D19B13846B9
:104C0000C0470135F8E72846BDE8F8832DE9F04FA5
:104C10000C68836889B0D0F800A0D0F804800646FC
:104C2000204603938B4606F007FD0746204606F014
:104C300077FDDBF804408146204606F0FDFC054682
:104C4000204606F06DFDDBF8082004461046019270
:104C500006F0F2FC019A8346104606F061FD3946E3
:104C60000290584603F0ACFF39460490029803F0D6
:104C7000A7FF59460590484603F0A2FF0299069007
:104C8000484603F09DFF29460790584603F098FFD9
:104C90000146504603F094FF21468346069803F0F0
:104CA0008FFF0146059803F083FE0146404603F05E
:104CB00087FF0146584603F07BFE21468346049851
:104CC00003F07EFF0146079803F070FE014603984B
:104CD00003F076FF0146584603F06AFE3060029901
:104CE00005F1004003F06CFF0146504603F068FFF9
:104CF00021468346079803F063FF0146049803F0BA
:104D000055FE0146404603F05BFF0146584603F05E
:104D10004FFE21468346059803F052FF0146069850
:104D200003F046FE0146039803F04AFF0146584649
:104D300003F03EFE21467060504603F041FF2946D5
:104D4000044609F1004003F03BFF0146404603F0F2
:104D500037FF0146204603F02BFE3946044628461D
:104D600003F02EFF0146039803F02AFF0146204678
:104D700003F01EFEB06009B0BDE8F08F80EAE0737A
:104D8000A3EBE0738B4206DB002801DD401A70477D
:104D900002D00844704700207047034B9A6822EA0B
:104DA00000009860704700BFD40000202DE9F0415A
:104DB000038A87890446BFB20D461F40002F36D0B4
:104DC000B7FA87F34FF00042DA40D24391B21B3B6F
:104DD00021821740042BF1D8DFE803F0221F1C19B1
:104DE00003006B6A33B103F1FF3800231FFA88F820
:104DF0006B6203E0B4F82C801FFA88F82E6A002E4C
:104E0000DCD033683046414698477668F7E7286833
:104E1000A18E08E06868218F05E0A868A18F02E0F4
:104E2000E868B4F84010036889B29847C6E7BDE85F
:104E3000F0810C4B800A98420CD003D8B0F5801F4B
:104E40000ED00BE0084B984206D04933984205D16A
:104E5000002070470220704703207047FE207047F3
:104E60000120704701001000020010002DE9F04100
:104E70000F88002347FA03F2D2072BD58A7803F074
:104E8000070512F0100F18BF91F803C002F00F06CB
:104E900018BF46EA0C06AD004FF00F0C0CFA05FCEB
:104EA00006FA05F5DC0850F82480282A28EA0C0CBC
:104EB00045EA0C0540F8245005D101229A40C46807
:104EC00024EA020205E0482A04D101229A40C4687B
:104ED0002243C2600133102BCCD1BDE8F08100BF6A
:104EE000084BDA68D10709D4DA68520708D4DB68BE
:104EF00013F0100F0CBF04200320704701207047EF
:104F00000220704700200240F8B50746FFF782FBF9
:104F10002C4E2D4C33682D4DC31AB3F5FA5F86E83D
:104F2000090002D9002323702B7023781BB9A12F0D
:104F300004BF01222A702A7822B1F218FFB201338D
:104F400017722370224B21781A781F46914238D16C
:104F5000204B1B78052B02D0062B03D02EE000201F
:104F6000FFF767FA737A1E2B28D1387800220138B0
:104F70001346D1B281421ADA31440F7A19463B46C0
:104F8000082781EA030C1CF0010F1CBF83F01803F3
:104F9000C3F3460307F1FF370CBF5B0843F0800300
:104FA00017F0FF07C1F34701EBD10132E1E70644F7
:104FB000327A934202D10320FFF73BFA00232B7091
:104FC0002370F8BDC00F0020550E0020540E0020A5
:104FD000560E0020580E00200FB42DE9F04F684AFD
:104FE00089B0126812AB0392664A53F8045B1768E3
:104FF00004931E4600242978002900F0B580252955
:1050000002D001350398ACE06B78302B03D0023529
:105010004FF0000903E0AB784FF001090335A3F12D
:105020003002092A4FF000081AD8A3F13002D1B299
:10503000092907D80A2A13DC0A2303FB082815F8D4
:10504000013BF2E7A3F16102052A02D8A3F157025E
:10505000F0E7A3F14102052A02D8A3F13702E9E7FC
:105060006C2B03BF2B78012201350022642B29D041
:1050700011D8252B73D002D8002B75D0BBE7582B45
:1050800040D0632BB7D1317806F104080398B847B4
:1050900001344646AFE7732B54D005D86E2BAAD106
:1050A000336804361C60A6E7752B02D0782B29D014
:1050B000A1E706F1040B0DF1140A30680A219AB336
:1050C00000222AE006F1040B0DF1140A306862B1E7
:1050D000002806DA2D238DF8143040420DF1150317
:1050E00000E053460A21002218E0002806DA2D23AA
:1050F0008DF8143040420DF1150300E053460A21AB
:10510000002212E006F1040B0DF1140A30681021A0
:105110003AB1B3F15806724272415346FFF710FD9F
:1051200005E0583B5A425A415346FFF7E1FCCDF89F
:1051300000A00398394642464B46FFF73DFD5E46C8
:10514000044458E7336803980093394642460023E5
:10515000FFF732FD06F1040904444E464BE703987D
:105160001946B847013446E7074B1868FFF754FB68
:105170000028F9D0204609B0BDE8F04F04B07047D0
:10518000C40B0020C00B0020B40B002030B587B04A
:1051900005460C4603A800210C2206F01EF82846FE
:1051A000002103F0C9FE20B128462A4903F000FC83
:1051B00003E02846274903F0F9FB274903F000FDE7
:1051C00003F0C4FE054685EAE570A0EBE57069468C
:1051D0000A22FFF7DDFC00239D420370ACBF2023B1
:1051E0002D2368468DF80C3006F038F8012807D1D9
:1051F00030238DF80D308DF80E308DF80F300CE027
:10520000022805D130238DF80D308DF80E3004E0E2
:10521000032804BF30238DF80D30694603A806F03B
:1052200003F803A806F01AF80338C5B22A4603A902
:10523000204606F03DF8002363552046074905F057
:10524000F3FF03A92046294405F0EEFF204607B0EE
:1052500030BD00BF6F12033A00007A440FE8000827
:10526000034A044B04481A600023438003717047CB
:10527000E60100202C080020EE070020012000217C
:10528000FFF724BB7C4B70B51B78012B0CBF0325AB
:10529000002599BB048C24F001042404240C04840C
:1052A000038B048C9BB223F0F30343F0010343EA26
:1052B0000515724BA4B2984215D003F500639842CD
:1052C00011D0B0F1804F0ED0A3F5983398420AD098
:1052D00003F58063984206D003F58063984218BFB7
:1052E00024F00A0401D124F0020444F00104224312
:1052F00005830284038B23F00C033AE004293FD199
:10530000048C5E4B24F010042404240C0484018BD0
:10531000048C21F440710905090D41F48071984213
:10532000A4B241EA053512D003F5006398420ED0CD
:10533000B0F1804F0BD0A3F59833984207D003F516
:105340008063984203D003F58063984207D124F02C
:10535000200444F0100444EA021292B204E024F063
:10536000A00444F01004224305830284038B23F439
:1053700040631B041B0C0383038B9BB2038370BD30
:105380000829018C37D121F480710904090C0184AA
:10539000838B048C9BB223F0F30343F0010343EAB5
:1053A0000515364BA4B2984212D003F5006398421B
:1053B0000ED0B0F1804F0BD0A3F59833984207D0B0
:1053C00003F58063984203D003F58063984207D1C8
:1053D00024F4007444F4807444EA022292B204E09B
:1053E00024F4206444F48074224385830284838BF4
:1053F00023F00C0338E021F480510904090C0184E6
:10540000838B068C23F440731B051B0D43F48073C0
:1054100043EA0535194BB6B2984212D003F5006342
:1054200098420ED0B0F1804F0BD0A3F5983398423C
:1054300007D003F58063984203D003F58063984258
:1054400007D126F4005646F4805646EA023292B25C
:1054500005E047F6FF54344044F4805422438583EA
:105460000284838B23F440631B041B0C8383838B94
:105470009BB2838370BD00BF040C0020002C014050
:1054800038B510F80E2C044650F8043C52B90122ED
:1054900000F80E2C20F80C1C197B18680222BDE8BD
:1054A0003840EFE630F80C2C20F80A1C891A89B233
:1054B00020F8081C084A10F80F0C002502EB4002E7
:1054C000518504F80E5C1868197B2A46FFF7DAFE4E
:1054D00004F8065C38BD00BFC00F00201F4B10B59C
:1054E0005A6802F00C02042A03D0082A04D01C4A8D
:1054F00014E01C4A126811E05A685968C2F38342EA
:10550000C90302F1020201D4174906E0596811F4F7
:10551000003F1449096818BF49084A4302605968A6
:10552000124AC1F30311545C0168E14041605C68B8
:10553000C4F30224145D21FA04F484605C68C4F3AB
:10554000C224145DE140C1605B68C3F381331A4437
:10555000137CB1FBF3F1016110BD00BF00100240EC
:1055600000127A001000002000093D0028000020F1
:1055700010B50446FFF7B4FC012806D11CB1FFF7B3
:10558000AFFC013CF8E7052010BD002C08BF05204A
:1055900010BD02684FF6FE731340036000230360E2
:1055A00043608360C3602A4B984222D0294B9842C3
:1055B00029D0294B984230D0284B984237D0284BDD
:1055C00098423ED0274B984206D153F8682C42F4BB
:1055D000700243F8682C7047234B984206D153F869
:1055E0007C2C42F0706243F87C2C70471F4B984231
:1055F00006D153F8042C42F00F0243F8042C7047F4
:105600001B4B984206D153F8182C42F0F00243F895
:10561000182C7047174B984206D153F82C2C42F4A3
:10562000706243F82C2C7047134B984206D153F804
:10563000402C42F4704243F8402C70470F4B984284
:1056400005D153F8542C42F4702243F8542C70477F
:10565000080002401C0002403000024044000240AA
:10566000580002406C0002408000024008040240E2
:105670001C0402403004024044040240580402402A
:105680002DE9F843574B0C460168013AC3F8421024
:105690008188A3F84610072A42D8DFE802F0040AFE
:1056A000101822292F35B3F842202280B3F8442065
:1056B00013E0B3F844202280B3F8422005E0B3F8A9
:1056C000422052422280B3F84420524205E0B3F80F
:1056D000442052422280B3F842206280B3F8463020
:1056E0001DE0B3F8422052422280B3F8442012E079
:1056F000B3F844202280B3F842200CE0B3F84220F3
:105700002280B3F8442005E0B3F8442052422280BE
:10571000B3F8422052426280B3F846305B42A38025
:10572000314B1B78002B5AD1B4F9000003F0F4F987
:105730008046B4F9020003F0EFF90746B4F904001B
:1057400003F0EAF9294D06462968404603F038FA85
:10575000E9688146384603F033FA0146484603F0CB
:1057600027F9A9698146304603F02AFA01464846DE
:1057700003F01EF905F096FF69682080404603F0AB
:105780001FFA29698146384603F01AFA014648464D
:1057900003F00EF9E9698146304603F011FA01463B
:1057A000484603F005F905F07DFFA9686080404692
:1057B00003F006FA69698046384603F001FA0146AB
:1057C000404603F0F5F8296A0746304603F0F8F939
:1057D0000146384603F0ECF805F064FFA080BDE810
:1057E000F88300BFC00F002024000020600D0020BF
:1057F0002DE9F047054605F031FD324B0446D3F85C
:1058000008809A4690B93048FFF7A6F82F4B53F816
:10581000241049B10123A34013EA080F02D02C48F9
:10582000FFF7DAFB0134F1E72A4821E028462A494C
:10583000224605F01BFD58B92848FFF78DF8284C83
:1058400054F8041F0029EFD02148FFF7C5FBF7E704
:105850002B7800262D2B03BF013504F1FF344FF0C8
:1058600001094FF00009194B53F8267027B91D485C
:10587000BDE8F047FFF770B828463946224605F0E4
:10588000F5FCE8B90120B040020601D51648EFE763
:10589000830501D51548EBE7B9F1000F03D0FFF7F9
:1058A0007CFA134804E040EA0800CAF808001148EE
:1058B000FFF752F839461048BDE8F047FFF78CBBB8
:1058C0000136D0E7D400002011E80008ACDA000867
:1058D00024E800088AEB0008DDE4000828E8000856
:1058E000A8DA00083DE8000854E8000866E8000867
:1058F0007AE8000884E80008ECE600082DE9FF419A
:10590000604B1B689BB1196819B15F4A90690143EC
:1059100091619A889868ADF8042002228DF80720DA
:1059200004220DEB02018DF80620FFF79FFA3220CA
:10593000FEF747FF002111221E20FDF74BFC01213D
:1059400060221E20FDF746FC6420FEF73AFF02A805
:10595000FDF7D0FC00240A25274626460221012215
:105960001E20FDF737FC3220FEF72BFF02A8FDF7C3
:10597000C1FCBDF90820BDF90A10BDF90C30144472
:105980009142B8BF0A461E449A42B8BF134613F567
:10599000805F0F4409DD3D4B013DDA6882F400521F
:1059A000DA60DBD14FF0010801E04FF000081E2063
:1059B00000211222FDF70EFC0A25022101221E20E1
:1059C000FDF708FC3220FEF7FCFE02A8FDF792FC72
:1059D000BDF90820BDF90A10BDF90C30A41A914296
:1059E000B8BF0A46F61A9A42B8BF134613F5805F4D
:1059F000C1EB070707DD254B013DDA6882F4005251
:105A0000DA60DAD101E04FF00008204603F084F8B4
:105A100001461F4803F088F91E4D20F00040286021
:105A2000384603F079F80146194803F07DF920F073
:105A300000406860304603F06FF80146164803F0F6
:105A400073F920F00040A860002170221E20FDF7AD
:105A5000C1FB012120221E20FDF7BCFB1E200221DC
:105A60000022FDF7B7FB6420FEF7ABFEB8F1000F94
:105A700004D14FF07E532B606B60AB6004B0BDE887
:105A8000F08100BF8C0D002000100240001001408A
:105A900000406F463C00002001C05E4608B501F0A2
:105AA00061FA6B2180226820FDF794FB6420FEF7E9
:105AB00088FE192100226820FDF78CFB6B21032250
:105AC0006820FDF787FB0B4B1A211A786820FDF739
:105AD00081FB1B2118226820FDF77CFB1C21102272
