:020000040800F2
:1000000000A00020750F0008B93C0008D9BC00080A
:10001000C53C0008CD3C0008D53C000800000000AD
:10002000000000000000000000000000DD3C0008AF
:10003000E93C000800000000F53C00086DFA0008EB
:10004000C10F0008C10F0008C10F0008C10F000850
:10005000C10F0008C10F0008C10F0008C10F000840
:10006000C10F0008C10F0008C10F0008C10F000830
:10007000C10F0008851D000805300008C10F0008E9
:10008000C10F000835300008C10F0008C10F00087B
:10009000013D0008C10F0008C10F0008C10F000892
:1000A000C10F0008F537000879380008DD3700086F
:1000B0001D3800083138000849380008C10F000811
:1000C000C10F0008C10F0008C10F0008C10F0008D0
:1000D000C10F00085531000871310008C10F000838
:1000E000C10F0008C10F00080D3D0008C10F000836
:1000F000C10F0008C10F000861380008C10F0008D7
:10010000000000000000000000000000C10F000817
:10011000C10F0008C10F0008C10F0008C10F00087F
:10012000C10F0008C10F0008C10F0008C10F00086F
:10013000C10F0008C10F000800000000000000000F
:10014000C10F0008C10F0008C10F00080000000027
:10015000000000000000000000000000000000009F
:100160000000000000000000C10F0008C10F0008DF
:10017000C10F0008000000000000000000000000A7
:0801800000000000C10F00089F
:1001880081F0004102E000BF83F0004330B54FEA40
:1001980041044FEA430594EA050F08BF90EA020FAD
:1001A8001FBF54EA000C55EA020C7FEA645C7FEA40
:1001B800655C00F0E2804FEA5454D4EB5555B8BF63
:1001C8006D420CDD2C4480EA020281EA030382EAD4
:1001D800000083EA010180EA020281EA0303362D66
:1001E80088BF30BD11F0004F4FEA01314FF4801C39
:1001F8004CEA113102D0404261EB410113F0004F4B
:100208004FEA03334CEA133302D0524263EB430301
:1002180094EA050F00F0A780A4F10104D5F1200E9F
:100228000DDB02FA0EFC22FA05F2801841F10001FA
:1002380003FA0EF2801843FA05F359410EE0A5F1CE
:1002480020050EF1200E012A03FA0EFC28BF4CF0FF
:10025800020C43FA05F3C01851EBE37101F00045B5
:1002680007D54FF0000EDCF1000C7EEB00006EEBC2
:100278000101B1F5801F1BD3B1F5001F0CD349084C
:100288005FEA30004FEA3C0C04F101044FEA4452A3
:1002980012F5800F80F09A80BCF1004F08BF5FEA2A
:1002A800500C50F1000041EB045141EA050130BD0A
:1002B8005FEA4C0C404141EB010111F4801FA4F1AD
:1002C8000104E9D191F0000F04BF01460020B1FA02
:1002D80081F308BF2033A3F10B03B3F120020CDA3A
:1002E8000C3208DD02F1140CC2F10C0201FA0CF018
:1002F80021FA02F10CE002F11402D8BFC2F1200C7D
:1003080001FA02F120FA0CFCDCBF41EA0C01904032
:10031800E41AA2BF01EB0451294330BD6FEA04047B
:100328001F3C1CDA0C340EDC04F11404C4F1200266
:1003380020FA04F001FA02F340EA030021FA04F378
:1003480045EA030130BDC4F10C04C4F1200220FACF
:1003580002F001FA04F340EA0300294630BD21FA0D
:1003680004F0294630BD94F0000F83F4801306BFD3
:1003780081F480110134013D4EE77FEA645C18BFC7
:100388007FEA655C29D094EA050F08BF90EA020F5E
:1003980005D054EA000C04BF1946104630BD91EA56
:1003A800030F1EBF0021002030BD5FEA545C05D159
:1003B8004000494128BF41F0004130BD14F5800498
:1003C8003CBF01F5801130BD01F0004545F0FE410C
:1003D80041F470014FF0000030BD7FEA645C1ABF41
:1003E800194610467FEA655C1CBF0B46024650EA78
:1003F800013406BF52EA033591EA030F41F40021A4
:1004080030BD00BF90F0000F04BF0021704730B529
:100418004FF4806404F132044FF000054FF00001FE
:1004280050E700BF90F0000F04BF0021704730B5BF
:100438004FF4806404F1320410F0004548BF404294
:100448004FF000013EE700BF42004FEAE2014FEAE9
:1004580031014FEA02701FBF12F07F4393F07F4FC4
:1004680081F06051704792F0000F14BF93F07F4FF6
:10047800704730B54FF4607401F0004521F0004139
:1004880020E700BF50EA010208BF704730B54FF0BF
:1004980000050AE050EA010208BF704730B511F0C4
:1004A800004502D5404261EB41014FF4806404F1FC
:1004B80032045FEA915C3FF4DCAE4FF003025FEA7E
:1004C800DC0C18BF03325FEADC0C18BF033202EB06
:1004D800DC02C2F1200300FA03FC20FA02F001FA60
:1004E80003FE40EA0E0021FA02F11444C1E600BFFF
:1004F80070B54FF0FF0C4CF4E06C1CEA11541DBFB2
:100508001CEA135594EA0C0F95EA0C0F00F0DEF87C
:100518002C4481EA030621EA4C5123EA4C5350EA61
:10052800013518BF52EA033541F4801143F48013B2
:1005380038D0A0FB02CE4FF00005E1FB02E506F043
:100548000042E0FB03E54FF00006E1FB03569CF098
:10055800000F18BF4EF0010EA4F1FF04B6F5007F9E
:1005680064F5407404D25FEA4E0E6D4146EB060610
:1005780042EAC62141EA55514FEAC52040EA5E5099
:100588004FEACE2EB4F1FD0C88BFBCF5E06F1ED843
:10059800BEF1004F08BF5FEA500E50F1000041EB7A
:1005A800045170BD06F0004646EA010140EA020027
:1005B80081EA0301B4EB5C04C2BFD4EB0C0541EA49
:1005C800045170BD41F480114FF0000E013C00F35E
:1005D800AB8014F1360FDEBF002001F0004170BD82
:1005E800C4F10004203C35DA0C341BDC04F114049B
:1005F800C4F1200500FA05F320FA04F001FA05F227
:1006080040EA020001F0004221F0004110EBD370F3
:1006180021FA04F642EB06015EEA430E08BF20EA1F
:10062800D37070BDC4F10C04C4F1200500FA04F3C2
:1006380020FA05F001FA04F240EA020001F0004154
:1006480010EBD37041F100015EEA430E08BF20EAC7
:10065800D37070BDC4F1200500FA05F24EEA020E0F
:1006680020FA04F301FA05F243EA020321FA04F03E
:1006780001F0004121FA04F220EA020000EBD370F5
:100688005EEA430E08BF20EAD37070BD94F0000FF5
:100698000FD101F00046400041EB010111F4801F29
:1006A80008BF013CF7D041EA060195F0000F18BFDA
:1006B800704703F00046520043EB030313F4801F16
:1006C80008BF013DF7D043EA0603704794EA0C0FD0
:1006D8000CEA135518BF95EA0C0F0CD050EA4106E6
:1006E80018BF52EA4306D1D181EA030101F0004163
:1006F8004FF0000070BD50EA410606BF104619468B
:1007080052EA430619D094EA0C0F02D150EA013696
:1007180013D195EA0C0F05D152EA03361CBF1046D7
:1007280019460AD181EA030101F0004141F0FE4176
:1007380041F470014FF0000070BD41F0FE4141F4FA
:10074800780170BD70B54FF0FF0C4CF4E06C1CEAFA
:1007580011541DBF1CEA135594EA0C0F95EA0C0FAF
:1007680000F0A7F8A4EB050481EA030E52EA03356A
:100778004FEA013100F088804FEA03334FF080558B
:1007880045EA131343EA12634FEA022245EA1115B8
:1007980045EA10654FEA00260EF000419D4208BF69
:1007A800964244F1FD0404F5407402D25B084FEA16
:1007B8003202B61A65EB03055B084FEA32024FF4C2
:1007C80080104FF4002CB6EB020E75EB030E22BF1F
:1007D800B61A754640EA0C005B084FEA3202B6EBDF
:1007E800020E75EB030E22BFB61A754640EA5C008E
:1007F8005B084FEA3202B6EB020E75EB030E22BF1E
:10080800B61A754640EA9C005B084FEA3202B6EB1E
:10081800020E75EB030E22BFB61A754640EADC00DD
:1008280055EA060E18D04FEA051545EA16754FEA3F
:1008380006164FEAC30343EA52734FEAC2025FEA5D
:100848001C1CC0D111F4801F0BD141EA00014FF0EC
:1008580000004FF0004CB6E711F4801F04BF0143BD
:100868000020B4F1FD0C88BFBCF5E06F3FF6AFAED9
:10087800B5EB030C04BFB6EB020C5FEA500C50F169
:10088800000041EB045170BD0EF0004E4EEA1131EC
:1008980014EB5C04C2BFD4EB0C0541EA045170BDF3
:1008A80041F480114FF0000E013C90E645EA060E37
:1008B8008DE60CEA135594EA0C0F08BF95EA0C0F65
:1008C8003FF43BAF94EA0C0F0AD150EA01347FF4AD
:1008D80034AF95EA0C0F7FF425AF104619462CE784
:1008E80095EA0C0F06D152EA03353FF4FDAE1046E7
:1008F800194622E750EA410618BF52EA43067FF438
:10090800C5AE50EA41047FF40DAF52EA43057FF4C7
:10091800EBAE12E74FEA4102B2F1E04324BFB3F570
:10092800001CDCF1FE5C0DD901F0004C4FEAC0025E
:100938004CEA5070B2F1004F40EB830008BF20F042
:100948000100704711F0804F21D113F13872BCBFFC
:1009580001F00040704741F480114FEA5252C2F151
:100968001802C2F1200C10FA0CF320FA02F018BF9A
:1009780040F001004FEAC1234FEAD32303FA0CFCED
:1009880040EA0C0023FA02F34FEA4303CCE77FEA7C
:10099800625307D150EA01331EBF4FF0FE4040F4C6
:1009A8004000704701F0004040F0FE4040F4000075
:1009B800704700BF73B96AB9002908BF0028BCBFD7
:1009C80000204FF00041C4BF6FF000414FF0FF30EE
:1009D80000F03CB882B0EC462DE9005000F006F873
:1009E800DDF804E002B00CBC704700BF2DE970438D
:1009F800069E14461D468046894600F029F804FBE9
:100A080001F300FB0533A4FB00451D44B8EB0404C7
:100A180069EB0505C6E90045BDE870832DE970431B
:100A2800069E1446804689461D4600F05DF900FB87
:100A380005F504FB0153A0FB04451D44B8EB040471
:100A480069EB0505C6E90045BDE87083704700BF3E
:100A580000292DE9F00FC0F29F800024002BC0F27E
:100A68009680154606460F46002B3ED18A4257D936
:100A7800B2FA82F34BB1C3F1200201FA03F720FA6C
:100A880002F29D40174300FA03F6290CB7FBF1F276
:100A9800330C01FB127CA8B243EA0C4700FB02F3BB
:100AA800BB4209D97F1902F1FF3C80F00181BB42AA
:100AB80040F2FE80023A2F44FF1AB7FBF1F3B6B2B8
:100AC80001FB137146EA014100FB03F0884208D993
:100AD800491903F1FF3780F0ED80884240F2EA803F
:100AE800023B43EA0242002303E08B420AD9002377
:100AF8001A461046194614B1404261EB4101BDE85F
:100B0800F00F7047B3FA83F8B8F1000F40F0848013
:100B18008B4202D3824200F2DE8000230122E8E702
:100B280012B90123B3FBF2F5B5FA85F2002A39D1DF
:100B38007F1B280C1FFA85FC0123B7FBF0F1320C50
:100B480000FB117742EA07470CFB01F2BA4207D9CA
:100B58007F1901F1FF3802D2BA4200F2C180414642
:100B6800BF1AB7FBF0F2B6B200FB127046EA0040BB
:100B78000CFB02FC844507D9401902F1FF3702D269
:100B8800844500F2AB803A4642EA0142B1E7E443C9
:100B9800524263EB430364E7404261EB41014FF08B
:100BA800FF345BE79540C2F1200327FA03F1280CD4
:100BB80026FA03F39740B1FBF0F81F433B0C00FB08
:100BC80018111FFA85FC43EA01410CFB08F38B421C
:100BD80006FA02F608D9491908F1FF3279D28B4290
:100BE80077D9A8F102082944C91AB1FBF0F3BFB2BA
:100BF80000FB131147EA01470CFB03F2BA4207D97D
:100C08007F1903F1FF3160D2BA425ED9023B2F440B
:100C1800BF1A43EA084390E7C8F1200203FA08FC28
:100C280025FA02F343EA0C0C4FEA1C4921FA02F3B5
:100C380001FA08F720FA02F2B3FBF9F1174309FBAE
:100C480011333A0C1FFA8CFB42EA03430BFB01FAFF
:100C58009A4505FA08F008D913EB0C0301F1FF32A5
:100C680035D29A4533D902396344CAEB0303B3FB3F
:100C7800F9F209FB1233BFB247EA03470BFB02F94B
:100C8800B94508D917EB0C0702F1FF331BD2B94558
:100C980019D9023A674442EA0145A5FB0001C9EBAC
:100CA80007078F424FF000030AD305D02A4620E7F2
:100CB800624601E73B4614E706FA08F68642F5D293
:100CC8006A1E002315E71A46E5E70B46A0E711461A
:100CD800CBE7904688E7434642460AE7023A53E79D
:100CE80002392F443CE700BF2DE9F00F14460546B2
:100CF8000E46002B43D18A4253D9B2FA82F757B134
:100D0800C7F1200620FA06F601FA07F302FA07F4FB
:100D18001E4300FA07F5210CB6FBF1F22B0C01FB80
:100D28001267A0B243EA074600FB02F3B34209D9AF
:100D3800361902F1FF3780F0F680B34240F2F380B3
:100D4800023A2644F61AB6FBF1F3ADB201FB136181
:100D580045EA014100FB03F0884208D9091903F16B
:100D6800FF3680F0E280884240F2DF80023B43EAAF
:100D78000242002310461946BDE8F00F70478B4227
:100D88004AD8B3FA83F6002E4DD18B4202D3824261
:100D980000F2D6800023012210461946BDE8F00F64
:100DA800704712B90124B4FBF2F4B4FA84F2002AB1
:100DB8007CD1091B260CA7B20123B1FBF6F02A0C43
:100DC80006FB101142EA014107FB00F28A4207D9EB
:100DD800091900F1FF3C02D28A4200F2C380604642
:100DE800891AB1FBF6F2ADB206FB121145EA0145CC
:100DF80007FB02F7AF4208D92C1902F1FF3180F046
:100E08009680A74240F29380023A42EA0042104696
:100E18001946BDE8F00F704700231A4610461946D8
:100E2800BDE8F00F7047C6F1200522FA05F4B3407B
:100E38001C434FEA144821FA05F301FA06F720FA91
:100E480005F5B3FBF8FC2F4308FB1C333D0C1FFAD8
:100E580084FA45EA03430AFB0CF9994502FA06FBB2
:100E680004D91B190CF1FF326DD39446C9EB030367
:100E7800B3FBF8F508FB1533BFB247EA03470AFB93
:100E880005F8B84504D93F1905F1FF3361D31D466C
:100E980045EA0C4CACFB0B23C8EB07079F424FF00D
:100EA800000549D345D062462B4663E79440C2F11A
:100EB800200321FA03FC260C20FA03F301FA02F5B9
:100EC800BCFBF6F843EA05010B0C06FB18CCA7B2ED
:100ED80043EA0C4C07FB08F3634500FA02F509D90D
:100EE8001CEB040C08F1FF323AD2634538D9A8F15B
:100EF8000208A444C3EB0C0CBCFBF6F389B206FB56
:100F080013CC41EA0C4107FB03F28A4207D90919BD
:100F180003F1FF3022D28A4220D9023B2144891AA8
:100F280043EA084349E73A460CE733461FE70A46CF
:100F38006BE7B0409042B6D20CF1FF32002319E7BC
:100F48003346324616E799458FD9ACF1020C234453
:100F58008CE7B8459BD9023D274499E70346DEE76D
:100F68009046C7E7023821443AE700BF002100F065
:100F780004B80C4B5B58435004310B480B4B4218D8
:100F88009A42FFF4F6AF0A4A00F003B8002342F889
:100F9800043B084B9A42FFF4F9AF08F03BFE0AF015
:100FA8008FFE70478C0F020800000020F801002017
:100FB800F8010020B8210020FFF7FEBF80B483B0FD
:100FC80000AF0346FB71FB79074A9B0013445B782B
:100FD8001A46064B33F812309BB218460C37BD46FA
:100FE8005DF8047B704700BFD0120020C8120020B3
:100FF80080B59EB000AF7860002387F87630A748A8
:10100800002110221CF07DFB07F12003184617F081
:1010180057F809233B62032387F82430002387F815
:1010280027309E4B06221A709C4B97F876205A70F0
:101038009A4B0722DA70994B01229A7097F876300A
:10104800013387F876307B685B78002B15D03B6AD4
:1010580043F002033B62914B07221A738F4B97F8B8
:1010680076205A738D4B0722DA738C4B01229A73C0
:1010780097F87630013387F876307B681B78002B39
:1010880015D03B6A43F004033B62844B08221A7173
:10109800824B97F876205A71804B0722DA717F4B82
:1010A80001229A7197F87630013387F876307B4BB6
:1010B80009221A72794B97F876205A72774B0722D1
:1010C800DA72764B01229A7297F87630013387F8F4
:1010D80076304FF4D87017F0F7FA7148012117F0FD
:1010E8005BFB704819F0EAFA07F12803184619F073
:1010F800E1FB6D4BBB626D4BFB6200233B6397F8D2
:1011080076309BB2BB860023BB6397F87630012B01
:1011180001D9802300E00023FB634FF480733B6414
:101128004FF480637B642023BB644FF40053FB645B
:1011380000233B6507F128035A48194619F07AFB42
:101148005848012119F0E0FB07F1200358481946D7
:1011580016F01EFF4FF0A040012119F03FF90A20B8
:101168000EF0ECFC4FF0A040002119F00BF94FF005
:10117800A04019F0F7F800BF4FF0A04019F018F997
:101188000346002BF8D14FF0A040002119F026F9B2
:1011980007F10C03184619F0B1F80023FB604FF46F
:1011A80040333B614FF400437B610223BB61002362
:1011B8003B7707F10C034FF0A040194619F050F89F
:1011C80007F15403184619F029F84FF400537B65CA
:1011D8000023BB650023FB6500233B6600237B6679
:1011E8000023BB660023FB6697F8763087F87030DB
:1011F80007F154034FF0A040194618F0CFFF012320
:1012080087F87530002387F8773024E097F877302F
:10121800224A9B0013449B7883F00103DBB2002B26
:1012280000D013E097F877201C4B13F8221097F89A
:101238007520531C87F8753097F8773017489B004E
:101248000344DB784FF0A04019F0EAF897F87730BC
:10125800013387F8773097F87730032BD6D94FF0DA
:10126800A040012119F062F800BF4FF0A040012111
:1012780019F00AFA0346002BF7D04FF0A0400221DC
:1012880019F0ECF94FF0A040012119F0CBF94FF01B
:10129800A04019F0B7F97837BD4680BDD0120020BC
:1012A800010000100800024040000050C812002051
:1012B8000008004880B483B000AF78607A680C4BAF
:1012C8009A4207D10B4B1B889BB201339AB2094B48
:1012D8001A8006E0084B1B889BB201339AB2064B72
:1012E8001A80002318460C37BD465DF8047B70470A
:1012F80000540040FC010020FE01002080B58CB0A5
:1013080000AF78607A68654B9A425ED14FF48020CE
:10131800012117F041FA4FF40010012117F078FA73
:101328004FF48020012117F037FA102017F0F2F956
:101338005B480621042216F0F9FE594807210422C9
:1013480016F0F4FE07F12803184616F0B9FE07F167
:101358000C03184619F0FEFD022387F82C300323EE
:1013680087F82D30012387F82E30002387F82F3097
:101378004023BB6207F128034948194616F008FEC6
:101388008023BB6207F128034548194616F000FE82
:1013980007F10C03184619F0DDFD0023BB6100239B
:1013A8003B6100237B610023FB6100233B62002338
:1013B8007B623C4BFB6007F10C033848194619F077
:1013C80065FD3648012119F0E5FD7A68364B9A42E9
:1013D80061D14FF48020012117F0DEF94FF480002D
:1013E800012117F015FA4FF48400012117F0D4F900
:1013F8002E4817F08FF92E480621042216F096FE83
:101408004FF090400A21042216F090FE07F12803BD
:10141800184616F055FE07F10C03184619F09AFD08
:10142800022387F82C30032387F82D30012387F80F
:101438002E30002387F82F304023BB6207F12803A2
:101448001B48194616F0A4FD4FF48063BB6207F1F0
:1014580028034FF09040194616F09AFD07F10C0347
:10146800184619F077FD0023BB6100233B61002378
:101478007B610023FB6100233B6200237B62094BF5
:10148800FB6007F10C030848194619F0FFFC0648F1
:10149800012119F07FFD3037BD4680BD0054004062
:1014A800000400487A25E0000058004020000010A1
:1014B8000014004880B582B000AF0346FB710348B2
:1014C800FFF71CFF0837BD4680BD00BF0054004031
:1014D80080B400AF034B1B889BB21846BD465DF82D
:1014E800047B7047FC01002080B586B002AF13462C
:1014F8000246FA710A46BA717B715F4BFB605F4B1B
:101508004FF420421A6010E05C4B1B68591E5B4A7E
:101518001160002B09D1F868FFF7CCFE0346002BB9
:101528000CBF00230123DBB2A1E0F8684FF40041AF
:1015380019F094FD0346002BE6D1FB799BB24FF4DA
:1015480000520092F868194601224FF0807319F092
:101558003DFD4A4B4FF420421A6010E0474B1B6890
:10156800591E464A1160002B09D1F868FFF7A2FE00
:101578000346002B0CBF00230123DBB277E0F86899
:10158800022119F06BFD0346002BE7D0BB79F86800
:10159800194619F047FD394B4FF420421A6010E004
:1015A800364B1B68591E354A1160002B09D1F86863
:1015B800FFF780FE0346002B0CBF00230123DBB29C
:1015C80055E0F868802119F049FD0346002BE7D063
:1015D800FB799BB200220092F868194601224FF06D
:1015E800007319F0F3FC254B4FF420421A6010E009
:1015F800224B1B68591E214A1160002B09D1F8683B
:10160800FFF758FE0346002B0CBF00230123DBB273
:101618002DE0F868022119F021FD0346002BE7D0E0
:101628007B79F868194619F0FDFC144B4FF42042F9
:101638001A6010E0114B1B68591E104A1160002BEC
:1016480009D1F868FFF736FE0346002B0CBF0023CC
:101658000123DBB20BE0F868202119F0FFFC0346F8
:10166800002BE7D0F868202119F018FD012318464F
:101678001037BD4680BD00BF00540040F80100206F
:1016880080B586B002AF3B600346FB710B46BB7169
:1016980013467B71684BFB60684B4FF420421A601D
:1016A80010E0664B1B68591E644A1160002B09D173
:1016B800F868FFF7FFFD0346002B0CBF002301234A
:1016C800DBB2B5E0F8684FF4004119F0C7FC0346F7
:1016D800002BE6D1FB799BB24FF400520092F868D8
:1016E80019460122002319F071FC544B4FF4204293
:1016F8001A6010E0514B1B68591E504A1160002BAC
:1017080009D1F868FFF7D6FD0346002B0CBF00236C
:101718000123DBB28CE0F868022119F09FFC034634
:10172800002BE7D07B79012B03D9BB7963F07F03CA
:10173800BB71BB79F868194619F074FC3F4B4FF43C
:1017480020421A6010E03D4B1B68591E3B4A11604D
:10175800002B09D1F868FFF7ADFD0346002B0CBF3D
:1017680000230123DBB263E0F868402119F076FC1E
:101778000346002BE7D0FB799AB27B794FF41051DE
:101788000091F86811461A464FF0007319F01EFCD4
:1017980029E02A4B4FF420421A6010E0274B1B68BF
:1017A800591E264A1160002B09D1F868FFF782FDFF
:1017B8000346002B0CBF00230123DBB238E0F86896
:1017C800042119F04BFC0346002BE7D0F86819F008
:1017D80037FC03461A463B681A703B6801333B6086
:1017E8007B79013B7B717B79002BD2D1134B4FF472
:1017F80020421A6010E0114B1B68591E0F4A1160F5
:10180800002B09D1F868FFF755FD0346002B0CBFE4
:1018180000230123DBB20BE0F868202119F01EFC3D
:101828000346002BE7D0F868202119F037FC012384
:1018380018461037BD4680BD00540040F80100200E
:1018480080B483B000AF78607A68154B9A4207D1AC
:10185800144B1B889BB201339AB2124B1A8016E0C4
:101868007A68114B9A4207D1104B1B889BB20133FF
:101878009AB20E4B1A800AE00D4B1B889BB20133BB
:101888009AB20B4B1A800A4B1B889BB201E04FF0AF
:10189800FF3318460C37BD465DF8047B704700BF20
:1018A8000030014000020020003800400202002001
:1018B8000402002080B584B000AF78600B46FB704E
:1018C8004FF47A73FB810AE0FB895A1EFA81002BD8
:1018D80005D17868FFF7B4FF0346DBB225E07868E6
:1018E800022119F085FD0346002BEDD0FB787868BE
:1018F800194619F053FD4FF47A73FB810AE0FB890E
:101908005A1EFA81002B05D17868FFF799FF034624
:10191800DBB20AE07868012119F06AFD0346002B62
:10192800EDD0786819F050FD034618461037BD46CB
:1019380080BD00BF80B588B000AF786039600023F3
:10194800FB613BE0FB69012202FA03F37B613B6820
:101958001B881A467B691340002B2CD07B69FB60DF
:101968003B689B7803F00303DBB23B740123FB76EF
:101978003B68DB78022B06D0032B07D0012B08D15C
:101988000123FB7605E00223FB7602E00323FB76C6
:1019980000BFFB7E7B740023BB743B689B789B086D
:1019A800DBB203F00C03DBB2FB7407F10C037868BD
:1019B800194616F0EDFAFB690133FB61FB690F2B41
:1019C800C0D92037BD4680BD80B483B000AF7860F1
:1019D8000B467B807B687A881A850C37BD465DF894
:1019E800047B704790B587B000AF1C4B3C460FCBCB
:1019F80084E80F000223FB744FF40010012116F055
:101A0800CBFE4FF40010012116F0C6FE14484FF427
:101A18008851FFF7D9FF12484FF48841FFF7D4FFE8
:101A280000237B6112E07B69DB0007F11802134495
:101A380053F8182C39467B69DB000B4404331046F5
:101A48001946FFF777FF7B6901337B61FA7C7B6975
:101A58009A42E8D81C37BD4690BD00BF20DB01087C
:101A68000010004880B483B000AF03463960FB80A3
:101A7800FB8805493A689B000B44106818600C37CE
:101A8800BD465DF8047B70470802002080B483B02F
:101A980000AF03463960FB80FB883A6804499B0025
:101AA8000B44186810600C37BD465DF8047B70471E
:101AB8000802002080B584B000AF78600023FB8165
:101AC80007E0FB8918467968FFF7CCFFFB890133EB
:101AD800FB81FB891F2BF4D91037BD4680BD00BFA1
:101AE80080B500AF0548002140F22A321BF009FEFC
:101AF80000F094F800F04EF880BD00BFE01200201E
:101B080080B400AF064B1B78DBB2002B14BF002358
:101B18000123DBB21846BD465DF8047B704700BF61
:101B28000602002080B485B000AF78607B685B78DF
:101B38001A047B681B781B021A437B689B78134343
:101B4800BB601723FB7318E0104B1B885A1C91B21B
:101B58000E4A11801A4697F90F30012101FA03F352
:101B68001946BB680B40002B01D0112300E0092364
:101B780007498B54FB7B013BFB7397F90F30002B14
:101B8800E2DA1437BD465DF8047B7047880200200E
:101B9800E012002080B500AF04E01A4B1B685A1C05
:101BA800184B1A60184B1B78DBB2002BF5D1174B7A
:101BB80000221A80164B00221A8017E0144B1B884B
:101BC8001BB29A00134B1344184604F0B1FB0246AB
:101BD800114B1A60104B1B681846FFF7A3FF0C4BFC
:101BE8001B889BB201339AB2094B1A80084B1B8899
:101BF8001BB21F2BE2DD044B01221A7000F0D8F84B
:101C080080BD00BF8C020020060200208802002050
:101C18008A020020080200209002002080B598B0B7
:101C280000AF4FF48020012116F0B6FD4A48082184
:101C3800012216F07BFA4FF480737B63022387F846
:101C48003830012387F83B30032387F8393007F110
:101C580034034148194616F09BF94FF4003001212E
:101C680016F0B8FD3D4B1A683D4BA3FB02135B0D04
:101C78009BB2013BA7F85E301D237B65B7F85E3049
:101C8800A7F850300023A7F858300023A7F852309F
:101C980007F150033348194619F0C6FB6023FB636C
:101CA8000123A7F8403000237B640023A7F84830BD
:101CB80007F13C032B48194619F074FC2A480821FF
:101CC80019F07CFE2748012119F0B6FF01200121F7
:101CD80016F062FD254818F0F1FC254BBB60254B3A
:101CE800FB6010233B6140F22A33BB820023BB61B7
:101CF8008023FB614FF480733B6200237B620023E7
:101D0800BB624FF40053FB6200233B6307F10803F7
:101D18001648194618F08EFD12484FF4007101223A
:101D280019F0C6FF11480221012218F025FE0D23E3
:101D38003B7101237B710023BB710123FB713B1DA8
:101D4800184619F0CBF90C48FFF7B4FEFFF722FF4D
:101D58006037BD4680BD00BF000400480401002074
:101D6800819F5E160044014000040040300002409C
:101D780034440140E012002024F5010880B500AF8A
:101D88004FF4007018F016FE0346002B0AD0064BDD
:101D980000221A700548002118F0B6FD4FF40070B3
:101DA80018F032FE80BD00BF06020020300002405D
:101DB80080B500AF084840F22A3118F0C1FD074845
:101DC800002119F0C1FB0548012119F0CBFB02489D
:101DD800012118F099FD80BD300002400044014007
:101DE80080B588B000AF78600023FB610023BB6139
:101DF8007148002102221BF084FC7B685B7A002B6F
:101E080001D00223FB617B685B78002B02D0FB6961
:101E18000133FB61694BFA6953F822303B610023B7
:101E2800FB61BFE0FB695B003A6913441B88FB73E5
:101E3800FB695B003A6913441B881B0A9BB2FB755C
:101E4800FB695B003A6913441A884FF6FF739A429C
:101E580000D1ABE0FA7B13469B0013449B00584A21
:101E68001344BB607B689B79002B05D0BB681A685C
:101E7800544B9A4200D192E0FB7D022B08D17B683B
:101E88001B7883F00103DBB2002B01D00023FB7524
:101E9800FB7D012B08D17B685B7883F00103DBB203
:101EA800002B01D00023FB757B68DB79002B1BD04E
:101EB8007B685B7A83F00103DBB2002B14D07B686C
:101EC8005B79002B08D0FB7B042B02D0FB7B052B16
:101ED8000AD10423FB7507E0FB7B082B02D0FB7BB0
:101EE800092B01D10423FB757B681B7A002B0ED0CC
:101EF8007B685B7A83F00103DBB2002B07D0FB7BA6
:101F0800032B04D9FB7B072B01D80423FB75FB7D2E
:101F1800012B03D1B86800F0A1FC40E0FB7D022B47
:101F280009D1BB69DBB2B868194600F041FCBB694E
:101F38000133BB6133E0FB7D032B1ED17B685B89DA
:101F4800B3F5FA7F09D91C4B59787B685A897B68A5
:101F5800DB89B86800F0BEF908E0174B59787B6850
:101F68005A897B68DB89B86800F0DCF9124B5B782A
:101F78000133DAB2104B5A7011E0FB7D042B0ED1FD
:101F88000D4B19787B689A897B681B8AB86800F0C2
:101F9800F1F9094B1B780133DAB2074B1A70FB6968
:101FA8000133FB61FB690D2B7FF73CAF024B1846F1
:101FB8002037BD4680BD00BF94020020E8F101082B
:101FC80028F201080044014080B588B000AF78606D
:101FD80013460A46FA703B8007F10C03184619F0BD
:101FE800CBFC7023FB6001233B8200237B823B8870
:101FF8007B6102233B834FF48073BB83FB780C2BFC
:1020080048D801A252F823F0452000089D20000876
:102018009D2000089D2000085B2000089D200008E6
:102028009D2000089D200008712000089D200008C0
:102038009D2000089D2000088720000807F10C0358
:102048007868194619F0AEFA7868082119F0B6FCD4
:1020580020E007F10C037868194619F02FFB78681F
:10206800082119F0C7FC15E007F10C037868194638
:1020780019F0A4FB7868082119F0D8FC0AE007F1E8
:102088000C037868194619F017FC7868082119F0CC
:10209800E9FC00BF2037BD4680BD00BF80B586B0D3
:1020A80000AFF860B9601346FB71BB689BB2BB8296
:1020B800FB79BB750223FB7507F11403F868194611
:1020C800FFF738FC1837BD4680BD00BF80B586B025
:1020D80000AFF860F9723A81FB803F4B1B785A1CBD
:1020E800D1B23D4A11701A4613465B0013449B0057
:1020F8003A4A13447B61FB6819683A89FB7A0846B7
:1021080011461A4601F0CEF9FB685A68FB689B68CD
:10211800104619460222FFF7C1FFFB681968FB68E1
:102128001A7BFB88084611461A46FFF74DFFFB68E5
:102138009B7B002B05D0FB681B681846012119F012
:102148007BFDFB681B681846012119F00BFAFB6838
:102158001B7B0C2B38D801A252F823F099210008D8
:10216800D1210008D1210008D1210008A7210008A9
:10217800D1210008D1210008D1210008B52100088B
:10218800D1210008D1210008D1210008C32100086D
:10219800FB681B6803F134027B691A6014E0FB6872
:1021A8001B6803F138027B691A600DE0FB681B6845
:1021B80003F13C027B691A6006E0FB681B6803F1C7
:1021C80040027B691A6000BF7B693A899A807B6903
:1021D80018461837BD4680BD7803002098020020B5
:1021E80080B483B000AF02460B46FA71BB80FA791F
:1021F8000C4B53F822301A68BB88A3F57A73F87928
:10220800084951F82010898801FB03F3064981FB2E
:1022180003018911DB17CB1A13600C37BD465DF833
:10222800047B704728030020D34D621080B483B02C
:1022380000AF02460B46FA71BB80FA79054B53F89A
:1022480022301B68BA881A600C37BD465DF8047BDB
:10225800704700BF2803002080B582B000AF024657
:102268000B46FA71BB80FA790A4B53F82230002BDF
:102278000CD0FB790B2B09D8FA79064B53F822308E
:102288009B68F979BA880846114698470837BD46C9
:1022980080BD00BF2803002080B483B000AF024691
:1022A8000B46FA71BB80FA79094B53F82230002BA0
:1022B80009D0FB79072B06D8FA79054B53F8223059
:1022C8001B68BA881A600C37BD465DF8047B7047F6
:1022D8005803002090B587B000AFF860F9723A81D2
:1022E800FB800D4B7B61FC7A3B897A69B2FBF3F387
:1022F8009AB2FB88F8680821FFF7E8FE0246074B08
:1023080043F82420FA7A054B53F82230044A9A609D
:102318001C37BD4690BD00BF00127A00280300207C
:10232800E921000890B587B000AFF860F9723A81EA
:10233800FB800D4B7B61FC7A3B897A69B2FBF3F336
:102348009AB2FB88F8680121FFF7C0FE0246074BE6
:1023580043F82420FA7A054B53F82230044A9A604D
:102368001C37BD4690BD00BF40420F002803002027
:102378003522000890B585B000AFF860F9723A814F
:10238800FB80FC7A3B89084A92FBF3F39AB2FB88FC
:10239800F8680121FFF79AFE0246044B43F824200F
:1023A8001437BD4690BD00BF40420F0058030020BF
:1023B80080B400AF064B1A78064B1B789A420CBFC4
:1023C80000230123DBB21846BD465DF8047B704745
:1023D800740400207504002080B400AF034B1A7801
:1023E800034B1A70BD465DF8047B704774040020E7
:1023F8007504002080B483B000AF0346FB71044B22
:10240800FA791A700C37BD465DF8047B704700BF37
:102418007903002080B400AF114B00221A70104BD2
:1024280000225A600E4B00229A600D4B0022DA609F
:102438000B4B00221A640A4BFF2283F84420084BF6
:10244800FF2283F84520064B002283F84620044BE0
:10245800002283F84720BD465DF8047B704700BF23
:102468000C16002080B483B000AF78600B467B80E8
:10247800054B1A6C7B8813445A1C034B1A640C379F
:10248800BD465DF8047B70470C16002080B485B00B
:1024980000AF78600B467B80674B9A68664B5A6042
:1024A8007A88654B9A60644B9A68634B1B6C1A4434
:1024B800614B9A60604B9A685F4B5B68D21A5E4BBF
:1024C800DA605D4B9A685C4B5A605B4BDA6840F6A1
:1024D8008C239A4273D9584B1B781A46564B93F85B
:1024E80045305BB29A421CD1534B1B78032B18D949
:1024F800514B1B780C2B14D84F4B93F84630182BA4
:1025080008D84D4B93F846300133DAB24A4B83F87A
:1025180046200AE0484B1B78DAB2474B83F8442040
:1025280003E0454B002283F84620434B1B781A46AC
:10253800414B93F844305BB29A4232D13E4B93F808
:102548004730002B2DD00023FB600CE03A4BFA6893
:10255800043253F8223099B2384BFA6823F8121033
:10256800FB680133FB60344B93F844305AB2FB6884
:102578009A42EBDC304B93F844305BB2FB6007E0E7
:102588002E4BFA68002123F81210FB680133FB6018
:10259800FB680B2BF4DD2A4B1B780133DAB2284B8E
:1025A8001A70254B012283F84720234B1B78DAB297
:1025B800214B83F84520204B00221A7037E01E4B30
:1025C80093F84730002B32D01B4BDA6840F2EE23E9
:1025D8009A4219D9184BDA6840F6C9039A4213D8B7
:1025E800154B1B780B2B0FD8134B1B781A46124B25
:1025F800D968114B043243F822100F4B1B78013372
:10260800DAB20D4B1A7012E00B4B002283F8472008
:102618000023FB6008E0084BFA680432002143F805
:102628002210FB680133FB60FB680B2BF3DD1437CA
:10263800BD465DF8047B70470C1600205C04002042
:102648007404002080B485B000AF78600B467B80AE
:102658007B68FB60FB68143BBB60BB689B7A0133FB
:10266800DAB2BB689A72BB689B7A0A2B0DD9BB6831
:102678009B78002B06D1BB685B781A46054B002176
:1026880023F81210BB6800229A721437BD465DF811
:10269800047B70475C04002080B586B000AF78608A
:1026A8000B467B807B687B617B69103B3B613B69A8
:1026B800DB68FB603B699B78002B0FD13B697A880C
:1026C8009A803B6901229A70FB681A68FB681B7B39
:1026D80010461946022200F041F821E03B697A8849
:1026E800DA803B69DA883B699B88D31A9AB23B69DE
:1026F8001A813B695B781A463B6919890A4B23F8AA
:1027080012103B6900229A70FB681A68FB681B7BF1
:1027180010461946002200F021F83B6900229A72FF
:102728001837BD4680BD00BF5C04002080B586B068
:1027380000AFF860B9601346FB71BB689BB2BB82FF
:10274800FB79BB750223FB7507F11403F86819467A
:10275800FFF7F0F81837BD4680BD00BF80B586B0DA
:1027680000AF786013460A46FA703B8007F10C0305
:10277800184619F0E7F9FB789BB2BB813B88FB81CF
:1027880001233B8200237B82084B1B78012B02D15B
:102798000323BB8201E00023BB8207F10C037868A6
:1027A800194619F07BF91837BD4680BD790300201A
:1027B80080B584B000AF78600B46FB70FA7813469A
:1027C800DB009B1A9B00224A1344FB60FB68002233
:1027D8009A70FB6800229A72FB68FA785A70FB6854
:1027E80001221A70FB687A68DA607B6859687B682E
:1027F8009A687B68DB7B084611461A46FFF796FF06
:102808007B681A687B681B7B104619460022FFF715
:10281800A5FF78680021012200F072FEFB681033E2
:1028280018460C4900F08CFEFB68143318460A4918
:1028380000F094FEFB6803F11002FB68143378681B
:1028480011461A4600F0E8FE1037BD4680BD00BFAD
:102858007C030020A12600084D26000880B584B01E
:1028680000AF7860FFF7D6FD1C4BFB60FB680022C9
:102878001A70FB687A68DA607B6859687B689A68BE
:102888007B68DB7B084611461A46FFF74FFF7B68DB
:102898001A687B681B7B104619460022FFF75EFF0B
:1028A80078680021012200F02BFEFB6810331846DF
:1028B8000B4900F045FEFB6814331846094900F03F
:1028C8004DFEFB6803F11002FB681433786811466B
:1028D8001A4600F0A1FE1037BD4680BD7C030020DB
:1028E800952400086D24000880B483B000AF034627
:1028F800FB71FA79044B33F8123018460C37BD4691
:102908005DF8047B704700BF5C04002080B588B088
:1029180000AF78607B681B6D1846002119F0A6FB94
:102928007B689B68BB600023FB607B685B7903F076
:102938000403002B06D04FF400533B614FF480632F
:102948007B6103E000233B6100237B610023FB6183
:102958000023BB617B685B7903F00103002B03D084
:10296800BB6943F00403BB617B685B7903F0020336
:10297800002B03D0BB6943F00803BB617B681A6D69
:1029880007F108031046194619F0B6FA7B681B6D63
:102998001846012119F06AFB2037BD4680BD00BFEB
:1029A80080B590B000AFF860B9607A60FB70002322
:1029B800FB63FA68774B9A4206D1FB787868194628
:1029C80000F00AFAF8630CE0FA68734B9A4206D1F1
:1029D800FB787868194600F089FAF86301E0FB6B28
:1029E800D4E0FB6B012283F84420FB6B00221A62BF
:1029F800FB6B1A6AFB6BDA61FB6B00229A62FB6B5A
:102A08009A6AFB6B5A62FB6BBA68DA62FB6BFA78FC
:102A18005A71FB6B7A689A60FB6B00229A71F86BAB
:102A2800FFF774FFFB7803F00103002B54D0FB6B16
:102A38001B6B002B43D007F11003184617F03AFF21
:102A4800FB6BDB6C3B614FF480537B630023BB6300
:102A580000233B620023BB6280237B620023FB626E
:102A6800FB6BDB689BB2BB830023BB6120233B630A
:102A7800FB6B5B697B61FB6B1B6B184617F01EFEDB
:102A8800FB6B1A6B07F110031046194617F0D2FEBC
:102A9800FB6B1B6B1846012117F036FFFB6B1B6D98
:102AA80018464021012219F00FFBFB6B1B6B1846DF
:102AB80017F054FF03461A46FB6B1A640CE0FB6BD5
:102AC8001B6D1846354919F05FFBFB6B1B6D1846EB
:102AD8003249012219F016FBFB7803F00203002BA0
:102AE8004DD0FB6B5B6B002B42D007F110031846EF
:102AF80017F0E0FEFB6B9B6C3B614FF480537B63EC
:102B08000023BB6300233B620023BB6280237B62FC
:102B18000023FB62FB6B1B699BB2BB831023BB6169
:102B280000233B63FB6B5B6B184617F0C7FDFB6B21
:102B38005A6B07F110031046194617F07BFEFB6B22
:102B48005B6B18460221012217F016FFFB6B5B6BCB
:102B58001846002117F0F4FEFB6B5B6B00225A60ED
:102B6800FB6B1B6D18468021012219F0ADFA06E0B7
:102B7800FB6B1B6D18460A49012219F0C3FAFB6B5F
:102B88001B6D1846012119F071FAFB6B1846403786
:102B9800BD4680BD003801400044004005010500E5
:102BA8000701070080B584B000AF786039607B68A2
:102BB800FB60FB683A689A60F868FFF7A7FE103771
:102BC800BD4680BD80B584B000AF78600B46FB7011
:102BD8007B68FB60FB68FA785A71F868FFF796FE25
:102BE8001037BD4680BD00BF80B582B000AF7860A9
:102BF8007B685B6B7A6891697A68926A0A44DA60E2
:102C08007B685A6A7B689B6A9A420CD97B685B6BC3
:102C18007A68516A7A68926A8A1A5A607B685A6A2C
:102C28007B689A620AE07B685B6B7A6811697A68EC
:102C3800926A8A1A5A607B6800229A627B6800222C
:102C480083F844207B685B6B1846012117F05CFE13
:102C58000837BD4680BD00BF80B485B000AF78603E
:102C68007B68FB60FB681B6B002B10D0FB681B6B41
:102C78005B68DAB2FB681B6CDBB2D31ADAB2FB68AA
:102C88001B69DBB2013BDBB21340DBB20EE0FB6831
:102C9800DB69DAB2FB681B6ADBB2D31ADAB2FB680B
:102CA8001B69DBB2013BDBB21340DBB218461437B9
:102CB800BD465DF8047B704780B485B000AF78608E
:102CC8007B68FB60FB685B6B002B03D0FB6893F8A9
:102CD800443008E0FB689A6AFB685B6A9A4214BF52
:102CE80000230123DBB218461437BD465DF8047B88
:102CF800704700BF80B485B000AF78607B68BB6068
:102D0800BB681B6B002B17D0BB685A69BB68D968B6
:102D1800BB681B6CCB1A13441B78FB73BB681B6C1A
:102D28005A1EBB681A64BB681B6C002B17D1BB68A2
:102D3800DA68BB681A6412E0BB685A69BB681B6A28
:102D480013441B78FB73BB681B6A0133BA68D268EB
:102D5800B3FBF2F102FB01F29A1ABB681A62FB7B21
:102D680018461437BD465DF8047B704780B584B0BB
:102D780000AF78600B46FB707B68FB60FB689A6964
:102D8800FB685B6A1344FA781A70FB685B6A013364
:102D9800FA681269B3FBF2F102FB01F29A1AFB68B6
:102DA8005A62FB685B6B002B0AD0FB685B6B1B6885
:102DB80003F00103002B0AD1F868FFF715FF06E0BE
:102DC800FB681B6D18460349012219F09BF910375F
:102DD800BD4680BD0701070080B586B000AF7860AA
:102DE8000B46FB703A4B7B617B693A4A1A607B69F8
:102DF8007A689A607B69384A5A617B69374A9A616E
:102E08007B69C022DA607B69C0221A617B69344A17
:102E18001A637B69334A5A637B69334A1A657B694B
:102E28001B6D24331A467B69DA647B691B6D283372
:102E38001A467B699A644FF48040012115F0CAFC58
:102E48000120012115F0A8FC02233B7303237B73A7
:102E58000023BB730123FB73FB7803F00203002BF1
:102E68000FD04FF40073BB604FF090400921072248
:102E780015F05CF907F108034FF09040194615F07A
:102E880087F8FB7803F00103002B0FD04FF4806321
:102E9800BB604FF090400A21072215F047F907F16F
:102EA80008034FF09040194615F072F80E233B7452
:102EB80001237B740023BB740123FB7407F1100307
:102EC800184618F00BF97B6918461837BD4680BDBF
:102ED80078040020F8F1010820050020E005002012
:102EE80058000240440002400038014080B586B0D6
:102EF80000AF78600B46FB702C4B7B617B692C4ADA
:102F08001A607B697A689A607B69C022DA607B699B
:102F1800C0221A617B69274A5A617B69264A9A61ED
:102F28007B69264A1A654FF40030012115F070FCC0
:102F380002233B7303237B730023BB730123FB73BF
:102F4800FB7803F00203002B0CD02023BB601C4845
:102F58000521072215F0EAF807F108031848194671
:102F680015F016F8FB7803F00103002B0CD0402372
:102F7800BB6013480621072215F0D8F807F10803AB
:102F88000F48194615F004F826233B7401237B7477
:102F98000023BB740123FB7407F11003184618F0D3
:102FA8009DF87B6918461837BD4680BDCC040020C3
:102FB800F8F10108A0060020600700200044004046
:102FC800000C004880B582B000AF78607B685B6B0E
:102FD8001846002117F098FC7B685A6A7B689B6A40
:102FE8009A4203D07868FFF7FFFD03E07B6801226F
:102FF80083F844200837BD4680BD00BF80B582B045
:1030080000AF084B7B604FF4005017F017FD0648DF
:10301800002117F079FC7868FFF7D4FF0837BD4620
:1030280080BD00BF780400204400024080B582B013
:1030380000AF084B7B604FF0007017F0FFFC0648AC
:10304800002117F061FC7868FFF7BCFF0837BD4620
:1030580080BD00BFCC0400208000024080B584B051
:1030680000AF78607B681B6DDB69FB607B681B6B5E
:10307800002B28D1FB6803F02003002B23D07B68AA
:10308800DB6A002B08D07B68DB6A7A68126D928C49
:1030980092B21046984716E07B685A697B68DB69EC
:1030A80013447A68126D928C92B2D2B21A707B680D
:1030B800DB6901337A68D268B3FBF2F102FB01F2F3
:1030C8009A1A7B68DA617B685B6B002B2BD1FB68F3
:1030D80003F08003002B26D07B689A6A7B685B6AC2
:1030E8009A4219D07B681A6D7B6899697B689B6ADC
:1030F8000B441B78DBB21046194618F0D3FF7B68E7
:103108009B6A01337A681269B3FBF2F102FB01F2A0
:103118009A1A7B689A6206E07B681B6D1846094913
:10312800002218F0EFFFFB6803F00803002B05D01E
:103138007B681B6D1846044919F026F81037BD4600
:1031480080BD00BF070107000003030080B582B0FF
:1031580000AF044B7B607868FFF780FF0837BD46F7
:1031680080BD00BF7804002080B582B000AF044B5A
:103178007B607868FFF772FF0837BD4680BD00BFE7
:10318800CC04002080B483B000AF786039600C377D
:10319800BD465DF8047B704780B483B000AF7860AB
:1031A8000B46FB700C37BD465DF8047B704700BFCB
:1031B80080B483B000AF7860012318460C37BD4651
:1031C8005DF8047B704700BF80B483B000AF7860BF
:1031D800044B1B68DBB218460C37BD465DF8047B10
:1031E800704700BFBC17002080B584B000AF78607E
:1031F8000023FB600EE007F10802FB681A44FB6835
:10320800C3F101031046194600F0E8FC0346FA68CA
:103218001344FB60FB68002BEDD03B7A184610374F
:10322800BD4680BD80B584B000AF78600B46FB70AA
:103238000CF04AFCF86000F02BFD0346002B04D08C
:1032480000F016FD0346002B00D10FE0FB1C1846CA
:10325800012100F091FCB860BB68002B06D10CF08E
:1032680033FC0246FB68D31A312BEFD91037BD4621
:1032780080BD00BF80B582B000AF00F065FB00F0F4
:10328800C5FB00F0E9FB16F0E1FA054B7B607B68B3
:10329800044A1A607B6818460837BD4680BD00BFDF
:1032A8002008002010F2010880B584B000AF7860D3
:1032B8007B689B88BB817B681B7BBB730223FB738A
:1032C8007B681B681846012115F066FA7B689A68C6
:1032D80007F10C0310461946FEF72CFB1037BD46C4
:1032E80080BD00BF80B400AF034B044ADA60BD461E
:1032F8005DF8047B704700BF00ED00E00400FA05AC
:1033080080B500AF024B034A1A60FFF7EBFF80BDA0
:10331800FC9F0020EFBEADDE80B582B000AF4FF459
:10332800FC00012115F038FA0323BB7141F6FF7345
:10333800BB803B1D4FF090401946FEF7FBFA4FF655
:10334800FF73BB803B1D0D481946FEF7F3FA3B1D82
:103358000B481946FEF7EEFA3B1D0A481946FEF7D8
:10336800E9FA3B1D08481946FEF7E4FA3B1D0748F1
:103378001946FEF7DFFA0837BD4680BD000400484D
:1033880000080048000C00480010004800140048DD
:1033980080B485B000AF78607B681B78FB60FB6801
:1033A80083F311881437BD465DF8047B704700BF6E
:1033B80080B485B000AF0346FB71FB79FB60FB6806
:1033C80083F31288012318461437BD465DF8047B41
:1033D800704700BF80B483B000AF78607B689B0AF9
:1033E800174A934216D0164A934209D8154A93426F
:1033F80014D0154A934213D0B3F5801F0CD017E0B0
:10340800124A934210D0124A93420FD0114A934263
:1034180008D00DE000230CE001230AE0022308E0B5
:10342800032306E0042304E0052302E0062300E06A
:10343800FF2318460C37BD465DF8047B704700BF74
:103448004B00100001001000020010005100100095
:10345800520010004D00100080B483B000AF034646
:10346800FB80FB889B089BB2DBB218460C37BD4635
:103478005DF8047B704700BF80B584B000AF034699
:10348800FB71FB793B7301237B730023BB7301231F
:10349800FB7307F10C03184617F020FE1037BD46E2
:1034A80080BD00BF80B586B000AF786013460A467D
:1034B8007A807B7007F10C03184618F02BF87B888C
:1034C800013B3B610C4B1A687B780C4901FB03F309
:1034D800B2FBF3F39BB2013B9BB2BB810023BB82DF
:1034E8000023FB8107F10C037868194617F09CFF4D
:1034F8001837BD4680BD00BF0401002040420F00C0
:1035080080B582B000AF786013460A467A807B7037
:103518007B6819687A887B78084611461A46FFF74F
:10352800C1FF7B681B681846012118F01BF87B68EF
:103538005B7B1846FFF7A0FF0837BD4680BD00BF7C
:1035480080B483B000AF786039607B683A681A60ED
:103558000C37BD465DF8047B704700BF80B483B06C
:1035680000AF786039607B683A681A607B6800222F
:103578005A600C37BD465DF8047B704780B588B04B
:1035880000AF786039607B682033FB61EFF312830A
:103598003B613B69DBB2FB735020FFF709FF034631
:1035A800FB7622E000237B6117E07B687A690432AE
:1035B80053F82230002B0DD07B687A69043253F817
:1035C8002220FB691A607B687A69043253F822303A
:1035D8000433FB617B6901337B617B69032BE4DD89
:1035E800FB6900221A600023FB76FB7E002BD9D1F1
:1035F80007F10F031846FFF7CBFE7B681B6A002B09
:103608000CBF00230123DBB2386801211A4618F0E9
:103618002FFB2037BD4680BD80B586B000AFF8606F
:10362800B9607A60FB681B681846FFF7D3FE03464B
:10363800FB75FB7D062B00D94CE0FB681B7B18460D
:10364800FFF70AFF0346BB75BB68002B0ED1FB686A
:103658001A68FB681B7B9B08DBB2022101FA03F3A3
:103668009BB210461946002218F002FBFA7DB87D7D
:103678001A491346DB0013440344BA6841F823206F
:10368800FA7DB87D15491346DB001344034404331F
:103698007A6841F82320BB68002B0ED0FB681A68B3
:1036A800FB681B7B9B08DBB2022101FA03F39BB288
:1036B80010461946012218F0DBFAFA7D1346DB00A2
:1036C80013449B00054A1A44FB681B6810461946B8
:1036D800FFF754FF1837BD4680BD00BF6C160020A9
:1036E80080B588B000AF786039607B681A697B68FC
:1036F800DB681340FB6167E0FB69B3FA83F37B6126
:103708007B694FF0004222FA03F3DB433B617B689D
:103718003A691A61FA693B691340FB617B691B3B93
:10372800042B51D801A252F823F000BFB937000882
:10373800A1370008893700087137000849370008A1
:103748007B68DB6AFB813B681B6ABB6108E0BB697D
:103758001B68FA89B86911469847BB695B68BB6101
:10376800BB69002BF3D12FE03B681B681B683A68E4
:1037780011687A68526B92B208461146984723E05E
:103788003B685B681B683A6851687A68926B92B2CA
:1037980008461146984717E03B689B681B683A68DB
:1037A80091687A68D26B92B20846114698470BE046
:1037B8003B68DB681B683A68D1687A68126C92B219
:1037C80008461146984700BFFB69002B94D1203763
:1037D800BD4680BD80B500AF02480349FFF780FFB2
:1037E80080BD00BF002C01406C16002080B500AFE2
:1037F80004480549FFF774FF04480549FFF770FFBF
:1038080080BD00BF002C01406C1600200044014020
:103818002017002080B500AF4FF080400149FFF726
:103828005FFF80BD9016002080B500AF02480349B5
:10383800FFF756FF80BD00BF00040040B41600200B
:1038480080B500AF02480349FFF74AFF80BD00BFBB
:1038580000080040D816002080B500AF0248034990
:10386800FFF73EFF80BD00BF00340140FC1600207A
:1038780080B500AF02480349FFF732FF80BD00BFA3
:10388800004801404417002080B584B000AF2748A5
:103898000021FC2219F035FF0720012114F0B8FFA0
:1038A8004FF4C520012114F095FF4FF4F0100121C9
:1038B80014F072FF0023FB7316E0FA7B13469B009B
:1038C80013449B001A4A13443B603B6859683B68A1
:1038D8001B7C1A463B685B7C084611461A4614F066
:1038E80025FCFB7B0133FB73FB7B0D2BE5D9002308
:1038F800BB6007E00F4ABB68134400221A70BB681C
:103908000133BB60BB680D2BF4DD00237B6007E04F
:10391800094A7B681344FF221A707B6801337B6075
:103928007B68062BF4DD1037BD4680BD6C16002081
:1039380028F20108541600206416002080B400AF55
:10394800BD465DF8047B704780B582B000AF0120AA
:10395800012114F03FFF4FF40030012114F01CFF47
:103968004FF480533B6003237B7101233B71012398
:10397800BB710023FB713B464FF09040194614F091
:1039880007FB4FF090404FF4805114F0C1FBC82062
:103998000CF0D4F84FF090404FF4805114F0AAFB8B
:1039A8004FF40030012114F0F7FE4FF4C0533B6090
:1039B80003237B7102233B710023BB710023FB713E
:1039C8003B464FF09040194614F0E2FA4FF0904011
:1039D8000B210E2214F0AAFB4FF090400C210E226E
:1039E80014F0A4FB122017F03DF9074B12221A60BD
:1039F800054B08225A71044B01229A71024817F0AC
:103A080037F80837BD4680BD7417002080B500AF71
:103A1800002014F0B3FE4FF40000012114F0F8FE6A
:103A280080BD00BF80B582B000AF094B7B607B686A
:103A38009B7A002B03D0074B05221A6002E0054B46
:103A480001221A6006F0E6F80837BD4680BD00BFBF
:103A5800882100205408002080B582B000AF4FF4C0
:103A6800A06017F029FB14233B7102237B7100230C
:103A7800BB710123FB713B1D184617F02FFB2A234E
:103A88003B7101237B710023BB713B1D184617F066
:103A980025FB0837BD4680BD80B483B000AF034620
:103AA800FB710C37BD465DF8047B704780B584B068
:103AB80000AF0E4B1B68FB600D4B1B68BB600D4BCA
:103AC8001B687B60FA687B681344FB60FB68002B0B
:103AD80009D0F8680849082200F012F8B8680749C0
:103AE800042200F00DF81037BD4680BDACF7FF1F6B
:103AF800B0F7FF1FB4F7FF1F0200002012000020DC
:103B080080B487B000AFF860B9601346FB7100233A
:103B1800FB750023FB7525E0FB681B0F092B0AD8F2
:103B2800FB7D5B00BA681344FA68120FD2B23032D8
:103B3800D2B21A7009E0FB7D5B00BA681344FA68D8
:103B4800120FD2B23732D2B21A70FB681B01FB6077
:103B5800FB7D5B000133BA68134400221A70FB7DB9
:103B68000133FB75FA7DFB799A42D5D31C37BD46E4
:103B78005DF8047B704700BF80B582B000AF786005
:103B88000B46FB70144B1B68002B01D000231EE072
:103B9800FB78202B01D92023FB70FB78002B15D054
:103BA800FB789BB27868C0211A4615F0F3FFFB78C2
:103BB8009BB20120194616F043FAFA78064B1B68A7
:103BC8001A44054B1A60012016F0EEF8FB781846E7
:103BD8000837BD4680BD00BF7017002080B584B08F
:103BE80000AF786039601F4B1B683A689A4202D967
:103BF8001C4B1B683B600023FB730CE0FB7B7A6863
:103C08001344F97B184A12780A4418498A5C1A70D6
:103C1800FB7B0133FB73FA7B3B689A42EED3114B73
:103C28001A683B68D21A0F4B1A603B68DAB20E4B1F
:103C38001B781344DAB20C4B1A700A4B1B68002B22
:103C48000BD10320402116F017FA03204FF44051FE
:103C580016F074F8044B00221A703B6818461037A7
:103C6800BD4680BDBC170020500800207C170020EE
:103C780080B400AF054B1B68052B14BF002301233C
:103C8800DBB21846BD465DF8047B70475408002037
:103C980080B400AF054B1B68002B0CBF0023012329
:103CA800DBB21846BD465DF8047B70475408002017
:103CB80080B400AFBD465DF8047B704780B400AFA8
:103CC800FEE700BF80B400AFFEE700BF80B400AFDE
:103CD800FEE700BF80B400AFBD465DF8047B7047C7
:103CE80080B400AFBD465DF8047B704780B400AF78
:103CF800BD465DF8047B704780B500AF00F02CF836
:103D080080BD00BF80B500AF122016F0ABFF80BDAC
:103D180080B400AF034B00221A60BD465DF8047BF7
:103D2800704700BF7017002080B500AF032016F061
:103D3800E5F903461A46064B1A60054B1B689BB209
:103D480004484FF488711A4615F05EFF80BD00BF25
:103D5800BC1700207C17002080B500AF2B4B1B68D8
:103D68009AB22B4B1A802A4B1B889BB203F4007221
:103D7800284B1B881340002B0AD0244B4FF6FF52C8
:103D88001A60254B1B78DBB20133DAB2224B1A706A
:103D98001F4B1B889BB203F400421E4B1B88134029
:103DA800002B01D015F072FD194B1B889BB203F450
:103DB8008062184B1B881340002B06D0134B4FF61C
:103DC800FF321A60154B5B689847114B1B889BB2F2
:103DD80003F400520F4B1B881340002B03D00B4BEE
:103DE8004DF6FF721A600A4B1B889BB203F480528F
:103DF800084B1B881340002B06D0044B4EF6FF726D
:103E08001A60002000F000FA80BD00BF445C00404A
:103E1800C0170020AC2100205108002060000020BD
:103E280080B500AFFFF742FE054B1B6800229A726F
:103E380000F0AAF916F098F9024B00221A6080BD2A
:103E4800A82100205408002080B500AF364B1B681D
:103E580000229A72344B1B68344AD2795A72324B18
:103E68001B680022DA72002015F0FCFE00204FF4D7
:103E7800007115F009FF0020102115F029FF00201E
:103E8800402116F085F80020802116F061F8002006
:103E980015F0DAFF264B93F82C300020194616F05F
:103EA800EBF8002015F0A8FF0120002115F0ECFE2A
:103EB8000120C02116F04CF80120202115F008FF40
:103EC8000120002115F03AFF02204FF4C06115F0DF
:103ED800DBFE02204FF4807116F03AF80220002130
:103EE80015F02CFF0220202115F0F2FE03200021FE
:103EF80015F0CAFE03204FF4887116F049F8032024
:103F0800402116F0B9F803204FF4405115F016FF80
:103F18000320002115F0DCFE002015F053FC054BB2
:103F280001221A6080BD00BFA821002054F30108B7
:103F3800600000205408002080B483B000AF074B15
:103F48007B607B689B7A002B02D0054B05221A60A8
:103F58000C37BD465DF8047B704700BF8821002000
:103F68005408002080B400AF034B04221A60BD46F9
:103F78005DF8047B704700BF5408002080B400AF90
:103F8800054B1B78202B02D1034B00221A70BD462B
:103F98005DF8047B704700BF5208002080B400AF72
:103FA800BD465DF8047B704780B584B000AF03461A
:103FB800FB710023FB60FB79212B09D1164B1B6891
:103FC8001B7803F07F03212B11D1144BFB600EE00B
:103FD800FB79202B0BD1104B1B681B7803F07F0358
:103FE800212B01D10E4BFB600E4B20221A70FB686F
:103FF800002B01D102230BE0074B1B68FA689A617A
:10400800054B1B6800225A82FB6800209847002352
:1040180018461037BD4680BDA82100202941000858
:104028005D4100085208002080B483B000AF034609
:10403800FB710C4B1B681B7803F07F03212B09D104
:10404800FB79022B01D1002305E0FB79222B01D15A
:10405800002300E0022318460C37BD465DF8047BB8
:10406800704700BFA821002080B582B000AF03468A
:10407800FB80FB881846044914F006FF03461846DF
:104088000837BD4680BD00BFB400002080B582B0AF
:1040980000AF0346FB80FB881846044914F0F4FE81
:1040A800034618460837BD4680BD00BFBC00002047
:1040B80080B584B000AF0346FB800B4B1B68DB78F0
:1040C800FB73FB7B042B01D9002309E0FB7BDA009F
:1040D800064B1344FA881046194614F0D5FE0346D9
:1040E80018461037BD4680BDA8210020C400002016
:1040F80080B483B000AF02460B46FA71BB71BB793E
:10410800002B01D0022305E0FB79012B01D9022302
:1041180000E0002318460C37BD465DF8047B704765
:1041280080B483B000AF0346FB80FB88002B05D129
:10413800064B1B6808221A82002300E0044B18462D
:104148000C37BD465DF8047B704700BFA8210020EE
:104158005400002080B483B000AF0346FB80FB8886
:10416800002B05D1064B1B6808221A82002300E0A9
:10417800044B18460C37BD465DF8047B704700BFFA
:10418800A82100205400002080B582B000AF012093
:10419800FFF782FC0123FB800C4BFA881A600C4B5A
:1041A80000221A80094B0A4A12881A60094B002219
:1041B8001A60074B4FF4E0521A80044B044A1288E5
:1041C8001A60002318460837BD4680BD405C004091
:1041D800AC210020445C004080B582B000AF094BA0
:1041E8001B68FB80FB8823F00403FB80054BFA88DF
:1041F8001A60FFF717FC034B4FF436421A60083772
:10420800BD4680BD405C004080B584B000AF034629
:10421800FB71FB79072B02D03E4BFA791A703D4BA4
:104228001B78DBB2052B6DD801A252F823F000BF32
:10423800514200086D4200087F4200088D42000884
:10424800AF420008D1420008334B1B68002B05D150
:10425800FFF7C2FF2F4B06221A7057E02D4B05229D
:104268001A7053E0FFF7B8FF2A4B04221A702A4B42
:1042780001221A604AE0274B02225A70254B03227A
:104288001A7043E0234B5B78DBB2013BDAB2214B77
:104298005A70204B5B78DBB2002B03D11D4B0422F4
:1042A8001A7033E032E01D4B1B68FB81FB8943F039
:1042B8001003FB81194BFA891A60164B05221A70F4
:1042C800144B0A225A7021E0124B5B78DBB2013B97
:1042D800DAB2104B5A700F4B5B78DBB2002B10D15F
:1042E8000E4B1B68FB81FB8923F01003FB810B4BF2
:1042F800FA891A60074B06221A70074B00221A60C7
:1043080004E003E0034B06221A7000BF1037BD46D5
:1043180080BD00BFC417002058080020405C004042
:1043280080B58AB000AF78604FF48050012114F056
:1043380051FA4FF40030012114F02EFA4FF090405A
:104348000521052213F0F2FE4FF0904006210522C8
:1043580013F0ECFE4FF090400721052213F0E6FE23
:10436800E0233B62022387F82430032387F82530B3
:10437800002387F82630002387F8273007F1200329
:104388004FF09040194613F003FE4FF4001001213E
:1043980014F002FA08233B62012387F82430032330
:1043A80087F82530002387F82630002387F8273040
:1043B80007F120031848194613F0EAFD16480821AA
:1043C80013F098FE154816F0E9FE0023BB814FF460
:1043D8008273FB814FF4E0633B8200237B820023DE
:1043E800BB824FF40073FB8208233B8300237B834B
:1043F8000723BB8307F10C030848194616F008FF8A
:1044080006484FF4805116F0ADFF0448012116F01C
:1044180089FF2837BD4680BD0010004800300140A4
:1044280080B500AF1E48FFF77BFF1E48082113F038
:104438006FFE1B482421FDF73DFA19488021FDF73E
:1044480039FA1848082113F055FE64200BF062FB76
:104458001448082113F05CFE11482021FDF72AFAC0
:104468000F48AF21FDF726FA0E48082113F042FE47
:1044780001200BF04FFB0B48082113F049FE0848B8
:104488002321FDF717FA06486021FDF713FA0548BE
:10449800082113F02FFE64200BF050FB80BD00BFF5
:1044A800003001400010004890B585B000AF78603A
:1044B8001E48082113F02CFE1D48E821FDF7FAF9E3
:1044C8000023FB730EE0FC7B19480021FDF7F2F98D
:1044D80003461A4607F11003234403F8082CFB7B14
:1044E8000133FB73FB7B052BEDD91048082113F032
:1044F80001FE3B7A1B029AB27B7A13439AB27B681D
:104508001A807B680233BA7A120291B2FA7A0A43A5
:1045180092B21A807B6804333A7B120291B27A7B9A
:104528000A4392B21A801437BD4690BD0010004865
:104538000030014080B483B000AF78600B467B80C8
:104548007B68074A1A607B68064A5A607B68064A95
:10455800DA60012318460C37BD465DF8047B7047C6
:1045680029440008B1440008295C8F3D80B500AF9C
:10457800322024218022FCF7B7FF64200BF0DEFAFA
:10458800322020219722FCF7AFFF0A200BF0D6FA41
:10459800322023211022FCF7A7FF64200BF0CEFA6B
:1045A800024B4FF480521A8080BD00BF5801002092
:1045B80080B584B000AF786007F108033220282165
:1045C8000622FDF75DF80346FB73FB7B83F00103CE
:1045D800DBB2002B28D17B7A1B029AB23B7A1343B9
:1045E8009BB21BB2DA0F13445B109AB27B681A8035
:1045F8007B689A1CFB7A1B0299B2BB7A0B439BB26D
:104608001BB2D90F0B445B109BB213807B681A1D39
:104618007B7B1B0299B23B7B0B439BB21BB2D90F2E
:104628000B445B109BB213801037BD4680BD00BFA2
:1046380080B584B000AF786007F10E0332202721DF
:104648000122FDF71DF80346FB73FB7B83F0010392
:10465800DBB2002B01D0002306E07B68044A1A6015
:104668007B68044A5A60012318461037BD4680BD4E
:1046780075450008B945000880B400AF054B1B78A4
:10468800002B14BF00230123DBB21846BD465DF89A
:10469800047B7047B508002080B400AF0D4B1B7831
:1046A800002B0CBF00230123DBB283F00103DBB234
:1046B80003F00103DAB2074B1A70074B4FF0000200
:1046C8001A60054B1A68054B1A60BD465DF8047BF5
:1046D800704700BFAE080020C4080020C0080020B2
:1046E80080B400AF044B1B78044AD25C044B1A70A8
:1046F800BD465DF8047B7047B4080020F8F3010854
:10470800AD08002080B400AF074B1B78002B03D006
:10471800064B074A1A6002E0044B064A1A60BD4677
:104728005DF8047B704700BFAE080020B808002081
:104738000000A0410000A0C180B58AB000AF0346C8
:10474800B96087ED010AFB73B14B1B78012B03D0CD
:10475800AF4B1B78022B04D1AE4B1B78FA7B9A42E5
:1047680002D0D7ED017AE0E1AB4B1B78022B02D1E6
:10477800D7ED017AD9E1A94B00221A80FFF7B0FFE3
:10478800A74B1B78002B0FD0FA7BBB6833F812308D
:104798001BB207EE903AB8EEE77AF2EE047AC7EE6B
:1047A800277AC7ED097A17E09E4BD3ED007AF1EE30
:1047B800677A9C4BC3ED007AFA7BBB6833F81230FA
:1047C8001BB25B4207EE903AB8EEE77AF2EE047A53
:1047D800C7EE277AC7ED097A97ED097AF2EE047ADF
:1047E80067EE277AFDEEE77A17EE903A9AB28B4B8E
:1047F8005A808C4B93ED007AF2EE047A67EE277AB2
:10480800FDEEE77A17EE903A9AB2844B9A80864B7F
:10481800D3ED007AF5EE407AF1EE10FA74D1834BBD
:10482800D3ED007A97ED097AB4EEE77AF1EE10FA53
:1048380015DD7E4B7A6A1A607A4B1A687C4B1A60CF
:104848007A4B93ED007AF2EE047A67EE277AFDEE62
:10485800E77A17EE903A9AB2704BDA8046E1734BDA
:10486800D3ED007AF5EEC07AF1EE10FA00DC3DE106
:10487800704B1B78002B3CD16A4BD3ED007A97ED37
:10488800097A37EE677AF7EE007AB4EEE77AF1EE56
:1048980010FA0AD5684B93ED017ADFED687A67EE76
:1048A800277A654BC3ED017A16E0634B93ED017AE5
:1048B800DFED637A67EE277A5F4BC3ED017A5E4BD3
:1048C80093ED017ADFED5F7AB4EEE77AF1EE10FA54
:1048D80002D5594B5C4A5A60564B01221A705B4B01
:1048E8001A685B4B1B78134400229A72FFF7D4FEB8
:1048F800FCE04D4B7A6A1A600BF0E6F8034603F1C8
:10490800FA02544B1A60F1E0474BD3ED007A97ED69
:10491800097AB4EEE77AF1EE10FA10D5424B7A6ACA
:104928001A60414B93ED007AF2EE047A67EE277A2B
:10493800FDEEE77A17EE903A9AB2384BDA803B4BA5
:1049480093ED007A384BD3ED007A77EE677AC7EDAE
:10495800087A0BF0B9F8F8613E4B1B68FA69D31A6C
:10496800BB61BB69DB43DB0FFB75FB7D002B14D1FF
:1049780097ED087AF7EE007AB4EEE77AF1EE10FADE
:1049880040F3B480284BD3ED007A97ED097AB4EE62
:10499800E77AF1EE10FA40F3A980244B93ED007A00
:1049A800234BD3ED007AB4EEE77AF1EE10FA17DD77
:1049B8001A4B01221A80204B93ED007ADFED207A02
:1049C80067EE277A1C4BC3ED007A1B4B93ED027AF6
:1049D800DFED1A7A67EE277A174BC3ED027A45E0C6
:1049E8000E4B02221A8097ED087AF0EE007AB4EEA8
:1049F800E77AF1EE10FA2FDD0F4B93ED027ADFED37
:104A0800107A67EE277A0C4BC3ED027A2EE000BFCE
:104A1800B5080020B4080020AC0800200C200020B5
:104A2800AE080020B8080020C4080020C0080020F4
:104A3800BC080020AF080020C80800200AD7833F20
:104A4800EC51783F6F12833A6F12833A5C0800206A
:104A5800AD080020B0080020364B93ED007ADFED5A
:104A6800367A67EE277A334BC3ED007A334B1A68F0
:104A7800334B1B782F4991ED007AF2EE047A67EEFA
:104A8800277AFCEEE77A17EE901AC9B2D1542B4B6D
:104A980019682B4B1B78274AD2ED027AFCEEE77A8D
:104AA80017EE902AD2B20B441A75FFF7F5FD254B85
:104AB8001B780133DAB2234B1A70224B1B78032B75
:104AC80014D1204B00221A701C4B19681C4B1B7800
:104AD800184A92ED017ADFED1C7A67EE277AFCEE30
:104AE800E77A17EE902AD2B20B449A72FB7B002B1E
:104AF80007D1164B1B889BB264339BB29AB2134BF7
:104B08001A80FFF7FFFD124B93ED007AFA7BBB6822
:104B180033F812301BB207EE903AF8EEE76AF2EE7D
:104B2800047AC6EEA77A77EE677AB0EE670A283776
:104B3800BD4680BDC80800200AD7833F5C08002016
:104B4800AD080020AF08002000007A440C200020A7
:104B5800B808002080B400AF064B4FF000021A607E
:104B6800054B00221A70054B01221A70BD465DF8EC
:104B7800047B7047B8080020B5080020E400002036
:104B880080B582B000AF7860034879684C2218F08D
:104B9800AFFD0837BD4680BD6008002080B582B0F3
:104BA80000AF7860786803494C2218F0A1FD0837F7
:104BB800BD4680BD6008002080B582B000AF786037
:104BC8000B46FB70414B1A78414B1A70404B1B78CF
:104BD800032B03D17868FFF7E1FF73E03C4B1B78A8
:104BE800012B02D17868FFF7CBFF394B1B78012BDB
:104BF80002D1384B00221A70354B1B78022B02D198
:104C0800344B01221A70344B01221A70334B0122A3
:104C18001A70334B4FF000021A60314B1A68314B4F
:104C28001A60314B7A681A60304BFA781A70FFF7BD
:104C380057FDFFF767FD2C4B1A682D4B1B78D35C8B
:104C480007EE903AB8EEE77AF2EE047AC7EE277AE2
:104C5800284BC3ED007A244B1A68254B1B78134464
:104C68009B7A07EE903AB8EEE77ADFED237AC7EE43
:104C7800277A204BC3ED017A1B4B1A681C4B1B7813
:104C880013441B7D07EE903AB8EEE77ADFED1B7A06
:104C980067EE277A174BC3ED027A134B1968144B4A
:104CA8001B78144AD2ED027AFCEEE77A17EE902AC6
:104CB800D2B20B441A750C4B1A680D4B1B7813446F
:104CC80000229A720837BD4680BD00BFE40000206C
:104CD800B5080020B4080020AE080020AF08002066
:104CE800C4080020C00800205C080020AC08002090
:104CF800AD080020C808002000007A445555553FEB
:104D080080B400AF2E4B1B78012B03D02C4B1B78A3
:104D1800022B40D12B4B19682B4B1B782B4A92ED59
:104D2800017ADFED2B7A67EE277AFCEEE77A17EE49
:104D3800902AD2B20B449A72224B1968224B1B78E4
:104D4800224A92ED027ADFED237A67EE277AFCEEAB
:104D5800E77A17EE902AD2B20B441A75194B1B68E2
:104D6800184A1268127807EE102AF8EEC77A77EE1A
:104D7800A77AFCEEE77A17EE902AD2B29A70114B16
:104D88001B68104A1268927A1A730E4B1B680D4AF8
:104D98001268127D9A750A4B1B78032B06D1084BB3
:104DA80000221A700C4B01221A7005E00A4B1B787E
:104DB8000133DAB2084B1A70BD465DF8047B7047C0
:104DC800B50800205C080020AD080020C8080020B5
:104DD80000007A449A99993FE400002080B400AF1B
:104DE800074BD3ED007AF5EE407AF1EE10FA0CBFDE
:104DF80000230123DBB21846BD465DF8047B7047EB
:104E0800B808002080B483B000AF7860034B7A689C
:104E18001A600C37BD465DF8047B7047E408002033
:104E280080B582B000AF786039607868FFF7EAFF34
:104E3800386800F037FB0837BD4680BD80B483B0C2
:104E480000AF786039607B6807EE903AB8EEE77A91
:104E58003B68D3ED007A67EE277AFDEEE77A17EE26
:104E6800903A18460C37BD465DF8047B704700BF82
:104E780080B584B000AFF860B9607A603B607B6849
:104E880093ED007AFB6807EE903AF8EEE76A3B6824
:104E9800D3ED017A66EEA76ABB68D3ED007A66EEB9
:104EA800A77A77EE277A7B68C3ED007A7B68D3ED23
:104EB800007AFDEEE77A17EE901A3B68D3ED037A95
:104EC800F1EE677AFDEEE77A17EE902A3B68D3EDAC
:104ED800037AFDEEE77A17EE903A084611461A462D
:104EE80005F0C0FE034607EE103AF8EEC77A7B6875
:104EF800C3ED007A7B68D3ED007AFDEEE77A17EE12
:104F0800903A18461037BD4680BD00BF80B487B0C0
:104F180000AFF860B9607A603B607B685B68FA68EC
:104F2800D31A07EE903AB8EEE77ABB68D3ED007A69
:104F3800C7EE277A7B68C3ED047A244B1B689B78FD
:104F480007EE903AB8EE677ADFED217A67EE277AB6
:104F5800B7EE007AC7EE277AC7ED057A7B6893ED3E
:104F6800027ABB68D3ED006ABB6893ED006AD7ED9F
:104F7800057A76EE277AC6EEA76A7B6893ED046A0F
:104F88007B68D3ED027A76EE677A66EEA77A77EEDB
:104F9800277A7B68C3ED047A7B68FA685A607B6875
:104FA8001A697B689A603B6893ED027A7B68D3ED57
:104FB800047A67EE277AFDEEE77A17EE903A1846FC
:104FC8001C37BD465DF8047B704700BFE40800202D
:104FD800DB0FC94080B483B000AF78607B684FF0C6
:104FE80000021A607B6800225A607B684FF000025A
:104FF8009A600C37BD465DF8047B704790B587B062
:1050080002AFAA4B1B7803F00203002B00F0BF810C
:10501800A74B1B78042B40F2BA81A64B1B7803F0F0
:105028000403002B06D1A14B1B7823F00103DAB24D
:105038009E4B1A709D4B1B7803F00103002B07D180
:105048009C4B1B7803F00403002B01D000F0B0F94F
:10505800994B1B78591C994B83FB01235A10CB178A
:10506800D21A13469B001344CA1AD2B2924B1A7032
:105078000023FB609EE0924BFA6853F82210914B94
:10508800FA6843F822108F4BFA6853F822308E4A98
:1050980082FB03129215DB17D11A8C4BFA6843F87E
:1050A8002210884BFA6853F82220884BF96853F885
:1050B8002130874901FB03F31344864A82FB03121C
:1050C8001213DB17D31A99B2834BFA6823F812101C
:1050D800824BFA6853F82210774B1B781C4680489D
:1050E800FA6813469B001344234450F82330C91A26
:1050F8007A4BFA6843F822106F4B1B781C46714BA9
:10510800FA6853F82220714BF96853F82130704936
:1051180001FB03F3D0187249FA6813469B00134445
:10512800234441F823006D4BFA6853F82210624B70
:105138001B781C466A48FA6813469B0013442344AC
:1051480050F823301944654BFA6843F82210634B32
:10515800FA6853F82230594A82FB03125210DB17BF
:10516800D21A5A4BF96853F821305E4901FB03F310
:10517800D1185D4BFA6843F822105C4B1B78012B61
:1051880015D1554BFA6833F81230012B0FD9524B11
:10519800FA6833F8122040F2E6339A4207D8524BA5
:1051A800FA6853F82210464BFA6843F82210FB6855
:1051B8000133FB60FB68012B7FF75DAF0AF084FCCD
:1051C80002464B4B1B68D31A07EE903AB8EE677A43
:1051D800DFED487AC7EE277A474BC3ED007A0AF02D
:1051E80073FC0246424B1A60434B93ED007AF7EE8C
:1051F800007AB4EEE77AF1EE10FA02D53E4B1B685E
:1052080001E04FF07E533C4A13603B1D00933B4640
:1052180001932B4839493A4A3A4B00F073FA7A68B5
:10522800394BA3FB02135B099AB2384B1A803B68CF
:10523800354A82FB03125211DB17D31A9AB2344B48
:105248001A801A4B1B7803F00103002B05D12F4B52
:1052580000221A802E4B00221A8000F0C3FA2D4B30
:105268001B8803F02003002B06D12A4B1B8803F070
:105278001003002B00F08B80274B0093274B0193E2
:105288000F481E49264A274B00F03CFA2448254976
:105298000B4A1A4B00F024FB144B1B78012B02D04D
:1052A800022B41D073E000F047FB70E0310C002086
:1052B8005C180020300C0020BE0900206766666676
:1052C80044180020F00900206BCA5F6B000A002018
:1052D800806967FFAD8BDB68080A0020E8090020B9
:1052E800C009002080969800F8090020E0080020F6
:1052F800140A002000007A44900900204818002071
:10530800F4170020F81700201F85EB51F017002034
:10531800FC170020320C0020B8090020AC0900203E
:10532800A4090020A80900201A4B1B681B891846ED
:10533800012100F021FD03467B817B89184600F09E
:10534800BDFB144B1B681B79002B0AD0124B1B6842
:10535800124A82FB03125211DB17D31A9AB2104B6E
:105368001A800C4B1B681B881A460E4B1B689A4206
:1053780004D200F0A5F90346002B07D00A4B0122FE
:105388001A700A4B1A88064B1A80FFE700BF1437B9
:10539800BD4690BDE40800200C0A00201F85EB5193
:1053A80030200020B8090020E0080020100A002062
:1053B80080B500AF114B1B7803F00203002B1BD004
:1053C8000F4B1B78042B17D90E4B1A680E4B1A601B
:1053D8000C4B5A680C4B5A600A4B1B68184600F075
:1053E800E7F80A4B1A880A4B1A80044B1B7843F0DB
:1053F8000103DAB2014B1A7080BD00BF310C0020E6
:105408005C18002044180020F417002048200020D1
:10541800100A002080B582B000AF00237B602FE027
:105428001A4B7A68002123F81210194B7A68002168
:1054380023F81210174B7A68002123F812107A68A3
:1054480013469B0013449B00134A13441846FFF766
:10545800C1FD7A6813469B0013449B000F4A13440E
:105468001846FFF7B7FD7A6813469B0013449B0064
:105478000B4A13441846FFF7ADFD7B6801337B6088
:105488007B68012BCCDD0837BD4680BDD4080020E1
:10549800DC080020D8080020180900204009002056
:1054A8006809002080B483B000AF78607B681B79FE
:1054B80007EE903AB8EE677ADFED377AC7EE277ACB
:1054C800364BC3ED007A7B689B7B07EE903AB8EECB
:1054D800677ADFED317AC7EE277A304BC3ED017A70
:1054E8002E4B2F4ADA607B685B7907EE903AB8EE6C
:1054F800677AF2EE047AC7EE277A2A4BC3ED007A70
:105508007B68DB7B07EE903AB8EE677ADFED227AAC
:10551800C7EE277A234BC3ED017A7B685B7E07EEE3
:10552800903AB8EE677ADFED207AC7EE277A1D4BFE
:10553800C3ED027A1B4B1A4ADA607B689B7907EE47
:10554800903AB8EE677AF2EE047AC7EE277A174BEC
:10555800C3ED007A7B681B7C07EE903AB8EE677A59
:10556800DFED0D7AC7EE277A104BC3ED017A7B6821
:105578009B7E07EE903AB8EE677ADFED0B7AC7EEBE
:10558800277A0A4BC3ED027A084B054ADA600C37D2
:10559800BD465DF8047B70470000C842E80800205B
:1055A8000000FA44F808002000007A4408090020A6
:1055B80080B584B000AF78607B6807EE103AF8EEEB
:1055C800C77AF5EEC07AF1EE10FA0DDD7B6807EECA
:1055D800903AB8EEE77ADFED137A87EE277ADFEDB7
:1055E800127A67EE277A0EE07B6807EE103AF8EE3B
:1055F800C77AB1EE677ADFED0B7A87EE277ADFEDAF
:105608000A7A67EE277AC7ED037A97ED030A16F050
:10561800D5FDF0EE407A054BC3ED007A1037BD4654
:1056280080BD00BF8096184B35FA8E3CE8000020FC
:1056380080B584B002AF786039607B681A68164B11
:105648001A603B681A68144B5A607B681B681846D6
:10565800FFF7AEFF114B0093114B0193114812490C
:105668000D4A124B00F04EF80D4B1A68104B1A6099
:1056780009480E490B4A0C4B00F032F9084B1A68DE
:105688000C4B1A600C4B1B68DB889AB20B4B1A80C8
:105698000837BD4680BD00BFA4090020B809002016
:1056A800AC0900204418002048180020A809002050
:1056B8000C0A0020B0090020E4080020BC090020E2
:1056C80080B582B000AF0D4B1A680D4B1B68D31A1A
:1056D8007B60786800F0A0FB78607B6883EAE372FF
:1056E800A2EBE37242F210739A42D4BF0023012363
:1056F800DBB218460837BD4680BD00BFAC090020A4
:10570800B009002080B586B000AFF860B9607A6053
:105718003B607B681A68FB681B68D31A07EE103A6F
:10572800F8EEC77AC7ED057A3B681A68BB681B684C
:10573800D31A07EE903AB8EEE77A264BD3ED007A03
:1057480067EE277AC7ED047A97ED057AD7ED057AE3
:1057580027EE277AD7ED046AD7ED047A66EEA77AA2
:1057680077EE277AB0EE670A16F04CFEB0EE407A74
:10577800DFED197A67EE277AFCEEE77A17EE902AC2
:105788003B6A1A60D7ED057AF1EE677AB0EE670AE0
:10579800D7ED040A16F034FEB0EE407ADFED0F7A4A
:1057A80027EE277ADFED0E7A77EE277AFDEEE77A95
:1057B80017EE902A7B6A1A607B6A1B68002B06DA50
:1057C8007B6A1B6803F50C43A0337A6A13601837A9
:1057D800BD4680BDE80000202C7D8E3FA00CB3455F
:1057E80000A00C4680B483B000AF364B1B78002B6A
:1057F80057D0354BD3ED007AB7EE007AC7EE277A4B
:10580800C7ED017A314B5A68314B5B68D31A07EE02
:10581800903AB8EEE77A2F4BD3ED007A27EE277A45
:10582800D7ED017A67EE277AFDEEE77A17EE903A20
:105838009AB2294B5A80254B1A68254B1B68D31AF4
:1058480007EE903AB8EEE77AD7ED017A67EE277A55
:10585800FDEEE77A17EE903A9AB21F4B1A801E4B6C
:105868005B881AB21D4B5B881BB21344DA0F1344D2
:105878005B109AB2184B5A80174B1B881AB2174BF9
:105888001B881BB21344DA0F13445B109AB2124BF5
:105898001A80114B5A88114B5A800F4B1A880F4B9C
:1058A8001A80084B01221A70084B5A68084B5A6034
:1058B800064B1A68064B1A600C37BD465DF8047B28
:1058C800704700BF180A00209009002044180020E3
:1058D8001C0A0020E800002094090020240A002067
:1058E80080B485B000AFF860B9607A603B60BB688F
:1058F8001A683B681B68D31A07EE903AB8EEE77A45
:105908000B4BD3ED007A67EE277AFDEEE77A17EEB8
:10591800902A084B5A60FB681A687B681B68D21A81
:10592800044B1A601437BD465DF8047B704700BF0E
:10593800E80000209C09002090B585B000AF002346
:10594800BB609DE0524BBA6853F822301846514963
:10595800FFF774FA78607B689AB24F4BB96833F8EE
:1059680011309BB2D31A9BB299B24C4BBA6823F848
:1059780012104A4BBA6833F812301BB2184648491D
:10598800FFF75CFA03469CB2444BBA6833F812300E
:105998001AB23F4BB96853F82130D118BA68134688
:1059A8009B0013449B003F4A134408463E491A464D
:1059B8003B4BFFF75DFA03469BB223449BB299B277
:1059C8003A4BBA6823F81210314BBA6853F82210D0
:1059D800BA6813469B0013449B00324A1344084696
:1059E80031491A462E4BFFF791FAF860F8683049AA
:1059F8004FF4FA6205F036F9F860274BBA6833F8C5
:105A080012301BB213F1310F08DB234BBA6833F89D
:105A180012301BB2312B01DC0023FB60234BBA6828
:105A280033F812309AB2FB689BB213449BB299B216
:105A38001E4BBA6823F812101C4BBA6833F81230A0
:105A48001BB218461B4940F6B83205F00BF903465D
:105A580099B2164BBA6823F812101249BA6813465D
:105A68009B0013449B000B4419681348BA681346FB
:105A78009B0013449B0003441960BB680133BB605F
:105A8800BB68012B7FF75EAF1437BD4690BD00BFE2
:105A98009C090020E80800209409002098090020AB
:105AA800F80800204009002090090020D8080020AC
:105AB80030F8FFFF48F4FFFF6809002090B587B071
:105AC80000AF0346FB8000F0D3F85E4B1B68C3F5BC
