:020000040800F2
:1000000000A0002049100108BD100108610001088E
:10001000BD100108BD100108BD100108000000005E
:10002000000000000000000000000000BD100108FA
:10003000BD10010800000000BD10010841000108CA
:10004000BD100108BD100108BD100108BD10010858
:10005000BD100108BD100108BD10010865FD0008B4
:10006000BD100108BD100108BD100108BD10010838
:1000700061FE0008BD10010815FE0008BD10010852
:10008000BD100108BD100108BD100108BD10010818
:10009000BD100108BD100108BD10010861FD000878
:1000A00079FD0008B9FD000869FD0008E1FD0008C0
:1000B000A9FD000899FD000889FD0008BD10010890
:1000C000BD100108BD100108BD100108BD100108D8
:1000D000BD10010809FE0008FDFD0008F1FD000843
:1000E00051000108BD100108BD100108BD10010834
:1000F000BD100108BD100108BD100108BD100108A8
:10010000000000000000000000000000BD10010819
:10011000BD100108BD100108BD100108BD10010887
:10012000BD100108BD100108BD100108BD10010877
:10013000BD100108BD100108000000000000000013
:10014000BD100108BD100108BD100108000000002D
:10015000000000000000000000000000000000009F
:100160000000000000000000BD100108BD100108E3
:10017000BD100108000000000000000000000000A9
:0801800000000000BD100108A1
:100188002DE9F04F2DED068B674E684B3360ADB00F
:100198000023736007F004FE18B907F0DBF907F0D5
:1001A80023FE08F083FC624B624C1A7842F001028D
:1001B8001A70614A4FF47001C2F888100022089240
:1001C8000992226842F480322260236803F40033E3
:1001D8000993089B01330893099B1BB9089BB3F546
:1001E800A04FF2D1236813F4003318BF01230993F9
:1001F800099B012B6FD0504D504BEB60636ADFF8C1
:10020800708143F080736362636943F4FC03636144
:100218002CA903238DF8623041F6FF7321F8503D75
:100228004FF09040059107F032F84FF6FF734046C3
:100238000599ADF8603007F02AF84148059907F0AC
:1002480026F84048059907F022F83F48059907F035
:100258001EF805993D4807F01AF8059806F046FE7D
:10026800189B3B4AB3FBF2F3B3603A4B3A4A002778
:100278001F603A4B5A60F02285F82320384D9F6062
:1002880095E8030007221A60059A636982E803006B
:1002980043F4802363610823C8F8183019A9189813
:1002A80006F0F5FF642003F064F92E4839464FF450
:1002B8008C7213F0D2F9E36943F00703E361A36991
:1002C80043F4E123A361636943F4C0236361264BCC
:1002D80003F5AA704EE0254B12221A60636863602A
:1002E80063686360636843F480636360636823F4EE
:1002F8007C136360636843F4E8136360236843F026
:100308008073236022680B4B9201FBD55A6822F058
:1003180003025A605A6842F002025A60636803F0A6
:100328000C03082BFAD166E708010020AD37000856
:100338001C2D00200010024000ED00E00005FA0529
:1003480000080048000C004800100048001400484D
:1003580040420F00182D00203F19010010E000E076
:10036800BC5C0108F42A0020107C0108002002402F
:10037800000400481A7B5F7B53F8145B02F0070106
:10038800D20805EB82028900156A4FF00F0E8F40E4
:100398000EFA01F125EA01011162156A834247EA62
:1003A80005011162E6D10022B549002353540132F8
:1003B800112AF9D1B34D05F11D02FF2199540133DA
:1003C800072BF7D1B04BB14F1F6005F12400002176
:1003D800242213F042F9AE4BAE491A7885F824204E
:1003E800A7F59C775A789B7885F83C30AA4B97F804
:1003F800058083F8008007F1100385F83020AB648E
:1004080001EBC802A54BBD68527A1A60994615F0EF
:10041800200F1CBF0123C9F800300023A04A40F276
:10042800DC5199520233102BF8D112A80021162260
:1004380013F013F9B8F10E0F02D0B8F1080F02D17A
:1004480001238DF85830C5F340038DF84D30C5F3BE
:1004580080138DF84F30C5F340338DF84830C5F31D
:10046800C0338DF84B3015F4006307D097F80E3180
:10047800B3F1010EDEF1000353EB0E038DF84C309F
:10048800C5F300438DF85030D9F80030003318BF59
:1004980001238DF85130834B1B6893F8A631C3F3C1
:1004A80080038DF85230B7F8D630ADF85630B7F82B
:1004B800E230ADF854304FF47A70C5F3804305F05C
:1004C8000101C5F3C0028DF84E30ADF85C00B7F8F5
:1004D800E0308DF84910E8048DF84A20ADF85A301C
:1004E80004D57148B0F8DC00ADF85C00B3F5FA7FCC
:1004F80084BF0023ADF85C306C4897F8243186F847
:100508004C30002386F84D3043709DF85830002B4E
:1005180014BF0223002301B902B101335D4A02EB83
:1005280083034FF00009D3F8C8300693CB460699E9
:1005380031F809304FF6FF72934200F06281DAB267
:100548005B4F9DF850104FF0140808FB02F81B0A87
:1005580007EB080569B157F808105648814200F0C2
:100568004A816968B1F1904F03D1297C082900F0CC
:1005780042819DF84D1039B16968B1F1904F03D1AE
:10058800A968102900F037819DF84B1039B16968C6
:100598004948814203D1A968042900F02C819DF8BB
:1005A8004C1039B16968B1F1904F03D1A96820297D
:1005B80000F02181022B02D19DF8481003E0012BA5
:1005C80004D19DF84910002900F015819DF85110BB
:1005D80061B19DF8581049B9A2F10E01012905D859
:1005E80057F808103548814208BF04239DF8521077
:1005F80031B19DF8581019B9043A032A40F2E48041
:10060800012B63D1FF234FF0000A86F8943086F857
:100618009530AB68EA7B6868ADF86030059986F874
:1006280098A00223C6F8A4508DF863308DF8622094
:1006380086F850A0C6F854A0C6F858A0C6F85CA022
:10064800C6F890A086F896A086F897A006F01FFE38
:10065800297B57F80800524606F08AFA284607F020
:10066800B9F9174B1749C6F8A830174BC6F8AC307C
:10067800C6F8B0A028460A1D08F0D4FEBBE000BFAB
:100688001401002008010020B41A002004080020EA
:1006980065000020BC5C0108541400207C14002074
:1006A80056140020B8110020CC0600205501002067
:1006B8000C7C0108002C0140000400480040014067
:1006C800F9310008B0010020FD320008022B3FD1AB
:1006D80080498DF863305FFA8BF21C20424301EBAE
:1006E800020A4FF0000C01208AF802C08AF80AC0FA
:1006F8008AF801B08854A968EA7B6868CAF80C507F
:10070800ADF8601005998DF86220CDF810C006F09C
:10071800BEFDDDF810C0297B57F80800624606F0D8
:1007280027FA284607F056F96B4BCAF81030DDF85F
:1007380010C06A4BCAF81430CAF818C028460AF123
:1007480010010AF1140208F06DFE0BF1010B52E0E2
:10075800032B37D19DF84E30614F33B197F84E8057
:10076800284608214FF6FF721CE0BDF85A3097F86A
:100778004E80B3F5FA7F0FD95A4AB2FBF3F22846F6
:10078800BDF85C30082192B207F050F907EB8803F6
:10079800C3F87801544B0EE0544AB2FBF3F22846F2
:1007A800012192B2BDF85C3007F040F907EB8803ED
:1007B800C3F878014E4BC36097F84E30013387F881
:1007C8004E3018E0042B16D1BDF85430474A96F83D
:1007D8004D7092FBF3F22846BDF85630012192B2D3
:1007E80007F024F996F84D3006EB87070133C7F870
:1007F800A80186F84D3009F10209B9F1220F7FF4FA
:1008080096AE3C4B96F84D201A703B4B1F78172F2D
:100818001CD10025B36C2B44D3ED007AF5EE407A59
:10082800F1EE10FA04D1354B9B68D9042BD426E09D
:10083800334A05EB020E0FCB8EE80F00314B1A78C6
:1008480010350132C02D1A70E4D1ECE72E4A02EBC4
:10085800C7032C4AD3F80CC093F808E082F800E0EC
:10086800BCF1000FDFD000257545DCDA244E2B01E2
:100878001E4463440FCB013586E80F00F4E7082FC8
:10088800224B20D121E01F4B19780129F7D9204BA1
:1008980000228A4203F11003F1DA13ED047AF6EE2E
:1008A800007A27EE277A013203ED047A13ED057AF0
:1008B80027EE277A03ED057A13ED037A67EE277A98
:1008C80043ED037AE5E70E2F24D11A7842F010029F
:1008D80023E000BFA001002091B90008D53200082C
:1008E8000801002000127A001D33000840420F0062
:1008F8000D3300088014002054140020CC0600207A
:1009080078130020432D0020BC5C01080E10002045
:10091800801300201A7822F010021A700BF0CCFF16
:10092800B849B9480B78B94DDFF8FC92DFF818B32D
:1009380043F004030B704FF40043ADF86030636973
:1009480005994FF00208012743F400238DF86270DF
:100958008DF86380636106F09AFCAD4BAD4A1A606E
:10096800002002F010FE0FF001F8AB4B05991D6056
:10097800636943F480236361E36943F40013E3612B
:10098800236B23F010032363236B43F010032363CB
:10099800D9F8203023F07063C9F82030D9F8203016
:1009A80043F08063C9F82030D9F8203023F0704331
:1009B800C9F82030D9F8203043F08043C9F82030F6
:1009C8000026402348464FF0030A18938DF86660C6
:1009D8008DF867608DF864808DF865A006F018FCC6
:1009E800802348460599189306F012FC2B6823F0DB
:1009F80001032B602A68894B13402B60884B2B61BD
:100A08002B683B432B60AE60EE60AE60AB6843F48E
:100A18000043AB602B682B606B6823F0784323F4AA
:100A280000436B602B683B432B607E4B9D680293B1
:100A380005F4004205F400614FF010090692079191
:100A48004A465846314612F008FE4FF6FF72029B9E
:100A58000D9215EA08028DF839808DF83A608DF804
:100A68003B608DF838A01D4610D02CA94FF090405F
:100A780041F87C9D06F0CCFB07238BF800708BF8BF
:100A880001608BF803308BF8027000E01746079B73
:100A9800A3B12CA9202341F87C3D4FF0904006F0EB
:100AA800B7FB02238BF80C3007238BF80F30012398
:100AB8008BF80D701F448BF80E30FFB2069B9BB16C
:100AC8002CA9042341F87C3D574806F0A1FB0C23D0
:100AD8008BF8043007238BF8073001238BF8057057
:100AE8001F448BF80630FFB2E36A504823F4F873CA
:100AF800E362E36A43F4D873E362636943F08053C3
:100B080043F00203636106F07AF90598474C06F052
:100B18004BF9474B1893474B1993022F4FF000039B
:100B280034BF1A4680221D924FF480721E924FF4F1
:100B380080621F9220222046209205991A934FF432
:100B480000521C9321922293ADF86C7006F039F98B
:100B5800236843F001032360374CA36823F0405314
:100B6800A360A36843F08053A3600A2002F001FD4C
:100B7800A36823F08043A360A368A360A36843F03D
:100B88000043A360A2682C4B002AFBDB9A682B4920
:100B980022F040529A609A6842F000529A6088683F
:100BA800274A024042F468328A60D968254A0A40D6
:100BB80042F40052DA601A6B013F22F00F02174329
:100BC8001F63002001230BEB00029178002900F03D
:100BD80090805C1C042BD6781BF80010164AE4B2EF
:100BE80034D81BB203EB4303176B5B004FF01F0EA7
:100BF8000EFA03FE27EA0E0701FA03F33B431363D9
:100C080054E000BF1C2D002000080048005400409C
:100C1800202D0020053000085C1D0020FFE0CF00DB
:100C28007A25E000CC0600200004004808040240B1
:100C380040010050BC190020000100500003005082
:100C4800E010FCFF07C0FFFDAC190020092B10D8ED
:100C58004FF0060E053B0EFB03F3576B4FF01F0ECC
:100C68000EFA03FE27EA0E0701FA03F33B43536328
:100C78001CE00E2B4FF006070CD80A3B5F43D2F856
:100C880038E01F23BB402EEA030301FA07F71F438E
:100C980097630BE00F3B7B43D2F83CE01F279F4054
:100CA8002EEA070701FA03F33B43D3630929BA4B3A
:100CB8000FD90A399A699F6901EB410107228A40D5
:100CC80027EA02029A619A6906FA01F111439961C9
:100CD80010E001395A695F6901EB410138228A4005
:100CE80027EA02025A615A6903318E4016435E614F
:100CF80000E01C460430102801D0234663E7A64BC9
:100D08009A6842F001029A6019460A68A24BD20713
:100D1800FBD5DA6822F00202DA60DA6842F00202F1
:100D2800DA60DA6842F00102DA609A6842F0040296
:100D38009A60B5F8E820994B002A40F09587B3F9F6
:100D4800EA1031B9B3F9EC30D3F1010338BF00230D
:100D580000E0134613F001036BD19149DFED917A5E
:100D68000B7012B208EE902AB5F9EA10B5F9EC202A
:100D7800F8EEE88A08EE101A0AEE902A68EEA78ABA
:100D8800B8EEC88AF8EEEAAAB0EE680A28EE278A12
:100D98006AEEA7AA12F0DCFEB0EE409AB0EE680A3E
:100DA80012F05CFFF0EE409AB0EE480A12F0D0FE66
:100DB800F0EE408AB0EE480A12F050FFB0EE408ADA
:100DC800B0EE6A0A12F0C4FEB0EE40AAB0EE6A0AAB
:100DD80012F044FF20EE097A69EE8A7AF0EE475A5B
:100DE800E7EE885A704B2AEE096A69EE806AC3ED0D
:100DF800755AF0EE465AE6EEC85AE7EE087AE6EE7D
:100E0800486A2AEE28AA28EEC00A69EEE89A68EE2F
:100E1800898A83ED72AA83ED730A83ED748AC3ED20
:100E2800765AC3ED779AC3ED786AC3ED797AC3ED44
:100E38007A8AAB689B0322D5C82002F09AFBAE20C1
:100E48000CF084F808B10DF04CFB574C84F8EC0119
:100E5800C82002F08EFB554BC4F8F03100210C225B
:100E680004F5FA7012F0F9FB022384F8F7310DF05B
:100E7800A7FB02F059FB4E4B0344C4F8FC314D4B21
:100E8800DFF85C811A684C4CB2F852200592DFF802
:100E980054A1B5F8F06095F8EFB095F8F790C4F85C
:100EA80000A0002288F8002002930EF00BFF5246A3
:100EB8000746002800F0FD86404B4149196041492A
:100EC8005960BB2E4049D960404B01D901210EE041
:100ED800612E01D902210AE0292E01D9032106E059
:100EE800132E01D9042102E0092E0ED9052119700B
:100EF80037483849042388F8003002230B70036808
:100F080043F001030360DA460FE00621EFE74FF0F4
:100F1800010B0BFA0AF140F2B2360E4066B1BAF193
:100F2800010F40F286804FF0000A2B490020BAF1E9
:100F3800090F0870F7D8EAE711F04D0FEFD02260DB
:100F480003920EF0BFFE039A0028E8D006210A4655
:100F580018AB68200EF090FD9DF863309DF8652071
:100F68001E4C03EA0B0302EA0B0203FA0BF343EAF3
:100F780082039DF8612002EA0B02134334D05B45DB
:100F880001D126703FE0022B02D184F800B03AE08C
:100F9800052002F0FFFA36E000010050CC060020E0
:100FA8000000002035FA8E3C08010020DE070020F2
:100FB800404B4C00B81100200C2D0020BC11002023
:100FC8003DFF00088DFC000890C1793D60000020BD
:100FD800B40F002061000020242D0020102D0020D7
:100FE800D2110020945D01080DAB68200C215A46EF
:100FF8000EF042FD9DF8343013F00F03C8D0043BC7
:1010080018BF01232370704B704A1A60704A5A60E7
:1010180022787049002A14BF6E226F221A726E4B12
:1010280004221A7003234B706C4B1A6842F00202B8
:101038001A600A2002F09DFA7720A02101220DAB48
:101048000EF01AFD002857D01E21012277200BF040
:1010580013FF4FF42F6002F081FA0024A4F160011D
:101068000026C9B2022218AB77208DF860608DF88F
:1010780061600EF001FD9DF861309DF8601043EA53
:101088000121574B03F50072A1520234102CE5D10F
:10109800B3F80EE20EF00F040EF47F4EA3F80EE242
:1010A8000121334632464E4E22F001003044B0F85A
:1010B8000002002818BF002112F0010F03D0C0B2AF
:1010C8004340082002E083EA1023FAE713F4004FB4
:1010D80018BF83F4C05301384FEA4303F6D10132F5
:1010E800102AE0D144EA0E0EA6F80EE221B9C3F3A5
:1010F80003339C4200F0BB85384C23689A0702D51D
:10110800314B1B689847374A136898474E46364B09
:1011180000221A70994616B1022E40F0C4852CABF5
:10112800324903F8502D2E4A1E20C2F810120A2107
:1011380001220EF0A1FC002800F0B5859DF8603072
:10114800482B40F0B0852A4B2A4A1A602A4A5A602E
:10115800002F00F0A885042389F800301D4B0222D7
:10116800DA70236843F00803236095F8E4300BB184
:1011780088F8003095F8E5300BB1174A137095F8E8
:10118800E6300BB189F80030236813F0080F144BD0
:1011980036D0059A11B2642291FBF2F002FB1012CC
:1011A80012B207EE102AF8EEC76A07EE100AF8EE38
:1011B800C77A9FED127AE6EE877AB2EE047A67EE86
:1011C800877AC3ED857A1EE028120020A5FF000863
:1011D8004DFC000861000020242D0020B40F0020E1
:1011E80008010020BC110020362D0020AC5D01084C
:1011F800001000209FCF000871FB00088988883CF8
:101208000022C3F81422BB4B1A7842F002021A706B
:10121800B94A082191610A26B74CA38A9BB283F088
:101228000803A382192002F0A4F9012002F0ABF907
:10123800192002F09EF9013E002002F0A4F916F0F0
:10124800FF06E9D10823AD4EA36133681B0705D516
:10125800AB4B1B689847AB4B01221A70AA4B9FED0A
:10126800AB8A1B68AA4C1B7B00EE103AB8EEC00A8A
:1012780020EE080A12F06CFC218807EE901AF8EEAE
:10128800E77A27EE800A12F09FFC24889FEDA17A66
:10129800A14B07EE904AF8EEE77A1880C7EE277A56
:1012A8009E4B9F4CFF21162220469FED9E7AC7EE4B
:1012B800877AC3ED007A9C4BD3ED037A9B4B27EEDC
:1012C800888ADFED9B7A28EE278A83ED008A12F060
:1012D800C4F9002222703268964B012112F0020FE5
:1012E8001970204604D06170032119700221A17081
:1012F800570704D519784C1C1C700324445412F069
:101308000A0F0CD01A7804218154511CC9B2052443
:101318004454D11C0232D2B2197006218154AA68F1
:10132800940604D519784C1C1C70072444541106E3
:1013380008D51978092444548C1C0131C9B21C7091
:101348000A2444546979082901D00E2904D119784E
:101358004C1C1C700B24445419780C274C1CE4B208
:101368004754D7031C7005D5724F023139706C4948
:101378000E270F55510704D519784C1C1C701024E2
:10138800445419781227475495F854714C1CE4B208
:10139800002F0CBF002702F001071C702FB1654F0A
:1013A800023139705E4913270F5519784C1CE4B285
:1013B8001C7092054FF01403435405D55D4B023160
:1013C8001970574B15221A55982200215A4812F0C5
:1013D80044F90DF0B3FC0AF083FF584B584A1A60E1
:1013E800B5F81E21002390B2564958520233242BD7
:1013F800FAD1AB681B0740F12581534B93F81A319A
:10140800062B00F21881DFE803F00404305CBFDA31
:10141800DA004E4A4E491160012B4E4A4E4C4F4855
:1014280007D103252570072482F8183204700C238D
:1014380007E00223237003230370002382F8183285
:1014480007230B704020464BC2F81C3201F0F8FF0E
:10145800002800F0F08001234FF0000890F9000008
:10146800404A8DE80801402141E007EE102ADFEDEF
:101478003E7AF8EEC76A9FED3D7AE6EE877A00235A
:10148800FCEEE77A3A4A17EE901A99500433482B43
:10149800F8D1304B374AC3F81C222D4B122240207A
:1014A8001A7001F0CDFF002800F0C58001234FF02D
:1014B800070C90F90000304A8DE8081040212F4BA6
:1014C800B3E0244B2E4AC3F81C22214B10224020A3
:1014D8001A7001F0B5FF002800F0AD8001234FF02D
:1014E800000E90F90000274A8DE8084040214FF48B
:1014F800E1339AE01C2D002000040048B40F0020BE
:1015080000100020201000207012002035FA8E3CB8
:10151800080000200AE81C419412002068110020ED
:10152800651D002000401C46BC1100206C120020E4
:10153800BD378635641D0020181A00204C0E002087
:10154800DE070020CA0F0020CC060020540E002021
:101558007B1D002008010020510E0020580E00209D
:10156800B5680008156A00080000B0C4CDCCCC3FAF
:10157800A00E002001690008216B0008A086010068
:10158800F1680008AD6A0008534C544BC4F81C328B
:10159800534B082240201A7001F052FF00284AD00D
:1015A8000123002790F900004E4A8DE88800402169
:1015B8004FF4E1330DF082FBC4F8200237E04848CD
:1015C800454A494C0C21062B017010D0002323708A
:1015D80082F8243282F825321B2382F8263205232A
:1015E80082F8271282F828324FF4E1340DE0002007
:1015F800207082F8240282F825023C4C82F82712D7
:10160800212082F8260282F82832394BC2F81C328F
:10161800402001F015FF70B101230025354A90F9EB
:10162800000040218DE8280023460DF047FB0030DC
:1016380018BF012030B9082002F07BFB264B00229E
:10164800C3F81C222C4F244CBB68254A13F4804F46
:1016580004D0082111702949C4F81C1242F2010172
:10166800194003F0010003F4005541B12449C4F8BE
:101678001C120DB10821117008B10C2111701178DC
:101688001806A1F1040151707BD54FF000081D4DDB
:10169800DFF87C90DFF87CA01B48C4F82C92414608
:1016A800152285F80180C5F80480C5F8088011F076
:1016B800D4FFA9F104034046CAF800300BF07AFAC7
:1016C800124B02201B68EB6001F0BAFE514618BBB2
:1016D800802002F02EFB4CE008010020DD680008A5
:1016E8007B1D0020616A0008A00F002090D0030035
:1016F8009D68000849690008CC0600203169000887
:101708003D6900088C11002038030020142D0020AA
:1017180004080020AC11002090F805E06B78C34A5B
:101728004FF00C0C0CFB032C9CF801C0F44504D0C2
:101738000133DBB2042BF2D900236B700B6890F9EC
:1017480000001B78002B6B784FF00C0505FB03227B
:101758000CBF01210321537800910022019202213C
:101768000DF0ACFAB24B18600028B1D001200BF094
:1017780021FAB04AB04B106800F5D8721A6002F02E
:10178800A5FCBB6813F4007F0DF1600855D0AB4D84
:10179800AB4B2B60AB4BAC485A6942F480225A6180
:1017A8009A6942F001029A614FF0010902230BA9DC
:1017B8008DF82F30ADF82C908DF82E9005F067FD40
:1017C8002B68A1485B88ADF82C304FF0000A0BA9B4
:1017D8008DF82EA005F05BFD2B684846197A05F0B8
:1017E80083FA2B68586805F0A9FA2B685B68189388
:1017F800404610238DF865308DF864A08DF866900A
:1018080007F0CEFE2B685B7A8DF834300DA80323E1
:101818008DF835308DF836A08DF8379007F0A0FE9A
:101828008A4B1A688A4B3C3A1A60336843F01003B3
:101838003360884B4FF0FF321A60874BC4F8483248
:101848008033C4F84C32BB68844E0025D903357008
:1018580040F1AC8002F058FB814BDFF8E8A140F280
:101868002A3B4FF00109184629465A4686F8009047
:10187800029311F0F2FEDAF814207A4E4FF09040FD
:1018880042F40032CAF81420426A22F00F0242627F
:10189800426A032142F0060242624FF0020C4FF402
:1018A80080728DF831100BA90B9203928DF830C01D
:1018B800CDF810C08DF832508DF8339005F0A8FCA3
:1018C800DAF81810DDF810C041F40061CAF81810F1
:1018D800318821F45C710904090C31801D21F16201
:1018E8006021A6F828C030463586C6F814900D91B8
:1018F8000DA9ADF83A500F95ADF84050ADF84250EB
:10190800ADF84450ADF84650ADF8389005F0AEF952
:10191800B16941F00801B161716C41F40041716431
:10192800DAF8141041EA0901CAF81410AAF6E47AA0
:10193800504605F064FA404605F036FA029B1993C2
:10194800102349491A93802318911D93039AADF8DF
:101958006CB04FF400535046414621931C951E929B
:101968001F952095229505F02CFAF36843F400732F
:10197800F360DAF8003043F00203CAF800300AA82E
:101988000C238DF828308DF829908DF82A508DF881
:101998002B9007F0E5FD354B1A68354BEA500435B6
:1019A800802DF8D107F0D3FB07F0D1FBBB685A05AF
:1019B80040F181802F4BD4F87C651E60042001F033
:1019C8003FFD0421C4F8800501F014FD2A4B84F87A
:1019D800840508201E6001F033FD0821C4F888053D
:1019E80001F008FD254D84F88C05002128462C229D
:1019F80011F033FE8E236B704FF07C0AE0234FF01A
:101A08007D09EB7085F800A085F82B901C4D2C22E1
:101A18000021284611F021FE8A236B701020A02394
:101A2800EB7085F800A085F82B902BE0D8620108B0
:101A380088110020B81100205C13002084110020B8
:101A4800B85D01080010024000040048142D002071
:101A5800801100204C11002030080020E0180020E0
:101A680058030020002C0140342C01404E6401082A
:101A7800E21800203C210020902100206021002055
:101A880096210020C4F8906501F0DAFC1021C4F812
:101A9800940501F0AFFC84F898052020C4F89C65F3
:101AA80001F0CEFC2021C4F8A00501F0A3FC84F8C5
:101AB800A4050DF0F3FA834B834E1A8822F04002F6
:101AC8001204120C1A801A8822F038021204120C1E
:101AD8001A801A8892B242F040021A8000259F2389
:101AE80032204FF480598DF834308DF835508DF808
:101AF80036508DF8375001F03CFD8DF861500422C6
:101B0800A6F8289040460DA90CF0BAFAC6F8189025
:101B18009DF862209DF86130120242EA03429DF866
:101B280063301A43694B9A42694B07D069498A4224
:101B380004D069498A4211D1202200E080221A701B
:101B48004FF480725A809A804FF480329A601A78E3
:101B58001204DA60012284F8A52504E01D705D8076
:101B68009D809D60DD60DE68FEB1360CB1464FF0A9
:101B7800000AB24513DA0AEB06056D10280441463F
:101B880010220CF0E3FB002358F80320013240F048
:101B980095800433102BF7D12E46A946E9E707F0C4
:101BA800B5FF4FEA094007F0C9FCBB6813F40023EE
:101BB80018BF012384F8A63501F0B6FC474B18601E
:101BC8007B79052B03D1464B4FF4C8721A80454BDD
:101BD8004FF47A721A80444BC8221A80434B1A7801
:101BE80042F008021A70424B1A7822F002021A7068
:101BF800BA6840F60203134003B33E4B3E4A1A60EC
:101C080008251E4607F060FC282001F0B2FC013DC3
:101C1800F8D13368394AD87811785A789B78B1FB6B
:101C2800F2F201323649082A28BF08220A7092B215
:101C3800504334495A43344B08801A80BB689B038D
:101C480008D5042384F8F83194F8F73143F00103F8
:101C580084F8F7312D490B7863F07F030B702DB0B2
:101C6800BDEC068BBDE8F08F0023FFF773B8284B57
:101C780042F210721A805A80264A5A60264A9A609E
:101C8800264ADA60264A1A61264A5A61002F3FF42A
:101C980033AA254B03229A70244B1A6842F0040297
:101CA8001A60FFF729BA012E7FF65FAA0026FFF710
:101CB8002EBA032001F06EFCFFF7A5BA05F1010A60
:101CC8004D466AE7003800400004004817BA200073
:101CD800C41D00201740EF0015202000C41200206A
:101CE8003A120020342D0020322D00200E10002042
:101CF800422D002034210020D20700203821002066
:101D08007400002094210020A21900201C2D00201E
:101D18002C10002035D100082DFC00082DD100081A
:101D28003DFC00083730000861000020B40F002097
:101D38002DE9F04FC24AC34B1468B3F90600238952
:101D48002DED028B98428DB0904611DBB0F5FA6FFD
:101D580094F807B009DAC21A02FB0BFBA3F5FA6381
:101D68009BFBF3FB0BF1640B04E0CBF1640B01E08C
:101D78004FF0640BB44BB54AB3F81E11156893F9CC
:101D8800EE200591524292B200210692AA460A46D6
:101D9800AC4B059ECB5E04939B1B03F2F31740F2FA
:101DA800E636B74203D8002BB8BF5B4201E04FF4D8
:101DB800FA73022ADFF8A4E22ED095F85D6126B105
:101DC800B342CCBFC6EB03030023642693FBF6F7AC
:101DD8009F4E6FF0630936F817C009FB07390137C2
:101DE80036F917700797079E0FFA8CF7F71B07FB52
:101DF80009F7642697FBF6F767442EF80170A718D1
:101E08003F797B43934F93FBF7F333449BB20BFB30
:101E180003F393FBF6F615E095F85E6126B1B3423D
:101E2800CCBFC6EB03030023069F03FB07F6AEF8FF
:101E38000460A679874F002BB8BF5B425E4396FBD0
:101E4800F7F66436AB18844F93F801E0642306FB79
:101E58000EFE9EFBF3FE02F807E09AF80BC007F1AE
:101E6800030E06FB0CFC9CFBF3FC02F80EC09AF870
:101E780015E0063706FB0EF696FBF3F6D655049BDF
:101E8800059E764FB34202DA7B5A5B427B5201329F
:101E9800032A01F102010AF1010A7FF479AF6A4DC0
:101EA800B5F82031984205DBB0F5FA6FA8BF4FF4BA
:101EB800FA6000E01846C01A4FF47A725043C3F52E
:101EC800FA63B0FBF3F34FF0640E614C634E93FB7F
:101ED800FEF204EB42016FF0630000FB023304EBF7
:101EE8004202098BB2F91A000AB2821A534393FBD1
:101EF800FEFE5B4B1A8871445206F98034D5594B63
:101F0800DFED597A1A88238ED31A1BB208EE903A5D
:101F1800F8EEE88A68EEA78AB0EE680A11F018FEB3
:101F2800B0EE408AB0EE680A11F098FEB6F90210D9
:101F3800B6F9002006EE901A07EE902AF8EEE66A47
:101F4800F8EEE77A20EE667AA7EE887A67EE807A6E
:101F5800BDEEC77AE6EE887A17EE103AFDEEE77A1C
:101F6800338017EE903A7380AA68404E40F6020319
:101F78001340002B00F0C2803D4BB3F80090636B18
:101F8800994494F83830C4F834900133DBB2062110
:101F9800B3FBF1F084F8383001FB103313F0FF0F76
:101FA80040F0AC80930711D507F08EFA314B284AE0
:101FB8001B78528F9A4206D22F4A12889A4234BF0F
:101FC8000023012300E0022384F83C30AB681805A5
:101FD80040F192801C4AB7F906B0B2F8DE00274AF1
:101FE800274FD2F800A09AF80820012AABF57A7B8F
:101FF80003D06AD3022A45D069E094F85130206CA6
:1020080004EB4303B3F85410082390FBF3F289B2AE
:10201800821A0A4492FBF3F3A4F85C1022649BB280
:1020280040F6E442BAF806105343C1EB13334FF4B9
:102038007A725343BAF9042093FBF2F346E000BFE7
:1020480068130020CA0F0020CC060020B811002019
:10205800681900200CFEFFFF7619002042130020AB
:10206800BC0F0020AC12002035FA8E3C422D002017
:10207800C2120020382100209421002034210020A1
:10208800402100203178BAF806203A6049071ED569
:10209800039202930AF0C8FC039A029B20B913F03A
:1020A800100F18BF4FF0000B0BFB0BF1322391FB05
:1020B800F3F39B44BAF9043003FB0BFB4FF47A7338
:1020C8009BFBF3FB5A443A6001E000233B603B680A
:1020D800784AD4E9180103FB09F94FF47A7399FB9C
:1020E800F3F910EB090041EBE9710023C4E9180189
:1020F8000EF0A6F9704B1860002363636F4A704BAB
:10210800176894F83C9017F4805193461ABF01223F
:1021180083F8682083F86810AB68DA052FD596F83D
:1021280000A00AF0040A5FFA8AFA01F061FC18B10B
:102138001AF1000018BF0120C30711D50123E26E70
:1021480084F869305F4B1078B3F900105378034472
:1021580003EB8303994203DD594B022283F869207C
:1021680001F046FC28B1BAF1000F02D1022384F82D
:102178006930544BB3F900300BB984F86930524BCD
:102188001A6890060BD517F4C06F05D04F4B1B7813
:10219800990701D4012300E0002384F8703094F8F3
:1021A8006920474B022A02D14C204E2126E0012A01
:1021B80006D153204D214C220B460AF035FD32E062
:1021C80093F87020012A03D1532001464E2206E0DD
:1021D80093F86820012A04D15320014602464D2372
:1021E800EBE7B9F1020F04D1532001464D224423F5
:1021F800E3E7B9F1010F03D153204D210A46F6E771
:10220800334F3A88120603D553204D210246D3E7AF
:10221800304A107818B119200AF0DAFC03E083F884
:10222800710001F0B0F93278570703D52A4B08221C
:102238001A857BE0DBF80030D80703D4274942F041
:1022480001020A7020490A68510702D52449098801
:1022580061B92449098809B1920705D4224A12882C
:10226800003218BF012200E001224AB11A4A918ABD
:1022780089B281F008019182327822F0010232702D
:10228800124A1278170703D4327822F0010232700A
:10229800D80203D5337823F0010333703378134A17
:1022A80013F0010F24D0002363670B4B08219961B9
:1022B8002AE000BF407E050044210020B80F00201E
:1022C80068190020A20F0020B40F00200E10002073
:1022D800BC0F00206612002000040048422D002098
:1022E800322D00203A120020342D0020282D002005
:1022F800616F136841B9B34903F5F42303F590738B
:102308004B67B14B08211985636F126873B1D21AF4
:10231800002A0BDBAC4A918A89B281F008019182CC
:1023280003F5F423A74A03F590735367A74F0CF0FE
:10233800B5FE3B78002B72D0A36F002B00F092857E
:10234800A06FA04D01F077F9002800F08B85A86FE9
:1023580001F06CF9092801D03F2853D14FF000094A
:10236800E66FDFF88C824D4636B19948D8F80010F0
:10237800324611F0BBF910B9C14605B94546954B2F
:1023880008F10C089845EFD3F5B1D5F800C0D9F895
:102398000080E36F8B481CF803E018F803107145C0
:1023A80012D15A1C59B92D2B09D8C26703440244CB
:1023B8004FF0200E83F880E082F8801004E0234478
:1023C800E26783F880E0E4E7E36F0BB14D4510D096
:1023D800814801F0D9F94D4507D855F80C0B01F0A3
:1023E800D3F9092001F0CAF9F5E77C4801F0CCF9E6
:1023F8000026E36F9E42A3D2754B985D01F0BEF9AB
:102408000136F6E7EB6F002B40F05B85042840F0BF
:10241800AC8505F180000AF0EBFA00F023BD704F9F
:1024280097F84A30012B40F018856E4A6E4B396890
:102438001760196092469B46DBF80000DFF8A89108
:1024480001F0F9F8002800F0F884D9F8000001F04C
:10245800EDF8DAF8003093F848201AB9242839D171
:10246800012234E0012A04D14D280CBF02220022A7
:102478002DE0022A04D13C280CBF0322002226E0CA
:10248800032A09D140284FF0000220D81A71DA71C6
:102498005871987104221AE0042A06D19A7983F8AF
:1024A800490050409871052211E0052A26D1597932
:1024B8001A799142997906D941409971511C19713B
:1024C800134418721AE081420CBF0622002283F8D6
:1024D800482013E033785B0710D42328D9F800305C
:1024E80040F0DE84394A4148A36701211170C4F8DD
:1024F800483101F049F9394801F046F9DAF8003075
:10250800DFF8E09093F84820062A95D193F849001F
:1025180003F0AEFA002840F08484D9F8002092F83D
:102528004930442B00F0778400F2A480312B00F06E
:102538003E8433D8272B00F0A6830BD8232B00F03A
:10254800F980252B00F09883212B40F0B7844FF0B9
:102558000009F9E22B2B00F0B48314D8292B40F0A2
:10256800AD8400F0FFFEA5F80A0100F0FBFEA5F817
:102578000C0100F0ECFE85F80E0100F0F3FEA5F862
:10258800100100F04BBC2D2B00F09F832F2B40F047
:102598009584DFF8609009F1400AF7E3392B00F0E1
:1025A8007F8329D8352B00F0B681372B00F0B08314
:1025B800332B40F0838400F0CAFE85F81C0100F03C
:1025C8002DBC00BF68190020000400483D2D0020E4
:1025D800E819002094720108098801080E8801088A
:1025E800181A0020E8210020EC2100203E8801086C
:1025F8005C710108CC0600203E2B00F0D48010D876
:102608003C2B40F05B84DFF8FC93D9F800A000F085
:102618009EFE8AF80000D9F80030187801F0A4F975
:10262800FCE3412B00F06683432B40F0478400F025
:102638008EFE0023AB60687100F09EFEAB68184305
:10264800A86000F084FE85F81A0100F08BFEA5F85A
:10265800E80000F087FEA5F8EA0000F083FEA5F880
:10266800EC0000F07FFEA5F80A0100F07BFEA5F85B
:102678000C01D3E3CF2B00F0CB811FD8C92B00F07E
:1026880094820AD84A2B00F09780C82B48D0482B50
:1026980040F014840BF080FEC0E3CC2B00F0668180
:1026A80004D8CA2B00F08C8000F008BCCD2B00F0B9
:1026B8006582CE2B00F06B8200F000BCD32B2AD0B1
:1026C80005D8D12B00F0998240F24D8210E0D62B2C
:1026D80000F0F58106D8D42B08BF4FF0000900F0B0
:1026E8001482EBE3EF2B4FD0FA2B00F05A82E5E38C
:1026F800337803F0040303F0FF09002B40F08E83C6
:1027080000F025FE022885F8580740F23282B84BBF
:1027180083F858972DE200F025FEB64B18807DE32C
:1027280092F805A04FEA5A0ABAF1120F1CD84FF0D6
:1027380000091CE000F00BFE272815D8DFF8C4A21A
:10274800DAF8003000F11C0B03EB8B0B00F0FFFDF7
:10275800A94B0BF1050903F58A72197A814200F039
:10276800C4800C339342F8D109F0C8FD56E3D14533
:1027780007D200F0F7FDA14B23F8190009F1010970
:10278800F5E701229E4B0AE2DFF87892D9F800A01B
:1027980000F0E8FDAAF85600D9F8009000F0E2FD34
:1027A800A9F854003AE300F0D2FD85F8270100F0BB
:1027B800CEFD85F8260131E300F0D4FDA8812DE394
:1027C800904B1A681278022A4FF0000A994671D184
:1027D800DFF83092D9F800B000F0B9FD07EE100A22
:1027E800F8EE477AB2EE048AC7EE887A0BEB8A03D2
:1027F800D9F800B0C3ED087A00F0A9FD07EE900AF9
:10280800B8EE677ADFED807AC7EE277A0BEB8A039A
:10281800D9F800B0C3ED0B7A00F099FD07EE900AE5
:10282800B8EE677ADFED797AC7EE277A0BEB8A0381
:102838000AF1010ABAF1030FC3ED0E7AC8D1BAF151
:10284800070FD9F800B01CD100F081FD07EE100A7F
:10285800F8EE477AC7EE887ACBED117AD9F800B04E
:1028680000F075FD07EE100AF8EE477AC7EE887A91
:10287800CBED127AD9F800B000F069FD8BF84C0066
:1028880012E000F064FD0BEB0A035870D9F800B0B1
:1028980000F05DFD0BEB0A03D9F800B0D87200F028
:1028A80056FD0BEB0A0358750AF1010ABAF10A0F33
:1028B800C5D1B3E2D9F800B000F049FD0BEB0A032B
:1028C8005870D9F800B000F042FD0BEB0A03D9F8B4
:1028D80000B0D87200F03BFD0BEB0A030AF1010AC5
:1028E800BAF10A0F5875E5D198E21B788BF80530D4
:1028F80000F02DFD89F8010000F029FD89F802009B
:1029080000F025FD89F80300DAF8001001F17500E0
:1029180009F046FC82E200F01AFD0B283FF624AFCE
:10292800384B4FF0060A0AFB00F01B6800F5887068
:1029380003EB000A00F00BFD03283FF615AF8AF8F9
:102948000A0000F004FD8AF8050000F000FD8AF88E
:10295800060000F0FCFC8AF8070000F0F8FC8AF892
:10296800080000F0F4FC8AF8090057E253790A2BB2
:102978007FF4FAAED8F8009000F0E9FC89F800007E
:10298800D8F8009000F0E3FC89F8010000F0DFFCC3
:10299800D8F800306428A8BF6420187100F0D7FC6C
:1029A800D8F800306428A8BF6420587100F0CFFC24
:1029B800D8F80030FF28A8BFFF20987100F0C7FCA6
:1029C800D8F80090642828BF642089F8070000F030
:1029D800BEFC89F80200D8F8009000F0B8FC89F82D
:1029E8000300D8F8009000F0BDFCA9F8080015E233
:1029F800CC0600204A13002094720108CA0F002058
:102A0800A80F0020B81100200000C84200007A4436
:102A180000F0A8FC6FF4AF6143189BB2C62B98BFB7
:102A2800A5F81E0100F09EFCCC49DFF83893A1F808
:102A3800D00000F097FCC94AA2F8D20000F092FC3E
:102A4800C64BD9F800A0A3F8D40000F08BFCAAF874
:102A5800AA0100F07CFCC14981F8340100F077FC40
:102A680000F075FCBD4A82F8350100F070FCBB4BE4
:102A780083F80F0100F06BFCB84981F81C0100F0E5
:102A880066FCD9F8009000F06DFC00EB8000400077
:102A9800A9F8520000F05BFCB04A82F8060100F089
:102AA80056FCAE4B83F8080100F051FCAB4981F8A5
:102AB800070100F04CFCA94A82F80901AEE1814601
:102AC80000F050FCA64B23F8090009F10209B9F1FE
:102AD800100FF5D1A2E1A0F57A739BB2B3F57A7F16
:102AE80005D8DAF8003003EBC903A3F86A01DAF86D
:102AF80000A000F02CFC0AEBC90309F10109B9F1A7
:102B0800080F83F86C0100F08981DFF858A2DAF821
:102B18000030029309F12C0B00F024FC029B4FEAD1
:102B2800CB0B5B44D880DAF80030029300F01AFC33
:102B3800029B5B44188100F015FC0728CBD8DAF813
:102B480000305B445873C6E7864BD3F800A000F00A
:102B5800FEFB0AEBC90309F10109B9F1080F83F873
:102B68006D01F1D15AE133785A0700F1578104F029
:102B7800F1FC05F039F905F099FF4FE133785B076F
:102B880000F14C81784B4FF4C8721A8046E13378D3
:102B9800580700F14381754B1A7842F004021A7005
:102BA8003CE133785907E4D588E100F0D0FB6F4B5E
:102BB8001A7810B142F0020201E022F002021A7003
:102BC80000F0C5FB6A4BDFF8C091187000F0D4FB29
:102BD800C9F8000000F0D0FBC9F8040000F0C2FBFF
:102BE800644B188000F0BEFB634B188094F850319A
:102BF80043F0020384F8503110E100F0A8FB029082
:102C080000F0BAFB834600F0B7FB824600F0B4FB45
:102C1800814600F0A7FB00F0A5FB00F098FB029BA3
:102C2800ABB95649C4F854B10B88C4F858A123F07D
:102C380010030B804D4B1A7842F001021A70B9F15B
:102C4800000F00F0EB804E4BC3F80090E6E0102B2D
:102C580040F0E480C4F85CB1C4F860A1B9F1000F99
:102C680002D0474BC3F8009046480223011D84F860
:102C7800643104F066FED1E0A86000F07DFBAB682B
:102C88001843A860CAE000F06DFBA5F8E80000F062
:102C980069FBA5F8EA0000F065FBA5F8EC00BDE0CB
:102CA80000F055FB85F8060100F051FB85F8080196
:102CB80000F04DFB85F8070100F049FB85F8090194
:102CC800ACE000F044FB6871A8E000F040FB85F838
:102CD8001A0100F047FBA5F8220100F043FBA5F814
:102CE8001E0100F03FFBA5F8200100F030FB85F83D
:102CF8001B0193E04FF0000900F029FB05EB0903E5
:102D080009F10109B9F1080F83F81201F4D185E03E
:102D18005379152B7FF428ADDFF8409009F1180A94
:102D280000F015FB89F83A0100F01CFBA9F83C01FA
:102D380000F00DFB89F83E0100F009FB89F83F011E
:102D480000F005FB89F8410100F001FB09F10809D1
:102D580089F83801D145E3D160E000BFCC060020F6
:102D680088140020B81100203A1200200E1000200C
:102D7800B01100204A21002048210020BC0F00206B
:102D8800C00F0020C41A00205021002000F0EAFAE9
:102D9800A9F8E40100F0DBFA89F8E60100F0D7FAB7
:102DA80009F1040989F8E301D145EFD136E000F0D3
:102DB800CEFA1F283FF6D8ACD9F800305B79082B3B
:102DC8007FF4D2AC00F1580A00F0CCFA05EB8A0A7D
:102DD80000F03F00AAF8060000F0C4FABAF806208E
:102DE800800100F4FE531343AAF8063000F0AFFA4E
:102DF80000018AF8040000F0AAFA9AF8043000F0FA
:102E08000F0018438AF8040000F0A1FA8AF80500B8
:102E180001F07AF802E0012384F86531002000F01F
:102E280089FCDFF8D491D9F80030987900F052FC89
:102E3800D9F80030002283F8482094F8653163B14E
:102E4800386800F0DEFB18B9322000F092FBF7E793
:102E580009F09CFD554B564ADA60564A4C37974262
:102E68007FF4DEAA544E33689A0611D5534BD4F832
:102E780068211B689A1A002A0ADB514A1278042A28
:102E880006D903F512334F4A03F5F873C2F86831CF
:102E98004D4B9B68002B00F084804C48984780E09D
:102EA800D4F84C311B7883427FF428AB484B494A0D
:102EB8001A603E4B3E4ADA60FFF720BB09F01EFA63
:102EC800AFE70C2803D1444800F05EFC3EE00A2836
:102ED80001D00D283CD1414800F056FCE36F0BB9F6
:102EE800E36709E0374A591E02F18000085C202890
:102EF80001D10B46F3E7D3672344002283F88020EF
:102F080094F88030232B17D0354B0A920093354E16
:102F18003549099609A81A220C2310F038FC0546F1
:102F280038B1006810F0DAFB0130AB6830449847DC
:102F380002E02E4800F028FC2A480021302210F038
:102F48008CFB0023E3673B78002B8BD0284808E0F4
:102F58007F2810D1013BEB672B440022254883F8DA
:102F6800802000F011FCFFF7EBB90C28ABD07F28CC
:102F780004D1FFF7E5B92F2B3FF6E2A9A0F1200213
:102F8800D2B25E2A3FF6DCA913B920283FF4D8A9AB
:102F98005A1C2344E26783F8800000F0EFFBFFF738
:102FA800CFB90DB0BDEC028BBDE8F08F00ED00E0AD
:102FB8000400FA05B01A0020B40F0020282D0020C4
:102FC800B011002068190020BC110020D41A00207C
:102FD800FC9F0020EFBEADDE13880108B092010807
:102FE8003D330008E81900205C7101081E880108BB
:102FF8000E8801083A880108E8210020034B4FF4A5
:10300800004208B19A6170471A8570470008004865
:10301800034B4FF4004208B11A8570479A61704714
:103028000008004803685A1C0260197070472DE9AF
:10303800F04F514A514E17687389B28885B084465B
:1030480030890391A7EB032787FB00011404C20909
:1030580042EA4162F08814EB020872884FEAE113F1
:1030680087FB00014FEAC2344FEA1022B0894FF0C3
:10307800000545EB030942EA01620B1287FB0001D8
:1030880014EB020A4FEAD05242EA41224FF00005FF
:1030980045EB030B12F5FA604FEAE15343F10001E7
:1030A800CDE90001B0F5FA6F71F1000147DAA2FB32
:1030B800024502FB03F1052605EB4105A4FB0601C9
:1030C80006FB05114D104FEA3004B8EB040869EB14
:1030D8000509840844EA81748D10BAEB040A6BEB85
:1030E800050BDDE9004526484FF0FF3184428D414C
:1030F80025DA40F6AC5012184FF0000143EB0103FB
:1031080002FB03F1A2FB022303EB41036FF006006D
:10311800544200FB0344A2FB000118EB00082144C1
:103128004FF00B0449EB0109A2FB040104FB031156
:1031380049104FEA3000BAEB000A6BEB010B114B58
:103148001A68A2FB0A0102FB0B11420D42EAC122D6
:103158004B15B2EB080263EB0903D00B40EA43407E
:10316800BCF1000F01D0CCF80000039808B1009919
:10317800016005B0BDE8F08FEC2A002008030020AC
:1031880024FAFFFFF02A0020016BC268034610B53D
:10319800406941B1196C541A0139005D18BF0A46DB
:1031A800C0B21A6410BD196A405C0131914228BF4F
:1031B8000021C0B2196210BD036B13B15A68036CC9
:1031C80001E0C269036A9A423BBFC0688018C3EB3A
:1031D8000200C3EB0000C0B27047436B13B190F814
:1031E80044007047826A436AD31A5842584170476C
:1031F800334A136C90681944081A40F68C23984295
:1032080010B513469160D06051603CD9127893F99B
:1032180045108A420BD1111F082908D893F8461087
:10322800182901D8013103E083F8442002E0002185
:1032380083F8461093F944108A421CD1204991F82A
:103248004710C1B1002191421E4806DA03EB810400
:10325800246920F811400131F5E7511E00EB4101C6
:103268001630814203D0002421F8024FF9E71649AD
:1032780008780130087083F84520002201211A706F
:1032880083F8471010BD92F84710B9B1A0F2EF24A7
:1032980040F2DA518C4208D811780B2905D80B1D59
:1032A8000131117042F8230010BD002283F8472035
:1032B800991804320020302A0861F9D110BD00BFE6
:1032C8005801002028220020101F002010F80A3C76
:1032D8000133DBB20A2B00F80A3C07D910F8131C9B
:1032E800034A002322F8113000F80A3C704700BF57
:1032F80028220020024B1A6C0132114419647047CD
:1033080058010020024B53F820301B6819607047A1
:1033180080020020064B53F820301A681B89A1F55B
:103328007A714B434FF47A7093FBF0F31360704754
:103338008002002038B50C680546204610F0CEF90A
:10334800214602462868BDE8384010F0CFB9044B42
:103358001B68DA79511CD9711344187A704700BF79
:10336800E821002010B5FFF7F2FF0446FFF7EFFF52
:1033780004EB002080B210BD10B5FFF7F3FF044640
:10338800FFF7F0FF04EB004010BD094B5A6882427A
:1033980009D01A69824205D0DA69824208BF183317
:1033A80005D100E00C330022C2621A725A607047DD
:1033B8002C01002038B50D4D2B688342044606D1F8
:1033C800FFF7E3FF284600214C2210F046F9EB6C8A
:1033D800A34209D12046FFF7D8FF054800214C2217
:1033E800BDE8384010F039B938BD00BF181A0020C0
:1033F800641A002038B1438811EA030003D08B42D5
:1034080014BF02200120704730B50B4B0B4A1C68D3
:103418001378022B0DD8591C04EBC303C9B29D883D
:10342800284203F1020302D01170184630BD0B4642
:10343800EFE71370002030BDB41A0020D81A00201E
:10344800014B00221A70DFE7D81A00202DE9F04757
:103458008278C6781F4BC2F1640802EB820C544292
:103468005FFA88F84FEA4C0CC6F16409A4B203F17C
:103478001807A0B20FFA80FABAF1000F04DC00288E
:1034880014BF1546012500E0454610FB00F07043C7
:1034980015FB05F590FBF5F54D4405FB0AF50A20EB
:1034A80095FBF0F56544ADB25D800888B1F802A0DF
:1034B8002DB2C0EB0A0A05FB0AF54FF47A7A95FBA0
:1034C800FAF5284423F8020F0A34BB42A4B2D0D13B
:1034D800BDE8F0877E19002010B5447800780023F5
:1034E80003FB03F11939614301F6C411594340F64E
:1034F800C412414391FBF2F1034A22F8131001333D
:10350800072BEDD110BD00BF6819002010B5044C81
:103518002068FFF7E1FF20680249BDE8104095E701
:10352800681300209C07002010B5094A0949136850
:10353800886812689342F8D1074A11684FF47A7282
:1035480002FB01F4201AB0FBF1F002FB030010BDEE
:10355800142D002010E000E01001002038B50446CA
:10356800FFF7E2FF0546FFF7DFFF401BA042FAD353
:1035780038BD10B504462CB14FF47A70FFF7EEFF52
:10358800013CF8E710BD08B5014B1B68984708BD1A
:10359800202D002038B540F2DB15124B0822684375
:1035A8009A61851E0B24013C14F0FF0412D00D4BC8
:1035B8009A8A92B282F008029A822846FFF7D9FFC7
:1035C8000120FFF7E0FF1920FFF7D3FF0020FFF7E6
:1035D800DAFFE8E7044B054A1A60054B054ADA604A
:1035E80038BD00BF00040048FC9F0020EFBEADDEE0
:1035F80000ED00E00400FA0508B503685B69984728
:1036080008BD08B503681B69984708BD10B504468E
:103618002046FFF7F6FF18B90A20FFF7AAFFF7E7D9
:1036280010BD08B50368DB68984708BD08B503688E
:103638009B68984708BD08B503685B68984708BD4C
:1036480010B5054C2068FFF7F6FF18B12068FFF7A2
:10365800EDFFF6E710BD00BFCC21002008B50368D8
:103668001B68984708BDF8B5174D184C184F064603
:10367800C1B228686170FFF7F1FF3B6861789A79F9
:1036880028684A409A71C6F307216170FFF7E6FF80
:103698003B6861789A7928684A409A71C6F307416D
:1036A8006170FFF7DBFF3B6861789A7928684A40C8
:1036B8009A71310E6170FFF7D1FF3B6861789A7992
:1036C8004A409A71F8BD00BFEC210020D81A0020AA
:1036D800E8210020064B10B5044621461868FFF77C
:1036E800BDFF044B1B689A7954409C7110BD00BF04
:1036F800EC210020E821002038B5044624200D469E
:10370800FFF7E8FF4D20FFF7E5FF002C084C0CBF42
:103718003E202120FFF7DEFF2368002228469A7109
:10372800FFF7D8FF236893F84900BDE83840D1E790
:10373800E821002001460020DEE7F8B50C4E0D4CCC
:103748000D4DC1B207463068A170FFF787FF2B689F
:10375800A1789A7930684A409A71C7F30721A17015
:10376800FFF77CFF2B68A1789A794A409A71F8BDD7
:10377800EC210020D81A0020E8210020014B014646
:1037880018686BE7E019002010B5441E14F8011FF3
:1037980021B1034B1868FFF761FFF7E710BD00BFC1
:1037A800E0190020014B186858E700BFB01A002044
:1037B800A0F17D03012B70B504460D460A4E05D8CD
:1037C80030687D21FFF74AFF84F0200430682146E5
:1037D800FFF744FF35B12B881C4404EB142404F094
:1037E800FF042C8070BD00BFF821002038B5054CBF
:1037F80005465E212068FFF731FF20682946BDE8AD
:1038080038402BE71C2A0020014B5E21186825E769
:103818001C2A002010B50A4C5E280146206805D1F4
:103828005D21FFF71BFF20683E2105E05D2903D1DC
:10383800FFF714FF20683D21BDE810400EE700BFE8
:103848001C2A002010B50446C0B2FFF7E3FFC4F3FA
:103858000720BDE81040FFF7DDBF064B1B6803EBF0
:10386800C00090F9063019420CBF01204FF0FF301C
:10387800704700BF681400200A4B1A6802EBC002A8
:10388800D379FF2B07D008490978994203D9074A09
:1038980032F8130004E00728D4BF908840F2DC50C7
:1038A80000B27047681400207B1D0020CA0F00205A
:1038B80038B5294D2DED048BD5ED008AB0EE680A98
:1038C800044610F045F9B0EE408AB0EE680A10F0F0
:1038D800C5F995ED019AF0EE408AB0EE490A10F06C
:1038E80037F9F0EE409AB0EE490A10F0B7F9D4ED86
:1038F800017AD4ED026A67EEA80AB0EE407A60EE6B
:10390800870A28EEE60A66EE876A94ED007AE7EE03
:10391800290AA7EE880AE6EE880A10F069FADFEDB0
:103928000F7A9FED0F7A0F4B20EE270A80EE070AD9
:1039380093ED007A30EE070AB2EE047A80EE070AB9
:1039480010F042F9BDEC048B83B21A0444BF00F5B1
:10395800B4739BB218B238BD981200200000E1443D
:10396800DB0F49401C03002001380A4B042804D807
:10397800DFE800F00507090B0D00074A08E0074AD1
:1039880006E0074A04E0074A02E0074A00E0074A5F
:103998001A6070476800002055A60008917F00084B
:1039A80085870008518100083184000825A1000896
:1039B800064B1B7803F0040303F0FF001BB1044B14
:1039C8001888C0F3C01000F001007047422D002095
:1039D800BC0F0020044B00221A605A60034B0022DF
:1039E8001A605A60704700BFD81F0020F0200020DE
:1039F800064B074A1B68B2F900001B7803EB8303E8
:103A08009842D4BF00200120704700BFD41900207D
:103A1800A20F002010B50278202A034600F1010009
:103A2800F9D0092AF7D02D2A03D10346BFEE000AA0
:103A380004E02B2A08BF0346B7EE000A9FED377A49
:103A48001A46134612F8011BA1F13000C4B2092C22
:103A58000AD805EE900AF8EEE57AF2EE046AE7EE87
:103A6800267AB0EE677AECE72E2915D1F2EE047AC1
:103A7800F0EE676A134612F8011B3039C8B20928FC
:103A88000AD805EE901AB8EEE56A86EE276A67EE60
:103A9800A67A37EE067AEDE71A7802F0DF02452AB1
:103AA80034D15A782D2A02D10233012204E02B2A7C
:103AB80014BF013302330022013B002113F8010F28
:103AC8003038C4B2092C03D80A2404FB0101F5E7F5
:103AD800B1F59A7F34BF0B464FF49A731946F7EE47
:103AE800007A072905D9DFED0E6A083967EEA67A4C
:103AF800F7E703F007032BB1F2EE046A67EEA67A44
:103B0800013BF8E722B1C7EE277A03E0F7EE007A27
:103B180067EE277A20EE270A10BD00BF00000000DC
:103B280020BCBE4CF0B50124B0FBF4F58D4201D3A6
:103B38004C43F9E70026DCB1B0FBF4F504FB1500B3
:103B4800B4FBF1F41EB9002D01DC002CF3D1092DD2
:103B580003F101075FFA85FC04DD002A0CBF572535
:103B6800372500E0302565441D7001363B46E2E705
:103B78001C70F0BDF0B50124B0FBF4F58D4201D303
:103B88004C43F9E70026DCB1B0FBF4F504FB150063
:103B9800B4FBF1F41EB9002D01DC002CF3D1092D82
:103BA80003F101075FFA85FC04DD002A0CBF5725E5
:103BB800372500E0302565441D7001363B46E2E7B5
:103BC8001C70F0BD70B50646B6FBF2F40846154603
:103BD80014B12046FFF7F6FF05FB1464024B1B5D8A
:103BE80000F8013B70BD00BFB18B01082DE9F84317
:103BF800089E002B0746884614460CBF4FF0200944
:103C08004FF03009334613F8012B0AB9254603E073
:103C1800002CFBDD013CF6E7002D04DD3846494663
:103C2800C047013DF8E724EAE4742546331B595D93
:103C380019B13846C0470135F8E72846BDE8F8838A
:103C480038B52DED0A8B91ED008A90ED00AAD0EDE4
:103C580001AA90ED029AB0EE480A04460D460FF00C
:103C680077FFF0EE409AB0EE480A0FF0F7FF95EDB7
:103C7800018AB0EE40BAB0EE480A0FF069FFF0EEE4
:103C8800408AB0EE480A0FF0E9FF95ED02CAB0EE9F
:103C9800408AB0EE4C0A0FF05BFFF0EE40BAB0EE8F
:103CA8004C0A0FF0DBFF6BEE005A2BEEA97AB0EE50
:103CB800655AA7EE485AA5EEC87A20EE296A6BEE37
:103CC8002B7A2AEE877A28EEC00AF0EE466AE7EEEB
:103CD800886AAAEE007AE6EE087A6BEEA8BAA9EE30
:103CE800277A6BEE687A6AEEA66A6AEEA77AEAEE37
:103CF8002B6AEAEE087A68EEA98AE9EE056AE9EE27
:103D0800287ABDEC0A8BC4ED006A84ED017AC4ED13
:103D1800027A38BD80EAE073A3EBE0738B4206DBDE
:103D2800002801DD401A704702D00844704700207F
:103D38007047034B9A6822EA00009860704700BFFA
:103D4800CC0600202C4B2D4A1B68126810B51A604F
:103D58002B4A1168596051689268DA60294A99605B
:103D680011681961516892689A61274A5961116806
:103D7800D961516892685A62244A19621188198572
:103D8800518859859188D288DA85214A9985118880
:103D980019865188598692889A861E4A1188D9862A
:103DA800518892885A871C4A1987117800228A42BA
:103DB80007DA1A4C03EB420034F8124084870132C8
:103DC800F5E7174A1288A3F86420164A1288A3F860
:103DD8006620154A1188A3F86C1051889288A3F8B8
:103DE8007020124AA3F86E1012689A66104A528917
:103DF800A3F85E2010BD00BFE01B0020282D002086
:103E0800B41F0020C01F0020CC1F00204213002038
:103E18002C2D002080120020432D00203814002073
:103E28001A2A0020C419002008100020441100207C
:103E380056140020114A30B50028B8BF4042104C33
:103E480090FBF2F33C2504FB030068430D4D2D68FD
:103E58002D7B90FBF2F225B903EB830303EB83037D
:103E680001E0C3EB031302EB83030B8004FB0202A4
:103E78004FF47A7392FBF3F24A8030BD8096980033
:103E8800806967FF3C210020022803D0431E584266
:103E980058417047064B1B681B7823B1054B1868BF
:103EA800C0F3C0407047044B1878C0F380007047D7
:103EB80084060020B80F0020422D002008B50848CD
:103EC8000FF00CFCC0B209280246054B04DC013097
:103ED8002021C0B29954F6E700221A5408BD00BF49
:103EE800E929002008B507480FF0F8FBC0B21428EC
:103EF800044B04D8421C20211954D0B2F7E7002201
:103F08001A5408BDE9290020F0B5244A244D254952
:103F1800146800232B70CB701A461846A6187688AA
:103F28004EB9A75C3FB92B700023C8700B712F786E
:103F380018461A460CE0360548BF013002F1040263
:103F480003F1010348BFC0B2802ADBB2E6D1EAE739
:103F5800C5B2BD420CD214F820502E099E4205F07D
:103F68000F05A8BF731C9542A8BF6A1C0130EFE774
:103F78000B714A710C4851084C1E047002F0010282
:103F88000A4811440170C3F347020949501E0870DA
:103F980003F0010307491A440A70F0BD50030020DA
:103FA8001C220020D81A00202422002026220020CB
:103FB800272200202522002010B5121A07EE902A89
:103FC8005B1A2DED028BF8EEE78A07EE903A184B54
:103FD800059CB8EEE78AD3ED007A28EE278A28EE0A
:103FE800080AA8EEA80A10F0A9F8DFED127A049BD7
:103FF80020EE270AF0EE480AFCEEC07AB1EE680A15
:10400800C3ED007A0FF0F4FEDFED0B7A9FED0B7A2B
:10401800E0EE077ABDEC028BFDEEE77A17EE903AF8
:10402800002BBCBF03F50C43A033236010BD00BFB9
:104038005C0000202C7D8E3F00A00C46A00CB345F0
:1040480007EE100AF8EEC77A9FED0A0A9FED0A7A82
:10405800F5EEC07AF1EE10FAD8BFF1EE677A87EE86
:10406800800A08B520EE070A0FF072FD034B83EDB6
:10407800000A08BD8096184B35FA8E3C5C0000207B
:1040880010B50C4C23789B0713D50B4B1B78042BCE
:104098000FD90A4A0A4B106852685A601860FFF72D
:1040A800CFFF084B1A88084B1A80237843F0010386
:1040B800237010BD0E100020B011002050210020E8
:1040C800BC1A0020AC120020E82A00204179DFED5C
:1040D8002A7AC27B294B07EE101AB8EE477AF2EE1D
:1040E800046A87EE277A83ED007A07EE102AB8EE85
:1040F800477A234ADA6087EE277A83ED017A817955
:10410800204B07EE101AB8EE477A017CDA6087EE8A
:10411800267A83ED007A07EE101AB8EE477A817E88
:1041280087EE277A06EE101A83ED017AB8EE466A12
:104138009FED157A86EE076A83ED026AC179134B03
:1041480006EE101AB8EE466A417CC07EDA60C6EE0A
:10415800266AC3ED006A06EE901AF8EE666AC6EEA5
:10416800A77AC3ED017A07EE900AF8EE677A87EE30
:10417800877A83ED027A70470000C842A42A00209B
:104188000000FA44B42A002000007A44D82A00200B
:1041980044F25063984203DDA0F50C40A038704704
:1041A800034B9842BCBF00F50C40A030704700BFDD
:1041B800B0B9FFFF10B50A4B0A4A1B7842609C1839
:1041C800094A046012789A4204D3D31A0B60002378
:1041D8004B6010BDC3F180030B604A6010BD00BF87
:1041E800E620002066200020652000201FB56846D4
:1041F80002A9FFF7DFFF044B1868029B1844039BD2
:10420800184405B05DF804FBDC290020034A0023AC
:104218001370034A1370034A137070476520002017
:10422800E6200020642000202DE9F0410369C768DA
:1042380004460D461F40002F33D0B7FA87F34FF0DE
:104248000042DA40D2431B3B22611740042BF2D8CC
:10425800DFE803F0211E1B1803006B6A33B103F17A
:10426800FF3800231FFA88F86B6202E0E36A1FFA3E
:1042780083F82E6A002EDED03368304641469847D0
:104288007668F7E72868616B07E06868A16B04E067
:10429800A868E16B01E0E868216C036889B2984777
:1042A800C9E7BDE8F081144B800A984215D009D8B7
:1042B8004A3B984213D00133984212D0B0F5801F80
:1042C80015D116E00D4B98420DD0013398420CD011
:1042D800023B98420BD1042070470020704702200F
:1042E8007047032070470520704706207047FE205E
:1042F80070470120704700BF4B00100051001000AC
:10430800044B53F820301BB107289CBF1B68196069
:10431800704700BFB002002010B5054C002021886E
:10432800FFF7EEFF61880120BDE81040E8E700BF15
:1043380056140020054B98420CBF054B054B1A88B4
:10434800013292B21A800020704700BF005400402A
:10435800601D0020621D00209D499E4A0B682DE9C2
:10436800F04F03F59C439C4D20331360AA6812F468
:10437800807F87B00C4603D0984B1988013119808B
:1043880042F2010313401BB1954B1A7801321A709F
:1043980003F034FCAB68D80405D5924B1B68D907E9
:1043A80001D40BF011FE904B21681C68A37A9BB1D5
:1043B800013B8E4A32F91330A3F57A73B3F57A7F4D
:1043C800A8BF4FF47A7323EAE37307EE903AB8EE86
:1043D800E77ADFED877A32E0AA6812043BD5804A93
:1043E8005068081A002836DB01F59C4020305060E0
:1043F80080484679804830F81660E07AB6B296FB75
:10440800F0F4107A013000F00F0010720244547278
:104418001A467A48185C01330244102B92B2F8D13C
:1044280012B292FBF3F31BB2642BA8BF642323EAF6
:10443800E37307EE903AB8EEE77ADFED717AC7EEEC
:10444800277A704B9FED707A67EE877AFCEEE77AF1
:1044580017EE902A1A80AB68DFF890816B4E13F440
:10446800807F3BD06A4B994204D95C4B1A790AB9D0
:1044780001221A71FFF7BCFA00282FD0574A117988
:10448800134609B9118029E03278624912F0040F05
:1044980015D05E4842F002020270514AD2699089F2
:1044A800A8F800009089A8F802009289A8F80420CA
:1044B8000A685288A8F806205A8801325A800A6881
:1044C800B3F9001010785378034403EB830399423F
:1044D80002DC33785F0701D40BF076FDB5F8DE0017
:1044E80008F0A2FA814660B9FFF774FA3C4B002243
:1044F800C3F82090C3F82490C3F82890DA621A63AE
:104508005A6333785C0720D5AB68D8061DD5424B73
:104518001B78D90619D4304B93F82721AAB13F4B01
:104528001B7893B12E4B3E49B9F1000F07D10A68A9
:104538009B6B9B1A002B08DA0BF046FD05E0096817
:104548004FF47A7000FB02129A63002295F825A1B5
:1045580095F82611B5F82041B5F82271134638F9B7
:1045680002009B08A042C4BF63F07F03DBB20232A3
:10457800B842B8BF43F04003082AF0D1184C94F869
:104588003C209A4205D194F83D20F92A04D80132FA
:1045980000E0002284F83D2084F83C301F4B114F86
:1045A8001A789B46002A40D13B68DA0708D5B9F14A
:1045B800000F3AD13378DB0737D50AF013FC34E023
:1045C8003378580731D569B30BF0FEFC2DE000BFF6
:1045D800282D0020AC0F0020CC060020A20F0020C0
:1045E800E01A0020B80F00204C0E0020CA0F00204F
:1045F80000007A44AC190020BC190020E91A0020F8
:104608000000C8427E1D002000C07F44422D0020CB
:10461800404B4C00D41900200E1000201900002037
:10462800142D0020B9F1000FCED094F83D30AD4ADA
:10463800DFF8F092142B6CD133781AF1000A03F0EA
:10464800040318BF4FF0010A03F0FF019BB19BF868
:104658000030002B5DD092F83C305F2B01D10BF07D
:10466800B3FCBAF1000F54D094F83C307D2B50D1F4
:104678000BF0AAFC4DE092F83C30572B15D19A4B21
:104688004FF47A721A80AB68190601D5FFF7F8FC67
:10469800964B1B685A0702D5954A0A21118013F0D8
:1046A800080336D1934A138033E0A868400715D52C
:1046B8005A2B13D1904B187818B1197001228F4BCF
:1046C80008E092F83E108E4B81F0010182F83E100E
:1046D80011B104221A701CE00622FBE75D2B00F0E2
:1046E8004B845B2B00F04A845E2B02D1032200F03E
:1046F80046BC562B01D109F0BDFB9BF80030002BBE
:1047080000F0548494F83C306F2B40F049840AF050
:1047180069FBAB685B0731D594F83E309BB13378C1
:10472800580710D5774BB8F90620B3F820319A42CC
:1047380009DD3B6813F0010305D1734A322111806A
:10474800684A82F83E303B68D9030AD56F4B1A781D
:104758002AB9694A127812B96B4A322111800122AA
:104768000BE0654B1A784AB1327802F0040202F085
:10477800FF011AB91970614B01221A70D9F800A00B
:1047880000230AF1750B3B600AF1770699460BF195
:10479800020303EB090113F809204B7816F8010C02
:1047A8009A420AD2314608F0B5FA30B116F8023CFE
:1047B80001229A403B6813433B6009F10409B9F1AF
:1047C800A00F06F10406E2D1514B1B783BB13B68C0
:1047D800464E504C13F0020F40F0CC82C4E20AF26D
:1047E800151203920AF58B769946039A16F8010C6E
:1047F800531C03EB090113F809204B789A422DD278
:10480800314608F087FA48B396F802C0424B0CF1DB
:10481800FF3C0CEB4C0C63440193337900930098F4
:10482800304B96F803C04FF00C0A0AFB00FA03F16C
:10483800400B0BEB0A0101984A6882420ED0002215
:104848000BF80AC048608A600099012202FA01F058
:1048580093F8702022EA000083F8700009F1060935
:10486800B9F1480F06F10606BFD12C4B2C4A1E6839
:10487800D2F800B0DFF8B0904FF0000AD9F8003055
:10488800002B00F068821978002900F06482D9F8BA
:104898000420C2EB0B02002A0CDB0BF5FA7294F829
:1048A8007000C9F80420012202FA0AF220EA020282
:1048B80084F8702019F8042C58780432D2B20028F1
:1048C80040F00E82B5F81E0138F9122000F1C80C2C
:1048D800624501DD9B7837E0C838824226DA9B784A
:1048E8005B4231E0E01A0020342D0020B40F002094
:1048F800322D0020AC120020651200206712002023
:1049080066120020CC0600204C1200206412002001
:104918003D2D0020BC0F0020A8730108681300205B
:10492800142D0020B8110020241B002094F87020BA
:10493800012303FA0AF322EA030384F870300BF523
:10494800FA73C9F8043006E294F8702042FA0AF2C1
:10495800D20700F10082002BC24ACCBF02200120FE
:1049680010704A1E0D2A00F2EE81DFE812F00E00E8
:1049780017002300300044004A009600E0002C0194
:1049880059018C01EC0130003B0032781344FA2BBA
:10499800A8BFFA2323EAE373337007E0727813445D
:1049A800642BA8BF642323EAE37373703046FEF7D1
:1049B80093FDC8E1F2781344642BA8BF642323EA6B
:1049C800E373F3703046616FFEF740FDBBE1727927
:1049D8001A44642AA8BF642222EAE2720D2972717D
:1049E80000F0B18132791344642BA8BF642323EA11
:1049F800E3733371A7E1B279134483F30803B37106
:104A0800A1E1A26F1178022936D107EE903AB8EEEB
:104A1800E77AF2EE047AC7EE277A92ED097A37EE52
:104A2800877AB5EEC07AF1EE10FA09D4DFED8F6A15
:104A3800B4EEE67AF1EE10FAC8BFB0EE667A01E09D
:104A48009FED8B7A82ED097A92ED087A77EE877A74
:104A5800F5EEC07AF1EE10FA09D49FED847AF4EEFF
:104A6800C77AF1EE10FAC8BFF0EE477A01E0DFED41
:104A7800807AC2ED087A66E191781944C829A8BFFE
:104A8800C82121EAE171917051780B44C82BA8BF65
:104A9800C82323EAE373537055E1A26F1178022902
:104AA80034D107EE103AF8EEC77A9FED707AD2ED5E
:104AB8000C6AC7EE877A77EEA66AF5EEC06AF1EE61
:104AC80010FA07D4F4EEC76AF1EE10FAC8BFF0EE98
:104AD800476A01E0DFED666AC2ED0C6AD2ED0B6A47
:104AE80077EEA67AF5EEC07AF1EE10FA09D4F4EE74
:104AF800C77A9FED5E7AF1EE10FAC8BFF0EE477AFA
:104B080001E0DFED5B7AC2ED0B7A1CE1117B194401
:104B1800C829A8BFC82121EAE1711173D17A0B44D1
:104B2800C82BA8BFC82323EAE373D3720BE1A26F93
:104B38001178022936D107EE903AB8EEE77ADFED20
:104B48004A7AC7EE277A92ED0F7A37EE877AB5EE72
:104B5800C07AF1EE10FA09D4DFED446AB4EEE67AD1
:104B6800F1EE10FAC8BFB0EE667A01E09FED407A28
:104B780082ED0F7A92ED0E7A77EE877AF5EEC07AAB
:104B8800F1EE10FA09D49FED397AF4EEC77AF1EE16
:104B980010FAC8BFF0EE477A01E0DFED357AC2EDD2
:104BA8000E7AD0E0917D1944C829A8BFC82121EA0E
:104BB800E1719175517D0B44C82BA8BFC82323EA26
:104BC800E3735375BFE0A26F117802291FD107EE76
:104BD800903AB8EEE77AF2EE047AC7EE277A92EDC9
:104BE8000A7A77EE877AF5EEC07AF1EE10FA09D4F0
:104BF8009FED1E7AF4EEC77AF1EE10FAC8BFF0EE18
:104C0800477A01E0DFED1A7AC2ED0A7A9BE0D178A3
:104C18000B44C82BA8BFC82323EAE373D37092E0E0
:104C2800A26F1178022925D107EE103AF8EEC77A5B
:104C38009FED0E7AD2ED0D6AC7EE877A77EEA67AE7
:104C4800F5EEC07AF1EE10FA07D4F4EEC77AF1EE79
:104C580010FAC8BFF0EE477A01E0DFED057AC2ED41
:104C68000D7A70E06612002000007A440000C84205
:104C780000000000517B0B44C82BA8BFC82323EABF
:104C8800E37353735FE0A26F117802291FD107EE17
:104C9800903AB8EEE77A5FED0C7AC7EE277A92ED94
:104CA800107A77EE877AF5EEC07AF1EE10FA09D429
:104CB8001FED127AF4EEC77AF1EE10FAC8BFF0EEE3
:104CC800477A01E05FED167AC2ED107A3BE0D17DBC
:104CD8000B44C82BA8BFC82323EAE373D37532E07B
:104CE800012830D138F912209878B2F5617F05DBB8
:104CF80040F633039A42B8BF134601E04FF461739C
:104D08000C2920D14FF4966292FBF0F0A3F5617361
:104D180093FBF0F394F87C20DBB29A4213D0032B78
:104D2800A74994BF1A4602220A2084F87C2000FB77
:104D38000212A448023202600293FEF7E7FB029BCC
:104D4800A14A0133137094F87020012303FA0AF37F
:104D5800134384F870300AF1010ABAF1040F09F11B
:104D68000C097FF48BAD32E5AB68D80514D5FEF796
:104D78003FFE88B1336899070ED52388DFF84C8247
:104D880013F001090ED1FEF725FEB8F8003043F004
:104D98000103A8F8003005E0238823F001032380ED
:104DA800012300E000233A68520711D583B1238814
:104DB800DFF8188223F001029B0722800CD4FEF74B
:104DC80009FEB8F8003043F00203A8F8003003E009
:104DD800238823F002032380326812F00A0F24D0BC
:104DE8003B682188DE060AD548070BD4774841F08E
:104DF80004010180764908887649088002E021F09C
:104E0800040121809E06218806D5480607D46F48EC
:104E180041F04001018002E021F0400121805B0661
:104E280003D56B4B19886C4B1980960607D43B68E1
:104E3800180540F19280238843F4807390E0674B13
:104E48001B78990753D5664B1B78042B4FD93B68C1
:104E580013F400700ED02388DA06E8D461485B4A60
:104E680023F0200343F01003011D138002F069FDB5
:104E7800022245E0218801F0100292B232B1534A71
:104E880021F010011180584A107001225E0528D5C2
:104E9800564B1B685989564BB3F900000028B8BF18
:104EA8004042884209DAB3F90230002BB8BF5B42AE
:104EB8008B42ACBF0023012300E000238BB1238881
:104EC800980620D4414A4B4843F0200313804A4BAC
:104ED800011D1A685B680260436002F032FD01221E
:104EE8000EE0238899060ED523F0200305E02388D9
:104EF80013F0300F9BD023F03003344A1380002284
:104F0800394B1A7001E0002A91D0002213463B4821
:104F18003B4E002119523B4819523B4806EB020C04
:104F280019520020CCF80000CCF80410CCF8080086
:104F380006F1280C5036944416440233042BCCF85E
:104F48000000CCF80410CCF8080030607160B06044
:104F580002F114023FF46BAFD9E7238823F480737E
:104F680023806B79082B02D00E2B40F09880238881
:104F780023F04003238092E0012200E002225FFA3E
:104F880082FA0AF1FF3385F8583702F02DFF03F053
:104F98008DFD02202821524602F040FAFFF7B9BBE6
:104FA800BAF1000F02D07E2B3FF4B1AB94F83C303D
:104FB800972B2DD1154B4FF4C8721A80FFF7A9BB58
:104FC800240E00206813002066120020BC0F002069
:104FD800AC1200204A130020981900200E1000205F
:104FE800B0110020BC1A0020CC1A00205C1300204D
:104FF80042130020C41A0020502100203E2D00201A
:10500800601B002060130020641300203A12002067
:10501800A72B05D1234B1A7842F00402FFF75ABB9D
:105028000022BB2B059201D1022303E0B72B04D148
:105038004FF6FE73ADF8163009E0BE2B01D10223FE
:1050480003E0BD2B1AD14FF6FE73ADF81430D9F832
:105058000030BDF81410B3F854200A44A3F85420C3
:10506800BDF81610B3F856200A44A3F8562008F0E5
:1050780001FF002384F83D30FFF74BBB792B04D1A7
:10508800094BDA7822F0010206E07A2B7FF441AB73
:10509800054BDA7842F00102DA70FFF73ABB07B045
:1050A800BDE8F08F0E100020FC0200202DE9F04F23
:1050B8008E4F3B78023B8DB0072B00F2B384DFE8BC
:1050C80013F008002E004F0069008000FB00550116
:1050D800A204874B874D1A686B6864339A4240F282
:1050E800A1840024844B854A1B789C420ADA2B68E9
:1050F800804ED05C30B109F0F1F8336801330134E7
:105108003360EFE729687B4B525C002A40F08A84C1
:105118001A604FF0FF325A60032300F08ABC242340
:105128000093774B019303F10C020292A3F1220042
:10513800A3F10A020621023303F03CFE002840F0E6
:105148007184704B9B6813F080026A4B06D04FF055
:10515800FF3218605A60042300F06BBC1A602DE01F
:1051680002230093684B019303F10C02042102927D
:10517800A3F11800A3F108020B4403F01BFE00285A
:1051880040F050845B4B4FF0FF3218605A600523A3
:1051980000F04FBC072300935C4B019303F10C0212
:1051A80004210292A3F11800A3F108020B4403F0B2
:1051B80001FE002840F036844E4B1860062300F0AC
:1051C80038BC4C4C236813B96360012323604A4BF5
:1051D8001D7863681D44402DA8BF4025132D6560C8
:1051E80040F32084434B1B680D2B00F22184DFE839
:1051F80003F05F070B0E121923282D3135414C524D
:10520800434804F061FC51E04248434940E04348C8
:105218004349444A48E03B4B434893F8781793F88E
:10522800792741E0374B414893F858270A2101FB79
:10523800023393F85A172BE0324B3D48B3F8D0109D
:1052480026E0304B3B48B3F8D21021E03A4B3B48BC
:10525800D9681DE03A4B3B48198819E03A4B1B685E
:10526800DB0404D5274B394893F8061110E00C23CA
:1052780023601DE0234B364893F8081193F8092161
:1052880093F8073104F076FA10E02F4B31489988EB
:1052980004F070FA0AE01B4B9A68160508D52E48E8
:1052A800B3F80C11B3F90A2104F064FA281A606003
:1052B800236801332360B5E3284B00241C60284B86
:1052C8001C60284B1C6008233B70FEF72DF90CADC1
:1052D80045F8140D0120FEF756F9234B012220460C
:1052E80029461A7004F094FC9CE300BFAE06002027
:1052F800142D0020BC0600206C000020D473010887
:105308006A740108CC060020287601085076010846
:10531800D68B0108F38B01080B8C0108138C01084C
:105328002A8C0108368C01083F8C0108538C01082F
:10533800608C0108728C0108BC110020848C010863
:1053480008000020978C0108D81B0020A48C0108B5
:10535800B48C0108D08C0108DE8C0108B806002046
:10536800B4060020B006002066120020C14B186861
:10537800002840F0BB80C04DFEF7E4FC4920AC6833
:1053880008F0ACFFBD4B186804F032FC206804F04C
:105398002FFC606805F0B4FAA06805F0B1FAE0687F
:1053A80005F0AEFA206905F0ABFA606905F0A8FAD5
:1053B800A06905F0A5FA0E2601222B68B2401A4210
:1053C80005D004EB860353F81C0C05F099FA013656
:1053D800112EF1D1B4F92800A94E05F091FAB4F9CB
:1053E8002A0005F08DFAB4F92C0005F089FAB6F810
:1053F800D030B4F92E00C01A04F0FAFB2B68D80498
:1054080008D59D4B9888B4F86430C01AC0F30D00D5
:1054180004F0EEFB2B68990403D5B4F8660004F099
:10542800E7FB2B685A0506D42B681B0510D5A06E20
:1054380005F066FA0CE0B4F96C0005F061FAB4F90D
:105448006E0005F05DFAB4F9700005F059FAEBE763
:10545800B4F9300005F054FAB4F9320005F050FA06
:10546800B4F9340005F04CFAB4F9360005F048FAFE
:10547800B4F9380005F044FAB4F93A0005F040FAF6
:10548800B6F8D030B4F93C00C01A04F0B1FB0126DC
:105498007C4B1B789E420ADA04EB46030136B3F9CB
:1054A8003C00B4F93C30C01A05F02AFAF0E72B6842
:1054B800980507D5704B9B68B3F95E00A0F2DC50E5
:1054C80005F01EFAAB68704A7049EB602B619B1AB5
:1054D8009B104B430133032193FBF1F101EB410195
:1054E8005B1A742101FB0322AA607CE2644B93F8E7
:1054F800782793F8791701381044B0FBF1F401FBD1
:105508001401914280F033825B4DFEF71BFC502062
:10551800D5F80890D5F80C8008F0E0FE2A69AB6849
:1055280010681B681844EB681B68A0EB430005F083
:10553800E7F9002409EB040208EB040350685B68F0
:105548000434C01A05F0DCF90C2CF3D1002309EB64
:10555800030108EB03020969126907AC8A1A1A5198
:1055680004330C2BF3D100221346A15801F120007B
:105578003F2820D801F108000F2806D80231032956
:1055880004D9002B08BF012300E0022304320C2AAF
:10559800EBD1012B079813D0022B1FD0089B03F0E7
:1055A80003039B0000F0030043EA0010099B03F08B
:1055B800030318431EE009AA06A84FF0000A1DE0DD
:1055C80000F00F0040F0400008F088FE099B03F04F
:1055D8000F02089B42EA0310C0B20BE000F03F0044
:1055E80040F0800008F07AFE9DF8200008F076FE72
:1055F8009DF8240008F072FE0E265FE052F80419A8
:1056080001F18006FF2E4FEA8A0A10D901F50046FB
:10561800B6F5803F02D24AF0010A08E001F5000120
:10562800B1F1807F34BF4AF0020A4AF0030A82428D
:10563800E4D16AF03F00C0B208F050FE00260AF03C
:105648000302022AA05D09D0032A21D0012A2DD104
:1056580008F044FEA059C0F3072027E008F03EFEFA
:10566800A059C0F3072008F039FEA059C0F307403D
:105678001CE000BFB4060020D81B0020B80600209C
:10568800CC060020432D0020EC1B002035C2724FB1
:1056980008F024FEA059C0F3072008F01FFEA05907
:1056A800C0F3074008F01AFEA059000E043608F0AF
:1056B80015FE0C2E4FEAAA0AC1D19DE701222B68DC
:1056C800B2401A420AD0B30009EB0302434452F82D
:1056D8001C0C53F81C3CC01A05F012F90136112EA7
:1056E800ECD1002309EB0302B2F9281008EB0302FE
:1056F800B2F928208A1A44F813200233082BF1D172
:105708000AAB06A84FF0000B53F804194FEA8B02B6
:105718005FFA82FB69B101F108060F2E02D84BF03F
:10572800010B06E08031FF2994BF4BF0020B4BF0D0
:10573800030B8342E8D14FF0000A584608F0CEFD2B
:10574800564653460BF00300022814D0032820D0F5
:10575800012838D12EB954F80A100901CBB20646EF
:1057680031E054F80A00059300F00F00184308F0E0
:10577800B5FD002605E036B914F80A00059308F0CF
:10578800ADFD059B1FE054F80A00C0F30310184351
:1057980013E054F80A003EB9C0F30720059308F057
:1057A8009DFD14F80A00EAE7C0F30330184308F037
:1057B80095FD54F80A00C0F3071008F08FFD54F85F
:1057C8000A100901CBB20AF1040ABAF1100F4FEA24
:1057D8009B0BB7D1012E02D1184608F07FFD2A682D
:1057E80012F4805606D0B9F86410B8F86430CB1AB1
:1057F8000793012691040AD50CA901EB8603B9F891
:105808006600B8F86610411A43F8141C01365305AF
:1058180012D504EB8601002309EB0300B0F96CE014
:1058280008EB0300B0F96C00C0EB0E0041F8130060
:105838000233062BF0D1033610050BD50CAA02EB68
:105848008601D8F86830D9F86820D31A41F8143C92
:10585800013600E026B1012E04D1079805F050F872
:1058680000241AE0731E04EB8602002052F8041D7F
:105878004000C0B209B140F00100013BF6D508F084
:105888002DFD4FF0000B54F82B0008B105F038F847
:105898000BF1010BB345F6DBE2E704F11803AA6844
:1058A80032F91300EA6832F913102A6932F9133011
:1058B80002220B4493FBF2F3C01A013405F020F8DE
:1058C800032CEAD10024AA6804F118035B001A44E7
:1058D8000134B2F90600EA681A44B2F906102A69D6
:1058E80013440222B3F906300B4493FBF2F3C01AB7
:1058F80005F006F8032CE6D10024504B1B789C4297
:1059080017DAAA6804F11C035B001A440134B2F9DF
:105918000400EA681A44B2F904102A6913440222FE
:10592800B3F904300B4493FBF2F3C01A04F0E8FF18
:10593800E3E72B68990506D5B9F95E00B8F95E303A
:10594800C01A04F0DDFFEB68AA682B613C4B3D49A7
:10595800EA60D21A92104A430132032192FBF1F114
:1059680001EB4101521A742101FB0233AB60364945
:105978008B681A0637D5354C354D2268D5F8703105
:105988009A420CD16268D5F874319A4207D1314AEB
:105998001368102B13D1304B1B685B060FD14820BE
:1059A80008F09CFC206804F0ABFF606804F0A8FFD6
:1059B8002368C5F870316368C5F8743111E0274A67
:1059C800234B117895F8802191420AD1244AD3F8C3
:1059D80078111068884204D15268D3F87C319A4211
:1059E80001D004F092FF1F4B1A6801321A60194B5C
:1059F8001A680132202A04D100221A60164B1A684C
:105A080001321A600EE0184B1A68184B5B68C833ED
:105A18009A4203D909F0D0F901230AE004F0D6F834
:105A28000028F7D102F0A6F928B101233B7002E063
:105A380007233B70F6E70DB0BDE8F08F432D00203B
:105A4800EC1B002035C2724FCC060020BC1A002087
:105A5800D81B0020B4060020B0060020B01100209A
:105A680050210020B8060020142D0020BC0600207C
:105A78002DE9F04F2DED028B4728A7B0044600F022
:105A8800628600F2BC802E2800F0108655D82028A7
:105A980000F00B8323D8032800F0A78114D801282D
:105AA80000F09881022840F084860420FDF742FE29
:105AB8004320FDF70FFE4C20FDF70CFE4620FDF7B6
:105AC80009FE4C2000F0FDBC042800F09781052851
