:020000040800F2
:1000000000500020CDCF000879D000085DBA00086C
:1000100079D0000879D0000879D0000800000000ED
:1000200000000000000000000000000079D000087F
:1000300079D000080000000079D000084DBA00080F
:1000400079D0000879D0000879D0000879D000086C
:1000500079D0000879D0000879D0000815B90008D7
:1000600079D0000879D0000879D0000879D000084C
:1000700079D0000879D00008D9B8000879D00008F4
:1000800019B9000879D0000879D0000879D00008A3
:1000900079D0000879D0000879D0000811B900089B
:1000A00079D0000879D0000879D0000825B8000878
:1000B0001DB8000811B8000805B8000855B90008B7
:1000C0004DB9000851B9000849B9000879D00008B5
:1000D00079D000089DB8000831B8000879D0000830
:1000E00059B9000879D0000879D000080000000054
:1000F0000000000000000000000000000000000000
:0C01000000000000000000005FF808F1A3
:100110002DE9F04F6C4B6D4D6D4E2B6000236B60E5
:100120006C4BA3B01B8803F5FF3303F5FF739B02F1
:10013000336005F051F818B909F090FA09F0B6F9F2
:1001400006F092FF00230C93634C0D930E934FF433
:10015000E0130F932368614943F480338A7B236063
:10016000A3698A4643F01003A361236803F40033B4
:100170000D930C9B01330C930D9B1BB90C9BB3F59A
:10018000A06FF2D12168544B11F4003101D0022349
:1001900015E0186840F0010018600C91236803F026
:1001A00002030D930C9B01330C930D9B1BB90C9B0D
:1001B000B3F5A06FF2D12368980732D501230E93CF
:1001C000474B196841F010011960196821F00301CB
:1001D0001960196841F0020119606368636063681F
:1001E0006360636843F4806363603E4B196821F089
:1001F000704119603C497160616821F47C11616053
:10020000196841F000411960996821F40041996032
:100210005968090406D52E4B344959604FF48013B0
:1002200002E0FEE74FF4E0130F930E9B012B16D074
:10023000022B18D16AB10F9BB3F5801F02D14FF486
:10024000A01305E00F9BB3F5E01F02D14FF400139C
:100250000F9362680F9B134343F4803302E063689B
:1002600043F460136360236843F080732360226863
:10027000194B9201FBD55A6822F003025A605A6862
:1002800042F002025A606268134B02F00C02082A24
:100290000692F8D15A68DFF85C8002F00C02042A5A
:1002A00003D0082A05D0104B00E07368C8F800306E
:1002B0002BE05A685968C2F38342CF0302F102026D
:1002C0001AD40B4B1EE000BFD94000084C0600209A
:1002D00014000020E0F7FF1F00100240941C0020D3
:1002E000002002400410014000127A00001BB700F9
:1002F00000093D00A40000205B6813F4003F736810
:1003000018BF5B085A43C8F80020636822AFC3F3E4
:10031000031333441A7AD8F80030DFF8FCB2D34024
:10032000B04AC8F80030B04BB048DA60A369DFF8D3
:10033000049343F00103A361636A43F08073636233
:10034000A36943F01C03A36100238DF85E304FF6D0
:10035000FF7327F82C3D394604F070FB58463946A8
:1003600004F06CFBA248394604F068FBA14B5A68C4
:1003700042F000725A6099E80F0087E80F00A36905
:10038000179843F00803A361A36918A943F0080371
:10039000A3610823CBF810301023CBF81030029360
:1003A00004F04CFB19981AA904F048FBA26909F162
:1003B000100942F0040299E8030087E80300A261F3
:1003C000D6F804908C4A029B9145934605D19DF83E
:1003D0006220142A08BF8DF8623018A9179804F01B
:1003E0002DFBD9450CBF854A854A864B00201A60F3
:1003F00003F033FD844B4FF0070993E80300A36932
:1004000087E8030043F00803A36118A9179804F0D4
:1004100015FB384605F076FA179B7C4AF021B3FBB2
:10042000F2F3D8F80020AB604FF47A73B2FBF3F22A
:10043000774B013A5A606C4A4FF0000882F823105B
:100440000120C3F80880C3F800900AF091FA6420F4
:1004500003F0F9FCDAF808306E4F03F400604FF057
:10046000100B059041465A4607F10C0002930EF01E
:10047000CCFE04222A7385F80F90029B02210122F0
:1004800018048DF84A10ADF848B08DF84B80AA7367
:1004900009D512233A747A74BA7487F81390ADF8B8
:1004A00048300F4600E017467368534A93420ED116
:1004B000BDF84830012243F02003ADF84830052351
:1004C0002B75AA757B1C07226F75EA75DFB247484A
:1004D00012A905F0C7FA059B7BB102234E4812A969
:1004E000ADF8483005F0BEFA092301222B76AA7632
:1004F0007B1C07226F76EA76DFB26369474843F0D8
:1005000001036361A3694FF0000843F40073A36122
:1005100005F054FB424B012F1793424BDFF8FC9040
:1005200018930CBF434680231C934FF480731D9394
:100530004FF480631E93202317A91F9348464FF45E
:1005400000531A972093CDF86480CDF86C80CDF8D5
:10055000848005F015FBD9F80030012F43F001032A
:10056000C9F80030304B98BF00215A6888BF01217C
:1005700022F4702222F4807242EA01225A609968C1
:100580002A4A013F0A4042F4602242F002029A6085
:10059000DA6AFFB222F4700242EA0757DF6241468C
:1005A0000123234A50188778002F00F08A808A5C44
:1005B0005F1C092A90F803C0FFB21B483CD9A2F186
:1005C0000A0E0EEB4E0E4FF0070909FA0EF90CFA5F
:1005D0000EFED0F80C8028EA090848EA0E0EC0F892
:1005E0000CE039E00005FA0500ED00E000080140EC
:1005F0000010014000000140001BB70075360008E4
:1006000089360008B82100207819010840420F00FF
:1006100010E000E04C060020000C01400800024001
:100620004C2401406806002000240140FDF7F1FF42
:10063000580600206019010802EB420E4FF007092E
:1006400009FA0EF90CFA0EFED0F8108028EA090813
:1006500048EA0E0EC0F810E0062BA3480FD8013B65
:1006600003EB83034FF01F0E0EFA03FE9A40D0F8FF
:1006700034C02CEA0E0E4EEA0203436322E00C2B38
:100680000FD8073B03EB83034FF01F0E0EFA03FE58
:100690009A40D0F830C02CEA0E0E4EEA02030363F3
:1006A00010E00D3B03EB83034FF01F0E0EFA03FE29
:1006B0009A40D0F82CC02CEA0E0E4EEA0203C36218
:1006C00000E01F460431102901D03B4669E7864B04
:1006D0009A6842F480729A609A6842F001029A60C5
:1006E0009A6842F008029A6099687F4A0907FBD429
:1006F000936843F0040393607B4A936813F0040308
:10070000FAD19168BAF8E60041F4A0019160774A05
:1007100050B9B2F9E83033B9B2F9EA30D3F1010394
:1007200038BF002300E0034613F0010340F08D8042
:10073000337600B20BF0FAFA69A3D3E900230BF089
:100740005BFB0BF06BFDDFF8A4810746B8F9E8000E
:100750000BF0ECFA62A3D3E900230BF04DFB0BF096
:100760005DFD0646B8F9EA000BF0E0FA5CA3D3E9B8
:1007700000230BF041FB0BF051FD814638460EF093
:1007800073FF834638460EF0E3FF804630460EF096
:100790006BFF074630460EF0DBFF064648460EF07C
:1007A00063FF824648460EF0D3FF594681465046C5
:1007B0000BF092FE5946059048460BF08DFE5146CF
:1007C000079040460BF088FE4946089040460BF0E3
:1007D00083FE3946099050460BF07EFE494668621A
:1007E00007F100400BF078FE3146A862EE620898EF
:1007F0000BF072FE014607980BF066FD3146286348
:1008000009980BF069FE014605980BF05BFD39462F
:10081000686308F100400BF05FFE3146A86305985D
:100820000BF05AFE014609980BF04CFD3146E86387
:1008300007980BF051FE014608980BF045FD59460C
:10084000286438460BF048FE6864294FDFF89C8026
:100850003B68DFF8B4B043F00E033B60254B002249
:100860001B688BF80020B3F85A30B8F8EE6098F89F
:10087000ED90059304920AF0B7FADFF890B0824643
:10088000049A002800F035831B4B142ECBF800305F
:100890001A4BCBF804301A4BCBF80C30194B16D04E
:1008A00004D8052E17D00A2E13D00AE0BC2E06D08D
:1008B000B6F5807F06D0622E03D1022202E001222B
:1008C00000E003225A76104A012313702DE004221F
:1008D000F8E70522F6E70622F4E700BFAFF3008051
:1008E000399D52A246DF913F00240140941C002014
:1008F000E401002020020020F9750008ABAD0008DB
:1009000090C1793D140000203A020020240200200A
:100910003B6823F002033B602B78002B40F0DC8027
:10092000B9F1000F00F0D4809946BE4E0023337019
:10093000BD4DB9F1080FEFD801A252F829F000BF60
:100940006509000865090008AB0900084F0A00089E
:100950009D0A00081909000819090008190900086A
:10096000110900088DF85C30B04B4FF0000A5A684E
:10097000AF4B9A4216D053205146012217AB0AF0D2
:10098000FBF878B19DF85C30E52B0BD1A94BAA4A56
:1009900083F849A0A94B1A60A94A5A6001232B7019
:1009A00004233370B9F1010FB6D00AF01DFA002804
:1009B0004DD0062117AB68200A460AF0DDF89DF8F5
:1009C0005F309DF861B003F001035B000BF0010B99
:1009D00043EA8B0B9DF85D30DFF858A203F001036A
:1009E0005BEA030B08D0BBF1010F01D1002317E034
:1009F000BBF1020F0BD112E012AB68200C210122D7
:100A00000AF0BAF89DF8483013F00F0302D1052020
:100A100001F0E1BA042B02D18AF84AB002E00123C6
:100A20008AF84A30854B874A1A60874A5A609AF892
:100A30004A20002A14BF6E226F221A7202232B70E2
:100A4000B9F1020F4FF0010333703FF465AF00239B
:100A50008DF85C30754B5A68754B9A421ED01C203D
:100A60000D21012217AB0AF087F8B8B19DF85C3070
:100A70002A2B01D01A2B11D1704A7449B9F1030FF6
:100A80001160734951606B4A82F84B304FF0030399
:100A90002B704FF0020333703FF43EAF002122ABC6
:100AA00003F82C1D182001220AF066F800283FF4F4
:100AB00033AF9DF85C30FB2B7FF42EAF5F4B654A64
:100AC0001A60654A5A6004232B700123337023E7B0
:100AD0003B6823F002033B60544B5D68544B9D42DE
:100AE00013D0A3695D4843F01003A36102234FF4C0
:100AF00000548DF85F3017A910238DF85E30ADF8E3
:100B00005C4003F09BFF554B5C610A2003F09BF9AE
:100B10007720A021012212AB0AF02EF8454E0028C2
:100B200076D01E21012277200AF02AFF4FF42F6091
:100B300003F07EF90024A4F160014FF00009C9B26E
:100B4000022217AB77208DF85C908DF85D900AF04B
:100B500013F89DF85D309DF85C1043EA0121354B98
:100B600003F14C02A1520234102CE4D1B3F85A0024
:100B700000F00F0100F47F40A3F85A00012332F87F
:100B8000094009F10209002C18BF0023B9F1100F28
:100B9000F5D1002B40F03C821A46541012F0010FA0
:100BA00006EB440404D094F84C406340082404E06D
:100BB000B4F84C4083EA1423F8E713F4004F18BF4D
:100BC00083F4C053013C4FEA4303F6D10132102AAB
:100BD000E3D1C3F3033308439942164AA6F85A00F7
:100BE00040F0168242F21073A2F88430A2F88630E8
:100BF0001B4BC2F888301B4BC2F88C301A4BC2F822
:100C000090301A4BC2F89430194BC2F898301BE15F
:100C10008146074B9D422DD13B6823F004033B6086
:100C200012E100BFA2020020B42100201400002025
:100C3000001BB7004C060020A175000890020020A0
:100C40005DAF0008F93B00086DAD00082177000892
:100C500083AE00087D75000819AF00080010014040
:100C60003B750008C5AC000831750008D5AC00081C
:100C7000C539000896F85C30C94C002B40F0E48080
:100C800003F1804303F504339A69C64D42F0100224
:100C90009A6102234FF400568DF8473028461023FE
:100CA00011A98DF846304FF4804AADF8446003F046
:100CB000C5FE11A9042328468DF84630ADF844A09E
:100CC00003F0BCFEB84B2E615A6912A822F4706280
:100CD0005A615A6942F400725A6108238DF84C90A7
:100CE0004FF001098DF84D30CDF848A08DF84E90A9
:100CF00004F060F928238DF8403010A80F238DF8F8
:100D000041308DF842308DF8439004F0CFFF14202D
:100D100003F099F84A460DF12F037720D02109F00E
:100D20002BFF9DF82F300322552B84F87730A4F841
:100D3000802018BF6E617FF46FAFD1214A460DF15C
:100D40002F03772009F018FF9DF82F30772003F04C
:100D50000F021B0984F8782084F87930162217AB2B
:100D6000AA2109F009FF9DF85C209DF85D3043EA57
:100D70000223A4F860309DF85E209DF85F3043EABE
:100D80000223A4F862309DF860209DF8613043EAA8
:100D90000223A4F864309DF862209DF8633043EA92
:100DA0000223A4F866309DF864209DF8653043EA7C
:100DB0000223A4F868309DF866209DF8673043EA66
:100DC0000223A4F86A309DF868209DF8693043EA50
:100DD0000223A4F86C309DF86A209DF86B3043EA3A
:100DE0000223A4F86E309DF86C209DF86D3043EA24
:100DF0000223A4F870309DF86E209DF86F3043EA0E
:100E00000223A4F872309DF870209DF8713043EAF7
:100E10000223A4F8743041F2707384F85C90A4F853
:100E2000843046F67813A4F88630604BC4F88830D6
:100E30005F4BC4F88C305F4BC4F890305E4BC4F805
:100E400094305E4BC4F8983098F8E2300BB15C4AAD
:100E5000137098F8E3300BB15A4A137098F8E430E5
:100E60000BB1594A13703B68990702D5574B1B6861
:100E70009847574C22AE23689847002306F82C3D2C
:100E80001E200A210122334609F076FE38B19DF872
:100E90005C30482B03D14C4B03221A7003E03B68B3
:100EA00023F008033B603B683D4C13F0080F1CD057
:100EB00005984FF0640A0FFA80FB9BFBFAF5284671
:100EC0000BF0B6FA81460AFB15B000B20BF0B0FA8F
:100ED00040490BF001FB014648460BF0F5F93E494D
:100EE0000BF0FAFAC4F89C0095E00023C4F89C309B
:100EF00091E0192002F0A7FF17AB68200F21012213
:100F000009F03AFE9DF85C30D32B1BD1334B4E2EAB
:100F1000CBF80030324BCBF80430324BCBF80C30EE
:100F20000AD05D2E0AD0362E1D4B0ABF402283F810
:100F300048A083F8482067E0802300E0C02385F8BC
:100F4000483061E0192002F07EFF682015215246EA
:100F50000AF016FD002801F03D80234B622ECBF8ED
:100F60000030224BCBF80430214BCBF80830214B1A
:100F7000CBF80C30204B0FD004D80A2E42D0142EC0
:100F80003ED03BE0BC2E05D0B6F5807F36D183F84D
:100F90001AA039E0012200E002229A7634E000BF74
:100FA0004C06002000100140000001406975000857
:100FB00035AD000845750008E5AC00081D3B00088C
:100FC0003A020020A2020020BC2100209002002052
:100FD000240200208988883C00002041E97600082E
:100FE000DBAE0008325C8F3D9976000845AE000804
:100FF00013AE000890C1793D140000200322CCE715
:101000000422CAE70522C8E79148012303708CE453
:101010004FF00009FDE58F4B10225A6108221A613A
:101020004FF00A0A8B4D1920EB680AF1FF3A83F062
:101030001003EB60EB6883F00803EB6002F003FF42
:10104000012002F00AFF192002F0FDFE002002F04C
:1010500004FF1AF0FF0AE5D108232B6110232B614E
:101060007D4B7E4D1B6893F90C000AF05FFE74A364
:10107000D3E900230AF0C0FE0BF0D0F80EF0F4FA2A
:10108000824628880BF0D4F951460BF025FA0EF071
:1010900021FB734B188028880BF0CAF90146714870
:1010A0000BF0CEFA70490BF0CBFA704AC4F8A000EE
:1010B000D0680AF04DFE62A3D3E900230AF09CFE3B
:1010C00061A3D3E900230AF097FE0BF0A7F8684B61
:1010D00098F805101860674B674A1970674B02EB68
:1010E000C10191F82110C4F8A430654B1960D8F8FB
:1010F00008108A0602D56248012303603B681B077B
:1011000040F10B815348102343615E4B5E4A5B689C
:10111000934210D15D4B12A99A6942F008029A617C
:101120004FF48053ADF8483002238DF84B30042340
:101130008DF84A300DE0564A93420CD1534B22A908
:101140009A69544842F010029A614FF4804321F8A2
:10115000403D03F073FC322002F075FE00211122A5
:101160001E200AF00DFC012160221E200AF008FC5E
:10117000642002F068FE304609F056FD00254FF06D
:101180000A0BA946AA46022101221E200AF0F8FBFA
:10119000322002F058FE304609F046FDBDF95C10E1
:1011A000BDF95E00BDF960208A448842B8BF01469F
:1011B00015449142B8BF0A4612F5805F81440ADDAA
:1011C000244ABBF1010BD16881F01001D160DAD162
:1011D0004FF0010B01E04FF0000B1E200021122206
:1011E0000AF0CEFB4FF00A0C022101221E20CDF89E
:1011F0000CC00AF0C5FB322002F025FE304609F093
:1012000013FDBDF95C10BDF95E00BDF96020C1EBB6
:101210000A0A8842B8BF0146AD1A9142B8BF0A46D1
:1012200012F5805FC0EB0909DDF80CC034DD094A16
:10123000BCF1010CD16881F01001D160D4D12DE056
:10124000399D52A246DF913F000000A0F7C6B03E94
:101250003A020020000C0140DC02002000000020C7
:10126000000300200AE81C4100401C462402002024
:10127000D8020020EE03002060190108A41C002001
:10128000100500201400002000127A000010024017
:10129000001BB700001001404FF0000B50460BF050
:1012A000C7F8014698480BF0CBF9984E20F0004063
:1012B000F06148460BF0BCF8014693480BF0C0F9CA
:1012C00020F00040306228460BF0B2F8014690480A
:1012D0000BF0B6F920F000407062002170221E2051
:1012E0000AF04EFB012120221E200AF049FB1E209D
:1012F000022100220AF044FB642002F0A4FDBBF1AD
:10130000000F04D14FF07E53F36133627362814B5F
:1013100010221A61012384F8A8307F4D00214FF478
:10132000A07205F1AC000DF070FF7C4BDA6942F061
:101330000702DA619A6942F4006242F00C029A6193
:10134000774BC4F8EC3103F0F9FF162205F5F8707D
:10135000FF210DF05AFF002284F8F0213A680123A2
:10136000960784F8063207D585F8F131032385F80E
:101370000632022385F8F231500708D594F8063278
:10138000591C84F806122344032183F8F011D8F87D
:101390000830990508D594F80612481C84F806020E
:1013A0002144042081F8F00112F00A0F14D094F8BF
:1013B00006220520A11881F8F001511CC9B2214470
:1013C000062081F8F001D11C0232D2B284F8061254
:1013D0002244072182F8F0119F0608D594F80622CE
:1013E000511C84F806122244082182F8F0111E06CE
:1013F0000ED594F806220A20A11881F8F001911C5C
:101400000132D2B284F8061222440B2182F8F01184
:1014100098F80520082A01D00E2A08D194F806224F
:10142000511C84F8061222440C2182F8F01194F821
:1014300006220D26A518511CC9B285F8F0615D077A
:10144000354884F8061206D5023280F80622014497
:10145000112281F8F02194F806221326A51885F8A8
:10146000F06198F84151511CC9B2002D0CBF002306
:1014700003F00103284884F8061233B10232014414
:10148000142380F8062281F8F03194F806322548BA
:101490005A1C84F806222344152283F8F0210021E7
:1014A00098220DF0B2FE0025D8F82C214FF000094B
:1014B0000026009601203146032309F079F80746FB
:1014C00038B9B9F1000F2FD14FF496424FF001090E
:1014D000EEE7012DE8D84C2202FB05F3DFF844903B
:1014E00005F1010B09EB03052846314602930DF087
:1014F0008CFE029B5FFA8BFB49F80370012385F891
:101500004A305D46D0E700BF00406F46140000201F
:1015100001C05E46000C01404C0600200010024055
:10152000BC1D002054080020022002F0A2FBD4F8C9
:10153000EC510146C4F8A00240B9009103230220F7
:10154000AA6809F035F8BA4BC3F8A00212A8002126
:1015500012220DF05AFE98F805300E2B01D0082B00
:1015600002D101238DF85030B24DAE6816F400560A
:1015700016D1B14A0023B05CD75CD118874203D0A2
:101580001033602BF8D1002105F003FC83681B7831
:10159000012B03D01036602EEBD100238DF84B3099
:1015A000AB68A648C3F3801201688DF84C20C3F3E2
:1015B000403200318DF84820A148C3F3C03218BF33
:1015C00001218DF84A20C3F300428DF84D208DF89B
:1015D0004E1003F0010201688DF8492091F82A119C
:1015E000B5F8E060C1F380018DF84F10B5F8DE105A
:1015F000ADF85460DF044FF47A76ADF85210ADF8D0
:10160000566004D58B4BB3F8DA30ADF85630B1F5EF
:10161000FA7F84BF0023ADF85630B5F818318949F8
:10162000ADF8583095F8203184F8A432002384F8BE
:10163000A5324B709DF85030002B14BF02230023BD
:1016400002B10133804A4FF0000802EB8303D3F864
:101650003831C3460593059B4FF6FF7233F8087087
:101660009742FBB20CD1794B94F8A5221A70784BB3
:1016700093F80080B8F1160F40F05281002641E146
:101680009DF84B201AB19A1E012A40F226819DF83E
:101690004C201AB11A1F032A40F21F81DFF8D0A193
:1016A0009DF84D204FEA03190AEB09062AB15AF8B2
:1016B000092068498A4200F010819DF84A2012B141
:1016C000012B00F00A813F0A022F05D19DF8482026
:1016D000002A08BF002703E0012F08BF9DF84970CA
:1016E0009DF84E203AB19DF8502022B9A3F108028E
:1016F000012A98BF04279DF84F2032B19DF8502051
:101700001AB9043B032B40F2D080012F3BD1484A49
:101710000023FF2182F8A832C2F8AC32C2F8B032FE
:10172000C2F8B432C2F8E83282F8EC1282F8ED1254
:1017300082F8EE32F17B82F8EF3282F8F032C2F8B2
:10174000FC62B2687068ADF85C208DF85E10022211
:1017500017A98DF85F20029303F070F9029B5AF8E5
:1017600009001A46317B04F089F830463A464FF6B4
:10177000FF7108F0E1FC029B30461946364A374BB0
:1017800003F0D6FBA9E0022F38D15FFA8BF3DFF824
:10179000E4E018010EEB000100224FF0010C4B7049
:1017A0008A708A720EF800C0CE60B16896F80FE0B9
:1017B0007068ADF85C1017A98DF85EE00293CDF863
:1017C0000CC004928DF85F7003F038F95AF80900E4
:1017D000317B049A04F052F8DDF80CC030466246C2
:1017E0004FF6FF7108F0A8FC029B304619461C4AD0
:1017F0001C4B03F09DFB0BF1010B6EE0032F52D14C
:10180000BDF852300A4FB3F5FA7F97F8A69233D954
:10181000154A3046B2FBF3F20821BDF8563092B2B9
:1018200008F046FA07EB8907C7F870030F4B32E060
:101830004C060020941C0020381A010810050020D6
:1018400020020020F108002060190108CC040020CB
:10185000EE030020000400407B38000881390008B6
:10186000B95800085539000800127A00A13900085B
:10187000142F01083C090020884A3046B2FBF3F2DD
:101880000121BDF8563092B208F012FA07EB890731
:10189000834BC7F870038360824B93F8A622013212
:1018A00083F8A62219E0042F17D1BDF854307B4AE3
:1018B0007C4F92FBF3F23046BDF85830012192B2D2
:1018C00097F8A59208F0F4F907EB8903C3F8A00391
:1018D00097F8A532013387F8A53208F10208B8F16C
:1018E0001C0F7FF4B8AEBEE66F4F99E80F00374487
:1018F00087E80F006D4B10361A78C02E02F10102F6
:101900001A7009D0D4F8A4300021985903EB0609C5
:101910000AF076FF0028E7D0AB68DE041ED418E09A
:101920006348624A00EBC80393F820E0D3F824C070
:1019300082F800E0BCF1000FEED000267645EBDA2D
:10194000594F33011F4463440FCB013687E80F0022
:10195000F4E7B8F1080F574F26D128E0534B93F81E
:101960000090B9F1010FF4D9534E00274F4506F10D
:101970001006EEDA56F8100C4FF07C510AF0ACFD70
:101980004FF07C5146F8100C56F8140C0AF0A4FDE8
:101990004FF07C5146F8140C56F80C0C0AF09CFDE4
:1019A000013746F80C0CE1E7B8F10E0F03D13B7894
:1019B00043F0100302E03B7823F010033B7008F083
:1019C0009FFB3E493E4B3F483F4AC4F8C433016049
:1019D0000023B5F81801C4F8C013A4F8CA3384F87A
:1019E000CC33C4F8D023C4F8D42338495852023336
:1019F000242BFAD1364B2B4C1A60AB6813F0080F2E
:101A000000F09180334B93F81631032B00F2858060
:101A1000DFE803F00202296E012B4FF0030208D128
:101A200084F8D823072284F8DA3384F8D9230C23E6
:101A300008E0022384F8D833002384F8DA3384F8EA
:101A4000D923072384F8DB330023009308200123E4
:101A500021494FF4E13208F0ABFD204BC4F8E0031C
:101A6000C4F8E43355E0012300931D490523082001
:101A70001C4A08F09DFDB5F81811C4F8E803A1F55B
:101A8000777149000023184A99500433302BFAD15A
:101A9000164BC4F8E4330C2339E000BF40420F007A
:101AA000913900084C060020F40300208421002016
:101AB0006019010802030020FC030020A21D002081
:101AC000A81A01081C010020100A0020CE040020E2
:101AD000D8010020941C0020153D0008A9350008FD
:101AE000D53D0008A08601003C01002049360008D1
:101AF00000230093082001233B494FF4E13208F012
:101B000057FD3A4BC4F8EC03C4F8E433102384F8CF
:101B1000DB33003018BF012028B9082002F012FE84
:101B20000023C4F8E433AB68580405D5082284F8D0
:101B3000DB232F4AC4F8E42342F201021A4003F0E7
:101B4000010103F400505AB12A4AC4F8E42318B141
:101B5000294A082082F8DB0311B10C2284F8DB2328
:101B600094F8DB231906A2F1040284F8DC2359D58A
:101B7000214B224AD5F83411C3F8F0230023204A20
:101B800002EB0310D0F874011646884204D00133EA
:101B9000DBB2042BF3D9002384F8F533194B002072
:101BA000C4F8103402F0B4FF174B94F8F5231B6807
:101BB0000021C4F8FC3395F8253106EB02128B4264
:101BC000C4F8F8134FF010000091D2F874210CBF44
:101BD0000123032308F0ECFCC4F81404B0B98020FE
:101BE00002F0B0FD15E000BF613D00083936000885
:101BF0005D360008693600084C060020BC1D002038
:101C000060190108B91D0020901C0020012002F07D
:101C10007FFFA04B1868A04B00F5967204301A6045
:101C200002F036FEAB689A050DD59B044CBF9B486D
:101C30009B4805F015FC9B4B1A6842F010021A6095
:101C4000994B00221A60AB68DE0340F1F780DFF8A1
:101C50009C929648D9F8183010A943F00403C9F8AB
:101C600018304023ADF8403018238DF8433003235B
:101C70008DF8423003F0F6FED9F81C308C4E43F05C
:101C80000203C9F81C308B4B4FF0010A1A688A4BCB
:101C90004FF00008B2FBF3F23388013A23F45C738F
:101CA0001B041B0C338092B21D23B3853285A6F82A
:101CB00014A0338CA9F6947923F001031B041B0CA8
:101CC0003384338CB188328B23F0020322F0730209
:101CD00012041B04120C1B0C89B242F0600243EA8E
:101CE0000A03B1803283A6F834803384338B4FF0FB
:101CF000100B23F008031B041B0C43F00803338371
:101D0000B6F844306FEA43436FEA53439BB2A6F8F8
:101D10004430D9F8A83F43EA0A03C9F8A83F484627
:101D200003F04CFF654B48461793654B17A9189372
:101D300040F2CA231A9380231C934FF480731D939F
:101D40004FF400532093CDF864B0CDF86C80CDF8FB
:101D50007880CDF87C80CDF8848003F011FFB389C2
:101D600011A89BB243F40073B381D9F8003043F05B
:101D70000203C9F8003002238DF844B08DF845A065
:101D80008DF846308DF847A003F090FF4D4B4E4A3A
:101D9000188808EB020128F80200987808F1030877
:101DA000B8F1540F887091461E46EFD108F0F7F94C
:101DB0000023318809EB030229F80310B1780333BB
:101DC000542B9170F5D108F0EAF900221146134620
:101DD0003E48085C04310609964200F00F00A8BF97
:101DE000721C9842A8BF431C7029F1D184F8E226E6
:101DF000374A384913705A08013AD2B222F001002A
:101E000008703549D0070A7005D50132013B9A4266
:101E1000B8BF13460B7094F8E216304A4B08013BEA
:101E2000DBB223F0010013F0010F10702C4A04D034
:101E3000013301398B42A8BF0B461370AB685A05BA
:101E400040F18A80042005F096F80146042004F051
:101E5000A0FF18B14368187A00F00100AB6884F85D
:101E6000E30613F480690BD0042005F084F80146E2
:101E7000042004F08EFF10F1000918BF4FF0010993
:101E8000184B83F80090184B1E68337883BBC4F856
:101E9000E46657E020020020DC030020201B01083C
:101EA0002C1B0108E4010020A000002000080140D4
:101EB00000040040A400002000366E0134040040FD
:101EC000640A00205A190108E4050020841801085A
:101ED0004506002040060020420600204306002060
:101EE00041060020140500201805002000100240C3
:101EF000012B27D1DFF80881002140462C22C4F8AD
:101F0000E8660DF082F98E2388F801304FF07C0BE3
:101F1000E0234FF07D0A88F8033088F800B088F895
:101F20002BA0DFF8E080002140462C220DF06DF957
:101F30008A2388F80130A02388F800B088F803309D
:101F400088F82BA03378022B08BFC4F8EC66B9F1EF
:101F5000000F01D008F098FB01F0C2FE204B186082
:101F60006B79052B03D11F4B4FF4C8721A801E4B9F
:101F70004FF47A721A801D4BC8221A803B7843F0C6
:101F800008033B701A4B1A7822F002021A70AB68F1
:101F90009B0722D5174BC4F8F03603F067FF2820C3
:101FA00001F051FF069801380690F6D1124B95F8D2
:101FB000051118780A460123904203D30133082BF8
:101FC0000A44F9D10D4A137095F806215343A4F839
:101FD000F43602E0032001F08BFF23B0BDE8F08F60
:101FE00050030020A4020020AC210020B2210020D8
:101FF000B0210020981D0020320500209C00002008
:102000004C050020790500202DE9F04F6E4E93B06D
:1020100033685A1C3260042B01F2A782DFE813F008
:10202000050084008A0AEE003C03684B1B68180711
:1020300041F19B82664B644D1C687368E31A002B68
:10204000C1F2938204F5C3346248A0346C6008F096
:10205000EBFD614B5F481A78014603F04DFE5F4B84
:102060001A781F4612F0040F12D0AC6000235C49AE
:1020700000201944A1F8FE0056495A48595A1952ED
:10208000063019520233062BF1D122F004023A70C5
:10209000554B1B7883B14F4B514A1888B2F8FE104C
:1020A000411A19805888B2F80011B2F80221411A79
:1020B000598099888A1A9A80B368434A002B01F0A4
:1020C00054824A49E41A8C4202F10C0002F11201D6
:1020D00017D8474BDA6882F00802DA6000233D4ADD
:1020E000C55E9A5A14B2A542C4BF3E4D5A53CD5E46
:1020F000A542BCBF3F4C1A530233062BEFD101F06F
:1021000034BA00239360C55ECC5E354A2C44022568
:102110001A442B4494FBF5F4062BA2F8FE40F2D1AE
:1021200007F090FA01F021BA284B1B68590741F1DA
:102130001C82274BB2691B68234C9A1A002AC1F2F1
:102140001482A361237F012B11D003D3022B21D052
:1021500001F00BBA284DAB689847EB68984701230C
:1021600023776A88A3691344A36101F0FEB9224D65
:102170002B6998476B689847A3692A8804F1200067
:102180001344A36104F124016B6998470223237768
:1021900001F0EBB9256BE16A2D784B1C0020AB42B6
:1021A0002077A76A226A03D1012384F834300346DA
:1021B00006EB81018A6306EB8301896B3A44521A6C
:1021C000F362B26201F0D1B9440D0020E4010020B5
:1021D000A02100201C030020BC21002002030020BD
:1021E000941C0020500D0020F40600207FC3C9017C
:1021F000000C0140560D0020D0060020AD4B1B689E
:102200005A0702D596F8342012B9DB0641F1AD81A8
:10221000A94BD6F8F8201B68A84CC2EB030946F27C
:10222000A712914541F2A181A54DC4F8F8302B8841
:1022300063B3236BD4F8FC201878A36A0138B3FB8E
:10224000F0F0082392FBF3F1521A1044C4F8FC009A
:1022500090FBF3F00AF0ECF89A490AF0F1F99A4988
:102260000DF006FB01464FF07E500AF02BF897491F
:102270000AF032F90AF0F6FA2B88C4F80001013BA3
:102280002B800023C4F80431C4F80831356BB36ADD
:1022900028788F4F0138B3FBF0F00AF0C5F8894970
:1022A0000AF0CEF988490DF0E3FA01464FF07E506E
:1022B0000AF008F885490AF00FF90DF00BFA6C687E
:1022C000824638680AF0B4F821460AF005F98046DB
:1022D000D6F80001C0EB0A000AF0AAF821468246AF
:1022E0004FF07E5009F0EEFF014650460AF0F4F838
:1022F0000146404609F0E8FF0DF0ECF9754B8046C9
:10230000B3F90040B3F90230002CB8BF6442002B8F
:10231000B8BF5B429C42B8BF1C4624B26E4BFA2C3D
:1023200018689A4614DC0AF083F8834620460AF0BF
:102330007FF80146694809F0C5FF014658460AF092
:10234000CBF866490AF07CF90AF08CFA044601E001
:102350004FF0FF34631EC62BCAF8004005D8C4EB0B
:102360000803C6F80C313C602BE0D6F80C31002C89
:10237000C3EB080802DCC7F8008022E0C4F59670C1
:102380000AF056F856490AF05BF9064620460AF06C
:102390004FF831460AF0A0F8044640460AF048F8E3
:1023A000314680464FF07E5009F08CFF0146404692
:1023B0000AF092F80146204609F086FF0AF052FA28
:1023C0003860484B484F186803930AF02DF8474986
:1023D00004460AF081F88346B8680AF029F8444AAE
:1023E0000646106805920AF023F8014630460AF0C6
:1023F00027F94049069009680AF06EF821460AF06C
:102400006BF8334907900E684FF07C510AF064F87E
:1024100059460AF061F8294C8446D4F8048159469B
:102420004046D5F80CA0CDF810C00AF055F8DDF8FC
:1024300010C00146604609F047FFD4F8081109F0C2
:1024400043FF51460AF048F88346304609F0F0FF52
:10245000514684464FF07E50CDF810C009F032FF4F
:10246000DDF810C0014660460AF036F801465846CD
:1024700009F02AFF0799C4F808018246404609F08E
:1024800023FF059A0021C4F8040139607960B9601E
:102490001160039B80461960094B1B88002B41F09B
:1024A00064800D4B144F1B68013BC62B26D83E6041
:1024B00028E000BFE4010020A0210020440D0020FE
:1024C000B221002080E6C547B1DC423ED048874AB1
:1024D0002C0500200C030020A00000200000614417
:1024E0000000C842A821002030030020BD378635F7
:1024F00040030020EC0600200402002050460AF0B1
:10250000B1F93860D4F81001301A09F091FFAE49E2
:1025100009F0E2FF8246484609F086FF0146504630
:102520000AF08EF80AF09EF940F2DC53A74A98426E
:10253000A8BF18469042B8BF10460A21C4F81061DF
:1025400001F07EFFAD6881462946404609F0C4FF90
:102550000646484609F06CFF294680464FF07E50FB
:1025600009F0B0FE0146404609F0B6FF014630468C
:1025700009F0AAFEC4F804010DF0ACF8052181466B
:1025800001F05EFF924A934B1188186001F21F31EF
:1025900089B240F23E639942D4F8148108D8508839
:1025A00000F21F3080B298428CBF0020012000E072
:1025B0000020002869D0884B1B780BBB874B8848CC
:1025C0001A683B680A21D31AB3F5FA7FA8BF4FF403
:1025D000FA738342A8BF184601F032FFD4F81831CD
:1025E000DD788023684390FBF3F5B5F5967FA8BFAF
:1025F0004FF49675A3F5D6739D42B8BF1D4601E012
:10260000784B1D68D4F81831C9EB05095E7A202291
:1026100009FB06F696FBF2F6B6F5967FA8BF4FF4D7
:102620009676A2F5A6729642B8BF16466E4ADD7C33
:102630001168587F09FB05156C49B5F5C81FA8BF7F
:102640004FF4C8158D42B8BF0D46156009F0F0FE75
:1026500041460746069809F037FE0146384609F01C
:102660003BFF4FF06C5109F037FF0AF0FBF86FF0B9
:1026700095039628A8BF96209842B8BF1846301AEE
:102680004FF4005695FBF6F52844594B069A18600E
:10269000C4F8142100F069BF564B9B681F0640F137
:1026A0006487554B1B68BBB9544C2378013B042B02
:1026B00000F25B87DFE813F06306630663062D070D
:1026C0001307206801F045FC4D4B04461B681B783E
:1026D0004BB1012B00F03E81474C206801F03EFCDD
:1026E0000028EED1E0E72428464D0CD006D80A2871
:1026F00000F0D0800D2800F0CD8012E12A2809D00A
:102700002C2807D00DE185F81C3185F81D3185F89E
:102710001E311CE195F81D2195F81C612A44002109
:10272000384B82F81F1146BB93F81F2183F82E61A6
:10273000472A22D193F82021502A1ED193F8212133
:10274000472A0AD193F82221472A06D193F8232158
:10275000412A02D1012283F82E2195F82121294B0B
:10276000522A0AD193F822214D2A06D193F8232127
:10277000432A04BF022283F82E2195F82E31214FDF
:10278000012B02D0022B62D077E0B31E072B74D846
:10279000DFE803F00409143A4551735702F0A2FC34
:1027A000C5F8300169E095F81F21164B532A64D112
:1027B000D3F830215242C3F830215EE002F092FC9F
:1027C000C5F8340159E000BF0024744924FAFFFF22
:1027D0000C03002028050020D40300200002002064
:1027E0000CFEFFFFD0030020140200200000E7FFD2
:1027F00018020020941C0020600A0020400A0020DB
:102800005C0A0020440D002095F81F21BE4B572A7A
:1028100033D1D3F834215242C3F834212DE095F856
:102820001F31302BB94B1A788CBF42F0020222F0D4
:1028300002021A7021E0002002F0AEFC85F8380197
:102840001BE0002002F0A8FCA5F83A0115E0072ED5
:1028500007D0082E11D1012002F09EFCA7F83E01FE
:102860000BE0012002F098FC41F2184358434FF46A
:102870007A72B0FBF2F3A7F83C31013600232A2C20
:10288000A14A85F81C6185F81D3159D1012182F8D2
:1028900040115CE095F84031002B3ED09A4B93F804
:1028A0001F31402B04D9A3F137021201D2B202E04A
:1028B0001B0103F0F00295F8203195F81E11402B12
:1028C0008CBF373B303BDBB21344DBB299428E4ABC
:1028D00022D192F82E31012B0AD0022B1CD18C4B25
:1028E000B2F83C111980B2F83E31A2F8423113E03F
:1028F000864909788E0710D58649D2F830010860DC
:10290000D2F83401486092F8380183490870B2F86F
:102910003A11824A118000E00023002285F840210C
:1029200015E095F81D31784A0E2B05D8591C134433
:1029300082F81D1183F81F4195F84031724A2BB976
:1029400092F81E114C4082F81E4100E0002303F073
:1029500001034BE16C4B002193F84421082A00F25B
:102960004481DFE802F00B05141E2F4062818E00C7
:10297000622C01D1022207E083F84411B52C40F00B
:10298000348193F84421013283F844212DE103225C
:1029900083F8442183F8454183F8464183F8474151
:1029A00023E1042283F8442193F8462193F8471148
:1029B0002244D2B283F846210A4483F8472183F89F
:1029C000484112E1052283F8442193F8462193F807
:1029D00047112244D2B283F846210A4483F84721A2
:1029E000A3F84A4101E1062183F8441193F8461106
:1029F00093F847012144C9B283F84611014483F892
:102A00004711B3F84A11404A01EB0424A4B2B4F5CB
:102A1000007F89BF0021A2F84A41A2F84A1182F83A
:102A200044110022A3F84C21DFE093F8462193F8EB
:102A300047112244D2B283F846210A4483F8472141
:102A4000B3F84C21C72A03D82F49114481F85041CB
:102A5000013292B2A3F84C21B3F84A31934240F0CC
:102A6000C4800722284B8FE7082283F8442193F87B
:102A70004631A34200F0B980234A002382F8443152
:102A8000B4E083F8441193F847111F4AA14240F083
:102A9000AC8092F84811062959D004D8022913D0E5
:102AA00003293FD0A1E012296AD0302940F09D804F
:102AB00092F85411102988BF102182F81B1293F844
:102AC0001B42174900226BE01249D2F854014860BA
:102AD000D2F858010860D2F860114FF47A7091FB77
:102AE000F0F10E48018092F81812084A19B11178D5
:102AF00041F0020102E0117821F00201117001227F
:102B000083F8192263E000BF440D00200203002077
:102B1000A60500204005002078050020AA05002019
:102B2000940E002092F8551111F0010105D092F891
:102B30005421D41E6242624100E00A4683F8182202
:102B4000002A44D1844A117821F0020116E092F85B
:102B50005B1111F0010105D092F85A21D01E4242BA
:102B6000424100E00A4683F8182222B97A4A1178D5
:102B700021F00201117093F87F11784A117026E05C
:102B8000D2F8641176480180D2F8681142F21070D0
:102B900091FBF0F1A2F84211012182F81A1216E01D
:102BA000A24201F10C0112DA6E4811F8045C11F82E
:102BB000036C155400F11005565511F8016C00F125
:102BC000200556550D78303015540132E8E793F85A
:102BD0001932654A4BB192F81A3233B1002382F8A8
:102BE000193282F81A32012300E00023002B3FF44F
:102BF00073AD5E4B5E4E9A68DA6032689A605D4BE8
:102C00001A6842F020021A605B4B1A78012A0CBF46
:102C1000002201221A70504B1A7891077FF55CADA3
:102C20004E49097804297FF657AD5449097801F0D7
:102C3000040101F0FF0011B922F001021A701B78A3
:102C4000454F13F0010F484C4D4D11D180B19A07FB
:102C50000ED54C4B28686A6818605A6001F0FAFD7E
:102C6000494B1B88A4F85C323B7843F001033B706E
:102C700094F85E324FF00509013393FBF9F909EB43
:102C80008909C9EB0309414B41491B7884F85E92DD
:102C900007938B1D03EB890909910023DFF8E0E01E
:102CA0003C4F03EB0E0253F80E0008923A4A90FB99
:102CB000F7FC02F1080743F807C0384F985007FBAC
:102CC0000C0742F21070099997FBF0F080B221F8DE
:102CD000020F02F1100A03EB830B0690099153F8DF
:102CE0000A0059F80B1049F80B70C1EB000808EB0B
:102CF0000700284F4FF0050843F80A0090FBF8F052
:102D000007FB0C000799183201299850774608D123
:102D1000DDF818E0AEF10202B2F5797F9CBF0899A8
:102D200008600433082BB9D1DFF83C803068D8F84C
:102D3000AC32C01A09F078FB194909F081FC3368FC
:102D40004FF07E51C8F8AC32814609F063FD48BBB4
:102D50004FF07E5027E000BF0203002078050020DE
:102D6000A6050020600F0020440D0020400A00202E
:102D7000901C0020E4010020BD210020B021002093
:102D800040050020201700202203002030170020DB
:102D9000A20F002080969800D00F0020806967FF66
:102DA00000007A4448460EAAC4F8B002BE4B009216
:102DB0000FAA019297E803000CCB01F009FD0E9BCE
:102DC000BA496422B3FBF2F30F980B80B84B90FB27
:102DD000F2F21A80B74AB84E127812F0010208BF18
:102DE0001A8098F8B43208BF0A80002B3AD0D6F87F
:102DF000B0124FF07E5009F023FCD6F8B83281466D
:102E00002868C01A09F014FB494609F065FB09F06F
:102E100029FDD6F8BC221FFA80FA68680FFA8AFAF0
:102E2000801A09F005FBA54B196809F055FB4946C6
:102E300009F052FB09F016FDB6F9C23200B2C21811
:102E4000B6F9C0320221534492FBF1F293FBF1F345
:102E500092B29BB2A6F8C622A6F8C432A6F8C22245
:102E6000A6F8C032012388F8B432954B79681B88E4
:102E7000386803F03003904D924EC8F8BC12C8F881
:102E8000B802002B3FF428AC05F53473009305F528
:102E900035730193D5F8C822D5F8CC3201F098FCEF
:102EA0007368D5F8CC02C01A09F0C2FA834B1968CE
:102EB00009F012FB09F0D6FCD5F8C8323268C5F823
:102EC000DC029B1AC5F8D8327F4B1B78012B04D04B
:102ED000022B00F0D080FFF7FFBBD5F8E072D5F8E9
:102EE000FC420697D5F8F07204F100400797D5F838
:102EF000F472D5F8B062099709F0B4FC8046204618
:102F000009F0B0FC714BD5F8F8521B68704C08956D
:102F10000A900B930025DFF8D0A15AF81570AAF19A
:102F20001403384635F8039009F082FA069909F03F
:102F3000D3FA09F097FCC9EB000080B20AF1280A25
:102F400025F80A000FFA80FA504609F071FA07993D
:102F500009F0C2FA09F086FC1FFA80FB0AEB0700B1
:102F600009F066FA099909F0B7FA314609F0B4FA9E
:102F7000216809F0A9F909F075FC404505DBDDF889
:102F800028E07045A8BF704600E0404609F050FABE
:102F9000206009F067FC58441FFA80FB606809F163
:102FA0003109381A09F044FA314609F049FB0B9906
:102FB000206184468878D4F808A0CDF810C009F0C4
:102FC00033FA08F0C5FE36A3D3E9002308F014FF56
:102FD00002460B4600203F4909F038F809F01EF977
:102FE000314609F071F90146304609F029FBDDF858
:102FF00010C0034651466046039309F063F9039BF2
:103000000146184609F068FA0146504609F05CF995
:103010001FFA89F9B9F1620F014620616760A0606B
:103020000ED9089809F058FA09F01CFC2A4BB0F5A3
:10303000FA6FA8BF4FF4FA609842B8BF184600E094
:103040000020834440F6B8330FFA8BFB9B45A8BFA2
:103050009B46224B0A229B45B8BF9B466A43204BA6
:1030600054F8141B25F803B01E4B0235042DD15023
:103070003FF432AB4FE7154BD5F8D0B21F68B5F827
:103080000463B7F808904FEA5B03994528BF994657
:1030900033B299452ADC1FFA89F933E0AFF3008097
:1030A000182D4454FB21194020170020A8050020AA
:1030B000AC05002002030020440D00206C0000201D
:1030C000FE0100204005002030170020DC03002016
:1030D000641600200000F03F30F8FFFF48F4FFFFC7
:1030E000E40300208C1600201C100020B049D5F805
:1030F000B00209F0F1F909F0B5FB30441FFA80F98C
:10310000A5F80493D8F8D452D8F80863AE1B30461B
:1031100001F00EFC0028D8BF404241F293139842C0
:10312000CCBF0020012078B3304609F081F9A149D5
:1031300009F0D2F90CF00CFB0646584609F074F978
:103140000146304609F0C8F909F08CFB80B240F620
:10315000B83203B29342A8BF1346974AA8F80C03AB
:103160009342ACBFEB18AB1848F6A042934203DD84
:10317000A3F50C43A03B04E0002BBCBF03F50C43BC
:10318000A033C8F8103301E0C8F81053D4F8102366
:10319000C2F50C502830069209F04AF9854909F029
:1031A0009BF905460CF060FA119028460CF0D0FA15
:1031B000D4F82053D4F81433D4F818E3109005F160
:1031C00000400993CDF830E009F04CFB0790284609
:1031D00009F048FBD4F8B082D4F81C430D900B944E
:1031E000764C0025484609F023F910AB53F815102A
:1031F00009F072F9DFF8F0A106463AF9050009F086
:1032000017F90146304609F05DF809F02BFB6C4BCD
:1032100006B2B6F57A7FA8BF4FF47A769E42B8BF61
:103220001E46B0B20AF13C0A25F80A0000B209F0C5
:10323000FFF80999824609F04FF909F013FB80B2B3
:103240000A900C99504609F047F9414609F044F9B3
:10325000216809F039F809F005FB0799884204DB79
:103260000D9A9042A8BF104600E0079809F0E0F8D8
:103270008246206060681434301A09F0D9F841465B
:1032800009F0DEF954F80C3C44F8040C8446B87894
:103290000893CDF810C009F0C7F808F059FD42A313
:1032A000D3E9002308F0A8FD02460B46002045495B
:1032B00008F0CCFE08F0B2FF414609F005F80146DF
:1032C000404609F0BDF9DDF810C003460899604694
:1032D000039308F0F7FF039B0146184609F0FCF83A
:1032E0000146089808F0F0FF44F8106C014644F8D5
:1032F000040C44F80C0C0B9809F0EEF809F0B2FA43
:103300000A9E0644504609F0ADFA304440F6B83300
:1033100000B29842A8BF1846274B0A229842B8BF6D
:1033200018466A43284BE852284B0235042D42F8D0
:1033300003A07FF457AF3B792BB106986422244B4E
:1033400090FBF2F21A803B88224C9B450ED9D4F8B0
:103350000833D4F8D402C01A01F0EAFA42F210732A
:103360000028B8BF404298427FF7B6A91A4B012205
:103370001A70B4F85C22164B1A80FFF7ADB9174AE1
:10338000116890460F7817B1012F2FD0A4E0012BC0
:1033900000F2A2806278124B03EB0213114A5968C3
:1033A000106800F0D1FD94E0182D4454FB21194021
:1033B0000000C842D302373948F4FFFF8C160020C2
:1033C00018FCFFFF0000F03FE4030020641600201B
:1033D000CA030020440D0020301700205C0A0020A2
:1033E000D01A0108600A002008100020634E3068DF
:1033F00000F0A5FDB14600286ED02378604D022B69
:1034000027D0032B2FD0012B66D15E4B1F686B6931
:10341000FB1A632B60D92B69042B18D8DFF868815D
:10342000306808EB0313596800F08EFD6B7836683E
:1034300008EB03139D6815F8011B19B1304600F025
:103440009FFDF8E7236967610133236144E00220AF
:1034500040E06A784C4B306803EB0213596800F087
:1034600073FD032036E02B7E03B92F76237E444D77
:10347000012B10D12B697B2B09D8444AD9F80000C5
:10348000D15C00F07DFD2B6901332B6103E000234B
:103490002B6102232B76237E394D022B16D12B690B
:1034A0000F2B11D8D8F8002038495278D9F80000ED
:1034B00002EB02120A44134493F87D1000F060FD01
:1034C0002B6901332B6101E003232B76237E022B32
:1034D00002D9042001F01CFB0023636045E063680F
:1034E000052201336360637801200133DBB2B3FB53
:1034F000F2F202EB82029B1A6370224B00221B68DD
:10350000A360234B1A70234B1A7822F002021A7020
:103510000DE01C4B1A68A368D21A40F6C4139A42F5
:1035200023D91D4B05201A6822F020021A6001F0F1
:10353000EFFA1AE0184B1B68DB0616D5114BD6F8CC
:1035400024131A683C318A42144B0ED3C3F8242347
:10355000D3F82C53124A134CC3F828232B880B2082
:10356000236100F065FC2B8863610C4B1A68042A08
:1035700001DD00221A6013B0BDE8F08F600A002060
:10358000400A0020901C0020D01A010814200108D5
:103590007805002002030020E4010020440D0020F3
:1035A000A0000020000C01401E4B2DE9F0431A78CA
:1035B0001D460AB31C4B07781E781C4B93F800C0BD
:1035C00002231B4A03F10108D45C344104F00F04C8
:1035D000BC420CD20B2C0AD812F8039012F80880C7
:1035E00002EB840209EA0C0408EB042414610233A0
:1035F000102BE6D100232B7003788B420FD90C4B94
:1036000093F8400060B10B4A890012780B441869A6
:1036100002B1400800F5777080B2BDE8F083002069
:10362000BDE8F08320010020240A0020250A0020A4
:1036300074100020260A0020024B53F82100C0F32A
:10364000CF00704794010020034B53F8210040083D
:1036500000F5777080B270473C010020014B33F8D1
:1036600011007047CE040020014B33F81100704761
:10367000DC100020034B4FF4805208B11A617047F0
:103680005A61704700080140034B4FF4805208B163
:103690005A6170471A61704700080140032810B54D
:1036A000114B0FD8114A126894888C420AD2D288E2
:1036B0008A4207D9012202FA00F093F84120104310
:1036C00083F8410093F841300F2B0CD1064B0022B8
:1036D00083F84120064B998808B2142802DD14397A
:1036E000998010BD9A8010BD74100020041600202F
:1036F000100A0020024B9A8801329A80704700BF5E
:10370000100A0020074B1A68074B1178B3F9040020
:1037100053780B4403EB83039842D4BF002001206D
:10372000704700BF04160020100A0020064BB3F9B2
:103730000400064B1B681B7803EB83039842D4BF3D
:1037400000200120704700BF100A0020041600204E
:1037500010B50446FFF7EAFF002814BF20460020FA
:1037600000F0010010BD024B01221A72704700BF29
:10377000100A0020014B187A704700BF100A002081
:10378000034BB3F90400D0F1010038BF00207047AB
:10379000100A0020014B00229A807047100A002076
:1037A000016B0346C26810B5406941B1196C541AE7
:1037B000005D013918BF0A46C0B21A6410BD196A0B
:1037C000405C0131B1FBF2F402FB1412C0B21A6288
:1037D00010BD026B03691AB15168013B026C02E033
:1037E000C169026A013B881A1840C0B27047436B36
:1037F00013B190F844007047826A436AD31A584262
:103800005841704743799B070AD5436A8269D1546E
:10381000426A03690132B2FBF3F103FB11234362F5
:103820007047437913F0010307D00369C169026A45
:10383000013B881A1840C0B2704718467047437958
:1038400010B513F0010304460DD0FFF7EAFF58B19D
:10385000226A6369985CE3680132B2FBF3F103FB0F
:103860001123236210BD184610BD426A806A131AE4
:1038700058425841704741717047334A10B5136C34
:1038800090681944081A40F68C2398429160D060E1
:10389000516013463CD9127893F945108A420BD1F6
:1038A000111F082908D893F84610182901D80131AA
:1038B00003E083F8442002E0002183F8461093F9E6
:1038C00044108A421CD1204991F84710C1B100210F
:1038D00091421E4806DA03EB8104246920F8114066
:1038E0000131F5E7511E00EB41011630814203D052
:1038F000002421F8024FF9E71549087801300870D3
:1039000083F84520002201211A7083F8471010BD6A
:1039100092F84710B9B1A0F2EF2440F2DA518C428C
:1039200008D811780B2905D80B1D0131117042F808
:10393000230010BD002283F847209918043200208C
:10394000302A0861F9D110BDF4080020DC100020F5
:103950003C180020084B03EB0010837A0133DBB2E4
:103960000A2B837207D983781BB94178034A22F85E
:1039700011300023837270473C090020DC100020C6
:10398000024B1A6C11441964704700BFF408002000
:10399000024B53F820301B6819807047BC09002087
:1039A000074BA1F57A7153F820304FF47A701A68FA
:1039B0009B884B4393FBF0F39BB21380704700BF8F
:1039C000BC0900202DE9F04F504A514E1768738909
:1039D00084463089A7EB032785B0039187FB00015C
:1039E000B288CB111404C209F08842EA416287FB15
:1039F000000114EB020872884FF000054FEAC23450
:103A00004FEA1022B08945EB030942EA01620B122A
:103A100087FB000114EB020A4FEAD05242EA41222E
:103A20004FF0000545EB030B12F5FA604FEAE15346
:103A300043F10001CDE90001B0F5FA6F71F1000129
:103A400047DAA2FB024502FB03F1052605EB41051F
:103A5000A4FB060106FB05114D104FEA3004B8EB3C
:103A6000040869EB050984082A4844EA81748D102A
:103A70004FF0FF31BAEB040A6BEB050BDDE90045B3
:103A800084428D4125DA40F6AC5012184FF0000107
:103A900043EB010302FB03F1A2FB02236FF00600DC
:103AA00003EB4103544200FB0344A2FB000118EB6B
:103AB000000821444FF00B0449EB0109A2FB04016B
:103AC00004FB031149104FEA3000BAEB000A6BEB1C
:103AD000010B114B1A68A2FB0A0102FB0B11420DEC
:103AE00042EAC1224B15B2EB080263EB0903D00B8B
:103AF00040EA4340BCF1000F01D0CCF8000003982D
:103B000008B10099016005B0BDE8F08FBC1B002032
:103B10009806002024FAFFFFC01B0020324B2DE93D
:103B2000F0411C88314B0A265A89B3F91250A41A65
:103B30001A89ED025443B3F91420E413224495FB8F
:103B4000F2F22244DA615643A2F57A6202FB02F4F1
:103B5000B3F90480B3F902C0B3F90E7002FB0CFC98
:103B600002FB08F2B3F90C802413674304FB08F44A
:103B7000241404EB62320232DC88921002F5004217
:103B8000B3F920506243B3F900304FEAEC2404EB60
:103B9000E72404EB8304AC40154B02341B68D20BC2
:103BA000A3EBA4044CF250332B41634355BF5B009D
:103BB000B3FBF2F3B3FBF2F35B001A12524340F68D
:103BC000DE3462430B4C08365C43241404EB22427F
:103BD00002F6CF62361103EB221300B1036001B18C
:103BE0000E60BDE8F08100BFCC1B0020AC060020B9
:103BF000C81B002043E3FFFF064B1B7813B1012BCA
:103C000003D070474FF4006201E04FF48052024B42
:103C10001A807047960600200000002038B50C6816
:103C2000054620460BF032FB214602462868BDE8D7
:103C300038400BF033BB044B1B68DA79511CD97147
:103C40001344187A704700BFCC05002010B5FFF769
:103C5000F2FF0446FFF7EFFF04EB002080B210BD37
:103C600010B5FFF7F3FF0446FFF7F0FF04EB004049
:103C700010BD0B4AA2F13003197A81420BD00C33EC
:103C80009342F9D1074B197A014004D10C33934286
:103C9000F9D1084603E018460BB1586870477047E1
:103CA0006C0000203C00002000230549DAB2595C7A
:103CB000814203D00133092BF7D11A4610467047D1
:103CC00021310108014600230448184442688A4211
:103CD00003D00C33302BF7D1002070473C0000207C
:103CE00010B5094A094913688C6812689342F8D1E3
:103CF000074A106811684FF47A725043001BB0FBFA
:103D0000F1F002FB030010BD901C002010E000E069
:103D10005406002038B5104C0123054684F8403085
:103D2000FFF7DEFF636C41F28832C31A9342A3644B
:103D300084BF002384F84C3094F84C30EDB20F2B44
:103D40006064E55403D1054B01221A7038BD024A64
:103D5000013382F84C3038BD74100020200100205F
:103D600010B50446FFF7BCFF164A136D1065C31A61
:103D7000B3F57A6F84BF002382F8543092F8543040
:103D800023B9A82C1CD110490B7006E0022B02D1DC
:103D90000E490C7001E0242B01D80D49CC5401339D
:103DA000DBB282F85430094A12785200053293424D
:103DB00006D1044B002283F85420034B01221A70D1
:103DC00010BD00BF741000206C0100209201002083
:103DD0006D01002038B50446FFF782FF114B40F615
:103DE000C4119A6D9865821A8A4284BF002283F8B2
:103DF0005C2093F85C200AB90F2C11D10A480021ED
:103E0000017052B1094D182A154405F8014C04D12E
:103E1000012283F85C10027038BD013283F85C2007
:103E200038BD00BF741000202101002022010020B5
:103E300038B50446FFF754FF0546FFF751FF401B16
:103E4000A042FAD338BD10B504462CB14FF47A70B5
:103E5000FFF7EEFF013CF8E710BD08B5014B1B680A
:103E6000984708BDB82100202DE9F04106460F46CD
:103E700090460025EBB2434518D20024E3B2B3428A
:103E80000FD20B4B0120DA68013482F00802DA60AD
:103E9000FFF7E3FF3846FFF7D6FF0020FFF7DDFF0F
:103EA000ECE73C20FFF7CFFF0135E3E7BDE8F08109
:103EB000000C01400B490B7813F0010F03F00402D2
:103EC0000AD072B9980707D443F004030B70064B6D
:103ED0001A88064B1A8070471AB90220FF21012266
:103EE000C2E77047B0210020220300200017002005
:103EF00040F2DB14604308B50D4B10225A610822D2
:103F00001A61841E0A4B2046DA6882F01002DA60D9
:103F1000DA6882F00802DA60FFF795FF0120FFF708
:103F20009CFF1920FFF78FFF0020FFF796FFE9E7BE
:103F3000000C014008B503685B69984708BD08B5E7
:103F400003681B69984708BD08B50368DB68984794
:103F500008BD08B503689B68984708BD08B50368A5
:103F60005B68984708BD10B5044C2068FFF7F6FF62
:103F700018B12068FFF7EDFFF6E710BDB40500208B
:103F800008B503681B68984708BD064B10B5044682
:103F900021461868FFF7F4FF034B1B689A795440D9
:103FA0009C7110BDD0050020CC05002038B504461A
:103FB00024200D46FFF7E9FF4D20FFF7E6FF002C18
:103FC000084C0CBF3E202120FFF7DFFF23680022B2
:103FD00028469A71FFF7D9FF236893F84900BDE896
:103FE0003840D2E7CC05002001460020DEE7F8B5D6
:103FF0000E4E0F4C0F4DC1B20746306884F85D106D
:10400000FFF7BEFF2B6894F85D109A7930684A403C
:104010009A71C7F3072184F85D10FFF7B1FF2B6891
:1040200094F85D109A794A409A71F8BDD005002045
:1040300074100020CC050020F8B51B4D1B4C1C4F04
:104040000646C1B2286884F85E10FFF799FF3B6806
:1040500094F85E109A7928684A409A71C6F307214D
:1040600084F85E10FFF78CFF3B6894F85E109A7935
:1040700028684A409A71C6F3074184F85E10FFF73A
:104080007FFF3B6894F85E109A7928684A409A71DD
:10409000310E84F85E10FFF773FF3B6894F85E10F2
:1040A0009A794A409A71F8BDD0050020741000201A
:1040B000CC05002010B5441E14F8011F21B1034B9C
:1040C0001868FFF75DFFF7E710BD00BFEC080020A0
:1040D0000048EFE7CE300108014B186850E700BFF9
:1040E0004C11002038B5054C05465E212068FFF7CD
:1040F00047FF20682946BDE8384041E71C050020FD
:10410000014B5E2118683BE71C05002010B50A4CE6
:104110005E280146206805D15D21FFF731FF206848
:104120003E2105E05D2903D1FFF72AFF20683D21EC
:10413000BDE8104024E700BF1C05002010B5044670
:10414000C0B2FFF7E3FFC4F30720BDE81040FFF75C
:10415000DDBF10B50024094BE0B21B7883420CD9B7
:10416000074B33F81010074B53F820301BB10B28C6
:1041700001D89B6898470134EDE710BD84210020E9
:1041800086210020BC090020054B1B6803EBC00002
:1041900090F9063019420CBF01204FF0FF307047F4
:1041A000B40400200A4B1A6802EBC002D379FF2B3B
:1041B00007D008490978994203D9074A32F8130011
:1041C00004E00728D4BF908840F2DC5000B270476A
:1041D000B4040020270A0020CE0400202DE9F04F6F
:1041E0000C68836889B0D0F800A0D0F80480064637
:1041F000204603938B460BF037FA074620460BF018
:10420000A7FADBF80440814620460BF02DFA05465C
:1042100020460BF09DFADBF8082004461046019278
:104220000BF022FA019A834610460BF091FA3946B8
:104230000290584608F050F939460490029808F068
:104240004BF959460590484608F046F90299069000
:10425000484608F041F929460790584608F03CF9CD
:104260000146504608F038F921468346069808F082
:1042700033F90146059808F027F80146404608F052
:104280002BF90146584608F01FF82146834604984A
:1042900008F022F90146079808F014F8014603983F
:1042A00008F01AF90146584608F00EF830600299F5
:1042B00005F1004008F010F90146504608F00CF9ED
:1042C00021468346079808F007F90146049807F04D
:1042D000F9FF0146404608F0FFF80146584607F04E
:1042E000F3FF21468346059808F0F6F80146069844
:1042F00007F0EAFF0146039808F0EEF80146584639
:1043000007F0E2FF21467060504608F0E5F82946C4
:10431000044609F1004008F0DFF80146404608F085
:10432000DBF80146204607F0CFFF39460446284611
:1043300008F0D2F80146039808F0CEF8014620466E
:1043400007F0C2FFB06009B0BDE8F08F2DE9F84F6B
:10435000374E0446376838460BF086F9054638462E
:104360000BF0F6F97668804630460BF07DF983460F
:1043700030460BF0EDF9D4F804900646294648463D
:1043800008F0AAF8A76882464146384608F0A4F823
:104390000146504607F096FF21688246584608F0CD
:1043A0009BF841460446484608F096F8314608F026
:1043B00093F80146204607F087FF31460446384609
:1043C00008F08AF8294608F087F80146204607F0E9
:1043D0007BFF014650460BF049FA164908F07CF87D
:1043E00007F0B6FC10A3D3E9002307F02FFE124B11
:1043F000044618680D4607F0ABFC02460B46204603
:10440000294607F047FB00220C4B07F01FFE07F080
:1044100005FF0BF05FF983B21A0444BF00F5B473D3
:104420009BB218B2BDE8F88F182D4454FB21094007
:10443000040300200000E144E806002000002440BE
:1044400080EAE073A3EBE0738B4206DB002801DD1A
:10445000401A704702D00844704700207047074B4D
:104460001B7803F0040303F0FF001BB1044B188812
:10447000C0F3C01000F00100704700BFB021002061
:10448000FE010020034B1A78510744BF22F00402BA
:104490001A707047B021002070B5FFF747F938B3A4
:1044A000144C237A0BB9A38070BD134D2E78C6F33C
:1044B0008000FFF74DF990B1104B46F002061A68E4
:1044C0000F4B51892E7019805189598052899A80D9
:1044D0000C4A12685288DA80E3880133E380FFF7E0
:1044E00011F910B92B785B0702D4BDE87040C9E719
:1044F00070BD00BF100A0020B02100200C0A00206F
:10450000CE040020041600202DE9F0410278034675
:10451000202A00F10100F9D0092AF7D02D2A02D172
:104520000346414D04E02B2A08BF03464FF07E5559
:104530001E460024334616F8012BA2F13007F9B2CB
:1045400009290DD83949204607F0C6FF04463846E8
:1045500007F06EFF0146204607F0B6FE0446E9E785
:104560002E2A17D1314F334616F8010B3038C2B21C
:10457000092A0FD807F05CFF394608F061F80146B8
:10458000204607F0A1FE29490446384607F0A4FF5B
:104590000746E8E71A7802F0DF02452A38D15A7850
:1045A0002D2A02D10233012604E02B2A14BF013345
:1045B00002330026013B002713F8012F303AD1B215
:1045C000092903D80A2101FB0727F5E7B7F59A7FE8
:1045D00028BF4FF49A77B8464FF07E51B8F1070FD5
:1045E00007D90846124907F077FFA8F108080146E5
:1045F000F4E707F0070737B108460C4907F06CFFEE
:10460000013F0146F7E72EB1204608F019F804E013
:104610004FF07E51204607F05FFF0146284607F025
:104620005BFFBDE8F08100BF000080BF00002041BB
:1046300020BCBE4CF0B50124B0FBF4F58D4201D393
:104640004C43F9E70026DCB1B0FBF4F504FB1500A0
:10465000B4FBF1F41EB9002D01DC002CF3D1092DBF
:1046600003F101075FFA85FC04DD002A0CBF572522
:10467000372500E0302565441D7001363B46E2E7F2
:104680001C70F0BDF0B50124B0FBF4F58D4201D3F0
:104690004C43F9E70026DCB1B0FBF4F504FB150050
:1046A000B4FBF1F41EB9002D01DC002CF3D1092D6F
:1046B00003F101075FFA85FC04DD002A0CBF5725D2
:1046C000372500E0302565441D7001363B46E2E7A2
:1046D0001C70F0BD70B50646B6FBF2F408461546F0
:1046E00014B12046FFF7F6FF05FB1464024B1B5D77
:1046F00000F8013B70BD00BFFC3001082DE9F0411E
:10470000069C002B06460F460CBF4FF020084FF0CA
:104710003008234613F8011B09B9154603E0002AA7
:10472000FBDD013AF6E7002D04DD30464146B8478F
:10473000013DF8E714F8011B11B13046B847F9E71D
:10474000BDE8F081024B9A6822EA00009860704749
:10475000941C002030B50E4D0028B8BF40420D4CCF
:1047600090FBF5F304FB03003C22424392FBF5F07F
:1047700003EB830304FB002203EB830300EB8303BF
:104780000B804FF47A7392FBF3F24A8030BD00BF86
:1047900080969800806967FF094B1B7873B1094BBD
:1047A0001B685B782BB1084B187D003018BF0120C7
:1047B0007047064B1878C0F380007047012070479F
:1047C0002F0D002018050020E8010020B021002056
:1047D000F8B5101A0C461F4607F02AFE0546381B8E
:1047E00007F026FE174B079E196807F075FE29464D
:1047F0000446284607F070FE21460746204607F08B
:104800006BFE0146384607F05FFD0BF0B9F90E4923
:1048100007F062FE08F04CF8069B2146186005F18F
:1048200000400BF023F8094907F056FE084907F04D
:104830004BFD08F017F80028BCBF00F50C40A03075
:104840003060F8BD6C0000202C7D8E3FA00CB3457D
:1048500000A00C4610B507F0EBFD0021044607F060
:10486000F7FF08B1204601E004F10040054907F0D8
:10487000E7FE054907F030FE0AF0F6FE034B18602C
:1048800010BD00BF8096184B35FA8E3C6C0000209E
:1048900070B50446007907F0C7FD1E4907F0D0FE49
:1048A0001D4D1E4E2860A07B07F0BEFD194907F084
:1048B000C7FEEE606860607907F0B6FD184907F042
:1048C000BFFE184D2860E07B07F0AEFD114907F0F0
:1048D000B7FE6860607E07F0A7FD134907F0B0FEE1
:1048E000EE60A860A07907F09FFD0D4907F0A8FED3
:1048F0000E4D2860207C07F097FD064907F0A0FECA
:104900006860A07E07F090FD074907F099FEEE6011
:10491000A86070BD0000C842241000200000FA44C6
:10492000000020413410002000007A44581000207C
:1049300044F25063984203DDA0F50C40A038704764
:10494000034B9842BCBF00F50C40A030704700BF3D
:10495000B0B9FFFF10B50023094CDAB254F8224079
:1049600001338442F8D10023064CD8B234F8104009
:1049700001338C42F8D102EB8000C0B210BD00BF01
:10498000E8200108F820010890F83B3210B57BB907
:1049900090F83A3290F83922934209D20121994095
:1049A000B0F8404201332143A0F84012DBB2F3E7F4
:1049B00010BD8379012B03D1D1F1010138BF002152
:1049C000D0F834315A689B6809B11361704753615C
:1049D0007047044B53F820301BB107289CBF1B685D
:1049E00019807047EC09002010B5054C0020218883
:1049F000FFF7EFFF61880120BDE81040E9E700BF45
:104A0000860000200B4970B50A8800230D4600FA85
:104A100003F4D11814F0800F03F10103064C14BF06
:104A20001126092689B2082B6654F0D108322A8053
:104A300070BD00BFBC180020640A00202DE9F041C1
:104A40000F88002347FA03F2D2072BD58A7803F0A8
:104A5000070512F0100F18BF91F803C002F00F06FF
:104A600018BF46EA0C06AD004FF00F0C0CFA05FC1F
:104A700006FA05F5DC0850F82480282A28EA0C0CF0
:104A800045EA0C0540F8245005D101229A40C4683B
:104A900024EA020205E0482A04D101229A40C468AF
:104AA0002243C2600133102BCCD1BDE8F08100BF9E
:104AB00038B5124B124D1A78124C296892B12268FF
:104AC0000244914218D300201870FFF7C6F92B68F2
:104AD00023600D4B1A780AB1013A1A700B4B012270
:104AE0001A7038BD2268C832914205D3012018706F
:104AF000FFF7B3F92B68236038BD00BF1B170020F8
:104B0000901C0020C4180020D2020020C8180020E9
:104B10000449054B0968002218701A6159611A7618
:104B2000704700BF901C0020400A0020F0B5884C60
:104B3000884A23689D8AADB2E9B211F0010F32D0E4
:104B4000198821F400610904090C1980198889B2B7
:104B500041F480611980002111707F4908787F49F4
:104B6000A8B1507818B97E480078FF280FD10120ED
:104B700050707C480078022804D1188880B240F434
:104B800000601880097841F00101198202E109787A
:104B900001F0FE011982724B1B78FF2B00F0FA80A6
:104BA000FF231370F6E08F073CD5BFF35F8F6D498D
:104BB0000878C0B2012814D1674D2D788DB1557891
:104BC0007DB1198821F480610904090C1980BFF3B3
:104BD0005F8F198B1988907089B241F40071198028
:104BE0001BE0188BBFF35F8F087802280BD15A485F
:104BF000007840B1507830B1198821F480610904FF
:104C0000090C1980C0E00978032906D152490978B6
:104C100019B15178002940F0B780998889B241F4E0
:104C20008061B6E04E075BD5012191704A49097851
:104C300000293AD05178002937D04A4910780978AC
:104C4000494D022919881ED921F480610904090CF3
:104C500019801F8A2E68C1B2FFB240B2375418883B
:104C600080B240F4007018808B1C13702368286891
:104C70001D8A013149B2EDB24554998889B241F497
:104C80008061998027E089B241F4007119801E8A01
:104C90002D68C1B2F6B240B22E541B8A481C40B2F5
:104CA000DBB203312B54117015E0517811B92F4943
:104CB000097841B1198889B241F4007119801378DB
:104CC0000133137007E0198889B241F480711980AB
:104CD000204B0121597021680B88D805FCD459E07C
:104CE00001F0400101F0FF061E48F1B11E49B3F882
:104CF00010C00F6811785FFA8CFCCDB26E1C49B2FF
:104D0000F6B207F801C01670077876B2F11C8F4230
:104D100005D1998821F480610904090C99800378F0
:104D2000B34237D10235157034E0290632D51178F7
:104D30004DB26F1C1ED00E4E01313668C9B2755D82
:104D40001170EDB21D82007849B2884222D11BE079
:104D50008C1C0020D81000207F1C00207C1C002010
:104D60007D1C0020881C0020841C00207E1C00204C
:104D7000801C0020134916700978C9B219821249A3
:104D8000097809B9017829B9998821F48061090461
:104D9000090C99800D4B92F9001018780C4B421CAD
:104DA00091420DD100225A709B7833B122689388CA
:104DB00023F440731B041B0C9380064B00221A70D3
:104DC000F0BD00BF7D1C00207F1C0020881C00203F
:104DD000D8100020891C00204B8830B5DC070CD58A
:104DE0000F4C0D78247805F00F05A54205DA0D4B20
:104DF00000EB4000191814880EE05B070FD50A4B32
:104E000009781B7801F00F01994208DB054B00EB94
:104E1000400032F8064F19181C5293788B7030BD41
:104E200040060020E405002042060020F8B50121DC
:104E3000044600F005FC01283B4F01D0002616E097
:104E40004FF6FE732382A68D0025B6B22046795D0B
:104E5000FFF780FD354B142202FB0030C36813B10D
:104E6000007C314698470235082DEFD1E6E7BD5D5D
:104E700095B92046022100F0E3FB012850D14FF6FE
:104E8000FD73238229462046FFF764FD274B142239
:104E900002FB0030A18E3EE0042D12D120462946AF
:104EA00000F0CEFB01283BD14FF6FB73238229464D
:104EB0002046FFF74FFD1D4B142202FB0030218FCF
:104EC00029E0082D12D12046294600F0B9FB01281F
:104ED00026D14FF6F773238229462046FFF73AFD85
:104EE000124B142202FB0030A18F14E00C2D17D1BD
:104EF0002046102100F0A4FB012811D14FF6EF73DA
:104F0000238229462046FFF725FD084B142202FB89
:104F10000030B4F84010836889B20BB1007C984728
:104F20000236082EA3D1F8BDF8200108F8060020AB
:104F30002DE9F041067B04460F4600683146904655
:104F40001D46FFF707FD0F2808D8194B142202FB56
:104F50000030C0F80880C56006710774237B2268A2
:104F60000C2B1CD8DFE803F0071B1B1B0C1B1B1BA7
:104F7000111B1B1B160093899BB243F002030DE02B
:104F800093899BB243F0040308E093899BB243F0FA
:104F9000080303E093899BB243F01003938125B18A
:104FA00093899BB243F001039381BDE8F08100BF78
:104FB000F8060020134B026810B51C68D1430C4062
:104FC0001C605C682140596019680A431A600268D5
:104FD0009C68D1430C409C60DC682140D9604179D9
:104FE000102906D1996811439960D9680A43DA609B
:104FF00010BD01F1804303F5823319680A431A603A
:1050000010BD00BF0004014030B50B4A00EB40006A
:10501000155C322465436421131895FBF1F5155492
:105020005A78624392FBF1F25A709A78544394FB97
:10503000F1F1997030BD00BFE4050020254B10B59B
:105040005343254A254C12680139B2FBF3F2038819
:10505000013AA04289B292B29BB212D004F5006428
:10506000A0420ED0B0F1804F0BD0A4F59834A042EE
:1050700007D004F58064A04203D004F58064A04208
:1050800002D123F070039BB2154CA04206D004F568
:105090008064A0421CBF23F440739BB203800F4B7B
:1050A0008185984202850FD003F5006398420BD0AA
:1050B00003F54063984207D003F58063984203D01C
:1050C00003F58063984201D1002303860123838284
:1050D00010BD00BF40420F00A4000020002C014082
:1050E00000100040284BF0B51D6800222748165CD0
:1050F0001418AB19597801F0040101F0FF0371B1E4
:105100000132102AF2D10020F0BD1BB103EB830362
:105110005B00DBB210F8012B303A1344DBB2221AE9
:10512000022AF2DC002184420AD919B101EB810183
:105130004900C9B210F8012B303A1144C9B2F2E764
:105140002E2E14D1601C00220424067802EB820269
:10515000AF197F7852007F0792B203D5303A3244BC
:10516000013092B2013C14F0FF04EED100E00022C5
:10517000074806244143642000FB02120548B2FBA5
:10518000F4F200FB0320F0BDA8000020630E002015
:1051900040420F008096980030B5002213460D491A
:1051A0005C5C9CB12E2C04D1013378B11C18002515
:1051B0000D550A246243C95CA1F13004092C9CBF3F
:1051C000303A52180E2B03D80133E8E7104630BDB1
:1051D000002030BD630E0020104B1B681A784B2A4C
:1051E00019D15A88B2F59E6F15D11A79BE2A12D1FB
:1051F00093F8ED24EF2A0ED11A46002003F59E61A4
:105200008A4203D212F8011B4840F7E7D0F10100AF
:1052100038BF002070470020704700BF14000020F6
:1052200010B52720FEF740FD0E4C84F82801102011
:10523000FEF73AFD84F829010020FEF735FD4FF412
:10524000E133C4F82C31C4F83031C4F83431C4F837
:105250003831522384F82A0184F82B0184F83C3138
:1052600010BD00BF941C002070B50546441E14F804
:10527000011F61B1064E304609F0FBFF0028F6D051
:10528000861B0448631B304480F80E31EFE770BD85
:1052900025360108941C00207FB5044609F0F6FF6E
:1052A000082824D100231F49E25C09681144497889
:1052B00001F00301022908BF203AE2540133082B10
:1052C000F1D10025665D1848314609F0D2FF28B1BA
:1052D00001356019314609F0CCFF18B11348FEF7CB
:1052E000E9FE1CE0082DEDD12046FFF7BDFF104878
:1052F000FEF7E0FE00230F4A04A91A4492F80E219B
:105300000A440949595C0133082B02F80C1CF2D1FC
:105310000023094801A98DF80C3000F04DF804B0C5
:1053200070BD00BFA8000020253601082A31010801
:105330004A310108941C002015380108F0B50023FB
:105340001946CEB200220C2505FB02F70D48D4B257
:105350003F5CB74203D00132042AF4D10BE0FF2CAA
:1053600009D0094A05FB04001A4492F82821074C89
:105370000133A25C02720131052901D0032BE0D96F
:10538000F0BD00BF3C000020941C0020213101082A
:10539000084BDA68D10709D4DA68520708D4DB6809
:1053A00013F0100F0CBF042003207047012070473A
:1053B00002207047002002400FB42DE9F04F684AE8
:1053C00089B012AB1668674A53F8045B17680493F8
:1053D0009B462978002900F0B880252902D00135A4
:1053E0003046B0E06C78302C03D002354FF0000925
:1053F00003E0AC784FF001090335A4F13003092B29
:105400004FF000081AD8A4F13003DAB2092A07D8FD
:105410000A2B13DC0A2202FB083815F8014BF2E7CD
:10542000A4F16103052B02D8A4F15703F0E7A4F11E
:105430004103052B02D8A4F13703E9E76C2C03BF25
:105440002C78012201350022632C66D006D8252C49
:1054500077D0582C3FD0002C77D0BAE7732C63D08C
:1054600002D8642C11D0B4E7752C02D0782C32D03D
:10547000AFE70BF1040A05ACDBF800000A2112B11A
:105480000022234613E0234620E00BF1040A05AC7A
:10549000DBF8000072B1002806DA2D238DF81430F5
:1054A00040420DF1150300E023460A210022FFF7D8
:1054B000E9F80DE0002806DA2D238DF8143040427B
:1054C0000DF1150300E023460A210022FFF7B2F890
:1054D000D34600941AE00BF1040303930DF1140A70
:1054E000DBF80000102132B1583C62426241534661
:1054F000FFF7C8F806E0B4F158035A425A41534640
:10550000FFF798F8DDF80CB0CDF800A0304639462A
:1055100042464B46FFF7F2F85BE730469BF8001037
:105520000BF10404B8470AE0DBF800303046009382
:105530003946424600230BF10404FFF7DFF8A34687
:1055400047E730462146B84743E7074B1868FEF760
:10555000F6FC0028F9D009B0BDE8F04F04B0704760
:10556000500600204C0600204C11002030B587B0BA
:1055700005460C4603A800210C2209F046FE2846E9
:10558000002107F065F920B128462A4906F09CFE63
:1055900003E02846274906F095FE274906F09CFFC0
:1055A00007F060F9054685EAE570A0EBE57069460D
:1055B0000A22FFF78FF800239D420370ACBF20231F
:1055C0002D2368468DF80C3009F060FE012807D1C4
:1055D00030238DF80D308DF80E308DF80F300CE043
:1055E000022805D130238DF80D308DF80E3004E0FF
:1055F000032804BF30238DF80D30694603A809F055
:105600002BFE03A809F042FE0338C5B22A4603A9BF
:10561000204609F065FE002363552046074909F03E
:105620001BFE03A92046294409F016FE204607B0B8
:1056300030BD00BF6F12033A00007A445F310108A9
:10564000038A828911EA030092B203D011420CBF8F
:105650000020012070470A88F0B54B888F880E899A
:10566000CD88002A3AD1048C834A24F00104240412
:10567000240C0484018B048C89B221F0F30141EAEB
:105680000616B6B29042A4B246EA070743F00103F9
:1056900015D002F50062904211D0B0F1804F0ED0CB
:1056A000A2F5983290420AD002F58062904206D06C
:1056B00002F58062904218BF24F00A0401D124F060
:1056C0000204234307830384038B23F00C031B048E
:1056D0001B0C0383038B9BB21D4344E0042A44D17B
:1056E000048C654A24F010042404240C0484018BE7
:1056F000048C21F440710905090D41EA063189B293
:1057000041EA07279042A4B2BFB212D002F500626C
:1057100090420ED0B0F1804F0BD0A2F5983290425B
:1057200007D002F58062904203D002F58062904279
:1057300007D124F0200444EA03139BB243F0100382
:1057400004E024F0A00443F0100323430783038400
:10575000038B23F440631B041B0C0383038B9BB25A
:1057600043EA0525ADB20583F0BD082A018C3ED180
:1057700021F480710904090C0184818B3E4A89B2AD
:1057800021F0F301048C41EA0616B6B29042A4B2AD
:1057900046EA070712D002F5006290420ED0B0F13F
:1057A000804F0BD0A2F59832904207D002F580626C
:1057B000904203D002F58062904207D124F4007435
:1057C00044EA03239BB243F4807304E024F420648E
:1057D00043F48073234387830384838B23F00C0378
:1057E0001B041B0C8383838B9BB21D4341E021F47C
:1057F00080510904090C0184828B048C22F44072CC
:105800001205120D42EA072242EA06361A4AA4B2EB
:105810009042B6B212D002F5006290420ED0B0F1C2
:10582000804F0BD0A2F59832904207D002F58062EB
:10583000904203D002F58062904207D124F40052D6
:1058400042EA033292B242F4805205E047F6FF5238
:10585000224043F480531A4386830284838B23F4CB
:1058600040631B041B0C8383838B9BB243EA052597
:10587000ADB28583F0BD00BF002C01401FB50123F0
:10588000ADF808300023ADF80C30ADF80A30094B04
:10589000ADF804101B7801A9012B08BF0323ADF854
:1058A000062008BFADF80C30FFF7D5FE05B05DF857
:1058B00004FB00BFF008002038B5104C04EB0014C6
:1058C000A278E36842B90122A270A1801868197B0E
:1058D0000222BDE83840D1E7A288E1806078891AC9
:1058E000074A89B2002522F81010A5702181186896
:1058F000197B2A46FFF7C2FFA57238BD3C0900207C
:10590000DC1000201F4B10B55A6802F00C02042A6C
:1059100003D0082A04D01C4A14E01C4A126811E083
:105920005A685968C2F38342C90302F1020201D4E2
:10593000174906E0596811F4003F1449096818BF77
:1059400049084A4302605968124AC1F30311545C82
:105950000168E14041605C68C4F30224145D21FAEF
:1059600004F484605C68C4F3C224145DE140C16047
:105970005B68C3F381331A44137CB1FBF3F101611B
:1059800010BD00BF0010024000127A001800002075
:1059900000093D007000002070B5447986B004F025
:1059A0000403866803F0FF0523B14FF480654FF4CC
:1059B000005300E02B4614F0010F14BF0422002214
:1059C000A107046D48BF42F00802218A48BF92B285
:1059D00089B221F440510B432382A38901A89BB2D1
:1059E00023F4B05323F00C031D432A43A281A38A5E
:1059F00023F440731B041B0CA382FFF783FF16499B
:105A0000049A039B8C4208BF1346A289192159436B
:105A100012B2002AB4BF7600B600B1FBF6F16423DF
:105A2000B1FBF3F21201100903FB1011A08900B2BF
:105A3000002806DAC9003231B1FBF3F303F00703A3
:105A400005E009013231B1FBF3F303F00F031A4310
:105A500092B2228106B070BD0038014041719BE7CF
:105A6000816099E7CB78F0B5DA0648BF8A78098873
:105A700003F00F0548BF154311F0FF0F1DD0046858
:105A800000220127974007EA0106BE4211D1970084
:105A90004FF00F0C0CFA07FC05FA07F724EA0C0488
:105AA000282B44EA070401D1466102E0482B08BFD5
:105AB00006610132082AE4D10460FF291FD9446835
:105AC000002202F108060127B74007EA0106BE429C
:105AD00011D197004FF00F0C0CFA07FC05FA07F7ED
