:020000040800F2
:1000000000500020352B0108E12B0108B91401082C
:10001000E12B0108E12B0108E12B010800000000A1
:10002000000000000000000000000000E12B0108BB
:10003000E12B010800000000E12B010891140108E8
:10004000E12B0108E12B0108E12B0108E12B01085C
:10005000E12B0108E12B0108E12B010891130108B4
:10006000E12B0108E12B0108E12B0108E12B01083C
:10007000E12B0108E12B010851130108E12B0108D4
:1000800095130108E12B0108E12B0108E12B010880
:10009000E12B0108E12B0108E12B01088D13010878
:1000A000E12B010819130108E12B010829130108AC
:1000B00009130108F9120108E9120108D113010816
:1000C000C9130108CD130108C5130108E12B01086C
:1000D000E12B01084513010839130108E12B010840
:1000E000A1140108E12B0108E12B01080000000028
:1000F0000000000000000000000000000000000000
:0C01000000000000000000005FF808F1A3
:100110002DE9F04F764B774CA1B02360002363604C
:100120000BF0A8F8A04618B90EF08CFD09F078FD88
:1001300009F016FE704B714C1A78714E42F00102B4
:100140001A70002309930A930B934FF4E0130C9356
:100150002368B17B43F480332360A36943F0100329
:10016000A361236803F400330A93099B01330993C5
:100170000A9B1BB9099BB3F5A06FF2D122685F4BB4
:1001800012F4003201D0022315E0186840F001009B
:1001900018600992236803F002030A93099B013354
:1001A00009930A9B1BB9099BB3F5A06FF2D1236891
:1001B0009A0739D501230B93524B53481A6842F0E2
:1001C00010021A601A6822F003021A601A6842F0DC
:1001D00002021A606368636063686360636843F483
:1001E00080636360494B1A68043B22F070425A6096
:1001F000474A1060606820F47C106060586840F0E6
:1002000000405860D86820F40040D8609B681B0408
:1002100049BF404B4FF4E01313604FF480130C932D
:100220000B9B012B01D117E0FEE7022B18D169B11E
:100230000C9BB3F5801F02D14FF4A01305E00C9B7B
:10024000B3F5E01F02D14FF400130C9361680C9BCF
:100250000B4343F4803302E0636843F4601363604C
:10026000236843F0807323602168244B8F01FBD502
:10027000596821F003015960596841F00201596041
:1002800063681E4903F00C03082B0793F8D14868F4
:10029000214B00F00C00042803D0082804D01A4990
:1002A00000E01168196011E048684D68C0F38340B0
:1002B000ED0300F1020001D4184905E0496811F48A
:1002C000003F116818BF4908484318606168C1F3CE
:1002D0000311114491F804B0196821FA0BFBC3F81B
:1002E00000B01368084A93421AD101221CE000BFF3
:1002F000173C000800010020402F002000100240A1
:10030000FC0600200020024000127A000410014088
:1003100000000020001BB7005C00002000093D0029
:100320009D4A934202D102229C4B1A70DFF8CCA264
:100330009B4B20ADCAF80C30A3699A4F43F00103E0
:10034000A361636A4FF0000943F080736362A3699D
:10035000954843F01C03A3614FF6FF7325F82C3D2D
:1003600029468DF8569004F0A6FA3846294604F03E
:10037000A2FA29468D4804F09EFA8D4B28465A6809
:1003800042F000725A6008F0F3FA159B894AB3FBF9
:10039000F2F3C8F80830884B4FF47A72C3F8009033
:1003A000C3F80490BBFBF2FB844B0BF1FF325A60A5
:1003B000F0228AF82320C3F808900722DFF8409241
:1003C0001A6099E80F0085E80F00A369159843F0BB
:1003D0000803A361A36916A943F00803A3610823D6
:1003E0003B6110233B6104F066FA179818A904F0EA
:1003F00062FAB268724B120751D593F81A21012A9A
:100400004DD8D9F8100029462860384693F81BA12A
:1004100004F051FA0A2003F0B7FBBB6803F0200395
:100420009BB2002B3BD1674A1188083A128842EAF6
:100430000141654A914240F03E85DB072FD5634B71
:10044000DFF860911868584F4FF0100AC9F814A0EF
:1004500029461590384604F02EFA08233B613C20CB
:1004600003F09DFBC9F810A04FF00009BA4696F8BA
:100470001B31994513DADFF82CB10827CBF810703F
:100480007820CAF8147003F07FFBCBF81470782042
:10049000CAF8107003F078FB09F10109E7E764205E
:1004A00003F07DFB4A480021A02214F0F6FEE36928
:1004B00043F00703E361A36943F4006343F00C03D3
:1004C000A3610023434F4FF0000A07F10C0203F829
:1004D00002A001330E2BF5D1FF23BB76FB763B77D1
:1004E0007B773D4A3D4BB4681A6007F120005146C6
:1004F000302214F0D2FE04F0400951462037384B28
:10050000CA5C0C234B43FA54B9F1000F05D11E3AD3
:10051000012A02D8334AFF20985401310429EED130
:10052000314B96F805B0C8F85030304B14F0200F1E
:1005300003EBCB012E4F2F4A91F861109A461CBF56
:1005400001233B6082F800B008BF396000232A4ACB
:1005500040F2DC5199520233102BF8D10FA8002140
:10056000162214F09AFEBBF10E0F02D0BBF1080F59
:1005700002D101238DF84C30114B03F1200193F986
:100580003A21012A02D1B3F83C01D8BB08338B428F
:10059000F5D1002337E000BF001BB700682F002013
:1005A0000005FA05000C0140000801400010014060
:1005B0000000014040420F00382F002010E000E012
:1005C000FC060020106C004007B0F750C47C010806
:1005D000EC2D00200001002034080020EC1A00203F
:1005E00060000020200100200C070020687C01082A
:1005F000B41400208C1400208E14002000ED00E0C4
:10060000B07C010813468DF84130C4F340038DF8E7
:100610004230C4F3403319F100098DF83C30C4F383
:10062000C03318BF4FF001098DF83F3014F4006358
:100630008DF8449007D096F80E31B3F1010EDEF13B
:10064000000353EB0E038DF84030C4F300438DF8E4
:1006500045303B6804F00101003318BF01238DF8D9
:100660004630B84BC4F3C0021B684FF47A7093F85D
:10067000A6318DF83D10C3F380038DF84730B6F8EE
:10068000D6308DF83E20ADF84A30B6F8E230ADF8FD
:100690005000ADF84830C4F380438DF84330B6F8CD
:1006A000E030E404ADF84E3004D5A748B0F8DC00E3
:1006B000ADF85000B3F5FA7F84BF0023ADF8503099
:1006C00096F82431A14888F85430002388F8553032
:1006D00043709DF84C30002B14BF0223002301B956
:1006E00002B101330AEB8303D3F820314FF0000845
:1006F0000693CDF81080069B33F808204FF6FF7361
:100700009A4200F07681D3B2914F9DF841101E01BC
:10071000BC1919B1991E012940F265819DF8441058
:1007200021B1B9598B48814200F05D819DF8451097
:1007300029B1DFF820E2B859704500F054819DF8E6
:10074000420040B1DFF834E26068704503D1A06830
:10075000102800F048819DF83F0040B1DFF81CE20E
:100760006068704503D1A068022800F03C819DF8C4
:10077000400040B1DFF808E26068704503D1A0682E
:10078000022800F030814FEA122ABAF1020F02D19A
:100790009DF83C2004E0BAF1010F04D19DF83D2002
:1007A000002A00F020819DF8462062B19DF84C207F
:1007B0004AB9A3F10802012A05D8B859664A9042FD
:1007C00008BF4FF0040A9DF8472052B19DF84C2015
:1007D0003AB911B10C3B012B01E0043B032B40F271
:1007E000EA80BAF1010F42D15C4BFF2283F89C20D2
:1007F00083F89D20E17BA2684FF0000B83F8A0B046
:10080000C3F8AC406068ADF854208DF85610022251
:10081000294683F858B0C3F85CB0C3F860B0C3F899
:1008200064B0C3F898B083F89EB083F89FB08DF899
:100830005720039304F03FF8B859217B5A460EF035
:10084000E5FC2046594652460FF016FD039B444AEC
:10085000C3F8B8B0C3F8B020424A2046C3F8B42069
:1008600003F1B00103F1B4020EF0ECFFBBE0BAF10A
:10087000020F42D1049A3C49D3B21C225A43049B32
:1008800001EB020B4FF000094FF0010C8BF8013027
:100890008BF802908BF80A9001F802C0E17BA26805
:1008A0006068CBF80C408DF856102946CDF80CC086
:1008B000ADF854208DF857A003F0FDFFB859217B07
:1008C0004A460EF0A3FCDDF80CC0204662464946BD
:1008D0000FF0D2FC254A2046CBF81020244ACBF852
:1008E0001890CBF814200BF110010BF114020EF04C
:1008F000A9FF04980130049075E0BAF1030F57D1B5
:100900009DF84330154E33B196F8567020460821B5
:100910004FF6FF723CE0BDF84E3096F85670B3F5D6
:10092000FA7F2FD9134A2046B2FBF3F20821BDF813
:10093000503092B20AF050FA06EB8707C7F88001F0
:100940000D4B2EE0F0110020FC0600205501002088
:10095000EC9C010800040040002C01400001002034
:100960000D37000811380008A001002049F20008E6
:10097000E937000800127A00313800080008014009
:10098000000C0140AF4A2046B2FBF3F2012192B2C3
:10099000BDF850300AF020FA06EB8707AA4BC7F8DB
:1009A0008001C36096F85630013386F856301AE05D
:1009B000BAF1040F17D1BDF84830A24AA34E92FBFA
:1009C000F3F22046BDF84A30012192B296F85570F4
:1009D0000AF002FA96F8553006EB87070133C7F89C
:1009E000B00186F8553008F10208B8F11C0F7FF409
:1009F00082AE964B964A93F855109B461170954AD5
:100A00001678172E1DD10024DBF85030002118591C
:100A100003EB040811F070FC20B18F4FBB68D804C1
:100A20002CD427E08D4F98E80F00274487E80F006B
:100A30008B4B10341A78C02C02F101021A70E3D1EA
:100A4000EBE7884B864A03EBC60393F860E0D3F8E4
:100A500064C082F800E0BCF1000FDED000247445D1
:100A6000DBDA7E4F23011F4463440FCB013487E858
:100A70000F00F4E7082E7C4B28D129E0784B93F83F
:100A80000090B9F1010FF5D9784C4FF00008C84536
:100A900004F11004EEDA54F8100C4FF07C5111F010
:100AA00097FA4FF07C5144F8100C54F8140C11F0E4
:100AB0008FFA4FF07C5144F8140C54F80C0C11F0E0
:100AC00087FA08F1010844F80C0CE0E70E2E03D178
:100AD0001A7842F0100202E01A7822F010021A701E
:100AE0000BF030FC624B634E1A78634C42F0040208
:100AF0001A7033784FF48052012B8CBF10231423CB
:100B00008DF856304FF002038DF85730A369ADF8D9
:100B1000542043F00403A3618CBF4FF001084FF051
:100B200000085648294603F0C6FE554BB8F1000FA1
:100B300001D0544A00E0544A00201A6003F039F80A
:100B4000524BDFF8548193E80300A36985E8030062
:100B500043F0080316A9A361159803F0ACFE09F051
:100B6000F3FC9F238DF83830322000234FF4805956
:100B70008DF839308DF83A308DF83B3003F00FF8AE
:100B80000422C8F8149028460EA90BF017FDC8F8E7
:100B900010909DF856209DF85530120242EA03420B
:100BA0009DF857301A433A4B9A4214D0322002F043
:100BB000F6FFC8F81490F5200BF088FCFF200BF02E
:100BC00085FC7028C8F8109005D13378022B02D12B
:100BD000284B03221A703378032B02D0012008F02F
:100BE0004BFA3678BD6804962A4E4FF0100A05F489
:100BF0000063524630460021069314F04EFB4FF638
:100C0000FF73ADF8383002234FF0000815EA0302F5
:100C100005F400498DF83A308DF83B8035463DD0DB
:100C200016480EA9ADF838A007F0F4FE4FF0010AFF
:100C300004220723327086F8018086F802A0F37040
:100C40002DE000BF40420F002138000800010020C5
:100C5000B81400208C140020FC060020B0130020E3
:100C6000672F0020687C010846100020B813002080
:100C7000402F0020682F0020001002400008014093
:100C8000442F0020FD35000811360008987D01082A
:100C900015202000E4190020000C01409246049B1E
:100CA000012B12D9202395480EA9ADF8383007F052
:100CB000B1FE052301222B72AA720AF10103072259
:100CC00085F809A0EA725FFA83FAB9F1000F11D032
:100CD00002238A480EA9ADF8383007F09BFE0123A5
:100CE0000AEB03022B71AB71072385F805A0EB71AA
:100CF0005FFA82FA069B93B1022381480EA9ADF8F0
:100D0000383007F087FE092301222B73AA730AF1FA
:100D10000103072285F80DA0EA735FFA83FA63687E
:100D2000784843F4404363606369764E43F00103BF
:100D30006361A36943F40073A36107F001FF724B81
:100D400000241593714BBAF1020F169334BF23465A
:100D500080231A934FF480731B934FF480631C938A
:100D6000202315A91D9330464FF400531E9317946A
:100D7000CDF860A019941F9407F0C4FE3368BAF14F
:100D8000010F43F001033360614B98BF00215A68A3
:100D900088BF012122F4702222F4807242EA0122EB
:100DA0005A6099685B4A20460A4042F4602242F049
:100DB00002029A60D96A0AF1FF3221F47001D2B2BC
:100DC00041EA0252DA62012329188A78002A5AD0AD
:100DD0002A5C5C1C092A91F803E0E4B24C4911D961
:100DE000A2F10A0606EB46064FF0070C0CFA06FCC9
:100DF0000EFA06FED1F80C8028EA0C0C4CEA0E061E
:100E0000CE600EE002EB42064FF0070C0CFA06FC37
:100E10000EFA06FED1F8108028EA0C0C4CEA0E06F9
:100E20000E61062B3A490ED8013B03EB83034FF0CA
:100E30001F0E0EFA03FE9A404E6B26EA0E0646EA95
:100E400002034B6320E00C2B0ED8073B03EB83031C
:100E50004FF01F0E0EFA03FE9A400E6B26EA0E06A6
:100E600046EA02030B630FE00D3B03EB83034FF0F5
:100E70001F0E0EFA03FE9A40CE6A26EA0E0646EAD6
:100E80000203CB6200E01C460430102801D0234648
:100E90009AE71F4B9A6842F480729A609A6842F00F
:100EA00001029A609A6842F008029A609968184AAA
:100EB000090708D5FAE70AF1FF33092B8CBF002395
:100EC0000123FFF7BABA936843F004039360104A12
:100ED000936813F00403FAD19168B7F8E80041F47D
:100EE000A00191600C4AD0B9B2F9EA30B3B9B2F9B5
:100EF000EC30D3F1010338BF002310E000080140BB
:100F0000000C0140080002404C240140F41900206C
:100F100000240140FDF7F1FFFC060020034613F01A
:100F2000010340F08A80AF4A00B2137510F0FCFF55
:100F3000AD4911F04DF8AD4E0546B6F9EA0010F096
:100F4000F3FFA94911F044F80446B6F9EC0010F09B
:100F5000EBFFA54911F03CF88046284614F01AFC36
:100F60000646284614F08AFC0746204614F012FC78
:100F70000546204614F082FC0446404614F00AFC64
:100F80008146404614F07AFC31468046484611F0CE
:100F90001FF831460490404611F01AF84946069071
:100FA000384611F015F841460590384611F010F812
:100FB00029468246484611F00BF84146CBF8D0014D
:100FC00005F1004011F004F82146CBF8D401CBF82C
:100FD000D841059810F0FCFF0146069810F0F0FE8D
:100FE0002146CBF8DC01504610F0F2FF0146049890
:100FF00010F0E4FE2946CBF8E00107F1004010F0C4
:10100000E7FF2146CBF8E401049810F0E1FF014628
:10101000504610F0D3FE2146CBF8E801069810F0B8
:10102000D7FF0146059810F0CBFE3146CBF8EC0116
:10103000284610F0CDFFCBF8F0016C4CA3689F035D
:1010400020D5C82002F0ABFDAE2008F059F908B158
:101050000AF00DFA8BF8F401C82002F0A0FD644BF1
:1010600000210C226348CBF8F83114F016F9022362
:101070008BF8FF310EF036FD02F06CFD5E4B034441
:10108000CBF804325D4B5E4E1B685E4DB3F85230B8
:1010900029780693002333705B4BB4F8F09094F8F2
:1010A000EF70A3F1180294F8F740012998BF134696
:1010B0000494CBF8083208F0DDFB544C804630B382
:1010C000534B544AB9F1BB0F1A60534A5A60534A02
:1010D000DA60444B01D9012212E0B9F1610F01D964
:1010E00002220DE0B9F1290F01D9032208E0B9F17C
:1010F000130F01D9042203E0B9F1090F05D9052224
:101100005A7501233370022397E00622F8E719206D
:1011100002F045FD68201521424608F0ADF860B3A5
:101120003B4B3F4AB9F1620F1A603E4A5A603E4A51
:101130009A603A4ADA602B4B12D006D8B9F10A0FFE
:1011400015D0B9F1140F10D00DE0B9F1BC0F05D0D6
:10115000B9F5807F07D183F816800AE0012200E00C
:1011600002229A7505E00322FBE70422F9E7052233
:10117000F7E70123337004235FE095F80080B8F1AE
:10118000030F40F05581752015A901220BF04AFA92
:101190009DF85430702B40F04B811D4B234AB9F120
:1011A000BB0F1A60224A5A601C4ADA600D4B01D903
:1011B000012213E0B9F1610F01D902220EE0B9F169
:1011C000290F02D983F8178034E0B9F1130F01D940
:1011D000042203E0B9F1090F02D90522DA7529E0EA
:1011E0000622FBE70000002035FA8E3CFC060020BA
:1011F0000E080020FC020020404B4C00F0110020A3
:101200000A120020682F0020807C010800010020C5
:10121000F4110020B5A400083598000890C1793D6C
:1012200091A30008D19800089F98000835C50008D0
:101230004DC600080123337007236D4A13706D4BB0
:1012400092461968994641F0010119606A4E0023DF
:101250003370082F00F21986DFE817F0090017062F
:10126000090027007C009B002700B200B2002B7809
:10127000012B1AD84FF0000820AB03F82C8D532017
:101280004146012208F00AF978B19DF85430E52B67
:101290000BD15A4B5A4A8BF80C821A60594A5A6041
:1012A00004233370022300F0F5BD574B2978A3F1D6
:1012B0001802012998BF1346DFF87081CBF8083275
:1012C00008F0D8FA002845D0062115AB68200A4658
:1012D00008F0E4F89DF857309DF8597003F00103C9
:1012E0005B0007F0010743EA87079DF8553003F0DC
:1012F00001031F4306D0012F01D1002317E0022F65
:101300000BD113E00EAB68200C21012208F0C6F8C7
:101310009DF8383013F00F0303D1052008F04EFC80
:1013200007E0042B02D188F80D7202E0012388F84F
:101330000D32324B354A1A60354A5A609BF80D22FD
:10134000002A14BF6E226F221A7201233370032306
:1013500000F0A0BD2B78012B1BD8002220AB03F896
:101360002C2D1C200D21012208F098F888B19DF841
:1013700054302A2B01D01A2B0BD1204A25498BF847
:101380000E3211602449022333705160042300F0AF
:1013900081BD002120AB03F82C1D1820012208F08C
:1013A0007DF868B19DF85430FB2B09D1134B1B4AD3
:1013B0001A601B4A5A6001233370052300F06ABD8E
:1013C0002B78032B40F06185752015A901220BF0C5
:1013D00029F99DF85430702B40F05785074B114A7E
:1013E0001A60114A5A6001233370082300F052BD7D
:1013F00058000020EC0F0020482F00206012002031
:1014000045940008AB990008807C01081DA50008E0
:10141000F5970008919300080F990008219400089F
:1014200067990008893A000889C600080001002071
:10143000032008F0C3FBB04F10223B780A2543F08D
:1014400002033B70AD4B5A6108221A61AB4E192062
:10145000F368013D83F01003F360F36883F0080341
:10146000F36002F09CFB012002F0A3FB192002F0C4
:1014700096FB002002F09DFB15F0FF05E6D1082346
:1014800010279F4D336137612B68180707D59D4B97
:1014900077611B6898479C4B012237611A709B4B00
:1014A0009B4E1B68187B10F03FFD9A4910F090FD91
:1014B00014F070F98046308810F036FD414610F087
:1014C00087FD14F09DF9944B1880308810F02CFDA6
:1014D0000146924810F030FE914910F02DFE914BDC
:1014E0008C491860904B914ED86810F071FD90496E
:1014F00010F06EFD8F4BFF2118601622304613F05E
:10150000CCFE002232702A688B4B012112F0020FB0
:101510001970304604D07170032119700221B17026
:10152000510704D519784E1C1E700326465412F03C
:101530000A0F0CD01A7804218154511CC9B2052617
:101540004654D11C02321970D2B2062181547B4E0E
:10155000B268970608D5197801F1010E83F800E00A
:101560004FF0070E00F801E011060ED519784FF084
:10157000090E00F801E001F1020E013183F800E0EC
:10158000C9B24FF00A0E00F801E07179082901D0C4
:101590000E2908D1197801F1010E83F800E04FF00F
:1015A0000B0E00F801E019784FF00C0C01F1010E60
:1015B0005FFA8EFED70383F800E000F801C009D57A
:1015C00001F1020C5C4981F800C058494FF00E0C43
:1015D00001F80EC0510708D5197801F1010E83F802
:1015E00000E04FF0100E00F801E019784FF0120CF7
:1015F00000F801C096F85CC101F1010E5FFA8EFEA1
:10160000BCF1000F0CBF002702F0010783F800E0D7
:101610004FB101F1020C484981F800C043494FF035
:10162000130C01F80EC01978920501F1010E5FFA52
:101630008EFE83F800E04FF01403435406D53E4B72
:1016400002311970394B152203F80E20002198221F
:101650003B4813F022FE06F0EBFB0DF095FD394BF5
:10166000394AB6F81E011A6081B20023374A9952EE
:101670000233242BFAD1B3681B0740F116812F4B9C
:1016800093F81A31062B00F20981DFE803F0040415
:101690006F96AECACA002E4A2E49012B11602E4FFA
:1016A0002E4A2F480BD14FF0030C4FF0070E82F853
:1016B000503287F800C080F800E00C2307E00223D6
:1016C0003B7003230370002382F8503207230B7012
:1016D000244B4020C2F8543207F0B6FC002800F03A
:1016E000DD8001234FF0000A90F9000040218DE8D1
:1016F00008041D4A76E000BF402F0020000C014086
:10170000EC0F00203810002058100020A8120020F4
:101710001C00002035FA8E3CCC1200200AE81C4147
:1017200000401C46A0110020F4110020971D00204D
:10173000BD378635A4120020961D0020FC0600202F
:10174000501A0020840E00200E08002002100020F5
:101750008C0E0020AD1D0020890E0020000100200D
:10176000900E002071840008CD85000810F0DCFB8D
:10177000724910F02DFC724910F020FB10F014FE9D
:101780000023704A98500433482BFAD16E4A6F4BAD
:101790004020C3F854226E4B12221A7007F054FCFA
:1017A00000287BD001234FF0070990F90000402169
:1017B0008DE80802674A684B6AE0684A634B40203C
:1017C000C3F85422624B10221A7007F03DFC002827
:1017D00064D001234FF0000890F900008DE8080163
:1017E0005F4A40214FF4E13352E05E4B574F0822ED
:1017F000C7F85432564B40201A7007F025FC0028D9
:101800004CD001234FF0000C90F9000040218DE8EE
:101810000810554A4FF4E13306F0C8FAC7F85802E9
:1018200038E04B480C21062B484A504F017010D02D
:1018300000233B7082F85C3282F85D321B2382F811
:101840005E32052382F85F1282F860324FF4E1378E
:101850000DE00020387082F85C0282F85D02444F8F
:10186000212082F85E0282F85F1282F86032414BDA
:101870004020C2F8543207F0E7FB78B101234FF063
:10188000000E3D4A90F9000040218DE808403B469B
:1018900006F08CFA003018BF012030B9082002F0A1
:1018A000EAFC2A4B0022C3F85422B368DFF89C807C
:1018B00013F4804F264A04D0082111702F49C8F82C
:1018C000541242F20101194051B12D499804C8F84F
:1018D000541244BF08211170D90744BF0C21117064
:1018E00011781B06A1F10401517040F18A80DFF8E4
:1018F000A0904FF0000ADFF89CB051461522214815
:10190000214FC8F864B289F801A0C9F804A0C9F849
:1019100008A013F0C2FCABF1040350463B600AF090
:101920002BFF1A4B02201B68C9F80C3007F08CFB08
:101930004B4688BB802002F09EFC5AE0CDCCCC3FC9
:101940000000B044D80E0020BD8400080001002033
:10195000AD1D0020D9860008A0860100AD840008D6
:10196000658600089984000819860008D80F0020B1
:1019700090D003005984000801850008E98400081C
:10198000F584000868030020E4110020342F0020B3
:10199000C41100203408002090F805C05A78C849C6
:1019A0004FF00C0909FB021999F80190E14504D0A8
:1019B0000132D2B2042AF2D900225A703A685B7816
:1019C00012784FF00C0E0EFB0311002A0CBF0122FF
:1019D000032290F90000009200224B78019202212C
:1019E00006F0E4F9B74B18600028A3D001200AF0F4
:1019F000C3FEB54B1868B54B00F5D8721A6002F0FB
:101A00000BFEB3689F050DD598044CBFB048B14894
:101A100009F066FC2B684FF0FF3243F010032B6097
:101A2000AD4B1A60AD4BAE4DC8F880328033C8F86C
:101A30008432B3684FF00009D90385F8009040F173
:101A4000B28002F00BFDA74BA74F40F22A3B4FF0AC
:101A5000010A18465A46494685F800A0039313F038
:101A60001CFCB969A14841F00401B9614021ADF8FD
:101A7000341018218DF8371003218DF836100DA978
:101A800006F0C8FFF9699A4D41F00201F9619949E0
:101A9000A7F6947708689849B0FBF1F029880138D7
:101AA00021F45C710904090C298080B21D21A985EB
:101AB0002885A5F814A0298C21F001010904090C3E
:101AC0002984298CB5F804E0288B21F0020120F04C
:101AD000730000040904000C090C1FFA8EFE40F08C
:101AE000600041EA0A01A5F804E02883A5F83490D3
:101AF0002984298B21F008010904090C41F008010F
:101B00002983B5F844106FEA41416FEA514189B227
:101B1000A5F84410D7F8A81F41EA0A01C7F8A81F82
:101B2000384607F00DF87549039B159180211A91ED
:101B30004FF480711B914FF4005116931E911023A6
:101B4000384615A917930393CDF86490CDF870909B
:101B5000CDF87490CDF87C90CDF860B006F0D2FF4F
:101B6000A989039B89B241F40071A98139680EA843
:101B700041F0020139608DF838308DF839A08DF8C8
:101B80003A908DF83BA005F081FD5D4B1A685D4BE6
:101B900049F8032009F10409B9F1800FF5D105F0E6
:101BA00053FC05F051FCB3685A0555D5D4F8B495EB
:101BB000554B0420C3F8009007F046FA0421C4F8FE
:101BC000B80507F017FA514B84F8BC050820C3F894
:101BD000009007F039FA0821C4F8C00507F00AFAA6
:101BE0004B4D84F8C405002128462C2213F055FBE8
:101BF0008E236B704FF07C0BE0234FF07D0AEB706F
:101C000085F800B085F82BA0424D2C2200212846F3
:101C100013F043FB8A236B701020A023EB7085F830
:101C200000B085F82BA0C4F8C89507F00DFA102174
:101C3000C4F8CC0507F0DEF984F8D0052020C4F8FC
:101C4000D49507F001FA2021C4F8D80507F0D2F99D
:101C500084F8DC0506F0A2FA2F4B304C1B78022BDF
:101C600040F091802E4BDFF8BC901A88002522F0BE
:101C700040021204120C1A801A88322022F0380214
:101C80001204120C1A801A884FF4805A92B242F051
:101C900040021A809F238DF838308DF839508DF826
:101CA0003A508DF83B5001F07AFF8DF855500422E0
:101CB000C9F814A015A80EA90AF080FC34E000BFF2
:101CC0000C830108C0110020F011002094130020A3
:101CD000A07D0108AC7D0108841100206808002067
:101CE000181900208803002000100240000801405D
:101CF000000400405C00002000366E013404004007
:101D0000828401081A19002058240020AC240020E5
:101D10007C240020B2240020682F0020F81D002021
:101D200000380040000C0140C9F810A09DF8563062
:101D30009DF855201B0243EA02439DF857201343A8
:101D4000984A93420AD002F54E0202F506429342A7
:101D500004D0954A934211D1202300E080232370C0
:101D60004FF480736380A3804FF48033A3602378A3
:101D70001B04E360012388F8DD3504E025706580ED
:101D8000A580A560E560E5680DB32D0CA9464FF070
:101D9000000AAA4515DA0AEB050464100DF1540B8C
:101DA0002004594610220AF0C1FC00235BF80320EE
:101DB000013240F07D820433102BF7D1A146254635
:101DC000E7E70EF071FC4FEA094005F04DFCB368FF
:101DD00013F4002318BF012388F8DE3501F0BAFEA2
:101DE000724B18607379052B03D1714B4FF4C87295
:101DF0001A80704B4FF47A721A806F4BC8221A8087
:101E00006E4B1A7842F008021A706D4B1A7822F065
:101E100002021A70B26840F6020313400BB3694B1A
:101E2000694A1C461A6005F0E5FB282001F0B7FE60
:101E3000079B013B0793F6D12368644AD878117851
:101E40005A789B78B1FBF2F201326149082A28BF27
:101E500008220A7092B250435A435E495E4B088092
:101E60001A80B3689B0308D5042388F8003298F8D9
:101E7000FF3143F0010388F8FF315848037863F0DD
:101E80007F03037021B0BDE8F08F012F0AD900272E
:101E9000FFF7DCB98AF80130D9F8003043F00203CB
:101EA000C9F800302B78012B05D10AF0F3FA4C4B1E
:101EB0004FF400525A610A2001F071FE7720A021F0
:101EC00001220EAB07F0EAFA30B99BF82072454DBB
:101ED000002F00F095805CE11E210122772007F0A1
:101EE000CBF94FF42F6001F04FFE0025A5F1600102
:101EF0000026C9B2022215AB77208DF854608DF808
:101F0000556007F0CBFA9DF855309DF8541043EA20
:101F10000121344B03F50472A9520235102DE5D18D
:101F2000B3F81E72012107F00F0507F47F47A3F8ED
:101F30001E723246334622F001002044B0F81002EF
:101F4000002818BF0021D60703D5C0B2434008209F
:101F500002E083EA1023FAE71E0448BF83F4C0536B
:101F600001384FEA4303F7D10132102AE3D12F435E
:101F7000A4F81E720029A8D1C3F303339D42A4D153
:101F8000194B42F210721A805A80184A5A60184A45
:101F90009A60184ADA60184A1A61184A5A6103238B
:101FA0007AE100BF17BA200015202000FC120020A3
:101FB00072120020582F0020562F002046100020BB
:101FC000662F002050240020020800205424002006
:101FD00070000020B0240020DA190020402F0020DB
:101FE00000100140000100206410002053930008FD
:101FF000559700084B93000865970008553800086E
:10200000DFF810830AF046FA4FF4804604230EA945
:102010004046DFF80493ADF838608DF83A3002F0AE
:102020004AFC4FF40053C8F81030484608F0D8F97D
:102030000E21022002F02AFC0823159615A801267D
:102040008DF859304FF0030A8DF858708DF85A60AA
:1020500005F03CFB28230DA88DF834308DF835A011
:102060008DF836708DF8376005F010FB142001F004
:1020700096FDD0210EAB7720324607F00FFA9DF87F
:102080003830A5F844A2552B85F83B32414640F044
:102090008280D12132460EAB772007F0FFF99DF800
:1020A0003830772003F00F021B0985F83C2285F8B1
:1020B0003D32162215ABAA2107F0F0F99DF8542005
:1020C0009DF8553043EA0223A5F824329DF85620A6
:1020D0009DF8573043EA0223A5F826329DF8582090
:1020E0009DF8593043EA0223A5F828329DF85A207A
:1020F0009DF85B3043EA0223A5F82A329DF85C2064
:102100009DF85D3043EA0223A5F82C329DF85E204D
:102110009DF85F3043EA0223A5F82E329DF8602037
:102120009DF8613043EA0223A5F830329DF8622021
:102130009DF8633043EA0223A5F832329DF864200B
:102140009DF8653043EA0223A5F834329DF86620F5
:102150009DF8673043EA0223A5F836329DF86820DF
:102160009DF8693043EA0223A5F83832524B41F218
:10217000707285F820621A8046F678125A804F4AAB
:102180005A604F4A9A604F4ADA604F4A1A614F4A82
:102190005A61022380E04E4B1A684A4503D05A68C0
:1021A0004A4504D100E03E46002243F826204FF481
:1021B00000534B61474E33689D0702D5464B1B6861
:1021C0009847464B1B689847454B049D1F78454BE5
:1021D000A3F10C02012F8CBF1F461746424B002271
:1021E0001A7098460DB1022D5ED120AB03F82C2D4C
:1021F0003E4A1E20C2F848720A21012207F04EF919
:10220000002851D09DF85430482B4DD1384B394AD5
:102210001A60394A5A60032388F80030374B02228B
:10222000DA70336843F008033360354B93F8E420E9
:102230000AB134490A7093F8E5200AB132490A70AC
:1022400093F8E6300BB188F800303368274D13F06F
:10225000080F1CD0069A64270FFA82F898FBF7F64D
:1022600030460FF061FE814607FB168000B20FF08A
:102270005BFE26490FF0ACFE014648460FF0A0FD7C
:1022800023490FF0A5FEC5F84C02FFF7D4B8002390
:10229000C5F84C32FFF7CFB8184A93700D4B1A6847
:1022A00042F004021A6085E7012DBED9002595E7AA
:1022B00004F1010A2C4682E5641000207D93000899
:1022C000C19700085B93000875970008AD390008B6
:1022D000382F0020EC0F002060120020F4110020A5
:1022E000682F0020A47C01085A2F00200001002044
:1022F000381000208D95000819950008580000201E
:10230000FC0600200A120020482F00208988883C03
:102310000000204100100140D56D0008B64A2DE9AB
:10232000F04FB64B1468B3F9060023898DB098427C
:10233000904610DBB0F5FA6FE27908DAC11A4A4329
:10234000A3F5FA6392FBF3F36433049305E0C2F15F
:102350006402049201E064210491A94B0021B3F8C6
:102360001E210592A74A156893F9EE20AA4652420B
:1023700092B206920A46A14B059E31F903B0C6EB14
:102380000B0303F2F31740F2E636B74203D8002BF3
:10239000B8BF5B4201E04FF4FA73022ADFF878E23B
:1023A0002ED095F85D6126B1B342CCBFC6EB0303D6
:1023B0000023642693FBF6F7934E6FF0630936F81B
:1023C00017C009FB0739013736F917700797079EC1
:1023D0000FFA8CF7F71B07FB09F7642697FBF6F754
:1023E00067442EF80170A7183F797B43874F93FB12
:1023F000F7F33344049F9BB27B4393FBF6F615E05F
:1024000095F85E6126B1B342CCBFC6EB030300234F
:10241000069F03FB07F6AEF80460A679002BB8BF51
:102420005B425E43794F96FBF7F66436AB1893F840
:1024300001E0774F06FB0EFE64239EFBF3FE02F8DD
:1024400007E09AF80BC007F1030E06FB0CFC9CFB9F
:10245000F3FC02F80EC09AF815E0063706FB0EF6FC
:1024600096FBF3F6059BD6559B45DFF8ACB104DA35
:102470003BF801305B422BF801300132032A01F1B5
:1024800002010AF1010A7FF476AF5D4DB5F8203103
:10249000984205DBB0F5FA6FA8BF4FF4FA6000E090
:1024A0001846C01A4FF47A725043C3F5FA63B0FB72
:1024B000F3F36427544C93FBF7F204EB42016FF003
:1024C000630000FB0233098B04EB4202B2F91A00ED
:1024D0000AB2821A534393FBF7F74E4B39441A88DA
:1024E0004D4E5206ABF806103DD54C4B1888238E46
:1024F000C01A00B20FF018FD49490FF069FD0746F8
:1025000013F048F98146384613F0B8F90746B6F992
:1025100002000FF009FD8246B6F900000FF004FD3D
:10252000494602900FF054FD394602465046039248
:102530000FF04EFD039A014610460FF03FFC0FF0DE
:102540000DFF4946308050460FF042FD029B814608
:10255000394618460FF03CFD014648460FF030FC66
:102560000FF0FCFE7080AA6840F6020313402D4E67
:10257000002B00F0C3802C4B06211F88636B1F4487
:1025800094F8383067630133DBB2B3FBF1F084F8C1
:10259000383001FB103313F0FF0F40F0AF8093078A
:1025A00011D505F027F8214B174A1B78528F9A4214
:1025B00006D21F4A12889A4234BF0023012300E04A
:1025C000022384F83C30AB68180540F195800C4A32
:1025D000BBF906B0B2F8DE00164AABF57A7BD2F84A
:1025E00000A0DFF854909AF80820012A26D06CD376
:1025F000022A45D06CE000BFA0130020021000208A
:10260000FC060020F0110020A01900200CFEFFFFA6
:10261000AE190020F40F00207A130020E4120020ED
:1026200035FA8E3C662F0020FA1200205424002038
:10263000B0240020502400205C24002094F8513065
:10264000206C04EB4303B3F85410082390FBF3F21F
:1026500089B2821A0A4492FBF3F322649BB240F6D9
:10266000E4425343A4F85C10BAF806104FF47A72AF
:10267000C1EB13335343BAF9042093FBF2F325E083
:102680003178BAF806204907C9F8002020D503920E
:10269000029309F0DFFE039A029B20B913F0100F9A
:1026A00018BF4FF0000B0BFB0BF1322391FBF3F340
:1026B0009B44BAF9043003FB0BFB4FF47A739BFB8A
:1026C000F3FB5A44C9F8002002E00023C9F80030A7
:1026D000D9F80030D4E918015F434FF47A7397FBBF
:1026E000F3F7C01941EBE7710023C4E91801714AFF
:1026F0000FF07AFE704B1860002363636F4A704BD3
:102700001768934617F480511ABF012283F8682096
:1027100083F86810AB6894F83C90DB052FD596F8E9
:1027200000A00AF0040A5FFA8AFA01F0A7FB18B1C8
:102730001AF1000018BF0120C00711D50123E26E75
:1027400084F869305F4B1078B3F900105378034474
:1027500003EB8303994203DD594B022283F869207E
:1027600001F08CFB28B1BAF1000F02D1022384F8EA
:102770006930544BB3F900300BB984F86930524BCF
:102780001A689A4612F0200F0BD017F4C06F05D0CC
:102790004E4B1B78990701D4012300E0002384F8F5
:1027A000703094F86920464B022A02D14C204E2109
:1027B00026E0012A06D153204D214C220B460AF077
:1027C00015F832E093F87020012A03D15320014616
:1027D0004E2206E093F86820012A04D153200146D6
:1027E00002464D23EBE7B9F1020F04D15320014615
:1027F0004D224423E3E7B9F1010F03D153204D21CA
:102800000A46F6E7324F3A88120603D553204D2187
:102810000246D3E72F4A107818B1192009F0BAFF01
:1028200003E083F8710001F0C4F93278570703D54B
:10283000294B08225A6178E0DBF80030D80703D42E
:10284000264942F001020A70DAF80020510702D549
:102850002349098861B92349098809B1920705D438
:10286000214A1288003218BF012200E0012242B141
:10287000194AD16881F00801D160327822F0010252
:102880003270124A1278170703D4327822F001020C
:102890003270D80203D5337823F0010333703378D4
:1028A000124A13F0010F23D0002363670A4B08215B
:1028B000196129E0407E050060240020F00F00200F
:1028C000A0190020DA0F0020EC0F00204610002095
:1028D000F40F00209E120020000C0140662F002003
:1028E000562F002072120020582F00204C2F00205D
:1028F000616F136841B9BD4903F5F42303F5907383
:102900004B67BB4B08215961636F12686BB1D21AD8
:10291000002A0ADBB64A03F5F423D16803F5907365
:1029200081F00801D160B14A5367B24F05F036FC1F
:102930003B78002B72D0A36F002B00F09285A06F24
:10294000AA4D01F051F9002800F08B85A86F01F025
:1029500046F9092801D03F2853D14FF00009E66F0E
:10296000DFF8B4824D4636B1A348D8F8001032469D
:1029700012F0DCFC10B9C14605B945469F4B08F181
:102980000C089845EFD3F5B1D5F800C0D9F8008010
:10299000E36F96481CF803E018F80310714512D154
:1029A0005A1C59B92D2B09D8C26703444FF0200E89
:1029B000024483F880E082F8801004E0234483F826
:1029C00080E0E267E4E7E36F0BB14D4510D08C483F
:1029D00006F0C6FA4D4507D855F80C0B06F0C0FABC
:1029E000092006F0B6FAF5E7864806F0B9FA00269F
:1029F000E36F9E42A3D2804B985D06F0AAFA01369F
:102A0000F6E7EB6F002B40F05F85042840F0B085BF
:102A100005F1800005F0A2F900F023BD7A4F97F888
:102A20004A30012B40F01885784A794B3968176095
:102A3000196092469B46DBF80000DFF8D49101F064
:102A4000D3F8002800F0F984D9F8000001F0C7F8A5
:102A5000DAF8003093F848201AB9242839D1012235
:102A600034E0012A04D14D280CBF022200222DE0BF
:102A7000022A04D13C280CBF0322002226E0032AAC
:102A800009D140284FF0000220D81A71DA7158712C
:102A9000987104221AE0042A06D19A7983F8490031
:102AA00050409871052211E0052A26D159791A79EA
:102AB0009142997906D941409971511C1971134479
:102AC00018721AE081420CBF0622002283F84820C7
:102AD00013E033785B0710D42328D9F8003040F096
:102AE000E384444A01214B481170A367C4F848317C
:102AF00006F036FA434806F033FADAF80030DFF829
:102B00000C9193F84820062A95D193F8490003F0D8
:102B1000A9FA002840F08584D9F8002092F84930BD
:102B2000442B00F0788400F2A580312B00F03F8424
:102B300033D8272B00F0A8830BD8232B00F0FA8082
:102B4000252B00F09B83212B40F0BB844FF0000924
:102B5000FCE22B2B00F0B68314D8292B40F0B18473
:102B600006F0E4F9A5F80A0106F0E0F9A5F80C0171
:102B700006F0D2F985F80E0106F0D8F9A5F8100193
:102B800000F04CBC2D2B00F0A1832F2B40F099843A
:102B9000DFF8889009F1400AF8E3392B00F08183CF
:102BA0000ED8352B00F0B481372B00F0B283332BD5
:102BB00040F0878406F0B0F985F81C0100F02EBCC7
:102BC0003E2B00F0F0802DD83C2B40F07A84DFF8CB
:102BD0005090D9F800A006F09FF98AF80000D9F8C3
:102BE0000030187801F006F900F018BCA019002098
:102BF000000C0140612F0020201A00202C930108B6
:102C000004A9010809A90108501A00200425002080
:102C10000825002039A90108F4910108FC060020CC
:102C2000F0110020412B00F06683432B40F04984D3
:102C300006F072F90023AB60687106F081F901F0CB
:102C400023FB06F069F985F81A0106F06FF9A5F87B
:102C5000E80006F06BF9A5F8EA0006F067F9A5F8B8
:102C6000EC0006F063F9A5F80A0106F05FF9A5F893
:102C70000C01D3E3CF2B00F0CB811FD8C92B00F080
:102C800096820AD84A2B00F09780C82B48D0482B50
:102C900040F017840AF062FCC0E3CC2B00F06381A3
:102CA00004D8CA2B00F08C8000F00BBCCD2B00F0B8
:102CB0006782CE2B00F06D8200F003BCD32B2AD0AC
:102CC00005D8D12B00F09B8240F24F8210E0D62B2A
:102CD00000F0F58106D8D42B08BF4FF0000A00F0B1
:102CE0001282EEE3EF2B4FD0FA2B00F05C82E8E388
:102CF000337803F0040303F0FF09002B40F08E83C8
:102D000006F00AF9022885F8600740F23482B74BD2
:102D100083F860972FE206F009F9B54B18807DE340
:102D200092F805A04FEA5A0ABAF1120F1CD84FF0D8
:102D300000091CE006F0F0F8272815D8DFF8C0A23B
:102D400000F11C0BDAF8003003EB8B0B06F0E4F813
:102D5000A84B0BF1050903F58A72197A814200F03C
:102D6000C1800C339342F8D10CF01CFA56E3D145E4
:102D700007D206F0DBF8A04B23F8190009F101098E
:102D8000F5E701229D4B0CE2DFF87492D9F800A020
:102D900006F0CCF8AAF85600D9F8009006F0C6F86C
:102DA000A9F854003AE306F0B7F885F8270106F0D1
:102DB000B3F885F8260131E306F0B8F8A8812DE3D1
:102DC0008F4B1A6899461278022A6ED14FF000098B
:102DD000DFF82CA209F1080BDAF80030029306F0B4
:102DE0009BF80FF09DF887490FF0A6F9029B43F876
:102DF0002B00DAF800B006F08FF809F10A030BEBAC
:102E0000830B0FF08DF880490FF096F9DAF8003057
:102E1000CBF80400029306F07FF80FF081F87B49AD
:102E20000FF08AF909F10E0B029B09F10109B9F1C2
:102E3000030F43F82B00CBD1B9F1070FDAF800B03C
:102E40001AD106F069F80FF06BF86E490FF074F9BB
:102E5000CBF84400DAF800B006F05EF80FF060F846
:102E600068490FF069F9CBF84800DAF800B006F0CD
:102E700053F88BF84C0012E006F04EF80BEB090308
:102E80005870DAF800B006F047F80BEB0903D87277
:102E9000DAF800B006F040F80BEB0903587509F1B9
:102EA0000109B9F10A0FC7D1B8E24FF0000AD9F809
:102EB00000B006F031F80BEB0A035870D9F800B0F7
:102EC00006F02AF80BEB0A03D872D9F800B006F026
:102ED00023F80BEB0A030AF1010ABAF10A0F58753D
:102EE000E5D19BE21B788BF8053006F015F889F8E0
:102EF000010006F011F889F8020006F00DF889F8D3
:102F00000300DAF8001001F175000BF05FFE85E2B6
:102F100006F002F80B283FF627AF4FF0060A0AFB2F
:102F200000F0374B00F588701B6803EB000A05F0D2
:102F3000F3FF03283FF618AF8AF80A0005F0ECFF0C
:102F40008AF8050005F0E8FF8AF8060005F0E4FFBE
:102F50008AF8070005F0E0FF8AF8080005F0DCFFBA
:102F60008AF809005AE253790A2B7FF4FDAED8F8AB
:102F7000009005F0D1FF89F80000D8F8009005F026
:102F8000CBFF89F8010005F0C7FFD8F800306428AE
:102F9000A8BF6420187105F0BFFFD8F8003064287E
:102FA000A8BF6420587105F0B7FFD8F80030FF289B
:102FB000A8BFFF20987105F0AFFFD8F800906428F3
:102FC00028BF642089F8070005F0A6FF89F80200F1
:102FD000D8F8009005F0A0FF89F80300D8F8009019
:102FE00005F0A4FFA9F8080018E200BFFC060020C5
:102FF000821300202C93010802100020E00F002013
:10300000F0110020000020410000C84200007A4476
:1030100005F08CFF6FF4AF6143189BB2C62B98BFCD
:10302000A5F81E0105F082FFCC49DFF83893A1F81E
:10303000D00005F07BFFC94AA2F8D20005F076FF68
:10304000C64BD9F800A0A3F8D40005F06FFFAAF88A
:10305000AA0105F061FFC14981F8340105F05CFF68
:1030600005F05AFFBD4A82F8350105F055FFBB4B0C
:1030700083F80F0105F050FFB84981F81C0105F0F5
:103080004BFFD9F8009005F051FF00EB80004000A5
:10309000A9F8520005F040FFB04A82F8060105F099
:1030A0003BFFAE4B83F8080105F036FFAB4981F8D2
:1030B000070105F031FFA94A82F80901AEE1814616
:1030C00005F034FFA64B23F8090009F10209B9F114
:1030D000100FF5D1A2E1A0F57A739BB2B3F57A7F18
:1030E00004D8D9F8003003EBCB035881D9F800900D
:1030F00005F012FF0AF1010A09EBCB03BAF1080F40
:10310000187300F08B81DFF85C920AF12C0BD9F870
:103110000020039205F00AFF039A4FEACB031A44FA
:10312000D080D9F800200293039205F0FFFE029BA5
:10313000039A1A441081029305F0F8FE0728029BB7
:10314000C9D8D9F8002013445873C4E7854BD3F885
:1031500000A005F0E1FE0AEBC90309F10109B9F18C
:10316000080F83F86D01F1D158E133785A0700F167
:1031700055810BF067FD06F053FD06F0F1FD4DE1C2
:1031800033785B0700F14A81774B4FF4C8721A809D
:1031900044E13378580700F14181744B1A7842F0CA
:1031A00004021A703AE133785907E4D589E105F051
:1031B000B3FE6E4B1A7810B142F0020201E022F029
:1031C00002021A7005F0A8FE694BDFF8BC91187076
:1031D00005F0B6FEC9F8000005F0B2FEC9F804001B
:1031E00005F0A4FE634B188005F0A0FE624B18802A
:1031F00094F8503143F0020384F850310EE105F0A9
:103200008BFE029005F09CFE834605F099FE8246F7
:1032100005F096FE814605F089FE05F087FE05F073
:103220007BFE029BABB95549C4F854B10B88C4F876
:1032300058A123F010030B804C4B1A7842F0010286
:103240001A70B9F1000F00F0E9804D4BC3F80090FF
:10325000E4E0102B40F0E280C4F85CB1C4F860A157
:10326000B9F1000F02D0464BC3F800904548022345
:10327000011D84F864310CF0B9FFCFE0A86005F0BF
:103280005FFE01F001F8C9E005F050FEA5F8E80086
:1032900005F04CFEA5F8EA0005F048FEA5F8EC00A4
:1032A000BCE005F039FE85F8060105F035FE85F82D
:1032B000080105F031FE85F8070105F02DFE85F8BF
:1032C0000901ABE005F028FE6871A7E005F024FED7
:1032D00085F81A0105F02AFEA5F8220105F026FE60
:1032E000A5F81E0105F022FEA5F8200105F014FE48
:1032F00085F81B0192E04FF0000905F00DFE05EB8B
:10330000090309F10109B9F1080F83F81201F4D199
:1033100084E053791C2B7FF427ADDFF8409009F14E
:10332000200A05F0F9FD89F83A0105F0FFFDA9F83A
:103330003C0105F0F1FD89F83E0105F0EDFD89F84D
:103340003F0105F0E9FD89F8410105F0E5FD09F1CE
:10335000080989F83801D145E3D15FE0FC06002077
:10336000C0140020F011002072120020461000202E
:10337000E81100206624002064240020F40F0020BF
:10338000F80F0020FC1A00206C24002005F0CEFD70
:10339000A9F8EC0105F0C0FD89F8EE0105F0BCFDCF
:1033A00009F1040989F8EB01D145EFD136E005F0C8
:1033B000B3FD1F283FF6D8ACD9F800305B79082B55
:1033C0007FF4D2AC00F15A0A05F0B0FD05EB8A0A91
:1033D00000F03F00AAF8060005F0A8FDBAF80620A4
:1033E000800100F4FE531343AAF8063005F094FD63
:1033F00000018AF8040005F08FFD9AF8043000F00F
:103400000F0018438AF8040005F086FD8AF80500CD
:1034100001F024F802E0012384F86531002005F072
:1034200053FDDFF8D491D9F80030987905F01CFDF0
:10343000D9F80030002283F8482094F865315BB158
:10344000386800F0C2FB18B9322000F0A8FBF7E79B
:1034500008F0E4FF06F094FB554A4C3797427FF49E
:10346000DEAA544B1B689A0616D5534BD4F8682134
:103470001B689A1A002A0FDB504A1278042A0BD9CB
:103480004F4A03F5123303F5F873C2F868314D4B18
:10349000DA6882F01002DA604B4B9B68002B00F078
:1034A00083804A4898477FE0D4F84C311B788342A8
:1034B0007FF423AB464A474B1A6006F061FBFFF7E7
:1034C0001CBB0BF06FFEACE70C2803D1424805F0A3
:1034D00047FD3EE00A2801D00D283CD13F4805F0C9
:1034E0003FFDE36F0BB9E36709E0354A591E02F16E
:1034F0008000085C202801D10B46F3E7D367234402
:10350000002283F8802094F88030232B17D0344B8E
:10351000344E0A92009309A833491A220C230996C3
:1035200011F055FF054638B1006811F0F7FE013083
:10353000AB683044984702E02C4805F011FD29485B
:103540000021302211F0A9FE0023E3673B78002B15
:1035500087D0274808E07F2810D1013BEB67002285
:103560002B44244883F8802005F0FAFCFFF7E7B9E4
:103570000C28ABD07F2804D1FFF7E1B92F2B3FF601
:10358000DEA9A0F12002D2B25E2A3FF6D8A913B973
:1035900020283FF4D4A95A1C2344E26783F8800012
:1035A00005F0D7FCFFF7CBB90DB0BDE8F08F00BF39
:1035B000E81A0020EC0F00204C2F0020E81100201A
:1035C000A0190020000C0140F41100200C1B002069
:1035D000EFBEADDEF04F00200EA9010807B80108CC
:1035E00031870008201A0020F491010819A9010868
:1035F00009A9010835A9010804250020034B4FF44F
:10360000805208B11A6170475A6170470008014042
:10361000034B4FF4805208B15A6170471A617047EA
:103620000008014003685A1C026019707047016B62
:103630000346C26810B5406941B1196C541A005D67
:10364000013918BF0A46C0B21A6410BD196A405C3D
:103650000131914228BF0021C0B2196210BD036B35
:1036600013B15A68036C01E0C269036A9A4237BF1A
:10367000C068C3EB02008018C3EB0000C0B2704703
:10368000436B13B190F844007047826A436AD31ABF
:1036900058425841704743799B070AD5436A82696B
:1036A000D154426A03690132B2FBF3F103FB1123E7
:1036B00043627047437913F0010307D0C368C169BF
:1036C000026A013B881A1840C0B27047184670471A
:1036D000437910B513F0010304460DD0FFF7EAFF5C
:1036E00058B1226A6369985CE3680132B2FBF3F176
:1036F00003FB1123236210BD184610BD426A806A85
:10370000131A58425841704741717047334A10B5F7
:10371000136C90681944081A40F68C239842916003
:10372000D060516013463CD9127893F945108A4213
:103730000BD1111F082908D893F84610182901D871
:10374000013103E083F8442002E0002183F84610B1
:1037500093F944108A421CD1204991F84710C1B115
:10376000002191421E4806DA03EB8104246920F807
:1037700011400131F5E7511E00EB41011630814245
:1037800003D0002421F8024FF9E7164908780130E8
:10379000087083F84520002201211A7083F8471031
:1037A00010BD92F84710B9B1A0F2EF2440F2DA51FF
:1037B0008C4208D811780B2905D80B1D01311170E6
:1037C00042F8230010BD002283F8472099180432E4
:1037D0000020302A0861F9D110BD00BF5801002037
:1037E000D82600200423002010F80A3C0133DBB265
:1037F0000A2B00F80A3C07D910F8131C034A0023CF
:1038000022F8113000F80A3C704700BFD82600208B
:10381000024B1A6C013211441964704758010020A0
:10382000024B53F820301B6819807047800200203B
:10383000074BA1F57A7153F820304FF47A701A686B
:103840001B894B4393FBF0F39BB21380704700BF7F
:10385000800200202DE9F04F504A514E17687389BD
:1038600084463089A7EB032785B0039187FB0001CD
:10387000B288CB111404C209F08842EA416287FB86
:10388000000114EB020872884FF000054FEAC234C1
:103890004FEA1022B08945EB030942EA01620B129C
:1038A00087FB000114EB020A4FEAD05242EA4122A0
:1038B0004FF0000545EB030B12F5FA604FEAE153B8
:1038C00043F10001CDE90001B0F5FA6F71F100019B
:1038D00047DAA2FB024502FB03F1052605EB410591
:1038E000A4FB060106FB05114D104FEA3004B8EBAE
:1038F000040869EB050984082A4844EA81748D109C
:103900004FF0FF31BAEB040A6BEB050BDDE9004524
:1039100084428D4125DA40F6AC5012184FF0000178
:1039200043EB010302FB03F1A2FB02236FF006004D
:1039300003EB4103544200FB0344A2FB000118EBDC
:10394000000821444FF00B0449EB0109A2FB0401DC
:1039500004FB031149104FEA3000BAEB000A6BEB8D
:10396000010B114B1A68A2FB0A0102FB0B11420D5D
:1039700042EAC1224B15B2EB080263EB0903D00BFC
:1039800040EA4340BCF1000F01D0CCF8000003989E
:1039900008B10099016005B0BDE8F08FC422002095
:1039A0001003002024FAFFFFC8220020324B2DE92B
:1039B000F0411C88314B0A265A89B3F91250A41AD7
:1039C0001A89ED025443B3F91420E413224495FB01
:1039D000F2F22244DA615643A2F57A6202FB02F463
:1039E000B3F90480B3F902C0B3F90E7002FB0CFC0A
:1039F00002FB08F2B3F90C802413674304FB08F4BC
:103A0000241404EB62320232DC88921002F5004288
:103A1000B3F920506243B3F900304FEAEC2404EBD1
:103A2000E72404EB8304AC40154B02341B68D20B33
:103A3000A3EBA4044CF250332B41634355BF5B000E
:103A4000B3FBF2F3B3FBF2F35B001A12524340F6FE
:103A5000DE3462430B4C08365C43241404EB2242F0
:103A600002F6CF62361103EB221300B1036001B1FD
:103A70000E60BDE8F08100BFD422002024030020A6
:103A8000D022002043E3FFFF024B4FF480521A8004
:103A9000704700BF1C0000202DE9F0478278C678EF
:103AA0001E4BC2F1640802EB820C54425FFA88F8A4
:103AB0004FEA4C0CC6F16409A4B203F11807A5B291
:103AC00028B2002804DC002D14BF1546012500E0B3
:103AD000454600FB00FA6D430AFB06FA9AFBF5F532
:103AE0004D4468434FF00A0A90FBFAF0604480B2FC
:103AF00058800D88B1F802A000B2C5EB0A0A00FB9D
:103B00000AF04FF47A7A90FBFAF0054423F8025F4A
:103B10000A34BB42A4B2D2D1BDE8F087B619002066
:103B200010B544780078002303FB03F11939614391
:103B300001F6C4115943414340F6C41291FBF2F11E
:103B4000034A22F813100133072BEDD110BD00BF3B
:103B5000A019002010B5094A09491368886812683D
:103B60009342F8D1074A11684FF47A7202FB01F4CC
:103B7000201AB0FBF1F002FB030010BD342F00202F
:103B800010E000E00801002038B50446FFF7E2FF2E
:103B90000546FFF7DFFF401BA042FAD338BD10B542
:103BA00004462CB14FF47A70FFF7EEFF013CF8E7C2
:103BB00010BD08B5014B1B68984708BD442F002075
:103BC00008B503685B69984708BD08B503681B69B9
:103BD000984708BD08B50368DB68984708BD08B575
:103BE00003689B68984708BD08B503685B689847F9
:103BF00008BD10B5044C2068FFF7F6FF18B1206827
:103C0000FFF7EDFFF6E710BDE824002008B50368D4
:103C10001B68984708BD014B1868F7E7E81A0020B1
:103C2000A0F17D03012B70B504460D460A4E05D860
:103C300030687D21FFF7EAFF84F0200430682146D8
:103C4000FFF7E4FF35B12B881C4404EB142404F087
:103C5000FF042C8070BD00BF1425002038B5054C32
:103C600005465E212068FFF7D1FF20682946BDE8A0
:103C70003840CBE734220020014B5E211868C5E7AD
:103C80003422002010B50A4C5E280146206805D178
:103C90005D21FFF7BBFF20683E2105E05D2903D1D0
:103CA000FFF7B4FF20683D21BDE81040AEE700BF3C
:103CB0003422002010B50446C0B2FFF7E3FFC4F37E
:103CC0000720BDE81040FFF7DDBF064B1B6803EB84
:103CD000C00090F9063019420CBF01204FF0FF30B0
:103CE000704700BFA01400200A4B1A6802EBC00204
:103CF000D379FF2B07D008490978994203D9074A9D
:103D000032F8130004E00728D4BF908840F2DC505A
:103D100000B27047A0140020AD1D0020021000204A
:103D20002DE9F84F2E4E04463768384611F032FD23
:103D30000546384611F0A2FD76688046304611F0FF
:103D400029FD8346304611F099FDD4F804900646CB
:103D5000294648460EF03CF9A76882464146384657
:103D60000EF036F9014650460EF028F821688246DA
:103D700058460EF02DF94146044648460EF028F903
:103D800031460EF025F9014620460EF019F831466D
:103D9000044638460EF01CF929460EF019F9014682
:103DA00020460EF00DF80146504611F01DFE0D495B
:103DB0000EF00EF90C490EF0BFF90C4B19680DF01E
:103DC000FFFF0B490EF0B8F911F01AFD83B21A0487
:103DD00044BF00F5B4739BB218B2BDE8F88F00BFC2
:103DE000D01200200000E144DB0F49404C030020CA
:103DF0000000204101380A4B042804D8DFE800F015
:103E00000507090B0D00074A08E0074A06E0074AC4
:103E100004E0074A02E0074A00E0074A1A607047D8
:103E200064000020C1DE0008D9D60008A1C900083E
:103E300099D8000871DB000875E10008064B1B7873
:103E400003F0040303F0FF001BB1044B1888C0F318
:103E5000C01000F001007047662F0020F40F002012
:103E6000044B00221A605A60034B00221A605A6009
:103E7000704700BF70260020C0260020064BB3F913
:103E80000000064B1B681B7803EB83039842D4BFEA
:103E900000200120704700BFDA0F00200C1A00201C
:103EA0002DE9F04102780346202A00F10100F9D003
:103EB000092AF7D02D2A02D10346414D04E02B2ACE
:103EC00008BF03464FF07E551E460024334616F8C1
:103ED000012BA2F13007F9B209290DD83949204642
:103EE0000EF076F8044638460EF01EF801462046DD
:103EF0000DF066FF0446E9E72E2A17D1314F33460D
:103F000016F8010B3038C2B2092A0FD80EF00CF89F
:103F100039460EF011F9014620460DF051FF2949AE
:103F2000044638460EF054F80746E8E71A7802F0DF
:103F3000DF02452A38D15A782D2A02D102330126D0
:103F400004E02B2A14BF013302330026013B002773
:103F500013F8012F303AD1B2092903D80A2101FB05
:103F60000727F5E7B7F59A7F28BF4FF49A77B84649
:103F70004FF07E51B8F1070F07D9084612490EF0ED
:103F800027F8A8F108080146F4E707F0070737B15A
:103F900008460C490EF01CF8013F0146F7E72EB128
:103FA00020460EF0C9F804E04FF07E5120460EF096
:103FB0000FF8014628460EF00BF8BDE8F08100BF6F
:103FC000000080BF0000204120BCBE4CF0B50124A1
:103FD000B0FBF4F58D4201D34C43F9E70026DCB188
:103FE000B0FBF4F504FB1500B4FBF1F41EB9002D91
:103FF00001DC002CF3D1092D03F101075FFA85FCE8
:1040000004DD002A0CBF5725372500E03025654424
:104010001D7001363B46E2E71C70F0BDF0B501248F
:10402000B0FBF4F58D4201D34C43F9E70026DCB137
:10403000B0FBF4F504FB1500B4FBF1F41EB9002D40
:1040400001DC002CF3D1092D03F101075FFA85FC97
:1040500004DD002A0CBF5725372500E030256544D4
:104060001D7001363B46E2E71C70F0BD70B5064698
:10407000B6FBF2F40846154614B12046FFF7F6FFEA
:1040800005FB1464024B1B5D00F8013B70BD00BFD3
:10409000ACAC01082DE9F843089E002B0746884682
:1040A00014460CBF4FF020094FF03009334613F887
:1040B000012B0AB9254603E0002CFBDD013CF6E7A5
:1040C000002D04DD38464946C047013DF8E724EAA3
:1040D000E4742546331B595D19B13846C047013594
:1040E000F8E72846BDE8F8832DE9F04F0C688368AF
:1040F00089B0D0F800A0D0F804800646204603938B
:104100008B4611F047FB0746204611F0B7FBDBF862
:1041100004408146204611F03DFB0546204611F043
:10412000ADFBDBF8082004461046019211F032FB8B
:10413000019A8346104611F0A1FB39460290584679
:104140000DF046FF3946049002980DF041FF5946A4
:10415000059048460DF03CFF0299069048460DF048
:1041600037FF2946079058460DF032FF014650466A
:104170000DF02EFF2146834606980DF029FF0146DB
:1041800005980DF01DFE014640460DF021FF014649
:1041900058460DF015FE2146834604980DF018FF91
:1041A000014607980DF00AFE014603980DF010FF36
:1041B000014658460DF004FE3060029905F10040BA
:1041C0000DF006FF014650460DF002FF21468346E2
:1041D00007980DF0FDFE014604980DF0EFFD014635
:1041E00040460DF0F5FE014658460DF0E9FD21462A
:1041F000834605980DF0ECFE014606980DF0E0FDB3
:10420000014603980DF0E4FE014658460DF0D8FD36
:104210002146706050460DF0DBFE2946044609F148
:1042200000400DF0D5FE014640460DF0D1FE01469E
:1042300020460DF0C5FD3946044628460DF0C8FE5F
:10424000014603980DF0C4FE014620460DF0B8FD6E
:10425000B06009B0BDE8F08F80EAE073A3EBE073D3
:104260008B4206DB002801DD401A704702D008446B
:10427000704700207047034B9A6822EA000098605C
:10428000704700BFFC060020024B9A6810439860FC
:10429000704700BFFC0600202C4B2D4A1B6812689B
:1042A00010B51A602B4A116859605168926899607C
:1042B000DA60294A116819615168926859619A61F6
:1042C000264A1168D9615168926819625A62244A73
:1042D00011881985518859859188D2889985DA8500
:1042E000204A118819865188598692889A861E4AD2
:1042F0001188D9865188928819875A871B4A117864
:1043000000228A4207DA1A4C03EB420034F81240CA
:1043100001328487F5E7174A1288A3F86420164A09
:104320001288A3F86620154A1188A3F86C105188EA
:104330009288A3F86E10A3F87020114A12689A664A
:10434000104A5289A3F85E2010BD00BF181C00203F
:104350004C2F00205C2500206825002074250020BB
:104360007A130020502F0020B8120020672F002061
:104370007014002032220020FC1900204010002080
:104380007C1100208E140020114A30B50028B8BFDF
:104390004042104C90FBF2F304FB03003C256843C1
:1043A0000D4D90FBF2F22D682D7B25B903EB8303B5
:1043B00003EB830301E0C3EB031302EB830304FB72
:1043C00002020B804FF47A7392FBF3F24A8030BD05
:1043D00080969800806967FF58240020022803D047
:1043E000431E584258417047064B1B681B7823B147
:1043F000054B1868C0F3C0407047044B1878C0F3F1
:1044000080007047B4060020F00F0020662F0020C7
:1044100008B5084810F082FFC0B209280246054BD3
:1044200004DC01302021C0B29954F6E700221A546E
:1044300008BD00BFFD26002008B5074810F06EFF3C
:10444000C0B21428044B04D8421C20211954D0B205
:10445000F7E700221A5408BDFD260020F0B5244AD3
:10446000244D2549002314682B700B701A461846FA
:10447000A61876884EB9A75C3FB92B700023087048
:104480004B702F7818461A460CE0360548BF0130AD
:1044900002F1040203F1010348BFC0B2802ADBB27B
:1044A000E6D1EAE7C5B2BD420CD214F82050013083
:1044B0002E099E4205F00F05A8BF731C9542A8BFA8
:1044C0006A1CEFE74B708A700C4851084C1E047050
:1044D00002F001020A4811440170C3F3470209497E
:1044E000501E087003F0010307491A440A70F0BD1A
:1044F00080030020F8220020101B00200023002051
:10450000022300200323002001230020F8B5101A05
:104510000C461F460DF008FD0546381B0DF004FD46
:10452000174B079E19680DF053FD2946044628468F
:104530000DF04EFD2146074620460DF049FD01468F
:1045400038460DF03DFC11F0D9FB0E490DF040FD51
:104550000DF02AFF069B2146186005F1004011F07E
:1045600043FA09490DF034FD08490DF029FC0DF01E
:10457000F5FE0028BCBF00F50C40A0303060F8BD4F
:10458000540000202C7D8E3FA00CB34500A00C46AB
:1045900010B50DF0C9FC002104460DF0D5FE08B1A0
:1045A000204601E004F1004005490DF0C5FD054934
:1045B0000DF00EFD11F0EEF8034B186010BD00BFBA
:1045C0008096184B35FA8E3C5400002010B50C4CE8
:1045D00023789B0713D50B4B1B78042B0FD90A4A62
:1045E0000A4B1068526818605A60FFF7D1FF084BF9
:1045F0001A88084B1A80237843F00103237010BDFA
:1046000046100020E81100206C240020F41A00203D
:10461000E41200204826002070B5044640790DF0D1
:104620007FFC1E490DF088FD1D4D1E4E2860E07B6D
:104630000DF076FC19490DF07FFDEE606860A07901
:104640000DF06EFC18490DF077FD184D2860207CA8
:104650000DF066FC11490DF06FFD6860A07E0DF055
:104660005FFC13490DF068FDEE60A860E0790DF085
:1046700057FC0D490DF060FD0E4D2860607C0DF07B
:104680004FFC06490DF058FD6860E07E0DF048FCD7
:1046900007490DF051FDEE60A86070BD0000C842F2
:1046A000042600200000FA440000204114260020C7
:1046B00000007A443826002044F25063984203DD1B
:1046C000A0F50C40A0387047034B9842BCBF00F5E2
:1046D0000C40A030704700BFB0B9FFFF10B50A4BC7
:1046E0000A4A1B7842609C18094A046012789A4270
:1046F00004D3D31A0B6000234B6010BDC3F18003B9
:104700000B604A6010BD00BFC42B0020C72B0020E7
:10471000C52B00201FB5684602A9FFF7DFFF044B39
:104720001868029B1844039B184405B05DF804FB0D
:10473000C02B0020034A00231370034A1370034A5E
:1047400013707047C52B0020C42B0020C62B0020FF
:104750002DE9F041038A87890446BFB20D461F4008
:10476000002F36D0B7FA87F34FF00042DA40D24339
:1047700091B21B3B21821740042BF1D8DFE803F0F4
:10478000221F1C1903006B6A33B103F1FF380023A9
:104790001FFA88F86B6203E0B4F82C801FFA88F8DF
:1047A0002E6A002EDCD03368304641469847766842
:1047B000F7E72868A18E08E06868218F05E0A868FF
:1047C000A18F02E0E868B4F84010036889B2984706
:1047D000C6E7BDE8F0810C4B800A98420CD003D8A4
:1047E000B0F5801F0ED00BE0084B984206D049333D
:1047F000984205D10020704702207047032070477F
:10480000FE207047012070470100100002001000D8
:1048100090F83B3210B57BB990F83A3290F83922D3
:10482000934209D201219940B0F84042013321431B
:10483000A0F84012DBB2F3E710BD8379DB0703D5A4
:10484000D1F1010138BF0021D0F834315A681B89F9
:1048500009B11361704753617047044B53F820301E
:104860001BB107289CBF1B6819807047B00200204D
:1048700010B5054C00202188FFF7EFFF618801206B
:10488000BDE81040E9E700BF8E14002001F00303EB
:104890009B000F229A40984001F0FC0101F18041F9
:1048A00001F5803110B58C6824EA02028A608A68BA
:1048B00002438A6010BD2DE9F0410F88002347FABA
:1048C00003F2D2072BD58A7803F0070512F0100FF8
:1048D00018BF91F803C002F00F0618BF46EA0C0695
:1048E000AD004FF00F0C0CFA05FC06FA05F5DC08DC
:1048F00050F82480282A28EA0C0C45EA0C0540F8D8
:10490000245005D101229A40C46824EA020205E03D
:10491000482A04D101229A40C4682243C26001336C
:10492000102BCCD1BDE8F08197492DE9F04F0B68F1
:10493000964A03F59C43964D20331360AA6885B0D0
:1049400012F4807F0C4603D0924B198801311980F4
:1049500042F2010313401BB18F4B1A7801321A70D7
:1049600006F035F9AB68D80405D58C4B1B68D90720
:1049700001D40CF02FFD8A4B24681868837A83B128
:10498000884A013B32F91300A0F57A70B0F57A7FBE
:10499000A8BF4FF47A7020EAE0700DF0C5FA8249A2
:1049A0002FE0AA68120435D57B4A5168611A0029A4
:1049B00030DB04F59C41203151607C494E797C49C3
:1049C00031F81660C17AB6B296FBF1F0117A013176
:1049D00001F00F0111720A4450721846754A9A5C30
:1049E00001331044102B80B2F8D100B290FBF3F0E9
:1049F00000B26428A8BF642020EAE0700DF094FAA9
:104A00006D490DF099FB6D490DF0E2FA0DF0CCFC0B
:104A10006B4B1880AB686B4E13F4807F38D06A4BB9
:104A20009C4204D95B4B1A790AB901221A71FFF72B
:104A300025FA00282CD0574A1179134609B911805C
:104A400026E03278614912F0040F12D05D4842F03E
:104A500002020270504A534CD2699089208090899A
:104A600060809289A2800A685288E2805A88013266
:104A70005A800A68B3F9001010785378034403EBA6
:104A80008303994202DC33785F0701D40CF0A2FC67
:104A9000B5F8DE0007F0DEFC804660B9FFF7E0F90C
:104AA0003D4B0022C3F82080C3F82480C3F828803F
:104AB000DA621A635A6333785C0720D5AB68D8068C
:104AC0001DD5434B1B78D90619D4314B93F82721B8
:104AD000AAB1404B1B7893B12F4B3F49B8F1000F5F
:104AE00007D10A689B6B9B1A002B08DA0CF072FC4A
:104AF00005E009684FF47A7000FB02129A63002205
:104B000095F8259195F82611B5F82041B5F8227150
:104B10001346DFF890C09B083CF902000232A04225
:104B2000C4BF63F07F03DBB2B842B8BF43F04003B9
:104B3000082AEED1184C94F83C209A4205D194F8FA
:104B40003D20F92A04D8013200E0002284F83D20FB
:104B500084F83C301F4B114F1A789A46002A40D1F6
:104B60003B68DA0708D5B8F1000F3AD13378DB0794
:104B700037D503F0B3F934E03378580731D569B34A
:104B80000CF028FC2DE000BF4C2F0020E40F00208B
:104B9000FC060020DA0F0020181B0020F00F002078
:104BA000840E00200210002000007A44E419002046
:104BB000F4190020211B00200000C84200C07F44DF
:104BC000B01D0020662F0020404B4C000C1A002026
:104BD000461000202D000020342F0020B8F1000FD7
:104BE000CED094F83D30AD4A142BDFF8F4826CD16E
:104BF000337819F1000903F0040318BF4FF00109DD
:104C000003F0FF019BB19AF80030002B5DD092F8C1
:104C10003C305F2B01D10CF0DDFBB9F1000F54D01B
:104C200094F83C307D2B50D10CF0D4FB4DE092F841
:104C30003C30572B15D19A4B4FF47A721A80AB68DF
:104C4000190601D5FFF7C2FC964B1B685A0702D51F
:104C5000954A0A21118013F0080336D1934A138034
:104C600033E0A868400715D55A2B13D1904B18781C
:104C700018B1197001228F4B08E092F83E108E4B4C
:104C800081F0010182F83E1011B104221A701CE07B
:104C90000622FBE75D2B00F07E845B2B00F07D8419
:104CA0005E2B02D1032200F079BC562B01D105F016
:104CB00063FB9AF80030002B00F0878494F83C30B6
:104CC0006F2B40F07C8403F009F9AB68580732D5AC
:104CD00094F83E30A3B13378590711D57748784B13
:104CE000B0F90620B3F820319A4209DD3B6813F091
:104CF000010305D1734A32211180684A82F83E309F
:104D00003B68DA030AD5704B1A782AB9684A1278D8
:104D100012B96C4A3221118001220BE0644B1A78DF
:104D20004AB1327802F0040202F0FF011AB9197098
:104D3000604B01221A70D8F80090002309F1750A1F
:104D40003B6009F1770698460AF1020303EB08017C
:104D500013F808204B7816F8010C9A420AD2314613
:104D600007F0FAFD30B116F8023C01229A403B6888
:104D700013433B6008F10408B8F1A00F06F10406E4
:104D8000E2D1524B1B783BB13B68464E13F0020F09
:104D90004F4C40F0D582CDE209F21512019209F58F
:104DA0008B769846DDF804C016F8010C0CF101036F
:104DB00003EB080113F808204B789A4229D23146B8
:104DC00007F0CAFD28B396F802C03079414B0CF1C8
:104DD000FF3C4FF00C090CEB4C0C09FB00F99C4418
:104DE0002E4B96F803B003F1400A0AEB09014A681A
:104DF00062450ED000220AF809B08A60012202FA48
:104E000000F093F87020C1F804C022EA000083F893
:104E1000700008F10608B8F1480F06F10606C1D186
:104E20002D4A2E4B12681E68DFF8B89001924FF0A1
:104E30000008D9F80030002B00F073821A78002A9D
:104E400000F06F82D9F804100198411A00290CDB98
:104E500000F5FA71C9F80410012101FA08F194F87B
:104E6000700020EA010184F8701019F8041C5878C9
:104E70000431C9B2002840F01682104830F91110F0
:104E8000B5F81E0100F1C80C614501DD98783AE0E3
:104E9000C838814228DA9878404234E0181B002054
:104EA000582F0020EC0F0020562F0020E412002085
:104EB0009D1200209F1200209E1200200210002050
:104EC000FC060020841200209C120020612F00208C
:104ED000F40F002040940108342F0020A01300207C
:104EE000F01100205C1B0020012303FA08F394F862
:104EF000702022EA0303019A84F8703002F5FA73F5
:104F0000C9F804300DE294F8703043FA08F3DB0777
:104F100000F107820028AE4BCCBF0221012119709D
:104F2000531E0D2B00F2F581DFE813F00E00170081
:104F30002300300044004A009700E400310165017D
:104F40009101F30130003B0033781844FA28A8BFE0
:104F5000FA2020EAE070307007E073781844642883
:104F6000A8BF642020EAE07070703046FEF7D8FDDC
:104F7000CFE1F37818446428A8BF642020EAE070E9
:104F8000F070616F3046FEF787FDC2E1737903442C
:104F9000642BA8BF642323EAE3730D2A737100F026
:104FA000B881337918446428A8BF642020EAE070EF
:104FB0003071AEE1B379184480F30800B071A8E114
:104FC000D4F878B09BF80020022A31D10CF0ACFF65
:104FD00080490DF0B1F8DBF8241000900CF0F0FEE1
:104FE000002182460DF092F938B950467A490DF009
:104FF000ABF920B1DFF8E0A101E04FF0000ACBF8F7
:1050000024A0DBF8201000980CF0DAFE0021824684
:105010000DF07CF938B950466F490DF095F920B183
:10502000DFF8B4A101E04FF0000ACBF820A070E156
:105030009BF802200244C82AA8BFC82222EAE272D2
:105040008BF802209BF801201044C828A8BFC82074
:1050500020EAE0708BF801005BE1D4F878B09BF8AF
:105060000020022A31D10CF05FFF5B490DF064F89B
:10507000DBF8301000900CF0A3FE002182460DF00A
:1050800045F938B9504654490DF05EF920B1DFF8C2
:1050900048A101E04FF0000ACBF830A0DBF82C105B
:1050A00000980CF08DFE002182460DF02FF938B9E2
:1050B000504649490DF048F920B1DFF81CA101E044
:1050C0004FF0000ACBF82CA023E19BF80C200244FF
:1050D000C82AA8BFC82222EAE2728BF80C209BF8EB
:1050E0000B201044C828A8BFC82020EAE0708BF825
:1050F0000B000EE1D4F878B09BF80020022A31D1E1
:105100000CF012FF35490DF017F8DBF83C10009059
:105110000CF056FE002182460DF0F8F838B95046E2
:105120002D490DF011F920B1DFF8ACA001E04FF0EE
:10513000000ACBF83CA0DBF8381000980CF040FED9
:10514000002182460DF0E2F838B9504622490DF0B0
:10515000FBF820B1DFF880A001E04FF0000ACBF8A7
:1051600038A0D6E09BF816200244C82AA8BFC8225F
:1051700022EAE2728BF816209BF815201044C8280A
:10518000A8BFC82020EAE0708BF81500C1E0D4F871
:1051900078B09BF80030022B22D10CF0C5FE0D49EF
:1051A0000CF0CAFFDBF828100CF00AFE0021824642
:1051B0000DF0ACF838B9504607490DF0C5F820B1EC
:1051C000DFF814A001E04FF0000ACBF828A0A0E01F
:1051D0009E120020000020410000C84200007A44D6
:1051E0009BF803301844C828A8BFC82020EAE07004
:1051F0008BF803008DE0D4F878B09BF80030022BD8
:105200001AD10CF091FEA3490CF096FFDBF8341094
:105210000CF0D6FD002182460DF078F838B95046E2
:105220009C490DF091F820B1DFF868A201E04FF041
:10523000000ACBF834A06CE09BF80D301844C82865
:10524000A8BFC82020EAE0708BF80D0061E0D4F818
:1052500078B09BF80030022B1AD10CF065FE8E4915
:105260000CF06AFFDBF840100CF0AAFD002182462A
:105270000DF04CF838B9504686490DF065F820B16C
:10528000DFF810A201E04FF0000ACBF840A040E0A8
:105290009BF817301844C828A8BFC82020EAE0703F
:1052A0008BF8170035E0012833D198787B4B33F920
:1052B0001110B1F5617F05DB40F633039942B8BFA9
:1052C0000B4601E04FF461730C2A22D14FF4966A29
:1052D000A3F561739AFBF0FA93FBFAFA94F87C3029
:1052E0005FFA8AFA534514D0BAF1030F6C4A94BF9F
:1052F000534602230A2184F87C3001FB03236948CA
:105300000233036003F0A8FE674B0AF1010A83F839
:1053100000A0012303FA08F394F87020134384F8E3
:10532000703008F10108B8F1040F09F10C097FF49D
:1053300080AD29E5AB68D80514D5FEF79FFD88B18F
:10534000336899070ED52388DFF86C8113F00109C3
:105350000ED1FEF785FDB8F8003043F00103A8F840
:10536000003005E0238823F001032380012300E0BF
:1053700000233A68520711D583B12388DFF83881BA
:1053800023F001029B0722800CD4FEF769FDB8F8D8
:10539000003043F00203A8F8003003E0238823F034
:1053A000020323802388414A13F0030F4FF01001BA
:1053B00014BF51611161316811F00A0F22D03A68AF
:1053C000D60609D558070AD443F004032380384B86
:1053D0001888384B188002E023F0040323809606D7
:1053E000238806D5580607D4334843F0400303808A
:1053F00002E023F040032380530603D52C4B1A8888
:105400002E4B1A808E0607D43B68180540F1B580F4
:10541000238843F48073B3E0294B1B78990775D533
:10542000284B1B78042B71D93B6813F400700ED005
:105430002388DA06E8D424481F4A23F0200343F0E7
:105440001003011D13800AF0D1FE022268E02188BA
:1054500001F0100292B232B1174A21F0100111800E
:105460001A4A107001225E054AD5194B1B685989EA
:10547000184BB3F900000028B8BF404288422BDA2D
:10548000B3F90230002BB8BF5B428B42ACBF0023A4
:10549000012322E00000C84200007A4402100020EC
:1054A0005C0E0020A01300209E120020000C014082
:1054B000E412002082130020F40F0020D0190020F5
:1054C00046100020E8110020F41A0020041B0020E0
:1054D000941300207A13002000238BB123889806B0
:1054E00021D4644A43F020031380634B63481A6855
:1054F0005B68011D026043600AF078FE01220FE044
:10550000238899060FD523F0200306E0238813F0A3
:10551000300F3FF479AF23F03003564A1380002256
:10552000574B1A7002E0002A3FF46EAF00231A4670
:105530005449002050525449544E5052544906EB9D
:10554000030C5052002199510232CCF80400CCF8DF
:10555000081006F1280C503643F80C1099519C4461
:105560001E44042ACCF80400CCF808107060B16026
:1055700003F114033FF448AFDAE7238823F4807380
:1055800023806B79082B01D00E2B6FD1238823F059
:10559000400323806AE0012200E002225FFA82F9E0
:1055A00009F1FF3385F8603704F03AFB04F0D8FBCB
:1055B000022028214A4603F0F3FBFFF786BBB9F12E
:1055C000000F02D07E2B3FF47EAB94F83C30972B3B
:1055D00005D1304B4FF4C8721A80FFF776BBA72B6A
:1055E00005D12D4B1A7842F00402FFF74FBB002281
:1055F000BB2B039201D1022303E0B72B04D14FF65A
:10560000FE73ADF80E3009E0BE2B01D1022303E09A
:10561000BD2B1AD14FF6FE73ADF80C30D8F8003020
:10562000BDF80C10B3F854200A44A3F85420BDF878
:105630000E10B3F856200A44A3F8562004F09CFE3E
:10564000002384F83D30FFF740BB792B04D1134B86
:10565000DA7822F0010206E07A2B7FF436AB0F4BAA
:10566000DA7842F00102DA70FFF72FBB05B0BDE82F
:10567000F08F00BFF40F00206C240020FC1A0020E3
:10568000041B0020622F002098130020981B00208C
:105690009C1300207212002046100020FC02002003
:1056A0002DE9F04F8E4F8DB03B78023B072B00F277
:1056B000B384DFE813F008002E004F00690080007B
:1056C000FB005501A204874B874D1A686B68643351
:1056D0009A4240F2A1840024844B854A1B789C4264
:1056E0000ADA2B68804ED05C30B10BF009F83368D1
:1056F000013401333360EFE729687B4B525C002AA9
:1057000040F08A841A604FF0FF325A60032300F0A1
:105710008ABC24230093774B062103F10C020193EA
:105720000292A3F12200A3F10A02023307F04CFF18
:10573000002840F07184704B9B6813F080026A4B24
:1057400006D04FF0FF3218605A60042300F06BBCA3
:105750001A602DE002230093684B042103F10C0230
:1057600001930292A3F11800A3F108020B4407F081
:105770002BFF002840F050845B4B4FF0FF32186045
:105780005A60052300F04FBC072300935C4B0421B3
:1057900003F10C0201930292A3F11800A3F1080295
:1057A0000B4407F011FF002840F036844E4B186080
:1057B000062300F038BC4C4C236813B96360012306
:1057C00023604A4B1D7863681D44402DA8BF4025C7
:1057D000132D656040F32084434B1B680D2B00F2B2
:1057E0002184DFE803F05F070B0E121923282D3107
:1057F00035414C5243480AF035FF51E04248434995
:1058000040E043484349444A48E03B4B434893F80F
:10581000801793F8812741E0374B0A2193F86027DE
:105820003F4801FB023393F862172BE0324B3D48AF
:10583000B3F8D01026E0304B3B48B3F8D21021E04B
:105840003A4B3B48D9681DE03A4B3B48198819E070
:105850003A4B1B68DB0404D5274B394893F80611F3
:1058600010E00C2323601DE0234B364893F8081109
:1058700093F8092193F8073101F0CCFF10E02F4B8A
:105880003148998801F0C6FF0AE01B4B9A6816055B
:1058900008D52E48B3F80C11B3F90A2101F0BAFF6C
:1058A000281A6060236801332360B5E3284B002485
:1058B0001C60284B0CAD1C60274B1C6008233B7000
:1058C000FEF748F945F8140D0120FEF772F9234B55
:1058D0000122204629461A700AF059FF9CE300BFB6
:1058E000DE060020342F0020EC0600206800002097
:1058F0006C94010802950108FC060020C09601087E
:10590000E8960108D1AC0108EEAC010806AD01082B
:105910000EAD010825AD010831AD01083AAD010811
:105920004EAD01085BAD01086DAD0108F41100201A
:105930007FAD01081C00002092AD0108101C002062
:105940009FAD0108AFAD0108CBAD0108D9AD01088D
:10595000E8060020E4060020E00600209E12002059
:10596000C14B1868002840F0BB80C04DFEF794FC86
:105970004920AC680AF0C4FEBD4B0E2618680AF038
:10598000F7FE20680AF0F4FE60680BF071F9A06879
:105990000BF06EF9E0680BF06BF920690BF068F919
:1059A00060690BF065F9A0690BF062F90122B24061
:1059B0002B681A4205D004EB860353F81C0C0BF03D
:1059C00057F90136112EF1D1B4F928000BF050F936
:1059D000A84EB4F92A000BF04BF9B4F92C000BF0E7
:1059E00047F9B6F8D030B4F92E00C01A0AF0C0FE5C
:1059F0002B68D80408D59D4B9888B4F86430C01A39
:105A0000C0F30D000AF0B4FE2B68990403D5B4F876
:105A100066000AF0ADFE2B685A0506D42B681B05FC
:105A200010D5A06E0BF024F90CE0B4F96C000BF06B
:105A30001FF9B4F96E000BF01BF9B4F970000BF00C
:105A400017F9EBE7B4F930000BF012F9B4F93200B2
:105A50000BF00EF9B4F934000BF00AF9B4F9360082
:105A60000BF006F9B4F938000BF002F9B4F93A007A
:105A70000BF0FEF8B6F8D030B4F93C000126C01A9D
:105A80000AF076FE7C4B1B789E420ADA04EB460352
:105A9000B3F93C00B4F93C300136C01A0BF0E8F819
:105AA000F0E72B68980507D5704B9B68B3F95E004B
:105AB000A0F2DC500BF0DCF8AB68704A7049EB6088
:105AC0002B619B1A9B104B430321013393FBF1F194
:105AD00001EB41015B1A742101FB0322AA607CE205
