:020000040800F2
:1000000000500020B5310108CDEC0008291B010883
:10001000CBEC0008C9EC0008C7EC000800000000A9
:10002000000000000000000000000000C5EC000817
:10003000C3EC000800000000C1EC0008091B010827
:100040006132010861320108613201086132010840
:100050006132010861320108613201086132010830
:100060006132010861320108613201086132010820
:100070006132010861320108D119010861320108B9
:100080000D1A01086132010861320108613201086C
:1000900009ED00086132010861320108613201088E
:1000A000613201089919010861320108A919010892
:1000B000891901087919010869190108491A010803
:1000C000411A0108451A01083D1A01086132010868
:1000D00061320108C519010861320108B919010826
:1000E000191B010861320108451B010800000000CE
:1000F0000000000000000000000000000000000000
:0C01000000000000000000005FF808F1A3
:100110002DE9F04F694B6A4CA3B023600023636064
:1001200006F010FFA24618B90EF0CBFB06F02CFF2C
:1001300010F058FF634B644C1A78644F42F0010290
:100140001A7000220B920C920D924FF4E0120E9254
:100150002268B97B42F480322260A26942F0100228
:10016000A261236803F400330C930B9B01330B93C0
:100170000C9B1BB90B9BB3F5A06FF2D12268524BBD
:1001800012F4003201D0022315E0186840F001009B
:1001900018600B92236803F002030C930B9B01334E
:1001A0000B930C9B1BB90B9BB3F5A06FF2D123688B
:1001B000980739D501230D93454B46481A6842F0FC
:1001C00010021A601A6822F003021A601A6842F0DC
:1001D00002021A606368404A63606368043A6360BD
:1001E000636843F480636360536823F07043536033
:1001F0003A4B1860606820F47C106060506840F0F2
:1002000000405060D06820F40040D0609268120432
:1002100049BF334A4FF4E0121A604FF480120E9235
:100220000D9A012A01D117E0FEE7022A18D169B11F
:100230000E9AB2F5801F02D14FF4A01205E00E9A7B
:10024000B2F5E01F02D14FF400120E9261680E9ACF
:100250000A4342F4803202E0626842F46012626053
:10026000226842F0807222602168174A8E01FBD515
:10027000516821F003015160516841F00201516061
:100280006268114902F00C02082A0792F8D1486806
:10029000144A00F00C00042803D0082804D00D49AB
:1002A00000E01968116029E048684D68C0F3834098
:1002B000ED0300F1020019D40B491DE0F1780008AC
:1002C000A8010020502E00200010024094070020BA
:1002D0000020024000127A000410014000000020BB
:1002E000001BB7000401002000093D00496811F41B
:1002F000003F196818BF4908484310606268544DB0
:10030000C2F30312134493F80490524B22AE1A68BE
:10031000DFF87C8122FA09F9C3F800904E4B4FF6C2
:10032000FF72AB604D4B4FF0000BEB60A3694C4884
:1003300043F00103A361636A43F080736362A369BE
:1003400043F01C03A36126F82C2D31468DF85EB0D6
:1003500010F028F84046314610F024F84148314664
:1003600010F020F8404A3046516841F00071516069
:100370000AF0E0FE179A3D49B2FBF1F2CAF80820F4
:100380003B4A4FF47A71C2F800B0B9FBF1F9394A2F
:1003900009F1FF315160F02185F823100721C2F8DF
:1003A00008B0354D1160A26995E8030086E80300A6
:1003B00042F00802A2610822C8F8102018A9179874
:1003C0000FF0F0FFB9682D4A0B076DD592F81A119E
:1003D000012969D82A492B4892F81BE1B0F800C0DE
:1003E0000A88894642EA0C4C274A944540F0D68454
:1003F0005B46002B58D0254BDFF8948018683146B7
:10040000179040460FF0CEFF4FF40062C8F810205E
:100410003C2007F054F94FF0000897F81B3198453D
:1004200038DA1B4B08224FF400611A6178205961B9
:1004300004910392029307F037F9039A029B0499FF
:100440005A617820196107F02FF908F10108E4E7F3
:1004500000ED00E004010020000000080005FA059E
:1004600000080140001001400000014040420F0020
:100470004C2E002010E000E070810108940700205D
:10048000086C0040106C004007B0F75078810108FC
:10049000000C0140B948B9F800300288B84943EA75
:1004A00002438B4240F08284642007F008F9A022C6
:1004B000B448002115F075F9B34A536823F440633A
:1004C00043F0706343F400635360E369002243F038
:1004D0000703E361A36943F4006343F00C03A361E2
:1004E000DFF8E4B200230BF10C01535401320C2A63
:1004F000F6D1FF228BF818208BF819208BF81A20E0
:100500008BF81B20A149A24AD7F8088011600BF193
:100510001C0019463022029315F043F9029B08F0A3
:1005200040090BF11C0B9B4A995C0C225A430BF8B7
:100530000210B9F1000F04D11E2902D19649FF2003
:1005400050540133042BEED197F805B0934B18F0BB
:10055000200F83F800B0924BCAF84C3005EBCB0368
:100560005A7B904B18BF01221A6000228E4940F23C
:10057000DC5050520232102AF8D111A80021162264
:10058000029315F00EF9BBF10E0F029B02D0BBF1E6
:10059000080F02D101228DF85420C8F340028DF8D3
:1005A0004A20C8F3403219F100098DF84420C8F3FD
:1005B000C03218BF4FF001098DF8472018F40062CF
:1005C0008DF84C9007D097F80E21B2F1010EDEF1B4
:1005D000000252EB0E021B688DF84820003318BF52
:1005E00001238DF84E30714BC8F300421B688DF823
:1005F0004D2093F8A63108F00101C3F380038DF874
:100600004F30B7F8D630C8F3C002ADF85230B7F863
:10061000E2304FF47A70ADF85030C8F380438DF873
:100620004B30B7F8E03018F4805F8DF845108DF846
:100630004620ADF85630ADF8580004D05C48B0F80C
:10064000DC00ADF85800B3F5FA7F84BF0023ADF8A5
:10065000583097F8243157488AF8503000238AF8E8
:10066000513043709DF85430002B14BF02230023F7
:1006700001B902B1013305EB8305D5F8CC50002256
:10068000089505920692089905984FF6FF720B5A45
:10069000934200F09281D9B2DFF830919DF8492061
:1006A0004FEA011809EB08051AB18A1E012A40F227
:1006B0007E819DF84C202AB159F808203E4882429C
:1006C00000F075819DF84D202AB159F808203A486C
:1006D000824200F06C819DF84A203AB16A6837483E
:1006E000824203D1AA68012A00F061819DF8472067
:1006F0003AB16A683148824203D1AA68022A00F0FE
:1007000056819DF848203AB16A682D48824203D14B
:10071000AA68022A00F04B811B0A022B02D19DF825
:10072000442003E0012B04D19DF84520002A00F06D
:100730003E819DF84F2032B19DF854201AB90439FA
:10074000032998BF04239DF84420002A40D0DA1ED4
:10075000D2B2012A0AD859F80820B2F1804F00F02D
:10076000268115498A4240F0828020E1022B2FD158
:1007700059F80830134A93427BD118E1106C0040BD
:1007800007B0F750002D002000000140CC080020E9
:10079000741B002008010020C40100201415002053
:1007A000A40700203C150020161500207812002018
:1007B00094070020F90100200004004000080140D7
:1007C000000C014000080040A801002064A20108BC
:1007D000012B4CD19DF84B20B24B3AB159F808206F
:1007E000B1498A4204BF032283F85320FF2283F8D1
:1007F000982083F89920E97BAA684FF0000B83F8D2
:100800009CB0C3F8A8506868ADF85C208DF85E1005
:100810000222314683F854B0C3F858B0C3F85CB034
:10082000C3F860B0C3F894B083F89AB083F89BB073
:100830008DF85F2002930FF0B5FD59F80800297B71
:100840005A460AF02BFC28465946012209F0BCFF03
:10085000029B964A9649C3F8AC20964AC3F8B4B0B6
:10086000C3F8B02028460A1D0CF0CEF99FE0022BF9
:1008700046D106981C22C3B25A438F49002301EB8C
:10088000020B4FF0010C8BF802308BF80A308BF81A
:10089000010001F802C0E97BAA686868CBF80C5037
:1008A000ADF85C208DF85E1002223146CDF810C004
:1008B0008DF85F2002930FF075FD029B59F8080038
:1008C0001A46297B0AF0EAFB029BDDF810C01946A4
:1008D0006246284609F078FF784A029BCBF8102040
:1008E000774A0BF11001CBF81420CBF818302846CA
:1008F0000BF114020CF088F906990131069156E0CB
:10090000032B39D19DF84B30DFF8988133B198F83B
:100910005290284608214FF6FF721CE0BDF8563071
:1009200098F85290B3F5FA7F0FD9664A2846B2FB81
:10093000F3F20821BDF8583092B206F0B5F808EB92
:100940008903C3F87C01604B0EE0604A2846B2FB85
:10095000F3F2012192B2BDF8583006F0A5F808EB89
:100960008903C3F87C015A4BC3604E4B93F8522065
:10097000013283F852201AE0042B18D1BDF8503010
:10098000524ADFF8208192FBF3F22846BDF852303C
:10099000012192B298F8519006F086F808EB89038D
:1009A000C3F8AC0198F85130013388F85130059AFA
:1009B0000232182A05927FF466AE464B9AF851200F
:1009C0001A70454B93F80080B8F1170F1DD1002520
:1009D000DAF84C300021585903EB050911F0CCFF2F
:1009E00018B1BB68D8042FD429E03C4B05EB030EAB
:1009F00099E80F008EE80F00394B10351A78C02D9A
:100A000002F101021A70E3D1EBE7364B344A03EBF3
:100A1000C80393F80CC0D3F8109082F800C0B9F165
:100A2000000FDED000256545DBDA2C4A2B0103EBF5
:100A3000020E4B440FCB01358EE80F00F3E7B8F1FF
:100A4000080F294B26D128E0254B93F80090B9F1E7
:100A5000010FF4D9254D00274F4505F11005EEDAB9
:100A600055F8100C4FF07C5111F0F2FD4FF07C5115
:100A700045F8100C55F8140C11F0EAFD4FF07C51BC
:100A800045F8140C55F80C0C11F0E2FD013745F84F
:100A90000C0CE1E7B8F10E0F2AD11A7842F01002DF
:100AA00029E000BFA801002000080040AFFB0008BB
:100AB00054020020BDFC000844020020D9B0000808
:100AC00095FC000800127A00DDFC000840420F008F
:100AD000CDFC00084015002014150020381400201B
:100AE000772E002070810108DE10002040140020C5
:100AF0001A7822F010021A7006F026FBBD4A314621
:100B00001378BD4843F0040313704FF40043ADF86D
:100B10005C3014238DF85E3002238DF85F30A369BA
:100B200043F00403A3610FF03DFCB44AB44B002032
:100B30001A6006F0CEFDB34B93E80300A36986E884
:100B4000030043F00803A361179818A90FF02AFCCB
:100B500007F0F0FE10F0B2FE0DF080FC10B901209D
:100B600008F0ACF8A84DA94C284600211022A7682F
:100B700014F017FE4FF6FF73ADF84030022307F470
:100B8000004907F400684FF0000A1F408DF842301A
:100B90008DF843A00DD0012722A921F8487D964861
:100BA0000AF01CFB072385F800A085F801A0AF70B0
:100BB000EB70B9F1000F0ED0022322A921F8483DB5
:100BC0008D480AF00BFB0123FA182B71AB71072338
:100BD0006F71EB71D7B2B8F1000F0FD0022322A9C9
:100BE00021F8483D8A480AF0F9FA092301222B73BB
:100BF000AA737B1C07226F73EA73DFB2854B8648AA
:100C00005A684FF0000842F440425A605A69DFF8CF
:100C1000089242F001025A619A6942F400729A61A4
:100C20000AF059FB7D4B022F17937D4B31461893E9
:100C300034BF434680231C934FF480731D934FF4BD
:100C400080631E9320231F9348464FF400531A9746
:100C50002093CDF86480CDF86C80CDF884800AF0C4
:100C60001CFBD9F80030012F43F00103C9F8003014
:100C70006C4B98BF00215A6888BF012122F4702272
:100C800022F4807242EA01225A609968664A013F62
:100C90000A4042F4602242F002029A60DA6AFFB22D
:100CA00022F4700242EA0757DF6240460123291806
:100CB0008A78002A5AD02A5C5E1C092A91F803E03F
:100CC000F6B2584911D9A2F10A0707EB47074FF0CE
:100CD000070C0CFA07FC0EFA07FED1F80C8028EA84
:100CE0000C0C4CEA0E07CF600EE002EB42074FF00F
:100CF000070C0CFA07FC0EFA07FED1F8108028EA60
:100D00000C0C4CEA0E070F61062B46490ED8013B2E
:100D100003EB83034FF01F0E0EFA03FE9A404F6B56
:100D200027EA0E0747EA02034B6320E00C2B0ED89C
:100D3000073B03EB83034FF01F0E0EFA03FE9A40AE
:100D40000F6B27EA0E0747EA02030B630FE00D3B28
:100D500003EB83034FF01F0E0EFA03FE9A40CF6A97
:100D600027EA0E0747EA0203CB6200E01E46043082
:100D7000102801D033469AE72A4B9A6842F48072D1
:100D80009A609A6842F001029A609A6842F00802FA
:100D90009A609968234A090710D5FAE70EF1FF33E4
:100DA000092B8CBF00230123FFF723BB174B002225
:100DB00083F81B2110F0CCFAFFF776BB936843F061
:100DC00004039360174A936813F00403FAD19168FF
:100DD000B4F8E80041F4A00191600C4A38BBB2F9C4
:100DE000EA301BBBB2F9EC30D3F1010338BF00236A
:100DF0001DE000BF502E0020000801407172000865
:100E0000542E00204C8201086C1A00209407002008
:100E1000000C014000100240080002404C24014038
:100E20007C1A002000240140FDF7F1FF034613F077
:100E3000010340F08A80B14A00B2137511F0B4FB8F
:100E4000AF4911F005FC0746B4F9EA0011F0ACFB1C
:100E5000AB4911F0FDFB0646B4F9EC0011F0A4FB20
:100E6000A74911F0F5FB0546384614F017FF8046F8
:100E7000384614F087FF8146304614F00FFF0746CE
:100E8000304614F07FFF0646284614F007FF8346DD
:100E9000284614F077FF41468246584611F0D8FBA9
:100EA00041460590504611F0D3FB594606904846FE
:100EB00011F0CEFB51460890484611F0C9FB394667
:100EC0000990584611F0C4FB8E4D5146C5F8CC012F
:100ED00007F1004011F0BCFB3146C5F8D001C5F860
:100EE000D461089811F0B4FB0146069811F0A8FAF5
:100EF0003146C5F8D801099811F0AAFB01460598BA
:100F000011F09CFA3946C5F8DC0109F1004011F0F6
:100F10009FFB3146C5F8E001059811F099FB0146A9
:100F2000099811F08BFA3146C5F8E401069811F0E2
:100F30008FFB0146089811F083FA4146C5F8E80195
:100F4000384611F085FBC5F8EC01A3686D4D13F42C
:100F5000003F20D0C82006F0B2FBAE200FF073FD9A
:100F600008B10FF075FD85F8F001C82006F0A7FB69
:100F7000654B00210C226548C5F8F43114F011FCD2
:100F8000022385F8FB3109F055F806F0C1FA604BF1
:100F90000344C5F800325F4A5F4E136895F8048237
:100FA000B3F852700023B4F8F0A094F8EFB094F8BE
:100FB000F7903370B8F1000F08D00022A5F8062290
:100FC000B8F1000F08D10FF0CDFB05E00DF094FB58
:100FD000002800F06687F0E7BAF1140F19D009D89D
:100FE000BAF1050F19D0BAF10A0F14D0BAF1000FF7
:100FF0000DD114E0BAF1BC0F13D0BAF5807F04D044
:10100000BAF1620F03D102210CE000210AE00321B2
:1010100008E0042106E0052104E0062102E00721A2
:1010200000E001213D4B1A201A8822F040021204F0
:10103000120C1A801A8822F038021204120C42F0A4
:1010400030021A801A8892B242F040021A800FF0E1
:1010500074FB012006F028FB17A808F087FF9DF914
:101060005E30013303D19DF95C30013303D0B5F814
:1010700006329BB223B10023A5F8063200F011BF5F
:10108000274B284A64201A60274AD8465A60274AC4
:10109000DA6006F014FB04233370254A254E06233C
:1010A00013703368924643F001033360224A0021F3
:1010B000B8F1090F1170934600F2FC86012101FA84
:1010C00008F140F202320A40002A40F0EF8611F0A7
:1010D000FD0F00F0EB8695F8042232B10023A5F84D
:1010E00006325ABB0FF03EFB28E003920DF004FBE2
:1010F000039A002800F0DA86F0E700BF0000002025
:1011000035FA8E3CA8010020A6080020A00300208C
:10111000404B4C0078120020921200200030014019
:101120007C12002045FF00086D9F000890C1793DAA
:101130000001002084100020582E0020C44BC54A16
:1011400064201A60C44A5A6006F0B9FA04238BF886
:10115000003007238AF80130336843F0020333601C
:101160000A2006F0ACFA7720A021012210AB07F08C
:10117000E7FE002857D01E210122772007F0A0FEAD
:101180004FF42F6006F090FA0026A6F160014FF0B0
:10119000000AC9B2022217AB77208DF85CA08DF847
:1011A0005DA007F0CDFE9DF85D309DF85C1043EA30
:1011B0000121AA4B03F50272B1520236102EE4D17E
:1011C000B3F816E201210EF00F060EF47F4EA3F8DD
:1011D00016E25246534622F001002844B0F80802B5
:1011E000002818BF002112F0010F03D0C0B2434005
:1011F000082002E083EA1023FAE713F4004F18BF37
:1012000083F4C05301384FEA4303F6D10132102A68
:10121000E1D146EA0E0EA5F816E221B9C3F3033375
:101220009E4200F09B8095F818328C4E0BB1022341
:10123000A4E0142006F043FA012210AB7720D0215D
:1012400007F07EFE9DF840300322552B86F833329E
:10125000A6F83C2240F09980D121012210AB7720E2
:1012600007F06EFE9DF84030772003F00F021B0957
:1012700086F8342286F83532162217ABAA2107F0F9
:101280005FFE9DF85C209DF85D3043EA0223A6F8DE
:101290001C329DF85E209DF85F3043EA0223A6F8D9
:1012A0001E329DF860209DF8613043EA0223A6F8C3
:1012B00020329DF862209DF8633043EA0223A6F8AD
:1012C00022329DF864209DF8653043EA0223A6F897
:1012D00024329DF866209DF8673043EA0223A6F881
:1012E00026329DF868209DF8693043EA0223A6F86B
:1012F00028329DF86A209DF86B3043EA0223A6F855
:101300002A329DF86C209DF86D3043EA0223A6F83E
:101310002C329DF86E209DF86F3043EA0223A6F828
:101320002E329DF870209DF8713043EA0223A6F812
:101330003032012386F81832494B41F270721A801C
:1013400046F678125A80474A5A60474A9A60474A96
:10135000DA60474A1A61474A5A6168E7404B42F2ED
:1013600010721A805A80444A5A60444A9A60444A29
:10137000DA60444A1A61444A5A610323434A93702B
:10138000434B1A6842F004021A60414B1A689A46AD
:1013900012F0020F02D02E4B1B6898473D4B4E4671
:1013A0001B6898473C4B00221A70994616B1022ED2
:1013B00040F0848522AB03F82C2DC5F840221E2076
:1013C0000A21012207F0BCFD002800F077859DF876
:1013D0005C30482B40F07285304B314A1A60314AFC
:1013E0005A602A4B0222DA70DAF8003043F0080320
:1013F000CAF8003094F8E4300BB12B4A137094F81B
:10140000E5300BB1294A137094F8E6300BB189F836
:101410000030DAF800301B074ED53FB24FF06409B8
:1014200097FBF9F6304611F0BFF8824609FB1670BB
:1014300000B211F0B9F81E4911F00AF90146504600
:1014400010F0FEFF1B4911F003F9C5F8440236E025
:10145000E812002035FF0008D19F0008A8010020F5
:10146000FC10002079040108B99000085D0401080F
:101470007990000859FE00085304010859900008AB
:10148000490401086990000801FD000800010020DE
:10149000841000207C1200206A2E0020D010002032
:1014A00083040108BD8F000892120020582E0020EE
:1014B0008988883C000020410023C5F84432B04EA2
:1014C000082233784FF00A0943F002033370AD4B22
:1014D0001A61AC4F1920FB6809F1FF3983F008034A
:1014E000FB6006F0ECF8012006F0F3F8192006F096
:1014F000E6F8002006F0EDF819F0FF09E9D108231D
:101500003B61A14B1A681E4612F0080F05D09F4B95
:101510001B6898479E4B01221A709E4B9E4F1B687A
:10152000187B11F041F89D4911F092F814F0B6FBC8
:101530008246388811F038F8514611F089F814F0D5
:10154000E3FB974B1880388811F02EF80146954838
:1015500011F032F9944911F02FF9944B8F4918602A
:10156000934B944FD86811F073F8934911F070F8C9
:10157000924BFF2118601622384614F012F900220F
:101580003A7032688E4B012112F0020F1970384602
:1015900004D07970032119700221B970560704D55F
:1015A00019784F1C1F700327475412F00A0F0CD0F4
:1015B0001A7804218154511CC9B205274754D11C03
:1015C00002321970D2B206218154A268910604D564
:1015D00019784F1C1F7007274754170608D519782C
:1015E000092747548F1C01311F70C9B20A2747547D
:1015F0006179082901D00E2904D119784F1C1F7078
:101600000B27475419784FF00C0E4F1CFFB2D6032E
:101610001F7000F801E009D501F1020E684981F858
:1016200000E064494FF00E0E01F807E0510704D5C1
:1016300019784F1C1F701027475419784FF0120E5D
:1016400000F801E094F85CE14F1CFFB2BEF1000F1E
:101650000CBF002602F001061F704EB101F1020E10
:10166000574981F800E053494FF0130E01F807E0A5
:101670001978920501F10107FFB21F704FF01403B2
:10168000435405D54E4B023119704A4B1522DA5599
:10169000002198224B4814F084F80FF065FE0CF0FE
:1016A000F1FE494B494AB4F81E011A6081B2002389
:1016B000474A99520233242BFAD1A3681B0740F101
:1016C0001781444B93F81A31062B00F20B81DFE8A7
:1016D00003F004042F9BB2CECE003F493F4A012BBA
:1016E0000A603F483F4907D103240470072085F86A
:1016F000483208700C2307E00223037003230B70A9
:10170000002385F8483207231370374B4020C5F873
:101710004C3205F08BFE002800F0E48001234FF0EE
:10172000000990F9000040218DE808022F4A7FE06F
:1017300010F03AFF2E4910F08BFF2E4910F07EFE7C
:1017400011F072F900232C4A98500433482BFAD137
:101750002A4B1222C5F84C32204B40201A7005F05B
:1017600065FE002800F0BE8001234FF0070890F9C5
:10177000000040218DE80801214A224BACE000BF67
:10178000502E0020000C014084100020D0100020BA
:10179000F0100020301300201800002035FA8E3C95
:1017A000541300200AE81C4100401C462C12002063
:1017B0007C120020171E0020BD3786352C13002018
:1017C000161E0020D81A00201C0F0020A60800209A
:1017D0009A10002094070020240F00202D1E0020C6
:1017E000210F0020280F0020CD710008457500084A
:1017F000CDCCCC3F0000B044700F0020197200081F
:1018000051760008A08601005C4B1022C5F84C32CE
:101810005B4B40201A7005F009FE002862D00123BE
:101820004FF0000C90F900008DE80810554A402157
:101830004FF4E13350E0544B0822C5F84C32504B82
:1018400040201A7005F0F2FD00284BD001234FF024
:10185000000E90F9000040218DE808404B4A4FF4FB
:10186000E13306F06BFF4A4BC3F8500236E04449BF
:101870000C22062B47480A7010D00023037085F80D
:10188000543285F855321B2385F85632052385F8E6
:10189000572285F858324FF4E1340DE000210170F1
:1018A00085F8541285F855123B4C212185F85612C3
:1018B00085F8572285F85832384B4020C5F84C320D
:1018C00005F0B4FD70B101230027354A90F90000FE
:1018D00040218DE88800234606F030FF003018BF15
:1018E000012028B9082006F042FB0023C5F84C323D
:1018F0002C4F234ABB6813F4804F04D00821117089
:101900002949C5F84C1242F20101194051B1274949
:101910009E04C5F84C1244BF08211170DC0744BF77
:101920000C21117011781806A1F1040151707ED5B7
:101930004FF000091E4CDFF888A0494615221D4EC5
:101940001D48C5F85CA284F80190C4F80490C4F85E
:10195000089013F026FFAAF10403484633600EF006
:101960001FF8164B02201B68E36005F05FFD31464F
:1019700040BB802006F0FBFA51E000BF097200086E
:101980002D1E0020DD750008F57100089175000816
:10199000A80100207010002090D00300B971000849
:1019A000ADAB000894070020457200085172000892
:1019B0004C1200206C12002008040020482E002049
:1019C000CC08002090F805E06378CF4A4FF00C0C6B
:1019D0000CFB032696F801C0F44504D00133DBB2BA
:1019E000042BF2D9002363700B6890F900001B7878
:1019F000002B63784FF00C0404FB03220CBF012181
:101A000003215378002200910192022106F096FEF4
:101A1000BE4B18600028ACD001200DF0C1FFBC4ABD
:101A2000BC4B106800F5D8721A600EF08FFBBA4BF1
:101A3000BA4ABB4C1360BB4A80331360BB684FF09B
:101A40000008D90384F8008040F1BB800EF0A0FAB2
:101A5000B54BB64E40F22A3B4FF0010918465A46A4
:101A6000414684F80090029313F09BFEB1694FF059
:101A7000100A41F00801B16118218DF83F100321CF
:101A80008DF83E10AA480FA9ADF83CA009F0A6FBBE
:101A9000F169A84C41F00201F161A749A6F69476DC
:101AA0000868A649B0FBF1F02188013821F45C7187
:101AB00001FA0AF121FA0AF180B221801D21A185E3
:101AC0002085A4F81490218C21F0010101FA0AF17B
:101AD00021FA0AF12184218CB4F804E0208B21F052
:101AE000020120F0730000FA0AF001FA0AF120FA6C
:101AF0000AF021FA0AF11FFA8EFE40F0600041EA76
:101B00000901A4F804E02083A4F834802184218B07
:101B100021F0080101FA0AF121FA0AF141F0080165
:101B20002183B4F844106FEA41416FEA514189B210
:101B3000A4F84410D6F8A81F41EA0901C6F8A81F66
:101B4000304609F0C8FB029B7D49189380231C9303
:101B50004FF4807317911D9330464FF4005317A92B
:101B60002093CDF86C80CDF87880CDF87C80CDF8CE
:101B70008480CDF864A0CDF868B009F08EFBA3890D
:101B800010A89BB243F40073A381336843F00203AF
:101B900033608DF840A08DF841908DF842808DF82B
:101BA00043900BF087F9674B1A68674B48F803209E
:101BB00008F10408B8F1800FF5D10BF092F80BF0A2
:101BC00090F8BB685A0555D5D5F8A0855F4B042021
:101BD000C3F8008005F02AFC0421C5F8A40505F02F
:101BE000FFFB5B4B85F8A8050820C3F8008005F0D3
:101BF0001DFC0821C5F8AC0505F0F2FB554C85F835
:101C0000B005002120462C2213F0CBFD8E236370FB
:101C10004FF07C0AE0234FF07D09E37084F800A0C8
:101C200084F82B904C4C2C220021204613F0B9FD57
:101C30008A2363701020A023E37084F800A084F846
:101C40002B90C5F8B48505F0F1FB1021C5F8B80557
:101C500005F0C6FB85F8BC052020C5F8C08505F059
:101C6000E5FB2021C5F8C40505F0BAFB85F8C805D9
:101C70000FF02AFDDFF8F080DFF8B4A0B8F80030EC
:101C8000002423F040031B041B0CA8F80030B8F814
:101C90000030322023F038031B041B0CA8F800305E
:101CA000B8F800304FF4805B9BB243F04003A8F8D3
:101CB00000300DF15C099F238DF840308DF84140D4
:101CC0008DF842408DF8434005F0F9FC8DF85D40F9
:101CD00010AA0423CAF814B0404649460EF098FDF5
:101CE000CAF810B09DF85E209DF85D30120242EAFD
:101CF00003429DF85F301A43184B9A42184B3BD071
:101D000018498A4232E000BF90870108481200203B
:101D1000781200201C14002000090020202A002036
:101D2000A0190020242A00201D04002000100240D9
:101D3000000C0140000400400401002000366E0148
:101D40003404004006890108A219002074250020EF
:101D5000C825002098250020CE25002017BA200095
:101D6000781E00201740EF000038004004D058498A
:101D70008A4211D1202200E080221A704FF4807232
:101D80005A809A804FF480329A601A781204DA608E
:101D9000012285F8C92504E01C705C809C809C6051
:101DA000DC60DB68FBB14FEA1348C2464FF0000B22
:101DB000C34512DA0BEB08046410200449461022D4
:101DC0000EF0A4FD002359F8032001327CD1043326
:101DD000102BF8D1A246A046EAE704F0EBFC4FEA4C
:101DE0000A400BF055F8BB6813F4002318BF012319
:101DF00085F8CA3505F08CFB364B18607B79052BCE
:101E000003D1354B4FF4C8721A80344B4FF47A72B9
:101E10001A80334BC8221A80324B1A7842F00802DB
:101E20001A70314B1A7822F002021A70BA6840F622
:101E3000020313400BB32D4B2D4A1C461A6007F0CA
:101E4000DDF9282005F03BFC079B013B0793F6D109
:101E50002368284AD87811785A789B78B1FBF2F237
:101E600001322549082A28BF08220A7092B250433D
:101E70005A432249224B08801A80BB689B0308D52D
:101E8000042385F8FC3195F8FB3143F0010385F814
:101E9000FB311C48037863F07F03037023B0BDE877
:101EA000F08F032007F07EF9FFF709BBB8F1010FAF
:101EB0007FF656A94FF00008FFF7F8B8012E7FF61D
:101EC00099AA0026FFF76EBA04F1010B444682E797
:101ED0001520200084130020FA120020682E002014
:101EE000662E0020DE100020762E00206C250020BB
:101EF0009A0800207025002018010020CC25002021
:101F0000621A0020502E0020B64A2DE9F04FB64B41
:101F10001468B3F9060023898DB09842904610DB0F
:101F2000B0F5FA6FE27908DAC11A4A43A3F5FA6309
:101F300092FBF3F36433049305E0C2F1640204926C
:101F400001E064210491A94B0021B3F81E21059200
:101F5000A74A156893F9EE20AA46524292B2069219
:101F60000A46A14B059E31F903B0C6EB0B0303F201
:101F7000F31740F2E636B74203D8002BB8BF5B42F6
:101F800001E04FF4FA73022ADFF878E22ED095F8D8
:101F90005D6126B1B342CCBFC6EB030300236426C8
:101FA00093FBF6F7934E6FF0630936F817C009FB01
:101FB0000739013736F917700797079E0FFA8CF724
:101FC000F71B07FB09F7642697FBF6F767442EF823
:101FD0000170A7183F797B43874F93FBF7F3334496
:101FE000049F9BB27B4393FBF6F615E095F85E6188
:101FF00026B1B342CCBFC6EB03030023069F03FB0D
:1020000007F6AEF80460A679002BB8BF5B425E43CA
:10201000794F96FBF7F66436AB1893F801E0774FEB
:1020200006FB0EFE64239EFBF3FE02F807E09AF81F
:102030000BC007F1030E06FB0CFC9CFBF3FC02F843
:102040000EC09AF815E0063706FB0EF696FBF3F67F
:10205000059BD6559B45DFF8ACB104DA3BF801305F
:102060005B422BF801300132032A01F102010AF12F
:10207000010A7FF476AF5D4DB5F82031984205DB5B
:10208000B0F5FA6FA8BF4FF4FA6000E01846C01A26
:102090004FF47A725043C3F5FA63B0FBF3F364274D
:1020A000544C93FBF7F204EB42016FF0630000FB2A
:1020B0000233098B04EB4202B2F91A000AB2821A07
:1020C000534393FBF7F74E4B39441A884D4E520653
:1020D000ABF806103DD54C4B1888238EC01A00B2C1
:1020E00010F062FA494910F0B3FA074613F0D6FD32
:1020F0008146384613F046FE0746B6F9020010F056
:1021000053FA8246B6F9000010F04EFA49460290A2
:1021100010F09EFA394602465046039210F098FAA3
:10212000039A0146104610F089F910F057FC494611
:102130003080504610F08CFA029B81463946184692
:1021400010F086FA0146484610F07AF910F046FC85
:102150007080AA6840F6020313402D4E002B00F059
:10216000C3802C4B06211F88636B1F4494F83830C2
:1021700067630133DBB2B3FBF1F084F8383001FB65
:10218000103313F0FF0F40F0AF80930711D507F025
:1021900035F8214B174A1B78528F9A4206D21F4AB4
:1021A00012889A4234BF0023012300E0022384F8FE
:1021B0003C30AB68180540F195800C4ABBF906B07D
:1021C000B2F8DE00164AABF57A7BD2F800A0DFF851
:1021D00054909AF80820012A26D06CD3022A45D0C0
:1021E0006CE000BF281400209A1000209407002003
:1021F00078120020281A00200CFEFFFF361A00205B
:102200008C100020021400206C13002035FA8E3C44
:10221000762E00208213002070250020CC2500207F
:102220006C2500207825002094F85130206C04EBB8
:102230004303B3F85410082390FBF3F289B2821AD7
:102240000A4492FBF3F322649BB240F6E442534308
:10225000A4F85C10BAF806104FF47A72C1EB13338D
:102260005343BAF9042093FBF2F325E03178BAF82E
:1022700006204907C9F8002020D50392029304F0F4
:1022800043FF039A029B20B913F0100F18BF4FF0C1
:10229000000B0BFB0BF1322391FBF3F39B44BAF9D8
:1022A000043003FB0BFB4FF47A739BFBF3FB5A44A4
:1022B000C9F8002002E00023C9F80030D9F8003046
:1022C000D4E918015F434FF47A7397FBF3F7C01911
:1022D00041EBE7710023C4E91801714A10F0C4FB17
:1022E000704B1860002363636F4A704B1768934606
:1022F00017F480511ABF012283F8682083F8681010
:10230000AB6894F83C90DB052FD596F800A00AF056
:10231000040A5FFA8AFA05F02DFC18B11AF10000E0
:1023200018BF0120C00711D50123E26E84F869307F
:102330005F4B1078B3F900105378034403EB830329
:10234000994203DD594B022283F8692005F012FC03
:1023500028B1BAF1000F02D1022384F86930544B3E
:10236000B3F900300BB984F86930524B1A689A46B9
:1023700012F0200F0BD017F4C06F05D04E4B1B7816
:10238000990701D4012300E0002384F8703094F809
:102390006920464B022A02D14C204E2126E0012A18
:1023A00006D153204D214C220B4606F0CDFF32E0E2
:1023B00093F87020012A03D1532001464E2206E0F3
:1023C00093F86820012A04D15320014602464D2388
:1023D000EBE7B9F1020F04D1532001464D2244230B
:1023E000E3E7B9F1010F03D153204D210A46F6E787
:1023F000324F3A88120603D553204D210246D3E7C7
:102400002F4A107818B1192006F070FF03E083F806
:10241000710005F05EF93278570703D5294B082281
:102420005A6178E0DBF80030D80703D4264942F03F
:1024300001020A70DAF80020510702D52349098801
:1024400061B92349098809B1920705D4214A128844
:10245000003218BF012200E0012242B1194AD168BE
:1024600081F00801D160327822F001023270124A04
:102470001278170703D4327822F001023270D802A2
:1024800003D5337823F0010333703378124A13F005
:10249000010F23D0002363670A4B0821196129E04B
:1024A000407E05007C25002088100020281A00208E
:1024B0007210002084100020DE1000208C100020FC
:1024C00026130020000C0140762E0020662E0020EE
:1024D000FA120020682E00205C2E0020616F136825
:1024E00041B9BD4903F5F42303F590734B67BB4B2A
:1024F00008215961636F12686BB1D21A002A0ADB96
:10250000B64A03F5F423D16803F5907381F008010E
:10251000D160B14A5367B24F0FF0D6F83B78002B29
:1025200072D0A36F002B00F09485A06FAA4D05F028
:102530001CF9002800F08D85A86F05F011F9092815
:1025400001D03F2853D14FF00009E66FDFF8B48285
:102550004D4636B1A348D8F80010324613F06AF958
:1025600010B9C14605B945469F4B08F10C0898457E
:10257000EFD3F5B1D5F800C0D9F80080E36F9648E5
:102580001CF803E018F80310714512D15A1C59B910
:102590002D2B09D8C26703444FF0200E024483F864
:1025A00080E082F8801004E0234483F880E0E26752
:1025B000E4E7E36F0BB14D4510D08C4805F08AF984
:1025C0004D4507D855F80C0B05F084F9092005F0A6
:1025D0007BF9F5E7864805F07DF90026E36F9E421A
:1025E000A3D2804B985D05F06FF90136F6E7EB6FEB
:1025F000002B40F05C85042840F0AD8505F180009B
:1026000004F0BEFD00F025BD7A4F97F84A30012B4B
:1026100040F01A85784A794B3968176019609246FC
:102620009B46DBF80000DFF8D49105F09EF8002807
:1026300000F0FB84D9F8000005F092F8DAF80030D9
:1026400093F848201AB9242839D1012234E0012A0C
:1026500004D14D280CBF022200222DE0022A04D111
:102660003C280CBF0322002226E0032A09D140287F
:102670004FF0000220D81A71DA7158719871042253
:102680001AE0042A06D19A7983F8490050409871DB
:10269000052211E0052A26D159791A7991429979B2
:1026A00006D941409971511C1971134418721AE0EE
:1026B00081420CBF0622002283F8482013E03378C1
:1026C0005B0710D42328D9F8003040F0E084444A56
:1026D00001214B481170A367C4F8483105F0FAF89E
:1026E000434805F0F7F8DAF80030DFF80C9193F87A
:1026F0004820062A95D193F8490002F005F90028F0
:1027000040F08784D9F8002092F84930442B00F03B
:102710007A8400F2A680312B00F0418433D8272B35
:1027200000F0A9830BD8232B00F0FA80252B00F0B2
:102730009B83212B40F0B8844FF00009FCE22B2B47
:1027400000F0B78314D8292B40F0AE8404F004FEC7
:10275000A5F80A0104F000FEA5F80C0104F0F2FD52
:1027600085F80E0104F0F8FDA5F8100100F04EBC4C
:102770002D2B00F0A2832F2B40F09684DFF8889059
:1027800009F1400AFAE3392B00F082830ED8352B89
:1027900000F0B481372B00F0B383332B40F08484F6
:1027A00004F0D0FD85F81C0100F030BC3E2B00F099
:1027B000F0802DD83C2B40F07784DFF85090D9F88A
:1027C00000A004F0BFFD8AF80000D9F800301878A6
:1027D00005F08CF900F01ABC281A0020000C01400A
:1027E000712E0020A81A0020B09701085CAE0108E5
:1027F00061AE0108D81A00202026002024260020DF
:1028000091AE010878960108940700207812002004
:10281000412B00F06783432B40F0468404F092FD87
:102820000023AB60687104F0A1FDAB681843A86099
:1028300004F088FD85F81A0104F08EFDA5F8E80083
:1028400004F08AFDA5F8EA0004F086FDA5F8EC0086
:1028500004F082FDA5F80A0104F07EFDA5F80C0144
:10286000D4E3CF2B00F0CA811ED8C92B00F095828B
:102870000AD84A2B00F09680C82B47D0482B40F04E
:10288000138409F087FCC1E3CC2B00F0628104D8EB
:10289000CA2B00F08B8000F007BCCD2B00F06682C5
:1028A000CE2B00F06C82FFE3D32B2AD005D8D12B9E
:1028B00000F09B8240F24F8210E0D62B00F0F581B1
:1028C00006D8D42B08BF4FF0000A00F01282EBE3C9
:1028D000EF2B4FD0FA2B00F05C82E5E3337803F066
:1028E000040303F0FF09002B40F0908304F02AFD5D
:1028F000022885F8600740F23482B74B83F860976E
:102900002FE204F029FDB54B18807FE392F805A073
:102910004FEA5A0ABAF1120F1CD84FF000091CE016
:1029200004F010FD272815D8DFF8C0A200F11C0B19
:10293000DAF8003003EB8B0B04F004FDA84B0BF12D
:10294000050903F58A72197A814200F0C1800C33BF
:102950009342F8D10BF0A4FD58E3D14507D204F01F
:10296000FBFCA04B23F8190009F10109F5E701224E
:102970009D4B0CE2DFF87492D9F800A004F0ECFC57
:10298000AAF85600D9F8009004F0E6FCA9F8540023
:102990003CE304F0D7FC85F8270104F0D3FC85F86C
:1029A000260133E304F0D8FCA8812FE38F4B1A688B
:1029B00099461278022A6ED14FF00009DFF82CA256
:1029C00009F1080BDAF80030029304F0BBFC0FF0B9
:1029D000E7FD87490FF0F0FE029B43F82B00DAF881
:1029E00000B004F0AFFC09F10A030BEB830B0FF00E
:1029F000D7FD80490FF0E0FEDAF80030CBF8040094
:102A0000029304F09FFC0FF0CBFD7B490FF0D4FE46
:102A100009F10E0B029B09F10109B9F1030F43F80B
:102A20002B00CBD1B9F1070FDAF800B01AD104F0BE
:102A300089FC0FF0B5FD6E490FF0BEFECBF84400E7
:102A4000DAF800B004F07EFC0FF0AAFD68490FF040
:102A5000B3FECBF84800DAF800B004F073FC8BF852
:102A60004C0012E004F06EFC0BEB09035870DAF82E
:102A700000B004F067FC0BEB0903D872DAF800B081
:102A800004F060FC0BEB0903587509F10109B9F179
:102A90000A0FC7D1BAE24FF0000AD9F800B004F02B
:102AA00051FC0BEB0A035870D9F800B004F04AFC53
:102AB0000BEB0A03D872D9F800B004F043FC0BEB1F
:102AC0000A030AF1010ABAF10A0F5875E5D19DE22D
:102AD0001B788BF8053004F035FC89F8010004F010
:102AE00031FC89F8020004F02DFC89F80300DAF8C3
:102AF000001001F175000BF075FC87E204F022FC78
:102B00000B283FF627AF4FF0060A0AFB00F0374BC1
:102B100000F588701B6803EB000A04F013FC03281F
:102B20003FF618AF8AF80A0004F00CFC8AF805009A
:102B300004F008FC8AF8060004F004FC8AF8070098
:102B400004F000FC8AF8080004F0FCFB8AF8090095
:102B50005CE253790A2B7FF4FDAED8F8009004F0C4
:102B6000F1FB89F80000D8F8009004F0EBFB89F83D
:102B7000010004F0E7FBD8F800306428A8BF642007
:102B8000187104F0DFFBD8F800306428A8BF642077
:102B9000587104F0D7FBD8F80030FF28A8BFFF20F9
:102BA000987104F0CFFBD8F80090642828BF642007
:102BB00089F8070004F0C6FB89F80200D8F80090F5
:102BC00004F0C0FB89F80300D8F8009004F0C4FBBF
:102BD000A9F808001AE200BF940700200A14002098
:102BE000B09701089A100020781000207812002079
:102BF000000020410000C84200007A4404F0ACFB11
:102C00006FF4AF6143189BB2C62B98BFA5F81E01A5
:102C100004F0A2FBCD49DFF83C93A1F8D00004F00A
:102C20009BFBCA4AA2F8D20004F096FBC74BD9F826
:102C300000A0A3F8D40004F08FFBAAF8AA0104F0C6
:102C400081FBC24981F8340104F07CFB04F07AFB7B
:102C5000BE4A82F8350104F075FBBC4B83F80F01C6
:102C600004F070FBB94981F81C0104F06BFBD9F842
:102C7000009004F071FB00EB80004000A9F85200C6
:102C800004F060FBB14A82F8060104F05BFBAF4B35
:102C900083F8080104F056FBAC4981F8070104F001
:102CA00051FBAA4A82F80901B0E1814604F054FBC5
:102CB000A74B23F8090009F10209B9F1100FF5D16A
:102CC000A4E1A0F57A739BB2B3F57A7F04D8D9F862
:102CD000003003EBCB035881D9F8009004F032FBAD
:102CE0000AF1010A09EBCB03BAF1080F187300F0DF
:102CF0008D81DFF860920AF12C0BD9F80020039245
:102D000004F02AFB039A4FEACB031A44D080D9F887
:102D100000200293039204F01FFB029B039A1A44C3
:102D20001081029304F018FB0728029BC9D8D9F838
:102D3000002013445873C4E7864BD3F800A004F076
:102D400001FB0AEBC90309F10109B9F1080F83F886
:102D50006D01F1D15AE133785A0700F157810BF038
:102D6000B0FD04F011F90EF03DF94FE133785B0747
:102D700000F14C81784B4FF4C8721A8046E13378E9
:102D8000580700F14381754B1A7842F004021A701B
:102D90003CE133785907E4D586E104F0D3FA6F4B70
:102DA0001A7810B142F0020201E022F002021A7019
:102DB00004F0C8FA6A4BDFF8C091187004F0D6FA34
:102DC000C9F8000004F0D2FAC9F8040004F0C4FA0B
:102DD000644B188004F0C0FA634B188094F85031AB
:102DE00043F0020384F8503110E104F0ABFA029092
:102DF00004F0BCFA834604F0B9FA824604F0B6FA4D
:102E0000814604F0A9FA04F0A7FA04F09BFA029BA9
:102E1000ABB95649C4F854B10B88C4F858A123F093
:102E200010030B804D4B1A7842F001021A70B9F171
:102E3000000F00F0EB804E4BC3F80090E6E0102B43
:102E400040F0E480C4F85CB1C4F860A1B9F1000FAF
:102E500002D0474BC3F8009046480223011D84F876
:102E6000643107F06BFCD1E0A86004F07FFAAB6836
:102E70001843A860CAE004F06FFAA5F8E80004F06F
:102E80006BFAA5F8EA0004F067FAA5F8EC00BDE0DB
:102E900004F058FA85F8060104F054FA85F80801A0
:102EA00004F050FA85F8070104F04CFA85F809019E
:102EB000ACE004F047FA6871A8E004F043FA85F842
:102EC0001A0104F049FAA5F8220104F045FAA5F820
:102ED0001E0104F041FAA5F8200104F033FA85F848
:102EE0001B0193E04FF0000904F02CFA05EB0903F5
:102EF00009F10109B9F1080F83F81201F4D185E055
:102F000053791C2B7FF426ADDFF8409009F1200A9D
:102F100004F018FA89F83A0104F01EFAA9F83C0105
:102F200004F010FA89F83E0104F00CFA89F83F0128
:102F300004F008FA89F8410104F004FA09F10809DB
:102F400089F83801D145E3D160E000BF9407002043
:102F50004815002078120020FA120020DE10002010
:102F60007012002082250020802500208C10002077
:102F700090100020841B00208825002004F0ECF92C
:102F8000A9F8EC0104F0DEF989F8EE0104F0DAF9B1
:102F900009F1040989F8EB01D145EFD136E004F0DD
:102FA000D1F91F283FF6D6ACD9F800305B79082B51
:102FB0007FF4D0AC00F15A0A04F0CEF905EB8A0A8E
:102FC00000F03F00AAF8060004F0C6F9BAF806209F
:102FD000800100F4FE531343AAF8063004F0B2F95E
:102FE00000018AF8040004F0ADF99AF8043000F00A
:102FF0000F0018438AF8040004F0A4F98AF80500C9
:103000000CF0C6FF02E0012384F86531002004F0D3
:1030100033FCDFF8C491D9F80030987904F0FCFB58
:10302000D9F80030002283F8482094F865315BB16C
:10303000386804F080FB18B9322004F040FBF7E751
:103040000DF032FB06F090F8524A4C3797427FF46D
:10305000DCAA514B1B689A0611D5504BD4F8682155
:103060001B689A1A002A0ADB4D4A1278042A06D9EC
:1030700003F512334B4A03F5F873C2F868314A4B33
:103080009B68002B00F08380484898477FE0D4F885
:103090004C311B7883427FF426AB454A454B1A607E
:1030A00006F062F8FFF71FBB0BF0FAF9B1E70C2846
:1030B00003D1414804F00EFC3EE00A2801D00D285F
:1030C0003CD13E4804F006FCE36F0BB9E36709E02E
:1030D000344A591E02F18000085C202801D10B46B9
:1030E000F3E7D3672344002283F8802094F88030EC
:1030F000232B17D0324B334E0A92009309A8324942
:103100001A220C23099612F0E6FB054638B1006836
:1031100012F088FB0130AB683044984702E02B483E
:1031200004F0D8FB27480021302212F03AFB00239C
:10313000E3673B78002B8CD0254808E07F2810D12E
:10314000013BEB6700222B44224883F8802004F0E7
:10315000C1FBFFF7EAB90C28ABD07F2804D1FFF7F9
:10316000E4B92F2B3FF6E1A9A0F12002D2B25E2AEA
:103170003FF6DBA913B920283FF4D7A95A1C2344F2
:10318000E26783F8800004F09FFBFFF7CEB90DB033
:10319000BDE8F08F701B0020841000205C2E002002
:1031A00070120020281A00207C120020941B00209E
:1031B000EFBEADDEF04F002066AE010880BE010814
:1031C0008F720008A81A00207896010871AE0108D5
:1031D00061AE01088DAE01082026002097492DE937
:1031E000F04F0B68964A03F59C43964D20331360CD
:1031F000AA6885B012F4807F0C4603D0924B1988E0
:103200000131198042F2010313401BB18F4B1A7830
:1032100001321A7003F043FBAB68D80405D58C4B20
:103220001B68D90701D40EF011FC8A4B246818687A
:10323000837A83B1884A013B32F91300A0F57A7092
:10324000B0F57A7FA8BF4FF47A7020EAE0700FF0F3
:10325000ABF982492FE0AA68120435D57B4A516840
:10326000611A002930DB04F59C41203151607C4912
:103270004E797C4931F81660C17AB6B296FBF1F00E
:10328000117A013101F00F0111720A44507218468F
:10329000754A9A5C01331044102B80B2F8D100B209
:1032A00090FBF3F000B26428A8BF642020EAE0702D
:1032B0000FF07AF96D490FF07FFA6D490FF0C8F9F8
:1032C0000FF0B2FB6B4B1880AB686B4E13F4807F32
:1032D00038D06A4B9C4204D95B4B1A790AB9012257
:1032E0001A7104F047FC00282CD0574A1179134674
:1032F00009B9118026E03278614912F0040F12D02A
:103300005D4842F002020270504A534CD2699089E3
:103310002080908960809289A2800A685288E28029
:103320005A8801325A800A68B3F90010107853782D
:10333000034403EB8303994202DC33785F0701D433
:103340000EF084FBB5F8DE0003F0DEFE804660B9C7
:1033500004F002FC3D4B0022C3F82080C3F8248017
:10336000C3F82880DA621A635A6333785C0720D581
:10337000AB68D8061DD5434B1B78D90619D4314B01
:1033800093F82721AAB1404B1B7893B12F4B3F49AB
:10339000B8F1000F07D10A689B6B9B1A002B08DA63
:1033A0000EF054FB05E009684FF47A7000FB02123E
:1033B0009A63002295F8259195F82611B5F82041D9
:1033C000B5F822711346DFF890C09B083CF9020063
:1033D0000232A042C4BF63F07F03DBB2B842B8BF81
:1033E00043F04003082AEED1184C94F83C209A424E
:1033F00005D194F83D20F92A04D8013200E00022DA
:1034000084F83D2084F83C301F4B114F1A789A46BF
:10341000002A40D13B68DA0708D5B8F1000F3AD14D
:103420003378DB0737D50DF0F3FF34E033785807F6
:1034300031D569B30EF00AFB2DE000BF5C2E0020F1
:103440007C1000209407002072100020981B0020A0
:10345000881000201C0F00209A10002000007A44E1
:103460006C1A00207C1A0020A11B00200000C8421A
:1034700000C07F44301E0020762E0020404B4C00C0
:10348000941A0020DE10002029000020482E002081
:10349000B8F1000FCED094F83D30AD4A142BDFF8D0
:1034A000F4826CD1337819F1000903F0040318BFDA
:1034B0004FF0010903F0FF019BB19AF80030002B97
:1034C0005DD092F83C305F2B01D10EF0BFFAB9F11C
:1034D000000F54D094F83C307D2B50D10EF0B6FA4A
:1034E0004DE092F83C30572B15D19A4B4FF47A723D
:1034F0001A80AB68190601D50CF002FE964B1B68CA
:103500005A0702D5954A0A21118013F0080336D1D3
:10351000934A138033E0A868400715D55A2B13D17E
:10352000904B187818B1197001228F4B08E092F86F
:103530003E108E4B81F0010182F83E1011B1042241
:103540001A701CE00622FBE75D2B00F07A845B2BEF
:1035500000F079845E2B02D1032200F075BC562B5B
:1035600001D10DF0F5FE9AF80030002B00F08384B5
:1035700094F83C306F2B40F078840DF049FFAB6835
:10358000580732D594F83E30A3B13378590711D596
:103590007748784BB0F90620B3F820319A4209DD1C
:1035A0003B6813F0010305D1734A32211180684A48
:1035B00082F83E303B68DA030AD5704B1A782AB994
:1035C000684A127812B96C4A3221118001220BE04C
:1035D000644B1A784AB1327802F0040202F0FF011B
:1035E0001AB91970604B01221A70D8F800900023A4
:1035F00009F1750A3B6009F1770698460AF1020362
:1036000003EB080113F808204B7816F8010C9A42D6
:103610000AD231460CF04AF830B116F8023C0122C9
:103620009A403B6813433B6008F10408B8F1A00FCF
:1036300006F10406E2D1524B1B783BB13B68464E83
:1036400013F0020F4F4C40F0D582CDE209F2151273
:10365000019209F58B769846DDF804C016F8010C46
:103660000CF1010303EB080113F808204B789A4290
:1036700029D231460CF01AF828B396F802C03079F6
:10368000414B0CF1FF3C4FF00C090CEB4C0C09FBCF
:1036900000F99C442E4B96F803B003F1400A0AEB64
:1036A00009014A6862450ED000220AF809B08A6012
:1036B000012202FA00F093F87020C1F804C022EA57
:1036C000000083F8700008F10608B8F1480F06F111
:1036D0000606C1D12D4A2E4B12681E68DFF8B8903D
:1036E00001924FF00008D9F80030002B00F07382EF
:1036F0001A78002A00F06F82D9F804100198411A54
:1037000000290CDB00F5FA71C9F80410012101FA57
:1037100008F194F8700020EA010184F8701019F89B
:10372000041C58780431C9B2002840F016821048B1
:1037300030F91110B5F81E0100F1C80C614501DD2A
:1037400098783AE0C838814228DA9878404234E0E4
:10375000981B0020682E002084100020662E002078
:103760006C130020251300202713002026130020AF
:103770009A100020940700200C130020241300202E
:10378000712E00208C100020C4980108482E0020C3
:103790002814002078120020DC1B0020012303FAEB
:1037A00008F394F8702022EA0303019A84F8703039
:1037B00002F5FA73C9F804300DE294F8703043FA58
:1037C00008F3DB0700F107820028AE4BCCBF0221D3
:1037D00001211970531E0D2B00F2F581DFE813F063
:1037E0000E0017002300300044004A009700E40058
:1037F000310165019101F30130003B003378184439
:10380000FA28A8BFFA2020EAE070307007E0737849
:1038100018446428A8BF642020EAE0707070304625
:1038200003F04EFECFE1F37818446428A8BF64206B
:1038300020EAE070F070616F304603F0FDFDC2E1F8
:1038400073790344642BA8BF642323EAE3730D2A2E
:10385000737100F0B881337918446428A8BF6420DC
:1038600020EAE0703071AEE1B379184480F30800CB
:10387000B071A8E1D4F878B09BF80020022A31D1C9
:103880000EF092FE80490EF097FFDBF824100090B6
:103890000EF0D6FD002182460FF078F838B9504678
:1038A0007A490FF091F820B1DFF8E0A101E04FF084
:1038B000000ACBF824A0DBF8201000980EF0C0FD21
:1038C000002182460FF062F838B950466F490FF078
:1038D0007BF820B1DFF8B4A101E04FF0000ACBF88B
:1038E00020A070E19BF802200244C82AA8BFC82289
:1038F00022EAE2728BF802209BF801201044C828CB
:10390000A8BFC82020EAE0708BF801005BE1D4F882
:1039100078B09BF80020022A31D10EF045FE5B49B9
:103920000EF04AFFDBF8301000900EF089FD002108
:1039300082460FF02BF838B9504654490FF044F83E
:1039400020B1DFF848A101E04FF0000ACBF830A029
:10395000DBF82C1000980EF073FD002182460FF06A
:1039600015F838B9504649490FF02EF820B1DFF864
:103970001CA101E04FF0000ACBF82CA023E19BF83A
:103980000C200244C82AA8BFC82222EAE2728BF89F
:103990000C209BF80B201044C828A8BFC82020EAA0
:1039A000E0708BF80B000EE1D4F878B09BF80020A3
:1039B000022A31D10EF0F8FD35490EF0FDFEDBF89C
:1039C0003C1000900EF03CFD002182460EF0DEFF20
:1039D00038B950462D490EF0F7FF20B1DFF8ACA002
:1039E00001E04FF0000ACBF83CA0DBF8381000985B
:1039F0000EF026FD002182460EF0C8FF38B9504671
:103A000022490EF0E1FF20B1DFF880A001E04FF085
:103A1000000ACBF838A0D6E09BF816200244C82A4A
:103A2000A8BFC82222EAE2728BF816209BF8152064
:103A30001044C828A8BFC82020EAE0708BF8150001
:103A4000C1E0D4F878B09BF80030022B22D10EF000
:103A5000ABFD0D490EF0B0FEDBF828100EF0F0FCC7
:103A6000002182460EF092FF38B9504607490EF009
:103A7000ABFF20B1DFF814A001E04FF0000ACBF853
:103A800028A0A0E026130020000020410000C8422A
:103A900000007A449BF803301844C828A8BFC82007
:103AA00020EAE0708BF803008DE0D4F878B09BF842
:103AB0000030022B1AD10EF077FDAA490EF07CFEE1
:103AC000DBF834100EF0BCFC002182460EF05EFFE5
:103AD00038B95046A3490EF077FF20B1DFF884A231
:103AE00001E04FF0000ACBF834A06CE09BF80D30F9
:103AF0001844C828A8BFC82020EAE0708BF80D0041
:103B000061E0D4F878B09BF80030022B1AD10EF0A7
:103B10004BFD95490EF050FEDBF840100EF090FC86
:103B2000002182460EF032FF38B950468D490EF022
:103B30004BFF20B1DFF82CA201E04FF0000ACBF8D8
:103B400040A040E09BF817301844C828A8BFC82000
:103B500020EAE0708BF8170035E0012833D198781F
:103B6000824B33F91110B1F5617F05DB40F6330369
:103B70009942B8BF0B4601E04FF461730C2A22D181
:103B80004FF4966AA3F561739AFBF0FA93FBFAFA85
:103B900094F87C305FFA8AFA534514D0BAF1030FD7
:103BA000734A94BF534602230A2184F87C3001FBF8
:103BB000032370480233036003F09CFC6E4B0AF150
:103BC000010A83F800A0012303FA08F394F8702097
:103BD000134384F8703008F10108B8F1040F09F1BB
:103BE0000C097FF480AD29E5AB68D80514D503F046
:103BF000C1FF88B1336899070ED52388DFF87C812F
:103C000013F001090ED103F0A7FFB8F8003043F01C
:103C10000103A8F8003005E0238823F00103238086
:103C2000012300E000233A68520711D583B12388AD
:103C3000DFF8488123F001029B0722800CD403F0B7
:103C40008BFFB8F8003043F00203A8F8003003E01F
:103C5000238823F002032380326812F00A0F24D055
:103C60003B682188DE060AD548070BD4434841F05B
:103C700004010180424908884249088002E021F09D
:103C8000040121809E06218806D5480607D43B48BA
:103C900041F04001018002E021F0400121805B06FB
:103CA00003D5374B1988384B1980960607D43B68E3
:103CB000180540F1B880238843F48073B6E0334B95
:103CC0001B78990778D5324B1B78042B74D93B6845
:103CD00013F400700ED02388DA06E8D42D48274A62
:103CE00023F0200343F01003011D138006F026FD8E
:103CF00002226BE0218801F0100292B232B11F4A19
:103D000021F010011180244A107001225E054DD56A
:103D1000224B1B685989224BB3F900000028B8BF19
:103D20004042884209DAB3F90230002BB8BF5B4247
:103D30008B42ACBF0023012300E00023002B35D0D1
:103D40002388980645D40D4A43F020031380154B71
:103D500015481A685B68011D0260436006F0EEFCBE
:103D6000012233E00000C84200007A449A1000208B
:103D7000F40E002028140020261300208C100020B0
:103D80006C1300200A140020581A0020DE100020B6
:103D9000701200207C1B00208C1B00201C140020B3
:103DA0000214002088250020841B00202388990607
:103DB0000FD523F0200306E0238813F0300F3FF4E3
:103DC00076AF23F03003564A13800022554B1A7009
:103DD00002E0002A3FF46BAF00231A46524900204C
:103DE00050525249524E5052524906EB030C505217
:103DF000002199510232CCF80400CCF8081006F1E9
:103E0000280C503643F80C1099519C441E44042A47
:103E1000CCF80400CCF808107060B16003F1140312
:103E20003FF445AFDAE7238823F4807323806B796E
:103E3000082B01D00E2B6FD1238823F04003238061
:103E40006AE0012200E002225FFA82F909F1FF3301
:103E500085F8603703F098F80DF0C4F802202821A7
:103E60004A4603F03DFCFFF78ABBB9F1000F02D0D0
:103E70007E2B3FF482AB94F83C30972B05D12E4B30
:103E80004FF4C8721A80FFF77ABBA72B05D12B4BD2
:103E90001A7842F00402FFF753BB0022BB2B0392B7
:103EA00001D1022303E0B72B04D14FF6FE73ADF826
:103EB0000E3009E0BE2B01D1022303E0BD2B1AD145
:103EC0004FF6FE73ADF80C30D8F80030BDF80C108A
:103ED000B3F854200A44A3F85420BDF80E10B3F8E8
:103EE00056200A44A3F856200DF032FA002384F835
:103EF0003D30FFF744BB792B04D1114BDA7822F027
:103F0000010206E07A2B7FF43AAB0D4BDA7842F0EF
:103F10000102DA70FFF733BB05B0BDE8F08F00BFD8
:103F20008C1000208C1B0020722E002020140020FA
:103F3000181C002024140020FA120020DE1000209B
:103F4000A00300202DE9F04F8E4F8DB03B78023B4F
:103F5000072B00F2B384DFE813F008002E004F00B7
:103F600069008000FB005501A204874B874D1A6849
:103F70006B6864339A4240F2A1840024844B854AE2
:103F80001B789C420ADA2B68804ED05C30B109F075
:103F900087FA3368013401333360EFE729687B4BDC
:103FA000525C002A40F08A841A604FF0FF325A6057
:103FB000032300F08ABC24230093774B062103F1EE
:103FC0000C0201930292A3F12200A3F10A02023330
:103FD00008F01CF9002840F07184704B9B6813F0C6
:103FE00080026A4B06D04FF0FF3218605A600423FB
:103FF00000F06BBC1A602DE002230093684B042193
:1040000003F10C0201930292A3F11800A3F108023C
:104010000B4408F0FBF8002840F050845B4B4FF055
:10402000FF3218605A60052300F04FBC072300934D
:104030005C4B042103F10C0201930292A3F11800DE
:10404000A3F108020B4408F0E1F8002840F03684A0
:104050004E4B1860062300F038BC4C4C236813B953
:104060006360012323604A4B1D7863681D44402D23
:10407000A8BF4025132D656040F32084434B1B6887
:104080000D2B00F22184DFE803F05F070B0E1219FD
:1040900023282D3135414C52434801F045FB51E076
:1040A0004248434940E043484349444A48E03B4B87
:1040B000434893F8801793F8812741E0374B0A2152
:1040C00093F860273F4801FB023393F862172BE017
:1040D000324B3D48B3F8D01026E0304B3B48B3F8A4
:1040E000D21021E03A4B3B48D9681DE03A4B3B489F
:1040F000198819E03A4B1B68DB0404D5274B394873
:1041000093F8061110E00C2323601DE0234B364882
:1041100093F8081193F8092193F8073108F064FF28
:1041200010E02F4B3148998808F05EFF0AE01B4BE6
:104130009A68160508D52E48B3F80C11B3F90A2170
:1041400008F052FF281A6060236801332360B5E34A
:10415000284B00241C60284B0CAD1C60274B1C60B6
:1041600008233B7003F0D4F945F8140D012003F047
:10417000B0FA234B0122204629461A7001F0F6FAC4
:104180009CE300BF72070020482E00208407002017
:1041900010010020F098010886990108940700207A
:1041A000449B01086C9B010804B2010821B201087C
:1041B00039B2010841B2010858B2010864B20108DD
:1041C0006DB2010881B201088EB20108A0B20108E7
:1041D0007C120020B2B2010818000020C5B201080C
:1041E000901C0020D2B20108E2B20108FEB2010820
:1041F0000CB30108800700207C070020780700200E
:1042000026130020C14B1868002840F0BB80C04D29
:1042100003F0B6FE4920AC6809F042F9BD4B0E260A
:10422000186809F07FF9206809F07CF9606809F0E6
:1042300088F9A06809F085F9E06809F082F9206939
:1042400009F07FF9606909F07CF9A06909F079F952
:104250000122B2402B681A4205D004EB860353F8C2
:104260001C0C09F06EF90136112EF1D1B4F92800B9
:1042700009F067F9A84EB4F92A0009F062F9B4F917
:104280002C0009F05EF9B6F8D030B4F92E00C01A4F
:1042900009F048F92B68D80408D59D4B9888B4F8E4
:1042A0006430C01AC0F30D0009F03CF92B68990482
:1042B00003D5B4F8660009F035F92B685A0506D421
:1042C0002B681B0510D5A06E09F03BF90CE0B4F982
:1042D0006C0009F036F9B4F96E0009F032F9B4F95E
:1042E000700009F02EF9EBE7B4F9300009F029F974
:1042F000B4F9320009F025F9B4F9340009F021F9D4
:10430000B4F9360009F01DF9B4F9380009F019F9CB
:10431000B4F93A0009F015F9B6F8D030B4F93C0018
:104320000126C01A09F0FEF87C4B1B789E420ADA7F
:1043300004EB4603B3F93C00B4F93C300136C01A33
:1043400009F0FFF8F0E72B68980507D5704B9B68DC
:10435000B3F95E00A0F2DC5009F0F3F8AB68704AE4
:104360007049EB602B619B1A9B104B430321013377
:1043700093FBF1F101EB41015B1A742101FB032274
:10438000AA607CE2644B013893F8802793F8811788
:104390001044B0FBF1F401FB1401914280F0338230
:1043A0005B4D03F0EDFD5020D5F80890D5F80C805A
:1043B00009F076F82A69AB6810681B680024184475
:1043C000EB681B68A0EB430009F0BBF809EB0402A3
:1043D00008EB040350685B680434C01A09F0B1F8B4
:1043E0000C2CF3D1002309EB030108EB030209694C
:1043F000126907AC8A1A1A5104330C2BF3D100222C
:104400001346A15801F120003F2820D801F10800EF
:104410000F2806D80231032904D9002B08BF012335
:1044200000E0022304320C2AEBD1012B079813D0B1
:10443000022B1FD0089B00F0030003F003039B0036
:1044400043EA0010099B03F0030318431EE009AA86
:1044500006A84FF0000A1DE000F00F0040F04000F9
:1044600009F01EF8099B03F00F02089B42EA0310B3
:10447000C0B20BE000F03F0040F0800009F010F8FF
:104480009DF8200009F00CF89DF8240009F008F8C8
:104490000E265FE052F804194FEA8A0A01F18006FD
:1044A000FF2E10D901F50046B6F5803F02D24AF042
:1044B000010A08E001F50001B1F1807F34BF4AF044
:1044C000020A4AF0030A8242E4D16AF03F00C0B215
:1044D00008F0E6FF00260AF00302022AA05D09D0D8
:1044E000032A21D0012A2DD108F0DAFFA059C0F308
:1044F000072027E008F0D4FFA059C0F3072008F0F8
:10450000CFFFA059C0F307401CE000BF7C0700208C
:10451000901C00208007002094070020772E0020A8
:10452000A41C002035C2724F08F0BAFFA059C0F396
:10453000072008F0B5FFA059C0F3074008F0B0FF0E
:10454000A059000E043608F0ABFF0C2E4FEAAA0A61
:10455000C1D19DE70122B2402B681A420AD0B300B4
:1045600009EB0302434452F81C0C53F81C3CC01ADC
:1045700008F0E7FF0136112EECD1002309EB03020E
:10458000B2F9281008EB0302B2F928208A1A44F87D
:1045900013200233082BF1D10AAB06A84FF0000B11
:1045A00053F804194FEA8B025FFA82FB69B101F1FB
:1045B00008060F2E02D84BF0010B06E08031FF29D0
:1045C00094BF4BF0020B4BF0030B8342E8D14FF04A
:1045D000000A584608F064FF564653460BF00300A5
:1045E000022814D0032820D0012838D12EB954F83D
:1045F0000A1006460901CBB231E054F80A00002641
:1046000000F00F001843059308F04AFF05E036B9A3
:1046100014F80A00059308F043FF059B1FE054F8C7
:104620000A00C0F30310184313E054F80A003EB91F
:10463000C0F30720059308F033FF14F80A00EAE7F7
:10464000C0F30330184308F02BFF54F80A00C0F3FE
:10465000071008F025FF54F80A100901CBB20AF13F
:10466000040ABAF1100F4FEA9B0BB7D1012E02D109
:10467000184608F015FF2A6812F4805606D0B9F8DB
:104680006410B8F864300126CB1A079391040AD558
:104690000CA901EB8603B9F86600B8F8661001367C
:1046A000411A43F8141C530512D504EB860100236C
:1046B00009EB0300B0F96CE008EB0300B0F96C0003
:1046C000C0EB0E0041F813000233062BF0D1033685
:1046D00010050BD50CAA02EB8601D8F86830D9F882
:1046E00068200136D31A41F8143C00E026B1012EAF
:1046F00004D1079808F025FF00241AE0731E04EB8C
:104700008602002052F8041D4000C0B209B140F0FA
:104710000100013BF6D508F0C3FE4FF0000B54F842
:104720002B0008B108F00DFF0BF1010BB345F6DBD0
:10473000E2E7AA6804F1180332F91300EA680134C9
:1047400032F913102A6932F9133002220B4493FB19
:10475000F2F3C01A08F0F5FE032CEAD10024AA688F
:1047600004F118035B001A44B2F90600EA68013448
:104770001A44B2F906102A691344B3F9063002222A
:104780000B4493FBF2F3C01A08F0DBFE032CE6D1D6
:104790000024504B1B789C4217DAAA6804F11C03D2
:1047A0005B001A44B2F90400EA6801341A44B2F911
:1047B00004102A691344B3F9043002220B4493FB1A
:1047C000F2F3C01A08F0BDFEE3E72B68990506D5A1
:1047D000B9F95E00B8F95E30C01A08F0B2FEEB68B5
:1047E000AA682B613C4B3D49EA60D21A92104A43B9
:1047F0000321013292FBF1F101EB4101521A7421C4
:1048000001FB0233AB6036498B681A0637D5354C4D
:10481000354D2268D5F870319A420CD16268D5F8CE
:1048200074319A4207D1314A1368102B13D1304B9F
:104830001B685B060FD1482008F032FE206808F0A4
:1048400080FE606808F07DFE2368C5F870316368FB
:10485000C5F8743111E0274A234B117895F880216F
:1048600091420AD1244AD3F878111068884204D1C1
:104870005268D3F87C319A4201D008F066FE1F4B93
:104880001A6801321A60194B1A680132202A04D1C1
:1048900000221A60164B1A6801321A600EE0184B9B
:1048A0001A68184B5B68C8339A4203D90CF09AFD1A
:1048B00001230AE008F0E2FD0028F7D102F042FAF5
:1048C00028B101233B7002E007233B70F6E70DB0EF
:1048D000BDE8F08F772E0020A41C002035C2724F57
:1048E000940700207C1B0020901C00207C070020E7
:1048F0007807002070120020882500208007002003
:10490000482E0020840700202DE9F04F4728A9B049
:10491000044600F0558600F2BC802E2800F0038685
:1049200055D8202800F0078323D8032800F0A7815A
:1049300014D8012800F09881022840F077860420DE
:1049400002F09AFF432002F067FF4C2002F064FF60
:10495000462002F061FF4C2000F0EEBC042800F07D
:104960009781052840F062861A2002F085FF002416
:104970009BE1262800F079850CD8222800F040849D
:10498000242840F05386042002F076FFD34B986829
:1049900000F048BE2A2800F079852C2800F07C859C
:1049A000282840F04386CD4C072002F065FFB4F97B
:1049B0000A0102F064FFB4F90C0102F060FF94F800
:1049C0000E0102F029FFB4F9100100F05CBD3A2895
:1049D00000F0EB821DD8342800F032840DD8302846
:1049E00000F0B785322840F02186012002F044FF14
:1049F000BA4B93F81C0100F09FBC362800F071857B
:104A0000382840F01386042002F036FFB34C00F043
:104A100085BC402800F0578511D83B2800F0E98379
:104A20003D2840F00386AD4C022002F025FF94F8AB
:104A3000270102F0F1FE94F8260100F07DBC452824
:104A400000F0E18500F2AA85422840F0EF85A34CF2
:104A5000102002F011FF607902F0DEFEA06802F083
:104A60009CFE94F81A0102F0D7FEB4F9E80002F0B7
:104A700006FFB4F9EA0002F002FFB4F9EC0002F01C
:104A8000FEFEB4F90A0102F0FAFEB4F90C0100F0DE
:104A9000FABC6F2800F0EA826DD8682800F05B82CB
:104AA00029D8652800F038811AD8492800F0AC824E
:104AB000642840F0BB850720884C02F0DDFEE7202B
:104AC00002F0AAFE607902F0A7FE002002F0A4FE28
:104AD00094F83231002B0CBF04200C2000F0A2BD52
:104AE000662800F0C881672840F0A085102002F0F9
:104AF000C3FE0024F8E16B2800F03D8428D8692823
:104B000000F035826A2840F09185102002F0B4FE52
:104B1000734B744C187800F0020002F07DFE724B6B
:104B2000187802F079FE206802F037FE606802F023
:104B300034FE6E4BB3F9000002F0A1FE6C4BB3F9EA
:104B4000000002F09CFE6B4BB3F91E0000F09BBC12
:104B50006D2800F01F8200F22C82674C062002F0C4
:104B60008BFEB4F9000002F08AFEB4F9020002F0F4
:104B700086FE624B16E2762800F00F844DD873282B
:104B800000F0EE833ED8702800F09782722840F043
:104B90004D85524C162002F06FFEB4F91E0102F052
:104BA0006EFEB4F9D00002F06AFE554DB4F9D200A1
:104BB00002F065FEB4F9D40002F061FE2B68B3F98F
:104BC000AA0102F05CFE94F8340102F025FE0020F8
:104BD00002F022FE94F8350102F01EFE94F80F0157
:104BE00002F01AFE94F81C0102F016FE002002F0FA
:104BF00013FE2B68B3F952000A2390FBF3F002F086
:104C00003EFE8BE3742800F03C83752840F00E854F
:104C10002F2002F031FE3B4CE3E2A02800F0178485
:104C20000AD8772800F05F83782840F0FF84382086
:104C300002F022FE00255FE1F02800F0FB83FE2851
:104C400000F0EA83A42840F0F1842A4D002495F86E
:104C500020002E4680000130C0B202F00DFE95F813
:104C6000200002F0D9FDBEE3032002F005FE002083
:104C700002F0D2FD204602F0CFFD08205CE302F0F6
:104C8000FBFD012002F0C8FD092002F0C5FDA8E3EC
:104C9000062002F0F1FD00241B4B1B68185D013457
:104CA00002F0BAFD042CF7D1C2E3184B185D0134B1
:104CB00002F0B2FD0B2CF8D10024154B185D013425
:104CC00002F0AAFD082CF8D10024124B185D013423
:104CD00002F0A2FD072CF8D100F0A6BC940700203A
:104CE000DE10002088250020701200208225002080
:104CF00080250020141E00203C1200206C13002090
:104D000078120020B79B01081401002058B2010856
:104D100064B2010839B201080B2002F0ADFDBE4BB0
:104D2000BE4CB3F9000002F0AAFD208800B202F0E8
:104D3000A6FDBB4B1B68C3F3C000C3F38002800019
:104D400040EA4200C3F340021043C3F3401240EA7A
:104D5000C20003F01003184302F091FDB14BA47898
:104D60001A8812F0010F0CBF0021022112F0020F6D
:104D70000CBF0023042312F0040F01910CBF00218B
:104D8000102112F0400F02930CBF00232023049344
:104D900012F0100FA44B03910CBF00214FF40071CF
:104DA00012F0200F1B6805910CBF00214FF48061A9
:104DB00012F4807F06910CBF00214FF4006102F0D5
:104DC000080B03F4807A079103F4805903F4005828
:104DD00003F4804C03F4004E03F4803703F40036F0
:104DE00003F4802503F4002003F4801103F0C003D2
:104DF00043EA0B0343EA0A0343EA090343EA0803CD
:104E000043EA0C0343EA0E033B431E43874B3543FF
:104E10001B7828430143C3F380030B43019912F429
:104E2000007F43EA010302990CBF00224FF40012F5
:104E30000B43039900200B4304990B4305990B4343
:104E400006990B4307990B431A430346A3420CD21E
:104E500077495D5C012101FA05F5154218BF9940BB
:104E600003F1010318BF0843F0E702F096FC714B11
:104E700093F8600760E2122002F0FEFC6E4B6F4C6C
:104E80001B88B3F5806F22D90025605F082390FB53
:104E9000F3F0023502F0F3FC062DF6D1684CB4F9BC
:104EA000000002F0ECFCB4F9020002F0E8FCB4F9F6
:104EB0000400644C02F0E3FCB4F9000002F0DFFCF3
:104EC000B4F9020002F0DBFCB4F90400DBE2B4F94F
:104ED000000002F0D4FCB4F9020002F0D0FCB4F9F6
:104EE000040002F0CCFCD9E7574B185D013402F006
:104EF00093FC102CF8D197E3544E05F12C04336841
:104F0000E4002344B3F9060002F0B9FC336801352C
:104F10002344B3F9080002F0B2FC33682344B3F928
:104F20000A0002F0ACFC33681C44207B02F074FCE5
:104F3000082DE1D178E3082002F09EFC0024434BC9
:104F40001B6803EBC40393F86D01013402F064FCA9
:104F5000082CF4D168E3102002F08EFC00243C4BB6
:104F6000185D013402F058FC102CF8D15CE32B4D95
:104F70000024687E400000F0FE0002F07DFC6B7EA5
:104F80009C4280F05183334B33F9140002F077FCDC
:104F90000134F4E7062002F06FFC2F4B186802F092
:104FA000FCFB2E4BB3F900006DE2042002F064FC20
:104FB00037E3072002F060FC294B4FF6FF741878A6
:104FC00002F02AFC274B1868A042A8BF204620EA1E
:104FD000E07000B202F053FC104BB3F91C0002F079
:104FE0004EFC144B93F80F211F4B42B11B680A2053
:104FF0005843A042A8BF204620EAE07002E01868AB
:1050000000F30F0000B23EE2022002F035FC094B33
:10501000B3F90C0037E200BF82130020141E0020F9
:10502000841000208C10002088100020762E002094
:10503000171E0020940700201800002040130020B5
:10504000602E0020D81000201615002078120020B5
:10505000F81400209A100020941000203412002030
:10506000702500207C25002078250020B44C0A20E3
:1050700002F002FC23680025187802F0CDFB2368BB
:105080002646587802F0C8FB3368AD4C2B4418799B
:10509000013502F0C1FB032DF6D12368D87902F067
:1050A000BBFB2368987802F0B7FB2368D87802F03E
:1050B000B3FB2368B3F90800E5E1A24D1E2002F01E
:1050C000DBFB2B6800241B78022B77D12B6804F1C3
:1050D000080253F822009C490DF0BAFA10F014FEB1
:1050E000FA28A8BFFA2020EAE070C0B202F094FBD0
:1050F0002B68964903EB8403D86A0DF0A9FA10F0E7
:1051000003FEFA28A8BFFA2020EAE070C0B202F03D
:1051100083FB2B6804F10E0253F822008C490DF03A
:1051200097FA10F0F1FD6428A8BF642020EAE0702F
:10513000C0B2013402F070FB032CC7D1072C2B68DE
:105140002AD1586C80490DF083FA10F0DDFDFA2861
:10515000A8BFFA2020EAE070C0B202F05DFB2B6825
:105160007949986C0DF074FA10F0CEFDFA28A8BFBA
:10517000FA2020EAE070C0B202F04EFB2B6893F8F0
:105180004C000DF00DFA10F0BFFDFA28A8BFFA2070
:1051900020EAE070C0B20BE02344587802F03CFBF8
:1051A0002B682344D87A02F037FB2B682344587DC0
:1051B000013402F031FB0A2CC0D135E22B682344C4
:1051C000587802F029FB2B682344D87A02F024FB9C
:1051D0002B682344587D013402F01EFB0A2CEDD1CC
:1051E00022E214F8010F002800F01E8202F014FBE6
:1051F000F7E7012002F040FB524B1B6818789BE058
:10520000A02002F039FB00244E4B04F11C021B6865
:105210000C2103EB82035D1D4E4A5B79013401FBD7
:105220000323187A02F0F8FA687802F0F5FAA87801
:1052300002F0F2FAE87802F0EFFA282CE4D1F3E178
:10524000482002F019FB002506266E433D4B06F56B
:1052500088761B6801351E44B07A02F0DDFA707959
:1052600002F0DAFAB07902F0D7FAF07902F0D4FA63
:10527000307A02F0D1FA707A02F0CEFA0C2DE3D136
:10528000D2E1002701240025334B9A78954222DA97
:105290000333E95C00232F4A03EB02089A5C8A423D
:1052A00004D00C33B3F58A7FF5D112E0D8F80400AE
:1052B00010F0B8FA81460CB9264601E0074408E030
:1052C0004E4506DAD8F80430985D02F0A5FA0136AA
:1052D000F6E70135D8E7002C00F0A681F8B202F01D
:1052E000CBFA0024CFE71C4D0024A87802F0C4FAC2
:1052F000AB789C4280F09881184BE05C0023154A03
:1053000099189A5C824204D00C33B3F58A7FF6D1A7
:1053100002E0087A02F080FA0134E9E794F8060125
:1053200002F07AFA94F8080102F076FA94F807018C
:1053300002F072FA94F8090102F06EFA74E100BF0B
:105340002814002078120020000020410000C842EC
:1053500000007A44B0970108141E0020171E002098
:10536000082002F089FA0124E0B2013402F054FA74
:10537000092CF9D158E1052002F07EFAAD4BB3F9C2
:10538000000002F07CFAAC4BB3F9000002F077FAAF
:10539000AA4B187800F00100CEE701F0D3FF0646D3
:1053A000122002F069FA0EB9A54B02E0102E03D1CB
:1053B000A44B1D685C6801E000242546304602F0DD
:1053C0002BFA284602F0E9F9204602F0E6F99E4B56
:1053D000186802F0E2F9002002F051FA002002F011
:1053E0004EFA0020A8E796F820309C4280F01C81FD
:1053F000964D285D02F010FA05F11003185D02F0D9
:105400000BFA05F12003185D303502F005FA285D2E
:1054100002F002FA0134E6E7082002F02DFA00203B
:1054200002F02DFA002002F02AFA002002F027FAFA
:10543000002028E0864C042002F01EFA2368B3F90D
:10544000560002F01CFA2368B3F954001BE00C204C
:1054500002F012FA7F4B186802F09FF97E4B186831
:1054600002F09BF97D4B1868DCE07D4C062002F0D1
:1054700003FAB4F9E80002F002FAB4F9EA0002F023
:10548000FEF9B4F9EC0002F0FAF9CDE0012002F0E7
:10549000F3F9734B58794FE7714C082002F0ECF99F
:1054A00094F81A0102F0B8F9B4F9220102F0E7F910
:1054B000B4F91E0102F0E3F9B4F9200102F0DFF9BA
:1054C00094F81B0138E7082002F0D6F90024644B59
:1054D000234493F81201013402F09EF9082CF6D10E
:1054E000A2E01C2002F0C8F95D4C04F1200594F8FC
:1054F0003A0102F091F9B4F93C0102F0C0F994F8D4
:105500003E0102F089F994F83F0102F085F994F820
:10551000410102F081F9083494F8380102F07CF975
:10552000AC42E4D180E0402002F0A6F94C4C04F1FA
:105530004005B4F9EC0102F0A2F994F8EE0102F092
:105540006BF9043494F8EB0102F066F9AC42F0D147
:105550006AE0E02002F090F9414C04F18005B4F8D3
:105560006E01043400F03F0002F089F9B4F86A01DA
:10557000C0F3861002F083F994F86801000902F084
:105580004BF994F8680100F00F0002F045F994F827
:10559000690102F041F9AC42E1D145E0314C0D2006
:1055A00002F06AF90BF07AF902F036F994F8640027
:1055B00002F0F3F8206F02F0F0F80AF045FE31E057
:1055C00001F0D4FE0446842002F056F9204602F091
:1055D000E4F8244B1D6F04F18003AB428CBFC4EB95
:1055E0000505802501F0E6F820462A4608A90BF0BB
:1055F0008DF900240546AC4216DA08AB185D02F0BE
:105600000BF90134F7E7132002F036F90024164BAA
:10561000185D013402F000F90B2CF8D1002002F0E3
:10562000BCF8002002F0B9F8012000E0002029B009
:10563000BDE8F08FFA250020FC250020781B002013
:105640007C1B0020841B002090100020351E0020B1
:1056500078120020E8F7FF1FECF7FF1FF0F7FF1F9D
:1056600094070020141E002058B201082DE9F047CD
:1056700086B006460C46684603A915460AF0C8FDE2
:10568000284B02961A78059499462AB9039B049AE6
:10569000134423443F2B23D90023684603A9032244
:1056A00007F024FE039B3BB9049B2BB90AF0DCFDF9
:1056B000059B002B33D001E001F012FD039B049AFF
:1056C000059C134423447F2B09D945B303A9032226
:1056D0000123684607F00AFE0AF0C6FD1FE0029E9D
:1056E00099F80170DFF83C80C7F18005AC4238BF03
:1056F000254608F1020A0AEB07002F44FFB23146A3
:105700002A4610F045F8802F89F8017007D1641BF4
:1057100050467119224610F03BF888F8014006B057
:10572000BDE8F087881E002070B50E4B054693F843
:105730008237012B01D0064608E010F073F80446CA
:10574000214628460022FFF791FF09E0344616F86B
:10575000011B21B1044B186802F01AF8F6E7641B2C
:10576000204670BD94070020F42C002038B5284B4B
:1057700005461B780C46082B48D1452007F090FEC3
:10578000284607F08DFE0B2D19D003D83DB10A2D08
:105790000AD038BD0C2D1DD0FF2D2FD038BD20686C
:1057A000BDE8384007F0BEBE207807F079FE627988
:1057B0006378002A0CBF00208020184300E0207886
:1057C00007F06EFEA07807F06BFEE07807F068FE49
:1057D000207917E0B4F9000007F09AFEA07807F0EE
:1057E0005FFEE07807F05CFEB4F9040007F090FE7D
:1057F000B4F90600BDE8384007F08ABE0548FFF757
:1058000093FF0020BDE8384007F04ABE38BD00BF16
:105810007207002060B40108164B13B59B681B0388
:1058200025D5154B154C1B7815498DF80030154BB7
:1058300020681B788DF801300CF00AFF0DF0F4F8A9
:1058400011498DF8020060680CF002FF0DF0ECF8D1
:105850008DF80300A0680DF0E7F80C4B8DF80400FC
:105860001B780A2069468DF80530FFF77FFF02B0EC
:1058700010BD00BF9407002088130020F4130020FF
:1058800000002041E213002000007A44E1130020D0
:10589000054B1A7882F001021A70044A0023136043
:1058A000034A1360B8E700BFE1130020E4130020AF
:1058B000E8130020994B2DE9F04F1B7885B0013B90
:1058C000012B00F2B181964B1E78864240F0AC81EC
:1058D000944B1B78022B00F0A781934B934F9B5D59
:1058E000DFF878823B70924B924D1A7812B138F9FA
:1058F000160006E02B6838F9160003F100432B6010
:1059000040420CF051FE8C490CF056FF8B4B044684
:105910009A68DFF830A212F4002FDFF8449235D0F5
:1059200028680DF05BF8864B8DF80A00D3F88400E8
:105930000DF054F880498DF80B0020460CF088FEDD
:105940000CF07AFA10F05CF90CF004FD7A49ADF82D
:105950000800DAF800000CF07BFE0CF06DFA10F095
:105960004FF90CF0F7FC7449ADF80C00D9F80000C1
:105970000CF06EFE0CF060FA10F042F90CF0EAFC4C
:1059800002A9ADF80E000C20FFF7F0FED9F80030A8
:105990000021184600930CF0EFFFDFF8C4B1009B24
:1059A00000286ED0DAF80090204649460DF00CF839
:1059B00030B1644B2A681C60614BC3F8842020E13D
:1059C000484600210DF000F8002800F01A815E4AD8
:1059D00013785BB1022B00F214815C4BCBF80040D2
:1059E0001A68574BFA32C3F888200AE12046296822
:1059F0000CF024FD4FF07E514FF001040CF0DAFF63
:105A000000B90446DFF850A1E4B2DAF804007CB132
:105A10004F490CF01DFEDFF84CB1814659460CF0A1
:105A2000B5FF10B9CAF8049007E0CAF804B004E062
:105A300048490CF00DFECAF804004049DFF828A1DF
:105A40008B6813F4002F12D03A78DAF800308DF812
:105A5000084013445A780B208DF80920DA7A02A9FD
:105A60008DF80A205B7D8DF80B30FFF77FFE364AFC
:105A700001231370DAF800203B7813440022DA7215
:105A8000BDE0204619460CF081FF08B1CBF800407C
:105A9000DAF800A0D9F80090504649460CF0CEFC48
:105AA0002A4B83461968264BD3F888208A1AD2439A
:105AB000D20F01926AB94FF07E510CF085FF002899
:105AC00000F09F80204649460CF07EFF002800F041
:105AD00098801B4B5046D3F884104FF001090CF00E
